:100000000C94D30D0C94F30D0C94F30D0C94F30D90
:100010000C94F30D0C94F30D0C94F30D0C94F30D60
:100020000C94F30D0C94F30D0C94F30D0C94F30D50
:100030000C94F30D0C94F30D0C94F30D0C94F30D40
:100040000C94F30D0C94F30D0C94F30D0C94F30D30
:100050000C94F30D0C94F30D0C94F30D0C94F30D20
:100060000C94F30D0C94F30D0C94F30D0C94F30D10
:100070000C94F30D0C94F30D0C94F30D0C94F30D00
:100080000C94F30D0C94F30D0C94F30D0C94F30DF0
:100090000C94F30D0C94F30D0C94F30D0C94F30DE0
:1000A0000C94F30D0C94F30D0C94F30D0C94F30DD0
:1000B0000C94F30D0C94F30D0C94F30D0C94F30DC0
:1000C0000C94F30D0C94F30D0C94F30D0C94F30DB0
:1000D0000C94F30D0C94F30D0C94F30D0C94F30DA0
:1000E0000C94F30DB912C8136516C625392A302EA3
:1000F0000C2FD631131A9419BB1BB125CA1D8723A7
:100100009F23591C0F5E3D5E4C5EAA5EC15ED85EA9
:10011000FE5E245F35604F6C69206D616720646905
:100120006368202020206E696368742E20202020C0
:100130002020202020204765686520696E732020DC
:10014000202020202020476566846E676E6973003A
:10015000000000000000000000000000000000009F
:10016000000000000000000000000000000000008F
:10017000000000000000000000000000000000007F
:10018000000000000000000000000000000000006F
:10019000000000000000000000000000000000005F
:1001A000000000000000000000000000000000004F
:1001B000000000000000000000000000000000003F
:1001C000000000000000000000000000000000002F
:1001D0000000000000000000000000000000467267
:1001E00065696B617274650000000000000000002A
:1001F00000000000000000000000000000000000FF
:1002000000000000000000000000000000000000EE
:1002100000000000000000000000000000000000DE
:1002200000000000000000000000000000000000CE
:1002300000000000000000000000000000000000BE
:1002400000000000000000000000000000000000AE
:10025000000000000000000000000000000000009E
:10026000000000000000000000000000000000008E
:10027000000000000000000000000000000000007E
:10028000000000000000000000000000000000006E
:10029000000000000000000000000000000000005E
:1002A000000000000000529A636B6520766F722098
:1002B0006269732020207A756D204E8463687374A0
:1002C000656E202020205765726B00000000000042
:1002D000000000000000000000000000000000001E
:1002E000000000000000000000000000000000000E
:1002F00000000000000000000000000000000000FE
:1003000000000000000000000000000000000000ED
:1003100000000000000000000000000000000000DD
:1003200000000000000000000000000000000000CD
:1003300000000000000000000000000000000000BD
:1003400000000000000000000000000000000000AD
:10035000000000000000000000000000000000009D
:1003600000000000000000000000000000004475D4
:100370002068617374207A75207669656C654162C6
:1003800073656E7A656E20202020202020205A611F
:10039000686C65203530000000000000000000009F
:1003A000000000000000000000000000000000004D
:1003B000000000000000000000000000000000003D
:1003C000000000000000000000000000000000002D
:1003D000000000000000000000000000000000001D
:1003E000000000000000000000000000000000000D
:1003F00000000000000000000000000000000000FD
:1004000000000000000000000000000000000000EC
:1004100000000000000000000000000000000000DC
:1004200000000000000000000000000000000000CC
:10043000000000000000529A636B6520766F722006
:100440006269732020207A75722050726F64756B18
:1004500074696F6E2020506F6C796D656368616E92
:10046000696B6572000000000000000000000000E1
:10047000000000000000000000000000000000007C
:10048000000000000000000000000000000000006C
:10049000000000000000000000000000000000005C
:1004A000000000000000000000000000000000004C
:1004B000000000000000000000000000000000003C
:1004C000000000000000000000000000000000002C
:1004D000000000000000000000000000000000001C
:1004E000000000000000000000000000000000000C
:1004F00000000000000000000000000000005A6939
:1005000065686520766F72206269732020207A7595
:1005100072206E8463687374656E202020204861A9
:100520006C74657374656C6C6500000000000000FD
:1005300000000000000000000000000000000000BB
:1005400000000000000000000000000000000000AB
:10055000000000000000000000000000000000009B
:10056000000000000000000000000000000000008B
:10057000000000000000000000000000000000007B
:10058000000000000000000000000000000000006B
:10059000000000000000000000000000000000005B
:1005A000000000000000000000000000000000004B
:1005B000000000000000000000000000000000003B
:1005C0000000000000005A6965686520766F72209F
:1005D0006269732020207A7572206E846368737458
:1005E000656E2020202048616C74657374656C6CA6
:1005F0006500000000000000000000000000000096
:1006000000000000000000000000000000000000EA
:1006100000000000000000000000000000000000DA
:1006200000000000000000000000000000000000CA
:1006300000000000000000000000000000000000BA
:1006400000000000000000000000000000000000AA
:10065000000000000000000000000000000000009A
:10066000000000000000000000000000000000008A
:10067000000000000000000000000000000000007A
:1006800000000000000000000000000000005A69A7
:1006900065686520766F722062697320202047723A
:1006A000756E6461757362696C64756E6720456C04
:1006B000656B74726F6E696B6572000000000000FC
:1006C000000000000000000000000000000000002A
:1006D000000000000000000000000000000000001A
:1006E000000000000000000000000000000000000A
:1006F00000000000000000000000000000000000FA
:1007000000000000000000000000000000000000E9
:1007100000000000000000000000000000000000D9
:1007200000000000000000000000000000000000C9
:1007300000000000000000000000000000000000B9
:1007400000000000000000000000000000000000A9
:100750000000000000005A6965686520766F72200D
:100760006269732020204D6563686174726F6E69E1
:100770006B20202020204C61626F7200000000007E
:100780000000000000000000000000000000000069
:100790000000000000000000000000000000000059
:1007A0000000000000000000000000000000000049
:1007B0000000000000000000000000000000000039
:1007C0000000000000000000000000000000000029
:1007D0000000000000000000000000000000000019
:1007E0000000000000000000000000000000000009
:1007F00000000000000000000000000000000000F9
:1008000000000000000000000000000000000000E8
:100810000000000000000000000000000000529AEC
:10082000636B6520766F722061756620202053749B
:100830006172740000000000000000000000000071
:1008400000000000000000000000000000000000A8
:100850000000000000000000000000000000000098
:100860000000000000000000000000000000000088
:100870000000000000000000000000000000000078
:100880000000000000000000000000000000000068
:100890000000000000000000000000000000000058
:1008A0000000000000000000000000000000000048
:1008B0000000000000000000000000000000000038
:1008C0000000000000000000000000000000000028
:1008D0000000000000000000000000000000000018
:1008E000000000000000486575746520496E666F61
:1008F000726D696572744968722065756368209AC3
:100900006265722020205374756469656E67846E19
:10091000676520202020529A636B6520766F7220D5
:10092000626973202020546563686E696B756D0081
:1009300000000000000000000000000000000000B7
:1009400000000000000000000000000000000000A7
:100950000000000000000000000000000000000097
:100960000000000000000000000000000000000087
:100970000000000000000000000000000000000077
:100980000000000000000000000000000000000067
:100990000000000000000000000000000000000057
:1009A000000000000000000000000000000045738F
:1009B00020697374206465722032352E20204475BE
:1009C00020657268846C7473742020202020646514
:1009D000696E656E204C6F686E2E20766F6E3730B4
:1009E0000000000000000000000000000000000007
:1009F00000000000000000000000000000000000F7
:100A000000000000000000000000000000000000E6
:100A100000000000000000000000000000000000D6
:100A200000000000000000000000000000000000C6
:100A300000000000000000000000000000000000B6
:100A400000000000000000000000000000000000A6
:100A50000000000000000000000000000000000096
:100A60000000000000000000000000000000000086
:100A700000000000000045732069737420646572F3
:100A80002032352E2020447520657268846C747382
:100A90007420202020206465696E656E204C6F688C
:100AA0006E2E20766F6E31343000000000000000A2
:100AB0000000000000000000000000000000000036
:100AC0000000000000000000000000000000000026
:100AD0000000000000000000000000000000000016
:100AE0000000000000000000000000000000000006
:100AF00000000000000000000000000000000000F6
:100B000000000000000000000000000000000000E5
:100B100000000000000000000000000000000000D5
:100B200000000000000000000000000000000000C5
:100B30000000000000000000000000000000476509
:100B4000686520332046656C6465722020207A75C4
:100B5000729A636B000000000000000000000000BB
:100B60000000000000000000000000000000000085
:100B70000000000000000000000000000000000075
:100B80000000000000000000000000000000000065
:100B90000000000000000000000000000000000055
:100BA0000000000000000000000000000000000045
:100BB0000000000000000000000000000000000035
:100BC0000000000000000000000000000000000025
:100BD0000000000000000000000000000000000015
:100BE0000000000000000000000000000000000005
:100BF00000000000000000000000000000000000F5
:100C000000000000000044752072656E6F76696513
:100C10007273742020206465696E65202048847595
:100C20007365722020205A61686C6520669A722074
:100C30006A65646573204861757320323520756E6E
:100C40006420669A72206A6564657320486F7465D3
:100C50006C20313030000000000000000000000077
:100C60000000000000000000000000000000000084
:100C70000000000000000000000000000000000074
:100C80000000000000000000000000000000000064
:100C90000000000000000000000000000000000054
:100CA0000000000000000000000000000000000044
:100CB0000000000000000000000000000000000034
:100CC000000000000000000000000000000044756B
:100CD0002077757264657374207A756D20204B6C73
:100CE000617373656E76657274726574657247655B
:100CF0007784686C742E205A61686C6520206A6560
:100D000064656D20537069656C6572203530000034
:100D100000000000000000000000000000000000D3
:100D200000000000000000000000000000000000C3
:100D300000000000000000000000000000000000B3
:100D400000000000000000000000000000000000A3
:100D50000000000000000000000000000000000093
:100D60000000000000000000000000000000000083
:100D70000000000000000000000000000000000073
:100D80000000000000000000000000000000000063
:100D900000000000000044752068617374206569DC
:100DA0006E6520202020576574746520676567652F
:100DB0006E20202020205065746572207665726C4C
:100DC0006F72656E2020647520736368756C64654E
:100DD00073742069686D65696E656E204B61666627
:100DE0006565202020207A61686C65203500000050
:100DF00000000000000000000000000000000000F3
:100E000000000000000000000000000000000000E2
:100E100000000000000000000000000000000000D2
:100E200000000000000000000000000000000000C2
:100E300000000000000000000000000000000000B2
:100E400000000000000000000000000000000000A2
:100E500000000000000000000000000000004475D9
:100E600020686173742062656920202020206569F4
:100E70006E656D204B756E64656E2020202065695F
:100E80006E65207363686C656368746520204265D5
:100E900077657274756E6720202020202020686995
:100EA0006E7465726C617373656E202020206765B7
:100EB000686520696E2064656E2020202020576FB1
:100EC000726B73686F70000000000000000000008B
:100ED0000000000000000000000000000000000012
:100EE0000000000000000000000000000000000002
:100EF00000000000000000000000000000000000F2
:100F000000000000000000000000000000000000E1
:100F100000000000000000000000000000000000D1
:100F2000000000000000467265696B617274650024
:100F300000000000000000000000000000000000B1
:100F400000000000000000000000000000000000A1
:100F50000000000000000000000000000000000091
:100F60000000000000000000000000000000000081
:100F70000000000000000000000000000000000071
:100F80000000000000000000000000000000000061
:100F90000000000000000000000000000000000051
:100FA0000000000000000000000000000000000041
:100FB0000000000000000000000000000000000031
:100FC0000000000000000000000000000000000021
:100FD0000000000000000000000000000000000011
:100FE0000000000000000000000000000000447548
:100FF0002072656E6F766965727374202020646557
:10100000696E6520204884757365722020205A61BE
:10101000686C6520669A72206A6564657320486111
:10102000757320343020756E6420669A72206A656C
:1010300064657320486F74656C20313135000000A1
:1010400000000000000000000000000000000000A0
:101050000000000000000000000000000000000090
:101060000000000000000000000000000000000080
:101070000000000000000000000000000000000070
:101080000000000000000000000000000000000060
:101090000000000000000000000000000000000050
:1010A0000000000000000000000000000000000040
:1010B000000000000000496E20646572202020209E
:1010C0002020202020205665727365747A756E6723
:1010D0002069737420206469722065696E204672ED
:1010E0008473657220207A657262726F6368656EC0
:1010F0002E20202020205A61686C6520313030007D
:1011000000000000000000000000000000000000DF
:1011100000000000000000000000000000000000CF
:1011200000000000000000000000000000000000BF
:1011300000000000000000000000000000000000AF
:10114000000000000000000000000000000000009F
:10115000000000000000000000000000000000008F
:10116000000000000000000000000000000000007F
:1011700000000000000000000000000000004475B6
:101180002067946E6E7374206469722020206574E9
:10119000776173206265696D202020202020536EC6
:1011A00061636B6175746F6D6174202020207A61BA
:1011B000686C652035300000000000000000000071
:1011C000000000000000000000000000000000001F
:1011D000000000000000000000000000000000000F
:1011E00000000000000000000000000000000000FF
:1011F00000000000000000000000000000000000EF
:1012000000000000000000000000000000000000DE
:1012100000000000000000000000000000000000CE
:1012200000000000000000000000000000000000BE
:1012300000000000000000000000000000000000AE
:10124000000000000000496872206D61636874202E
:1012500065696E65200945786B757273696F6E20DC
:101260002020202020207A61686C65203530000025
:10127000000000000000000000000000000000006E
:10128000000000000000000000000000000000005E
:10129000000000000000000000000000000000004E
:1012A000000000000000000000000000000000003E
:1012B000000000000000000000000000000000002E
:1012C000000000000000000000000000000000001E
:1012D000000000000000000000000000000000000E
:1012E00000000000000000000000000000000000FE
:1012F00000000000000000000000000000000000EE
:101300000000000000000000000000000000447524
:101310002068617374206469652020202020416268
:101320007363686C757373726569736520206F727F
:1013300067616E6973696572742C202020206A656C
:1013400064657220537069656C65722020207A6133
:10135000686C742064697220313000000000000065
:10136000000000000000000000000000000000007D
:10137000000000000000000000000000000000006D
:10138000000000000000000000000000000000005D
:10139000000000000000000000000000000000004D
:1013A000000000000000000000000000000000003D
:1013B000000000000000000000000000000000002D
:1013C000000000000000000000000000000000001D
:1013D000000000000000456C656B74726F6E696BF5
:1013E000657220202020646573204D6F6E617473D8
:1013F000202020202020447520657268846C74733E
:1014000074203130300000000000000000000000B7
:1014100000000000000000000000000000000000CC
:1014200000000000000000000000000000000000BC
:1014300000000000000000000000000000000000AC
:10144000000000000000000000000000000000009C
:10145000000000000000000000000000000000008C
:10146000000000000000000000000000000000007C
:10147000000000000000000000000000000000006C
:10148000000000000000000000000000000000005C
:101490000000000000000000000000000000447593
:1014A0002068696C667374206465696E656D4D694A
:1014B00074736368FC6C6572206265696D206C658D
:1014C000726E656E2E202020202020202020447562
:1014D00020657268846C74737420313000000000E1
:1014E00000000000000000000000000000000000FC
:1014F00000000000000000000000000000000000EC
:1015000000000000000000000000000000000000DB
:1015100000000000000000000000000000000000CB
:1015200000000000000000000000000000000000BB
:1015300000000000000000000000000000000000AB
:10154000000000000000000000000000000000009B
:10155000000000000000000000000000000000008B
:10156000000000000000447520657268846C73748C
:1015700020353000000000000000000000000000E6
:10158000000000000000000000000000000000005B
:10159000000000000000000000000000000000004B
:1015A000000000000000000000000000000000003B
:1015B000000000000000000000000000000000002B
:1015C000000000000000000000000000000000001B
:1015D000000000000000000000000000000000000B
:1015E00000000000000000000000000000000000FB
:1015F00000000000000000000000000000000000EB
:1016000000000000000000000000000000000000DA
:1016100000000000000000000000000000000000CA
:101620000000000000000000000000000000447501
:1016300020657268846C73742031303000000000C3
:10164000000000000000000000000000000000009A
:10165000000000000000000000000000000000008A
:10166000000000000000000000000000000000007A
:10167000000000000000000000000000000000006A
:10168000000000000000000000000000000000005A
:10169000000000000000000000000000000000004A
:1016A000000000000000000000000000000000003A
:1016B000000000000000000000000000000000002A
:1016C000000000000000000000000000000000001A
:1016D000000000000000000000000000000000000A
:1016E00000000000000000000000000000000000FA
:1016F000000000000000447520657268846C7374FB
:101700002032350000000000000000000000000052
:1017100000000000000000000000000000000000C9
:1017200000000000000000000000000000000000B9
:1017300000000000000000000000000000000000A9
:101740000000000000000000000000000000000099
:101750000000000000000000000000000000000089
:101760000000000000000000000000000000000079
:101770000000000000000000000000000000000069
:101780000000000000000000000000000000000059
:101790000000000000000000000000000000000049
:1017A0000000000000000000000000000000000039
:1017B0000000000000000000000000000000447570
:1017C00020657268846C7374203230000000000061
:1017D0000000000000000000000000000000000009
:1017E00000000000000000000000000000000000F9
:1017F00000000000000000000000000000000000E9
:1018000000000000000000000000000000000000D8
:1018100000000000000000000000000000000000C8
:1018200000000000000000000000000000000000B8
:1018300000000000000000000000000000000000A8
:101840000000000000000000000000000000000098
:101850000000000000000000000000000000000088
:101860000000000000000000000000000000000078
:101870000000000000000000000000000000000068
:10188000000000000000447520657268846C737469
:101890002031303000000000000000000000000097
:1018A0000000000000000000000000000000000038
:1018B0000000000000000000000000000000000028
:1018C0000000000000000000000000000000000018
:1018D0000000000000000000000000000000000008
:1018E00000000000000000000000000000000000F8
:1018F00000000000000000000000000000000000E8
:1019000000000000000000000000000000000000D7
:1019100000000000000000000000000000000000C7
:1019200000000000000000000000000000000000B7
:1019300000000000000000000000000000000000A7
:1019400000000000000000000000000000004475DE
:1019500020657268846C73742031303000000000A0
:101960000000000000000000000000000000000077
:101970000000000000000000000000000000000067
:101980000000000000000000000000000000000057
:101990000000000000000000000000000000000047
:1019A0000000000000000000000000000000000037
:1019B0000000000000000000000000000000000027
:1019C0000000000000000000000000000000000017
:1019D0000000000000000000000000000000000007
:1019E00000000000000000000000000000000000F7
:1019F00000000000000000000000000000000000E7
:101A000000000000000000000000000000000000D6
:101A100000000000000044752062697374202020DB
:101A200020202020202057656C746D6569737465D3
:101A3000722E2020202052FC636B6520766F72206E
:101A40006269732020205374617274207A6965681A
:101A5000652064656E20646F7070656C74656E20BF
:101A60002020202020204265747261672065696E05
:101A70000000000000000000000000000000000066
:101A80000000000000000000000000000000000056
:101A90000000000000000000000000000000000046
:101AA0000000000000000000000000000000000036
:101AB0000000000000000000000000000000000026
:101AC0000000000000000000000000000000000016
:101AD000000000000000000000000000000044754D
:101AE000206861737420676567656E2020206469D3
:101AF000652048616E6479726567656C2020766543
:101B00007273746F7373656E2E2020202020529A9A
:101B1000636B6520766F722062697320202050729B
:101B20006F64756B74696F6E202020202020456CD7
:101B3000656B74726F6E696B657200000000000067
:101B40000000000000000000000000000000000095
:101B50000000000000000000000000000000000085
:101B60000000000000000000000000000000000075
:101B70000000000000000000000000000000000065
:101B80000000000000000000000000000000000055
:101B90000000000000000000000000000000000045
:101BA00000000000000011241FBECFEFD1E2DEBF15
:101BB000CDBF00E00CBF17E0A0E0B2E0E2E5F3ED3E
:101BC00000E00BBF02C007900D92A23FB107D9F70A
:101BD00028E1A2EFB7E001C01D92A13FB207E1F7F3
:101BE00046D20C94A7690C94000098B19F7E98B9D6
:101BF00098B19B7F98B98BB998B1926098B9815090
:101C0000833038F48FE291E10197F1F700C00000D2
:101C100003C090EA9A95F1F788B18D7F88B908954D
:101C20001F93CF93DF93CDB7DEB729970FB6F89404
:101C3000DEBF0FBECDBF8FEF8AB987B988B1806292
:101C400088B92FEF80E792E0215080409040E1F783
:101C500000C0000088B18E7F88B989E0E4E1F2E03D
:101C6000DE01119601900D928A95E1F710E00AC00D
:101C7000E1E0F0E0EC0FFD1FE10FF11D808190E04D
:101C8000B4DF1F5F1930A0F329960FB6F894DEBFBA
:101C90000FBECDBFDF91CF911F91089598B1906194
:101CA00098B998B19B7F98B98BB988B1826088B98F
:101CB00080EA8A95F1F788B18D7F88B9089581E02F
:101CC00094DF8FE99FE00197F1F700C000000895CD
:101CD00082E08BCF0895417070E0660F771F6270CD
:101CE000282F30E0220F331F220F331F2470842F40
:101CF000862B822B886079CF08950F931F93CF9303
:101D00008A01282F30E0285F3F4F862F90E1299FDE
:101D1000800D11246ADFC0E002C0C0DFCF5FF80190
:101D2000EC0FF11D80818111F8CFCF911F910F91A0
:101D3000089588E45ADF84E0B1DF8EE0AFDF85E10B
:101D4000ADDF84E0ABDF84E0A9DF84E0A7DF80E0E3
:101D5000A5DF80E0A3DF80E548DF80E09FDF84E04F
:101D60009DDF84E09BDF84E099DF85E197DF8EE0F3
:101D700095DF84E093DF80E091CF089551DF9FDF0E
:101D8000A7DFD7DF40E060E081E0A5CF08958F9224
:101D90009F92AF92BF92CF92DF92EF92FF920F93FA
:101DA0001F93CF93DF93CDB7DEB7A2970FB6F8940A
:101DB000DEBF0FBECDBF6C0121E1CE010196DC017B
:101DC000E22F1D92EA95E9F7FE017296DF011D925E
:101DD0002A95E9F7F60101900020E9F731978F0184
:101DE0000C191D09E62EF12C5701AA0CBB1CAA0CDC
:101DF000BB1CAA0CBB1CAA0CBB1CB6016A0D7B1D2C
:101E000040E150E00E946F66BFEFEB1AFB0AEE0C58
:101E1000FF1CEE0CFF1CEE0CFF1CEE0CFF1CE01672
:101E2000F1065CF4B501605F7F4F6C0D7D1D40E1F4
:101E300050E0CE0142960E946F6641DFAE014F5FD7
:101E40005F4F60E081E059DFAE014E5E5F4F60E0C2
:101E500082E053DF005211090A151B0514F481E0DA
:101E600001C080E0A2960FB6F894DEBF0FBECDBFD2
:101E7000DF91CF911F910F91FF90EF90DF90CF9066
:101E8000BF90AF909F908F900895CF93DF931F9254
:101E90001F92CDB7DEB79A83898389819A81CA96CA
:101EA0009C018AE0EDE1F2E0D90101900D928A9562
:101EB000E1F789819A81CA9627E534E0FC0133ABCA
:101EC00022AB89819A81CA9628E2FC0124AB8981E0
:101ED0009A81CA96FC0115AA89819A81CA96FC0149
:101EE00016AA89819A81CA96FC0117AA89819A81CA
:101EF000CA96FC0110AE89819A81CA96FC0111AE86
:101F000089819A818C589F4F9C018AE0E7E2F2E038
:101F1000D90101900D928A95E1F789819A818C58B7
:101F20009F4F2EEA38E0FC0133AB22AB89819A81C6
:101F30008C589F4F28E2FC0124AB89819A818C58F0
:101F40009F4FFC0115AA89819A818C589F4FFC01F3
:101F500016AA89819A818C589F4FFC0117AA898102
:101F60009A818C589F4FFC0110AE89819A818C58C0
:101F70009F4FFC0111AE89819A8182559F4F9C0130
:101F80008AE0E1E3F2E0D90101900D928A95E1F750
:101F900089819A8182559F4F25E03DE0FC0133AB5A
:101FA00022AB89819A8182559F4F28E2FC0124ABA4
:101FB00089819A8182559F4FFC0115AA89819A8156
:101FC00082559F4FFC0116AA89819A8182559F4FA5
:101FD000FC0117AA89819A8182559F4FFC0110AE9E
:101FE00089819A8182559F4FFC0111AE89819A8126
:101FF00088519F4F9C018AE0EBE3F2E0D901019008
:102000000D928A95E1F789819A8188519F4F2CE53D
:1020100031E1FC0133AB22AB89819A8188519F4F1A
:1020200028E2FC0124AB89819A8188519F4FFC01F1
:1020300015AA89819A8188519F4FFC0116AA89812E
:102040009A8188519F4FFC0117AA89819A818851F2
:102050009F4FFC0110AE89819A8188519F4FFC01EE
:1020600011AE00000F900F90DF91CF9108950F9364
:102070001F93CF93DF93CDB7DEB7C150D2400FB6D9
:10208000F894DEBF0FBECDBF81E089831A8281E064
:102090008B831C82CE0185549E4F22E0FC0120835D
:1020A000CE0185549E4F24E0FC012183CE0185544E
:1020B0009E4F20E2FC012283CE0185549E4F20E8F2
:1020C000FC012383CE0181549E4F21E0FC0120833B
:1020D000CE0181549E4F28E0FC012183CE01815422
:1020E0009E4F20E1FC012283CE0181549E4F20E4CB
:1020F000FC0123831D821E82CE018D539E4F26E05C
:10210000FC01322F11923A95E9F71F821886CE0111
:102110008C5B9F4FFC011082CE018B5B9F4FFC01BB
:1021200010821B861C861D861E8681E08F8781E0BB
:10213000888BCE0187539E4F28E0E5EAF5E0DC016D
:1021400001900D922A95E1F7198ACE018F529E4F88
:1021500028E0FC01322F11923A95E9F71A8A1B8A7E
:10216000CE018A5B9F4FFC011082CE01895B9F4F9D
:10217000FC011082CE01885B9F4FFC011082CE01D2
:10218000875B9F4FFC011082CE0187529E4FFC015E
:10219000108211821282CE01865B9F4FFC01108259
:1021A00085E08C8B1D8ACE01855B9F4FFC011082E0
:1021B0001E8A1F8A188E198E81E08A8F1B8E1C8EB4
:1021C000CE01845B9F4FFC0110821E8E1D8E1F8EE0
:1021D000CE01835B9F4FFC011082CE01825B9F4F3B
:1021E000FC01108218A219A2CE01815B9F4FFC0155
:1021F0001082CE01805B9F4FFC011082CE018F5A6E
:102200009F4FFC011082CE0184529E4F2AE0FC01B8
:10221000322F11923A95E9F71BA21AA283E08CA300
:102220001DA21EA21FA218A6CE018A519E4F2CE10C
:10223000FC01322F11923A95E9F719A61AA6CE01A0
:102240008E5A9F4FFC011082CE018D5A9F4FFC0188
:1022500010820E94CA4692DD8BE09BE00E945748A4
:1022600087EA99E012DE8BE897E10E947F5B8BECB6
:102270009AE00E94176380E895E20E9494630E94AE
:102280008E380E94074580E00E941E450E945D66D0
:102290001BA62FC08BA5282F30E040E5429FC00130
:1022A000439F900D1124825B944FFC018081882311
:1022B000E9F08BA5282F30E040E5429FC001439F05
:1022C000900D1124825B944FFC0150818BA5282F27
:1022D00030E040E5429FC001439F900D11248A5A8F
:1022E000944FFC018081652F0E94E63A8BA58F5F99
:1022F0008BA78BA5883270F2CE018C5A9F4FFC01C0
:102300001082CE018B5A9F4FFC011082CE018A5A57
:102310009F4FFC01108280919B1890919C18909384
:10232000CA0A8093C90A10929C1810929B1889E0DF
:1023300091E0FC018081882F90E0382F222786E0F1
:1023400091E0FC018081882F90E0822B932B909369
:102350009C1880939B188091C90A9091CA0A9C018D
:102360002095309580919B1890919C1882239323FF
:102370009093B7088093B60889E091E0FC018081D2
:10238000882F90E0382F222786E091E0FC018081A1
:10239000882F90E0822B932B8935910509F0CFC0CF
:1023A000EDDC9E0125583F4F80E090E0AAE7B4E4C1
:1023B000F90180839183A283B3838E0101581F4F5B
:1023C000CE0185589F4F20E030E04AE755E4FC01FC
:1023D00060817181828193810E946665DC01CB01FD
:1023E000F80180839183A283B383CE0181589F4FEC
:1023F00020E030E040E85FE3FC0160817181828190
:1024000093810E94186488234CF4CE018D579F4F0E
:1024100021E030E0FC01318320836DC0CE01815882
:102420009F4F20E03FEF4FE757E4FC01608171814F
:10243000828193810E94626518160CF04AC0CE0119
:1024400085589F4F20E030E040E251E4FC0160817C
:102450007181828193810E946665DC01CB018E01CE
:102460000D571F4FBC01CD010E948464DC01CB01DC
:10247000F8019183808324C0CE018B579F4F20E9C0
:1024800031E0FC0131832083CE018B579F4FFC014B
:10249000808191810197F1F79E012B573F4FF90100
:1024A00091838083CE018D579F4F9E012D573F4FC3
:1024B000F9012081318121503109FC0131832083D0
:1024C000CE018D579F4FFC0180819181892BA1F610
:1024D0002CC08E010D571F4FCE0181589F4FFC011C
:1024E00060817181828193810E948464DC01CB01CF
:1024F000F80191838083CE0189579F4F9E012D570C
:102500003F4FF90120813181FC0131832083CE01CD
:1025100089579F4FFC01808191810197F1F79E01BE
:1025200029573F4FF9019183808345E452E060E0F1
:1025300080E0E3DB46E552E060E081E0DEDB8091B5
:102540000402882F90E0092E000CAA0BBB0B40E080
:1025500050E027E030E0841B950B2817390710F472
:102560000C948F32FC018827EE58FF4F8F4F0C944C
:10257000E86588858823B9F447E652E060E080E0AA
:10258000BCDB46E752E060E081E0B7DB47E852E0C1
:1025900060E082E0B2DB8091070267EA79E00E94A6
:1025A0002B4081E088878091B6089091B7088827F2
:1025B0009072892B91F180910702833070F18091A4
:1025C000070281508093070280910702882F90E0D4
:1025D000292F2F938F9386E992E0892F8F9386E995
:1025E00092E08F93CE0185559E4F292F2F938F9385
:1025F0000E947E660F900F900F900F900F900F909B
:10260000CE0185559E4FAC0163E081E076DB809181
:10261000070267EA79E00E942B408091B60890910A
:10262000B70888279074892B91F180910702843034
:1026300070F5809107028F5F8093070280910702F7
:10264000882F90E0292F2F938F9386E992E0892F8E
:102650008F9386E992E08F93CE0185559E4F292F67
:102660002F938F930E947E660F900F900F900F9084
:102670000F900F90CE0185559E4FAC0163E081E035
:102680003CDB8091070267EA79E00E942B40809151
:10269000B6089091B70888279071892B11F40C9493
:1026A000923281E08CA72EC08CA5282F30E04AE31F
:1026B000429FC001439F900D11248752964FFC0109
:1026C000118210828CA5282F30E04AE3429FC0017E
:1026D000439F900D11248552964FFC0110828CA5CA
:1026E000282F30E04AE3429FC001439F900D112400
:1026F0008552964FFC0180816CA50E945F3B8CA5A2
:102700008F5F8CA7809107029CA5891768F680913E
:10271000070267EA79E00E942B4049E952E060E055
:1027200080E0EBDA80910702882F90E0292F2F9329
:102730008F9386E992E0892F8F9386E992E08F93B9
:10274000CE0185559E4F292F2F938F930E947E6631
:102750000F900F900F900F900F900F90CE01855516
:102760009E4FAC0164E080E0C8DA4AEA52E060E0E3
:1027700081E0C3DA4BEB52E060E082E0BEDA8091A8
:1027800007020E941F4781E0809304020C9492325A
:1027900081E08DA709C04AE06DA58CED95E00E940F
:1027A000DD3D8DA58F5F8DA7809107029DA58917BF
:1027B00090F781E08EA766C14CEC52E060E080E0CB
:1027C0009CDA8EA5882F90E0292F2F938F9386E98E
:1027D00092E0892F8F9386E992E08F93CE01855501
:1027E0009E4F292F2F938F930E947E660F900F90FC
:1027F0000F900F900F900F90CE0185559E4FAC011A
:102800006BE080E07ADA4DED52E060E081E075DA6D
:102810004DEE52E060E082E070DA74C080919B1867
:1028200090919C189093CA0A8093C90A10929C18A0
:1028300010929B1889E091E0FC018081882F90E044
:10284000382F222786E091E0FC018081882F90E0DC
:10285000822B932B90939C1880939B188091C90A8C
:102860009091CA0A9C012095309580919B18909177
:102870009C18822393239093B7088093B608809185
:10288000B6089091B70888279170892B89F08091BC
:10289000BC08882369F49091BD088091BC08492F39
:1028A000682F81E00E948C4081E08093BC0818C0B2
:1028B0008091B6089091B70888279270892B81F093
:1028C0008091BD08882361F49091BD088091BC0877
:1028D000492F682F82E00E948C4081E08093BD08E0
:1028E0008091BC08882329F08A85882311F482E02E
:1028F0008A878091BD08882329F08A85882311F46E
:1029000081E08A878091BC08882309F487CF809171
:10291000BD08882309F482CF8EA5282F30E080914E
:10292000B408482F50E08091B508882F90E0840FBC
:10293000951FAC016AE3629FC001639F900D112453
:102940008752964FFC01518340838EA5282F30E09B
:102950004AE3429FC001439F900D11248752964F36
:10296000FC01208131818F81482F50E06AE3649F10
:10297000C001659F900D11248752964FFC01808104
:1029800091812817390709F04FC08A85882F90E078
:1029900001978C54974FFC018081823098F08A8592
:1029A000882F90E001972A85222F30E021503109AD
:1029B0002C54374FF901208121508C54974FFC0142
:1029C000208312C08A85882F90E001972A85222FC4
:1029D00030E0215031092C54374FF90120812F5F0D
:1029E0008C54974FFC0120838EA5282F30E08091D6
:1029F000B408482F50E08091B508882F90E0840FEC
:102A0000951FAC016AE3629FC001639F900D112482
:102A10008752964FFC01518340839091B508809175
:102A2000B408692F0E9409438EA5282F30E04AE39D
:102A3000429FC001439F900D11248752964FFC0185
:102A4000208131818F81482F50E06AE3649FC0016B
:102A5000659F900D11248752964FFC0180819181D2
:102A60008217930710F48EA58F831092BC081092E2
:102A7000BD081A8667EA79E08EA50E942B408EA5D4
:102A80008F5F8EA7809107029EA5891708F094CECC
:102A90008F8189839E01295A3F4F80E090E0AAE709
:102AA000B4E4F90180839183A283B3838E01075735
:102AB0001F4FCE01895A9F4F20E030E04AE755E48E
:102AC000FC0160817181828193810E946665DC01D5
:102AD000CB01F80180839183A283B383CE01875712
:102AE0009F4F20E030E040E85FE3FC0160817181AE
:102AF000828193810E94186488234CF4CE0183570D
:102B00009F4F21E030E0FC01318320836DC0CE0176
:102B100087579F4F20E03FEF4FE757E4FC0160816C
:102B20007181828193810E94626518160CF04AC0FF
:102B3000CE01895A9F4F20E030E040E251E4FC0191
:102B400060817181828193810E946665DC01CB0185
:102B50008E0103571F4FBC01CD010E948464DC012C
:102B6000CB01F8019183808324C0CE0181579F4F10
:102B700020E931E0FC0131832083CE0181579F4F52
:102B8000FC01808191810197F1F79E0121573F4F10
:102B9000F90191838083CE0183579F4F9E01235774
:102BA0003F4FF9012081318121503109FC013183EE
:102BB0002083CE0183579F4FFC0180819181892B17
:102BC000A1F62CC08E0103571F4FCE0187579F4F90
:102BD000FC0160817181828193810E948464DC01A7
:102BE000CB01F80191838083CE018F569F4F9E01C8
:102BF00023573F4FF90120813181FC01318320832C
:102C0000CE018F569F4FFC01808191810197F1F792
:102C10009E012F563F4FF9019183808381E08FA75A
:102C200013C08FA5282F30E04AE3429FC001439F85
:102C3000900D11248752964F2CED35E0FC01318325
:102C400020838FA58F5F8FA7809107029FA589178B
:102C500040F78091070267EA79E00E942B404EEF2F
:102C600052E060E080E049D88981882F90E0292FE8
:102C70002F938F9386E992E0892F8F9386E992E0D4
:102C80008F93CE0185559E4F292F2F938F930E94AE
:102C90007E660F900F900F900F900F900F90CE01C7
:102CA00085559E4FAC016BE080E027D84FE053E0A4
:102CB00060E081E022D84FE153E060E082E01DD87F
:102CC00082E0809304020C949C328C858823B9F1B5
:102CD0000E945F0E4EEF52E060E080E00ED88981E6
:102CE000882F90E0292F2F938F9386E992E0892FE8
:102CF0008F9386E992E08F93CE0185559E4F292FC1
:102D00002F938F930E947E660F900F900F900F90DD
:102D10000F900F90CE0185559E4FAC016BE080E087
:102D20000E947D0E4FE053E060E081E00E947D0E46
:102D30004FE153E060E082E00E947D0E1C868091AE
:102D4000B6089091B70888279470892B21F488A53C
:102D5000882309F492C08985882309F48EC08F8561
:102D6000882309F48AC08889882309F486C08A8D5B
:102D7000882309F482C06AE08AE00E9409439091A6
:102D800007028981692F0E94C965892F8F5F898316
:102D90004EEF52E060E080E00E947D0E8981882F36
:102DA00090E0292F2F938F9386E992E0892F8F93BC
:102DB00086E992E08F93CE0185559E4F292F2F9360
:102DC0008F930E947E660F900F900F900F900F9040
:102DD0000F90CE0185559E4FAC016BE080E00E94C4
:102DE0007D0E4FE053E060E081E00E947D0E4FE1F8
:102DF00053E060E082E00E947D0E198688E290E058
:102E000028E230E0F90120812F73FC0120831B862A
:102E10001E861B8E8981282F30E04AE3429FC00125
:102E2000439F900D11248552964FFC018081282FDD
:102E300030E040E5429FC001439F900D1124835C28
:102E4000944FFC0180818CA31EA21FA218A68CA106
:102E5000843099F48981282F30E04AE3429FC001F1
:102E6000439F900D11248452964FFC01808188234A
:102E700021F081E08EA381E089878091B60890914E
:102E8000B70888279470892B89F08B81882371F487
:102E90008F85882359F08A8D882341F06AE08AE083
:102EA0000E94094381E08B831E861B8E89858823BF
:102EB00009F00FC28B81882309F40BC20E942136CE
:102EC0009091B4088091B508981709F049C08EA177
:102ED000882309F045C01B828A818F5F8A83109204
:102EE000BC081092BD088A81882F90E0823091053D
:102EF00081F083309105B9F0019709F034C088E280
:102F000090E028E230E0F90120812064FC01208378
:102F100026C088E290E028E230E0F90120812068B4
:102F2000FC0120831CC088E290E028E230E0F90137
:102F300020812F73FC0120831092B4081092B508F1
:102F40001092BC081092BD081A8281E08B8381E048
:102F5000898789810E946B4584E08CA3000003C0AF
:102F600081E089871A828981282F30E04AE3429FD5
:102F7000C001439F900D11248552964FFC01808122
:102F8000282F30E08091B408482F50E08091B50898
:102F9000882F90E0840F951F820F931F88972CF144
:102FA0008981482F50E08981282F30E06AE3629FB1
:102FB000C001639F900D11248752964FFC018081C0
:102FC00091819C0128533F4F6AE3649FC001659F34
:102FD000900D11248752964FFC01318320838091FC
:102FE000070267EA79E00E942B408981282F30E0B0
:102FF0004AE3429FC001439F900D11248552964F92
:10300000FC01808188ABD9C098A98DEC989F812D57
:10301000112482958695877028E2829F802D112445
:10302000F92FF81B8F2F69810E945F3B9E01255A63
:103030003F4F80E090E0A8ECB2E4F90180839183F7
:10304000A283B3838E010D561F4FCE01855A9F4F29
:1030500020E030E04AE755E4FC0160817181828123
:1030600093810E946665DC01CB01F8018083918326
:10307000A283B383CE018D569F4F20E030E040E81D
:103080005FE3FC0160817181828193810E941864F9
:1030900088234CF4CE0189569F4F21E030E0FC019B
:1030A000318320836DC0CE018D569F4F20E03FEFCE
:1030B0004FE757E4FC0160817181828193810E9416
:1030C000626518160CF04AC0CE01855A9F4F20E069
:1030D00030E040E251E4FC016081718182819381A2
:1030E0000E946665DC01CB018E0109561F4FBC01B1
:1030F000CD010E948464DC01CB01F80191838083BF
:1031000024C0CE0187569F4F20E931E0FC01318376
:103110002083CE0187569F4FFC01808191810197CA
:10312000F1F79E0127563F4FF90191838083CE012D
:1031300089569F4F9E0129563F4FF90120813181C9
:1031400021503109FC0131832083CE0189569F4FE4
:10315000FC0180819181892BA1F62CC08E0109563A
:103160001F4FCE018D569F4FFC016081718182817E
:1031700093810E948464DC01CB01F80191838083F8
:10318000CE0185569F4F9E0129563F4FF901208160
:103190003181FC0131832083CE0185569F4FFC0194
:1031A000808191810197F1F79E0125563F4FF901EA
:1031B0009183808388A98F5F88AB88A9282F30E00E
:1031C0008981482F50E06AE3649FC001659F900D9C
:1031D00011248552964FFC018081482F50E0809148
:1031E000B408682F70E08091B508882F90E0860FB2
:1031F000971F840F951F281739070CF405CF898175
:10320000282F30E08981482F50E06AE3649FC00195
:10321000659F900D11248552964FFC018081482FA7
:1032200050E08091B408682F70E08091B508882F35
:1032300090E0860F971F840F951F48E250E0BA0177
:103240000E94D565582F4AE3429FC001439F900DCD
:1032500011248552964FFC0150838981282F30E03C
:103260004AE3429FC001439F900D11248552964F1F
:10327000FC01808169810E945F3B8981282F30E0B9
:103280004AE3429FC001439F900D11248552964FFF
:10329000FC018081282F30E040E5429FC001439F20
:1032A000900D1124835C944FFC0180818CA3898153
:1032B000282F30E04AE3429FC001439F900D112424
:1032C0008552964FFC0180818C831092BC0810922D
:1032D000BD088091070267EA79E00E942B40809147
:1032E000B6089091B70888279071892B21F01B862A
:1032F00085E0809304028CA1882F90E0092E000CB9
:10330000AA0BBB0B40E050E027E030E0841B950B9C
:103310002817390710F40C949532FC018827E658D9
:10332000FF4F8F4F0C94E8658C81873031F08C8192
:10333000863119F08C81843211F41C8E02C081E038
:103340008C8F8B8D882311F00C94B4251A8E80916C
:10335000B6089091B70888279074892B19F4888D46
:10336000882379F40BE817E1298D488D69818C8DCC
:103370000E94A95D8B8F8B8D882319F4888D8E5FB9
:10338000888F8981882F90E001979E0125543E4FB8
:10339000820F931FFC018081282F30E08091B608B6
:1033A0009091B70882239323892B11F40C94B425B0
:1033B00081E0898F0BE817E1298D488D69818C8D1B
:1033C0000E94A95D8B8F8981282F30E04AE3429FBC
:1033D000C001439F900D11248552964FFC018081BE
:1033E000282F30E040E5429FC001439F900D1124FB
:1033F000835C944FFC0180818CA38981282F30E06D
:103400004AE3429FC001439F900D11248552964F7D
:10341000FC0180818C83198E188E81E08A8F81E077
:103420008C870C94B4258C81282F30E040E5429F96
:10343000C001439F900D1124825B944FFC01808159
:10344000882321F5188A8E010B5B1F4F49816BE0A1
:103450007BE08C810E949E32F8018083CE018B5BE1
:103460009F4FFC018081882F90E08130910519F0F9
:10347000029721F00BC081E0888B08C081E0888B27
:1034800081E08E8783E08093040200008C81482FC6
:1034900050E0CE018F5A9F4F60E5649F9001659F79
:1034A000300D1124275A344FF9012081FC0120836B
:1034B0008C81282F30E040E5429FC001439F900D52
:1034C0001124825B944FFC018081882311F40C94B9
:1034D000B7258C81282F30E040E5429FC001439FF3
:1034E000900D1124825B944FFC0190818981981783
:1034F00011F40C94B7258E85813011F40C94B72506
:10350000CE018F5A9F4FFC018081882311F00C94CB
:10351000B7251F868B85882309F001C18C81282F50
:1035200030E040E5429FC001439F900D1124825B33
:10353000944FFC0180818D878C81482F50E08C81D5
:10354000282F30E060E5629FC001639F900D112439
:103550008B5A944FFC018081882F90E068E2649F31
:103560009001659F300D1124820F931F880F991FC2
:10357000805C944FFC01808191819E8F8D8F8C8126
:10358000282F30E040E5429FC001439F900D112459
:10359000845B944FFC0120813181CE01835B9F4F7E
:1035A000FC01208381E08F8F19AA25C08C81482FD0
:1035B00050E089A9882F90E060E5649F9001659FA5
:1035C000300D1124820F931F805B944FFC0180818A
:1035D000282F30E040E5429FC001439F900D112409
:1035E000825B944FFC0190818D85981709F01F8EA6
:1035F00089A98F5F89AB89A98330C0F28F8D882319
:10360000A9F0CE01835B9F4FFC018081282F30E021
:103610008D8D9E8D8217930748F4CE01835B9F4F5B
:10362000FC018081882F90E09E8F8D8F4EEF52E0BD
:1036300060E080E00E947D0E8981882F90E0292F34
:103640002F938F9386E992E0892F8F9386E992E0FA
:103650008F93CE0185559E4F292F2F938F930E94D4
:103660007E660F900F900F900F900F900F90CE01ED
:1036700085559E4FAC016BE080E00E947D0E40E3DB
:1036800053E060E081E00E947D0E8E8D8F938D8DE2
:103690008F9386E992E0892F8F9386E992E08F934A
:1036A000CE0185559E4F292F2F938F930E947E66C2
:1036B0000F900F900F900F900F900F90CE018555A7
:1036C0009E4FAC016AE081E00E947D0E41E453E030
:1036D00060E082E00E947D0E8D85882F90E0292F8A
:1036E0002F938F9386E992E0892F8F9386E992E05A
:1036F0008F93CE0185559E4F292F2F938F930E9434
:103700007E660F900F900F900F900F900F90CE014C
:1037100085559E4FAC016BE082E00E947D0E898151
:10372000882F90E001979E0125543E4F820F931FF2
:10373000FC018081282F30E08091B6089091B70875
:1037400082239323892B11F40C94B7258D8D9E8DA4
:1037500021E0AC016D8589810E94EF618E878E85A5
:10376000813011F00C94B7251B8681E08F8781E0B2
:103770008C870C94B7258E85813011F40C94BA2572
:103780001F868B85882309F068C08C81282F30E044
:1037900040E5429FC001439F900D1124825C944FED
:1037A000FC01808191819E8F8D8F4EEF52E060E011
:1037B00080E00E947D0E8981882F90E0292F2F9331
:1037C0008F9386E992E0892F8F9386E992E08F9319
:1037D000CE0185559E4F292F2F938F930E947E6691
:1037E0000F900F900F900F900F900F90CE01855576
:1037F0009E4FAC016BE080E00E947D0E40E353E001
:1038000060E081E00E947D0E8E8D8F938D8D8F9371
:1038100086E992E0892F8F9386E992E08F93CE011B
:1038200085559E4F292F2F938F930E947E660F9070
:103830000F900F900F900F900F90CE0185559E4FD7
:10384000AC016AE081E00E947D0E42E553E060E059
:1038500082E00E947D0E81E08B878981882F90E035
:1038600001979E0125543E4F820F931FFC018081DA
:10387000282F30E08091B6089091B70882239323D7
:10388000892B11F40C94BA258D8D9E8D2AE0AC0104
:1038900060E089810E94EF618E878E85813011F012
:1038A0000C94BA251B8681E08F8781E08C870C946D
:1038B000BA258C81282F30E040E5429FC001439F0C
:1038C000900D1124825B944FFC018081882321F5A7
:1038D000188A8E010B5B1F4F49816BE07BE08C8166
:1038E0000E949E32F8018083CE018B5B9F4FFC01CA
:1038F0008081882F90E08130910519F0029721F0A6
:103900000BC081E0888B08C081E0888B81E08E87C6
:1039100083E08093040200008C81482F50E0CE01A8
:103920008F5A9F4F60E5649F9001659F300D112471
:10393000275A344FF9012081FC0120838C81282FE4
:1039400030E040E5429FC001439F900D1124825B0F
:10395000944FFC018081882311F40C94BD258C8147
:10396000282F30E040E5429FC001439F900D112475
:10397000825B944FFC0190818981981711F40C941B
:10398000BD258E85813011F40C94BD25CE018F5A52
:103990009F4FFC018081882311F00C94BD251F8668
:1039A0008B85882309F0CCC08C81282F30E040E53E
:1039B000429FC001439F900D1124825B944FFC01F4
:1039C00080818D871E8A85E08AAB22C08AA9282F34
:1039D00030E040E5429FC001439F900D1124825B7F
:1039E000944FFC0140818C81282F30E050E5529F9C
:1039F000C001539F900D1124825B944FFC01808184
:103A0000481719F48E898F5F8E8B8AA9865F8AABDF
:103A10008AA98432D8F28E8981508E8B8C81482F6E
:103A200050E08E89882F90E068E2649F9001659F46
:103A3000300D1124820F931F880F991F805C944FC3
:103A4000FC01808191819E8F8D8F4EEF52E060E06E
:103A500080E00E947D0E8981882F90E0292F2F938E
:103A60008F9386E992E0892F8F9386E992E08F9376
:103A7000CE0185559E4F292F2F938F930E947E66EE
:103A80000F900F900F900F900F900F90CE018555D3
:103A90009E4FAC016BE080E00E947D0E40E353E05E
:103AA00060E081E00E947D0E8E8D8F938D8D8F93CF
:103AB00086E992E0892F8F9386E992E08F93CE0179
:103AC00085559E4F292F2F938F930E947E660F90CE
:103AD0000F900F900F900F900F90CE0185559E4F35
:103AE000AC016AE081E00E947D0E41E453E060E0B9
:103AF00082E00E947D0E8D85882F90E0292F2F93E4
:103B00008F9386E992E0892F8F9386E992E08F93D5
:103B1000CE0185559E4F292F2F938F930E947E664D
:103B20000F900F900F900F900F900F90CE01855532
:103B30009E4FAC016BE082E00E947D0E81E08B879E
:103B40008981882F90E001979E0125543E4F820F76
:103B5000931FFC018081282F30E08091B60890915E
:103B6000B70882239323892B11F40C94BD258D8DE6
:103B70009E8D25E0AC016D8589810E94EF618E8765
:103B80008E85813009F0F9C71B8681E08F8781E03F
:103B90008C87F3C78EA1882309F4F2C78981282F67
:103BA00030E04AE3429FC001439F900D11248452AC
:103BB000964FFC018081882309F42CC18FA18823B2
:103BC00009F028C14EEF52E060E080E00E947D0ED7
:103BD0008981882F90E0292F2F938F9386E992E097
:103BE000892F8F9386E992E08F93CE0185559E4F62
:103BF000292F2F938F930E947E660F900F900F9026
:103C00000F900F900F90CE0185559E4FAC016BE049
:103C100080E00E947D0E43E653E060E081E00E9478
:103C20007D0E44E753E060E082E00E947D0E81E07B
:103C30008FA39E01215A3F4F80E090E4ACE9B5E4A8
:103C4000F90180839183A283B3838E0103561F4FB2
:103C5000CE01815A9F4F20E030E04AE755E4FC0155
:103C600060817181828193810E946665DC01CB0154
:103C7000F80180839183A283B383CE0183569F4F43
:103C800020E030E040E85FE3FC01608171818281E7
:103C900093810E94186488234CF4CE018F559F4F66
:103CA00021E030E0FC01318320836DC0CE018356DA
:103CB0009F4F20E03FEF4FE757E4FC0160817181A7
:103CC000828193810E94626518160CF04AC0CE0171
:103CD000815A9F4F20E030E040E251E4FC016081D6
:103CE0007181828193810E946665DC01CB018E0126
:103CF0000F551F4FBC01CD010E948464DC01CB0134
:103D0000F8019183808324C0CE018D559F4F20E917
:103D100031E0FC0131832083CE018D559F4FFC01A2
:103D2000808191810197F1F79E012D553F4FF90157
:103D300091838083CE018F559F4F9E012F553F4F1A
:103D4000F9012081318121503109FC013183208327
:103D5000CE018F559F4FFC0180819181892BA1F667
:103D60002CC08E010F551F4FCE0183569F4FFC0173
:103D700060817181828193810E948464DC01CB0126
:103D8000F80191838083CE018B559F4F9E012F5563
:103D90003F4FF90120813181FC0131832083CE0125
:103DA0008B559F4FFC01808191810197F1F79E0116
:103DB0002B553F4FF901918380838981282F30E073
:103DC0004AE3429FC001439F900D11248252964FB7
:103DD000FC018081882379F01092050245E853E0C8
:103DE00060E081E00E947D0E46E953E060E082E001
:103DF0000E947D0E0FC081E08093050247EA53E0E8
:103E000060E081E00E947D0E48EB53E060E082E0DC
:103E10000E947D0E80910502882F90E081309105EF
:103E200009F44FC0823091051CF4892B49F03AC443
:103E30008230910509F46CC0039709F40FC232C4B3
:103E40008E81882381F049EC53E060E081E00E949C
:103E50007D0E48EB53E060E082E00E947D0E81E041
:103E6000809305021AC48D81882309F416C48981C0
:103E7000282F30E04AE3429FC001439F900D112458
:103E80008452964FFC0110828981282F30E04AE34A
:103E9000429FC001439F900D11248252964FFC0116
:103EA00010828981282F30E04AE3429FC001439F5E
:103EB000900D11248352964FFC01108219861EA288
:103EC000ECC38E81882381F082E0809305024AED65
:103ED00053E060E081E00E947D0E4BEE53E060E035
:103EE00082E00E947D0EDBC38D81882309F4D7C355
:103EF0004FE053E060E081E00E947D0E4CEF53E024
:103F000060E082E00E947D0E83E080930502C7C3DB
:103F10008E81882371F18981282F30E04AE3429F06
:103F2000C001439F900D11248252964FFC01808165
:103F3000882379F01092050245E853E060E081E0C3
:103F40000E947D0E46E953E060E082E00E947D0E13
:103F5000A8C381E08093050249EC53E060E081E072
:103F60000E947D0E48EB53E060E082E00E947D0EEF
:103F700098C38D81882309F494C321E042E350E083
:103F800060E089810E94EF618E878E85813049F5DE
:103F90004DE054E060E081E00E947D0E4EE154E08F
:103FA00060E082E00E947D0E8981282F30E04AE3A4
:103FB000429FC001439F900D11248452964FFC01F3
:103FC00010828981282F30E04AE3429FC001439F3D
:103FD000900D11248352964FFC01108219861EA267
:103FE00060C38E85823009F05CC34DE054E060E030
:103FF00081E00E947D0E4FE254E060E082E00E948A
:104000007D0E9E012D593F4F80E090E4ACE9B5E470
:10401000F90180839183A283B3838E0109551F4FD9
:10402000CE018D599F4F20E030E04AE755E4FC0176
:1040300060817181828193810E946665DC01CB0180
:10404000F80180839183A283B383CE0189559F4F6A
:1040500020E030E040E85FE3FC0160817181828113
:1040600093810E94186488234CF4CE0185559F4F9C
:1040700021E030E0FC01318320836DC0CE01895501
:104080009F4F20E03FEF4FE757E4FC0160817181D3
:10409000828193810E94626518160CF04AC0CE019D
:1040A0008D599F4F20E030E040E251E4FC016081F7
:1040B0007181828193810E946665DC01CB018E0152
:1040C00005551F4FBC01CD010E948464DC01CB016A
:1040D000F8019183808324C0CE0183559F4F20E94E
:1040E00031E0FC0131832083CE0183559F4FFC01D9
:1040F000808191810197F1F79E0123553F4FF9018E
:1041000091838083CE0185559F4F9E0125553F4F5A
:10411000F9012081318121503109FC013183208353
:10412000CE0185559F4FFC0180819181892BA1F69D
:104130002CC08E0105551F4FCE0189559F4FFC01A4
:1041400060817181828193810E948464DC01CB0152
:10415000F80191838083CE0181559F4F9E012555A3
:104160003F4FF90120813181FC0131832083CE0151
:1041700081559F4FFC01808191810197F1F79E014C
:1041800021553F4FF901918380838981282F30E0A9
:104190004AE3429FC001439F900D11248252964FE3
:1041A000FC018081882379F01092050245E853E0F4
:1041B00060E081E00E947D0E46E953E060E082E02D
:1041C0000E947D0E0FC081E08093050247EA53E014
:1041D00060E081E00E947D0E48EB53E060E082E009
:1041E0000E947D0E8981282F30E04AE3429FC00162
:1041F000439F900D11248352964FFC018081882F9C
:1042000090E0292F2F938F9386E992E0892F8F9347
:1042100086E992E08F93CE0185559E4F292F2F93EB
:104220008F930E947E660F900F900F900F900F90CB
:104230000F90CE0185559E4FAC0160E081E00E9459
:104240007D0E40E454E060E081E00E947D0E41E597
:1042500054E060E082E00E947D0E23C21092BC0810
:104260001092BD080E9421369091B4088091B50843
:10427000981709F0ECC042E654E060E081E00E944B
:104280007D0E4CEF53E060E082E00E947D0E1986C7
:104290008981282F30E04AE3429FC001439F900D5F
:1042A00011248352964FFC0110828981282F30E01F
:1042B0004AE3429FC001439F900D11248452964FC0
:1042C000FC0110829E0129593F4F80E090E4ACE947
:1042D000B5E4F90180839183A283B3838E010F54E7
:1042E0001F4FCE0189599F4F20E030E04AE755E447
:1042F000FC0160817181828193810E946665DC018D
:10430000CB01F80180839183A283B383CE018F54C4
:104310009F4F20E030E040E85FE3FC016081718165
:10432000828193810E94186488234CF4CE018B54BF
:104330009F4F21E030E0FC01318320836DC0CE012E
:104340008F549F4F20E03FEF4FE757E4FC0160811F
:104350007181828193810E94626518160CF04AC0B7
:10436000CE0189599F4F20E030E040E251E4FC014A
:1043700060817181828193810E946665DC01CB013D
:104380008E010B541F4FBC01CD010E948464DC01DF
:10439000CB01F8019183808324C0CE0189549F4FC3
:1043A00020E931E0FC0131832083CE0189549F4F05
:1043B000FC01808191810197F1F79E0129543F4FC3
:1043C000F90191838083CE018B549F4F9E012B5422
:1043D0003F4FF9012081318121503109FC013183A6
:1043E0002083CE018B549F4FFC0180819181892BCA
:1043F000A1F658C18E010B541F4FCE018F549F4F11
:10440000FC0160817181828193810E948464DC015E
:10441000CB01F80191838083CE0187549F4F9E0189
:104420002B543F4FF90120813181FC0131832083DE
:10443000CE0187549F4FFC01808191810197F1F754
:104440009E0127543F4FF901918380832BC143E79D
:1044500054E060E081E00E947D0E4CEF53E060E0AC
:1044600082E00E947D0E1092BC081092BD088981E6
:10447000282F30E08981482F50E06AE3649FC00113
:10448000659F900D11248352964FFC01808141E07D
:10449000480F5AE3529FC001539F900D112483523D
:1044A000964FFC0140838981282F30E04AE3429FE8
:1044B000C001439F900D11248352964FFC018081CF
:1044C000833021F521E042E350E060E089810E94E1
:1044D000EF618E878981282F30E04AE3429FC00137
:1044E000439F900D11248352964FFC0110828981C5
:1044F000282F30E04AE3429FC001439F900D1124D2
:104500008452964FFC0110821986CCC081E088A7A6
:104510009E0125593F4F80E090E4ACE9B5E4F901F4
:1045200080839183A283B3838E0105541F4FCE01F4
:1045300085599F4F20E030E04AE755E4FC01608157
:104540007181828193810E946665DC01CB01F80153
:1045500080839183A283B383CE0185549F4F20E053
:1045600030E040E85FE3FC016081718182819381EA
:104570000E94186488234CF4CE0181549F4F21E09F
:1045800030E0FC01318320836DC0CE0185549F4F04
:1045900020E03FEF4FE757E4FC01608171818281A9
:1045A00093810E94626518160CF04AC0CE018559AD
:1045B0009F4F20E030E040E251E4FC0160817181D6
:1045C000828193810E946665DC01CB018E010154DA
:1045D0001F4FBC01CD010E948464DC01CB01F801B6
:1045E0009183808324C0CE018F539F4F20E931E017
:1045F000FC0131832083CE018F539F4FFC018081CA
:1046000091810197F1F79E012F533F4FF90191835B
:104610008083CE0181549F4F9E0121543F4FF90169
:104620002081318121503109FC0131832083CE0169
:1046300081549F4FFC0180819181892BA1F632C06A
:104640008E0101541F4FCE0185549F4FFC016081A4
:104650007181828193810E948464DC01CB01F80125
:1046600091838083CE018D539F4F9E0121543F4FF4
:10467000F90120813181FC0131832083CE018D53EA
:104680009F4FFC01808191810197F1F79E012D538D
:104690003F4FF9019183808305C0000003C00000F3
:1046A00001C000008981882F90E001979E01255468
:1046B0003E4F820F931FFC018081282F30E08091B4
:1046C000B6089091B70882239323892B21F081E0CB
:1046D0008D831E8255C28981882F90E001979E01AB
:1046E00021543E4F820F931FFC018081282F30E020
:1046F0008091B6089091B70882239323892B21F0EB
:104700001D8281E08E833CC21D821E8239C2898156
:104710000E946B4584E08CA38981282F30E04AE316
:10472000429FC001439F900D11248452964F21E077
:10473000FC01208381E08B8381E0898725C28C8105
:10474000282F30E040E5429FC001439F900D112487
:10475000825B944FFC018081882321F5188A8E01A9
:104760000B5B1F4F49816BE07BE08C810E949E3286
:10477000F8018083CE018B5B9F4FFC018081882FE5
:1047800090E08130910519F0029721F00BC081E093
:10479000888B08C081E0888B81E08E8783E08093DE
:1047A000040200008C81482F50E0CE018F5A9F4FA9
:1047B00060E5649F9001659F300D1124275A344FA6
:1047C000F9012081FC0120838C81282F30E040E515
:1047D000429FC001439F900D1124825B944FFC01C6
:1047E0008081882309F4CFC18C81282F30E040E5F7
:1047F000429FC001439F900D1124825B944FFC01A6
:1048000090818981981709F4BEC18E85813009F4A1
:10481000BAC1CE018F5A9F4FFC018081882309F0D5
:10482000B2C11F868B85882309F070C190910E0F4D
:1048300080910E14981719F48AE08F8B02C084E0DF
:104840008F8B4EEF52E060E080E00E947D0E898108
:10485000882F90E0292F2F938F9386E992E0892F5C
:104860008F9386E992E08F93CE0185559E4F292F35
:104870002F938F930E947E660F900F900F900F9052
:104880000F900F90CE0185559E4FAC016BE080E0FC
:104890000E947D0E44E854E060E081E00E947D0EBD
:1048A00046E954E060E082E00E947D0E8F89882F07
:1048B00090E0292F2F938F9386E992E0892F8F9391
:1048C00086E992E08F93CE0185559E4F292F2F9335
:1048D0008F930E947E660F900F900F900F900F9015
:1048E0000F90CE0185559E4FAC016EE082E00E9494
:1048F0007D0E62C080919B1890919C189093CA0A7B
:104900008093C90A10929C1810929B1889E091E03C
:10491000FC018081882F90E0382F222786E091E0EB
:10492000FC018081882F90E0822B932B90939C1820
:1049300080939B188091C90A9091CA0A9C01209586
:10494000309580919B1890919C188223932390938B
:10495000B7088093B6088091B6089091B708882769
:104960009170892B89F08091BC08882369F490911B
:10497000BD088091BC08492F682F81E00E948C40BF
:1049800081E08093BC0818C08091B6089091B70868
:1049900088279270892B81F08091BD08882361F46B
:1049A0009091BD088091BC08492F682F82E00E9439
:1049B0008C4081E08093BD088091BC08882309F475
:1049C00099CF8091BD08882309F494CF8C81282F3A
:1049D00030E040E5429FC001439F900D1124825B6F
:1049E000944FFC0180818D878091B408282F30E09E
:1049F0008091B508882F90E0A901480F591F8F8931
:104A0000282F30E0429FC001439F900D529F900D90
:104A100011249E8F8D8F4EEF52E060E080E00E9467
:104A20007D0E8981882F90E0292F2F938F9386E91F
:104A300092E0892F8F9386E992E08F93CE0185557E
:104A40009E4F292F2F938F930E947E660F900F9079
:104A50000F900F900F900F90CE0185559E4FAC0197
:104A60006BE080E00E947D0E40E353E060E081E077
:104A70000E947D0E8E8D8F938D8D8F9386E992E0AF
:104A8000892F8F9386E992E08F93CE0185559E4FB3
:104A9000292F2F938F930E947E660F900F900F9077
:104AA0000F900F900F90CE0185559E4FAC016AE09C
:104AB00081E00E947D0E41E453E060E082E00E94CC
:104AC0007D0E8D85882F90E0292F2F938F9386E977
:104AD00092E0892F8F9386E992E08F93CE018555DE
:104AE0009E4F292F2F938F930E947E660F900F90D9
:104AF0000F900F900F900F90CE0185559E4FAC01F7
:104B00006BE082E00E947D0E81E08B878981882F97
:104B100090E001979E0125543E4F820F931FFC01A8
:104B20008081282F30E08091B6089091B7088223C9
:104B30009323892B41F18D8D9E8D21E0AC016D85F4
:104B400089810E94EF618E878E858130E1F41B861A
:104B500081E08F8781E08C871092BC081092BD089D
:104B600012C000000C94953200000C9495320000A5
:104B70000C94953200000C94953200000C94953200
:104B800000000C94953200000C9495328B8588239C
:104B900009F050C00E945F0E47EA54E060E080E0F8
:104BA0000E947D0E8C81282F30E040E5429FC0019D
:104BB000439F900D1124855F944FAC0160E081E02C
:104BC0000E947D0E48EB54E060E082E00E947D0E82
:104BD00089E090E09BA38AA381E08B8781E08BAB87
:104BE00024C08BA9882F90E02BA9422F50E06AE3C4
:104BF000649F9001659F300D11242752364FF901B3
:104C000020813181AE0144525E4F880F991F840F7D
:104C1000951FFC013183208340E06BA980E090E088
:104C20000E94DD3D8BA98F5F8BAB809107029BA912
:104C30008917B8F61CAA9AC08CA9882F90E09E010B
:104C400025543E4F820F931FFC018081282F30E0B6
:104C50008091B6089091B70882239323892B09F499
:104C60004BC08CA9882F90E09E012D533E4F820FA0
:104C7000931FFC018081882309F03EC08CA9882FF6
:104C800090E09C012F5F3F4F4AE3429FC001439F4A
:104C9000900D11248752964FFC01208131818AA109
:104CA0009BA101968217930738F58AA19BA10196D3
:104CB0009BA38AA381E08DAB09C040E06DA980E091
:104CC00090E00E94DD3D8DA98F5F8DAB8091070242
:104CD0009DA9891790F78CA921E0280F8AA19BA193
:104CE00041E0622F0E94DD3D8CA921E0280FCE011A
:104CF0008D539E4FFC0125838CA9882F90E09E0147
:104D000021543E4F820F931FFC018081282F30E0F9
:104D10008091B6089091B70882239323892B19F1CB
:104D20008CA9882F90E09E012D533E4F820F931F38
:104D3000FC0180818823B9F48CA9882F90E09E0122
:104D40002D533E4F820F931F21E0FC012083CE01A3
:104D50008D539E4FFC01848121E0280FCE018D539D
:104D60009E4FFC0124838CA98F5F8CAB809107023E
:104D70009CA9981708F460CFCE018D539E4FFC017B
:104D8000948180910702981711F00C949832CE010B
:104D90008D539E4FFC018581882309F452C20E94E5
:104DA0005F0E9E0129583F4F80E090E0A0E2B1E401
:104DB000F90180839183A283B3838E0101531F4F36
:104DC000CE0189589F4F20E030E04AE755E4FC01CE
:104DD00060817181828193810E946665DC01CB01D3
:104DE000F80180839183A283B383CE0181539F4FC7
:104DF00020E030E040E85FE3FC0160817181828166
:104E000093810E94186488234CF4CE018D529F4FE9
:104E100021E030E0FC01318320836DC0CE0181535D
:104E20009F4F20E03FEF4FE757E4FC016081718125
:104E3000828193810E94626518160CF04AC0CE01EF
:104E400089589F4F20E030E040E251E4FC0160814E
:104E50007181828193810E946665DC01CB018E01A4
:104E60000D521F4FBC01CD010E948464DC01CB01B7
:104E7000F8019183808324C0CE018B529F4F20E99B
:104E800031E0FC0131832083CE018B529F4FFC0126
:104E9000808191810197F1F79E012B523F4FF901DB
:104EA00091838083CE018D529F4F9E012D523F4FA3
:104EB000F9012081318121503109FC0131832083A6
:104EC000CE018D529F4FFC0180819181892BA1F6EB
:104ED0002CC08E010D521F4FCE0181539F4FFC01FC
:104EE00060817181828193810E948464DC01CB01A5
:104EF000F80191838083CE0189529F4F9E012D52EC
:104F00003F4FF90120813181FC0131832083CE01A3
:104F100089529F4FFC01808191810197F1F79E0199
:104F200029523F4FF9019183808349EC54E060E0BE
:104F300080E00E947D0E4EEF52E060E081E00E9432
:104F40007D0ECE018D539E4FFC018581882F90E010
:104F5000292F2F938F9386E992E0892F8F9386E9EB
:104F600092E08F93CE0185559E4F292F2F938F93DB
:104F70000E947E660F900F900F900F900F900F90F1
:104F8000CE0185559E4FAC016BE081E00E947D0E05
:104F90009E0121593F4F80E090E0AAE7B5E4F90176
:104FA00080839183A283B3838E010B531F4FCE0165
:104FB00081599F4F20E030E04AE755E4FC016081D1
:104FC0007181828193810E946665DC01CB01F801C9
:104FD00080839183A283B383CE018B539F4F20E0C4
:104FE00030E040E85FE3FC01608171818281938160
:104FF0000E94186488234CF4CE0187539F4F21E010
:1050000030E0FC01318320836DC0CE018B539F4F74
:1050100020E03FEF4FE757E4FC016081718182811E
:1050200093810E94626518160CF04AC0CE01815926
:105030009F4F20E030E040E251E4FC01608171814B
:10504000828193810E946665DC01CB018E0107534A
:105050001F4FBC01CD010E948464DC01CB01F8012B
:105060009183808324C0CE0185539F4F20E931E096
:10507000FC0131832083CE0185539F4FFC01808149
:1050800091810197F1F79E0125533F4FF9019183DB
:105090008083CE0187539F4F9E0127533F4FF901D5
:1050A0002081318121503109FC0131832083CE01DF
:1050B00087539F4FFC0180819181892BA1F62CC0E1
:1050C0008E0107531F4FCE018B539F4FFC01608110
:1050D0007181828193810E948464DC01CB01F8019B
:1050E00091838083CE0183539F4F9E0127533F4F6F
:1050F000F90120813181FC0131832083CE0183536A
:105100009F4FFC01808191810197F1F79E0123530C
:105110003F4FF9019183808381E08EAB1EC08EA941
:10512000482F50E08EA9882F90E09E0124523E4FD8
:10513000880F991F820F931FFC01208131816AE340
:10514000649FC001659F900D11248752964FFC010A
:10515000318320838EA98F5F8EAB809107029EA939
:105160008917E8F68091070267EA79E00E942B40F0
:10517000CE018D539E4FFC018581482F50E0CE011A
:105180008D539E4FFC018581282F30E06AE3629F9A
:10519000C001639F900D11248752964FFC0120811E
:1051A00031818AA19BA1281B390B6AE3649FC0014E
:1051B000659F900D11248752964FFC013183208307
:1051C0008C81282F30E0CE018D539E4FFC0145810C
:1051D00050E5529FC001539F900D1124825B944F64
:1051E000FC014083CE018D539E4FFC0155818C8183
:1051F000282F30E040E5429FC001439F900D1124CD
:105200008A5A944FFC018081652F0E94E63A1FAABA
:105210000DC08FA9882F90E09E012D533E4F820F25
:10522000931FFC0110828FA98F5F8FAB8FA98630EF
:1052300080F31B8681E08C8782E0809304020C94CB
:1052400098320E945F0E4AED54E060E080E00E94D8
:105250007D0E4AEE54E060E081E00E947D0E9E01EA
:105260002D583F4F80E090E0AAE7B5E4F901808334
:105270009183A283B3838E0107521F4FCE018D58B5
:105280009F4F20E030E04AE755E4FC0160817181E6
:10529000828193810E946665DC01CB01F8018083E5
:1052A0009183A283B383CE0187529F4F20E030E0E9
:1052B00040E85FE3FC0160817181828193810E94FB
:1052C000186488234CF4CE0183529F4F21E030E0D4
:1052D000FC01318320836DC0CE0187529F4F20E0B7
:1052E0003FEF4FE757E4FC01608171818281938138
:1052F0000E94626518160CF04AC0CE018D589F4F6F
:1053000020E030E040E251E4FC0160817181828163
:1053100093810E946665DC01CB018E0103521F4F11
:10532000BC01CD010E948464DC01CB01F8019183B2
:10533000808324C0CE0181529F4F20E931E0FC01DF
:1053400031832083CE0181529F4FFC018081918166
:105350000197F1F79E0121523F4FF901918380831C
:10536000CE0183529F4F9E0123523F4FF90120816E
:10537000318121503109FC0131832083CE018352D8
:105380009F4FFC0180819181892BA1F62CC08E0159
:1053900003521F4FCE0187529F4FFC0160817181E4
:1053A000828193810E948464DC01CB01F8019183A6
:1053B0008083CE018F519F4F9E0123523F4FF901B1
:1053C00020813181FC0131832083CE018F519F4F99
:1053D000FC01808191810197F1F79E012F513F4F90
:1053E000F9019183808381E088AF1EC088AD482F8A
:1053F00050E088AD882F90E09E0124523E4F880FE8
:10540000991F820F931FFC01208131816AE3649F01
:10541000C001659F900D11248752964FFC01318386
:10542000208388AD8F5F88AF8091070298AD891780
:10543000E8F68091070267EA79E00E942B4019AEF6
:105440000DC089AD882F90E09E012D533E4F820FF5
:10545000931FFC01108289AD8F5F89AF89AD8630C3
:1054600080F31B8681E08C8782E0809304020C9499
:1054700098321A8A1B8685E08C8B1D8A1AAE0EC064
:105480008AAD882F90E09E012F523E4F820F931FCE
:1054900021E0FC0120838AAD8F5F8AAF8AAD88301E
:1054A00078F31BAE0DC08BAD882F90E09E01275284
:1054B0003E4F820F931FFC0110828BAD8F5F8BAF2D
:1054C0008BAD833080F31CAEBEC380919B1890914E
:1054D0009C189093CA0A8093C90A10929C18109243
:1054E0009B1889E091E0FC018081882F90E0382FA3
:1054F000222786E091E0FC018081882F90E0822BBA
:10550000932B90939C1880939B188091C90A90913B
:10551000CA0A9C012095309580919B1890919C1807
:10552000822393239093B7088093B60881E0898BF8
:105530008CAD882F90E09E0127533E4F820F931F22
:10554000FC018081282F30E040E5429FC001439F4D
:10555000900D1124825B944FFC01908189819817F2
:1055600009F06EC31DAE7EC08CAD882F90E09E0109
:1055700027533E4F820F931FFC018081482F50E03C
:105580008DAD882F90E060E5649F9001659F300DA0
:105590001124820F931F805B944FFC018081282F80
:1055A00030E040E5429FC001439F900D1124825B93
:1055B000944FFC01908189819817E9F08CAD882F78
:1055C00090E09E0127533E4F820F931FFC01808184
:1055D000482F50E08DAD882F90E060E5649F9001EA
:1055E000659F300D1124820F931F805B944FFC0147
:1055F0008081882349F58CAD882F90E09E01275348
:105600003E4F820F931FFC018081482F50E08DADEB
:10561000882F90E060E5649F9001659F300D112414
:10562000820F931F805B944FFC018081282F30E014
:1056300040E5429FC001439F900D1124885A944F2A
:10564000FC018081882359F0198A8CAD882F90E065
:105650009E012F523E4F820F931FFC0110828DAD91
:105660008F5F8DAF8DAD833008F47ECF898988231D
:1056700009F4E6C21B868CAD882F90E09E0127536B
:105680003E4F820F931FFC0180818B8BD0C2809193
:105690009B1890919C189093CA0A8093C90A109203
:1056A0009C1810929B1889E091E0FC018081882F62
:1056B00090E0382F222786E091E0FC018081882F3E
:1056C00090E0822B932B90939C1880939B18809151
:1056D000C90A9091CA0A9C012095309580919B1827
:1056E00090919C18822393239093B7088093B608D7
:1056F0008FEF8C8B1D8A1EAE69C08CAD882F90E019
:105700009E0127533E4F820F931FFC018081482F3B
:1057100050E08EAD882F90E060E5649F9001659F1A
:10572000300D1124820F931F805B944FFC01808108
:10573000882309F448C08CAD882F90E09E01275340
:105740003E4F820F931FFC018081482F50E08EADA9
:10575000882F90E060E5649F9001659F300D1124D3
:10576000820F931F805B944FFC018081482F50E093
:10577000CE01865B9F4F60E5649F9001659F300D71
:1057800011242B5A344FF9012081FC012083CE01D2
:10579000865B9F4FFC0190818C89981730F4CE0175
:1057A000865B9F4FFC0180818C8BCE01865B9F4F77
:1057B000FC0190818D89891730F4CE01865B9F4F63
:1057C000FC0180818D8B8EAD8F5F8EAF8EAD83306F
:1057D00008F493CF1FAE61C08CAD882F90E09E017E
:1057E00027533E4F820F931FFC018081482F50E0CA
:1057F0008FAD882F90E060E5649F9001659F300D2C
:105800001124820F931F805B944FFC018081482FED
:1058100050E0CE01865B9F4F60E5649F9001659FDD
:10582000300D11242B5A344FF9012081FC012083C3
:10583000CE01865B9F4FFC0190818D89981761F4A2
:105840008FAD882F90E09E0127523E4F820F931F0D
:1058500021E0FC0120831EC0CE01865B9F4FFC012E
:1058600090818C89981759F48FAD882F90E09E0114
:1058700027523E4F820F931FFC0110820BC08FAD49
:10588000882F90E09E0127523E4F820F931F21E008
:10589000FC0120838FAD8F5F8FAF8FAD833008F415
:1058A0009BCF8B858823D9F50E945F0E8B89282F8B
:1058B00030E040E5429FC001439F900D1124855F79
:1058C000944FAC0160E081E00E947D0E4BEF54E00C
:1058D00060E080E00E947D0E4CE055E060E082E0F8
:1058E0000E947D0E8CAD882F90E09E0127533E4F85
:1058F000820F931FFC018081482F50E0CE018A5B0C
:105900009F4F60E5649F9001659F300D11242B5AD5
:10591000344FF9012081FC01208381E08B87809145
:10592000B6089091B70888279870892B09F48FC022
:10593000CE0187529E4FFC0180818823E9F0CE0181
:1059400087529E4FFC0181818823B1F0CE0187529E
:105950009E4FFC018281882379F0CE0187529E4FB1
:10596000FC011082CE0187529E4FFC011182CE01B4
:1059700087529E4FFC0112828A89882F90E08130E5
:10598000910531F18230910509F43FC0892B09F06E
:105990005EC0CE0187529E4FFC018081882309F0B2
:1059A00051C08E01055B1F4F69818B8969D7F80152
:1059B0008083CE01855B9F4FFC018081882309F4A1
:1059C00041C0CE0187529E4F21E0FC0120833AC0A6
:1059D000CE0187529E4FFC0181818823A9F58E015B
:1059E000055B1F4F69818B894BD7F8018083CE01FE
:1059F000855B9F4FFC018081882331F1CE01875266
:105A00009E4F21E0FC0121831FC0CE0187529E4F93
:105A1000FC0182818823D1F48E01055B1F4F6981CF
:105A20008B892ED7F8018083CE01855B9F4FFC01C7
:105A30008081882359F0CE0187529E4F21E0FC01DE
:105A4000228304C0000003C0000001C00000809158
:105A5000B6089091B70899230CF08FC0CE018752F9
:105A60009E4FFC018081882301F5CE0187529E4F15
:105A7000FC0181818823C9F4CE0187529E4FFC012D
:105A80008281882391F4CE0187529E4F21E0FC0150
:105A90002083CE0187529E4F21E0FC012183CE015D
:105AA00087529E4F21E0FC0122838A89882F90E053
:105AB0008130910529F18230910509F43DC0892B8F
:105AC00009F05BC0CE0187529E4FFC018081882384
:105AD00009F44EC08E01055B1F4F69818B89BDD7CC
