S01000004D6F6E6F706F6C792E73726563B7
S11300000C94CB0D0C94EB0D0C94EB0D0C94EB0DAC
S11300100C94EB0D0C94EB0D0C94EB0D0C94EB0D7C
S11300200C94EB0D0C94EB0D0C94EB0D0C94EB0D6C
S11300300C94EB0D0C94EB0D0C94EB0D0C94EB0D5C
S11300400C94EB0D0C94EB0D0C94EB0D0C94EB0D4C
S11300500C94EB0D0C94EB0D0C94EB0D0C94EB0D3C
S11300600C94EB0D0C94EB0D0C94EB0D0C94EB0D2C
S11300700C94EB0D0C94EB0D0C94EB0D0C94EB0D1C
S11300800C94EB0D0C94EB0D0C94EB0D0C94EB0D0C
S11300900C94EB0D0C94EB0D0C94EB0D0C94EB0DFC
S11300A00C94EB0D0C94EB0D0C94EB0D0C94EB0DEC
S11300B00C94EB0D0C94EB0D0C94EB0D0C94EB0DDC
S11300C00C94EB0D0C94EB0D0C94EB0D0C94EB0DCC
S11300D00C94EB0D0C94EB0D0C94EB0D0C94EB0DBC
S11300E00C94EB0DC9194D19481B551F2C1D711D7E
S11300F0771DE21B65509350A250005117512E51A9
S113010054517A518B524F6C69206D616720646938
S11301106368202020206E696368742E20202020CC
S11301202020202020204765686520696E732020E8
S1130130202020202020476566846E676E69730046
S113014000000000000000000000000000000000AB
S1130150000000000000000000000000000000009B
S1130160000000000000000000000000000000008B
S1130170000000000000000000000000000000007B
S1130180000000000000000000000000000000006B
S1130190000000000000000000000000000000005B
S11301A0000000000000000000000000000000004B
S11301B0000000000000000000000000000000003B
S11301C00000000000000000000000000000467273
S11301D065696B6172746500000000000000000036
S11301E0000000000000000000000000000000000B
S11301F000000000000000000000000000000000FB
S113020000000000000000000000000000000000EA
S113021000000000000000000000000000000000DA
S113022000000000000000000000000000000000CA
S113023000000000000000000000000000000000BA
S113024000000000000000000000000000000000AA
S1130250000000000000000000000000000000009A
S1130260000000000000000000000000000000008A
S1130270000000000000000000000000000000007A
S1130280000000000000000000000000000000006A
S1130290000000000000529A636B6520766F7220A4
S11302A06269732020207A756D204E8463687374AC
S11302B0656E202020205765726B0000000000004E
S11302C0000000000000000000000000000000002A
S11302D0000000000000000000000000000000001A
S11302E0000000000000000000000000000000000A
S11302F000000000000000000000000000000000FA
S113030000000000000000000000000000000000E9
S113031000000000000000000000000000000000D9
S113032000000000000000000000000000000000C9
S113033000000000000000000000000000000000B9
S113034000000000000000000000000000000000A9
S113035000000000000000000000000000004475E0
S11303602068617374207A75207669656C654162D2
S113037073656E7A656E20202020202020205A612B
S1130380686C6520353000000000000000000000AB
S11303900000000000000000000000000000000059
S11303A00000000000000000000000000000000049
S11303B00000000000000000000000000000000039
S11303C00000000000000000000000000000000029
S11303D00000000000000000000000000000000019
S11303E00000000000000000000000000000000009
S11303F000000000000000000000000000000000F9
S113040000000000000000000000000000000000E8
S113041000000000000000000000000000000000D8
S1130420000000000000529A636B6520766F722012
S11304306269732020207A75722050726F64756B24
S113044074696F6E2020506F6C796D656368616E9E
S1130450696B6572000000000000000000000000ED
S11304600000000000000000000000000000000088
S11304700000000000000000000000000000000078
S11304800000000000000000000000000000000068
S11304900000000000000000000000000000000058
S11304A00000000000000000000000000000000048
S11304B00000000000000000000000000000000038
S11304C00000000000000000000000000000000028
S11304D00000000000000000000000000000000018
S11304E000000000000000000000000000005A6945
S11304F065686520766F72206269732020207A75A2
S113050072206E8463687374656E202020204861B5
S11305106C74657374656C6C650000000000000009
S113052000000000000000000000000000000000C7
S113053000000000000000000000000000000000B7
S113054000000000000000000000000000000000A7
S11305500000000000000000000000000000000097
S11305600000000000000000000000000000000087
S11305700000000000000000000000000000000077
S11305800000000000000000000000000000000067
S11305900000000000000000000000000000000057
S11305A00000000000000000000000000000000047
S11305B00000000000005A6965686520766F7220AB
S11305C06269732020207A7572206E846368737464
S11305D0656E2020202048616C74657374656C6CB2
S11305E065000000000000000000000000000000A2
S11305F000000000000000000000000000000000F7
S113060000000000000000000000000000000000E6
S113061000000000000000000000000000000000D6
S113062000000000000000000000000000000000C6
S113063000000000000000000000000000000000B6
S113064000000000000000000000000000000000A6
S11306500000000000000000000000000000000096
S11306600000000000000000000000000000000086
S113067000000000000000000000000000005A69B3
S113068065686520766F7220626973202020477246
S1130690756E6461757362696C64756E6720456C10
S11306A0656B74726F6E696B657200000000000008
S11306B00000000000000000000000000000000036
S11306C00000000000000000000000000000000026
S11306D00000000000000000000000000000000016
S11306E00000000000000000000000000000000006
S11306F000000000000000000000000000000000F6
S113070000000000000000000000000000000000E5
S113071000000000000000000000000000000000D5
S113072000000000000000000000000000000000C5
S113073000000000000000000000000000000000B5
S11307400000000000005A6965686520766F722019
S11307506269732020204D6563686174726F6E69ED
S11307606B20202020204C61626F7200000000008A
S11307700000000000000000000000000000000075
S11307800000000000000000000000000000000065
S11307900000000000000000000000000000000055
S11307A00000000000000000000000000000000045
S11307B00000000000000000000000000000000035
S11307C00000000000000000000000000000000025
S11307D00000000000000000000000000000000015
S11307E00000000000000000000000000000000005
S11307F000000000000000000000000000000000F5
S1130800000000000000000000000000000052FC96
S1130810636B6520766F72206175662020205374A7
S1130820617274000000000000000000000000007D
S113083000000000000000000000000000000000B4
S113084000000000000000000000000000000000A4
S11308500000000000000000000000000000000094
S11308600000000000000000000000000000000084
S11308700000000000000000000000000000000074
S11308800000000000000000000000000000000064
S11308900000000000000000000000000000000054
S11308A00000000000000000000000000000000044
S11308B00000000000000000000000000000000034
S11308C00000000000000000000000000000000024
S11308D0000000000000486575746520496E666F6D
S11308E0726D696572744968722065756368209ACF
S11308F06265722020205374756469656E67846E26
S1130900676520202020529A636B6520766F7220E1
S1130910626973202020546563686E696B756D008D
S113092000000000000000000000000000000000C3
S113093000000000000000000000000000000000B3
S113094000000000000000000000000000000000A3
S11309500000000000000000000000000000000093
S11309600000000000000000000000000000000083
S11309700000000000000000000000000000000073
S11309800000000000000000000000000000000063
S1130990000000000000000000000000000045739B
S11309A020697374206465722032352E20204475CA
S11309B020657268846C7473742020202020646520
S11309C0696E656E204C6F686E2E20766F6E3730C0
S11309D00000000000000000000000000000000013
S11309E00000000000000000000000000000000003
S11309F000000000000000000000000000000000F3
S1130A0000000000000000000000000000000000E2
S1130A1000000000000000000000000000000000D2
S1130A2000000000000000000000000000000000C2
S1130A3000000000000000000000000000000000B2
S1130A4000000000000000000000000000000000A2
S1130A500000000000000000000000000000000092
S1130A6000000000000045732069737420646572FF
S1130A702032352E2020447520657268846C74738E
S1130A807420202020206465696E656E204C6F6898
S1130A906E2E20766F6E31343000000000000000AE
S1130AA00000000000000000000000000000000042
S1130AB00000000000000000000000000000000032
S1130AC00000000000000000000000000000000022
S1130AD00000000000000000000000000000000012
S1130AE00000000000000000000000000000000002
S1130AF000000000000000000000000000000000F2
S1130B0000000000000000000000000000000000E1
S1130B1000000000000000000000000000000000D1
S1130B200000000000000000000000000000476515
S1130B30686520332046656C6465722020207A75D0
S1130B40729A636B000000000000000000000000C7
S1130B500000000000000000000000000000000091
S1130B600000000000000000000000000000000081
S1130B700000000000000000000000000000000071
S1130B800000000000000000000000000000000061
S1130B900000000000000000000000000000000051
S1130BA00000000000000000000000000000000041
S1130BB00000000000000000000000000000000031
S1130BC00000000000000000000000000000000021
S1130BD00000000000000000000000000000000011
S1130BE00000000000000000000000000000000001
S1130BF000000000000044752072656E6F76696520
S1130C007273742020206465696E652020488475A1
S1130C107365722020205A61686C6520669A722080
S1130C206A65646573204861757320323520756E7A
S1130C306420669A72206A6564657320486F7465DF
S1130C406C20313030000000000000000000000083
S1130C500000000000000000000000000000000090
S1130C600000000000000000000000000000000080
S1130C700000000000000000000000000000000070
S1130C800000000000000000000000000000000060
S1130C900000000000000000000000000000000050
S1130CA00000000000000000000000000000000040
S1130CB00000000000000000000000000000447577
S1130CC02077757264657374207A756D20204B6C7F
S1130CD0617373656E766572747265746572476567
S1130CE07784686C742E205A61686C6520206A656C
S1130CF064656D20537069656C6572203530000041
S1130D0000000000000000000000000000000000DF
S1130D1000000000000000000000000000000000CF
S1130D2000000000000000000000000000000000BF
S1130D3000000000000000000000000000000000AF
S1130D40000000000000000000000000000000009F
S1130D50000000000000000000000000000000008F
S1130D60000000000000000000000000000000007F
S1130D70000000000000000000000000000000006F
S1130D8000000000000044752068617374206569E8
S1130D906E6520202020576574746520676567653B
S1130DA06E20202020205065746572207665726C58
S1130DB06F72656E2020647520736368756C64655A
S1130DC073742069686D65696E656E204B61666633
S1130DD06565202020207A61686C6520350000005C
S1130DE000000000000000000000000000000000FF
S1130DF000000000000000000000000000000000EF
S1130E0000000000000000000000000000000000DE
S1130E1000000000000000000000000000000000CE
S1130E2000000000000000000000000000000000BE
S1130E3000000000000000000000000000000000AE
S1130E4000000000000000000000000000004475E5
S1130E502068617374206265692020202020656900
S1130E606E656D204B756E64656E2020202065696B
S1130E706E65207363686C656368746520204265E1
S1130E8077657274756E67202020202020206869A1
S1130E906E7465726C617373656E202020206765C3
S1130EA0686520696E2064656E2020202020576FBD
S1130EB0726B73686F700000000000000000000097
S1130EC0000000000000000000000000000000001E
S1130ED0000000000000000000000000000000000E
S1130EE000000000000000000000000000000000FE
S1130EF000000000000000000000000000000000EE
S1130F0000000000000000000000000000000000DD
S1130F10000000000000467265696B617274650030
S1130F2000000000000000000000000000000000BD
S1130F3000000000000000000000000000000000AD
S1130F40000000000000000000000000000000009D
S1130F50000000000000000000000000000000008D
S1130F60000000000000000000000000000000007D
S1130F70000000000000000000000000000000006D
S1130F80000000000000000000000000000000005D
S1130F90000000000000000000000000000000004D
S1130FA0000000000000000000000000000000003D
S1130FB0000000000000000000000000000000002D
S1130FC0000000000000000000000000000000001D
S1130FD00000000000000000000000000000447554
S1130FE02072656E6F766965727374202020646563
S1130FF0696E6520204884757365722020205A61CB
S1131000686C6520669A72206A656465732048611D
S1131010757320343020756E6420669A72206A6578
S113102064657320486F74656C20313135000000AD
S113103000000000000000000000000000000000AC
S1131040000000000000000000000000000000009C
S1131050000000000000000000000000000000008C
S1131060000000000000000000000000000000007C
S1131070000000000000000000000000000000006C
S1131080000000000000000000000000000000005C
S1131090000000000000000000000000000000004C
S11310A0000000000000496E2064657220202020AA
S11310B02020202020205665727365747A756E672F
S11310C02069737420206469722065696E204672F9
S11310D08473657220207A657262726F6368656ECC
S11310E02E20202020205A61686C65203130300089
S11310F000000000000000000000000000000000EC
S113110000000000000000000000000000000000DB
S113111000000000000000000000000000000000CB
S113112000000000000000000000000000000000BB
S113113000000000000000000000000000000000AB
S1131140000000000000000000000000000000009B
S1131150000000000000000000000000000000008B
S113116000000000000000000000000000004475C2
S11311702067946E6E7374206469722020206574F5
S1131180776173206265696D202020202020536ED2
S113119061636B6175746F6D6174202020207A61C6
S11311A0686C65203530000000000000000000007D
S11311B0000000000000000000000000000000002B
S11311C0000000000000000000000000000000001B
S11311D0000000000000000000000000000000000B
S11311E000000000000000000000000000000000FB
S11311F000000000000000000000000000000000EB
S113120000000000000000000000000000000000DA
S113121000000000000000000000000000000000CA
S113122000000000000000000000000000000000BA
S1131230000000000000496872206D61636874203A
S113124065696E65200945786B757273696F6E20E8
S11312502020202020207A61686C65203530000031
S1131260000000000000000000000000000000007A
S1131270000000000000000000000000000000006A
S1131280000000000000000000000000000000005A
S1131290000000000000000000000000000000004A
S11312A0000000000000000000000000000000003A
S11312B0000000000000000000000000000000002A
S11312C0000000000000000000000000000000001A
S11312D0000000000000000000000000000000000A
S11312E000000000000000000000000000000000FA
S11312F00000000000000000000000000000447531
S11313002068617374206469652020202020416274
S11313107363686C757373726569736520206F728B
S113132067616E6973696572742C202020206A6578
S113133064657220537069656C65722020207A613F
S1131340686C742064697220313000000000000071
S11313500000000000000000000000000000000089
S11313600000000000000000000000000000000079
S11313700000000000000000000000000000000069
S11313800000000000000000000000000000000059
S11313900000000000000000000000000000000049
S11313A00000000000000000000000000000000039
S11313B00000000000000000000000000000000029
S11313C0000000000000456C656B74726F6E696B01
S11313D0657220202020646573204D6F6E617473E4
S11313E0202020202020447520657268846C74734A
S11313F074203130300000000000000000000000C4
S113140000000000000000000000000000000000D8
S113141000000000000000000000000000000000C8
S113142000000000000000000000000000000000B8
S113143000000000000000000000000000000000A8
S11314400000000000000000000000000000000098
S11314500000000000000000000000000000000088
S11314600000000000000000000000000000000078
S11314700000000000000000000000000000000068
S1131480000000000000000000000000000044759F
S11314902068696C667374206465696E656D4D6956
S11314A074736368FC6C6572206265696D206C6599
S11314B0726E656E2E20202020202020202044756E
S11314C020657268846C74737420313000000000ED
S11314D00000000000000000000000000000000008
S11314E000000000000000000000000000000000F8
S11314F000000000000000000000000000000000E8
S113150000000000000000000000000000000000D7
S113151000000000000000000000000000000000C7
S113152000000000000000000000000000000000B7
S113153000000000000000000000000000000000A7
S11315400000000000000000000000000000000097
S1131550000000000000447520657268846C737498
S113156020353000000000000000000000000000F2
S11315700000000000000000000000000000000067
S11315800000000000000000000000000000000057
S11315900000000000000000000000000000000047
S11315A00000000000000000000000000000000037
S11315B00000000000000000000000000000000027
S11315C00000000000000000000000000000000017
S11315D00000000000000000000000000000000007
S11315E000000000000000000000000000000000F7
S11315F000000000000000000000000000000000E7
S113160000000000000000000000000000000000D6
S1131610000000000000000000000000000044750D
S113162020657268846C73742031303000000000CF
S113163000000000000000000000000000000000A6
S11316400000000000000000000000000000000096
S11316500000000000000000000000000000000086
S11316600000000000000000000000000000000076
S11316700000000000000000000000000000000066
S11316800000000000000000000000000000000056
S11316900000000000000000000000000000000046
S11316A00000000000000000000000000000000036
S11316B00000000000000000000000000000000026
S11316C00000000000000000000000000000000016
S11316D00000000000000000000000000000000006
S11316E0000000000000447520657268846C737407
S11316F0203235000000000000000000000000005F
S113170000000000000000000000000000000000D5
S113171000000000000000000000000000000000C5
S113172000000000000000000000000000000000B5
S113173000000000000000000000000000000000A5
S11317400000000000000000000000000000000095
S11317500000000000000000000000000000000085
S11317600000000000000000000000000000000075
S11317700000000000000000000000000000000065
S11317800000000000000000000000000000000055
S11317900000000000000000000000000000000045
S11317A0000000000000000000000000000044757C
S11317B020657268846C737420323000000000006D
S11317C00000000000000000000000000000000015
S11317D00000000000000000000000000000000005
S11317E000000000000000000000000000000000F5
S11317F000000000000000000000000000000000E5
S113180000000000000000000000000000000000D4
S113181000000000000000000000000000000000C4
S113182000000000000000000000000000000000B4
S113183000000000000000000000000000000000A4
S11318400000000000000000000000000000000094
S11318500000000000000000000000000000000084
S11318600000000000000000000000000000000074
S1131870000000000000447520657268846C737475
S113188020313030000000000000000000000000A3
S11318900000000000000000000000000000000044
S11318A00000000000000000000000000000000034
S11318B00000000000000000000000000000000024
S11318C00000000000000000000000000000000014
S11318D00000000000000000000000000000000004
S11318E000000000000000000000000000000000F4
S11318F000000000000000000000000000000000E4
S113190000000000000000000000000000000000D3
S113191000000000000000000000000000000000C3
S113192000000000000000000000000000000000B3
S113193000000000000000000000000000004475EA
S113194020657268846C73742031303000000000AC
S11319500000000000000000000000000000000083
S11319600000000000000000000000000000000073
S11319700000000000000000000000000000000063
S11319800000000000000000000000000000000053
S11319900000000000000000000000000000000043
S11319A00000000000000000000000000000000033
S11319B00000000000000000000000000000000023
S11319C00000000000000000000000000000000013
S11319D00000000000000000000000000000000003
S11319E000000000000000000000000000000000F3
S11319F000000000000000000000000000000000E3
S1131A0000000000000044752062697374202020E7
S1131A1020202020202057656C746D6569737465DF
S1131A20722E2020202052FC636B6520766F72207A
S1131A306269732020205374617274207A69656826
S1131A40652064656E20646F7070656C74656E20CB
S1131A502020202020204265747261672065696E11
S1131A600000000000000000000000000000000072
S1131A700000000000000000000000000000000062
S1131A800000000000000000000000000000000052
S1131A900000000000000000000000000000000042
S1131AA00000000000000000000000000000000032
S1131AB00000000000000000000000000000000022
S1131AC00000000000000000000000000000447559
S1131AD0206861737420676567656E2020206469DF
S1131AE0652048616E6479726567656C202076654F
S1131AF07273746F7373656E2E2020202020529AA7
S1131B00636B6520766F72206269732020205072A7
S1131B106F64756B74696F6E202020202020456CE3
S1131B20656B74726F6E696B657200000000000073
S1131B3000000000000000000000000000000000A1
S1131B400000000000000000000000000000000091
S1131B500000000000000000000000000000000081
S1131B600000000000000000000000000000000071
S1131B700000000000000000000000000000000061
S1131B800000000000000000000000000000000051
S1131B9000000000000011241FBECFEFD1E2DEBF21
S1131BA0CDBF00E00CBF15E0A0E0B2E0E6E5F7EB46
S1131BB000E00BBF02C007900D92A03EB107D9F719
S1131BC026E1A0EEB5E001C01D92A338B207E1F70B
S1131BD046D20C94A95B0C94000098B19F7E98B9EE
S1131BE098B19B7F98B98BB998B1926098B981509C
S1131BF0833038F48FE291E10197F1F700C00000DF
S1131C0003C090EA9A95F1F788B18D7F88B9089559
S1131C101F93CF93DF93CDB7DEB729970FB6F89410
S1131C20DEBF0FBECDBF8FEF8AB987B988B180629E
S1131C3088B92FEF80E792E0215080409040E1F78F
S1131C4000C0000088B18E7F88B989E0E1E1F2E04C
S1131C50DE01119601900D928A95E1F710E00AC019
S1131C60E1E0F0E0EC0FFD1FE10FF11D808190E059
S1131C70B4DF1F5F1930A0F329960FB6F894DEBFC6
S1131C800FBECDBFDF91CF911F91089598B19061A0
S1131C9098B998B19B7F98B98BB988B1826088B99B
S1131CA080EA8A95F1F788B18D7F88B9089581E03B
S1131CB094DF8FE99FE00197F1F700C000000895D9
S1131CC082E08BCF0895417070E0660F771F6270D9
S1131CD0282F30E0220F331F220F331F2470842F4C
S1131CE0862B822B886079CF08950F931F93CF930F
S1131CF08A01282F30E0285F3F4F862F90E1299FEB
S1131D00800D11246ADFC0E002C0C0DFCF5FF8019C
S1131D10EC0FF11D80818111F8CFCF911F910F91AC
S1131D20089588E45ADF84E0B1DF8EE0AFDF85E117
S1131D30ADDF84E0ABDF84E0A9DF84E0A7DF80E0EF
S1131D40A5DF80E0A3DF80E548DF80E09FDF84E05B
S1131D509DDF84E09BDF84E099DF85E197DF8EE0FF
S1131D6095DF84E093DF80E091CF089551DF9FDF1A
S1131D70A7DFD7DF40E060E081E0A5CF08958F9230
S1131D809F92AF92BF92CF92DF92EF92FF920F9306
S1131D901F93CF93DF93CDB7DEB7A2970FB6F89416
S1131DA0DEBF0FBECDBF6C0121E1CE010196DC0187
S1131DB0E22F1D92EA95E9F7FE017296DF011D926A
S1131DC02A95E9F7F60101900020E9F731978F0190
S1131DD00C191D09E62EF12C5701AA0CBB1CAA0CE8
S1131DE0BB1CAA0CBB1CAA0CBB1CB6016A0D7B1D38
S1131DF040E150E00E947158BFEFEB1AFB0AEE0C71
S1131E00FF1CEE0CFF1CEE0CFF1CEE0CFF1CE0167E
S1131E10F1065CF4B501605F7F4F6C0D7D1D40E100
S1131E2050E0CE0142960E94715841DFAE014F5FEF
S1131E305F4F60E081E059DFAE014E5E5F4F60E0CE
S1131E4082E053DF005211090A151B0514F481E0E6
S1131E5001C080E0A2960FB6F894DEBF0FBECDBFDE
S1131E60DF91CF911F910F91FF90EF90DF90CF9072
S1131E70BF90AF909F908F900895CF93DF931F9260
S1131E801F92CDB7DEB79A83898389819A81CA96D6
S1131E909C018AE0EAE1F2E0D90101900D928A9571
S1131EA0E1F789819A81CA9627E534E0FC0133ABD6
S1131EB022AB89819A81CA9628E2FC0124AB8981EC
S1131EC09A81CA96FC0115AA89819A81CA96FC0155
S1131ED016AA89819A81CA96FC0117AA89819A81D6
S1131EE0CA96FC0110AE89819A81CA96FC0111AE92
S1131EF089819A818C589F4F9C018AE0E4E2F2E048
S1131F00D90101900D928A95E1F789819A818C58C3
S1131F109F4F2EEA38E0FC0133AB22AB89819A81D2
S1131F208C589F4F28E2FC0124AB89819A818C58FC
S1131F309F4FFC0115AA89819A818C589F4FFC01FF
S1131F4016AA89819A818C589F4FFC0117AA89810E
S1131F509A818C589F4FFC0110AE89819A818C58CC
S1131F609F4FFC0111AE89819A8182559F4F9C013C
S1131F708AE0EEE2F2E0D90101900D928A95E1F750
S1131F8089819A8182559F4F25E03DE0FC0133AB66
S1131F9022AB89819A8182559F4F28E2FC0124ABB0
S1131FA089819A8182559F4FFC0115AA89819A8162
S1131FB082559F4FFC0116AA89819A8182559F4FB1
S1131FC0FC0117AA89819A8182559F4FFC0110AEAA
S1131FD089819A8182559F4FFC0111AE89819A8132
S1131FE088519F4F9C018AE0E8E3F2E0D901019017
S1131FF00D928A95E1F789819A8188519F4F2CE54A
S113200031E1FC0133AB22AB89819A8188519F4F26
S113201028E2FC0124AB89819A8188519F4FFC01FD
S113202015AA89819A8188519F4FFC0116AA89813A
S11320309A8188519F4FFC0117AA89819A818851FE
S11320409F4FFC0110AE89819A8188519F4FFC01FA
S113205011AE00000F900F90DF91CF9108950F9370
S11320601F93CF93DF93CDB7DEB7C05FD1400FB6D8
S1132070F894DEBF0FBECDBF81E089831A8281E070
S11320808B831C82CE018A539E4F22E0FC01208365
S1132090CE018A539E4F24E0FC012183CE018A5352
S11320A09E4F20E2FC012283CE018A539E4F20E8FA
S11320B0FC012383CE0186539E4F21E0FC01208343
S11320C0CE0186539E4F28E0FC012183CE01865326
S11320D09E4F20E1FC012283CE0186539E4F20E4D3
S11320E0FC012383CE0182539E4F26E0FC01322F54
S11320F011923A95E9F71D821E8218AE19AE1B861D
S11321001C861D861E8681E08F8781E0888BCE0128
S11321108C529E4F28E0E9EFF3E0DC0101900D9230
S11321202A95E1F7198ACE0184529E4F28E0FC01DA
S1132130322F11923A95E9F71A8A1B8A1AAE1BAE0E
S11321401CAE1DAECE018C519E4FFC01108211823B
S113215012821EAE85E08C8B1D8A1FAE1E8A1F8ADA
S1132160188E198E81E08A8F1B8E1C8ECE01805CA6
S11321709F4FFC0110821E8E1D8E1F8ECE018F5B21
S11321809F4FFC011082CE018E5B9F4FFC01108299
S1132190CE0189519E4F2AE0FC01322F11923A95CB
S11321A0E9F719A218A283E08AA31BA20E94273987
S11321B0DDDD8DE998E00E94B43A89E797E05DDEC1
S11321C08DE195E10E94D14D80E895E20E949655FB
S11321D00E94FF2A0E946A3780E00E9481370E9491
S11321E05F581CA22FC08CA1282F30E040E5429FED
S11321F0C001439F900D11248052974FFC018081B0
S11322008823E9F08CA1282F30E040E5429FC001EB
S1132210439F900D11248052974FFC0150818CA153
S1132220282F30E040E5429FC001439F900D1124C8
S11322308851974FFC018081652F0E94522D8CA1FB
S11322408F5F8CA38CA1883270F2CE018D5B9F4F7F
S1132250FC011082CE018C5B9F4FFC011082CE01E9
S11322608B5B9F4FFC0110829E01265A3F4F80E0FA
S113227090E0AAE7B4E4F90180839183A283B38355
S11322808E01025A1F4FCE01865A9F4F20E030E044
S11322904AE755E4FC0160817181828193810E9447
S11322A06857DC01CB01F80180839183A283B38357
S11322B0CE01825A9F4F20E030E040E85FE3FC010A
S11322C060817181828193810E941A5688234CF423
S11322D0CE018E599F4F21E030E0FC0131832083F1
S11322E06DC0CE01825A9F4F20E03FEF4FE757E485
S11322F0FC0160817181828193810E946457181668
S11323000CF04AC0CE01865A9F4F20E030E040E2F4
S113231051E4FC0160817181828193810E9468573C
S1132320DC01CB018E010E591F4FBC01CD010E946F
S11323308656DC01CB01F8019183808324C0CE0151
S11323408C599F4F20E931E0FC0131832083CE0179
S11323508C599F4FFC01808191810197F1F79E0177
S11323602C593F4FF90191838083CE018E599F4FA1
S11323709E012E593F4FF9012081318121503109AD
S1132380FC0131832083CE018E599F4FFC01808153
S11323909181892BA1F62CC08E010E591F4FCE01BD
S11323A0825A9F4FFC0160817181828193810E94D6
S11323B08656DC01CB01F80191838083CE018A59D2
S11323C09F4F9E012E593F4FF90120813181FC011D
S11323D031832083CE018A599F4FFC0180819181F2
S11323E00197F1F79E012A593F4FF90191838083A8
S11323F080912D1690912E1690939C0880939B08A3
S113240010922E1610922D1689E091E0FC01808125
S1132410882F90E0382F222786E091E0FC0180810C
S1132420882F90E0822B932B90932E1680932D1659
S113243080919B0890919C089C01209530958091F7
S11324402D1690912E16822393239093AA0680939F
S1132450A9068091A9069091AA0688279870892BCD
S113246019F084E08093AB068091AB06882F90E04E
S11324708230910509F4AFC3833091053CF4009791
S113248081F0019709F41CC10C948B2783309105CA
S113249011F40C946A1F049711F40C94DA230C942D
S11324A08B278E818823B9F442E452E060E080E017
S11324B01CDC41E552E060E081E017DC42E652E0DA
S11324C060E082E012DC8091040269E777E00E9418
S11324D08E3281E08E838091A9069091AA06882786
S11324E09072892B91F180910402833070F1809174
S11324F0040281508093040280910402882F90E0AA
S1132500292F2F938F9381E792E0892F8F9381E76F
S113251092E08F93CE018E599E4F292F2F938F9344
S11325200E9480580F900F900F900F900F900F9073
S1132530CE018E599E4FAC0163E081E0D6DB8091E1
S1132540040269E777E00E948E328091A906909197
S1132550AA0688279074892B91F180910402843013
S113256070F5809104028F5F8093040280910402CD
S1132570882F90E0292F2F938F9381E792E0892F62
S11325808F9381E792E08F93CE018E599E4F292F2E
S11325902F938F930E9480580F900F900F900F905D
S11325A00F900F90CE018E599E4FAC0163E081E0F5
S11325B09CDB8091040269E777E00E948E3280916F
S11325C0A9069091AA0688279071892B11F40C947E
S11325D0842781E08DA32EC08DA1282F30E04AE30B
S11325E0429FC001439F900D11248555984FFC01D3
S11325F0118210828DA1282F30E04AE3429FC0014E
S1132600439F900D11248355984FFC0110828DA196
S1132610282F30E04AE3429FC001439F900D1124CC
S11326208355984FFC0180816DA10E94C22D8DA11C
S11326308F5F8DA3809104029DA1891768F6809114
S1132640040269E777E00E948E3244E752E060E0DA
S113265080E04BDB80910402882F90E0292F2F9398
S11326608F9381E792E0892F8F9381E792E08F9394
S1132670CE018E599E4F292F2F938F930E948058FD
S11326800F900F900F900F900F900F90CE018E59D6
S11326909E4FAC0164E080E028DB45E852E060E056
S11326A081E023DB46E952E060E082E01EDB8091BA
S11326B004020E947C3981E08093AB060C94842749
S11326C081E08EA309C04AE06EA18CED95E00E94E2
S11326D040308EA18F5F8EA3809104029EA1891742
S11326E090F781E08FA354C147EA52E060E080E0B4
S11326F0FCDA8FA1882F90E0292F2F938F9381E705
S113270092E0892F8F9381E792E08F93CE018E59C7
S11327109E4F292F2F938F930E9480580F900F90D4
S11327200F900F900F900F90CE018E599E4FAC01D9
S11327306BE080E0DADA48EB52E060E081E0D5DA81
S113274048EC52E060E082E0D0DA66C080912D1659
S113275090912E1690939C0880939B0810922E16AD
S113276010922D1689E091E0FC018081882F90E081
S1132770382F222786E091E0FC018081882F90E0A9
S1132780822B932B90932E1680932D1680919B0869
S113279090919C089C012095309580912D169091E4
S11327A02E16822393239093AA068093A9068091E0
S11327B0A9069091AA0688279170892B59F08885DB
S11327C0882341F44985688581E00E94EF3281E0E5
S11327D0888712C08091A9069091AA0688279270D2
S11327E0892B51F08985882339F44985688582E0ED
S11327F00E94EF3281E089878885882329F08A85C1
S1132800882311F482E08A878985882329F08A85C0
S1132810882311F481E08A878885882309F496CF78
S11328208985882309F492CF8FA1282F30E08091E5
S1132830A206482F50E08091A306882F90E0840FD1
S1132840951FAC016AE3629FC001639F900D112440
S11328508555984FFC01518340838FA1282F30E088
S11328604AE3429FC001439F900D11248555984F20
S1132870FC01208131818D81482F50E06AE3649FFF
S1132880C001659F900D11248555984FFC018081EE
S113289091812817390709F04FC08A85882F90E065
S11328A001978E55994FFC018081823098F08A857A
S11328B0882F90E001972A85222F30E0215031099A
S11328C02E55394FF901208121508E55994FFC0125
S11328D0208312C08A85882F90E001972A85222FB1
S11328E030E0215031092E55394FF90120812F5FF5
S11328F08E55994FFC0120838FA1282F30E08091C1
S1132900A206482F50E08091A306882F90E0840F00
S1132910951FAC016AE3629FC001639F900D11246F
S11329208555984FFC01518340839091A306809173
S1132930A206692F0E946C358FA1282F30E04AE34C
S1132940429FC001439F900D11248555984FFC016F
S1132950208131818D81482F50E06AE3649FC0015A
S1132960659F900D11248555984FFC0180819181BC
S11329708217930710F48FA18D83188619861A86FF
S113298069E777E08FA10E948E328FA18F5F8FA3BA
S1132990809104029FA1891708F0A6CE8D818983B6
S11329A09E012A5B3F4F80E090E0AAE7B4E4F9017E
S11329B080839183A283B3838E0108591F4FCE0174
S11329C08A5B9F4F20E030E04AE755E4FC016081D8
S11329D07181828193810E946857DC01CB01F801E7
S11329E080839183A283B383CE0188599F4F20E0D3
S11329F030E040E85FE3FC01608171818281938172
S1132A000E941A5688234CF4CE0184599F4F21E02A
S1132A1030E0FC01318320836DC0CE0188599F4F83
S1132A2020E03FEF4FE757E4FC0160817181828130
S1132A3093810E94645718160CF04AC0CE018A5B39
S1132A409F4F20E030E040E251E4FC01608171815D
S1132A50828193810E946857DC01CB018E01045965
S1132A601F4FBC01CD010E948656DC01CB01F80149
S1132A709183808324C0CE0182599F4F20E931E0A5
S1132A80FC0131832083CE0182599F4FFC01808158
S1132A9091810197F1F79E0122593F4FF9019183EA
S1132AA08083CE0184599F4F9E0124593F4FF901E1
S1132AB02081318121503109FC0131832083CE01F1
S1132AC084599F4FFC0180819181892BA1F62CC0F0
S1132AD08E0104591F4FCE0188599F4FFC0160811C
S1132AE07181828193810E948656DC01CB01F801B9
S1132AF091838083CE0180599F4F9E0124593F4F7B
S1132B00F90120813181FC0131832083CE01805978
S1132B109F4FFC01808191810197F1F79E0120591B
S1132B203F4FF9019183808381E088A713C088A572
S1132B30282F30E04AE3429FC001439F900D1124A7
S1132B408555984F2CED35E0FC013183208388A511
S1132B508F5F88A78091040298A5891740F7809118
S1132B60040269E777E00E948E3249ED52E060E0AA
S1132B7080E0BBD88981882F90E0292F2F938F93F1
S1132B8081E792E0892F8F9381E792E08F93CE01C2
S1132B908E599E4F292F2F938F930E9480580F9008
S1132BA00F900F900F900F900F90CE018E599E4F63
S1132BB0AC016BE080E099D84AEE52E060E081E03D
S1132BC094D84AEF52E060E082E08FD882E08093AC
S1132BD0AB060C948B278C85882399F168D849ED32
S1132BE052E060E080E081D88981882F90E0292F2D
S1132BF02F938F9381E792E0892F8F9381E792E05F
S1132C008F93CE018E599E4F292F2F938F930E941D
S1132C1080580F900F900F900F900F900F90CE014F
S1132C208E599E4FAC016BE080E05FD84AEE52E0D3
S1132C3060E081E05AD84AEF52E060E082E055D883
S1132C401C868091A9069091AA0688279470892BE6
S1132C5009F486C08F81882309F482C08F85882374
S1132C6009F47EC08889882309F47AC08A8D882370
S1132C7009F476C06AE08AE00E946C3590910402FF
S1132C808981692F0E94CB57892F8F5F898349EDF2
S1132C9052E060E080E029D88981882F90E0292FD4
S1132CA02F938F9381E792E0892F8F9381E792E0AE
S1132CB08F93CE018E599E4F292F2F938F930E946D
S1132CC080580F900F900F900F900F900F90CE019F
S1132CD08E599E4FAC016BE080E007D84AEE52E07B
S1132CE060E081E002D84AEF52E060E082E00E94B6
S1132CF0750E1F8288E290E028E230E0F90120811D
S1132D002F73FC0120831B861E861B8E8981282F2E
S1132D1030E04AE3429FC001439F900D1124835544
S1132D20984FFC018081282F30E040E5429FC0018C
S1132D30439F900D11248153974FFC0180818AA3F6
S1132D408AA1843069F48981882F90E08C55994F49
S1132D50FC018081882321F081E08BA381E08F83B3
S1132D608091A9069091AA0688279470892B89F0EE
S1132D708B81882371F48F85882359F08A8D882369
S1132D8041F06AE08AE00E946C3581E08B831E8604
S1132D901B8E8F81882309F05FC28B81882309F4FD
S1132DA05BC256C080912D1690912E1690939C086C
S1132DB080939B0810922E1610922D1689E091E0B4
S1132DC0FC018081882F90E0382F222786E091E053
S1132DD0FC018081882F90E0822B932B90932E16F8
S1132DE080932D1680919B0890919C089C012095BE
S1132DF0309580912D1690912E16822393239093D3
S1132E00AA068093A9068091A9069091AA0688270C
S1132E109170892B59F08885882341F44985688508
S1132E2081E00E94EF3281E0888712C08091A90678
S1132E309091AA0688279270892B51F0898588235E
S1132E4039F44985688582E00E94EF3281E0898700
S1132E508885882309F4A6CF8985882309F4A2CF1D
S1132E609091A2068091A306981709F040C01B8296
S1132E708A818F5F8A83188619868A81882F90E0D9
S1132E808230910579F083309105B1F0019791F585
S1132E9088E290E028E230E0F90120812064FC011E
S1132EA0208328C088E290E028E230E0F901208104
S1132EB02068FC0120831EC088E290E028E230E014
S1132EC0F90120812F73FC0120831092A206109235
S1132ED0A306188619861A8281E08B8381E08F838A
S1132EE089810E94CE3784E08AA3000003C081E078
S1132EF08F831A828981282F30E04AE3429FC001E0
S1132F00439F900D11248355984FFC018081282FF5
S1132F1030E08091A206482F50E08091A306882FCC
S1132F2090E0840F951F820F931F88972CF189815D
S1132F30482F50E08981282F30E06AE3629FC00166
S1132F40639F900D11248555984FFC0180819181D8
S1132F509C0128533F4F6AE3649FC001659F900D15
S1132F6011248555984FFC013183208380910402FC
S1132F7069E777E00E948E328981282F30E04AE3A6
S1132F80429FC001439F900D11248355984FFC012B
S1132F90808189A7D9C099A58DEC989F812D112492
S1132FA082958695877028E2829F802D1124F92FBF
S1132FB0F81B8F2F69810E94C22D9E01265B3F4F13
S1132FC080E090E0A8ECB2E4F90180839183A283CD
S1132FD0B3838E010E581F4FCE01865B9F4F20E0B6
S1132FE030E04AE755E4FC0160817181828193817C
S1132FF00E946857DC01CB01F80180839183A2838E
S1133000B383CE018E589F4F20E030E040E85FE369
S1133010FC0160817181828193810E941A56882308
S11330204CF4CE018A589F4F21E030E0FC013183FB
S113303020836DC0CE018E589F4F20E03FEF4FE7B5
S113304057E4FC0160817181828193810E946457FD
S113305018160CF04AC0CE01865B9F4F20E030E08A
S113306040E251E4FC0160817181828193810E947C
S11330706857DC01CB018E010A581F4FBC01CD01FA
S11330800E948656DC01CB01F8019183808324C021
S1133090CE0188589F4F20E931E0FC013183208321
S11330A0CE0188589F4FFC01808191810197F1F7EF
S11330B09E0128583F4FF90191838083CE018A589D
S11330C09F4F9E012A583F4FF901208131812150A1
S11330D03109FC0131832083CE018A589F4FFC01C2
S11330E080819181892BA1F62CC08E010A581F4F33
S11330F0CE018E589F4FFC01608171818281938142
S11331000E948656DC01CB01F80191838083CE01B5
S113311086589F4F9E012A583F4FF90120813181E3
S1133120FC0131832083CE0186589F4FFC018081AE
S113313091810197F1F79E0126583F4FF901918340
S1133140808389A58F5F89A789A5282F30E089818D
S1133150482F50E06AE3649FC001659F900D1124DD
S11331608355984FFC018081482F50E08091A2063E
S1133170682F70E08091A306882F90E0860F971F38
S1133180840F951F281739070CF405CF8981282F40
S113319030E08981482F50E06AE3649FC001659F55
S11331A0900D11248355984FFC018081482F50E0E5
S11331B08091A206682F70E08091A306882F90E08A
S11331C0860F971F840F951F48E250E0BA010E94B2
S11331D0D757582F4AE3429FC001439F900D1124B3
S11331E08355984FFC0150838981282F30E04AE3AE
S11331F0429FC001439F900D11248355984FFC01B9
S1133200808169810E94C22D8981282F30E04AE3A0
S1133210429FC001439F900D11248355984FFC0198
S11332208081282F30E040E5429FC001439F900DEC
S113323011248153974FFC0180818AA38981282F0F
S113324030E04AE3429FC001439F900D112483550F
S1133250984FFC0180818C83188619868091040222
S113326069E777E00E948E328AA1882F90E0092EC8
S1133270000CAA0BBB0B40E050E027E030E0841BBD
S1133280950B2817390710F40C948727FC0188271D
S1133290EE58FF4F8F4F0C94EA578C81873031F0F2
S11332A08C81863119F08C81843211F41C8E02C019
S11332B081E08C8F8B8D882309F0FAC51A8E80915A
S11332C0A9069091AA0688279074892B19F4888DF1
S11332D0882379F40DE115E1298D488D69818C8D60
S11332E00E94FF4F8B8F8B8D882319F4888D8E5FFE
S11332F0888F8981882F90E001979E012A533E4F41
S1133300820F931FFC018081282F30E08091A90651
S11333109091AA0682239323892B09F4C9C581E0DD
S1133320898F0DE115E1298D488D69818C8D0E946D
S1133330FF4F8B8F8981282F30E04AE3429FC001E1
S1133340439F900D11248355984FFC018081282FB1
S113335030E040E5429FC001439F900D112481530A
S1133360974FFC0180818AA38981282F30E04AE3AA
S1133370429FC001439F900D11248355984FFC0137
S113338080818C83198E188E81E08A8F81E08C87EE
S11333908FC58C81282F30E040E5429FC001439FB8
S11333A0900D11248052974FFC0180818823E1F411
S11333B0188A49816DE978E08C810E948D2789AF54
S11333C089AD882F90E08130910519F0029721F0A2
S11333D00BC081E0888B08C081E0888B81E08E87F8
S11333E083E08093AB0600008C81282F30E040E519
S11333F0429FC001439F900D11248052974FFC01BE
S11334008081882309F457C58C81282F30E040E55A
S1133410429FC001439F900D11248052974FFC019D
S113342090818981981709F446C58E85813009F405
S113343042C51F868B85882309F001C18C81282F02
S113344030E040E5429FC001439F900D112480521B
S1133450974FFC0180818D878C81482F50E08C81AF
S1133460282F30E060E5629FC001639F900D112416
S11334708951974FFC018081882F90E068E2649F16
S11334809001659F300D1124820F931F880F991F9F
S11334908E52974FFC01808191819E8F8D8F8C81FC
S11334A0282F30E040E5429FC001439F900D112436
S11334B08252974FFC0120813181CE018F5B9F4F57
S11334C0FC01208381E08F8F1AA625C08C81482FB0
S11334D050E08AA5882F90E060E5649F9001659F85
S11334E0300D1124820F931F8E51974FFC01808160
S11334F0282F30E040E5429FC001439F900D1124E6
S11335008052974FFC0190818D85981709F01F8E8A
S11335108AA58F5F8AA78AA58330C0F28F8D8823FE
S1133520A9F0CE018F5B9F4FFC018081282F30E0F2
S11335308D8D9E8D8217930748F4CE018F5B9F4F2C
S1133540FC018081882F90E09E8F8D8F49ED52E0A1
S113355060E080E00E94750E8981882F90E0292F19
S11335602F938F9381E792E0892F8F9381E792E0E5
S11335708F93CE018E599E4F292F2F938F930E94A4
S113358080580F900F900F900F900F900F90CE01D6
S11335908E599E4FAC016BE080E00E94750E4BE0AB
S11335A053E060E081E00E94750E8E8D8F938D8DC7
S11335B08F9381E792E0892F8F9381E792E08F9335
S11335C0CE018E599E4F292F2F938F930E9480589E
S11335D00F900F900F900F900F900F90CE018E5977
S11335E09E4FAC016AE081E00E94750E4CE153E00D
S11335F060E082E00E94750E8D85882F90E0292F6F
S11336002F938F9381E792E0892F8F9381E792E044
S11336108F93CE018E599E4F292F2F938F930E9403
S113362080580F900F900F900F900F900F90CE0135
S11336308E599E4FAC016BE082E00E94750E898129
S1133640882F90E001979E012A533E4F820F931FCB
S1133650FC018081282F30E08091A9069091AA0670
S113366082239323892B09F426C48D8D9E8D21E01A
S1133670AC016D8589810E9445548E878E85813089
S113368009F019C41B8681E08F8781E08C8713C4FD
S11336908E85813009F412C41F868B85882309F036
S11336A068C08C81282F30E040E5429FC001439FD1
S11336B0900D11248053974FFC01808191819E8F3E
S11336C08D8F49ED52E060E080E00E94750E8981A3
S11336D0882F90E0292F2F938F9381E792E0892FF1
S11336E08F9381E792E08F93CE018E599E4F292FBD
S11336F02F938F930E9480580F900F900F900F90EC
S11337000F900F90CE018E599E4FAC016BE080E07C
S11337100E94750E4BE053E060E081E00E94750E5C
S11337208E8D8F938D8D8F9381E792E0892F8F9368
S113373081E792E08F93CE018E599E4F292F2F93CC
S11337408F930E9480580F900F900F900F900F90BE
S11337500F90CE018E599E4FAC016AE081E00E9429
S1133760750E4DE253E060E082E00E94750E81E048
S11337708B878981882F90E001979E012A533E4FC1
S1133780820F931FFC018081282F30E08091A906CD
S11337909091AA0682239323892B09F48FC38D8DDC
S11337A09E8D2AE0AC0160E089810E9445548E8799
S11337B08E85813009F082C31B8681E08F8781E08A
S11337C08C877CC38C81282F30E040E5429FC00168
S11337D0439F900D11248052974FFC0180818823D0
S11337E0E1F4188A49816DE978E08C810E948D2783
S11337F089AF89AD882F90E08130910519F0029747
S113380021F00BC081E0888B08C081E0888B81E0C7
S11338108E8783E08093AB0600008C81282F30E0F4
S113382040E5429FC001439F900D11248052974F61
S1133830FC018081882309F444C38C81282F30E063
S113384040E5429FC001439F900D11248052974F41
S1133850FC0190818981981709F433C38E858130E6
S113386009F42FC31F868B85882309F0CCC08C8173
S1133870282F30E040E5429FC001439F900D112462
S11338808052974FFC0180818D871E8A85E08BA72B
S113389022C08BA5282F30E040E5429FC001439F02
S11338A0900D11248052974FFC0140818C81282F68
S11338B030E050E5529FC001539F900D1124805277
S11338C0974FFC018081481719F48E898F5F8E8B86
S11338D08BA5865F8BA78BA58432D8F28E89815005
S11338E08E8B8C81482F50E08E89882F90E068E27F
S11338F0649F9001659F300D1124820F931F880FE0
S1133900991F8E52974FFC01808191819E8F8D8FDC
S113391049ED52E060E080E00E94750E8981882FB5
S113392090E0292F2F938F9381E792E0892F8F9333
S113393081E792E08F93CE018E599E4F292F2F93CA
S11339408F930E9480580F900F900F900F900F90BC
S11339500F90CE018E599E4FAC016BE080E00E9427
S1133960750E4BE053E060E081E00E94750E8E8D91
S11339708F938D8D8F9381E792E0892F8F9381E7C9
S113398092E08F93CE018E599E4F292F2F938F93C0
S11339900E9480580F900F900F900F900F900F90EF
S11339A0CE018E599E4FAC016AE081E00E94750EF3
S11339B04CE153E060E082E00E94750E8D85882F13
S11339C090E0292F2F938F9381E792E0892F8F9393
S11339D081E792E08F93CE018E599E4F292F2F932A
S11339E08F930E9480580F900F900F900F900F901C
S11339F00F90CE018E599E4FAC016BE082E00E9485
S1133A00750E81E08B878981882F90E001979E0154
S1133A102A533E4F820F931FFC018081282F30E0F0
S1133A208091A9069091AA0682239323892B09F4F5
S1133A3048C28D8D9E8D21E0AC016D8589810E94E7
S1133A4045548E878E85813009F03BC21B8681E008
S1133A508F8781E08C8735C28981882F90E08C55CF
S1133A60994FFC018081882309F42EC28BA18823FD
S1133A7009F42AC249ED52E060E080E00E94750E2C
S1133A808981882F90E0292F2F938F9381E792E0EB
S1133A90892F8F9381E792E08F93CE018E599E4FA9
S1133AA0292F2F938F930E9480580F900F900F907F
S1133AB00F900F900F90CE018E599E4FAC016BE08A
S1133AC080E00E94750E4EE353E060E081E00E94C6
S1133AD0750E4FE453E060E082E00E94750E1BA275
S1133AE0F3C189810E94CE3784E08AA3F1C18C811D
S1133AF0282F30E040E5429FC001439F900D1124E0
S1133B008052974FFC0180818823E1F4188A49810F
S1133B106DE978E08C810E948D2789AF89AD882F6B
S1133B2090E08130910519F0029721F00BC081E0FB
S1133B30888B08C081E0888B81E08E8783E0809346
S1133B40AB0600008C81282F30E040E5429FC00185
S1133B50439F900D11248052974FFC01808188234C
S1133B6009F4B5C18C81282F30E040E5429FC001A3
S1133B70439F900D11248052974FFC0190818981BD
S1133B80981709F4A4C18E85813009F4A0C11F8659
S1133B908B85882309F062C19091A00C8091A011BB
S1133BA0981719F48AE08F8B02C084E08F8B49ED5B
S1133BB052E060E080E00E94750E8981882F90E0D9
S1133BC0292F2F938F9381E792E0892F8F9381E799
S1133BD092E08F93CE018E599E4F292F2F938F936E
S1133BE00E9480580F900F900F900F900F900F909D
S1133BF0CE018E599E4FAC016BE080E00E94750EA1
S1133C0040E653E060E081E00E94750E42E753E035
S1133C1060E082E00E94750E8F89882F90E0292F42
S1133C202F938F9381E792E0892F8F9381E792E01E
S1133C308F93CE018E599E4F292F2F938F930E94DD
S1133C4080580F900F900F900F900F900F90CE010F
S1133C508E599E4FAC016EE081E00E94750E56C0F5
S1133C6080912D1690912E1690939C0880939B081A
S1133C7010922E1610922D1689E091E0FC0180819D
S1133C80882F90E0382F222786E091E0FC01808184
S1133C90882F90E0822B932B90932E1680932D16D1
S1133CA080919B0890919C089C012095309580916F
S1133CB02D1690912E16822393239093AA06809317
S1133CC0A9068091A9069091AA0688279170892B4C
S1133CD059F08885882341F44985688581E00E94EC
S1133CE0EF3281E0888712C08091A9069091AA06DC
S1133CF088279270892B51F08985882339F4498566
S1133D00688582E00E94EF3281E089878885882374
S1133D1009F4A6CF8985882309F4A2CF8C81282FA2
S1133D2030E040E5429FC001439F900D1124805232
S1133D30974FFC0180818D878091A206282F30E067
S1133D408091A306882F90E0A901480F591F8F89FD
S1133D50282F30E0429FC001439F900D529F900D49
S1133D6011249E8F8D8F49ED52E060E080E00E9427
S1133D70750E8981882F90E0292F2F938F9381E7E7
S1133D8092E0892F8F9381E792E08F93CE018E5931
S1133D909E4F292F2F938F930E9480580F900F903E
S1133DA00F900F900F900F90CE018E599E4FAC0143
S1133DB06BE080E00E94750E4BE053E060E081E030
S1133DC00E94750E8E8D8F938D8D8F9381E792E077
S1133DD0892F8F9381E792E08F93CE018E599E4F66
S1133DE0292F2F938F930E9480580F900F900F903C
S1133DF00F900F900F90CE018E599E4FAC016AE048
S1133E0081E00E94750E4CE153E060E082E00E9484
S1133E10750E8D85882F90E0292F2F938F9381E73E
S1133E2092E0892F8F9381E792E08F93CE018E5990
S1133E309E4F292F2F938F930E9480580F900F909D
S1133E400F900F900F900F90CE018E599E4FAC01A2
S1133E506BE082E00E94750E81E08B878981882F58
S1133E6090E001979E012A533E4F820F931FFC015D
S1133E708081282F30E08091A9069091AA068223A0
S1133E809323892B21F18D8D9E8D21E0AC016D85CD
S1133E9089810E9445548E878E858130C1F41B86AA
S1133EA081E08F8781E08C8712C000000C94872703
S1133EB000000C94872700000C94872700000C94C2
S1133EC0872700000C94872700000C9487270000A4
S1133ED00C9487278B85882309F050C00E94570EC5
S1133EE043E853E060E080E00E94750E8C81282F47
S1133EF030E040E5429FC001439F900D112483565A
S1133F00974FAC0160E081E00E94750E44E953E0F4
S1133F1060E082E00E94750E89E090E099A388A396
S1133F2081E08B8781E08CA724C08CA5882F90E04A
S1133F302CA5422F50E06AE3649F9001659F300DE9
S1133F4011242555384FF90120813181AE014951A1
S1133F505E4F880F991F840F951FFC0131832083C6
S1133F6040E06CA580E090E00E9440308CA58F5F1B
S1133F708CA7809104029CA58917B8F61DA69AC047
S1133F808DA5882F90E09E012A533E4F820F931FE8
S1133F90FC018081282F30E08091A9069091AA0627
S1133FA082239323892B09F44BC08DA5882F90E09D
S1133FB09E0122533E4F820F931FFC018081882370
S1133FC009F03EC08DA5882F90E09C012F5F3F4FE4
S1133FD04AE3429FC001439F900D11248555984F99
S1133FE0FC012081318188A199A101968217930750
S1133FF038F588A199A1019699A388A381E08EA799
S113400009C040E06EA580E090E00E9440308EA59B
S11340108F5F8EA7809104029EA5891790F78DA5C6
S113402021E0280F88A199A141E0622F0E9440302D
S11340308DA521E0280FCE0182539E4FFC012583DC
S11340408DA5882F90E09E0126533E4F820F931F2B
S1134050FC018081282F30E08091A9069091AA0666
S113406082239323892B19F18DA5882F90E09E013B
S113407022533E4F820F931FFC0180818823B9F4A1
S11340808DA5882F90E09E0122533E4F820F931FEF
S113409021E0FC012083CE0182539E4FFC018481E8
S11340A021E0280FCE0182539E4FFC0124838DA56D
S11340B08F5F8DA7809104029DA5981708F460CFA7
S11340C0CE0182539E4FFC01948180910402981783
S11340D009F020C7CE0182539E4FFC0185818823BD
S11340E009F451C20E94570E9E012A5A3F4F80E0A4
S11340F090E0A0E2B1E4F90180839183A283B383C9
S11341008E010A571F4FCE018A5A9F4F20E030E09C
S11341104AE755E4FC0160817181828193810E94A8
S11341206857DC01CB01F80180839183A283B383B8
S1134130CE018A579F4F20E030E040E85FE3FC0166
S113414060817181828193810E941A5688234CF484
S1134150CE0186579F4F21E030E0FC01318320835C
S11341606DC0CE018A579F4F20E03FEF4FE757E4E1
S1134170FC0160817181828193810E9464571816C9
S11341800CF04AC0CE018A5A9F4F20E030E040E252
S113419051E4FC0160817181828193810E9468579E
S11341A0DC01CB018E0106571F4FBC01CD010E94DB
S11341B08656DC01CB01F8019183808324C0CE01B3
S11341C084579F4F20E931E0FC0131832083CE01E5
S11341D084579F4FFC01808191810197F1F79E01E3
S11341E024573F4FF90191838083CE0186579F4F17
S11341F09E0126573F4FF901208131812150310919
S1134200FC0131832083CE0186579F4FFC018081BE
S11342109181892BA1F62CC08E0106571F4FCE0128
S11342208A579F4FFC0160817181828193810E9432
S11342308656DC01CB01F80191838083CE0182573D
S11342409F4F9E0126573F4FF90120813181FC0188
S113425031832083CE0182579F4FFC01808191815D
S11342600197F1F79E0122573F4FF9019183808313
S113427045EA53E060E080E00E94750E49ED52E0AB
S113428060E081E00E94750ECE0182539E4FFC01D6
S11342908581882F90E0292F2F938F9381E792E0D7
S11342A0892F8F9381E792E08F93CE018E599E4F91
S11342B0292F2F938F930E9480580F900F900F9067
S11342C00F900F900F90CE018E599E4FAC016BE072
S11342D081E00E94750E9E01225B3F4F80E090E0DA
S11342E0AAE7B5E4F90180839183A283B3838E01A5
S11342F004581F4FCE01825B9F4F20E030E04AE715
S113430055E4FC0160817181828193810E94685728
S1134310DC01CB01F80180839183A283B383CE01B6
S113432084589F4F20E030E040E85FE3FC01608167
S11343307181828193810E941A5688234CF4CE01A4
S113434080589F4F21E030E0FC01318320836DC011
S1134350CE0184589F4F20E03FEF4FE757E4FC0124
S113436060817181828193810E94645718160CF0D8
S11343704AC0CE01825B9F4F20E030E040E251E42E
S1134380FC0160817181828193810E946857DC0104
S1134390CB018E0100581F4FBC01CD010E948656EF
S11343A0DC01CB01F8019183808324C0CE018E57B8
S11343B09F4F20E931E0FC0131832083CE018E57E9
S11343C09F4FFC01808191810197F1F79E012E5747
S11343D03F4FF90191838083CE0180589F4F9E0106
S11343E020583F4FF9012081318121503109FC01CE
S11343F031832083CE0180589F4FFC0180819181BD
S1134400892BA1F62CC08E0100581F4FCE01845871
S11344109F4FFC0160817181828193810E94865645
S1134420DC01CB01F80191838083CE018C579F4F2F
S11344309E0120583F4FF90120813181FC013183D5
S11344402083CE018C579F4FFC018081918101977D
S1134450F1F79E012C573F4FF9019183808381E04E
S11344608FA71EC08FA5482F50E08FA5882F90E0FE
S11344709E0129513E4F880F991F820F931FFC0103
S1134480208131816AE3649FC001659F900D1124EE
S11344908555984FFC01318320838FA58F5F8FA7AB
S11344A0809104029FA58917E8F68091040269E7C8
S11344B077E00E948E32CE0182539E4FFC018581AB
S11344C0482F50E0CE0182539E4FFC018581282F56
S11344D030E06AE3629FC001639F900D112485550B
S11344E0984FFC012081318188A199A1281B390BA7
S11344F06AE3649FC001659F900D11248555984F10
S1134500FC01318320838C81282F30E0CE0182533B
S11345109E4FFC01458150E5529FC001539F900D71
S113452011248052974FFC014083CE0182539E4F49
S1134530FC0155818C81282F30E040E5429FC00169
S1134540439F900D11248851974FFC018081652F62
S11345500E94522D18AA0DC088A9882F90E09E01B0
S113456022533E4F820F931FFC01108288A98F5F54
S113457088AB88A9863080F31B8681E08C8782E033
S11345808093AB06C7C40E94570E46EB53E060E02D
S113459080E00E94750E46EC53E060E081E00E94EA
S11345A0750E9E012E5A3F4F80E090E0AAE7B5E4D5
S11345B0F90180839183A283B3838E0100571F4F37
S11345C0CE018E5A9F4F20E030E04AE755E4FC01CB
S11345D060817181828193810E946857DC01CB01E3
S11345E0F80180839183A283B383CE0180579F4FC8
S11345F020E030E040E85FE3FC016081718182816A
S113460093810E941A5688234CF4CE018C569F4FF6
S113461021E030E0FC01318320836DC0CE0180575E
S11346209F4F20E03FEF4FE757E4FC016081718129
S1134630828193810E94645718160CF04AC0CE01FF
S11346408E5A9F4F20E030E040E251E4FC0160814B
S11346507181828193810E946857DC01CB018E01B4
S11346600C561F4FBC01CD010E948656DC01CB01C4
S1134670F8019183808324C0CE018A569F4F20E99C
S113468031E0FC0131832083CE018A569F4FFC0127
S1134690808191810197F1F79E012A563F4FF901DC
S11346A091838083CE018C569F4F9E012C563F4FA1
S11346B0F9012081318121503109FC0131832083AA
S11346C0CE018C569F4FFC0180819181892BA1F6EC
S11346D02CC08E010C561F4FCE0180579F4FFC01FA
S11346E060817181828193810E948656DC01CB01B5
S11346F0F80191838083CE0188569F4F9E012C56EA
S11347003F4FF90120813181FC0131832083CE01A7
S113471088569F4FFC01808191810197F1F79E019A
S113472028563F4FF9019183808381E089AB1EC0F5
S113473089A9482F50E089A9882F90E09E0129512A
S11347403E4F880F991F820F931FFC0120813181F6
S11347506AE3649FC001659F900D11248555984FAD
S1134760FC013183208389A98F5F89AB8091040286
S113477099A98917E8F68091040269E777E00E9415
S11347808E321AAA0DC08AA9882F90E09E01225366
S11347903E4F820F931FFC0110828AA98F5F8AAB60
S11347A08AA9863080F31B8681E08C8782E080931F
S11347B0AB06B0C31BAA0EC08BA9882F90E09E0144
S11347C024523E4F820F931F21E0FC0120838BA9CA
S11347D08F5F8BAB8BA9883078F31CAA53C380916D
S11347E02D1690912E1690939C0880939B081092FE
S11347F02E1610922D1689E091E0FC018081882FFD
S113480090E0382F222786E091E0FC018081882FF8
S113481090E0822B932B90932E1680932D168091EB
S11348209B0890919C089C012095309580912D16B1
S113483090912E16822393239093AA068093A9061F
S113484081E0898B8CA9882F90E09E012C523E4FE9
S1134850820F931FFC018081282F30E040E5429FA6
S1134860C001439F900D11248052974FFC01908109
S11348708981981709F003C31DAA55C08CA9882FF4
S113488090E09E012C523E4F820F931FFC018081C9
S1134890482F50E08DA9882F90E060E5649F900137
S11348A0659F300D1124820F931F8E51974FFC0189
S11348B08081282F30E040E5429FC001439F900D46
S11348C011248052974FFC0190818981981741F1FE
S11348D08CA9882F90E09E012C523E4F820F931F8B
S11348E0FC018081482F50E08DA9882F90E060E57D
S11348F0649F9001659F300D1124820F931F8E5188
S1134900974FFC018081882359F0198A8CA9882F3C
S113491090E09E0124523E4F820F931FFC011082AF
S11349208DA98F5F8DAB8DA9833008F4A7CF8989BA
S1134930882309F4A4C21B868CA9882F90E09E01C9
S11349402C523E4F820F931FFC0180818B8B90C2AF
S113495080912D1690912E1690939C0880939B081D
S113496010922E1610922D1689E091E0FC018081A0
S1134970882F90E0382F222786E091E0FC01808187
S1134980882F90E0822B932B90932E1680932D16D4
S113499080919B0890919C089C0120953095809172
S11349A02D1690912E16822393239093AA0680931A
S11349B0A9068FEF8C8B1D8A1EAA54C08CA9882F40
S11349C090E09E012C523E4F820F931FFC01808188
S11349D0482F50E08EA9882F90E060E5649F9001F5
S11349E0659F300D1124820F931F8E51974FFC0148
S11349F080818823A1F18CA9882F90E09E012C52FC
S1134A003E4F820F931FFC018081482F50E08EA9F6
S1134A10882F90E060E5649F9001659F300D11241C
S1134A20820F931F8E51974FFC018081282F30E015
S1134A3040E5429FC001439F900D11248951974F37
S1134A40FC0180818EAF9EAD8C89981710F48EADD9
S1134A508C8B9EAD8D89891710F48EAD8D8B8EA9AC
S1134A608F5F8EAB8EA9833008F4A8CF1FAA6EC0C7
S1134A708CA9882F90E09E012C523E4F820F931FE9
S1134A80FC018081482F50E08FA9882F90E060E5D9
S1134A90649F9001659F300D1124820F931F8E51E6
S1134AA0974FFC018081282F30E040E5429FC001F0
S1134AB0439F900D11248951974FFC0180818EAF43
S1134AC09EAD8D89981761F48FA9882F90E09E017F
S1134AD02C513E4F820F931F21E0FC01208333C0F1
S1134AE08CA9882F90E09E012C523E4F820F931F79
S1134AF0FC018081482F50E08FA9882F90E060E569
S1134B00649F9001659F300D1124820F931F8E5175
S1134B10974FFC018081882359F08FA9882F90E05A
S1134B209E012C513E4F820F931FFC0110820BC03B
S1134B308FA9882F90E09E012C513E4F820F931F26
S1134B4021E0FC0120838FA98F5F8FAB8FA9833075
S1134B5008F48ECF8B858823B9F50E94570E47ED54
S1134B6053E060E080E00E94750E8B89282F30E0CE
S1134B7040E5429FC001439F900D11248356974FF7
S1134B80AC0160E081E00E94750E48EE53E060E005
S1134B9082E00E94750E8CA9882F90E09E012C5211
S1134BA03E4F820F931FFC018081282F30E040E5A7
S1134BB0429FC001439F900D11248951974FFC01DE
S1134BC080818AAF81E08B878091A9069091AA06A3
S1134BD088279074892B09F474C0CE018C519E4FA0
S1134BE0FC0180818823E9F0CE018C519E4FFC01A9
S1134BF081818823B1F0CE018C519E4FFC018281CA
S1134C00882379F0CE018C519E4FFC011082CE0195
S1134C108C519E4FFC011182CE018C519E4FFC01A0
S1134C2012828A89882F90E081309105D9F08230F0
S1134C30910569F1892B09F044C0CE018C519E4F36
S1134C40FC0180818823C1F569818B8908D38FAFEA
S1134C508FAD882389F1CE018C519E4F21E0FC0158
S1134C6020832AC0CE018C519E4FFC018181882370
S1134C7029F569818B89F3D28FAF8FAD8823F1F049
S1134C80CE018C519E4F21E0FC01218317C0CE013F
S1134C908C519E4FFC018281882391F469818B8918
S1134CA0DED28FAF8FAD882359F0CE018C519E4F49
S1134CB021E0FC01228304C0000003C0000001C005
S1134CC000008091A9069091AA0688279072892BEA
S1134CD009F474C0CE018C519E4FFC01808188235D
S1134CE001F5CE018C519E4FFC0181818823C9F4CA
S1134CF0CE018C519E4FFC018281882391F4CE0118
S1134D008C519E4F21E0FC012083CE018C519E4F9B
S1134D1021E0FC012183CE018C519E4F21E0FC0156
S1134D2022838A89882F90E081309105D1F08230E6
S1134D30910559F1892B09F041C0CE018C519E4F48
S1134D40FC0180818823A9F169818B8964D38FAFA9
S1134D508FAD882371F1CE018C519E4FFC011082DE
S1134D6028C0CE018C519E4FFC018181882319F10A
S1134D7069818B8950D38FAF8FAD8823E1F0CE0149
S1134D808C519E4FFC01118216C0CE018C519E4F56
S1134D90FC018281882389F069818B893CD38FAFA0
S1134DA08FAD882351F0CE018C519E4FFC011282AD
S1134DB004C0000003C0000001C000008091A906E7
S1134DC09091AA0688279870892B09F451C08A8982
S1134DD0882F90E0019623E030E0B9010E94D75774
S1134DE08A8B8CA9882F90E09E012C523E4F820F13
S1134DF0931FFC018081482F50E08A89882F90E01E
S1134E0060E5649F9001659F300D1124820F931F0C
S1134E108E51974FFC0180818B8B8B89882339F5C8
S1134E201A8A8CA9882F90E09E012C523E4F820F43
S1134E30931FFC018081482F50E08A89882F90E0DD
S1134E4060E5649F9001659F300D1124820F931FCC
S1134E508E51974FFC0180818B8BCE018C519E4FDC
S1134E60FC012181CE018C519E4FFC0122831B86C3
S1134E708091A9069091AA0699230CF069CD8CA97A
S1134E808F5F8CAB8CA9883008F4A9CC0E94570E94
S1134E9049ED52E060E080E00E94750E8981882F20
S1134EA090E0292F2F938F9381E792E0892F8F939E
S1134EB081E792E08F93CE018E599E4F292F2F9335
S1134EC08F930E9480580F900F900F900F900F9027
S1134ED00F90CE018E599E4FAC016BE080E00E9492
S1134EE0750E4AEE52E060E081E00E94750E4AEFD2
S1134EF052E060E082E00E94750E85E08C8B1D8A92
S1134F0082E08093AB0607C000000C94F811000007
S1134F100C94F81100000C94F811CF93DF93CDB7E3
S1134F20DEB7A3970FB6F894DEBF0FBECDBF88A33C
S1134F307AA369A34BA319828091AC06882309F054
S1134F40B6C00E94570E80E090E0A8ECB2E48A83D9
S1134F509B83AC83BD8320E030E04AE755E46A815B
S1134F607B818C819D810E946857DC01CB018E83FB
S1134F709F83A887B98720E030E040E85FE36E8133
S1134F807F81888599850E941A5688232CF481E0B4
S1134F9090E09B878A873FC020E03FEF4FE757E4CC
S1134FA06E817F81888599850E94645718164CF517
S1134FB020E030E040E251E46A817B818C819D8174
S1134FC00E946857DC01CB01BC01CD010E948656CA
S1134FD0DC01CB019B878A870FC080E991E09D8724
S1134FE08C878C859D850197F1F79D878C878A85B1
S1134FF09B8501979B878A878A859B85892B69F77F
S113500014C06E817F81888599850E948656DC0153
S1135010CB019B878A878A859B859F878E878E8510
S11350209F850197F1F79F878E8749ED52E060E0F5
S113503080E00E94750E8BA1882F90E0292F2F937A
S11350408F9381E792E0892F8F9381E792E08F938A
S1135050CE014096292F2F938F930E9480580F9052
S11350600F900F900F900F900F90CE014096AC01CF
S11350706BE080E00E94750E88A1282F30E040E5A7
S1135080429FC001439F900D112429A13AA1820F90
S1135090931FAC0160E081E00E94750E41E054E092
S11350A060E082E00E94750E81E08093AC068091FE
S11350B0A9069091AA0688279074892B09F4B5C093
S11350C08BA1282F30E04AE3429FC001439F900DFB
S11350D011248555984FFC012081318188A1482FE6
S11350E050E060E5649FC001659F900D112449A1C3
S11350F05AA1840F951FFC0183A994A92817390785
S113510008F4A3C08BA1482F50E08BA1282F30E0D6
S11351106AE3629FC001639F900D11248555984FE7
S1135120FC012081318188A1682F70E0E0E5E69FD1
S1135130C001E79F900D112469A17AA1860F971FE2
S1135140FC0183A994A9281B390B6AE3649FC0015D
S1135150659F900D11248555984FFC013183208360
S113516088A1282F30E040E5429FC001439F900D65
S1135170112429A13AA1820F931F8D5B9F4F2BA16C
S1135180FC01208388A1282F30E040E5429FC00124
S1135190439F900D112429A13AA1820F931F855B8F
S11351A09F4FFC0180816BA17DD48091040269E74B
S11351B077E00E948E320E94570E49ED52E060E083
S11351C080E00E94750E8BA1882F90E0292F2F93E9
S11351D08F9381E792E0892F8F9381E792E08F93F9
S11351E0CE014096292F2F938F930E9480580F90C1
S11351F00F900F900F900F900F90CE014096AC013E
S11352006BE080E00E94750E4AEE52E060E081E0BF
S11352100E94750E4AEF52E060E082E00E94750E33
S113522081E089831092AC0610C08091A906909108
S1135230AA0688279072892B41F06AE082E30E94D3
S1135240F63782E089831092AC068981A3960FB663
S1135250F894DEBF0FBECDBFDF91CF910895CF93F9
S1135260DF9300D0CDB7DEB78A836B8319828A813E
S1135270282F30E040E5429FC001439F900D112448
S11352808951974FFC018081843009F061C080917D
S1135290AE068C3008F05CC08091AD0684508093DB
S11352A0AD068091AE068F5F8093AE068A81282F6B
S11352B030E040E5429FC001439F900D1124875187
S11352C0974FFC018081882F90E02AE0AC0160E0D8
S11352D08B810E94455489838A81282F30E040E5E0
S11352E0429FC001439F900D11248951974FFC01A7
S11352F0808151E0580F8A81282F30E040E5429F99
S1135300C001439F900D11248A51974FFC01808165
S1135310652FADD18A81282F30E08A81482F50E053
S113532060E5649FC001659F900D11248951974FDA
S1135330FC01808141E0480F50E5529FC001539F1A
S1135340900D11248951974FFC01408381E05DC089
S11353508091AD06803208F057C08091AD068F5F12
S11353608093AD068A81282F30E040E5429FC0013A
S1135370439F900D11248751974FFC018081882F02
S113538090E02AE0AC0160E08B810E94455489835F
S11353908A81282F30E040E5429FC001439F900D51
S11353A011248951974FFC01808151E0580F8A8163
S11353B0282F30E040E5429FC001439F900D112407
S11353C08A51974FFC018081652F51D18A81282F02
S11353D030E08A81482F50E060E5649FC001659FFA
S11353E0900D11248951974FFC01808141E0480FB1
S11353F050E5529FC001539F900D11248951974F3E
S1135400FC01408381E001C080E00F900F900F9079
S1135410DF91CF910895CF93DF9300D0CDB7DEB75E
S11354208A836B8319828A81282F30E040E5429F6A
S1135430C001439F900D11248951974FFC01808135
S1135440853009F06DC08A81282F30E040E5429F05
S1135450C001439F900D11248951974FFC01808115
S1135460882309F45DC08091AD068C5F8093AD06FE
S11354708091AE0681508093AE068A81282F30E059
S113548040E5429FC001439F900D11248951974FDD
S1135490FC0180815FEF580F8A81282F30E040E5BE
S11354A0429FC001439F900D11248A51974FFC01E4
S11354B08081652FDCD08A81282F30E08A81482FB3
S11354C050E060E5649FC001659F900D11248951EF
S11354D0974FFC0180814FEF480F50E5529FC00168
S11354E0539F900D11248951974FFC0140838A8169
S11354F0282F30E040E5429FC001439F900D1124C6
S11355008751974FFC0180818695882F90E025E094
S1135510AC016B8180E00E944554898381E069C0BD
S11355208A81282F30E040E5429FC001439F900DBF
S113553011248951974FFC018081882309F458C0B4
S11355408091AD0681508093AD068A81282F30E08A
S113555040E5429FC001439F900D11248951974F0C
S1135560FC0180815FEF580F8A81282F30E040E5ED
S1135570429FC001439F900D11248A51974FFC0113
S11355808081652F74D08A81282F30E08A81482F4A
S113559050E060E5649FC001659F900D112489511E
S11355A0974FFC0180814FEF480F50E5529FC00197
S11355B0539F900D11248951974FFC0140838A8198
S11355C0282F30E040E5429FC001439F900D1124F5
S11355D08751974FFC0180818695882F90E025E0C4
S11355E0AC016B8180E00E944554898381E001C055
S11355F080E00F900F900F90DF91CF910895CF939B
S1135600DF931F921F92CDB7DEB780EE95E01FD1D6
S113561061E088E2B7D262E088E2B4D263E088E273
S1135620B1D264E088E2AED2198206C060E089811A
S113563039D289818F5F898389818C31B8F381E084
S11356408A8308C04AE06A8180E090E019D58A81A3
S11356508F5F8A838A818530A8F36AE08AE00E949A
S11356606C3500000F900F90DF91CF910895CF9388
S1135670DF9300D000D0CDB7DEB78D836E8319825F
S11356809D81892F880F880F890F8A838A81869547
S1135690869586958B838A8187708C838E818530ED
S11356A019F480E1898310C08E81882F90E025E071
S11356B030E0281B390B80EE9FEF02C0969587954A
S11356C02A95E2F7809589838C81843008F47CC024
S11356D08B81882F90E02B81222F30E020523A4F8B
S11356E0D9012C91622F2C81422F50E02FE130E020
S11356F002C0220F331F4A95E2F7209526238052D9
S11357009A4FFC0120838B81882F90E001962B8196
S1135710222F30E02F5F3F4F20523A4FD9012C9176
S1135720622F2C81222F30E048E050E0421B530BC3
S113573020EE3FEF02C0359527954A95E2F72623E0
S113574080529A4FFC0120838B81882F90E02B811B
S1135750222F30E020523A4FD9012C91622F298117
S1135760222F30E04C81442F50E002C0220F331F1F
S11357704A95E2F7262B80529A4FFC0120838B81B5
S1135780882F90E001962B81222F30E02F5F3F4F2E
S113579020523A4FD9012C91E22F2981222F30E057
S11357A04C81442F50E068E070E0DB01A41BB50B92
S11357B0AD0102C0359527954A95E2F72E2B80520C
S11357C09A4FFC01208336C08B81882F90E02B8177
S11357D0222F30E020523A4FD9012C91622F2C8194
S11357E0422F50E02FE130E002C0220F331F4A95D0
S11357F0E2F72095262380529A4FFC0120838B8167
S1135800882F90E02B81222F30E020523A4FD9018B
S11358102C91622F2981222F30E04C81442F50E0BB
S113582002C0220F331F4A95E2F7262B80529A4F6B
S1135830FC01208380EE95E00AD0000026960FB686
S1135840F894DEBF0FBECDBFDF91CF910895CF9204
S1135850DF92EF92FF92CF93DF93CDB7DEB7A0979D
S11358600FB6F894DEBF0FBECDBF98A38F8F1A82F8
S11358701982F4C08981882F90E02EE030E0A901DC
S1135880481B590BCA019C018F8D98A1820F931F4D
S1135890FC0180818A836A8180E00E94CE5580E089
S11358A090E0AAEFB3E48B839C83AD83BE832BEAA1
S11358B03AEA4AEA50E46B817C818D819E810E94A0
S11358C06857DC01CB018F839887A987BA8720E0CA
S11358D030E040E850E46B817C818D819E810E94A0
S11358E06857DC01CB018B879C87AD87BE8720E09E
S11358F030E040E85FE36F81788589859A850E946E
S11359001A5688230CF4A1C020E03FEF4FE757E478
S11359106B857C858D859E850E94645718160CF0D6
S11359206DC020E030E04AE754E46B817C818D81D6
S11359309E810E941E56DC01CB016C017D0120E09A
S113594030E04AE755E4C701B6010E946857DC011C
S1135950CB018F87988BA98BBA8B20E030E040E88D
S11359605FE36F85788989899A890E941A5688230A
S1135970D4F120E03FEF4FE757E46F8578898989B8
S11359809A890E94645718161CF520E030E040E222
S113599051E4C701B6010E946857DC01CB01BC0188
S11359A0CD010E948656DC01CB019C8B8B8B0BC0F6
S11359B080E991E00197F1F79E8B8D8B8B899C890F
S11359C001979C8B8B8B8B899C89892B89F73FC092
S11359D06F85788989899A890E948656DC01CB0172
S11359E09C8B8B8B04C081E090E09C8B8B8B8B8990
S11359F09C890197F1F7988F8F8B29C020E030E0C4
S1135A004FE753E46F81788589859A850E946457AE
S1135A1018168CF46B857C858D859E850E94865630
S1135A20DC01CB019A8F898F898D9A8D0197F1F7CB
S1135A309C8F8B8F10C06F81788589859A850E9491
S1135A408656DC01CB018D8F02C081E08D8F8D8D58
S1135A508A95F1F78E8F89818F5F898389818F3051
S1135A6008F408CF8EE290E02EE230E0F9012081C4
S1135A702860FC0120838EE290E02EE230E0F90100
S1135A802081277FFC0120830000A0960FB6F894A4
S1135A90DEBF0FBECDBFDF91CF91FF90EF90DF90BF
S1135AA0CF900895CF93DF9300D000D0CDB7DEB769
S1135AB08D836E831B828E81882F90E082309105C6
S1135AC0B9F0833091052CF4009749F0019759F00F
S1135AD021C08330910599F00497B9F01BC0198255
S1135AE01A821B8217C082E389831A821B8212C026
S1135AF08EE1898382E38A8383E08B830BC082E314
S1135B00898384E18A831B8205C019821A8282E315
S1135B108B8300008D81882F90E09C01220F331F1E
S1135B20280F391F215D394E4981F90140839C01B9
S1135B30220F331F280F391F205D394E4A81F90186
S1135B4040839C01220F331F280F391FC9018F5C2A
S1135B50994E2B81FC0120831C8207C08FE296E1C1
S1135B600E94E2558C818F5F8C838C818C31B0F3E1
S1135B70000026960FB6F894DEBF0FBECDBFDF91AE
S1135B80CF910895CF92DF92EF92FF92CF93DF935C
S1135B90CDB7DEB7A5970FB6F894DEBF0FBECDBF65
S1135BA08CA36DA31C821D828DA1882F90E0019788
S1135BB08257994FFC018081882F90E0880F991FAC
S1135BC0880F991F99230CF40796959587959595B9
S1135BD08795959587958E838DA1882F90E0019761
S1135BE08257994FFC018081880F880F84708F83BE
S1135BF08DA194D18D838E81282F30E08F81482F01
S1135C0050E08DA1882F90E00197480F591F8D8196
S1135C10082E000C990B840F951F220F331F220F9F
S1135C20331F220F331F820F931F82519A4FFC019F
S1135C3010828DA1882F90E001978257994F2CA153
S1135C40FC0120838CA1882F90E0880F991F880F76
S1135C50991F99230CF407969595879595958795A3
S1135C60959587958E838CA1880F880F84708F8378
S1135C708DA154D18D838E81282F30E08F81482FC0
S1135C8050E08DA1882F90E00197480F591F8D8116
S1135C90082E000C990B840F951F220F331F220F1F
S1135CA0331F220F331F820F931F82519A4F21E01B
S1135CB0FC01208319821A820DC119821B8225C01E
S1135CC08981880F89838A81882F90E024E130E0DC
S1135CD0281B390B8B81882F90E047E050E0BA01F4
S1135CE0681B790BCB01220F331F220F331F220FA6
