S01000004D6F6E6F706F6C792E73726563B7
S113000079C0000097C0000095C0000093C00000B4
S113001091C000008FC000008DC000008BC00000A4
S113002089C0000087C0000085C0000083C00000B4
S113003081C000007FC000007DC000007BC00000C4
S113004079C0000077C0000075C0000073C00000D4
S113005071C000006FC000006DC000006BC00000E4
S113006069C0000067C0000065C0000063C00000F4
S113007061C000005FC000005DC000005BC0000004
S113008059C0000057C0000055C0000053C0000014
S113009051C000004FC000004DC000004BC0000024
S11300A049C0000047C0000045C0000043C0000034
S11300B041C000003FC000003DC000003BC0000044
S11300C039C0000037C0000035C0000033C0000054
S11300D031C000002FC000002DC000002BC0000064
S11300E029C00000D1083F0A3F0A3F0A3F0A9F097E
S11300F0A509050911241FBECFEFD1E2DEBFCDBF94
S113010000E00CBF15E0A0E0B2E0E2EEF8E600E0AB
S11301100BBF02C007900D92A23DB107D9F727E0AB
S1130120A2EDB5E001C01D92AB3FB207E1F73ED1AD
S11301300C946F3465CF98B19F7E98B998B19B7F2A
S113014098B98BB998B1926098B98150833038F4DA
S11301508FE291E10197F1F700C0000003C090EA3B
S11301609A95F1F788B18D7F88B908951F93CF933D
S1130170DF93CDB7DEB729970FB6F894DEBF0FBE75
S1130180CDBF8FEF8AB987B988B1806288B92FEF64
S113019080E792E0215080409040E1F700C00000E9
S11301A088B18E7F88B989E0E1E1F2E0DE01119641
S11301B001900D928A95E1F710E00AC0E1E0F0E0C9
S11301C0EC0FFD1FE10FF11D808190E0B4DF1F5F94
S11301D01930A0F329960FB6F894DEBF0FBECDBF39
S11301E0DF91CF911F91089598B1906198B998B11A
S11301F09B7F98B98BB988B1826088B980EA8A9567
S1130200F1F788B18D7F88B9089581E094DF8FE993
S11302109FE00197F1F700C00000089582E08BCFC2
S11302200895417070E0660F771F6270282F30E0E8
S1130230220F331F220F331F2470842F862B822B0F
S1130240886079CF08950F931F93CF938A01282F45
S113025030E0285F3F4F862F90E1299F800D1124C5
S11302606ADFC0E002C0C0DFCF5FF801EC0FF11D10
S113027080818111F8CFCF911F910F910895CF9371
S1130280C42F282F30E0285F3F4F862F90E1299F0D
S1130290800D112450DF8C2FA7DFCF91089566DFE6
S11302A0B4DFBCDF40E060E081E0BBCF0895CF93D2
S11302B0DF931F921F92CDB7DEB79A83898389811A
S11302C09A81C5969C018AE0EAE1F2E0D9010190A5
S11302D00D928A95E1F789819A81C59627E534E0E4
S11302E0FC0133AB22AB89819A81C59628E2FC01DB
S11302F024AB89819A8186599F4F9C018AE0E4E26C
S1130300F2E0D90101900D928A95E1F789819A81F1
S113031086599F4F2EEA38E0FC0133AB22AB89812A
S11303209A8186599F4F28E2FC0124AB89819A81E6
S113033081569F4F9C018AE0EEE2F2E0D9010190E0
S11303400D928A95E1F789819A8181569F4F25E024
S11303503DE0FC0133AB22AB89819A8181569F4FEA
S113036028E2FC0124AB89819A818C529F4F9C0125
S11303708AE0E8E3F2E0D90101900D928A95E1F771
S113038089819A818C529F4F2CE531E1FC0133AB7A
S113039022AB89819A818C529F4F28E2FC0124ABC5
S11303A000000F900F90DF91CF9108950F931F934A
S11303B0CF93DF93CDB7DEB7CB56DC400FB6F894BE
S11303C0DEBF0FBECDBF81E089831A8281E08B83BB
S11303D01C82CE018C589F4F22E0FC012083CE0169
S11303E08C589F4F24E0FC012183CE018C589F4FF1
S11303F020E2FC012283CE018C589F4F20E8FC01AF
S11304002383CE0188589F4F21E0FC012083CE0135
S113041088589F4F28E0FC012183CE0188589F4FC4
S113042020E1FC012283CE0188589F4F20E4FC0187
S11304302383CE0184589F4F26E0FC01322F119272
S11304403A95E9F71D821E821A861D8E1D86CE01FD
S11304508E579F4F2AE0FC01322F11923A95E9F70B
S11304601F861E8683E0888B0E942A1D18DFCE011A
S113047084579F4F0E94B71E8AE996E018DF80E8F0
S113048095E20E94722E0E94FA0F0E94751B80E072
S11304900E948C1B0E943B318091A5079091A60776
S11304A09093A4078093A3071092A6071092A50720
S11304B089E091E0FC018081882F90E0382F222789
S11304C086E091E0FC018081882F90E0822B932BC1
S11304D09093A6078093A5078091A3079091A40702
S11304E09C01209530958091A5079091A6078223C1
S11304F09323909397068093960680919806882F6D
S113050090E08130910509F427C18230910524F4EB
S1130510892B59F00C945E0E8230910509F44EC378
S1130520039709F4B4C70C945E0E8E818823F9F402
S113053042E452E060E080E086DE41E552E061E0C2
S113054081E081DE48E060E081E099DE4EE76FE023
S113055081E095DE40E652E060E082E074DE809166
S113056004026AE976E00E94991681E08E83809104
S113057096069091970688279072892B91F1809125
S11305800402833070F1809104028150809304024C
S113059080910402882F90E0292F2F938F9380E776
S11305A092E0892F8F9380E792E08F93CE018C594C
S11305B09F4F292F2F938F930E9446310F900F90B6
S11305C00F900F900F900F90CE018C599F4FAC015C
S11305D063E081E038DE809104026AE976E00E94FB
S11305E09916809196069091970688279074892B86
S11305F091F180910402843070F5809104028F5F40
S11306008093040280910402882F90E0292F2F9375
S11306108F9380E792E0892F8F9380E792E08F9306
S1130620CE018C599F4F292F2F938F930E944631CF
S11306300F900F900F900F900F900F90CE018C5948
S11306409F4FAC0163E081E0FEDD809104026AE922
S113065076E00E94991680919606909197068827D5
S11306609071892B11F40C94570E81E0898B2EC064
S11306708989282F30E045E3429FC001439F900DB4
S113068011248453994FFC01118210828989282FE7
S113069030E045E3429FC001439F900D11248253F3
S11306A0994FFC0110828989282F30E045E3429F4D
S11306B0C001439F900D11248253994FFC01808106
S11306C069890E94CD1189898F5F898B8091040289
S11306D09989891768F6809104026AE976E00E9494
S11306E0991643E752E060E080E0ADDD80910402BA
S11306F0882F90E0292F2F938F9380E792E0892F02
S11307008F9380E792E08F93CE018C599F4F292FCE
S11307102F938F930E9446310F900F900F900F905C
S11307200F900F90CE018C599F4FAC0164E080E094
S11307308ADD44E852E060E081E085DD45E952E08D
S113074060E082E080DD809104020E947F1D81E0F0
S1130750809398060C94570E81E08A8B09C04AE076
S11307606A898CED95E00E944B148A898F5F8A8B8D
S1130770809104029A89891790F781E08B8B54C188
S113078046EA52E060E080E05EDD8B89882F90E0ED
S1130790292F2F938F9380E792E0892F8F9380E7FF
S11307A092E08F93CE018C599F4F292F2F938F93D3
S11307B00E9446310F900F900F900F900F900F9062
S11307C0CE018C599F4FAC016BE080E03CDD47EBE0
S11307D052E060E081E037DD47EC52E060E082E027
S11307E032DD66C08091A5079091A6079093A40777
S11307F08093A3071092A6071092A50789E091E0C1
S1130800FC018081882F90E0382F222786E091E038
S1130810FC018081882F90E0822B932B9093A60774
S11308208093A5078091A3079091A4079C0120952C
S113083030958091A5079091A607822393239093E6
S1130840970680939606809196069091970688273E
S11308509170892B59F08885882341F449856885EE
S113086081E00E94FA1681E0888712C08091960682
S11308709091970688279270892B51F08985882357
S113088039F44985688582E00E94FA1681E08987F7
S11308908885882329F08A85882311F482E08A8751
S11308A08985882329F08A85882311F481E08A8741
S11308B08885882309F496CF8985882309F492CF03
S11308C08B89282F30E080919406482F50E0809146
S11308D09506882F90E0840F951FAC0165E3629F15
S11308E0C001639F900D11248453994FFC015183DF
S11308F040838B89282F30E045E3429FC001439F0A
S1130900900D11248453994FFC01208131818D81F4
S1130910482F50E065E3649FC001659F900D11244A
S11309208453994FFC01808191812817390709F07C
S11309304FC08A85882F90E001978C56994FFC010F
S11309408081823098F08A85882F90E001972A85EB
S1130950222F30E0215031092C56394FF9012081E2
S113096021508C56994FFC01208312C08A85882F10
S113097090E001972A85222F30E0215031092C562E
S1130980394FF90120812F5F8C56994FFC01208348
S11309908B89282F30E080919406482F50E0809175
S11309A09506882F90E0840F951FAC0165E3629F44
S11309B0C001639F900D11248453994FFC0151830E
S11309C040839091950680919406692F0E9477192F
S11309D08B89282F30E045E3429FC001439F900D4F
S11309E011248453994FFC01208131818D81482F3A
S11309F050E065E3649FC001659F900D112484530A
S1130A00994FFC01808191818217930710F48B899F
S1130A108D83188619861A866AE976E08B890E9486
S1130A2099168B898F5F8B8B809104029B89891720
S1130A3008F0A6CE8D81898380E090E0AAE7B4E433
S1130A408EA79FA7A8ABB9AB20E030E04AE755E4F6
S1130A506EA57FA588A999A90E944430DC01CB0129
S1130A608AAB9BABACABBDAB20E030E040E85FE3CE
S1130A706AA97BA98CA99DA90E94F62E88230CF44F
S1130A803CC020E03FEF4FE757E46AA97BA98CA95B
S1130A909DA90E94403018162CF520E030E040E279
S1130AA051E46EA57FA588A999A90E944430DC0170
S1130AB0CB01BC01CD010E94622FDC01CB019FABB5
S1130AC08EAB0BC080E991E00197F1F799AF88AF45
S1130AD08EA99FA901979FAB8EAB8EA99FA9892B45
S1130AE089F715C06AA97BA98CA99DA90E94622FC8
S1130AF0DC01CB019FAB8EAB04C081E090E09FABE7
S1130B008EAB8EA99FA90197F1F79BAF8AAF81E0C5
S1130B108C8B13C08C89282F30E045E3429FC001A1
S1130B20439F900D11248453994F2CED35E0FC0123
S1130B30318320838C898F5F8C8B809104029C8904
S1130B40891740F7809104026AE976E00E949916B9
S1130B5048ED52E060E080E076DB8981882F90E008
S1130B60292F2F938F9380E792E0892F8F9380E72B
S1130B7092E08F93CE018C599F4F292F2F938F93FF
S1130B800E9446310F900F900F900F900F900F908E
S1130B90CE018C599F4FAC016BE080E054DB49EEF1
S1130BA052E060E081E04FDB49EF52E060E082E038
S1130BB04ADB82E0809398060C945E0E8C85882331
S1130BC099F123DB48ED52E060E080E03CDB898171
S1130BD0882F90E0292F2F938F9380E792E0892F1D
S1130BE08F9380E792E08F93CE018C599F4F292FEA
S1130BF02F938F930E9446310F900F900F900F9078
S1130C000F900F90CE018C599F4FAC016BE080E0A8
S1130C101ADB49EE52E060E081E015DB49EF52E077
S1130C2060E082E010DB1C86809196069091970626
S1130C3088279470892B09F44EC08F81882309F486
S1130C404AC06AE08AE00E9477199091040289817F
S1130C50692F0E94A730892F8F5F898348ED52E066
S1130C6060E080E0F0DA8981882F90E0292F2F93CB
S1130C708F9380E792E0892F8F9380E792E08F93A0
S1130C80CE018C599F4F292F2F938F930E94463169
S1130C900F900F900F900F900F900F90CE018C59E2
S1130CA09F4FAC016BE080E0CEDA49EE52E060E0A9
S1130CB081E0C9DA49EF52E060E082E0C4DA1F82E1
S1130CC01B8688E290E028E230E0F90120812F734E
S1130CD0FC0120831D8680919606909197068827B3
S1130CE09470892B49F08B81882331F46AE08AE07F
S1130CF00E94771981E08B838F81882309F031C2A8
S1130D008B81882309F42DC256C08091A507909148
S1130D10A6079093A4078093A3071092A6071092A6
S1130D20A50789E091E0FC018081882F90E0382FAD
S1130D30222786E091E0FC018081882F90E0822BBD
S1130D40932B9093A6078093A5078091A307909176
S1130D50A4079C01209530958091A5079091A60742
S1130D608223932390939706809396068091960608
S1130D709091970688279170892B59F0888588234C
S1130D8041F44985688581E00E94FA1681E08887EC
S1130D9012C0809196069091970688279270892BAD
S1130DA051F08985882339F44985688582E00E9459
S1130DB0FA1681E089878885882309F4A6CF898576
S1130DC0882309F4A2CF90919406809195069817F0
S1130DD009F042C01B828A818F5F8A831886198634
S1130DE08A81882F90E08230910579F083309105D3
S1130DF0B1F00197A1F588E290E028E230E0F90132
S1130E0020812064FC0120832AC088E290E028E24B
S1130E1030E0F90120812068FC01208320C088E2B1
S1130E2090E028E230E0F90120812F73FC01208357
S1130E301092940610929506188619861A8281E0FB
S1130E408B8381E08F8381E08B8389810E94D91B0E
S1130E5084E0888B000003C081E08F831A8289813B
S1130E60282F30E045E3429FC001439F900D112499
S1130E708253994FFC018081282F30E080919406A1
S1130E80482F50E080919506882F90E0840F951F9D
S1130E90820F931F88972CF18981482F50E0898114
S1130EA0282F30E065E3629FC001639F900D1124F9
S1130EB08453994FFC01808191819C0128533F4FB9
S1130EC065E3649FC001659F900D11248453994F7D
S1130ED0FC0131832083809104026AE976E00E9458
S1130EE099168981282F30E045E3429FC001439F32
S1130EF0900D11248253994FFC0180818D8BA5C0E4
S1130F009D898DEC989F812D1124829586958770FB
S1130F1028E2829F802D1124F92FF81B8F2F6981DD
S1130F200E94CD1180E090E0A8ECB2E48E8F9F8FF8
S1130F30A8A3B9A320E030E04AE755E46E8D7F8D85
S1130F4088A199A10E944430DC01CB018CAF9DAFF4
S1130F50AEAFBFAF20E030E040E85FE36CAD7DAD05
S1130F608EAD9FAD0E94F62E88230CF455C020E070
S1130F703FEF4FE757E46CAD7DAD8EAD9FAD0E9462
S1130F8040301816D4F520E030E040E251E46E8D94
S1130F907F8D88A199A10E944430DC01CB018E0190
S1130FA0005C1F4FBC01CD010E94622FDC01CB010C
S1130FB0F8019183808318C080E991E00197F1F7EB
S1130FC09E012E5B3F4FF90191838083CE01805CAB
S1130FD09F4F9E01205C3F4FF901208131812150B8
S1130FE03109FC0131832083CE01805C9F4FFC01D9
S1130FF080819181892B01F725C08E01005C1F4FF0
S11310006CAD7DAD8EAD9FAD0E94622FDC01CB0136
S1131010F8019183808308C0CE01805C9F4F21E05A
S113102030E0FC0131832083CE01805C9F4FFC01C2
S1131030808191810197F1F79E012C5B3F4FF9016B
S1131040918380838D898F5F8D8B8D89282F30E0EC
S11310508981482F50E065E3649FC001659F900D2E
S113106011248253994FFC018081482F50E08091D4
S11310709406682F70E080919506882F90E0860F83
S1131080971F840F951F281739070CF439CF8981CE
S1131090282F30E08981482F50E065E3649FC00128
S11310A0659F900D11248253994FFC018081482F34
S11310B050E080919406682F70E080919506882F07
S11310C090E0860F971F840F951F48E250E0BA0105
S11310D00E94B330582F45E3429FC001439F900DB7
S11310E011248253994FFC0150838981282F30E0C9
S11310F045E3429FC001439F900D11248253994FB1
S1131100FC01808169810E94CD118981282F30E002
S113111045E3429FC001439F900D11248253994F90
S1131120FC018081482F50E09E0124573F4F6CE41E
S1131130649FC001659F900D1124820F931FC29676
S1131140FC018081888B8981282F30E045E3429F10
S1131150C001439F900D11248253994FFC0180815B
S11311608C8318861986809104026AE976E00E94CD
S113117099168889882F90E0092E000CAA0BBB0BC6
S113118040E050E027E030E0841B950B2817390736
S113119008F490C5FC018827EE58FF4F8F4F0C943C
S11311A0C6308B85882309F06CC18C81482F50E0B0
S11311B09E0124573F4F6CE4649FC001659F900DCE
S11311C01124820F931F8D5B9F4FFC018081882324
S11311D009F057C1CE0184579F4F4981BC018C81CE
S11311E06FD58D8F8D8D882F90E08130910519F00A
S11311F0029721F009C081E08B8706C081E08B87CC
S113120083E08093980600003CC1809196069091FB
S1131210970688279072892B09F435C18981282F74
S113122030E045E3429FC001439F900D1124845355
S1131230994FFC01208131818C81682F70E0AE01CF
S113124044575F4FECE4E69FC001E79F900D1124E3
S1131250840F951FC396FC0180819181281739075B
S113126008F411C18C81482F50E09E0124573F4F50
S11312706CE4649FC001659F900D1124820F931F3D
S11312808D5B9F4FFC018081882309F0FCC089811C
S1131290482F50E08981282F30E065E3629FC00128
S11312A0639F900D11248453994FFC012081318157
S11312B08C81E82FF0E0BE0164577F4FACE4AE9F11
S11312C0C001AF9F900D1124860F971FC396FC0198
S11312D080819181281B390B65E3649FC001659F60
S11312E0900D11248453994FFC01318320838C8108
S11312F0482F50E09E0124573F4F6CE4649FC00187
S1131300659F900D1124820F931F8D5B9F4F298140
S1131310FC0120838C81482F50E09E0124573F4FCD
S11313206CE4649FC001659F900D1124820F931F8C
S1131330895B9F4FFC0180816981BFD7A4C08981EB
S11313400E94D91B84E0888BA1C08091960690915D
S1131350970688279072892B09F497C08981282FD2
S113136030E045E3429FC001439F900D1124845314
S1131370994FFC01208131818C81682F70E0AE018E
S113138044575F4FECE4E69FC001E79F900D1124A2
S1131390840F951FC396FC0180819181281739071A
S11313A008F473C08C81482F50E09E0124573F4FAE
S11313B06CE4649FC001659F900D1124820F931FFC
S11313C08D5B9F4FFC018081882309F05EC0898179
S11313D0482F50E08981282F30E065E3629FC001E7
S11313E0639F900D11248453994FFC012081318116
S11313F08C81E82FF0E0BE0164577F4FACE4AE9FD0
S1131400C001AF9F900D1124860F971FC396FC0156
S113141080819181281B390B65E3649FC001659F1E
S1131420900D11248453994FFC01318320838C81C6
S1131430482F50E09E0124573F4F6CE4649FC00145
S1131440659F900D1124820F931F8D5B9F4F2981FF
S1131450FC0120838C81482F50E09E0124573F4F8C
S11314606CE4649FC001659F900D1124820F931F4B
S1131470895B9F4FFC01808169811FD706C00000F2
S113148019C4000017C4000015C4000013C48D85DE
S1131490882309F053C00E9405014AE053E060E04C
S11314A080E00E9423018C81482F50E09E01245744
S11314B03F4F6CE4649FC001659F900D1124820F1F
S11314C0931FAC0160E081E00E9423014BE153E0F3
S11314D060E082E00E94230189E090E09F878E878C
S11314E081E08D8781E08E8B24C08E89882F90E0E7
S11314F02E89422F50E065E3649F9001659F300D73
S113150011242453394FF90120813181AE014E5702
S11315105F4F880F991F840F951FFC01318320832F
S113152040E06E8980E090E00E944B148E898F5FCA
S11315308E8B809104029E898917B8F61F8A9AC0FF
S11315408F89882F90E09E012C583F4F820F931F64
S1131550FC018081282F30E08091960690919706B7
S113156082239323892B09F44BC08F89882F90E021
S11315709E0124583F4F820F931FFC0180818823D2
S113158009F03EC08F89882F90E09C012F5F3F4F68
S113159045E3429FC001439F900D11248453994F0A
S11315A0FC01208131818E859F85019682179307E6
S11315B038F58E859F8501969F878E8781E0888F79
S11315C009C040E0688D80E090E00E944B14888D53
S11315D08F5F888F80910402988D891790F78F8987
S11315E021E0280F8E859F8541E0622F0E944B14D5
S11315F08F8921E0280FCE0184589F4FFC01258359
S11316008F89882F90E09E0128583F4F820F931FA7
S1131610FC018081282F30E08091960690919706F6
S113162082239323892B19F18F89882F90E09E01BF
S113163024583F4F820F931FFC0180818823B9F403
S11316408F89882F90E09E0124583F4F820F931F6B
S113165021E0FC012083CE0184589F4FFC0184814A
S113166021E0280FCE0184589F4FFC0124838F89E9
S11316708F5F8F8B809104029F89981708F460CF45
S1131680CE0184589F4FFC019481809104029817E5
S113169009F013C3CE0184589F4FFC018581882330
S11316A009F412C20E94050180E090E0A0E2B1E4D6
S11316B08AA79BA7ACA7BDA78E01005B1F4F20E0A4
S11316C030E04AE755E46AA57BA58CA59DA50E9458
S11316D04430DC01CB01F80180839183A283B3837E
S11316E0CE01805B9F4F20E030E040E85FE3FC01E7
S11316F060817181828193810E94F62E88230CF48B
S11317005DC0CE01805B9F4F20E03FEF4FE757E481
S1131710FC0160817181828193810E94403018169E
S1131720D4F520E030E040E251E46AA57BA58CA525
S11317309DA50E944430DC01CB018E010C5A1F4F41
S1131740BC01CD010E94622FDC01CB01F801918321
S1131750808318C080E991E00197F1F79E012A5A2D
S11317603F4FF90191838083CE018C5A9F4F9E0194
S11317702C5A3F4FF9012081318121503109FC015C
S113178031832083CE018C5A9F4FFC01808191814B
S1131790892B01F729C08E010C5A1F4FCE01805BA3
S11317A09F4FFC0160817181828193810E94622F2D
S11317B0DC01CB01F8019183808308C0CE018C5AEF
S11317C09F4F21E030E0FC0131832083CE018C5A0D
S11317D09F4FFC01808191810197F1F79E01285A66
S11317E03F4FF901918380834CE253E060E080E055
S11317F00E94230148ED52E060E081E00E94230151
S1131800CE0184589F4FFC018581882F90E0292FB9
S11318102F938F9380E792E0892F8F9380E792E054
S11318208F93CE018C599F4F292F2F938F930E9412
S113183046310F900F900F900F900F900F90CE01A4
S11318408C599F4FAC016BE081E00E94230180E042
S113185090E0AAE7B5E48AA39BA3ACA3BDA38E0141
S11318600A5B1F4F20E030E04AE755E46AA17BA100
S11318708CA19DA10E944430DC01CB01F80180833E
S11318809183A283B383CE018A5B9F4F20E030E033
S113189040E85FE3FC0160817181828193810E9451
S11318A0F62E88230CF45DC0CE018A5B9F4F20E0A6
S11318B03FEF4FE757E4FC0160817181828193819E
S11318C00E9440301816D4F520E030E040E251E4A4
S11318D06AA17BA18CA19DA10E944430DC01CB01B3
S11318E08E01065B1F4FBC01CD010E94622FDC01FB
S11318F0CB01F8019183808318C080E991E00197BE
S1131900F1F79E01245B3F4FF90191838083CE015F
S1131910865B9F4F9E01265B3F4FF90120813181F9
S113192021503109FC0131832083CE01865B9F4F16
S1131930FC0180819181892B01F729C08E01065B0E
S11319401F4FCE018A5B9F4FFC01608171818281B0
S113195093810E94622FDC01CB01F8019183808383
S113196008C0CE01865B9F4F21E030E0FC0131834B
S11319702083CE01865B9F4FFC018081918101977A
S1131980F1F79E01225B3F4FF9019183808381E04F
S1131990898F1EC0898D482F50E0898D882F90E053
S11319A09E012E573F4F880F991F820F931FFC01F2
S11319B02081318165E3649FC001659F900D1124EE
S11319C08453994FFC0131832083898D8F5F898FE4
S11319D080910402998D8917E8F6809104026AE9DE
S11319E076E00E949916CE0184589F4FFC018581B0
S11319F0482F50E0CE0184589F4FFC018581282F49
S1131A0030E065E3629FC001639F900D112484530D
S1131A10994FFC01208131818E859F85281B390BCC
S1131A2065E3649FC001659F900D11248453994F11
S1131A30FC01318320838C81482F50E0CE018458EF
S1131A409F4FFC0165819E0124573F4F7CE4749FA6
S1131A50C001759F900D1124820F931F8D5B9F4FC2
S1131A60FC016083CE0184589F4FFC0175818C81F9
S1131A70482F50E09E0124573F4F6CE4649FC001FF
S1131A80659F900D1124820F931F895B9F4FFC016A
S1131A908081672F12D41A8E0DC08A8D882F90E012
S1131AA09E0124583F4F820F931FFC0110828A8DA0
S1131AB08F5F8A8F8A8D863080F31D8681E08C87C4
S1131AC082E080939806F9C00E9405014DE353E03B
S1131AD060E080E00E9423014DE453E060E081E097
S1131AE00E94230180E090E0AAE7B5E48EA39FA3BF
S1131AF0A8A7B9A78E01065A1F4F20E030E04AE795
S1131B0055E46EA17FA188A599A50E944430DC010B
S1131B10CB01F80180839183A283B383CE01865ADB
S1131B209F4F20E030E040E85FE3FC016081718179
S1131B30828193810E94F62E88230CF45DC0CE012D
S1131B40865A9F4F20E03FEF4FE757E4FC01608146
S1131B507181828193810E9440301816D4F520E06F
S1131B6030E040E251E46EA17FA188A599A50E94CE
S1131B704430DC01CB018E01025A1F4FBC01CD0160
S1131B800E94622FDC01CB01F8019183808318C08D
S1131B9080E991E00197F1F79E01205A3F4FF90146
S1131BA091838083CE01825A9F4F9E01225A3F4FD8
S1131BB0F9012081318121503109FC0131832083D5
S1131BC0CE01825A9F4FFC0180819181892B01F7BC
S1131BD029C08E01025A1F4FCE01865A9F4FFC0125
S1131BE060817181828193810E94622FDC01CB012B
S1131BF0F8019183808308C0CE01825A9F4F21E06F
S1131C0030E0FC0131832083CE01825A9F4FFC01D6
S1131C10808191810197F1F79E012E593F4FF9017F
S1131C209183808381E08B8F1EC08B8D482F50E081
S1131C308B8D882F90E09E012E573F4F880F991F60
S1131C40820F931FFC012081318165E3649FC001F1
S1131C50659F900D11248453994FFC013183208397
S1131C608B8D8F5F8B8F809104029B8D8917E8F693
S1131C70809104026AE976E00E9499161C8E0DC0D8
S1131C808C8D882F90E09E0124583F4F820F931F24
S1131C90FC0110828C8D8F5F8C8F8C8D863080F34D
S1131CA01D8681E08C8782E08093980606C0000040
S1131CB00C944C0200000C944C0200000C944C0256
S1131CC0CF93DF93CDB7DEB7A3970FB6F894DEBFFB
S1131CD00FBECDBF88A37AA369A34BA319828091B9
S1131CE09906882309F0AFC00E94050180E090E0C6
S1131CF0A8ECB2E48A839B83AC83BD8320E030E00C
S1131D004AE755E46A817B818C819D810E9444303D
S1131D10DC01CB018E839F83A887B98720E030E064
S1131D2040E85FE36E817F81888599850E94F62E65
S1131D3088230CF43CC020E03FEF4FE757E46E816A
S1131D407F81888599850E94403018162CF520E003
S1131D5030E040E251E46A817B818C819D810E9464
S1131D604430DC01CB01BC01CD010E94622FDC01B7
S1131D70CB019B878A870BC080E991E00197F1F73B
S1131D809D878C878A859B8501979B878A878A850F
S1131D909B85892B89F715C06E817F8188859985FC
S1131DA00E94622FDC01CB019B878A8704C081E0FB
S1131DB090E09B878A878A859B850197F1F79F87A7
S1131DC08E8748ED52E060E080E00E9423018BA101
S1131DD0882F90E0292F2F938F9380E792E0892F0B
S1131DE08F9380E792E08F93CE014096292F2F9313
S1131DF08F930E9446310F900F900F900F900F9089
S1131E000F90CE014096AC016BE080E00E9423016C
S1131E1088A1282F30E04CE4429FC001439F900DDD
S1131E20112429A13AA1820F931FAC0160E081E043
S1131E300E9423014EE553E060E082E00E9423010A
S1131E4081E0809399068091960690919706882761
S1131E509074892B09F4B4C08BA1282F30E045E39A
S1131E60429FC001439F900D11248453994FFC015C
S1131E702081318188A1482F50E06CE4649FC00127
S1131E80659F900D112449A15AA1840F951FFC014F
S1131E9083A994A92817390708F4A2C08BA1482F55
S1131EA050E08BA1282F30E065E3629FC001639F5F
S1131EB0900D11248453994FFC012081318188A114
S1131EC0682F70E0ECE4E69FC001E79F900D1124B9
S1131ED069A17AA1860F971FFC0183A994A9281BE5
S1131EE0390B65E3649FC001659F900D11248453F1
S1131EF0994FFC013183208388A1282F30E04CE4E2
S1131F00429FC001439F900D112429A13AA1820F41
S1131F10931F8D5B9F4F2BA1FC01208388A1282F49
S1131F2030E04CE4429FC001439F900D112429A14D
S1131F303AA1820F931F895B9F4FFC0180816BA1A3
S1131F40BCD1809104026AE976E0F3D60E940501CF
S1131F5048ED52E060E080E00E9423018BA1882FCD
S1131F6090E0292F2F938F9380E792E0892F8F930E
S1131F7080E792E08F93CE014096292F2F938F9381
S1131F800E9446310F900F900F900F900F900F907A
S1131F90CE014096AC016BE080E00E94230149EE43
S1131FA052E060E081E00E94230149EF52E060E0EA
S1131FB082E00E94230181E089831092990610C077
S1131FC0809196069091970688279072892B41F00C
S1131FD06AE082E30E94F91B82E0898310929906E9
S1131FE08981A3960FB6F894DEBF0FBECDBFDF91F3
S1131FF0CF910895CF93DF931F921F92CDB7DEB791
S113200082ED95E02FD061E088E2C7D162E088E2FA
S1132010C4D163E088E2C1D164E088E2BED1198210
S113202006C060E0898149D189818F5F8983898174
S11320308C31B8F381E08A8308C04AE06A8180E089
S113204090E029D48A818F5F8A838A818530A8F3BE
S11320506AE08AE00E94771900000F900F90DF91E8
S1132060CF910895CF92DF92EF92FF92CF93DF93B7
S1132070CDB7DEB7A0970FB6F894DEBF0FBECDBFC5
S113208098A38F8F1A821982F4C08981882F90E0D7
S11320902EE030E0A901481B590BCA019C018F8D29
S11320A098A1820F931FFC0180818A836A8180E05A
S11320B00E94AA2E80E090E0AAEFB3E48B839C8375
S11320C0AD83BE832BEA3AEA4AEA50E46B817C8111
S11320D08D819E810E944430DC01CB018F839887DF
S11320E0A987BA8720E030E040E850E46B817C8126
S11320F08D819E810E944430DC01CB018B879C87BB
S1132100AD87BE8720E030E040E85FE36F817885EB
S113211089859A850E94F62E88230CF4A1C020E0BC
S11321203FEF4FE757E46B857C858D859E850E9444
S1132130403018160CF06DC020E030E04AE754E45B
S11321406B817C818D819E810E94FA2EDC01CB0102
S11321506C017D0120E030E04AE755E4C701B60197
S11321600E944430DC01CB018F87988BA98BBA8BFA
S113217020E030E040E85FE36F85788989899A89B7
S11321800E94F62E8823D4F120E03FEF4FE757E476
S11321906F85788989899A890E94403018161CF5C0
S11321A020E030E040E251E4C701B6010E9444302F
S11321B0DC01CB01BC01CD010E94622FDC01CB010B
S11321C09C8B8B8B0BC080E991E00197F1F79E8B80
S11321D08D8B8B899C8901979C8B8B8B8B899C899C
S11321E0892B89F73FC06F85788989899A890E94EC
S11321F0622FDC01CB019C8B8B8B04C081E090E0CF
S11322009C8B8B8B8B899C890197F1F7988F8F8B93
S113221029C020E030E04FE753E46F817885898559
S11322209A850E94403018168CF46B857C858D85C8
S11322309E850E94622FDC01CB019A8F898F898D44
S11322409A8D0197F1F79C8F8B8F10C06F817885E1
S113225089859A850E94622FDC01CB018D8F02C093
S113226081E08D8F8D8D8A95F1F78E8F89818F5FB7
S1132270898389818F3008F408CF8EE290E02EE2C2
S113228030E0F90120812860FC0120838EE290E097
S11322902EE230E0F9012081277FFC012083000039
S11322A0A0960FB6F894DEBF0FBECDBFDF91CF91DD
S11322B0FF90EF90DF90CF900895CF93DF9300D0FD
S11322C000D0CDB7DEB78D836E831B828E81882FBD
S11322D090E082309105B9F0833091052CF4009799
S11322E049F0019759F021C08330910599F0049782
S11322F0B9F01BC019821A821B8217C082E389833A
S11323001A821B8212C08EE1898382E38A8383E06E
S11323108B830BC082E3898384E18A831B8205C09B
S113232019821A8282E38B8300008D81882F90E0CA
S11323309C01220F331F280F391F2955384F49811B
S1132340F90140839C01220F331F280F391F2855A0
S1132350384F4A81F90140839C01220F331F280F13
S1132360391FC9018755984F2B81FC0120831C829A
S113237007C087EA97E00E94BE2E8C818F5F8C8312
S11323808C818C31B0F3000026960FB6F894DEBF32
S11323900FBECDBFDF91CF910895CF92DF92EF9220
S11323A0FF92CF93DF93CDB7DEB7A5970FB6F8941E
S11323B0DEBF0FBECDBF8CA36DA31C821D828DA179
S11323C0882F90E001978058994FFC018081882FD5
S11323D090E0880F991F880F991F99230CF4079692
S11323E09595879595958795959587958E838DA1D8
S11323F0882F90E001978058994FFC018081880FC5
S1132400880F84708F838DA194D18D838E81282F22
S113241030E08F81482F50E08DA1882F90E0019704
S1132420480F591F8D81082E000C990B840F951F9E
S1132430220F331F220F331F220F331F820F931FCC
S113244080529A4FFC0110828DA1882F90E0019751
S11324508058994F2CA1FC0120838CA1882F90E0F7
S1132460880F991F880F991F99230CF40796959547
S1132470879595958795959587958E838CA1880FDB
S1132480880F84708F838DA154D18D838E81282FE2
S113249030E08F81482F50E08DA1882F90E0019784
S11324A0480F591F8D81082E000C990B840F951F1E
S11324B0220F331F220F331F220F331F820F931F4C
S11324C080529A4F21E0FC01208319821A820DC1A7
S11324D019821B8225C08981880F89838A81882F6C
S11324E090E024E130E0281B390B8B81882F90E0A9
S11324F047E050E0BA01681B790BCB01220F331F70
S1132500220F331F220F331F820F931F80529A4FC3
S1132510FC0180819981892B89838B818F5F8B83D7
S11325208B818830C0F289810E94792E80E090E00E
S1132530AAEFB3E488879987AA87BB872BEA3AEA8C
S11325404AEA50E4688579858A859B850E944430EF
S1132550DC01CB018C879D87AE87BF8720E030E00C
S113256040E850E4688579858A859B850E944430DB
S1132570DC01CB01888B998BAA8BBB8B20E030E0EC
S113258040E85FE36C857D858E859F850E94F62EED
S113259088230CF4A1C020E03FEF4FE757E468899B
S11325A079898A899B890E94403018160CF06DC085
S11325B020E030E04AE754E4688579858A859B8584
S11325C00E94FA2EDC01CB016C017D0120E030E099
S11325D04AE755E4C701B6010E944430DC01CB014F
S11325E08C8B9D8BAE8BBF8B20E030E040E85FE3AB
S11325F06C897D898E899F890E94F62E8823D4F167
S113260020E03FEF4FE757E46C897D898E899F89ED
S11326100E94403018161CF520E030E040E251E4FE
S1132620C701B6010E944430DC01CB01BC01CD01DD
S11326300E94622FDC01CB01998F888F0BC080E947
S113264091E00197F1F79B8F8A8F888D998D01977F
S1132650998F888F888D998D892B89F73FC06C89D4
S11326607D898E899F890E94622FDC01CB01998F1D
S1132670888F04C081E090E0998F888F888D998D30
S11326800197F1F79D8F8C8F29C020E030E04FE750
S113269053E46C857D858E859F850E944030181695
S11326A08CF4688979898A899B890E94622FDC016C
S11326B0CB019F8F8E8F8E8D9F8D0197F1F799A3FC
S11326C088A310C06C857D858E859F850E94622FAE
S11326D0DC01CB018AA302C081E08AA38AA18A9586
S11326E0F1F78BA38A818F5F8A838A81853108F40D
S11326F0EFCE85E290E025E230E0F901208120610F
S1132700FC01208385E290E025E230E0F90120819C
S11327102F7EFC0120830000A5960FB6F894DEBF3F
S11327200FBECDBFDF91CF91FF90EF90DF90CF90A0
S11327300895CF93DF931F921F92CDB7DEB78A839C
S113274019828A81882F90E001978058994FFC0163
S113275080818A3010F4198298C08A81882F90E091
S113276001978058994FFC0180818A3048F18A8111
S1132770882F90E001978058994FFC018081843123
S1132780F8F48A81882F90E08230910579F08330C3
S113279091051CF4019739F078C08330910549F014
S11327A0049751F072C081E0898309C082E0898373
S11327B006C08EEF898303C08FEF8983000065C054
S11327C08A81882F90E001978058994FFC0180817D
S11327D0843148F18A81882F90E001978058994F7D
S11327E0FC0180818E31F8F48A81882F90E0823058
S11327F0910579F0833091051CF4019739F045C0B7
S11328008330910549F0049751F03FC083E08983F8
S113281009C081E0898306C08FEF898303C08DEFEF
S11328208983000032C08A81882F90E00197805804
S1132830994FFC0180818E3140F18A81882F90E08C
S113284001978058994FFC0180818832F0F48A8185
S1132850882F90E08230910579F0833091051CF443
S1132860019739F012C08330910549F0049751F073
S11328700CC082E0898309C08FEF898306C081E0A0
S1132880898303C08EEF8983000089810F900F90A4
S1132890DF91CF910895CF92DF92EF92FF92CF9381
S11328A0DF93CDB7DEB7A6970FB6F894DEBF0FBEA1
S11328B0CDBF9CA38BA36DA34EA31A828BA19CA115
S11328C09695879596958795969587959C01A5EC01
S11328D0B0E20E94CE30AC01529542954F7045272C
S11328E05F7045279A01ADECBCEC0E94CE30969502
S11328F087959695879596958795880F991F9C013E
S1132900220F331F220F331F820F931F9A01281B9C
S1132910390BC9018B838BA19CA1969587959695BC
S113292087959C01ABE7B4E10E94CE30AC0156958B
S113293047959A01ADECBCEC0E94CE3096958795F4
S11329409695879596958795880F991F9C01220FD8
S1132950331F220F331F820F931FFA01E81BF90B59
S1132960CF018C838BA19CA19C01ADECBCEC0E949B
S1132970CE30AC0156954795569547955695479553
S11329809A01ADECBCEC0E94CE3096958795969555
S1132990879596958795880F991F9C01220F331F61
S11329A0220F331F820F931F9A01281B390BC90171
S11329B08D834BA15CA19A01ADECBCEC0E94CE309E
S11329C0969587959695879596958795880F991FDF
S11329D09C01220F331F220F331F820F931FFA0112
S11329E0E81BF90BCF018E838EA1882309F450C014
S11329F08DA1882F90E00197880F991F880F991F48
S1132A002B81222F30E02B5F3D4FF90120818C5721
S1132A10994FFC0120838DA1882F90E00197880FA6
S1132A20991F880F991F01962C81222F30E02B5F6C
S1132A303D4FF90120818C57994FFC0120838DA1D2
S1132A40882F90E00197880F991F880F991F02968D
S1132A502D81222F30E02B5F3D4FF90120818C57CF
S1132A60994FFC0120838DA1882F90E00197880F56
S1132A70991F880F991F03962E81222F30E02B5F18
S1132A803D4FF90120818C57994FFC0120833BC0B5
S1132A908DA1882F90E00197880F991F880F991FA7
S1132AA020910F028C57994FFC0120838DA1882F10
S1132AB090E00197880F991F880F991F0196209124
S1132AC00F028C57994FFC0120838DA1882F90E031
S1132AD00197880F991F880F991F029620910F0262
S1132AE08C57994FFC0120838DA1882F90E001978A
S1132AF0880F991F880F991F039620910F028C57F6
S1132B00994FFC0120831982F0C08981882F90E0BD
S1132B1020E130E0A901481B590BCA018C57994F99
S1132B20FC018081682F82E00E94AA2E80E090E060
S1132B30AAEFB3E48F839887A987BA872BEA3AEA86
S1132B404AEA50E46F81788589859A850E944430E9
S1132B50DC01CB018B879C87AD87BE8720E030E00A
S1132B6040E850E46F81788589859A850E944430D5
S1132B70DC01CB018F87988BA98BBA8B20E030E0E6
S1132B8040E85FE36B857C858D859E850E94F62EEB
S1132B9088230CF4A1C020E03FEF4FE757E46F8592
S1132BA0788989899A890E94403018160CF06DC082
S1132BB020E030E04AE754E46F81788589859A857E
S1132BC00E94FA2EDC01CB016C017D0120E030E093
S1132BD04AE755E4C701B6010E944430DC01CB0149
S1132BE08B8B9C8BAD8BBE8B20E030E040E85FE3A9
S1132BF06B897C898D899E890E94F62E8823D4F165
S1132C0020E03FEF4FE757E46B897C898D899E89EB
S1132C100E94403018161CF520E030E040E251E4F8
S1132C20C701B6010E944430DC01CB01BC01CD01D7
S1132C300E94622FDC01CB01988F8F8B0BC080E93F
S1132C4091E00197F1F79A8F898F8F89988D019779
S1132C50988F8F8B8F89988D892B89F73FC06B89CB
S1132C607C898D899E890E94622FDC01CB01988F1B
S1132C708F8B04C081E090E0988F8F8B8F89988D23
S1132C800197F1F79C8F8B8F29C020E030E04FE74C
S1132C9053E46B857C858D859E850E944030181693
S1132CA08CF46F85788989899A890E94622FDC0166
S1132CB0CB019E8F8D8F8D8D9E8D0197F1F798A3FB
S1132CC08F8F10C06B857C858D859E850E94622FB9
S1132CD0DC01CB0189A302C081E089A389A18A9583
S1132CE0F1F78AA389818F5F89838981813108F40F
S1132CF00CCF82E091E022E031E0F90120812860EC
S1132D00FC01208382E091E022E031E0F90120819E
S1132D10277FFC0120830000A6960FB6F894DEBF3F
S1132D200FBECDBFDF91CF91FF90EF90DF90CF909A
S1132D300895CF93DF9300D01F921F92CDB7DEB7D3
S1132D408B837D836C8381E0898316C08981282FDE
S1132D5030E045E3429FC001439F900D11242C8134
S1132D603D81820F931FFC0182A993A941E06981EF
S1132D7092DD89818F5F898399818B81891730F7EF
S1132D808B818F5F8A8316C08A81282F30E045E3C8
S1132D90429FC001439F900D11242C813D81820FDD
S1132DA0931FFC0182A993A940E06A8174DD8A81A2
S1132DB08F5F8A838A81853038F300000F900F90EB
S1132DC00F900F900F90DF91CF910895CF93DF93E1
S1132DD01F92CDB7DEB719820E94383126E030E069
S1132DE0B9010E94B3308F5F898389810F90DF918D
S1132DF0CF910895CF93DF93CDB7DEB7C154D109F6
S1132E000FB6F894DEBF0FBECDBF8FAFCE01805C8E
S1132E109F4FFC016083CE018F5B9F4FFC01408379
S1132E208AE08A838FAD813009F093C0CE018F5B35
S1132E309F4FFC018081882309F48BC01B8281C0D1
S1132E40C5DF898380919506682F898150D28B8153
S1132E50882F90E0880F991F0F96092E000CAA0B5B
S1132E60BB0BBC01CD010E94902FDC01CB018B8BED
S1132E709C8BAD8BBE8B20E030E04AE755E46B8938
S1132E807C898D899E890E944430DC01CB018F8B23
S1132E90988FA98FBA8F20E030E040E85FE36F8914
S1132EA0788D898D9A8D0E94F62E88230CF43CC06F
S1132EB020E03FEF4FE757E46F89788D898D9A8D35
S1132EC00E94403018162CF520E030E040E251E436
S1132ED06B897C898D899E890E944430DC01CB01F9
S1132EE0BC01CD010E94622FDC01CB019C8F8B8F32
S1132EF00BC080E991E00197F1F79E8F8D8F8B8D48
S1132F009C8D01979C8F8B8F8B8D9C8D892B89F742
S1132F1015C06F89788D898D9A8D0E94622FDC018E
S1132F20CB019C8F8B8F04C081E090E09C8F8B8FB2
S1132F308B8D9C8D0197F1F798A38F8F8B818F5F79
S1132F408B838B81823308F47BCF898180939406B1
S1132F50C3C18FAD813009F091C0CE018F5B9F4F0B
S1132F60FC018081882309F089C01C827FC02EDF88
S1132F7089836AE08981BBD18C81882F90E0880F96
S1132F80991F0F96092E000CAA0BBB0BBC01CD0197
S1132F900E94902FDC01CB018F839887A987BA8781
S1132FA020E030E04AE755E46F81788589859A8589
S1132FB00E944430DC01CB0189A39AA3ABA3BCA338
S1132FC020E030E040E85FE369A17AA18BA19CA1F5
S1132FD00E94F62E88230CF43CC020E03FEF4FE71C
S1132FE057E469A17AA18BA19CA10E9440301816D4
S1132FF02CF520E030E040E251E46F81788589854A
S11330009A850E944430DC01CB01BC01CD010E94B1
S1133010622FDC01CB019EA38DA30BC080E991E05C
S11330200197F1F798A78FA38DA19EA101979EA365
S11330308DA38DA19EA1892B89F715C069A17AA1C1
S11330408BA19CA10E94622FDC01CB019EA38DA3C6
S113305004C081E090E09EA38DA38DA19EA1019761
S1133060F1F79AA789A78C818F5F8C838C81893132
S113307008F47DCF8981809394062EC18FAD823070
S113308009F095C0CE01805C9F4FFC0180818823AC
S113309009F48DC01D8283C099DE8A8380919406D1
S11330A06A8125D18D81282F30E0C901880F991FAD
S11330B0820F931F0F96092E000CAA0BBB0BBC01A9
S11330C0CD010E94902FDC01CB018B879C87AD87BB
S11330D0BE8720E030E04AE755E46B857C858D852A
S11330E09E850E944430DC01CB018BA79CA7ADA731
S11330F0BEA720E030E040E85FE36BA57CA58DA58A
S11331009EA50E94F62E88230CF43CC020E03FEFDD
S11331104FE757E46BA57CA58DA59EA50E94403082
S113312018162CF520E030E040E251E46B857C85F4
S11331308D859E850E944430DC01CB01BC01CD010C
S11331400E94622FDC01CB0198AB8FA70BC080E9F2
S113315091E00197F1F79AAB89AB8FA598A90197F4
S113316098AB8FA78FA598A9892B89F715C06BA554
S11331707CA58DA59EA50E94622FDC01CB0198AB96
S11331808FA704C081E090E098AB8FA78FA598A982
S11331900197F1F79CAB8BAB8D818F5F8D838D8114
S11331A0893108F479CF8A818093950695C08FADD3
S11331B0823009F091C0CE01805C9F4FFC01808178
S11331C0882309F089C01E827FC000DE8A836A8159
S11331D08AE08DD08E81882F90E0880F991F0F96FA
S11331E0092E000CAA0BBB0BBC01CD010E94902F31
S11331F0DC01CB018F87988BA98BBA8B20E030E060
S11332004AE755E46F85788989899A890E94443010
S1133210DC01CB018DAB9EABAFABB8AF20E030E0AF
S113322040E85FE36DA97EA98FA998AD0E94F62EB0
S113323088230CF43CC020E03FEF4FE757E46DA92E
S11332407EA98FA998AD0E94403018162CF520E075
S113325030E040E251E46F85788989899A890E9437
S11332604430DC01CB01BC01CD010E94622FDC01A2
S1133270CB019AAF89AF0BC080E991E00197F1F7D8
S11332809CAF8BAF89AD9AAD01979AAF89AF89ADE9
S11332909AAD892B89F715C06DA97EA98FA998AD20
S11332A00E94622FDC01CB019AAF89AF04C081E098
S11332B090E09AAF89AF89AD9AAD0197F1F79EAFCF
S11332C08DAF8E818F5F8E838E81823308F47DCFA4
S11332D08A818093950600C00000CF5BDF4F0FB654
S11332E0F894DEBF0FBECDBFDF91CF910895CF928A
S11332F0DF92EF92FF92CF93DF93CDB7DEB7EA97D9
S11333000FB6F894DEBF0FBECDBF89AF6AAF8AADEA
S1133310882F90E08B5F9D4FFC018081682F83E0B4
S11333200E94AA2E80E090E0AAEFB3E489839A83F6
S1133330AB83BC832BEA3AEA4AEA50E469817A8196
S11333408B819C810E944430DC01CB0189A39AA328
S1133350ABA3BCA320E030E040E850E469817A816B
S11333608B819C810E944430DC01CB018DA39EA300
S1133370AFA3B8A720E030E040E85FE369A17AA1F9
S11333808BA19CA10E94F62E88230CF4A1C020E0FE
S11333903FEF4FE757E46DA17EA18FA198A50E944E
S11333A0403018160CF06DC020E030E04AE754E4D9
S11333B069817A818B819C810E94FA2EDC01CB0188
S11333C06C017D0120E030E04AE755E4C701B60115
S11333D00E944430DC01CB0189A79AA7ABA7BCA704
S11333E020E030E040E85FE369A57AA58BA59CA5C1
S11333F00E94F62E8823D4F120E03FEF4FE757E4F4
S113340069A57AA58BA59CA50E94403018161CF5C9
S113341020E030E040E251E4C701B6010E944430AC
S1133420DC01CB01BC01CD010E94622FDC01CB0188
S11334309EA78DA70BC080E991E00197F1F798ABA7
S11334408FA78DA59EA501979EA78DA78DA59EA547
S1133450892B89F73FC069A57AA58BA59CA50E94F5
S1133460622FDC01CB019EA78DA704C081E090E010
S11334709EA78DA78DA59EA50197F1F79AAB89AB61
S113348029C020E030E04FE753E469A17AA18BA181
S11334909CA10E94403018168CF46DA17EA18FA1CE
S11334A098A50E94622FDC01CB019CAB8BAB8BA94E
S11334B09CA90197F1F79EAB8DAB10C069A17AA1CD
S11334C08BA19CA10E94622FDC01CB018FAB02C0B7
S11334D081E08FAB8FA98A95F1F788AF89AD882FEA
S11334E090E08B5F9D4FFC018081682F83E00E94F8
S11334F0AA2E80E090E0AAEFB3E48D839E83AF838D
S1133500B8872BEA3AEA4AEA50E46D817E818F81DA
S113351098850E944430DC01CB0189879A87AB8768
S1133520BC8720E030E040E850E46D817E818F81EB
S113353098850E944430DC01CB018D879E87AF873C
S1133540B88B20E030E040E85FE369857A858B85BD
S11335509C850E94F62E88230CF4A1C020E03FEF46
S11335604FE757E46D857E858F8598890E944030AA
S113357018160CF06DC020E030E04AE754E46D8189
S11335807E818F8198850E94FA2EDC01CB016C012B
S11335907D0120E030E04AE755E4C701B6010E940E
S11335A04430DC01CB01898B9A8BAB8BBC8B20E044
S11335B030E040E85FE369897A898B899C890E94BD
S11335C0F62E8823D4F120E03FEF4FE757E46989D2
S11335D07A898B899C890E94403018161CF520E05A
S11335E030E040E251E4C701B6010E944430DC01FE
S11335F0CB01BC01CD010E94622FDC01CB019E8B6B
S11336008D8B0BC080E991E00197F1F7988F8F8B38
S11336108D899E8901979E8B8D8B8D899E89892B9F
S113362089F73FC069897A898B899C890E94622FB6
S1133630DC01CB019E8B8D8B04C081E090E09E8BDE
S11336408D8B8D899E890197F1F79A8F898F29C077
S113365020E030E04FE753E469857A858B859C85CB
S11336600E94403018168CF46D857E858F8598896C
S11336700E94622FDC01CB019C8F8B8F8B8D9C8DE4
S11336800197F1F79E8F8D8F10C069857A858B85A0
S11336909C850E94622FDC01CB018F8F02C081E0E8
S11336A08F8F8F8D8A95F1F788A385E091E025E0CF
S11336B031E0F90120812860FC01208385E091E05C
S11336C025E031E0F9012081277FFC0120830000FF
S11336D0EA960FB6F894DEBF0FBECDBFDF91CF914F
S11336E0FF90EF90DF90CF900895CF93DF93CDB705
S11336F0DEB78CE790E020E4FC0120838EE790E0C5
S11337002FE0FC0120838AE790E027E8FC01208376
S11337100000DF91CF910895CF93DF931F92CDB72F
S1133720DEB789838CE790E02CE730E0F901208153
S1133730207FFC0120838CE790E02CE730E0F90146
S11337402081322F29812770232BFC0120838BE7D2
S113375090E02BE730E0F9012081277FFC012083F2
S11337608BE790E02BE730E0F9012081322F2981AB
S11337702870232BFC0120838AE790E02AE730E0BD
S1133780F90120812064FC01208300008AE790E095
S1133790FC018081882F90E080749927892BB1F7F0
S11337A088E790E0FC01808191810F90DF91CF91B7
S11337B00895CF93DF931F92CDB7DEB7898364E179
S11337C084E617D08981282F30E045E3429FC00169
S11337D0439F900D11248253994F2AE0FC012083CA
S11337E069818AE00E94CD1100000F90DF91CF9192
S11337F00895CF93DF93CDB7DEB76F970FB6F894E4
S1133800DEBF0FBECDBF8E8F6F8F19820BC188E2D2
S113381090E028E230E0F90120812068FC01208357
S113382088E290E028E230E0F90120812F7BFC015E
S113383020838E8D882F90E0A0E0B0E0BC01CD0104
S11338400E948E2FDC01CB018A839B83AC83BD83D2
S113385020E030E04AE755E46A817B818C819D81D8
S11338600E944430DC01CB018C8B9D8BAE8BBF8BD3
S113387020E030E040E85FE36C897D898E899F8990
S11338800E94F62E88230CF43CC020E03FEF4FE763
S113389057E46C897D898E899F890E94403018166F
S11338A02CF520E030E040E251E46A817B818C8198
S11338B09D810E944430DC01CB01BC01CD010E94FA
S11338C0622FDC01CB01998F888F0BC080E991E0D6
S11338D00197F1F79B8F8A8F888D998D0197998F26
S11338E0888F888D998D892B89F715C06C897D897E
S11338F08E899F890E94622FDC01CB01998F888F6A
S113390004C081E090E0998F888F888D998D01970C
S1133910F1F79D8F8C8F88E290E028E230E0F90186
S113392020812064FC01208388E290E028E230E0DA
S1133930F90120812F77FC0120838E8D882F90E060
S1133940A0E0B0E0BC01CD010E948E2FDC01CB01D0
S11339508E839F83A887B98720E030E04AE755E447
S11339606E817F81888599850E944430DC01CB017A
S11339708A879B87AC87BD8720E030E040E85FE31F
S11339806A857B858C859D850E94F62E88230CF4A0
S11339903CC020E03FEF4FE757E46A857B858C8588
S11339A09D850E94403018162CF520E030E040E25E
S11339B051E46E817F81888599850E944430DC01C1
S11339C0CB01BC01CD010E94622FDC01CB019F879A
S11339D08E870BC080E991E00197F1F7998B888B72
S11339E08E859F8501979F878E878E859F85892BDE
S11339F089F715C06A857B858C859D850E94622F19
S1133A00DC01CB019F878E8704C081E090E09F8713
S1133A108E878E859F850197F1F79B8B8A8B898191
S1133A208F5F898399818F8D981708F4F0CE88E28F
S1133A3090E028E230E0F90120812F73FC0120831B
S1133A4000006F960FB6F894DEBF0FBECDBFDF91B6
S1133A50CF910895CF93DF93CDB7DEB781E290E0A5
S1133A602FEFFC01208384E290E02FEFFC01208300
S1133A7085E290E020E2FC01208387E290E02FEFD2
S1133A80FC01208388E290E02FE3FC0120838AE29A
S1133A9090E02FEFFC0120838BE290E0FC01108288
S1133AA08DE290E02FEFFC0120838EE290E020E194
S1133AB0FC01208380E390E02EEFFC01208381E071
S1133AC091E02FEFFC01208382E091E020E1FC01F2
S1133AD0208384E091E02FEFFC01208385E091E0D6
S1133AE020E1FC01208387E091E0FC0110828AE060
S1133AF091E0FC0110820000DF91CF910895CF93F3
S1133B00DF93CDB7DEB7EF970FB6F894DEBF0FBEE5
S1133B10CDBF8FAF80E2EEE6F3E0DE015F96019069
S1133B200D928A95E1F7198214C181E08A839EC0BF
S1133B308A81482F50E08A81282F30E065E3629F14
S1133B40C001639F900D11248453994FFC0120817F
S1133B5031818981882F90E0880F991FBE016F5FA2
S1133B607F4F860F971F4E96FC0180819181280F0D
S1133B70391F65E3649FC001659F900D1124845330
S1133B80994FFC013183208380E090E0A6E9B2E400
S1133B908F839887A987BA8720E030E04AE755E405
S1133BA06F81788589859A850E944430DC01CB0138
S1133BB08B879C87AD87BE8720E030E040E85FE3D9
S1133BC06B857C858D859E850E94F62E88230CF45A
S1133BD03CC020E03FEF4FE757E46B857C858D8543
S1133BE09E850E94403018162CF520E030E040E21B
S1133BF051E46F81788589859A850E944430DC017F
S1133C00CB01BC01CD010E94622FDC01CB01988B5A
S1133C108F870BC080E991E00197F1F79A8B898B2C
S1133C208F8598890197988B8F878F859889892BA1
S1133C3089F715C06B857C858D859E850E94622FD2
S1133C40DC01CB01988B8F8704C081E090E0988BD6
S1133C508F878F8598890197F1F79C8B8B8B6AE905
S1133C6076E08FAD66D88A818F5F8A839A818FAD23
S1133C70891708F05DCF80E090E0A8E4B2E48B837C
S1133C809C83AD83BE8320E030E04AE755E46B813A
S1133C907C818D819E810E944430DC01CB018D8B1F
S1133CA09E8BAF8BB88F20E030E040E85FE36D89F6
S1133CB07E898F89988D0E94F62E88230CF43CC04F
S1133CC020E03FEF4FE757E46D897E898F89988D17
S1133CD00E94403018162CF520E030E040E251E418
S1133CE06B817C818D819E810E944430DC01CB01FB
S1133CF0BC01CD010E94622FDC01CB019A8F898F18
S1133D000BC080E991E00197F1F79C8F8B8F898D2F
S1133D109A8D01979A8F898F898D9A8D892B89F72E
S1133D2015C06D897E898F89988D0E94622FDC0170
S1133D30CB019A8F898F04C081E090E09A8F898F9C
S1133D40898D9A8D0197F1F79E8F8D8F89818F5F71
S1133D5089838981803108F4E8CE0000EF960FB69C
S1133D60F894DEBF0FBECDBFDF91CF910895CF93FE
S1133D70DF931F921F92CDB7DEB79A83898389811F
S1133D809A812CE43FE6FC013183208323E730E071
S1133D90FC013383228389819A8123E0FC0122ABD5
S1133DA089819A81845B9F4F9C018EE0EEE8F3E069
S1133DB0D90101900D928A95E1F789819A81845BFA
S1133DC09F4FFC0112AA89819A81845B9F4F2CE347
S1133DD030E0FC0134AB23AB89819A81845B9F4F33
S1133DE022E030E0FC0136AB25AB89819A81845B0B
S1133DF09F4F2AE030E0FC0130AF27AB89819A81E4
S1133E00845B9F4F2EE130E0FC0132AF21AF89810A
S1133E109A81845B9F4F2AE530E0FC0134AF23AFE5
S1133E2089819A81845B9F4F20EA30E0FC0136AFA0
S1133E3025AF89819A81845B9F4FCF962AEF30E02A
S1133E40FC013183208389819A81845B9F4F8F5B3E
S1133E509F4F24E030E0FC013183208389819A81E3
S1133E60845B9F4F8D5B9F4FFC01108289819A81F7
S1133E70845B9F4F8C5B9F4FFC01108289819A81E8
S1133E80845B9F4F8B5B9F4FFC01108289819A81D9
S1133E90845B9F4F8A5B9F4FFC01108289819A81CA
S1133EA0845B9F4F895B9F4FFC01108289819A81BB
S1133EB0845B9F4F875B9F4FFC01108289819A81AD
S1133EC088569F4F9C0189E0ECE9F3E0D901019009
S1133ED00D928A95E1F789819A8188569F4F21E056
S1133EE0FC0122AB89819A818C519F4F9C018BE00C
S1133EF0E5EAF3E0D90101900D928A95E1F7898111
S1133F009A818C519F4FFC0112AA89819A818C510C
S1133F109F4F2CE330E0FC0134AB23AB89819A81C1
S1133F208C519F4F2CE330E0FC0134AB23AB8981EF
S1133F309A818C519F4F24E030E0FC0136AB25ABD5
S1133F4089819A818C519F4F24E130E0FC0130AF8C
S1133F5027AB89819A818C519F4F2CE330E0FC017F
S1133F6032AF21AF89819A818C519F4F24EB30E08D
S1133F70FC0134AF23AF89819A818C519F4F20E497
S1133F8031E0FC0136AF25AF89819A818C519F4F76
S1133F90CF9622EC31E0FC013183208389819A8120
S1133FA08C519F4F8F5B9F4F24E030E0FC013183A5
S1133FB0208389819A818C519F4F8D5B9F4FFC0197
S1133FC0108289819A818C519F4F8C5B9F4FFC0199
S1133FD0108289819A818C519F4F8B5B9F4F21E086
S1133FE0FC01208389819A818C519F4F8A5B9F4F6A
S1133FF0FC01108289819A818C519F4F895B9F4F6C
S113400021E0FC01208389819A818C519F4F875B39
S11340109F4FFC01108289819A81805D9E4F9C0193
S11340208DE0E0EBF3E0D90101900D928A95E1F780
S113403089819A81805D9E4F22E0FC0122AB8981B7
S11340409A81805D9E4F28EC30E0FC0134AB23ABB9
S113405089819A8184589E4F9C0180E1EDEBF3E0C5
S1134060D90101900D928A95E1F789819A8184584A
S11340709E4F27E0FC0122AB89819A8184589E4F90
S113408028EC30E0FC0134AB23AB89819A8184585D
S11340909E4F29E130E0FC0136AB25AB89819A8142
S11340A084589E4F22E330E0FC0130AF27AB898176
S11340B09A8184589E4F24E630E0FC0132AF21AF50
S11340C089819A8184589E4F28EC30E0FC0134AFFA
S11340D023AF89819A8184589E4F8D5B9F4FFC0149
S11340E0108289819A8184589E4F8C5B9F4F28E06F
S11340F0FC01208389819A8184589E4F895B9F4F5C
S113410022E0FC01208389819A8184589E4F875B39
S11341109F4FFC01108289819A8188539E4F9C0194
S11341208CE0EDECF3E0D90101900D928A95E1F772
S113413089819A8188539E4FFC0112AA89819A81B0
S113414088539E4F24E630E0FC0134AB23AB8981D5
S11341509A8188539E4F26E030E0FC0136AB25ABB4
S113416089819A8188539E4F2EE130E0FC0130AF63
S113417027AB89819A8188539E4F2AE530E0FC0160
S113418032AF21AF89819A8188539E4F2EE031E06E
S1134190FC0134AF23AF89819A8188539E4F20E973
S11341A031E0FC0136AF25AF89819A8188539E4F57
S11341B0CF9626E232E0FC013183208389819A8103
S11341C088539E4F8F5B9F4F2CE030E0FC0131837E
S11341D0208389819A8188539E4F8D5B9F4FFC0178
S11341E0108289819A8188539E4F8C5B9F4F21E076
S11341F0FC01208389819A8188539E4F8B5B9F4F5A
S113420022E0FC01208389819A8188539E4F8A5B36
S11342109F4FFC01108289819A8188539E4F895B4C
S11342209F4F23E0FC01208389819A8188539E4F0C
S1134230875B9F4FFC01108289819A818C5E9D4F20
S11342409C0187E0E9EDF3E0D90101900D928A9594
S1134250E1F789819A818C5E9D4F21E0FC0122ABBC
S113426089819A81805A9D4F9C018BE0E0EEF3E0B6
S1134270D90101900D928A95E1F789819A81805A3A
S11342809D4FFC0112AA89819A81805A9D4F24E690
S113429030E0FC0134AB23AB89819A81805A9D4F75
S11342A026E030E0FC0136AB25AB89819A81805A47
S11342B09D4F2EE130E0FC0130AF27AB89819A811C
S11342C0805A9D4F2AE530E0FC0132AF21AF89814D
S11342D09A81805A9D4F2EE031E0FC0134AF23AF28
S11342E089819A81805A9D4F20E931E0FC0136AFE3
S11342F025AF89819A81805A9D4FCF9626E232E07C
S1134300FC013183208389819A81805A9D4F8F5B80
S11343109F4F2CE030E0FC013183208389819A8116
S1134320805A9D4F8D5B9F4FFC01108289819A8139
S1134330805A9D4F8C5B9F4F21E0FC012083898133
S11343409A81805A9D4F8B5B9F4F23E0FC01208311
S113435089819A81805A9D4F8A5B9F4FFC0110820C
S113436089819A81805A9D4F895B9F4F24E0FC018B
S1134370208389819A81805A9D4F875B9F4FFC01DE
S1134380108289819A8184559D4F9C018AE0EBEECD
S1134390F3E0D90101900D928A95E1F789819A8120
S11343A084559D4FFC0112AA89819A8184559D4FA1
S11343B028E730E0FC0134AB23AB89819A81845532
S11343C09D4F28E030E0FC0136AB25AB89819A8112
S11343D084559D4F28E230E0FC0130AF27AB898142
S11343E09A8184559D4F24E630E0FC0132AF21AF21
S11343F089819A8184559D4F2CE231E0FC0134AFD0
S113440023AF89819A8184559D4F22EC31E0FC01D0
S113441036AF25AF89819A8184559D4FCF9628E583
S113442032E0FC013183208389819A8184559D4F38
S11344308F5B9F4F20E130E0FC0131832083898131
S11344409A8184559D4F8D5B9F4FFC011082898119
S11344509A8184559D4F8C5B9F4F21E0FC01208302
S113446089819A8184559D4F8B5B9F4F24E0FC0189
S1134470208389819A8184559D4F8A5B9F4FFC01DB
S1134480108289819A8184559D4F895B9F4F25E0D5
S1134490FC01208389819A8184559D4F875B9F4FBE
S11344A0FC01108289819A8188509D4F9C018AE089
S11344B0E5EFF3E0D90101900D928A95E1F7898146
S11344C09A8188509D4F24E0FC0122AB89819A8116
S11344D08C5B9C4F9C018AE0EFEFF3E0D9010190E3
S11344E00D928A95E1F789819A818C5B9C4FFC013E
S11344F012AA89819A818C5B9C4F2CE830E0FC01E4
S113450034AB23AB89819A818C5B9C4F2AE030E0E9
S1134510FC0136AB25AB89819A818C5B9C4F22E3ED
S113452030E0FC0130AF27AB89819A818C5B9C4FD2
S113453026E930E0FC0132AF21AF89819A818C5B9E
S11345409C4F22EC31E0FC0134AF23AF89819A8186
S11345508C5B9C4F21E732E0FC0136AF25AF8981AB
S11345609A818C5B9C4FCF962EEE32E0FC01318316
S1134570208389819A818C5B9C4F8F5B9F4F24E1C0
S113458030E0FC013183208389819A818C5B9C4FCC
S11345908D5B9F4FFC01108289819A818C5B9C4FBB
S11345A08C5B9F4F22E0FC01208389819A818C5B84
S11345B09C4F8B5B9F4F25E0FC01208389819A816E
S11345C08C5B9C4F8A5B9F4FFC01108289819A818E
S11345D08C5B9C4F895B9F4F26E0FC012083898183
S11345E09A818C5B9C4F875B9F4FFC011082898171
S11345F09A8180579C4F9C0181E1E9E0F4E0D90164
S113460001900D928A95E1F789819A8180579C4F98
S113461026E0FC0122AB89819A8180579C4F26E9D0
S113462030E0FC0134AB23AB89819A8180579C4FE5
S11346308D5B9F4FFC01108289819A8180579C4F2A
S11346408C5B9F4F28E0FC01208389819A818057ED
S11346509C4F895B9F4F27E0FC01208389819A81CD
S113466080579C4F875B9F4FFC01108289819A8100
S113467084529C4F9C018AE0EAE1F4E0D901019064
S11346800D928A95E1F789819A8184529C4FFC01AD
S113469012AA89819A8184529C4F2CE830E0FC0153
S11346A034AB23AB89819A8184529C4F2AE030E059
S11346B0FC0136AB25AB89819A8184529C4F22E35D
S11346C030E0FC0130AF27AB89819A8184529C4F42
S11346D026E930E0FC0132AF21AF89819A8184520E
S11346E09C4F22EC31E0FC0134AF23AF89819A81E5
S11346F084529C4F21E732E0FC0136AF25AF89811B
S11347009A8184529C4FCF962EEE32E0FC01318385
S1134710208389819A8184529C4F8F5B9F4F24E12F
S113472030E0FC013183208389819A8184529C4F3B
S11347308D5B9F4FFC01108289819A8184529C4F2A
S11347408C5B9F4F22E0FC01208389819A818452F3
S11347509C4F8B5B9F4F26E0FC01208389819A81CB
S113476084529C4F8A5B9F4FFC01108289819A81FD
S113477084529C4F895B9F4F28E0FC0120838981F0
S11347809A8184529C4F875B9F4FFC0110828981E0
S11347909A81885D9B4F9C018AE0E4E2F4E0D901B0
S11347A001900D928A95E1F789819A81885D9B4FEA
S11347B0FC0112AA89819A81885D9B4F20EA30E02E
S11347C0FC0134AB23AB89819A81885D9B4F2CE03B
S11347D030E0FC0136AB25AB89819A81885D9B4F23
S11347E02CE330E0FC0130AF27AB89819A81885DEE
S11347F09B4F24EB30E0FC0132AF21AF89819A81D9
S1134800885D9B4F24EF31E0FC0134AF23AF8981F5
S11348109A81885D9B4F2CEB32E0FC0136AF25AFCB
S113482089819A81885D9B4FCF9624E833E0FC010F
S11348303183208389819A81885D9B4F8F5B9F4F51
S113484028E130E0FC013183208389819A81885DED
S11348509B4F8D5B9F4FFC01108289819A81885DFB
S11348609B4F8C5B9F4F22E0FC01208389819A81BE
S1134870885D9B4F8B5B9F4F27E0FC0120838981E0
S11348809A81885D9B4F8A5B9F4FFC0110828981CE
S11348909A81885D9B4F895B9F4F29E0FC012083AF
S11348A089819A81885D9B4F875B9F4FFC011082B1
S11348B089819A818C589B4F9C018CE0EEE2F4E054
S11348C0D90101900D928A95E1F789819A818C58DA
S11348D09B4F27E0FC0122AB89819A818C589B4F26
S11348E028EC30E0FC0134AB23AB89819A818C58ED
S11348F09B4F29E130E0FC0136AB25AB89819A81DD
S11349008C589B4F22E330E0FC0130AF27AB898108
S11349109A818C589B4F24E630E0FC0132AF21AFE2
S113492089819A818C589B4F28EC30E0FC0134AF8C
S113493023AF89819A818C589B4F8D5B9F4FFC01DB
S1134940108289819A818C589B4F8C5B9F4F28E001
S1134950FC01208389819A818C589B4F895B9F4FEE
S11349602AE0FC01208389819A818C589B4F875BC4
S11349709F4FFC01108289819A8180549B4F9C0136
S113498083E1EAE3F4E0D90101900D928A95E1F71D
S113499089819A8180549B4FFC0112AA89819A8152
S11349A080549B4F24EB30E0FC0134AB23AB898172
S11349B09A8180549B4F2EE030E0FC0136AB25AB4E
S11349C089819A8180549B4F26E430E0FC0130AF0A
S11349D027AB89819A8180549B4F28EC30E0FC01FD
S11349E032AF21AF89819A8180549B4F26E232E015
S11349F0FC0134AF23AF89819A8180549B4F2EEE02
S1134A0032E0FC0136AF25AF89819A8180549B4FF7
S1134A10CF9626EB33E0FC013183208389819A8190
S1134A2080549B4F8F5B9F4F2CE130E0FC0131831E
S1134A30208389819A8180549B4F8D5B9F4FFC0119
S1134A40108289819A8180549B4F8C5B9F4F23E015
S1134A50FC01208389819A8180549B4F8B5B9F4FFB
S1134A6028E0FC01208389819A8180549B4F8A5BD2
S1134A709F4FFC01108289819A8180549B4F895BEE
S1134A809F4F2BE0FC01208389819A8180549B4FA6
S1134A90875B9F4FFC01108289819A81845F9A4FC2
S1134AA09C0188E0EDE4F4E0D90101900D928A952F
S1134AB0E1F789819A81845F9A4F21E0FC0122AB5E
S1134AC089819A81885A9A4F9C0180E1E5E5F4E056
S1134AD0D90101900D928A95E1F789819A81885ACA
S1134AE09A4FFC0112AA89819A81885A9A4F24EB21
S1134AF030E0FC0134AB23AB89819A81885A9A4F08
S1134B002EE030E0FC0136AB25AB89819A81885ACE
S1134B109A4F26E430E0FC0130AF27AB89819A81BB
S1134B20885A9A4F28EC30E0FC0132AF21AF8981DA
S1134B309A81885A9A4F26E232E0FC0134AF23AFBF
S1134B4089819A81885A9A4F2EEE32E0FC0136AF61
S1134B5025AF89819A81885A9A4FCF9626EB33E004
S1134B60FC013183208389819A81885A9A4F8F5B13
S1134B709F4F2CE130E0FC013183208389819A81AD
S1134B80885A9A4F8D5B9F4FFC01108289819A81CC
S1134B90885A9A4F8C5B9F4F23E0FC0120838981C4
S1134BA09A81885A9A4F8B5B9F4F29E0FC0120839E
S1134BB089819A81885A9A4F8A5B9F4FFC0110829F
S1134BC089819A81885A9A4F895B9F4F2CE0FC0116
S1134BD0208389819A81885A9A4F875B9F4FFC0171
S1134BE0108289819A818C559A4F9C0181E1E5E676
S1134BF0F4E0D90101900D928A95E1F789819A81B7
S1134C008C559A4FFC0112AA89819A818C559A4F2E
S1134C1028EC30E0FC0134AB23AB89819A818C55BC
S1134C209A4F20E130E0FC0136AB25AB89819A81B3
S1134C308C559A4F20E530E0FC0130AF27AB8981D9
S1134C409A818C559A4F2CED30E0FC0132AF21AFA4
S1134C5089819A818C559A4F28E532E0FC0134AF62
S1134C6023AF89819A818C559A4F20E233E0FC016D
S1134C7036AF25AF89819A818C559A4FCF9628EE0D
S1134C8033E0FC013183208389819A818C559A4FCA
S1134C908F5B9F4F20E230E0FC01318320838981C8
S1134CA09A818C559A4F8D5B9F4FFC0110828981AC
S1134CB09A818C559A4F8C5B9F4F23E0FC01208393
S1134CC089819A818C559A4F8B5B9F4F2AE0FC0116
S1134CD0208389819A818C559A4F8A5B9F4FFC016E
S1134CE0108289819A818C559A4F895B9F4F2DE060
S1134CF0FC01208389819A818C559A4F875B9F4F51
S1134D00FC01108289819A8180519A4F9C018BE029
S1134D10E6E7F4E0D90101900D928A95E1F78981E3
S1134D209A8180519A4F23E0FC0122AB89819A81B8
S1134D30845C994F9C018CE1E1E8F4E0D901019095
S1134D400D928A95E1F789819A81845C994FFC01DF
S1134D5012AA89819A81845C994F2CED30E0FC0180
S1134D6034AB23AB89819A81845C994F22E130E092
S1134D70FC0136AB25AB89819A81845C994F2AE585
S1134D8030E0FC0130AF27AB89819A81845C994F74
S1134D902AEF30E0FC0132AF21AF89819A81845C33
S1134DA0994F2CEB32E0FC0134AF23AF89819A8117
S1134DB0845C994F2BE633E0FC0136AF25AF898143
S1134DC09A81845C994FCF962AE134E0FC013183C7
S1134DD0208389819A81845C994F8F5B9F4F24E261
S1134DE030E0FC013183208389819A81845C994F6E
S1134DF08D5B9F4FFC01108289819A81845C994F5D
S1134E008C5B9F4F24E0FC01208389819A81845C20
S1134E10994F8B5B9F4F2BE0FC01208389819A8102
S1134E20845C994F8A5B9F4FFC01108289819A812F
S1134E30845C994F895B9F4F2EE0FC01208389811C
S1134E409A81845C994F875B9F4FFC011082898112
S1134E509A818857994F9C0187E0E9EDF3E0D901E5
S1134E6001900D928A95E1F789819A818857994F2B
S1134E7021E0FC0122AB89819A818C52994F9C01DB
S1134E8087E1EDE9F4E0D90101900D928A95E1F70B
S1134E9089819A818C52994FFC0112AA89819A8145
S1134EA08C52994F2CED30E0FC0134AB23AB89815B
S1134EB09A818C52994F22E130E0FC0136AB25AB4C
S1134EC089819A818C52994F2AE530E0FC0130AFF8
S1134ED027AB89819A818C52994F2AEF30E0FC01EB
S1134EE032AF21AF89819A818C52994F2CEB32E0F9
S1134EF0FC0134AF23AF89819A818C52994F2BE600
S1134F0033E0FC0136AF25AF89819A818C52994FE9
S1134F10CF962AE134E0FC013183208389819A8190
S1134F208C52994F8F5B9F4F24E230E0FC01318318
S1134F30208389819A818C52994F8D5B9F4FFC010C
S1134F40108289819A818C52994F8C5B9F4F24E007
S1134F50FC01208389819A818C52994F8B5B9F4FEE
S1134F602CE0FC01208389819A818C52994F8A5BC1
S1134F709F4FFC01108289819A818C52994F895BE1
S1134F809F4F2FE0FC01208389819A818C52994F95
S1134F90875B9F4FFC01108289819A81805E984FC4
S1134FA09C0182E1E4EBF4E0D90101900D928A9531
S1134FB0E1F789819A81805E984FFC0112AA898168
S1134FC09A81805E984F20EF30E0FC0134AB23AB34
S1134FD089819A81805E984F24E130E0FC0136ABF0
S1134FE025AB89819A81805E984F24E630E0FC01EC
S1134FF030AF27AB89819A81805E984F2CE231E0F3
S1135000FC0132AF21AF89819A81805E984F2EEEE8
S113501032E0FC0134AF23AF89819A81805E984FDE
S11350202DE933E0FC0136AF25AF89819A81805E9A
S1135030984FCF962CE434E0FC013183208389819E
S11350409A81805E984F8F5B9F4F28E230E0FC018D
S11350503183208389819A81805E984F8D5B9F4F35
S1135060FC01108289819A81805E984F8C5B9F4FEE
S113507024E0FC01208389819A81805E984F8B5BB8
S11350809F4F2DE0FC01208389819A81805E984F97
S11350908A5B9F4FFC01108289819A81805E984FC0
S11350A0895B9F4F20E1FC01208389819A81805E86
S11350B0984F875B9F4FFC01108289819A818459A4
S11350C0984F9C018AE0E6ECF4E0D90101900D923E
S11350D08A95E1F789819A818459984F27E0FC01E8
S11350E022AB89819A818459984F28EC30E0FC01E5
S11350F034AB23AB89819A818459984F29E130E0FC
S1135100FC0136AB25AB89819A818459984F22E3FF
S113511030E0FC0130AF27AB89819A818459984FE4
S113512024E630E0FC0132AF21AF89819A818459B1
S1135130984F28EC30E0FC0134AF23AF89819A8189
S11351408459984F8D5B9F4FFC01108289819A810D
S11351508459984F8C5B9F4F28E0FC012083898100
S11351609A818459984F895B9F4F21E1FC012083E8
S113517089819A818459984F875B9F4FFC011082E3
S113518089819A818854984F9C0185E1E0EDF4E08F
S1135190D90101900D928A95E1F789819A81885409
S11351A0984FFC0112AA89819A818854984F24E06F
S11351B031E0FC0134AB23AB89819A818854984F48
S11351C026E130E0FC0136AB25AB89819A81885415
S11351D0984F2EE630E0FC0130AF27AB89819A81ED
S11351E08854984F2AE431E0FC0132AF21AF898121
S11351F09A818854984F20E233E0FC0134AF23AF06
S113520089819A818854984F2FEC33E0FC0136AFA2
S113521025AF89819A818854984FCF962EE734E040
S1135220FC013183208389819A818854984F8F5B54
S11352309F4F2CE230E0FC013183208389819A81E5
S11352408854984F8D5B9F4FFC01108289819A810D
S11352508854984F8C5B9F4F25E0FC012083898103
S11352609A818854984F8B5B9F4F2EE0FC012083DA
S113527089819A818854984F8A5B9F4FFC011082E0
S113528089819A818854984F895B9F4F22E1FC0160
S1135290208389819A818854984F875B9F4FFC01B2
S11352A0108289819A818C5F974F9C0182E1E5EE9F
S11352B0F4E0D90101900D928A95E1F789819A81F0
S11352C08C5F974FFC0112AA89819A818C5F974F5A
S11352D024E031E0FC0134AB23AB89819A818C5FFB
S11352E0974F26E130E0FC0136AB25AB89819A81EA
S11352F08C5F974F2EE630E0FC0130AF27AB8981FD
S11353009A818C5F974F2AE431E0FC0132AF21AFE0
S113531089819A818C5F974F20E233E0FC0134AF9E
S113532023AF89819A818C5F974F2FEC33E0FC0186
S113533036AF25AF89819A818C5F974FCF962EE740
S113534034E0FC013183208389819A818C5F974FFB
S11353508F5B9F4F2CE230E0FC01318320838981F5
S11353609A818C5F974F8D5B9F4FFC0110828981DE
S11353709A818C5F974F8C5B9F4F25E0FC012083C3
S113538089819A818C5F974F8B5B9F4F2FE0FC0143
S1135390208389819A818C5F974F8A5B9F4FFC01A0
S11353A0108289819A818C5F974F895B9F4F23E19B
S11353B0FC01208389819A818C5F974F875B9F4F83
S11353C0FC01108289819A81805B974F9C018BE05C
S11353D0E7EFF4E0D90101900D928A95E1F7898114
S11353E09A81805B974F26E0FC0122AB89819A81E8
S11353F0805B974F26E930E0FC0134AB23AB898115
S11354009A81805B974F8D5B9F4FFC01108289814D
S11354109A81805B974F8C5B9F4F28E0FC0120832F
S113542089819A81805B974F895B9F4F24E1FC01BE
S1135430208389819A81805B974F875B9F4FFC0112
S1135440108289819A818456974F9C0183E1E2E01E
S1135450F5E0D90101900D928A95E1F789819A814D
S11354608456974FFC0112AA89819A818456974FDA
S113547028E131E0FC0134AB23AB89819A81845665
S1135480974F28E130E0FC0136AB25AB89819A8146
S11354908456974F28E730E0FC0130AF27AB898171
S11354A09A818456974F28E631E0FC0132AF21AF50
S11354B089819A818456974F22E533E0FC0134AF09
S11354C023AF89819A818456974F21E034E0FC010F
S11354D036AF25AF89819A818456974FCF9620EBBA
S11354E034E0FC013183208389819A818456974F6B
S11354F08F5B9F4F20E330E0FC013183208389815F
S11355009A818456974F8D5B9F4FFC01108289814D
S11355109A818456974F8C5B9F4F25E0FC01208332
S113552089819A818456974F8B5B9F4F20E1FC01C0
S1135530208389819A818456974F8A5B9F4FFC010F
S1135540108289819A818456974F895B9F4F25E108
S1135550FC01208389819A818456974F875B9F4FF2
S1135560FC01108289819A818851974F9C0183E1C3
S1135570E5E1F5E0D90101900D928A95E1F7898181
S11355809A818851974F25E0FC0122AB89819A8149
S11355908C5C964F9C018DE1E8E2F5E0D901019025
S11355A00D928A95E1F789819A818C5C964FFC0172
S11355B012AA89819A818C5C964F2CE231E0FC011D
S11355C034AB23AB89819A818C5C964F2AE130E01D
S11355D0FC0136AB25AB89819A818C5C964F22E81D
S11355E030E0FC0130AF27AB89819A818C5C964F07
S11355F026E831E0FC0132AF21AF89819A818C5CCD
S1135600964F24E833E0FC0134AF23AF89819A81BB
S11356108C5C964F2CE434E0FC0136AF25AF8981D5
S11356209A818C5C964FCF962BEF34E0FC0131834A
S1135630208389819A818C5C964F8F5B9F4F24E3F2
S113564030E0FC013183208389819A818C5C964F00
S11356508D5B9F4FFC01108289819A818C5C964FEF
S11356608C5B9F4F26E0FC01208389819A818C5CAE
S1135670964F8B5B9F4F21E1FC01208389819A81A6
S11356808C5C964F8A5B9F4FFC01108289819A81C2
S11356908C5C964F895B9F4F26E1FC0120838981B6
S11356A09A818C5C964F875B9F4FFC0110828981A5
S11356B09A818058964F9C0188E1E5E4F5E0D90190
S11356C001900D928A95E1F789819A818058964FCD
S11356D0FC0112AA89819A818058964F2CE231E00C
S11356E0FC0134AB23AB89819A818058964F2AE11F
S11356F030E0FC0136AB25AB89819A818058964F06
S113570022E830E0FC0130AF27AB89819A818058D0
S1135710964F26E831E0FC0132AF21AF89819A81AE
S11357208058964F24E833E0FC0134AF23AF8981DD
S11357309A818058964F2CE434E0FC0136AF25AFB3
S113574089819A818058964FCF962BEF34E0FC01E3
S11357503183208389819A818058964F8F5B9F4F34
S113576024E330E0FC013183208389819A818058CD
S1135770964F8D5B9F4FFC01108289819A818058DE
S1135780964F8C5B9F4F26E0FC01208389819A8190
S11357908058964F8B5B9F4F22E1FC0120838981C7
S11357A09A818058964F8A5B9F4FFC0110828981B1
S11357B09A818058964F895B9F4F27E1FC01208393
S11357C089819A818058964F875B9F4FFC01108294
S11357D089819A818453964F9C0188E0EDE4F4E03A
S11357E0D90101900D928A95E1F789819A818453B8
S11357F0964F21E0FC0122AB89819A81885E954F06
S11358009C0189E1EDE5F5E0D90101900D928A95BD
S1135810E1F789819A81885E954FFC0112AA8981FA
S11358209A81885E954F20E431E0FC0134AB23ABD0
S113583089819A81885E954F2CE130E0FC0136AB7A
S113584025AB89819A81885E954F26E930E0FC0179
S113585030AF27AB89819A81885E954F22EC31E085
S1135860FC0132AF21AF89819A81885E954F28EE81
S113587033E0FC0134AF23AF89819A81885E954F70
S113588020EB34E0FC0136AF25AF89819A81885E34
S1135890954FCF9628E735E0FC0131832083898139
S11358A09A81885E954F8F5B9F4F28E330E0FC011F
S11358B03183208389819A81885E954F8D5B9F4FC8
S11358C0FC01108289819A81885E954F8C5B9F4F81
S11358D026E0FC01208389819A81885E954F8B5B49
S11358E09F4F23E1FC01208389819A81885E954F33
S11358F08A5B9F4FFC01108289819A81885E954F53
S1135900895B9F4F28E1FC01208389819A81885E0D
S1135910954F875B9F4FFC01108289819A818C5936
S1135920954F9C018EE0E6E7F5E0D90101900D92D8
S11359308A95E1F789819A818C59954F27E0FC017A
S113594022AB89819A818C59954F28EC30E0FC0177
S113595034AB23AB89819A818C59954F29E130E08E
S1135960FC0136AB25AB89819A818C59954F22E392
S113597030E0FC0130AF27AB89819A818C59954F77
S113598024E630E0FC0132AF21AF89819A818C5941
S1135990954F28EC30E0FC0134AF23AF89819A8124
S11359A08C59954F8D5B9F4FFC01108289819A81A0
S11359B08C59954F8C5B9F4F28E0FC012083898193
S11359C09A818C59954F895B9F4F29E1FC01208373
S11359D089819A818C59954F875B9F4FFC01108276
S11359E089819A818055954F9C0187E0E9EDF3E028
S11359F0D90101900D928A95E1F789819A818055A8
S1135A00954F21E0FC0122AB89819A818450954F06
S1135A109C018FE1E4E8F5E0D90101900D928A95AB
S1135A20E1F789819A818450954FFC0112AA8981FA
S1135A309A818450954F2EE531E0FC0134AB23ABC1
S1135A4089819A818450954F23E230E0FC0136AB82
S1135A5025AB89819A818450954F2FEA30E0FC016F
S1135A6030AF27AB89819A818450954F24EF31E080
S1135A70FC0132AF21AF89819A818450954F2CE487
S1135A8034E0FC0134AF23AF89819A818450954F6F
S1135A9024E135E0FC0136AF25AF89819A81845039
S1135AA0954FCF962CED35E0FC013183208389811D
S1135AB09A818450954F8F5B9F4F26E430E0FC0120
S1135AC03183208389819A818450954F8D5B9F4FC8
S1135AD0FC01108289819A818450954F8C5B9F4F81
S1135AE027E0FC01208389819A818450954F8B5B48
S1135AF09F4F24E1FC01208389819A818450954F32
S1135B008A5B9F4FFC01108289819A818450954F52
S1135B10895B9F4F2AE1FC01208389819A8184500B
S1135B20954F875B9F4FFC01108289819A81885B26
S1135B30944F9C0184E1E3EAF5E0D90101900D92D0
S1135B408A95E1F789819A81885B944F22E0FC0170
S1135B5022AB89819A81885B944F24E630E0FC0172
S1135B6034AB23AB89819A818C56944F9C018AE192
S1135B70E7EBF5E0D90101900D928A95E1F789816F
S1135B809A818C56944FFC0112AA89819A818C5671
S1135B90944F20E931E0FC0134AB23AB89819A8135
S1135BA08C56944F22E330E0FC0136AB25AB89815F
S1135BB09A818C56944F28EC30E0FC0130AF27AB2F
S1135BC089819A818C56944F28E532E0FC0132AFEA
S1135BD021AF89819A818C56944F28E735E0FC01E6
S1135BE034AF23AF89819A818C56944F24EA36E0EE
S1135BF0FC0136AF25AF89819A818C56944FCF969C
S1135C0020ED37E0FC013183208389819A818C5611
S1135C10944F8F5B9F4F24E630E0FC013183208357
S1135C2089819A818C56944F8D5B9F4FFC01108221
S1135C3089819A818C56944F8C5B9F4F27E0FC019D
S1135C40208389819A818C56944F8B5B9F4F25E1E9
S1135C50FC01208389819A818C56944F8A5B9F4FE3
S1135C60FC01108289819A818C56944F895B9F4FE5
S1135C702BE1FC01208389819A818C56944F875BA8
S1135C809F4FFC01108200000F900F90DF91CF9185
S1135C9008958CB581658CBD8DB581608DBD0895E9
S1135CA0E4ECF0E01182108230EC3093C20028E181
S1135CB02093C10090E091838083E4EDF0E01182B1
S1135CC010823093D2002093D10091838083E4E347
S1135CD0F1E01182108230933201209331019183DB
S1135CE080830895CF93C82FD4DF8C2FD9DFCF9131
