S01000004D6F6E6F706F6C792E73726563B7
S113000079C0000097C0000095C0000093C00000B4
S113001091C000008FC000008DC000008BC00000A4
S113002089C0000087C0000085C0000083C00000B4
S113003081C000007FC000007DC000007BC00000C4
S113004079C0000077C0000075C0000073C00000D4
S113005071C000006FC000006DC000006BC00000E4
S113006069C0000067C0000065C0000063C00000F4
S113007061C000005FC000005DC000005BC0000004
S113008059C0000057C0000055C0000053C0000014
S113009051C000004FC000004DC000004BC0000024
S11300A049C0000047C0000045C0000043C0000034
S11300B041C000003FC000003DC000003BC0000044
S11300C039C0000037C0000035C0000033C0000054
S11300D031C000002FC000002DC000002BC0000064
S11300E029C00000A409270EEA0A270EB10CF60C59
S11300F0FC0C830B11241FBECFEFD1E2DEBFCDBFBA
S113010000E00CBF15E0A0E0B2E0E4EFFDE700E0A2
S11301100BBF02C007900D92AA38B107D9F727E0A8
S1130120AAE8B5E001C01D92A83BB207E1F73ED1B1
S11301300C94F83E65CF98B19F7E98B998B19B7F97
S113014098B98BB998B1926098B98150833038F4DA
S11301508FE291E10197F1F700C0000003C090EA3B
S11301609A95F1F788B18D7F88B908951F93CF933D
S1130170DF93CDB7DEB729970FB6F894DEBF0FBE75
S1130180CDBF8FEF8AB987B988B1806288B92FEF64
S113019080E792E0215080409040E1F700C00000E9
S11301A088B18E7F88B989E0E1E1F2E0DE01119641
S11301B001900D928A95E1F710E00AC0E1E0F0E0C9
S11301C0EC0FFD1FE10FF11D808190E0B4DF1F5F94
S11301D01930A0F329960FB6F894DEBF0FBECDBF39
S11301E0DF91CF911F91089598B1906198B998B11A
S11301F09B7F98B98BB988B1826088B980EA8A9567
S1130200F1F788B18D7F88B9089581E094DF8FE993
S11302109FE00197F1F700C00000089582E08BCFC2
S11302200895417070E0660F771F6270282F30E0E8
S1130230220F331F220F331F2470842F862B822B0F
S1130240886079CF08950F931F93CF938A01282F45
S113025030E0285F3F4F862F90E1299F800D1124C5
S11302606ADFC0E002C0C0DFCF5FF801EC0FF11D10
S113027080818111F8CFCF911F910F910895CF9371
S1130280C42F282F30E0285F3F4F862F90E1299F0D
S1130290800D112450DF8C2FA7DFCF91089566DFE6
S11302A0B4DFBCDF40E060E081E0BBCF0895CF93D2
S11302B0DF931F921F92CDB7DEB79A83898389811A
S11302C09A81C5969C018AE0EAE1F2E0D9010190A5
S11302D00D928A95E1F789819A81C59627E534E0E4
S11302E0FC0133AB22AB89819A81C59628E2FC01DB
S11302F024AB89819A8186599F4F9C018AE0E4E26C
S1130300F2E0D90101900D928A95E1F789819A81F1
S113031086599F4F2EEA38E0FC0133AB22AB89812A
S11303209A8186599F4F28E2FC0124AB89819A81E6
S113033081569F4F9C018AE0EEE2F2E0D9010190E0
S11303400D928A95E1F789819A8181569F4F25E024
S11303503DE0FC0133AB22AB89819A8181569F4FEA
S113036028E2FC0124AB89819A818C529F4F9C0125
S11303708AE0E8E3F2E0D90101900D928A95E1F771
S113038089819A818C529F4F2CE531E1FC0133AB7A
S113039022AB89819A818C529F4F28E2FC0124ABC5
S11303A000000F900F90DF91CF9108950F931F934A
S11303B0CF93DF93CDB7DEB7C752DD400FB6F894C5
S11303C0DEBF0FBECDBF81E089831A8281E08B83BB
S11303D01C82CE0180589F4F22E0FC012083CE0175
S11303E080589F4F24E0FC012183CE0180589F4F09
S11303F020E2FC012283CE0180589F4F20E8FC01BB
S11304002383CE018C579F4F21E0FC012083CE0132
S11304108C579F4F28E0FC012183CE018C579F4FBE
S113042020E1FC012283CE018C579F4F20E4FC0184
S11304302383CE0188579F4F26E0FC01322F11926F
S11304403A95E9F71D821E821A8619A61D861E8614
S11304501F86188ACE0182579F4F28E0E4ECF3E010
S1130460DC0101900D922A95E1F7198ACE018A5692
S11304709F4F28E0FC01322F11923A95E9F71A8A2E
S11304801B8A1D8A1C8ACE0182569F4F2AE0FC01DA
S1130490322F11923A95E9F71F8A1E8A83E0888FDA
S11304A0198E0E941A24FBDECE0188559F4F0E94AC
S11304B0A72587E596E0FBDE80E895E20E94FB38FD
S11304C00E94F2150E945D2280E00E9474220E9424
S11304D0C43B809162079091630790936107809376
S11304E06007109263071092620789E091E0FC01B3
S11304F08081882F90E0382F222786E091E0FC014C
S11305008081882F90E0822B932B909363078093B4
S1130510620780916007909161079C012095309556
S113052080916207909163078223932390935406EA
S113053080935306809153069091540688279870AF
S1130540892B19F084E08093550680915506882FF5
S113055090E08230910509F4A8C3833091053CF4FE
S1130560009781F0019709F424C10C944F1483304F
S1130570910511F40C94330E049711F40C948B121E
S11305800C944F148E818823F9F442E452E060E025
S113059080E059DE41E552E061E081E054DE48E06C
S11305A060E081E06CDE4EE76FE081E068DE40E60B
S11305B052E060E082E047DE8091040267E576E085
S11305C00E94811D81E08E83809153069091540690
S11305D088279072892B91F180910402833070F105
S11305E08091040281508093040280910402882F38
S11305F090E0292F2F938F9380E792E0892F8F9398
S113060080E792E08F93CE0180599F4F292F2F933B
S11306108F930E94CF3B0F900F900F900F900F90ED
S11306200F90CE0180599F4FAC0163E081E00BDE57
S11306308091040267E576E00E94811D8091530653
S11306409091540688279074892B91F1809104022B
S1130650843070F5809104028F5F8093040280914E
S11306600402882F90E0292F2F938F9380E792E044
S1130670892F8F9380E792E08F93CE0180599F4F0B
S1130680292F2F938F930E94CF3B0F900F900F90A1
S11306900F900F900F90CE0180599F4FAC0163E0F3
S11306A081E0D1DD8091040267E576E00E94811D3E
S11306B0809153069091540688279071892B11F4E8
S11306C00C94481481E08A8F2EC08A8D282F30E044
S11306D045E3429FC001439F900D11248757994FD2
S11306E0FC01118210828A8D282F30E045E3429F5D
S11306F0C001439F900D11248557994FFC0110822E
S11307008A8D282F30E045E3429FC001439F900D1E
S113071011248557994FFC0180816A8D0E94B51878
S11307208A8D8F5F8A8F809104029A8D891768F66B
S11307308091040267E576E00E94811D43E752E060
S113074060E080E080DD80910402882F90E0292F12
S11307502F938F9380E792E0892F8F9380E792E025
S11307608F93CE0180599F4F292F2F938F930E94EF
S1130770CF3B0F900F900F900F900F900F90CE01E2
S113078080599F4FAC0164E080E05DDD44E852E0B5
S113079060E081E058DD45E952E060E082E053DD4D
S11307A0809104020E946F2481E0809355060C948A
S11307B0481481E08B8F09C04AE06B8D8CED95E085
S11307C00E94331B8B8D8F5F8B8F809104029B8DD6
S11307D0891790F781E08C8F54C146EA52E060E0BB
S11307E080E031DD8C8D882F90E0292F2F938F931B
S11307F080E792E0892F8F9380E792E08F93CE0178
S113080080599F4F292F2F938F930E94CF3B0F9096
S11308100F900F900F900F900F90CE0180599F4F23
S1130820AC016BE080E00FDD47EB52E060E081E07B
S11308300ADD47EC52E060E082E005DD66C08091AD
S11308406207909163079093610780936007109209
S113085063071092620789E091E0FC018081882F90
S113086090E0382F222786E091E0FC018081882FD8
S113087090E0822B932B909363078093620780917F
S11308806007909161079C012095309580916207E3
S11308909091630782239323909354068093530685
S11308A0809153069091540688279170892B59F0B2
S11308B08885882341F44985688581E00E94E21D8A
S11308C081E0888712C0809153069091540688274E
S11308D09270892B51F08985882339F4498568857C
S11308E082E00E94E21D81E089878885882329F0BF
S11308F08A85882311F482E08A878985882329F0F0
S11309008A85882311F481E08A878885882309F4FD
S113091096CF8985882309F492CF8C8D282F30E0D7
S113092080914C06482F50E080914D06882F90E02E
S1130930840F951FAC0165E3629FC001639F900D16
S113094011248757994FFC01518340838C8D282FA4
S113095030E045E3429FC001439F900D1124875727
S1130960994FFC01208131818D81482F50E065E34E
S1130970649FC001659F900D11248757994FFC0116
S1130980808191812817390709F04FC08A85882F03
S113099090E00197845B994FFC018081823098F04C
S11309A08A85882F90E001972A85222F30E02150F4
S11309B03109245B394FF90120812150845B994F1F
S11309C0FC01208312C08A85882F90E001972A8534
S11309D0222F30E021503109245B394FF901208165
S11309E02F5F845B994FFC0120838C8D282F30E08E
S11309F080914C06482F50E080914D06882F90E05E
S1130A00840F951FAC0165E3629FC001639F900D45
S1130A1011248757994FFC015183408390914D06CF
S1130A2080914C06692F0E945F208C8D282F30E026
S1130A3045E3429FC001439F900D11248757994F6E
S1130A40FC01208131818D81482F50E065E3649F52
S1130A50C001659F900D11248757994FFC01808137
S1130A6091818217930710F48C8D8D8318861986D3
S1130A701A8667E576E08C8D0E94811D8C8D8F5FD0
S1130A808C8F809104029C8D891708F0A6CE8D81ED
S1130A90898380E090E0AAE7B4E48AAF9BAFACAF6F
S1130AA0BDAF8E01025C1F4F20E030E04AE755E401
S1130AB06AAD7BAD8CAD9DAD0E94CD3ADC01CB011E
S1130AC0F80180839183A283B383CE01CE9620E084
S1130AD030E040E85FE3FC016081718182819381B1
S1130AE00E947F3988234CF4CE018E5B9F4F21E016
S1130AF030E0FC013183208367C0CE01CE9620E034
S1130B003FEF4FE757E4FC0160817181828193815B
S1130B100E94C93A18160CF046C020E030E040E2CA
S1130B2051E46AAD7BAD8CAD9DAD0E94CD3ADC0144
S1130B30CB018E010E5B1F4FBC01CD010E94EB392E
S1130B40DC01CB01F8019183808324C0CE018C5B4E
S1130B509F4F20E931E0FC0131832083CE018C5B7F
S1130B609F4FFC01808191810197F1F79E012C5BDD
S1130B703F4FF90191838083CE018E5B9F4F9E018D
S1130B802E5B3F4FF9012081318121503109FC0155
S1130B9031832083CE018E5B9F4FFC018081918144
S1130BA0892BA1F62BC08E010E5B1F4FCE01CE9672
S1130BB0FC0160817181828193810E94EB39DC01A7
S1130BC0CB01F80191838083CE018A5B9F4F9E0104
S1130BD02E5B3F4FF90120813181FC013183208359
S1130BE0CE018A5B9F4FFC01808191810197F1F7CF
S1130BF09E012A5B3F4FF9019183808381E08D8FB1
S1130C0013C08D8D282F30E045E3429FC001439FE0
S1130C10900D11248757994F2CED35E0FC01318359
S1130C2020838D8D8F5F8D8F809104029D8D891718
S1130C3040F78091040267E576E00E94811D48ED4B
S1130C4052E060E080E0FFDA8981882F90E0292F6C
S1130C502F938F9380E792E0892F8F9380E792E020
S1130C608F93CE0180599F4F292F2F938F930E94EA
S1130C70CF3B0F900F900F900F900F900F90CE01DD
S1130C8080599F4FAC016BE080E0DDDA49EE52E021
S1130C9060E081E0D8DA49EF52E060E082E0D3DA44
S1130CA082E0809355060C944F148C85882319F4A4
S1130CB088898823A1F1A9DA48ED52E060E080E058
S1130CC0C2DA8981882F90E0292F2F938F9380E7B0
S1130CD092E0892F8F9380E792E08F93CE01805921
S1130CE09F4F292F2F938F930E94CF3B0F900F90EC
S1130CF00F900F900F900F90CE0180599F4FAC0131
S1130D006BE080E0A0DA49EE52E060E081E09BDA3B
S1130D1049EF52E060E082E096DA1C86188A8091FE
S1130D2053069091540688279470892B09F47DC04A
S1130D308F81882309F479C06AE08AE00E945F20E9
S1130D40909104028981692F0E94303B892F8F5F23
S1130D50898348ED52E060E080E075DA8981882F6C
S1130D6090E0292F2F938F9380E792E0892F8F9320
S1130D7080E792E08F93CE0180599F4F292F2F93C4
S1130D808F930E94CF3B0F900F900F900F900F9076
S1130D900F90CE0180599F4FAC016BE080E053DA95
S1130DA049EE52E060E081E04EDA49EF52E060E063
S1130DB082E049DA1F821B8688E290E028E230E074
S1130DC0F90120812F73FC0120831D861F868981F0
S1130DD0282F30E045E3429FC001439F900D11242A
S1130DE08557994FFC018081482F50E09E0128557A
S1130DF03F4F60E5649FC001659F900D1124820FF1
S1130E00931FC296FC018081888F888D843069F499
S1130E108981882F90E0825B994FFC01808188232F
S1130E2021F081E0898F81E08F8380915306909136
S1130E30540688279470892B59F08B81882341F4B8
S1130E406AE08AE00E945F2081E08B831B861F8614
S1130E508F81882309F057C28B81882309F453C2F8
S1130E6056C08091620790916307909361078093C5
S1130E706007109263071092620789E091E0FC0119
S1130E808081882F90E0382F222786E091E0FC01B2
S1130E908081882F90E0822B932B9093630780931B
S1130EA0620780916007909161079C0120953095BD
S1130EB08091620790916307822393239093540651
S1130EC0809353068091530690915406882791701D
S1130ED0892B59F08885882341F44985688581E008
S1130EE00E94E21D81E0888712C080915306909190
S1130EF0540688279270892B51F08985882339F408
S1130F004985688582E00E94E21D81E089878885A1
S1130F10882309F4A6CF8985882309F4A2CF909168
S1130F204C0680914D06981709F040C01B828A81B7
S1130F308F5F8A83188619868A81882F90E0823091
S1130F40910579F083309105B1F0019791F588E22C
S1130F5090E028E230E0F90120812064FC01208344
S1130F6028C088E290E028E230E0F901208120687E
S1130F70FC0120831EC088E290E028E230E0F90101
S1130F8020812F73FC01208310924C0610924D0691
S1130F90188619861A8281E08B8381E08F83898188
S1130FA00E94C12284E0888F000003C081E08F8307
S1130FB01A828981282F30E045E3429FC001439F74
S1130FC0900D11248557994FFC018081282F30E022
S1130FD080914C06482F50E080914D06882F90E078
S1130FE0840F951F820F931F88972CF18981482FB6
S1130FF050E08981282F30E065E3629FC001639F40
S1131000900D11248757994FFC01808191819C0197
S113101028533F4F65E3649FC001659F900D1124E1
S11310208757994FFC01318320838091040267E53F
S113103076E00E94811D8981282F30E045E3429F9C
S1131040C001439F900D11248557994FFC01808165
S11310508E8FCDC09E8D8DEC989F812D112482950D
S11310608695877028E2829F802D1124F92FF81B22
S11310708F2F69810E94B51880E090E0A8ECB2E45B
S11310808AA79BA7ACA7BDA78E01085B1F4F20E0D2
S113109030E04AE755E46AA57BA58CA59DA50E948E
S11310A0CD3ADC01CB01F80180839183A283B38321
S11310B0CE01885B9F4F20E030E040E85FE3FC0115
S11310C060817181828193810E947F3988234CF4ED
S11310D0CE01845B9F4F21E030E0FC01318320830B
S11310E069C0CE01885B9F4F20E03FEF4FE757E494
S11310F0FC0160817181828193810E94C93A181632
S11311000CF046C020E030E040E251E46AA57BA543
S11311108CA59DA50E94CD3ADC01CB018E01045B18
S11311201F4FBC01CD010E94EB39DC01CB01F8015A
S11311309183808324C0CE01825B9F4F20E931E0FC
S1131140FC0131832083CE01825B9F4FFC018081AF
S113115091810197F1F79E01225B3F4FF901918341
S11311608083CE01845B9F4F9E01245B3F4FF90136
S11311702081318121503109FC0131832083CE014A
S1131180845B9F4FFC0180819181892BA1F62CC047
S11311908E01045B1F4FCE01885B9F4FFC01608171
S11311A07181828193810E94EB39DC01CB01F801CA
S11311B091838083CE01805B9F4F9E01245B3F4FD0
S11311C0F90120813181FC0131832083CE01805BD0
S11311D09F4FFC01808191810197F1F79E01205B73
S11311E03F4FF901918380838E8D8F5F8E8F8E8D1B
S11311F0282F30E08981482F50E065E3649FC001C7
S1131200659F900D11248557994FFC018081482FCB
S113121050E080914C06682F70E080914D06882F35
S113122090E0860F971F840F951F281739070CF439
S113123011CF8981282F30E08981482F50E065E360
S1131240649FC001659F900D11248557994FFC013F
S11312508081482F50E080914C06682F70E0809187
S11312604D06882F90E0860F971F840F951F48E244
S113127050E0BA010E943C3B582F45E3429FC00115
S1131280439F900D11248557994FFC015083898108
S1131290282F30E045E3429FC001439F900D112465
S11312A08557994FFC01808169810E94B518898115
S11312B0282F30E045E3429FC001439F900D112445
S11312C08557994FFC018081482F50E09E01285595
S11312D03F4F60E5649FC001659F900D1124820F0C
S11312E0931FC296FC018081888F8981282F30E06A
S11312F045E3429FC001439F900D11248557994FA8
S1131300FC0180818C83188619868091040267E52C
S113131076E00E94811D888D882F90E0092E000CB4
S1131320AA0BBB0B40E050E027E030E0841B950B98
S11313302817390710F40C944B14FC018827EE5835
S1131340FF4F8F4F0C944F3B8B85882389F58C81FD
S1131350482F50E09E0128553F4F60E5649FC0012F
S1131360659F900D1124820F931F8D5B9F4FFC018D
S113137080818823E9F4CE0188559F4F4981BC01BF
S11313808C810E94511489A789A5882F90E081300F
S1131390910519F0029721F00BC081E08B8708C0FA
S11313A081E08B8781E08F8783E08093550600007E
S11313B08C81482F50E09E0128553F4F60E5649F83
S11313C0C001659F900D1124820F931F8D5B9F4F69
S11313D0FC018081882309F43CC48C81482F50E0AF
S11313E09E0128553F4F60E5649FC001659F900DA5
S11313F01124820F931F8D5B9F4FFC019081898183
S1131400981709F426C48F85813009F422C4188AF8
S11314108D85882309F0B8C08C81482F50E09E0147
S113142028553F4F60E5649FC001659F900D1124CE
S1131430820F931F8D5B9F4FFC0180818E878C816F
S1131440682F70E08C81482F50E09E0128553F4F53
S1131450E0E5E49FC001E59F900D1124820F931FE6
S1131460865B9F4FFC018081882F90E09E01285568
S11314703F4FE8E2E69FA001E79F500D1124840F3F
S1131480951F880F991F820F931FC596FC018081B9
S113149091819D8B8C8B48ED52E060E080E00E944E
S11314A023018981882F90E0292F2F938F9380E740
S11314B092E0892F8F9380E792E08F93CE01805939
S11314C09F4F292F2F938F930E94CF3B0F900F9004
S11314D00F900F900F900F90CE0180599F4FAC0149
S11314E06BE080E00E9423014AE053E060E081E089
S11314F00E9423018D898F938C898F9380E792E0DA
S1131500892F8F9380E792E08F93CE0180599F4F6C
S1131510292F2F938F930E94CF3B0F900F900F9002
S11315200F900F900F90CE0180599F4FAC016AE04D
S113153081E00E9423014BE153E060E082E00E94DD
S113154023018E85882F90E0292F2F938F9380E796
S113155092E0892F8F9380E792E08F93CE01805998
S11315609F4F292F2F938F930E94CF3B0F900F9063
S11315700F900F900F900F90CE0180599F4FAC01A8
S11315806BE082E00E9423018981882F90E001971B
S11315909E0120583F4F820F931FFC018081282F0A
S11315A030E0809153069091540682239323892B33
S11315B009F44FC38C899D89AC016E8589810E9491
S11315C001388F878F85813009F043C31D8681E000
S11315D0888B3FC38F85813009F43DC3188A8D857C
S11315E0882309F06AC08C81482F50E09E01285559
S11315F03F4F60E5649FC001659F900D1124820FE9
S1131600931FC396FC01808191819D8B8C8B48ED47
S113161052E060E080E00E9423018981882F90E0FD
S1131620292F2F938F9380E792E0892F8F9380E760
S113163092E08F93CE0180599F4F292F2F938F9340
S11316400E94CF3B0F900F900F900F900F900F9030
S1131650CE0180599F4FAC016BE080E00E942301D2
S11316604AE053E060E081E00E9423018D898F937A
S11316708C898F9380E792E0892F8F9380E792E0A3
S11316808F93CE0180599F4F292F2F938F930E94C0
S1131690CF3B0F900F900F900F900F900F90CE01B3
S11316A080599F4FAC016AE081E00E9423014CE223
S11316B053E060E082E00E9423018981882F90E05A
S11316C001979E0120583F4F820F931FFC01808198
S11316D0282F30E08091530690915406822393235F
S11316E0892B09F4B8C28C899D89AC0160E0898199
S11316F00E9401388F878F85813009F0ACC21D8626
S113170081E0888BA8C28B85882389F58C81482F3A
S113171050E09E0128553F4F60E5649FC001659FDE
S1131720900D1124820F931F8D5B9F4FFC018081CC
S11317308823E9F4CE0188559F4F4981BC018C81EF
S11317400E94511489A789A5882F90E081309105C2
S113175019F0029721F00BC081E08B8708C081E06B
S11317608B8781E08F8783E08093550600008C810E
S1131770482F50E09E0128553F4F60E5649FC0010B
S1131780659F900D1124820F931F8D5B9F4FFC0169
S11317908081882309F461C28C81482F50E09E0126
S11317A028553F4F60E5649FC001659F900D11244B
S11317B0820F931F8D5B9F4FFC0190818981981745
S11317C009F44BC28F85813009F447C2188A8D858C
S11317D0882309F0A0C08C81482F50E09E01285531
S11317E03F4F60E5649FC001659F900D1124820FF7
S11317F0931F8D5B9F4FFC0180818E878C81482FC6
S113180050E09E0128553F4F60E5649FC001659FED
S1131810900D1124820F931FC596FC018081918144
S11318209D8B8C8B48ED52E060E080E00E942301A8
S11318308981882F90E0292F2F938F9380E792E05E
S1131840892F8F9380E792E08F93CE0180599F4F29
S1131850292F2F938F930E94CF3B0F900F900F90BF
S11318600F900F900F90CE0180599F4FAC016BE009
S113187080E00E9423014AE053E060E081E00E949E
S113188023018D898F938C898F9380E792E0892F30
S11318908F9380E792E08F93CE0180599F4F292F39
S11318A02F938F930E94CF3B0F900F900F900F9028
S11318B00F900F90CE0180599F4FAC016AE081E0F8
S11318C00E9423014BE153E060E082E00E94230187
S11318D08E85882F90E0292F2F938F9380E792E0B5
S11318E0892F8F9380E792E08F93CE0180599F4F89
S11318F0292F2F938F930E94CF3B0F900F900F901F
S11319000F900F900F90CE0180599F4FAC016BE068
S113191082E00E9423018981882F90E001979E0133
S113192020583F4F820F931FFC018081282F30E005
S1131930809153069091540682239323892B09F4B2
S11319408CC18C899D89AC016E8589810E94013886
S11319508F878F85813009F080C11D8681E0888B57
S11319607CC18981882F90E0825B994FFC01808142
S1131970882309F474C1898D882309F470C148ED62
S113198052E060E080E00E9423018981882F90E08A
S1131990292F2F938F9380E792E0892F8F9380E7ED
S11319A092E08F93CE0180599F4F292F2F938F93CD
S11319B00E94CF3B0F900F900F900F900F900F90BD
S11319C0CE0180599F4FAC016BE080E00E9423015F
S11319D04DE353E060E081E00E9423014EE453E0D4
S11319E060E082E00E942301198E39C189810E943E
S11319F0C12284E0888F36C18B85882381F58C8150
S1131A00482F50E09E0128553F4F60E5649FC00178
S1131A10659F900D1124820F931F8D5B9F4FFC01D6
S1131A2080818823E1F4CE0188559F4F4981BC0110
S1131A308C8137D789A789A5882F90E081309105BB
S1131A4019F0029721F00BC081E08B8708C081E078
S1131A508B8781E08F8783E08093550600008C811B
S1131A60482F50E09E0128553F4F60E5649FC00118
S1131A70659F900D1124820F931F8D5B9F4FFC0176
S1131A808081882309F4EDC08C81482F50E09E01A9
S1131A9028553F4F60E5649FC001659F900D112458
S1131AA0820F931F8D5B9F4FFC0190818981981752
S1131AB009F4D7C08F85813009F4D3C0188A8D8585
S1131AC0882309F0A0C08C81482F50E09E0128553E
S1131AD03F4F60E5649FC001659F900D1124820F04
S1131AE0931F8D5B9F4FFC0180818E878C81482FD3
S1131AF050E09E0128553F4F60E5649FC001659FFB
S1131B00900D1124820F931FC396FC018081918153
S1131B109D8B8C8B48ED52E060E080E00E942301B5
S1131B208981882F90E0292F2F938F9380E792E06B
S1131B30892F8F9380E792E08F93CE0180599F4F36
S1131B40292F2F938F930E94CF3B0F900F900F90CC
S1131B500F900F900F90CE0180599F4FAC016BE016
S1131B6080E00E9423014AE053E060E081E00E94AB
S1131B7023018D898F938C898F9380E792E0892F3D
S1131B808F9380E792E08F93CE0180599F4F292F46
S1131B902F938F930E94CF3B0F900F900F900F9035
S1131BA00F900F90CE0180599F4FAC016AE081E005
S1131BB00E9423014BE153E060E082E00E94230194
S1131BC08E85882F90E0292F2F938F9380E792E0C2
S1131BD0892F8F9380E792E08F93CE0180599F4F96
S1131BE0292F2F938F930E94CF3B0F900F900F902C
S1131BF00F900F900F90CE0180599F4FAC016BE076
S1131C0082E00E9423018981882F90E001979E0140
S1131C1020583F4F820F931FFC018081282F30E012
S1131C20809153069091540682239323892BC9F003
S1131C308C899D89AC016E8589810E9401388F87CA
S1131C408F85813071F41D8681E0888B0AC0000085
S1131C5022C6000020C600001EC600001CC60000EC
S1131C601AC6000018C68D85882309F053C00E9447
S1131C7005014FE553E060E080E00E9423018C8180
S1131C80482F50E09E0128553F4F60E5649FC001F6
S1131C90659F900D1124820F931FAC0160E081E0D9
S1131CA00E94230140E753E060E082E00E942301A8
S1131CB089E090E09F8B8E8B81E08D8781E08F8F10
S1131CC024C08F8D882F90E02F8D422F50E065E344
S1131CD0649F9001659F300D11242757394FF901F6
S1131CE020813181AE0142565F4F880F991F840FC6
S1131CF0951FFC013183208340E06F8D80E090E0EC
S1131D000E94331B8F8D8F5F8F8F809104029F8D74
S1131D108917B8F618A29AC088A1882F90E09E016E
S1131D2020583F4F820F931FFC018081282F30E001
S1131D30809153069091540682239323892B09F4AE
S1131D404BC088A1882F90E09E0128573F4F820FF7
S1131D50931FFC018081882309F03EC088A1882F4D
S1131D6090E09C012F5F3F4F45E3429FC001439F9A
S1131D70900D11248757994FFC01208131818E8960
S1131D809F8901968217930738F58E899F8901965A
S1131D909F8B8E8B81E089A309C040E069A180E01C
S1131DA090E00E94331B89A18F5F89A38091040274
S1131DB099A1891790F788A121E0280F8E899F891E
S1131DC041E0622F0E94331B88A121E0280FCE013D
S1131DD088579F4FFC01258388A1882F90E09E019E
S1131DE02C573F4F820F931FFC018081282F30E036
S1131DF0809153069091540682239323892B19F1E1
S1131E0088A1882F90E09E0128573F4F820F931F8F
S1131E10FC0180818823B9F488A1882F90E09E0179
S1131E2028573F4F820F931F21E0FC012083CE01EE
S1131E3088579F4FFC01848121E0280FCE018857E9
S1131E409F4FFC01248388A18F5F88A380910402A3
S1131E5098A1981708F460CFCE0188579F4FFC01D2
S1131E60948180910402981709F018C5CE0188570F
S1131E709F4FFC018581882309F442C20E94050119
S1131E8080E090E0A0E2B1E48EAB9FABA8AFB9AF25
S1131E908E01045A1F4F20E030E04AE755E46EA952
S1131EA07FA988AD99AD0E94CD3ADC01CB01F80140
S1131EB080839183A283B383CE01845A9F4F20E011
S1131EC030E040E85FE3FC016081718182819381AD
S1131ED00E947F3988234CF4CE01805A9F4F21E021
S1131EE030E0FC013183208369C0CE01845A9F4FC6
S1131EF020E03FEF4FE757E4FC016081718182816C
S1131F0093810E94C93A18160CF046C020E030E0D4
S1131F1040E251E46EA97FA988AD99AD0E94CD3A03
S1131F20DC01CB018E01005A1F4FBC01CD010E9480
S1131F30EB39DC01CB01F8019183808324C0CE010D
S1131F408E599F4F20E931E0FC0131832083CE017B
S1131F508E599F4FFC01808191810197F1F79E0179
S1131F602E593F4FF90191838083CE01805A9F4FB0
S1131F709E01205A3F4FF9012081318121503109BE
S1131F80FC0131832083CE01805A9F4FFC01808164
S1131F909181892BA1F62CC08E01005A1F4FCE01CE
S1131FA0845A9F4FFC0160817181828193810E94D8
S1131FB0EB39DC01CB01F80191838083CE018C598C
S1131FC09F4F9E01205A3F4FF90120813181FC012E
S1131FD031832083CE018C599F4FFC0180819181F4
S1131FE00197F1F79E012C593F4FF90191838083AA
S1131FF041E853E060E080E00E94230148ED52E0B4
S113200060E081E00E942301CE0188579F4FFC01CC
S11320108581882F90E0292F2F938F9380E792E07A
S1132020892F8F9380E792E08F93CE0180599F4F41
S1132030292F2F938F930E94CF3B0F900F900F90D7
S11320400F900F900F90CE0180599F4FAC016BE021
S113205081E00E94230180E090E0AAE7B5E48EA726
S11320609FA7A8ABB9AB8E010E5A1F4F20E030E0FA
S11320704AE755E46EA57FA588A999A90E94CD3A9F
S1132080DC01CB01F80180839183A283B383CE0169
S11320908E5A9F4F20E030E040E85FE3FC0160810E
S11320A07181828193810E947F3988234CF4CE010F
S11320B08A5A9F4F21E030E0FC013183208369C0BC
S11320C0CE018E5A9F4F20E03FEF4FE757E4FC01CB
S11320D060817181828193810E94C93A18160CF043
S11320E046C020E030E040E251E46EA57FA588A917
S11320F099A90E94CD3ADC01CB018E010A5A1F4FE7
S1132100BC01CD010E94EB39DC01CB01F8019183C4
S1132110808324C0CE01885A9F4F20E931E0FC011E
S113212031832083CE01885A9F4FFC0180819181A5
S11321300197F1F79E01285A3F4FF901918380835B
S1132140CE018A5A9F4F9E012A5A3F4FF90120819E
S1132150318121503109FC0131832083CE018A5A17
S11321609F4FFC0180819181892BA1F62CC08E01A7
S11321700A5A1F4FCE018E5A9F4FFC016081718114
S1132180828193810E94EB39DC01CB01F8019183B8
S11321908083CE01865A9F4F9E012A5A3F4FF901F0
S11321A020813181FC0131832083CE01865A9F4FE7
S11321B0FC01808191810197F1F79E01265A3F4FDE
S11321C0F9019183808381E08AA31EC08AA1482FEC
S11321D050E08AA1882F90E09E0122563F4F880F3D
S11321E0991F820F931FFC012081318165E3649F55
S11321F0C001659F900D11248757994FFC013183CD
S113220020838AA18F5F8AA3809104029AA18917EF
S1132210E8F68091040267E576E00E94811DCE0114
S113222088579F4FFC018581482F50E0CE01885785
S11322309F4FFC018581282F30E065E3629FC00138
S1132240639F900D11248757994FFC0120813181A0
S11322508E899F89281B390B65E3649FC001659FA4
S1132260900D11248757994FFC01318320838C8171
S1132270482F50E0CE0188579F4FFC0165819E0195
S113228028553F4F70E5749FC001759F900D112430
S1132290820F931F8D5B9F4FFC016083CE01885793
S11322A09F4FFC0175818C81482F50E09E01285579
S11322B03F4F60E5649FC001659F900D1124820F1C
S11322C0931F855B9F4FFC018081672FDED61BA285
S11322D00DC08BA1882F90E09E0128573F4F820F9D
S11322E0931FFC0110828BA18F5F8BA38BA186307F
S11322F080F31D8681E08C8782E080935506CEC2F0
S11323000E94050142E953E060E080E00E9423015D
S113231042EA53E060E081E00E94230180E090E023
S1132320AAE7B5E48AAB9BABACABBDAB8E010A5953
S11323301F4F20E030E04AE755E46AA97BA98CA945
S11323409DA90E94CD3ADC01CB01F80180839183E1
S1132350A283B383CE018A599F4F20E030E040E846
S11323605FE3FC0160817181828193810E947F39E6
S113237088234CF4CE0186599F4F21E030E0FC01C4
S11323803183208369C0CE018A599F4F20E03FEFFB
S11323904FE757E4FC0160817181828193810E943F
S11323A0C93A18160CF046C020E030E040E251E48F
S11323B06AA97BA98CA99DA90E94CD3ADC01CB0115
S11323C08E0106591F4FBC01CD010E94EB39DC017F
S11323D0CB01F8019183808324C0CE0184599F4F9F
S11323E020E931E0FC0131832083CE0184599F4FE1
S11323F0FC01808191810197F1F79E0124593F4F9F
S1132400F90191838083CE0186599F4F9E012659FD
S11324103F4FF9012081318121503109FC01318381
S11324202083CE0186599F4FFC0180819181892BA5
S1132430A1F62CC08E0106591F4FCE018A599F4F19
S1132440FC0160817181828193810E94EB39DC01FE
S1132450CB01F80191838083CE0182599F4F9E0165
S113246026593F4FF90120813181FC0131832083BA
S1132470CE0182599F4FFC01808191810197F1F730
S11324809E0122593F4FF9019183808381E08CA3FF
S11324901EC08CA1482F50E08CA1882F90E09E0193
S11324A022563F4F880F991F820F931FFC012081F2
S11324B0318165E3649FC001659F900D11248757A6
S11324C0994FFC01318320838CA18F5F8CA3809171
S11324D004029CA18917E8F68091040267E576E07E
S11324E00E94811D1DA20DC08DA1882F90E09E0128
S11324F028573F4F820F931FFC0110828DA18F5FDD
S11325008DA38DA1863080F31D8681E08C8782E0C7
S113251080935506C3C11EA20EC08EA1882F90E0E1
S11325209E012A563F4F820F931F21E0FC01208316
S11325308EA18F5F8EA38EA1883078F31FA269C10C
S113254081E0898B8FA1882F90E09E0122573F4F15
S1132550820F931FFC018081482F50E09E01285573
S11325603F4F60E5649FC001659F900D1124820F69
S1132570931F8D5B9F4FFC0190818981981709F00F
S113258045C118A64BC08FA1882F90E09E01225709
S11325903F4F820F931FFC018081682F70E088A554
S11325A0882F90E0AE0148555F4FE0E5E69F90012B
S11325B0E79F300D1124240F351F820F931F8B5B6F
S11325C09F4FFC018081482F50E09E0128553F4FCA
S11325D060E5649FC001659F900D1124820F931FD5
S11325E08D5B9F4FFC01908181E0992309F080E08D
S11325F0282F30E08981882F90E02817390759F473
S1132600198A8FA1882F90E09E012A563F4F820F8E
S1132610931FFC01108288A58F5F88A788A583304B
S113262008F4B1CF8989882309F4F0C01D868FA1ED
S1132630882F90E09E0122573F4F820F931FFC0189
S113264080818B8BDCC080916207909163079093AB
S1132650610780936007109263071092620789E014
S113266091E0FC018081882F90E0382F222786E0BA
S113267091E0FC018081882F90E0822B932B909332
S113268063078093620780916007909161079C01C2
S1132690209530958091620790916307822393235C
S11326A090935406809353068D858823E9F40E9401
S11326B0050143EB53E060E080E00E9423018B8935
S11326C0482F50E09E0128553F4F60E5649FC001AC
S11326D0659F900D1124820F931FAC0160E081E08F
S11326E00E94230181E08D878091530690915406C6
S11326F088279071892B09F44EC08B89482F50E0AC
S11327009E0128553F4F60E5649FC001659F900D71
S11327101124820F931F865B9F4FFC01808171E01F
S1132720780F8B89482F50E09E0128553F4F60E574
S1132730649FC001659F900D1124820F931F875BD6
S11327409F4FFC018081672F85D28B89482F50E0F1
S11327508B89682F70E09E0128553F4FE0E5E69F86
S1132760C001E79F900D1124820F931F865B9F4F3A
S1132770FC01808161E0680F9E0128553F4F70E5A0
S1132780749FC001759F900D1124820F931F865B67
S11327909F4FFC01608380915306909154068827D3
S11327A09074892B61F18A89882F90E0019623E047
S11327B030E0B9010E943C3B8A8B8FA1882F90E0C6
S11327C09E0122573F4F820F931FFC018081682F87
S11327D070E08A89882F90E0AE0148555F4FE0E5AC
S11327E0E69F9001E79F300D1124240F351F820FBF
S11327F0931F8B5B9F4FFC0180818B8B1D86809187
S113280053069091540699230CF01DCF8FA18F5F2E
S11328108FA38FA1883008F493CE0E94050148ED60
S113282052E060E080E00E9423018981882F90E0DB
S1132830292F2F938F9380E792E0892F8F9380E73E
S113284092E08F93CE0180599F4F292F2F938F931E
S11328500E94CF3B0F900F900F900F900F900F900E
S1132860CE0180599F4FAC016BE080E00E942301B0
S113287049EE52E060E081E00E94230149EF52E01A
S113288060E082E00E94230182E08093550607C045
S113289000000C94690200000C94690200000C947E
S11328A06902CF93DF93CDB7DEB7A3970FB6F89441
S11328B0DEBF0FBECDBF88A37AA369A34BA3198241
S11328C080915606882309F0B6C00E94050180E075
S11328D090E0A8ECB2E48A839B83AC83BD8320E0C0
S11328E030E04AE755E46A817B818C819D810E94B6
S11328F0CD3ADC01CB018E839F83A887B98720E082
S113290030E040E85FE36E817F81888599850E948D
S11329107F3988232CF481E090E09B878A873FC02D
S113292020E03FEF4FE757E46E817F8188859985EA
S11329300E94C93A18164CF520E030E040E251E418
S11329406A817B818C819D810E94CD3ADC01CB011F
S1132950BC01CD010E94EB39DC01CB019B878A8746
S11329600FC080E991E09D878C878C859D850197B8
S1132970F1F79D878C878A859B8501979B878A873A
S11329808A859B85892B69F714C06E817F81888530
S113299099850E94EB39DC01CB019B878A878A8564
S11329A09B859F878E878E859F850197F1F79F87EB
S11329B08E8748ED52E060E080E00E9423018BA105
S11329C0882F90E0292F2F938F9380E792E0892F0F
S11329D08F9380E792E08F93CE014096292F2F9317
S11329E08F930E94CF3B0F900F900F900F900F90FA
S11329F00F90CE014096AC016BE080E00E94230171
S1132A0088A1282F30E040E5429FC001439F900DEC
S1132A10112429A13AA1820F931FAC0160E081E047
S1132A200E9423014CEC53E060E082E00E94230109
S1132A3081E080935606809153069091540688272E
S1132A409074892B09F4B4C08BA1282F30E045E39E
S1132A50429FC001439F900D11248757994FFC0159
S1132A602081318188A1482F50E060E5649FC00136
S1132A70659F900D112449A15AA1840F951FFC0153
S1132A8083A994A92817390708F4A2C08BA1482F59
S1132A9050E08BA1282F30E065E3629FC001639F63
S1132AA0900D11248757994FFC012081318188A111
S1132AB0682F70E0E0E5E69FC001E79F900D1124C8
S1132AC069A17AA1860F971FFC0183A994A9281BE9
S1132AD0390B65E3649FC001659F900D11248757EE
S1132AE0994FFC013183208388A1282F30E040E5F1
S1132AF0429FC001439F900D112429A13AA1820F46
S1132B00931F8D5B9F4F2BA1FC01208388A1282F4D
S1132B1030E040E5429FC001439F900D112429A15C
S1132B203AA1820F931F855B9F4FFC0180816BA1AB
S1132B30ACD28091040267E576E0E3D70E940501F8
S1132B4048ED52E060E080E00E9423018BA1882FD1
S1132B5090E0292F2F938F9380E792E0892F8F9312
S1132B6080E792E08F93CE014096292F2F938F9385
S1132B700E94CF3B0F900F900F900F900F900F90EB
S1132B80CE014096AC016BE080E00E94230149EE47
S1132B9052E060E081E00E94230149EF52E060E0EE
S1132BA082E00E94230181E089831092560610C0BE
S1132BB0809153069091540688279072892B41F096
S1132BC06AE082E30E94E92282E089831092560639
S1132BD08981A3960FB6F894DEBF0FBECDBFDF91F7
S1132BE0CF910895CF93DF931F921F92CDB7DEB795
S1132BF08AE895E01FD161E088E2B7D262E088E21A
S1132C00B4D263E088E2B1D264E088E2AED2198241
S1132C1006C060E0898139D289818F5F8983898187
S1132C208C31B8F381E08A8308C04AE06A8180E08D
S1132C3090E019D58A818F5F8A838A818530A8F3D1
S1132C406AE08AE00E945F2000000F900F90DF91FD
S1132C50CF910895CF93DF9300D000D0CDB7DEB7E6
S1132C608D836E8319829D81892F880F880F890F28
S1132C708A838A818695869586958B838A818770D7
S1132C808C838E81853019F480E1898310C08E8114
S1132C90882F90E025E030E0281B390B80EE9FEF71
S1132CA002C0969587952A95E2F7809589838C8151
S1132CB0843008F47CC08B81882F90E02B81222FF4
S1132CC030E026573A4FD9012C91622F2C81422FA4
S1132CD050E02FE130E002C0220F331F4A95E2F7A3
S1132CE02095262386579A4FFC0120838B81882FB9
S1132CF090E001962B81222F30E02F5F3F4F265723
S1132D003A4FD9012C91622F2C81222F30E048E0D8
S1132D1050E0421B530B20EE3FEF02C03595279540
S1132D204A95E2F7262386579A4FFC0120838B812C
S1132D30882F90E02B81222F30E026573A4FD9017B
S1132D402C91622F2981222F30E04C81442F50E0B6
S1132D5002C0220F331F4A95E2F7262B86579A4F5B
S1132D60FC0120838B81882F90E001962B81222FF8
S1132D7030E02F5F3F4F26573A4FD9012C91E22F75
S1132D802981222F30E04C81442F50E068E070E02C
S1132D90DB01A41BB50BAD0102C0359527954A95FF
S1132DA0E2F72E2B86579A4FFC01208336C08B8185
S1132DB0882F90E02B81222F30E026573A4FD901FB
S1132DC02C91622F2C81422F50E02FE130E002C081
S1132DD0220F331F4A95E2F72095262386579A4FF0
S1132DE0FC0120838B81882F90E02B81222F30E0FF
S1132DF026573A4FD9012C91622F2981222F30E096
S1132E004C81442F50E002C0220F331F4A95E2F751
S1132E10262B86579A4FFC0120838AE895E00AD036
S1132E20000026960FB6F894DEBF0FBECDBFDF912B
S1132E30CF910895CF92DF92EF92FF92CF93DF93D9
S1132E40CDB7DEB7A0970FB6F894DEBF0FBECDBFE7
S1132E5098A38F8F1A821982F4C08981882F90E0F9
S1132E602EE030E0A901481B590BCA019C018F8D4B
S1132E7098A1820F931FFC0180818A836A8180E07C
S1132E800E94333980E090E0AAEFB3E48B839C8303
S1132E90AD83BE832BEA3AEA4AEA50E46B817C8133
S1132EA08D819E810E94CD3ADC01CB018F8398876E
S1132EB0A987BA8720E030E040E850E46B817C8148
S1132EC08D819E810E94CD3ADC01CB018B879C874A
S1132ED0AD87BE8720E030E040E85FE36F8178850E
S1132EE089859A850E947F3988230CF4A1C020E04B
S1132EF03FEF4FE757E46B857C858D859E850E9467
S1132F00C93A18160CF06DC020E030E04AE754E4EA
S1132F106B817C818D819E810E948339DC01CB0190
S1132F206C017D0120E030E04AE755E4C701B601B9
S1132F300E94CD3ADC01CB018F87988BA98BBA8B89
S1132F4020E030E040E85FE36F85788989899A89D9
S1132F500E947F398823D4F120E03FEF4FE757E404
S1132F606F85788989899A890E94C93A18161CF54F
S1132F7020E030E040E251E4C701B6010E94CD3ABE
S1132F80DC01CB01BC01CD010E94EB39DC01CB019A
S1132F909C8B8B8B0BC080E991E00197F1F79E8BA2
S1132FA08D8B8B899C8901979C8B8B8B8B899C89BE
S1132FB0892B89F73FC06F85788989899A890E940E
S1132FC0EB39DC01CB019C8B8B8B04C081E090E05E
S1132FD09C8B8B8B8B899C890197F1F7988F8F8BB6
S1132FE029C020E030E04FE753E46F81788589857C
S1132FF09A850E94C93A18168CF46B857C858D8558
S11330009E850E94EB39DC01CB019A8F898F898DD3
S11330109A8D0197F1F79C8F8B8F10C06F81788503
S113302089859A850E94EB39DC01CB018D8F02C022
S113303081E08D8F8D8D8A95F1F78E8F89818F5FD9
S1133040898389818F3008F408CF8EE290E02EE2E4
S113305030E0F90120812860FC0120838EE290E0B9
S11330602EE230E0F9012081277FFC01208300005B
S1133070A0960FB6F894DEBF0FBECDBFDF91CF91FF
S1133080FF90EF90DF90CF900895CF93DF9300D01F
S113309000D0CDB7DEB78D836E831B828E81882FDF
S11330A090E082309105B9F0833091052CF40097BB
S11330B049F0019759F021C08330910599F00497A4
S11330C0B9F01BC019821A821B8217C082E389835C
S11330D01A821B8212C08EE1898382E38A8383E091
S11330E08B830BC082E3898384E18A831B8205C0BE
S11330F019821A8282E38B8300008D81882F90E0ED
S11331009C01220F331F280F391F2C59384F498136
S1133110F90140839C01220F331F280F391F2B59BB
S1133120384F4A81F90140839C01220F331F280F35
S1133130391FC9018A59984F2B81FC0120831C82B5
S113314007C084E697E00E9447398C818F5F8C83A7
S11331508C818C31B0F3000026960FB6F894DEBF54
S11331600FBECDBFDF91CF910895CF92DF92EF9242
S1133170FF92CF93DF93CDB7DEB7A5970FB6F89440
S1133180DEBF0FBECDBF8CA36DA31C821D828DA19B
S1133190882F90E00197885C994FFC018081882FEB
S11331A090E0880F991F880F991F99230CF40796B4
S11331B09595879595958795959587958E838DA1FA
S11331C0882F90E00197885C994FFC018081880FDB
S11331D0880F84708F838DA194D18D838E81282F45
S11331E030E08F81482F50E08DA1882F90E0019727
S11331F0480F591F8D81082E000C990B840F951FC1
S1133200220F331F220F331F220F331F820F931FEE
S113321088569A4FFC0110828DA1882F90E0019767
S1133220885C994F2CA1FC0120838CA1882F90E00D
S1133230880F991F880F991F99230CF40796959569
S1133240879595958795959587958E838CA1880FFD
S1133250880F84708F838DA154D18D838E81282F04
S113326030E08F81482F50E08DA1882F90E00197A6
S1133270480F591F8D81082E000C990B840F951F40
S1133280220F331F220F331F220F331F820F931F6E
S113329088569A4F21E0FC01208319821A820DC1BD
S11332A019821B8225C08981880F89838A81882F8E
S11332B090E024E130E0281B390B8B81882F90E0CB
S11332C047E050E0BA01681B790BCB01220F331F92
S11332D0220F331F220F331F820F931F88569A4FDA
S11332E0FC0180819981892B89838B818F5F8B83FA
S11332F08B818830C0F289810E94023980E090E09D
S1133300AAEFB3E488879987AA87BB872BEA3AEAAE
S11333104AEA50E4688579858A859B850E94CD3A7E
S1133320DC01CB018C879D87AE87BF8720E030E02E
S113333040E850E4688579858A859B850E94CD3A6A
S1133340DC01CB01888B998BAA8BBB8B20E030E00E
S113335040E85FE36C857D858E859F850E947F397B
S113336088230CF4A1C020E03FEF4FE757E46889BD
S113337079898A899B890E94C93A18160CF06DC014
S113338020E030E04AE754E4688579858A859B85A6
S11333900E948339DC01CB016C017D0120E030E027
S11333A04AE755E4C701B6010E94CD3ADC01CB01DE
S11333B08C8B9D8BAE8BBF8B20E030E040E85FE3CD
S11333C06C897D898E899F890E947F398823D4F1F5
S11333D020E03FEF4FE757E46C897D898E899F8910
S11333E00E94C93A18161CF520E030E040E251E48E
S11333F0C701B6010E94CD3ADC01CB01BC01CD016D
S11334000E94EB39DC01CB01998F888F0BC080E9D6
S113341091E00197F1F79B8F8A8F888D998D0197A1
S1133420998F888F888D998D892B89F73FC06C89F6
S11334307D898E899F890E94EB39DC01CB01998FAC
S1133440888F04C081E090E0998F888F888D998D52
S11334500197F1F79D8F8C8F29C020E030E04FE772
S113346053E46C857D858E859F850E94C93A181624
S11334708CF4688979898A899B890E94EB39DC01FB
S1133480CB019F8F8E8F8E8D9F8D0197F1F799A31E
S113349088A310C06C857D858E859F850E94EB393D
S11334A0DC01CB018AA302C081E08AA38AA18A95A8
S11334B0F1F78BA38A818F5F8A838A81853108F42F
S11334C0EFCE85E290E025E230E0F9012081206131
S11334D0FC01208385E290E025E230E0F9012081BF
S11334E02F7EFC0120830000A5960FB6F894DEBF62
S11334F00FBECDBFDF91CF91FF90EF90DF90CF90C3
S11335000895CF93DF931F921F92CDB7DEB78A83BE
S113351019828A81882F90E00197885C994FFC0179
S113352080818A3010F4198298C08A81882F90E0B3
S11335300197885C994FFC0180818A3048F18A8127
S1133540882F90E00197885C994FFC018081843139
S1133550F8F48A81882F90E08230910579F08330E5
S113356091051CF4019739F078C08330910549F036
S1133570049751F072C081E0898309C082E0898395
S113358006C08EEF898303C08FEF8983000065C076
S11335908A81882F90E00197885C994FFC01808193
S11335A0843148F18A81882F90E00197885C994F93
S11335B0FC0180818E31F8F48A81882F90E082307A
S11335C0910579F0833091051CF4019739F045C0D9
S11335D08330910549F0049751F03FC083E089831B
S11335E009C081E0898306C08FEF898303C08DEF12
S11335F08983000032C08A81882F90E00197885C1B
S1133600994FFC0180818E3140F18A81882F90E0AE
S11336100197885C994FFC0180818832F0F48A819B
S1133620882F90E08230910579F0833091051CF465
S1133630019739F012C08330910549F0049751F095
S11336400CC082E0898309C08FEF898306C081E0C2
S1133650898303C08EEF8983000089810F900F90C6
S1133660DF91CF910895CF92DF92EF92FF92CF93A3
S1133670DF93CDB7DEB7A6970FB6F894DEBF0FBEC3
S1133680CDBF9CA38BA36DA34EA31A828BA19CA137
S11336909695879596958795969587959C01A5EC23
S11336A0B0E20E94573BAC01529542954F704527BA
S11336B05F7045279A01ADECBCEC0E94573B969590
S11336C087959695879596958795880F991F9C0160
S11336D0220F331F220F331F820F931F9A01281BBF
S11336E0390BC9018B838BA19CA1969587959695DF
S11336F087959C01ABE7B4E10E94573BAC0156951A
S113370047959A01ADECBCEC0E94573B9695879582
S11337109695879596958795880F991F9C01220FFA
S1133720331F220F331F820F931FFA01E81BF90B7B
S1133730CF018C838BA19CA19C01ADECBCEC0E94BD
S1133740573BAC01569547955695479556954795E1
S11337509A01ADECBCEC0E94573B969587959695E3
S1133760879596958795880F991F9C01220F331F83
S1133770220F331F820F931F9A01281B390BC90193
S11337808D834BA15CA19A01ADECBCEC0E94573B2C
S1133790969587959695879596958795880F991F01
S11337A09C01220F331F220F331F820F931FFA0134
S11337B0E81BF90BCF018E838EA1882309F450C036
S11337C08DA1882F90E00197880F991F880F991F6A
S11337D02B81222F30E02B5F3D4FF9012081845C47
S11337E0994FFC0120838DA1882F90E00197880FC9
S11337F0991F880F991F01962C81222F30E02B5F8F
S11338003D4FF9012081845C994FFC0120838DA1F7
S1133810882F90E00197880F991F880F991F0296AF
S11338202D81222F30E02B5F3D4FF9012081845CF4
S1133830994FFC0120838DA1882F90E00197880F78
S1133840991F880F991F03962E81222F30E02B5F3A
S11338503D4FF9012081845C994FFC0120833BC0DA
S11338608DA1882F90E00197880F991F880F991FC9
S113387020910F02845C994FFC0120838DA1882F35
S113388090E00197880F991F880F991F0196209146
S11338900F02845C994FFC0120838DA1882F90E056
S11338A00197880F991F880F991F029620910F0284
S11338B0845C994FFC0120838DA1882F90E00197AF
S11338C0880F991F880F991F039620910F02845C1B
S11338D0994FFC0120831982F0C08981882F90E0E0
S11338E020E130E0A901481B590BCA01845C994FBF
S11338F0FC018081682F82E00E94333980E090E0EF
S1133900AAEFB3E48F839887A987BA872BEA3AEAA8
S11339104AEA50E46F81788589859A850E94CD3A78
S1133920DC01CB018B879C87AD87BE8720E030E02C
S113393040E850E46F81788589859A850E94CD3A64
S1133940DC01CB018F87988BA98BBA8B20E030E008
S113395040E85FE36B857C858D859E850E947F3979
S113396088230CF4A1C020E03FEF4FE757E46F85B4
S1133970788989899A890E94C93A18160CF06DC011
S113398020E030E04AE754E46F81788589859A85A0
S11339900E948339DC01CB016C017D0120E030E021
S11339A04AE755E4C701B6010E94CD3ADC01CB01D8
S11339B08B8B9C8BAD8BBE8B20E030E040E85FE3CB
S11339C06B897C898D899E890E947F398823D4F1F3
S11339D020E03FEF4FE757E46B897C898D899E890E
S11339E00E94C93A18161CF520E030E040E251E488
S11339F0C701B6010E94CD3ADC01CB01BC01CD0167
S1133A000E94EB39DC01CB01988F8F8B0BC080E9CE
S1133A1091E00197F1F79A8F898F8F89988D01979B
S1133A20988F8F8B8F89988D892B89F73FC06B89ED
S1133A307C898D899E890E94EB39DC01CB01988FAA
S1133A408F8B04C081E090E0988F8F8B8F89988D45
S1133A500197F1F79C8F8B8F29C020E030E04FE76E
S1133A6053E46B857C858D859E850E94C93A181622
S1133A708CF46F85788989899A890E94EB39DC01F5
S1133A80CB019E8F8D8F8D8D9E8D0197F1F798A31D
S1133A908F8F10C06B857C858D859E850E94EB3948
S1133AA0DC01CB0189A302C081E089A389A18A95A5
S1133AB0F1F78AA389818F5F89838981813108F431
S1133AC00CCF82E091E022E031E0F901208128600E
S1133AD0FC01208382E091E022E031E0F9012081C1
S1133AE0277FFC0120830000A6960FB6F894DEBF62
S1133AF00FBECDBFDF91CF91FF90EF90DF90CF90BD
S1133B000895CF93DF9300D01F921F92CDB7DEB7F5
S1133B108B837D836C8381E0898316C08981282F00
S1133B2030E045E3429FC001439F900D11242C8156
S1133B303D81820F931FFC0182A993A941E0698111
S1133B4092DD89818F5F898399818B81891730F711
S1133B508B818F5F8A8316C08A81282F30E045E3EA
S1133B60429FC001439F900D11242C813D81820FFF
S1133B70931FFC0182A993A940E06A8174DD8A81C4
S1133B808F5F8A838A81853038F300000F900F900D
S1133B900F900F900F90DF91CF910895CF93DF9303
S1133BA01F92CDB7DEB719820E94C13B26E030E0F8
S1133BB0B9010E943C3B8F5F898389810F90DF911B
S1133BC0CF910895CF93DF93CDB7DEB7C154D10918
S1133BD00FB6F894DEBF0FBECDBF8FAFCE01805CB1
S1133BE09F4FFC016083CE018F5B9F4FFC0140839C
S1133BF08AE08A838FAD813009F093C0CE018F5B58
S1133C009F4FFC018081882309F48BC01B8281C0F3
S1133C10C5DF898380914D06682F898150D28B81BD
S1133C20882F90E0880F991F0F96092E000CAA0B7D
S1133C30BB0BBC01CD010E94193ADC01CB018B8B7B
S1133C409C8BAD8BBE8B20E030E04AE755E46B895A
S1133C507C898D899E890E94CD3ADC01CB018F8BB2
S1133C60988FA98FBA8F20E030E040E85FE36F8936
S1133C70788D898D9A8D0E947F3988230CF43CC0FD
S1133C8020E03FEF4FE757E46F89788D898D9A8D57
S1133C900E94C93A18162CF520E030E040E251E4C5
S1133CA06B897C898D899E890E94CD3ADC01CB0188
S1133CB0BC01CD010E94EB39DC01CB019C8F8B8FC1
S1133CC00BC080E991E00197F1F79E8F8D8F8B8D6A
S1133CD09C8D01979C8F8B8F8B8D9C8D892B89F765
S1133CE015C06F89788D898D9A8D0E94EB39DC011E
S1133CF0CB019C8F8B8F04C081E090E09C8F8B8FD5
S1133D008B8D9C8D0197F1F798A38F8F8B818F5F9B
S1133D108B838B81823308F47BCF898180934C061B
S1133D20C3C18FAD813009F091C0CE018F5B9F4F2D
S1133D30FC018081882309F089C01C827FC02EDFAA
S1133D4089836AE08981BBD18C81882F90E0880FB8
S1133D50991F0F96092E000CAA0BBB0BBC01CD01B9
S1133D600E94193ADC01CB018F839887A987BA870F
S1133D7020E030E04AE755E46F81788589859A85AB
S1133D800E94CD3ADC01CB0189A39AA3ABA3BCA3C7
S1133D9020E030E040E85FE369A17AA18BA19CA117
S1133DA00E947F3988230CF43CC020E03FEF4FE7AA
S1133DB057E469A17AA18BA19CA10E94C93A181663
S1133DC02CF520E030E040E251E46F81788589856C
S1133DD09A850E94CD3ADC01CB01BC01CD010E9441
S1133DE0EB39DC01CB019EA38DA30BC080E991E0EC
S1133DF00197F1F798A78FA38DA19EA101979EA388
S1133E008DA38DA19EA1892B89F715C069A17AA1E3
S1133E108BA19CA10E94EB39DC01CB019EA38DA355
S1133E2004C081E090E09EA38DA38DA19EA1019783
S1133E30F1F79AA789A78C818F5F8C838C81893154
S1133E4008F47DCF898180934C062EC18FAD8230DA
S1133E5009F095C0CE01805C9F4FFC0180818823CE
S1133E6009F48DC01D8283C099DE8A8380914C063B
S1133E706A8125D18D81282F30E0C901880F991FCF
S1133E80820F931F0F96092E000CAA0BBB0BBC01CB
S1133E90CD010E94193ADC01CB018B879C87AD8749
S1133EA0BE8720E030E04AE755E46B857C858D854C
S1133EB09E850E94CD3ADC01CB018BA79CA7ADA7C0
S1133EC0BEA720E030E040E85FE36BA57CA58DA5AC
S1133ED09EA50E947F3988230CF43CC020E03FEF6C
S1133EE04FE757E46BA57CA58DA59EA50E94C93A12
S1133EF018162CF520E030E040E251E46B857C8517
S1133F008D859E850E94CD3ADC01CB01BC01CD019B
S1133F100E94EB39DC01CB0198AB8FA70BC080E981
S1133F2091E00197F1F79AAB89AB8FA598A9019716
S1133F3098AB8FA78FA598A9892B89F715C06BA576
S1133F407CA58DA59EA50E94EB39DC01CB0198AB25
S1133F508FA704C081E090E098AB8FA78FA598A9A4
S1133F600197F1F79CAB8BAB8D818F5F8D838D8136
S1133F70893108F479CF8A8180934D0695C08FAD3D
S1133F80823009F091C0CE01805C9F4FFC0180819A
S1133F90882309F089C01E827FC000DE8A836A817B
S1133FA08AE08DD08E81882F90E0880F991F0F961C
S1133FB0092E000CAA0BBB0BBC01CD010E94193ABF
S1133FC0DC01CB018F87988BA98BBA8B20E030E082
S1133FD04AE755E46F85788989899A890E94CD3AA0
S1133FE0DC01CB018DAB9EABAFABB8AF20E030E0D2
S1133FF040E85FE36DA97EA98FA998AD0E947F393F
S113400088230CF43CC020E03FEF4FE757E46DA950
S11340107EA98FA998AD0E94C93A18162CF520E004
S113402030E040E251E46F85788989899A890E9459
S1134030CD3ADC01CB01BC01CD010E94EB39DC019E
S1134040CB019AAF89AF0BC080E991E00197F1F7FA
S11340509CAF8BAF89AD9AAD01979AAF89AF89AD0B
S11340609AAD892B89F715C06DA97EA98FA998AD42
S11340700E94EB39DC01CB019AAF89AF04C081E027
S113408090E09AAF89AF89AD9AAD0197F1F79EAFF1
S11340908DAF8E818F5F8E838E81823308F47DCFC6
S11340A08A8180934D0600C00000CF5BDF4F0FB6BE
S11340B0F894DEBF0FBECDBFDF91CF910895CF92AC
S11340C0DF92EF92FF92CF93DF93CDB7DEB7EA97FB
S11340D00FB6F894DEBF0FBECDBF89AF6AAF8AAD0D
S11340E0882F90E08B5F9D4FFC018081682F83E0D7
S11340F00E94333980E090E0AAEFB3E489839A8385
S1134100AB83BC832BEA3AEA4AEA50E469817A81B8
S11341108B819C810E94CD3ADC01CB0189A39AA3B7
S1134120ABA3BCA320E030E040E850E469817A818D
S11341308B819C810E94CD3ADC01CB018DA39EA38F
S1134140AFA3B8A720E030E040E85FE369A17AA11B
S11341508BA19CA10E947F3988230CF4A1C020E08C
S11341603FEF4FE757E46DA17EA18FA198A50E9470
S1134170C93A18160CF06DC020E030E04AE754E468
S113418069817A818B819C810E948339DC01CB0116
S11341906C017D0120E030E04AE755E4C701B60137
S11341A00E94CD3ADC01CB0189A79AA7ABA7BCA793
S11341B020E030E040E85FE369A57AA58BA59CA5E3
S11341C00E947F398823D4F120E03FEF4FE757E482
S11341D069A57AA58BA59CA50E94C93A18161CF559
S11341E020E030E040E251E4C701B6010E94CD3A3C
S11341F0DC01CB01BC01CD010E94EB39DC01CB0118
S11342009EA78DA70BC080E991E00197F1F798ABC9
S11342108FA78DA59EA501979EA78DA78DA59EA569
S1134220892B89F73FC069A57AA58BA59CA50E9417
S1134230EB39DC01CB019EA78DA704C081E090E09F
S11342409EA78DA78DA59EA50197F1F79AAB89AB83
S113425029C020E030E04FE753E469A17AA18BA1A3
S11342609CA10E94C93A18168CF46DA17EA18FA15D
S113427098A50E94EB39DC01CB019CAB8BAB8BA9DD
S11342809CA90197F1F79EAB8DAB10C069A17AA1EF
S11342908BA19CA10E94EB39DC01CB018FAB02C046
S11342A081E08FAB8FA98A95F1F788AF89AD882F0C
S11342B090E08B5F9D4FFC018081682F83E00E941A
S11342C0333980E090E0AAEFB3E48D839E83AF831B
S11342D0B8872BEA3AEA4AEA50E46D817E818F81FD
S11342E098850E94CD3ADC01CB0189879A87AB87F8
S11342F0BC8720E030E040E850E46D817E818F810E
S113430098850E94CD3ADC01CB018D879E87AF87CB
S1134310B88B20E030E040E85FE369857A858B85DF
S11343209C850E947F3988230CF4A1C020E03FEFD4
S11343304FE757E46D857E858F8598890E94C93A39
S113434018160CF06DC020E030E04AE754E46D81AB
S11343507E818F8198850E948339DC01CB016C01B9
S11343607D0120E030E04AE755E4C701B6010E9430
S1134370CD3ADC01CB01898B9A8BAB8BBC8B20E0D3
S113438030E040E85FE369897A898B899C890E94DF
S11343907F398823D4F120E03FEF4FE757E4698960
S11343A07A898B899C890E94C93A18161CF520E0E9
S11343B030E040E251E4C701B6010E94CD3ADC018D
S11343C0CB01BC01CD010E94EB39DC01CB019E8BFA
S11343D08D8B0BC080E991E00197F1F7988F8F8B5B
S11343E08D899E8901979E8B8D8B8D899E89892BC2
S11343F089F73FC069897A898B899C890E94EB3946
S1134400DC01CB019E8B8D8B04C081E090E09E8B00
S11344108D8B8D899E890197F1F79A8F898F29C099
S113442020E030E04FE753E469857A858B859C85ED
S11344300E94C93A18168CF46D857E858F859889FB
S11344400E94EB39DC01CB019C8F8B8F8B8D9C8D73
S11344500197F1F79E8F8D8F10C069857A858B85C2
S11344609C850E94EB39DC01CB018F8F02C081E077
S11344708F8F8F8D8A95F1F788A385E091E025E0F1
S113448031E0F90120812860FC01208385E091E07E
S113449025E031E0F9012081277FFC012083000021
S11344A0EA960FB6F894DEBF0FBECDBFDF91CF9171
S11344B0FF90EF90DF90CF900895CF93DF93CDB727
S11344C0DEB78CE790E020E4FC0120838EE790E0E7
S11344D02FE0FC0120838AE790E027E8FC01208399
S11344E00000DF91CF910895CF93DF931F92CDB752
S11344F0DEB789838CE790E02CE730E0F901208176
S1134500207FFC0120838CE790E02CE730E0F90168
S11345102081322F29812770232BFC0120838BE7F4
S113452090E02BE730E0F9012081277FFC01208314
S11345308BE790E02BE730E0F9012081322F2981CD
S11345402870232BFC0120838AE790E02AE730E0DF
S1134550F90120812064FC01208300008AE790E0B7
S1134560FC018081882F90E080749927892BB1F712
S113457088E790E0FC01808191810F90DF91CF91D9
S11345800895CF93DF931F92CDB7DEB789838981D6
S1134590882F90E0825B994F21E0FC01208364E145
S11345A084E617D08981282F30E045E3429FC0017B
S11345B0439F900D11248557994F2AE0FC012083D5
S11345C069818AE00E94B51800000F90DF91CF91B5
S11345D00895CF93DF93CDB7DEB76F970FB6F894F6
S11345E0DEBF0FBECDBF8E8F6F8F19820BC188E2E5
S11345F090E028E230E0F90120812068FC0120836A
S113460088E290E028E230E0F90120812F7BFC0170
S113461020838E8D882F90E0A0E0B0E0BC01CD0116
S11346200E94173ADC01CB018A839B83AC83BD8350
S113463020E030E04AE755E46A817B818C819D81EA
S11346400E94CD3ADC01CB018C8B9D8BAE8BBF8B52
S113465020E030E040E85FE36C897D898E899F89A2
S11346600E947F3988230CF43CC020E03FEF4FE7E1
S113467057E46C897D898E899F890E94C93A1816EE
S11346802CF520E030E040E251E46A817B818C81AA
S11346909D810E94CD3ADC01CB01BC01CD010E9479
S11346A0EB39DC01CB01998F888F0BC080E991E055
S11346B00197F1F79B8F8A8F888D998D0197998F38
S11346C0888F888D998D892B89F715C06C897D8990
S11346D08E899F890E94EB39DC01CB01998F888FE9
S11346E004C081E090E0998F888F888D998D01971F
S11346F0F1F79D8F8C8F88E290E028E230E0F90199
S113470020812064FC01208388E290E028E230E0EC
S1134710F90120812F77FC0120838E8D882F90E072
S1134720A0E0B0E0BC01CD010E94173ADC01CB014E
S11347308E839F83A887B98720E030E04AE755E459
S11347406E817F81888599850E94CD3ADC01CB01F9
S11347508A879B87AC87BD8720E030E040E85FE331
S11347606A857B858C859D850E947F3988230CF41E
S11347703CC020E03FEF4FE757E46A857B858C859A
S11347809D850E94C93A18162CF520E030E040E2DD
S113479051E46E817F81888599850E94CD3ADC0140
S11347A0CB01BC01CD010E94EB39DC01CB019F8719
S11347B08E870BC080E991E00197F1F7998B888B84
S11347C08E859F8501979F878E878E859F85892BF0
S11347D089F715C06A857B858C859D850E94EB3998
S11347E0DC01CB019F878E8704C081E090E09F8726
S11347F08E878E859F850197F1F79B8B8A8B8981A4
S11348008F5F898399818F8D981708F4F0CE88E2A1
S113481090E028E230E0F90120812F73FC0120832D
S113482000006F960FB6F894DEBF0FBECDBFDF91C8
S1134830CF910895CF93DF93CDB7DEB781E290E0B7
S11348402FEFFC01208384E290E02FEFFC01208312
S113485085E290E020E2FC01208387E290E02FEFE4
S1134860FC01208388E290E02FE3FC0120838AE2AC
S113487090E02FEFFC0120838BE290E0FC0110829A
S11348808DE290E02FEFFC0120838EE290E020E1A6
S1134890FC01208380E390E02EEFFC01208381E083
S11348A091E02FEFFC01208382E091E020E1FC0104
S11348B0208384E091E02FEFFC01208385E091E0E8
S11348C020E1FC01208387E091E0FC0110828AE072
S11348D091E0FC0110820000DF91CF910895CF9305
S11348E0DF93CDB7DEB7EF970FB6F894DEBF0FBEF8
S11348F0CDBF8FAF80E2ECEDF3E0DE015F96019077
S11349000D928A95E1F7198214C181E08A839EC0D1
S11349108A81482F50E08A81282F30E065E3629F26
S1134920C001639F900D11248757994FFC0120818A
S113493031818981882F90E0880F991FBE016F5FB4
S11349407F4F860F971F4E96FC0180819181280F1F
S1134950391F65E3649FC001659F900D112487573B
S1134960994FFC013183208380E090E0A6E9B2E412
S11349708F839887A987BA8720E030E04AE755E417
S11349806F81788589859A850E94CD3ADC01CB01B7
S11349908B879C87AD87BE8720E030E040E85FE3EB
S11349A06B857C858D859E850E947F3988230CF4D8
S11349B03CC020E03FEF4FE757E46B857C858D8555
S11349C09E850E94C93A18162CF520E030E040E29A
S11349D051E46F81788589859A850E94CD3ADC01FE
S11349E0CB01BC01CD010E94EB39DC01CB01988BDA
S11349F08F870BC080E991E00197F1F79A8B898B3F
S1134A008F8598890197988B8F878F859889892BB3
S1134A1089F715C06B857C858D859E850E94EB3951
S1134A20DC01CB01988B8F8704C081E090E0988BE8
S1134A308F878F8598890197F1F79C8B8B8B67E51E
S1134A4076E08FAD5ED88A818F5F8A839A818FAD3D
S1134A50891708F05DCF80E090E0A8E4B2E48B838E
S1134A609C83AD83BE8320E030E04AE755E46B814C
S1134A707C818D819E810E94CD3ADC01CB018D8B9E
S1134A809E8BAF8BB88F20E030E040E85FE36D8908
S1134A907E898F89988D0E947F3988230CF43CC0CD
S1134AA020E03FEF4FE757E46D897E898F89988D29
S1134AB00E94C93A18162CF520E030E040E251E497
S1134AC06B817C818D819E810E94CD3ADC01CB017A
S1134AD0BC01CD010E94EB39DC01CB019A8F898F97
S1134AE00BC080E991E00197F1F79C8F8B8F898D42
S1134AF09A8D01979A8F898F898D9A8D892B89F741
S1134B0015C06D897E898F89988D0E94EB39DC01EF
S1134B10CB019A8F898F04C081E090E09A8F898FAE
S1134B20898D9A8D0197F1F79E8F8D8F89818F5F83
S1134B3089838981803108F4E8CE0000EF960FB6AE
S1134B40F894DEBF0FBECDBFDF91CF910895CF9310
S1134B50DF931F921F92CDB7DEB79A838983898131
S1134B609A812CE43FE6FC013183208323E730E083
S1134B70FC013383228389819A8123E0FC0122ABE7
S1134B8089819A81805B9F4F9C018EE0ECEFF3E07A
S1134B90D90101900D928A95E1F789819A81805B10
S1134BA09F4FFC0112AA89819A81805B9F4F2CE35D
S1134BB030E0FC0134AB23AB89819A81805B9F4F49
S1134BC022E030E0FC0136AB25AB89819A81805B21
S1134BD09F4F2AE030E0FC0130AF27AB89819A81F6
S1134BE0805B9F4F2EE130E0FC0132AF21AF898121
S1134BF09A81805B9F4F2AE530E0FC0134AF23AFFC
S1134C0089819A81805B9F4F20EA30E0FC0136AFB6
S1134C1025AF89819A81805B9F4FCF962AEF30E040
S1134C20FC013183208389819A81805B9F4F8F5B54
S1134C309F4F24E030E0FC013183208389819A81F5
S1134C40805B9F4F8D5B9F4FFC01108289819A810D
S1134C50805B9F4F8C5B9F4FFC01108289819A81FE
S1134C60805B9F4F8B5B9F4F21E0FC0120838981F8
S1134C709A81805B9F4F8A5B9F4F23E0FC012083D6
S1134C8089819A81805B9F4F895B9F4FFC011082D1
S1134C9089819A81805B9F4F875B9F4FFC011082C3
S1134CA089819A81805B9F4F865B9F4FFC011082B4
S1134CB089819A81805B9F4F855B9F4FFC011082A5
S1134CC089819A81805B9F4F835B9F4FFC01108297
S1134CD089819A8180569F4F9C0189E0EAE0F4E043
S1134CE0D90101900D928A95E1F789819A818056C4
S1134CF09F4F21E0FC0122AB89819A8180519F4F13
S1134D009C018BE0E3E1F4E0D90101900D928A95D6
S1134D10E1F789819A8180519F4FFC0112AA898110
S1134D209A8180519F4F2CE330E0FC0134AB23ABDC
S1134D3089819A8180519F4F2CE330E0FC0134AB90
S1134D4023AB89819A8180519F4F24E030E0FC019C
S1134D5036AB25AB89819A8180519F4F24E130E0A5
S1134D60FC0130AF27AB89819A8180519F4F2CE39E
S1134D7030E0FC0132AF21AF89819A8180519F4F8D
S1134D8024EB30E0FC0134AF23AF89819A81805158
S1134D909F4F20E431E0FC0136AF25AF89819A8131
S1134DA080519F4FCF9622EC31E0FC013183208368
S1134DB089819A8180519F4F8F5B9F4F24E030E01F
S1134DC0FC013183208389819A8180519F4F8D5BBF
S1134DD09F4FFC01108289819A8180519F4F8C5B87
S1134DE09F4FFC01108289819A8180519F4F8B5B78
S1134DF09F4F21E0FC01208389819A8180519F4F3C
S1134E008A5B9F4F23E0FC01208389819A81805132
S1134E109F4F895B9F4FFC01108289819A81805149
S1134E209F4F875B9F4F21E0FC01208389819A81FA
S1134E3080519F4F865B9F4FFC01108289819A812C
S1134E4080519F4F855B9F4F21E0FC012083898126
S1134E509A8180519F4F835B9F4FFC01108289810F
S1134E609A81805C9E4F9C018DE0EEE1F4E0D901D3
S1134E7001900D928A95E1F789819A81805C9E4F19
S1134E8022E0FC0122AB89819A81805C9E4F28EC50
S1134E9030E0FC0134AB23AB89819A8180579E4F6B
S1134EA09C0180E1EBE2F4E0D90101900D928A9536
S1134EB0E1F789819A8180579E4F27E0FC0122AB5C
S1134EC089819A8180579E4F28EC30E0FC0134ABF5
S1134ED023AB89819A8180579E4F29E130E0FC0100
S1134EE036AB25AB89819A8180579E4F22E330E00F
S1134EF0FC0130AF27AB89819A8180579E4F24E60D
S1134F0030E0FC0132AF21AF89819A8180579E4FF6
S1134F1028EC30E0FC0134AF23AF89819A818057BB
S1134F209E4F8D5B9F4FFC01108289819A8180572F
S1134F309E4F8C5B9F4F28E0FC01208389819A81DE
S1134F4080579E4F8B5B9F4F25E0FC012083898116
S1134F509A8180579E4F8A5B9F4F2FE0FC012083EC
S1134F6089819A8180579E4F895B9F4F29E1FC017B
S1134F70208389819A8180579E4F885B9F4F23E2CB
S1134F80FC01208389819A8180579E4F855B9F4FC6
S1134F9022E0FC01208389819A8180579E4F835BA4
S1134FA09F4FFC01108289819A8180529E4F9C01FF
S1134FB08CE0EBE3F4E0D90101900D928A95E1F7DE
S1134FC089819A8180529E4FFC0112AA89819A811B
S1134FD080529E4F24E630E0FC0134AB23AB898140
S1134FE09A8180529E4F26E030E0FC0136AB25AB1F
S1134FF089819A8180529E4F2EE130E0FC0130AFCE
S113500027AB89819A8180529E4F2AE530E0FC01CA
S113501032AF21AF89819A8180529E4F2EE031E0D8
S1135020FC0134AF23AF89819A8180529E4F20E9DD
S113503031E0FC0136AF25AF89819A8180529E4FC1
S1135040CF9626E232E0FC013183208389819A8164
S113505080529E4F8F5B9F4F2CE030E0FC013183E8
S1135060208389819A8180529E4F8D5B9F4F21E0DE
S1135070FC01208389819A8180529E4F8C5B9F4FD3
S113508021E0FC01208389819A8180529E4F8B5BB1
S11350909F4F26E0FC01208389819A8180529E4F94
S11350A08A5B9F4F28E0FC01208389819A8180528A
S11350B09E4F895B9F4F29E0FC01208389819A815F
S11350C080529E4F875B9F4F22E0FC0120838981A1
S11350D09A8180529E4F865B9F4FFC01108289818A
S11350E09A8180529E4F855B9F4F23E0FC01208371
S11350F089819A8180529E4F835B9F4FFC0110826D
S113510089819A81805D9D4F9C0187E0E7E4F4E00A
S1135110D90101900D928A95E1F789819A81805D88
S11351209D4F21E0FC0122AB89819A8180589D4FDB
S11351309C018BE0EEE4F4E0D90101900D928A9594
S1135140E1F789819A8180589D4FFC0112AA8981D7
S11351509A8180589D4F24E630E0FC0134AB23ABA8
S113516089819A8180589D4F26E030E0FC0136AB5E
S113517025AB89819A8180589D4F2EE130E0FC0156
S113518030AF27AB89819A8180589D4F2AE530E062
S1135190FC0132AF21AF89819A8180589D4F2EE066
S11351A031E0FC0134AF23AF89819A8180589D4F4F
S11351B020E931E0FC0136AF25AF89819A8180581E
S11351C09D4FCF9626E232E0FC0131832083898112
S11351D09A8180589D4F8F5B9F4F2CE030E0FC01FB
S11351E03183208389819A8180589D4F8D5B9F4FA5
S11351F021E0FC01208389819A8180589D4F8C5B3A
S11352009F4F21E0FC01208389819A8180589D4F22
S11352108B5B9F4F26E0FC01208389819A81805813
S11352209D4F8A5B9F4F28E0FC01208389819A81EE
S113523080589D4F895B9F4F29E0FC012083898121
S11352409A8180589D4F875B9F4F23E0FC01208308
S113525089819A8180589D4F865B9F4FFC01108203
S113526089819A8180589D4F855B9F4F24E0FC0182
S1135270208389819A8180589D4F835B9F4FFC01D5
S1135280108289819A8180539D4F9C018AE0E9E5CF
S1135290F4E0D90101900D928A95E1F789819A8110
S11352A080539D4FFC0112AA89819A8180539D4F9E
S11352B028E730E0FC0134AB23AB89819A81805329
S11352C09D4F28E030E0FC0136AB25AB89819A8103
S11352D080539D4F28E230E0FC0130AF27AB898139
S11352E09A8180539D4F24E630E0FC0132AF21AF18
S11352F089819A8180539D4F2CE231E0FC0134AFC7
S113530023AF89819A8180539D4F22EC31E0FC01C7
S113531036AF25AF89819A8180539D4FCF9628E57A
S113532032E0FC013183208389819A8180539D4F2F
S11353308F5B9F4F20E130E0FC0131832083898122
S11353409A8180539D4F8D5B9F4F21E0FC01208308
S113535089819A8180539D4F8C5B9F4F21E0FC0192
S1135360208389819A8180539D4F8B5B9F4F26E0D8
S1135370FC01208389819A8180539D4F8A5B9F4FD2
S113538028E0FC01208389819A8180539D4F895BA9
S11353909F4F29E0FC01208389819A8180539D4F8E
S11353A0875B9F4F24E0FC01208389819A8180538D
S11353B09D4F865B9F4FFC01108289819A818053A7
S11353C09D4F855B9F4F25E0FC01208389819A8155
S11353D080539D4F835B9F4FFC01108289819A818A
S11353E0805E9C4F9C018AE0E3E6F4E0D9010190E1
S11353F00D928A95E1F789819A81805E9C4F24E021
S1135400FC0122AB89819A8180599C4F9C018AE0DE
S1135410EDE6F4E0D90101900D928A95E1F78981D6
S11354209A8180599C4FFC0112AA89819A818059E2
S11354309C4F2CE830E0FC0134AB23AB89819A818A
S113544080599C4F2AE030E0FC0136AB25AB8981C2
S11354509A8180599C4F22E330E0FC0130AF27ABA6
S113546089819A8180599C4F26E930E0FC0132AF52
S113547021AF89819A8180599C4F22EC31E0FC0153
S113548034AF23AF89819A8180599C4F21E732E060
S1135490FC0136AF25AF89819A8180599C4FCF9604
S11354A02EEE32E0FC013183208389819A81805978
S11354B09C4F8F5B9F4F24E130E0FC0131832083BC
S11354C089819A8180599C4F8D5B9F4F22E0FC011A
S11354D0208389819A8180599C4F8C5B9F4F22E065
S11354E0FC01208389819A8180599C4F8B5B9F4F5B
S11354F02BE0FC01208389819A8180599C4F8A5B2F
S11355009F4F2DE0FC01208389819A8180599C4F13
S1135510895B9F4F2EE0FC01208389819A81805909
S11355209C4F875B9F4F25E0FC01208389819A81F2
S113553080599C4F865B9F4FFC01108289819A8120
S113554080599C4F855B9F4F26E0FC012083898115
S11355509A8180599C4F835B9F4FFC011082898103
S11355609A8180549C4F9C0181E1E7E7F4E0D901E2
S113557001900D928A95E1F789819A8180549C4F1C
S113558026E0FC0122AB89819A8180549C4F26E954
S113559030E0FC0134AB23AB89819A8180549C4F69
S11355A08D5B9F4FFC01108289819A8180549C4FAE
S11355B08C5B9F4F28E0FC01208389819A81805471
S11355C09C4F855B9F4F27E0FC01208389819A8152
S11355D080549C4F835B9F4FFC01108289819A8188
S11355E0805F9B4F9C018AE0E8E8F4E0D9010190D8
S11355F00D928A95E1F789819A81805F9B4FFC0126
S113560012AA89819A81805F9B4F2CE830E0FC01CB
S113561034AB23AB89819A81805F9B4F2AE030E0D1
S1135620FC0136AB25AB89819A81805F9B4F22E3D5
S113563030E0FC0130AF27AB89819A81805F9B4FBA
S113564026E930E0FC0132AF21AF89819A81805F85
S11356509B4F22EC31E0FC0134AF23AF89819A8166
S1135660805F9B4F21E732E0FC0136AF25AF898193
S11356709A81805F9B4FCF962EEE32E0FC013183FE
S1135680208389819A81805F9B4F8F5B9F4F24E1A8
S113569030E0FC013183208389819A81805F9B4FB4
S11356A08D5B9F4F22E0FC01208389819A81805F7A
S11356B09B4F8C5B9F4F22E0FC01208389819A8160
S11356C0805F9B4F8B5B9F4F2BE0FC012083898184
S11356D09A81805F9B4F8A5B9F4F2DE0FC01208362
S11356E089819A81805F9B4F895B9F4F2EE0FC01EB
S11356F0208389819A81805F9B4F875B9F4F26E03F
S1135700FC01208389819A81805F9B4F865B9F4F38
S1135710FC01108289819A81805F9B4F855B9F4F3A
S113572028E0FC01208389819A81805F9B4F835B01
S11357309F4FFC01108289819A81805A9B4F9C0162
S11357408AE0E2E9F4E0D90101900D928A95E1F74B
S113575089819A81805A9B4FFC0112AA89819A817E
S1135760805A9B4F20EA30E0FC0134AB23AB8981A3
S11357709A81805A9B4F2CE030E0FC0136AB25AB7C
S113578089819A81805A9B4F2CE330E0FC0130AF31
S113579027AB89819A81805A9B4F24EB30E0FC012E
S11357A032AF21AF89819A81805A9B4F24EF31E037
S11357B0FC0134AF23AF89819A81805A9B4F2CEB33
S11357C032E0FC0136AF25AF89819A81805A9B4F24
S11357D0CF9624E833E0FC013183208389819A81C8
S11357E0805A9B4F8F5B9F4F28E130E0FC0131834F
S11357F0208389819A81805A9B4F8D5B9F4F22E041
S1135800FC01208389819A81805A9B4F8C5B9F4F36
S113581022E0FC01208389819A81805A9B4F8B5B13
S11358209F4F2BE0FC01208389819A81805A9B4FF2
S11358308A5B9F4F2DE0FC01208389819A81805AE5
S11358409B4F895B9F4F2EE0FC01208389819A81C5
S1135850805A9B4F875B9F4F27E0FC0120838981FF
S11358609A81805A9B4F865B9F4FFC0110828981ED
S11358709A81805A9B4F855B9F4F29E0FC012083CE
S113588089819A81805A9B4F835B9F4FFC011082D0
S113589089819A8180559B4F9C018CE0ECE9F4E06E
S11358A0D90101900D928A95E1F789819A818055F9
S11358B09B4F27E0FC0122AB89819A8180559B4F45
S11358C028EC30E0FC0134AB23AB89819A8180550C
S11358D09B4F29E130E0FC0136AB25AB89819A81ED
S11358E080559B4F22E330E0FC0130AF27AB898128
S11358F09A8180559B4F24E630E0FC0132AF21AF02
S113590089819A8180559B4F28EC30E0FC0134AFAB
S113591023AF89819A8180559B4F8D5B9F4FFC01FA
S1135920108289819A8180559B4F8C5B9F4F28E020
S1135930FC01208389819A8180559B4F8B5B9F4F0B
S113594025E0FC01208389819A8180559B4F8A5BE5
S11359509F4F2FE0FC01208389819A8180559B4FC2
S1135960895B9F4F29E1FC01208389819A818055BD
S11359709B4F885B9F4F23E2FC01208389819A819E
S113598080559B4F855B9F4F2AE0FC0120838981D2
S11359909A8180559B4F835B9F4FFC0110828981C4
S11359A09A819B5F9C0187E0E8EAF4E0D9010190C9
S11359B00D928A95E1F789819A819B5FFC0112AA75
S11359C089819A819B5F24EB30E0FC0134AB23ABEB
S11359D089819A819B5F2EE030E0FC0136AB25ABD8
S11359E089819A819B5F26E430E0FC0130AF27ABCC
S11359F089819A819B5F28EC30E0FC0132AF21AFB2
S1135A0089819A819B5F26E232E0FC0134AF23AFA7
S1135A1089819A819B5F2EEE32E0FC0136AF25AF7F
S1135A2089819A819B5FCF9626EB33E0FC01318319
S1135A30208389819A819B5F8F5B9F4F2CE130E0AB
S1135A40FC013183208389819A819B5F8D5B9F4F09
S1135A50FC01108289819A819B5F8C5B9F4F23E0BC
S1135A60FC01208389819A819B5F8B5B9F4F20E19E
S1135A70FC01208389819A819B5F8A5B9F4F22E18D
S1135A80FC01208389819A819B5F895B9F4F23E17D
S1135A90FC01208389819A819B5F875B9F4F28E06B
S1135AA0FC01208389819A819B5F865B9F4FFC0167
S1135AB0108289819A819B5F855B9F4F2BE0FC015B
S1135AC0208389819A819B5F835B9F4FFC011082B5
S1135AD089819A81805B9A4F9C0188E0EFEAF4E027
S1135AE0D90101900D928A95E1F789819A81805BB1
S1135AF09A4F21E0FC0122AB89819A8180569A4F0A
S1135B009C0187E0E7EBF4E0D90101900D928A95BE
S1135B10E1F789819A8180569A4FFC0112AA898102
S1135B209A8180569A4F24EB30E0FC0134AB23ABCE
S1135B3089819A8180569A4F2EE030E0FC0136AB81
S1135B4025AB89819A8180569A4F26E430E0FC0186
S1135B5030AF27AB89819A8180569A4F28EC30E088
S1135B60FC0132AF21AF89819A8180569A4F26E297
S1135B7032E0FC0134AF23AF89819A8180569A4F79
S1135B802EEE32E0FC0136AF25AF89819A81805632
S1135B909A4FCF9626EB33E0FC0131832083898131
S1135BA09A8180569A4F8F5B9F4F2CE130E0FC0125
S1135BB03183208389819A8180569A4F8D5B9F4FD0
S1135BC0FC01108289819A8180569A4F8C5B9F4F89
S1135BD023E0FC01208389819A8180569A4F8B5B54
S1135BE09F4F20E1FC01208389819A8180569A4F3E
S1135BF08A5B9F4F22E1FC01208389819A81805630
S1135C009A4F895B9F4F23E1FC01208389819A810C
S1135C1080569A4F875B9F4F29E0FC01208389813E
S1135C209A8180569A4F865B9F4FFC01108289812E
S1135C309A8180569A4F855B9F4F2CE0FC0120830C
S1135C4089819A8180569A4F835B9F4FFC01108211
S1135C5089819A8180519A4F9C0187E0EEEBF4E0B0
S1135C60D90101900D928A95E1F789819A81805139
S1135C709A4FFC0112AA89819A8180519A4F28EC8B
S1135C8030E0FC0134AB23AB89819A8180519A4F77
S1135C9020E130E0FC0136AB25AB89819A8180514B
S1135CA09A4F20E530E0FC0130AF27AB89819A811F
S1135CB080519A4F2CED30E0FC0132AF21AF898145
S1135CC09A8180519A4F28E532E0FC0134AF23AF2A
S1135CD089819A8180519A4F20E233E0FC0136AFEA
S1135CE025AF89819A8180519A4FCF9628EE33E06F
