S01000004D6F6E6F706F6C792E73726563B7
S113000071C0000090C000008EC000008CC00000D1
S11300108AC0000088C0000086C0000084C00000C0
S113002082C0000080C000007EC000007CC00000D0
S11300307AC0000078C0000076C0000074C00000E0
S113004072C0000070C000006EC000006CC00000F0
S11300506AC0000068C0000066C0000064C0000000
S113006062C0000060C000005EC000005CC0000010
S11300705AC0000058C0000056C0000054C0000020
S113008052C0000050C000004EC000004CC0000030
S11300904AC0000048C0000046C0000044C0000040
S11300A042C0000040C000003EC000003CC0000050
S11300B03AC0000038C0000036C0000034C0000060
S11300C032C0000030C000002EC000002CC0000070
S11300D02AC0000028C0000026C0000024C0000080
S11300E022C0000011241FBECFEFD1E2DEBFCDBF7E
S11300F000E00CBF15E0A0E0B2E0EEEDFFE300E0AD
S11301000BBF02C007900D92A435B107D9F727E0C1
S1130110A4E5B5E001C01D92A637B207E1F70E943D
S1130120250A0C94ED1F6CCF98B19F7E98B998B1B5
S11301309B7F98B98BB998B1926098B981508330FC
S113014038F48FE291E10197F1F700C0000003C099
S113015090EA9A95F1F788B18D7F88B908951F9335
S1130160CF93DF93CDB7DEB729970FB6F894DEBFF0
S11301700FBECDBF8FEF8AB987B988B1806288B9C5
S11301802FEF80E792E0215080409040E1F700C0DB
S1130190000088B18E7F88B989E0E0E1F2E0DE01F9
S11301A0119601900D928A95E1F710E00AC0E1E002
S11301B0F0E0EC0FFD1FE10FF11D808190E0B4DF52
S11301C01F5F1930A0F329960FB6F894DEBF0FBE57
S11301D0CDBFDF91CF911F91089598B1906198B9E7
S11301E098B19B7F98B98BB988B1826088B980EA4D
S11301F08A95F1F788B18D7F88B9089581E094CF0D
S1130200089582E091CF0895417070E0660F771FE2
S11302106270282F30E0220F331F220F331F247007
S1130220842F862B822B88607FCF08950F931F9392
S1130230CF938A01282F30E0285F3F4F862F90E12B
S1130240299F800D112470DFC0E002C0C6DFCF5F9C
S1130250F801EC0FF11D80818111F8CFCF911F912E
S11302600F910895CF93C42F282F30E0285F3F4F7C
S1130270862F90E1299F800D112456DF8C2FADDF4E
S1130280CF9108956CDFBADFBCDF40E060E081E02D
S1130290BBCF0895CF93DF931F921F92CDB7DEB7E4
S11302A09A83898389819A81C5969C018AE0E9E1D0
S11302B0F2E0D90101900D928A95E1F789819A8142
S11302C0C59627E534E0FC0133AB22AB89819A81E2
S11302D0C596FC0114AA89819A8186599F4F9C0175
S11302E08AE0E3E2F2E0D90101900D928A95E1F708
S11302F089819A8186599F4F2EEA38E0FC0133ABFD
S113030022AB89819A8186599F4FFC0114AA898165
S11303109A8181569F4F9C018AE0EDE2F2E0D90177
S113032001900D928A95E1F789819A8181569F4FB8
S113033025E03DE0FC0133AB22AB89819A818156F3
S11303409F4FFC0114AA89819A818C529F4F9C0172
S11303508AE0E7E3F2E0D90101900D928A95E1F792
S113036089819A818C529F4F2CE531E1FC0133AB9A
S113037022AB89819A818C529F4FFC0114AA000000
S11303800F900F90DF91CF910895CF93DF931F9239
S11303901F92CDB7DEB79A83898389819A812CE431
S11303A03FE6FC013183208323E730E0FC01338303
S11303B0228389819A8123E0FC0122AB89819A817D
S11303C0CC969C018EE0E1E4F2E0D90101900D921B
S11303D08A95E1F789819A81CC96FC0112AA8981D8
S11303E09A81CC962CE330E0FC0134AB23AB8981B9
S11303F09A81CC9622E030E0FC0136AB25AB8981B2
S11304009A81CC96FC0117AA89819A81CC96FC0129
S113041010AE89819A81CC96FC0111AE89819A81B2
S1130420CC96FC0112AE89819A81CC96FC0113AE64
S113043089819A8188589F4F9C0189E0EFE4F2E01A
S1130440D90101900D928A95E1F789819A818858A2
S11304509F4F21E0FC0122AB89819A818C549F4FEC
S11304609C018BE0E8E5F2E0D90101900D928A95B8
S1130470E1F789819A818C549F4FFC0112AA8981EA
S11304809A818C549F4F2CE330E0FC0134AB23ABB6
S113049089819A818C549F4F22E030E0FC0136AB75
S11304A025AB89819A818C549F4FFC0117AA8981BD
S11304B09A818C549F4FFC0110AE89819A818C548F
S11304C09F4F21E0FC0121AF89819A818C549F4F79
S11304D0FC0112AE89819A818C549F4F21E0FC016A
S11304E023AF89819A8180519F4F9C018EE0E3E67E
S11304F0F2E0D90101900D928A95E1F789819A8100
S113050080519F4F22E0FC0122AB89819A81805166
S11305109F4F28EC30E0FC0134AB23AB89819A81F6
S113052080519F4F9C0180E1E1E7F2E0D901019005
S11305300D928A95E1F789819A81845D9E4F27E027
S1130540FC0122AB89819A81845D9E4F28EC30E0C6
S1130550FC0134AB23AB89819A81845D9E4F28ECE6
S113056030E0FC0136AB25AB89819A81845D9E4FD6
S1130570FC0117AA89819A81845D9E4F28E0FC01C1
S113058020AF89819A81845D9E4F22E0FC0123AFD4
S113059089819A818C549F4F9C018CE0E1E8F2E0C0
S11305A0D90101900D928A95E1F789819A81885940
S11305B09E4FFC0112AA89819A8188599E4F24E694
S11305C030E0FC0134AB23AB89819A8188599E4F7A
S11305D022E030E0FC0136AB25AB89819A81885951
S11305E09E4FFC0117AA89819A8188599E4F21E068
S11305F0FC0120AF89819A8188599E4F22E0FC0139
S113060021AF89819A8188599E4FFC0112AE89815C
S11306109A8188599E4F23E0FC0123AF89819A81F6
S11306208C559E4F9C0188E0EDE8F2E0D9010190E1
S11306300D928A95E1F789819A818C559E4F21E02C
S1130640FC0122AB89819A8180529E4F9C018BE0F0
S1130650E5E9F2E0D90101900D928A95E1F78981EB
S11306609A8180529E4FFC0112AA89819A818052FC
S11306709E4F24E630E0FC0134AB23AB89819A81A0
S113068080529E4F22E030E0FC0136AB25AB8981DD
S11306909A8180529E4FFC0117AA89819A818052C7
S11306A09E4F21E0FC0120AF89819A8180529E4FA8
S11306B023E0FC0121AF89819A8180529E4FFC0185
S11306C012AE89819A8180529E4F24E0FC0123AFAF
S11306D089819A81845E9D4F9C018AE0E0EAF2E080
S11306E0D90101900D928A95E1F789819A81845EFE
S11306F09D4FFC0112AA89819A81845E9D4F28E74F
S113070030E0FC0134AB23AB89819A81845E9D4F38
S113071022E030E0FC0136AB25AB89819A81845E0E
S11307209D4FFC0117AA89819A81845E9D4F21E027
S1130730FC0120AF89819A81845E9D4F24E0FC01F5
S113074021AF89819A81845E9D4FFC0112AE89811B
S11307509A81845E9D4F25E0FC0123AF89819A81B3
S1130760885A9D4F9C018BE0EAEAF2E0D90101909E
S11307700D928A95E1F789819A81885A9D4F24E0E8
S1130780FC0122AB89819A818C569D4F9C018AE0A1
S1130790E5EBF2E0D90101900D928A95E1F78981A8
S11307A09A818C569D4FFC0112AA89819A818C569C
S11307B09D4F2CE830E0FC0134AB23AB89819A8156
S11307C08C569D4F22E030E0FC0136AB25AB89818D
S11307D09A818C569D4FFC0117AA89819A818C5667
S11307E09D4F22E0FC0120AF89819A818C569D4F58
S11307F025E0FC0121AF89819A818C569D4FFC0133
S113080012AE89819A818C569D4F26E0FC0123AF5C
S113081089819A818C569D4F9C0181E1EFEBF2E036
S1130820D90101900D928A95E1F789819A818053CB
S11308309D4F26E0FC0122AB89819A8180539D4F14
S113084026E930E0FC0134AB23AB89819A818053E3
S11308509D4F22E030E0FC0136AB25AB89819A81C3
S113086080539D4FFC0117AA89819A8180539D4F23
S113087028E0FC0120AF89819A8180539D4F27E0B5
S1130880FC0123AF89819A81845F9C4F9C018AE09B
S1130890E0EDF2E0D90101900D928A95E1F78981AA
S11308A09A81845F9C4FFC0112AA89819A81845F9A
S11308B09C4F2CE830E0FC0134AB23AB89819A8156
S11308C0845F9C4F22E030E0FC0136AB25AB89818C
S11308D09A81845F9C4FFC0117AA89819A81845F65
S11308E09C4F22E0FC0120AF89819A81845F9C4F58
S11308F026E0FC0121AF89819A81845F9C4FFC0131
S113090012AE89819A81845F9C4F28E0FC0123AF59
S113091089819A81885B9C4F9C018AE0EAEDF2E030
S1130920D90101900D928A95E1F789819A81885BBA
S11309309C4FFC0112AA89819A81885B9C4F20EA12
S113094030E0FC0134AB23AB89819A81885B9C4FF6
S113095022E030E0FC0136AB25AB89819A81885BCB
S11309609C4FFC0117AA89819A81885B9C4F22E0E5
S1130970FC0120AF89819A81885B9C4F27E0FC01B0
S113098021AF89819A81885B9C4FFC0112AE8981D9
S11309909A81885B9C4F29E0FC0123AF89819A816D
S11309A08C579C4F9C018CE0E4EEF2E0D90101905D
S11309B00D928A95E1F789819A818C579C4F27E0A3
S11309C0FC0122AB89819A818C579C4F28EC30E042
S11309D0FC0134AB23AB89819A818C579C4F28EC62
S11309E030E0FC0136AB25AB89819A818C579C4F52
S11309F0FC0117AA89819A818C579C4F28E0FC013D
S1130A0020AF89819A818C579C4F2AE0FC0123AF47
S1130A1089819A8180549C4F9C0183E1E0EFF2E04C
S1130A20D90101900D928A95E1F789819A818054C8
S1130A309C4FFC0112AA89819A8180549C4F24EB1B
S1130A4030E0FC0134AB23AB89819A8180549C4F04
S1130A5022E030E0FC0136AB25AB89819A818054D9
S1130A609C4FFC0117AA89819A8180549C4F23E0F2
S1130A70FC0120AF89819A8180549C4F28E0FC01BD
S1130A8021AF89819A8180549C4FFC0112AE8981E7
S1130A909A8180549C4F2BE0FC0123AF89819A8179
S1130AA084509C4F9C018AE0E3E0F3E0D90101907B
S1130AB00D928A95E1F789819A8184509C4F21E0B7
S1130AC0FC0122AB89819A81885C9B4F9C0180E167
S1130AD0EDE0F3E0D90101900D928A95E1F7898167
S1130AE09A81885C9B4FFC0112AA89819A81885C57
S1130AF09B4F24EB30E0FC0134AB23AB89819A811A
S1130B00885C9B4F22E030E0FC0136AB25AB898149
S1130B109A81885C9B4FFC0117AA89819A81885C21
S1130B209B4F23E0FC0120AF89819A81885C9B4F15
S1130B3029E0FC0121AF89819A81885C9B4FFC01EB
S1130B4012AE89819A81885C9B4F2CE0FC0123AF13
S1130B5089819A818C589B4F9C0181E1EDE1F3E0FE
S1130B60D90101900D928A95E1F789819A818C5877
S1130B709B4FFC0112AA89819A818C589B4F28ECC7
S1130B8030E0FC0134AB23AB89819A818C589B4FB4
S1130B9022E030E0FC0136AB25AB89819A818C5888
S1130BA09B4FFC0117AA89819A818C589B4F23E0A3
S1130BB0FC0120AF89819A818C589B4F2AE0FC016B
S1130BC021AF89819A818C589B4FFC0112AE898197
S1130BD09A818C589B4F2DE0FC0123AF89819A8127
S1130BE080559B4F9C018BE0EEE2F3E0D90101902C
S1130BF00D928A95E1F789819A8180559B4F23E074
S1130C00FC0122AB89819A8184519B4F9C018CE128
S1130C10E9E3F3E0D90101900D928A95E1F7898126
S1130C209A8184519B4FFC0112AA89819A81845133
S1130C309B4F2CED30E0FC0134AB23AB89819A81CE
S1130C4084519B4F22E030E0FC0136AB25AB898117
S1130C509A8184519B4FFC0117AA89819A818451FE
S1130C609B4F24E0FC0120AF89819A8184519B4FE2
S1130C702BE0FC0121AF89819A8184519B4FFC01B7
S1130C8012AE89819A8184519B4F2EE0FC0123AFDF
S1130C9089819A81885D9A4F9C0189E0E5E5F3E0BA
S1130CA0D90101900D928A95E1F789819A81885D35
S1130CB09A4F21E0FC0122AB89819A818C599A4F89
S1130CC09C0187E1EEE5F3E0D90101900D928A954C
S1130CD0E1F789819A818C599A4FFC0112AA898182
S1130CE09A818C599A4F2CED30E0FC0134AB23AB44
S1130CF089819A818C599A4F22E030E0FC0136AB0D
S1130D0025AB89819A818C599A4FFC0117AA898154
S1130D109A818C599A4F24E0FC0120AF89819A81F1
S1130D208C599A4F2CE0FC0121AF89819A818C590E
S1130D309A4FFC0112AE89819A818C599A4F2FE007
S1130D40FC0123AF89819A8180569A4F9C0182E1EC
S1130D50E5E7F3E0D90101900D928A95E1F78981E5
S1130D609A8180569A4FFC0112AA89819A818056F1
S1130D709A4F20EF30E0FC0134AB23AB89819A8198
S1130D8080569A4F22E030E0FC0136AB25AB8981D6
S1130D909A8180569A4FFC0117AA89819A818056BC
S1130DA09A4F24E0FC0120AF89819A8180569A4FA2
S1130DB02DE0FC0121AF89819A8180569A4FFC0174
S1130DC012AE89819A8180569A4F20E1FC0123AFAB
S1130DD089819A8184529A4F9C018AE0E7E8F3E082
S1130DE0D90101900D928A95E1F789819A81845203
S1130DF09A4F27E0FC0122AB89819A8184529A4F51
S1130E0028EC30E0FC0134AB23AB89819A81845215
S1130E109A4F22E030E0FC0136AB25AB89819A8100
S1130E2084529A4FFC0117AA89819A8184529A4F5D
S1130E3028E0FC0120AF89819A8184529A4F21E1F4
S1130E40FC0123AF89819A81885E994F9C0185E1D9
S1130E50E1E9F3E0D90101900D928A95E1F78981E6
S1130E609A81885E994FFC0112AA89819A81885ED1
S1130E70994F24E031E0FC0134AB23AB89819A81A2
S1130E80885E994F22E030E0FC0136AB25AB8981C6
S1130E909A81885E994FFC0117AA89819A81885E9C
S1130EA0994F25E0FC0120AF89819A81885E994F92
S1130EB02EE0FC0121AF89819A81885E994FFC0163
S1130EC012AE89819A81885E994F22E1FC0123AF99
S1130ED089819A818C5A994F9C0182E1E6EAF3E078
S1130EE0D90101900D928A95E1F789819A818C5AF2
S1130EF0994FFC0112AA89819A818C5A994F24E056
S1130F0031E0FC0134AB23AB89819A818C5A994F2F
S1130F1022E030E0FC0136AB25AB89819A818C5A02
S1130F20994FFC0117AA89819A818C5A994F25E01F
S1130F30FC0120AF89819A818C5A994F2FE0FC01E2
S1130F4021AF89819A818C5A994FFC0112AE898113
S1130F509A818C5A994F23E1FC0123AF89819A81AC
S1130F608057994F9C018BE0E8EBF3E0D9010190A5
S1130F700D928A95E1F789819A818057994F26E0ED
S1130F80FC0122AB89819A818057994F26E930E090
S1130F90FC0134AB23AB89819A818057994F22E0BD
S1130FA030E0FC0136AB25AB89819A818057994F9B
S1130FB0FC0117AA89819A818057994F28E0FC0186
S1130FC020AF89819A818057994F24E1FC0123AF96
S1130FD089819A818453994F9C0183E1E3ECF3E086
S1130FE0D90101900D928A95E1F789819A81845300
S1130FF0994FFC0112AA89819A818453994F28E15F
S113100031E0FC0134AB23AB89819A818453994F3D
S113101022E030E0FC0136AB25AB89819A81845310
S1131020994FFC0117AA89819A818453994F25E02D
S1131030FC0120AF89819A818453994F20E1FC01FE
S113104021AF89819A818453994FFC0112AE898121
S11310509A818453994F25E1FC0123AF89819A81B8
S1131060885F984F9C0183E1E6EDF3E0D90101909C
S11310700D928A95E1F789819A81885F984F25E0DE
S1131080FC0122AB89819A818C5B984F9C018DE194
S1131090E9EEF3E0D90101900D928A95E1F7898197
S11310A09A818C5B984FFC0112AA89819A818C5B8E
S11310B0984F2CE231E0FC0134AB23AB89819A8157
S11310C08C5B984F22E030E0FC0136AB25AB898184
S11310D09A818C5B984FFC0117AA89819A818C5B59
S11310E0984F26E0FC0120AF89819A818C5B984F50
S11310F021E1FC0121AF89819A818C5B984FFC012D
S113110012AE89819A818C5B984F26E1FC0123AF52
S113111089819A818058984F9C0188E1E6E0F4E047
S1131120D90101900D928A95E1F789819A818058BD
S1131130984FFC0112AA89819A818058984F2CE219
S113114031E0FC0134AB23AB89819A818058984FFC
S113115022E030E0FC0136AB25AB89819A818058CE
S1131160984FFC0117AA89819A818058984F26E0EC
S1131170FC0120AF89819A818058984F22E1FC01BB
S113118021AF89819A818058984FFC0112AE8981E0
S11311909A818058984F27E1FC0123AF89819A8175
S11311A08454984F9C018AE0E3E0F3E0D901019074
S11311B00D928A95E1F789819A818454984F21E0B0
S11311C0FC0122AB89819A818850984F9C0189E166
S11311D0EEE1F4E0D90101900D928A95E1F789815D
S11311E09A818850984FFC0112AA89819A8188506B
S11311F0984F20E431E0FC0134AB23AB89819A8120
S11312008850984F22E030E0FC0136AB25AB898151
S11312109A818850984FFC0117AA89819A81885035
S1131220984F26E0FC0120AF89819A818850984F1D
S113123023E1FC0121AF89819A818850984FFC01F8
S113124012AE89819A818850984F28E1FC0123AF1E
S113125089819A818C5C974F9C018EE0E7E3F4E0EE
S1131260D90101900D928A95E1F789819A818C5C6C
S1131270974F27E0FC0122AB89819A818C5C974FC0
S113128028EC30E0FC0134AB23AB89819A818C5C7F
S1131290974F22E030E0FC0136AB25AB89819A817F
S11312A08C5C974FFC0117AA89819A818C5C974FBB
S11312B028E0FC0120AF89819A818C5C974F29E159
S11312C0FC0123AF89819A818059974F9C0189E061
S11312D0E5E4F4E0D90101900D928A95E1F7898162
S11312E09A818059974F21E0FC0122AB89819A8130
S11312F08455974F9C018FE1EEE4F4E0D90101900D
S11313000D928A95E1F789819A818455974FFC0162
S113131012AA89819A818455974F2EE531E0FC0108
S113132034AB23AB89819A818455974F22E030E016
S1131330FC0136AB25AB89819A818455974FFC011A
S113134017AA89819A818455974F27E0FC0120AF21
S113135089819A818455974F24E1FC0121AF8981C9
S11313609A818455974FFC0112AE89819A818455E4
S1131370974F2AE1FC0123AF89819A818851974FC5
S11313809C0184E1EDE6F4E0D90101900D928A9587
S1131390E1F789819A818851974F22E0FC0122ABC1
S11313A089819A818851974F24E630E0FC0134AB5F
S11313B023AB89819A818C5D964F9C018AE1E1E897
S11313C0F4E0D90101900D928A95E1F789819A811F
S11313D08C5D964FFC0112AA89819A818C5D964F8F
S11313E020E931E0FC0134AB23AB89819A818C5D27
S11313F0964F22E030E0FC0136AB25AB89819A811F
S11314008C5D964FFC0117AA89819A818C5D964F59
S113141027E0FC0120AF89819A818C5D964F25E1FC
S1131420FC0121AF89819A818C5D964FFC0112AE3B
S113143089819A818C5D964F2BE1FC0123AF0000DA
S11314400F900F90DF91CF910895CF93DF93CDB795
S1131450DEB7C358D9400FB6F894DEBF0FBECDBF78
S113146081E08C871D861E86188A1F8683E0898BFF
S11314701B820E945A180E944201CE0184960E9447
S1131480C50189E196E00E944A0180E895E20E9444
S1131490041A75D20E94F61780E00E940D180E946B
S11314A0B91C1C8282E08D83188689819A819B8B6A
S11314B08A8B1A82198289E091E0FC018081882F4D
S11314C090E0382F222786E091E0FC018081882F6C
S11314D090E0822B932B9A8389838A899B899C0130
S11314E02095309589819A8182239323988B8F87C5
S11314F08B81882F90E08130910509F4D4C082302B
S1131500910509F438C2892B09F038C28C818823EB
S113151019F54BE954E060E080E00E9416014CEAC2
S113152054E061E081E00E94160148E060E081E05F
S11315300E9432014EE76FE081E00E9432014BEBE2
S113154054E060E082E00E94160169E176E08D815A
S11315500E94571381E08C838F8598898827907225
S1131560892B61F18D81833048F18D8181508D8388
S11315708D81882F90E0292F2F938F938BEC94E00B
S1131580892F8F938BEC94E08F93CE014496292F6F
S11315902F938F930E94C41C0F900F900F900F9065
S11315A00F900F90CE014496AC0163E081E00E945D
S11315B0160169E176E08D810E9457138F85988921
S11315C088279074892B61F18D81843048F58D8151
S11315D08F5F8D838D81882F90E0292F2F938F9398
S11315E08BEC94E0892F8F938BEC94E08F93CE0156
S11315F04496292F2F938F930E94C41C0F900F9011
S11316000F900F900F900F90CE014496AC0163E0C1
S113161081E00E94160169E176E08D810E945713F2
S11316208F85988988279071892B09F4A6C181E058
S1131630898711C08985282F30E045E3429FC00186
S1131640439F900D1124855B994FFC0111821082F8
S113165089858F5F898799858D81891758F769E115
S113166076E08D810E9457134EEC54E060E080E0F8
S11316700E941601CE014496AC0164E080E00E9411
S113168016014FED54E060E081E00E94160140EF46
S113169054E060E082E00E9416018D810E94AF1840
S11316A081E08B836AC181E08A8708C04AE06A8549
S11316B08CED95E0B5D58A858F5F8A879A858D8173
S11316C08917A0F781E08B874EC141E055E060E0C7
S11316D080E00E9416018B85882F90E0292F2F939C
S11316E08F938BEC94E0892F8F938BEC94E08F9302
S11316F0CE014496292F2F938F930E94C41C0F90E0
S11317000F900F900F900F900F90CE014496AC0164
S11317106BE080E00E94160142E155E060E081E068
S11317200E94160143E255E060E082E00E94160147
S113173052C089819A819B8B8A8B1A82198289E093
S113174091E0FC018081882F90E0382F222786E0E9
S113175091E0FC018081882F90E0822B932B9A8367
S113176089838A899B899C012095309589819A81F6
S113177082239323988B8F878F85988988279170EC
S1131780892B51F08E81882339F44F816E8181E059
S1131790EFD781E08E830FC08F8598898827927058
S11317A0892B49F08F81882331F44F816E8182E047
S11317B0DFD781E08F838E81882329F08885882371
S11317C011F482E088878F81882329F08885882313
S11317D011F481E088878E81882309F4AACF8F8150
S11317E0882309F4A6CF8B85282F30E08091160634
S11317F0482F50E080911706882F90E0840F951FA2
S1131800AC0165E3629FC001639F900D1124855B69
S1131810994FFC01518340838B85282F30E045E3A9
S1131820429FC001439F900D1124855B994FFC0199
S11318302081318180911806482F50E065E3649F30
S1131840C001659F900D1124855B994FFC01808137
S113185091812817390709F055C08885882F90E0B1
S113186001978A5E994FFC0180818230B0F08885AF
S1131870882F90E001972885222F30E021503109EC
S11318802A5E394FF901208121508A5E994FFC016B
S1131890208362E08AE046D215C08885882F90E0D4
S11318A001972885222F30E0215031092A5E394FD3
S11318B0F90120812F5F8A5E994FFC01208361E04A
S11318C08AE030D28B85282F30E080911606482F8D
S11318D050E080911706882F90E0840F951FAC018B
S11318E065E3629FC001639F900D1124855B994F4E
S11318F0FC01518340839091170680911606692F4D
S11319000E9416168B85282F30E045E3429FC001C4
S1131910439F900D1124855B994FFC0120813181F7
S113192080911806482F50E065E3649FC001659FCD
S1131930900D1124855B994FFC0180819181821760
S1131940930738F48B85809318068091180664E019
S1131950E9D11E821F82188669E176E08B85A7D6BD
S11319608B858F5F8B879B858D81891708F0ADCE22
S113197082E08B8303C0000098CD000096CDCF9306
S1131980DF931F921F92CDB7DEB784E595E02FD089
S113199061E080E0C7D162E080E0C4D163E080E030
S11319A0C1D164E080E0BED1198206C060E08981C3
S11319B049D189818F5F898389818C31B8F381E032
S11319C08A8308C040E06A8180E090E029D48A815B
S11319D08F5F8A838A818530A8F360E080E00E946B
S11319E0161600000F900F90DF91CF910895CF92BB
S11319F0DF92EF92FF92CF93DF93CDB7DEB7A0973C
S1131A000FB6F894DEBF0FBECDBF98A38F8F1A8296
S1131A101982F4C08981882F90E02EE030E0A9017A
S1131A20481B590BCA019C018F8D98A1820F931FEB
S1131A30FC0180818A836A8180E00E943C1A80E0F4
S1131A4090E0AAEFB3E48B839C83AD83BE832BEA3F
S1131A503AEA4AEA50E46B817C818D819E810E943E
S1131A60D61BDC01CB018F839887A987BA8720E036
S1131A7030E040E850E46B817C818D819E810E943E
S1131A80D61BDC01CB018B879C87AD87BE8720E00A
S1131A9030E040E85FE36F81788589859A850E940C
S1131AA0881A88230CF4A1C020E03FEF4FE757E4E5
S1131AB06B857C858D859E850E94D21B18160CF043
S1131AC06DC020E030E04AE754E46B817C818D8175
S1131AD09E810E948C1ADC01CB016C017D0120E007
S1131AE030E04AE755E4C701B6010E94D61BDC0189
S1131AF0CB018F87988BA98BBA8B20E030E040E82C
S1131B005FE36F85788989899A890E94881A882376
S1131B10D4F120E03FEF4FE757E46F857889898956
S1131B209A890E94D21B18161CF520E030E040E28E
S1131B3051E4C701B6010E94D61BDC01CB01BC01F4
S1131B40CD010E94F41ADC01CB019C8B8B8B0BC062
S1131B5080E991E00197F1F79E8B8D8B8B899C89AD
S1131B6001979C8B8B8B8B899C89892B89F73FC030
S1131B706F85788989899A890E94F41ADC01CB01DE
S1131B809C8B8B8B04C081E090E09C8B8B8B8B892E
S1131B909C890197F1F7988F8F8B29C020E030E062
S1131BA04FE753E46F81788589859A850E94D21B1B
S1131BB018168CF46B857C858D859E850E94F41A9D
S1131BC0DC01CB019A8F898F898D9A8D0197F1F76A
S1131BD09C8F8B8F10C06F81788589859A850E9430
S1131BE0F41ADC01CB018D8F02C081E08D8F8D8DC5
S1131BF08A95F1F78E8F89818F5F898389818F30F0
S1131C0008F408CF8EE290E02EE230E0F901208162
S1131C102860FC0120838EE290E02EE230E0F9019E
S1131C202081277FFC0120830000A0960FB6F89442
S1131C30DEBF0FBECDBFDF91CF91FF90EF90DF905D
S1131C40CF900895CF93DF9300D000D0CDB7DEB707
S1131C508D836E831B828E81882F90E08230910564
S1131C60B9F0833091052CF4009749F0019759F0AD
S1131C7021C08330910599F00497B9F01BC01982F3
S1131C801A821B8217C082E389831A821B8212C0C4
S1131C908EE1898382E38A8383E08B830BC082E3B2
S1131CA0898384E18A831B8205C019821A8282E3B4
S1131CB08B8300008D81882F90E09C01220F331FBD
S1131CC0280F391F2E5D384F4981F90140839C014B
S1131CD0220F331F280F391F2D5D384F4A81F90118
S1131CE040839C01220F331F280F391FC9018C5DCB
S1131CF0984F2B81FC0120831C8207C082E297E06D
S1131D000E94501A8C818F5F8C838C818C31B0F34C
S1131D10000026960FB6F894DEBF0FBECDBFDF914C
S1131D20CF910895CF92DF92EF92FF92CF93DF93FA
S1131D30CDB7DEB7A5970FB6F894DEBF0FBECDBF03
S1131D408CA36DA31C821D828DA1882F90E0019726
S1131D508E5F994FFC018081882F90E0880F991F36
S1131D60880F991F99230CF4079695958795959557
S1131D708795959587958E838DA1882F90E00197FF
S1131D808E5F994FFC018081880F880F84708F8348
S1131D908DA194D18D838E81282F30E08F81482F9F
S1131DA050E08DA1882F90E00197480F591F8D8135
S1131DB0082E000C990B840F951F220F331F220F3E
S1131DC0331F220F331F820F931F8E599A4FFC012A
S1131DD010828DA1882F90E001978E5F994F2CA1DE
S1131DE0FC0120838CA1882F90E0880F991F880F15
S1131DF0991F99230CF40796959587959595879542
S1131E00959587958E838CA1880F880F84708F8316
S1131E108DA154D18D838E81282F30E08F81482F5E
S1131E2050E08DA1882F90E00197480F591F8D81B4
S1131E30082E000C990B840F951F220F331F220FBD
S1131E40331F220F331F820F931F8E599A4F21E0A5
S1131E50FC01208319821A820DC119821B8225C0BC
S1131E608981880F89838A81882F90E024E130E07A
S1131E70281B390B8B81882F90E047E050E0BA0192
S1131E80681B790BCB01220F331F220F331F220F44
S1131E90331F820F931F8E599A4FFC0180819981C1
S1131EA0892B89838B818F5F8B838B818830C0F2F0
S1131EB089810E940B1A80E090E0AAEFB3E488873E
S1131EC09987AA87BB872BEA3AEA4AEA50E46885ED
S1131ED079858A859B850E94D61BDC01CB018C8782
S1131EE09D87AE87BF8720E030E040E850E46885F6
S1131EF079858A859B850E94D61BDC01CB01888B62
S1131F00998BAA8BBB8B20E030E040E85FE36C85C3
S1131F107D858E859F850E94881A88230CF4A1C034
S1131F2020E03FEF4FE757E4688979898A899B89E4
S1131F300E94D21B18160CF06DC020E030E04AE776
S1131F4054E4688579858A859B850E948C1ADC0116
S1131F50CB016C017D0120E030E04AE755E4C70184
S1131F60B6010E94D61BDC01CB018C8B9D8BAE8B02
S1131F70BF8B20E030E040E85FE36C897D898E8987
S1131F809F890E94881A8823D4F120E03FEF4FE70D
S1131F9057E46C897D898E899F890E94D21B18160B
S1131FA01CF520E030E040E251E4C701B6010E9494
S1131FB0D61BDC01CB01BC01CD010E94F41ADC016B
S1131FC0CB01998F888F0BC080E991E00197F1F7DD
S1131FD09B8F8A8F888D998D0197998F888F888D93
S1131FE0998D892B89F73FC06C897D898E899F895A
S1131FF00E94F41ADC01CB01998F888F04C081E020
S113200090E0998F888F888D998D0197F1F79D8F36
S11320108C8F29C020E030E04FE753E46C857D8548
S11320208E859F850E94D21B18168CF46889798945
S11320308A899B890E94F41ADC01CB019F8F8E8FC1
S11320408E8D9F8D0197F1F799A388A310C06C859D
S11320507D858E859F850E94F41ADC01CB018AA3BD
S113206002C081E08AA38AA18A95F1F78BA38A81B1
S11320708F5F8A838A81853108F4EFCE85E290E010
S113208025E230E0F90120812061FC01208385E212
S113209090E025E230E0F90120812F7EFC012083CD
S11320A00000A5960FB6F894DEBF0FBECDBFDF913A
S11320B0CF91FF90EF90DF90CF900895CF93DF936F
S11320C01F921F92CDB7DEB78A8319828A81882F27
S11320D090E001978E5F994FFC0180818A3010F463
S11320E0198298C08A81882F90E001978E5F994F5A
S11320F0FC0180818A3048F18A81882F90E0019721
S11321008E5F994FFC0180818431F8F48A81882F95
S113211090E08230910579F0833091051CF40197A9
S113212039F078C08330910549F0049751F072C0BA
S113213081E0898309C082E0898306C08EEF8983A8
S113214003C08FEF8983000065C08A81882F90E0E7
S113215001978E5F994FFC018081843148F18A8117
S1132160882F90E001978E5F994FFC0180818E311A
S1132170F8F48A81882F90E08230910579F08330D9
S113218091051CF4019739F045C08330910549F05D
S1132190049751F03FC083E0898309C081E08983BB
S11321A006C08FEF898303C08DEF8983000032C09E
S11321B08A81882F90E001978E5F994FFC0180817E
S11321C08E3140F18A81882F90E001978E5F994F7C
S11321D0FC0180818832F0F48A81882F90E082307B
S11321E0910579F0833091051CF4019739F012C000
S11321F08330910549F0049751F00CC082E0898343
S113220009C08FEF898306C081E0898303C08EEF04
S11322108983000089810F900F90DF91CF910895F9
S1132220CF92DF92EF92FF92CF93DF93CDB7DEB7D9
S1132230A6970FB6F894DEBF0FBECDBF9CA38BA3A9
S11322406DA34EA31A828BA19CA196958795969512
S11322508795969587959C01A5ECB0E20E944C1C4D
S1132260AC01529542954F7045275F7045279A01FE
S1132270ADECBCEC0E944C1C969587959695879581
S113228096958795880F991F9C01220F331F220F63
S1132290331F820F931F9A01281B390BC9018B83AB
S11322A08BA19CA196958795969587959C01ABE704
S11322B0B4E10E944C1CAC01569547959A01ADECD3
S11322C0BCEC0E944C1C969587959695879596959F
S11322D08795880F991F9C01220F331F220F331FEC
S11322E0820F931FFA01E81BF90BCF018C838BA19A
S11322F09CA19C01ADECBCEC0E944C1CAC0156951D
S1132300479556954795569547959A01ADECBCEC83
S11323100E944C1C969587959695879596958795DA
S1132320880F991F9C01220F331F220F331F820F26
S1132330931F9A01281B390BC9018D834BA15CA102
S11323409A01ADECBCEC0E944C1C96958795969531
S1132350879596958795880F991F9C01220F331FA7
S1132360220F331F820F931FFA01E81BF90BCF01D1
S11323708E838EA1882309F450C08DA1882F90E00C
S11323800197880F991F880F991F2B81222F30E006
S11323902C5F3D4FF90120818A5F994FFC01208316
S11323A08DA1882F90E00197880F991F880F991F9E
S11323B001962C81222F30E02C5F3D4FF9012081C2
S11323C08A5F994FFC0120838DA1882F90E00197AB
S11323D0880F991F880F991F02962D81222F30E0B4
S11323E02C5F3D4FF90120818A5F994FFC012083C6
S11323F08DA1882F90E00197880F991F880F991F4E
S113240003962E81222F30E02C5F3D4FF90120816D
S11324108A5F994FFC0120833BC08DA1882F90E0F7
S11324200197880F991F880F991F20910E028A5FC8
S1132430994FFC0120838DA1882F90E00197880F8C
S1132440991F880F991F019620910E028A5F994F58
S1132450FC0120838DA1882F90E00197880F991F9C
S1132460880F991F029620910E028A5F994FFC01F2
S113247020838DA1882F90E00197880F991F880FE2
S1132480991F039620910E028A5F994FFC012083C5
S11324901982E9C08981882F90E020E130E0A90108
S11324A0481B590BCA018A5F994FFC018081682F30
S11324B082E0E2D780E090E0AAEFB3E48F839887CC
S11324C0A987BA872BEA3AEA4AEA50E46F81788509
S11324D089859A850E94D61BDC01CB018B879C875A
S11324E0AD87BE8720E030E040E850E46F81788516
S11324F089859A850E94D61BDC01CB018F87988B36
S1132500A98BBA8B20E030E040E85FE36B857C85E3
S11325108D859E85FDD788230CF49CC020E03FEF79
S11325204FE757E46F85788989899A890E94D21B7D
S113253018160CF06AC020E030E04AE754E46F81DA
S1132540788589859A85E8D7DC01CB016C017D010A
S113255020E030E04AE755E4C701B6010E94D61BEB
S1132560DC01CB018B8B9C8BAD8BBE8B20E030E0F0
S113257040E85FE36B897C898D899E89C9D788236C
S1132580CCF120E03FEF4FE757E46B897C898D89DC
S11325909E890E94D21B18161CF520E030E040E210
S11325A051E4C701B6010E94D61BDC01CB01BC017A
S11325B0CD010E94F41ADC01CB01988F8F8B0BC0E4
S11325C080E991E00197F1F79A8F898F8F89988D2F
S11325D00197988F8F8B8F89988D892B89F73CC0B1
S11325E06B897C898D899E89FFD7DC01CB01988F0B
S11325F08F8B04C081E090E0988F8F8B8F89988DAA
S11326000197F1F79C8F8B8F27C020E030E04FE7D4
S113261053E46B857C858D859E850E94D21B18169C
S113262084F46F85788989899A89DED7DC01CB01A6
S11326309E8F8D8F8D8D9E8D0197F1F798A38F8F2F
S11326400FC06B857C858D859E85CED7DC01CB0143
S113265089A302C081E089A389A18A95F1F78AA39D
S113266089818F5F89838981813108F413CF82E066
S113267091E022E031E0F90120812860FC0120830F
S113268082E091E022E031E0F9012081277FFC0122
S113269020830000A6960FB6F894DEBF0FBECDBF10
S11326A0DF91CF91FF90EF90DF90CF900895CF937B
S11326B0DF9300D01F921F92CDB7DEB78B837D834B
S11326C06C8381E0898316C08981282F30E045E33B
S11326D0429FC001439F900D11242C813D81820FA4
S11326E0931FFC0182A993A941E0698199DD898145
S11326F08F5F898399818B81891730F78B818F5FF5
S11327008A8316C08A81282F30E045E3429FC001A6
S1132710439F900D11242C813D81820F931FFC0156
S113272082A993A940E06A817BDD8A818F5F8A83D5
S11327308A81853038F300000F900F900F900F902E
S11327400F90DF91CF910895CF93DF931F92CDB770
S1132750DEB719820E94B61C26E030E0B9010E945F
S1132760391C8F5F898389810F90DF91CF91089500
S1132770CF93DF93CDB7DEB7C154D1090FB6F89428
S1132780DEBF0FBECDBF8FAFCE01805C9F4FFC017B
S11327906083CE018F5B9F4FFC0140838AE08A8374
S11327A08FAD813009F08CC0CE018F5B9F4FFC014F
S11327B08081882309F484C01B827AC0C5DF8983A1
S11327C080911706682F898131D28B81882F90E000
S11327D0880F991F0F96092E000CAA0BBB0BBC0186
S11327E0CD0130D7DC01CB018B8B9C8BAD8BBE8BA9
S11327F020E030E04AE755E46B897C898D899E8925
S1132800D5D7DC01CB018F8B988FA98FBA8F20E0AD
S113281030E040E85FE36F89788D898D9A8D78D6B2
S113282088230CF438C020E03FEF4FE757E46F896A
S1132830788D898D9A8DB6D718161CF520E030E076
S113284040E251E46B897C898D899E89AFD7DC0194
S1132850CB01BC01CD01C8D6DC01CB019C8F8B8F91
S11328600BC080E991E00197F1F79E8F8D8F8B8DDE
S11328709C8D01979C8F8B8F8B8D9C8D892B89F7D9
S113288014C06F89788D898D9A8DAED6DC01CB0109
S11328909C8F8B8F04C081E090E09C8F8B8F8B8DFD
S11328A09C8D0197F1F798A38F8F8B818F5F8B831A
S11328B08B81823308F482CF898180931606ABC161
S11328C08FAD813009F08AC0CE018F5B9F4FFC0130
S11328D08081882309F082C01C8278C035DF898317
S11328E060E08981A3D18C81882F90E0880F991FA3
S11328F00F96092E000CAA0BBB0BBC01CD01A2D66E
S1132900DC01CB018F839887A987BA8720E030E068
S11329104AE755E46F81788589859A8547D7DC0134
S1132920CB0189A39AA3ABA3BCA320E030E040E889
S11329305FE369A17AA18BA19CA1EAD588230CF459
S113294038C020E03FEF4FE757E469A17AA18BA19B
S11329509CA128D718161CF520E030E040E251E491
S11329606F81788589859A8521D7DC01CB01BC01EB
S1132970CD013AD6DC01CB019EA38DA30BC080E927
S113298091E00197F1F798A78FA38DA19EA10197DC
S11329909EA38DA38DA19EA1892B89F714C069A143
S11329A07AA18BA19CA120D6DC01CB019EA38DA38F
S11329B004C081E090E09EA38DA38DA19EA1019708
S11329C0F1F79AA789A78C818F5F8C838C818233DE
S11329D008F484CF8981809316061DC18FAD82309F
S11329E009F08BC0CE01805C9F4FFC01808188235D
S11329F009F483C01D8279C0A7DE8A8380911606FC
S1132A006A8114D18D81882F90E0880F991F0F96C9
S1132A10092E000CAA0BBB0BBC01CD0113D6DC01A3
S1132A20CB018B879C87AD87BE8720E030E04AE7E7
S1132A3055E46B857C858D859E85B8D6DC01CB01FC
S1132A408BA79CA7ADA7BEA720E030E040E85FE3DA
S1132A506BA57CA58DA59EA55BD588230CF438C0F9
S1132A6020E03FEF4FE757E46BA57CA58DA59EA51D
S1132A7099D618161CF520E030E040E251E46B854D
S1132A807C858D859E8592D6DC01CB01BC01CD0170
S1132A90ABD5DC01CB0198AB8FA70BC080E991E0EB
S1132AA00197F1F79AAB89AB8FA598A9019798ABD9
S1132AB08FA78FA598A9892B89F714C06BA57CA52E
S1132AC08DA59EA591D5DC01CB0198AB8FA704C041
S1132AD081E090E098AB8FA78FA598A90197F1F7B3
S1132AE09CAB8BAB8D818F5F8D838D81823308F49A
S1132AF083CF8A81809317068EC08FAD823009F010
S1132B008AC0CE01805C9F4FFC018081882309F03C
S1132B1082C01E8278C018DE8A836A8180E086D0F3
S1132B208E81882F90E0880F991F0F96092E000C34
S1132B30AA0BBB0BBC01CD0185D5DC01CB018F8772
S1132B40988BA98BBA8B20E030E04AE755E46F8577
S1132B50788989899A892AD6DC01CB018DAB9EAB11
S1132B60AFABB8AF20E030E040E85FE36DA97EA9E9
S1132B708FA998ADCDD488230CF438C020E03FEF62
S1132B804FE757E46DA97EA98FA998AD0BD6181607
S1132B901CF520E030E040E251E46F8578898989B2
S1132BA09A8904D6DC01CB01BC01CD011DD5DC0121
S1132BB0CB019AAF89AF0BC080E991E00197F1F79F
S1132BC09CAF8BAF89AD9AAD01979AAF89AF89ADB0
S1132BD09AAD892B89F714C06DA97EA98FA998ADE8
S1132BE003D5DC01CB019AAF89AF04C081E090E04A
S1132BF09AAF89AF89AD9AAD0197F1F79EAF8DAFCA
S1132C008E818F5F8E838E81823308F484CF8A8194
S1132C108093170600C00000CF5BDF4F0FB6F89417
S1132C20DEBF0FBECDBFDF91CF910895CF92DF926B
S1132C30EF92FF92CF93DF93CDB7DEB7EA970FB64B
S1132C40F894DEBF0FBECDBF89AF6AAF8AAD882FBF
S1132C5090E08C5F9D4FFC018081682F83E00CD451
S1132C6080E090E0AAEFB3E489839A83AB83BC83CA
S1132C702BEA3AEA4AEA50E469817A818B819C81A1
S1132C8095D5DC01CB0189A39AA3ABA3BCA320E017
S1132C9030E040E850E469817A818B819C8186D55B
S1132CA0DC01CB018DA39EA3AFA3B8A720E030E045
S1132CB040E85FE369A17AA18BA19CA129D4882370
S1132CC00CF496C020E03FEF4FE757E46DA17EA1DE
S1132CD08FA198A567D518160CF066C020E030E0E7
S1132CE04AE754E469817A818B819C8115D4DC01A3
S1132CF0CB016C017D0120E030E04AE755E4C701D7
S1132D00B60154D5DC01CB0189A79AA7ABA7BCA710
S1132D1020E030E040E85FE369A57AA58BA59CA597
S1132D20F7D38823B4F120E03FEF4FE757E469A5D8
S1132D307AA58BA59CA536D518160CF520E030E0B5
S1132D4040E251E4C701B60131D5DC01CB01BC013D
S1132D50CD014AD4DC01CB019EA78DA70BC080E92D
S1132D6091E00197F1F798AB8FA78DA59EA50197E8
S1132D709EA78DA78DA59EA5892B89F73BC069A524
S1132D807AA58BA59CA530D4DC01CB019EA78DA789
S1132D9004C081E090E09EA78DA78DA59EA5019714
S1132DA0F1F79AAB89AB26C020E030E04FE753E45B
S1132DB069A17AA18BA19CA1F5D4181684F46DA104
S1132DC07EA18FA198A510D4DC01CB019CAB8BAB69
S1132DD08BA99CA90197F1F79EAB8DAB0FC069A19C
S1132DE07AA18BA19CA100D4DC01CB018FAB02C0E2
S1132DF081E08FAB8FA98A95F1F788AF89AD882FD1
S1132E0090E08C5F9D4FFC018081682F83E034D378
S1132E1080E090E0AAEFB3E48D839E83AF83B8870C
S1132E202BEA3AEA4AEA50E46D817E818F819885E3
S1132E30BDD4DC01CB0189879A87AB87BC8720E0AE
S1132E4030E040E850E46D817E818F819885AED476
S1132E50DC01CB018D879E87AF87B88B20E030E003
S1132E6040E85FE369857A858B859C8551D3882307
S1132E700CF496C020E03FEF4FE757E46D857E8564
S1132E808F8598898FD418160CF066C020E030E046
S1132E904AE754E46D817E818F8198853DD3DC01BE
S1132EA0CB016C017D0120E030E04AE755E4C70125
S1132EB0B6017CD4DC01CB01898B9A8BAB8BBC8BA8
S1132EC020E030E040E85FE369897A898B899C8956
S1132ED01FD38823B4F120E03FEF4FE757E469891B
S1132EE07A898B899C895ED418160CF520E030E031
S1132EF040E251E4C701B60159D4DC01CB01BC0165
S1132F00CD0172D3DC01CB019E8B8D8B0BC080E98C
S1132F1091E00197F1F7988F8F8B8D899E890197A6
S1132F209E8B8D8B8D899E89892B89F73BC06989FE
S1132F307A898B899C8958D3DC01CB019E8B8D8B3C
S1132F4004C081E090E09E8B8D8B8D899E890197D2
S1132F50F1F79A8F898F26C020E030E04FE753E4E1
S1132F6069857A858B859C851DD4181684F46D85B6
S1132F707E858F85988938D3DC01CB019C8F8B8F1C
S1132F808B8D9C8D0197F1F79E8F8D8F0FC0698576
S1132F907A858B859C8528D3DC01CB018F8F02C079
S1132FA081E08F8F8F8D8A95F1F788A385E091E07A
S1132FB025E031E0F90120812860FC01208385E0CF
S1132FC091E025E031E0F9012081277FFC01208395
S1132FD00000EA960FB6F894DEBF0FBECDBFDF91B6
S1132FE0CF91FF90EF90DF90CF900895CF93DF9330
S1132FF0CDB7DEB78CE790E020E4FC0120838EE7B8
S113300090E02FE0FC0120838AE790E027E8FC01B0
S113301020830000DF91CF910895CF93DF931F9217
S1133020CDB7DEB789838CE790E02CE730E0F90177
S11330302081207FFC0120838CE790E02CE730E0A6
S1133040F9012081322F29812770232BFC01208351
S11330508BE790E02BE730E0F9012081277FFC012A
S113306020838BE790E02BE730E0F9012081322FB9
S113307029812870232BFC0120838AE790E02AE72A
S113308030E0F90120812064FC01208300008AE7FC
S113309090E0FC018081882F90E080749927892B2F
S11330A0B1F788E790E0FC01808191810F90DF9176
S11330B0CF910895CF93DF93CDB7DEB781E290E04F
S11330C02FEFFC01208384E290E02FEFFC012083AA
S11330D085E290E020E2FC01208387E290E02FEF7C
S11330E0FC01208388E290E02FE3FC0120838AE244
S11330F090E02FEFFC0120838BE290E0FC01108232
S11331008DE290E02FEFFC0120838EE290E020E13D
S1133110FC01208380E390E02EEFFC01208381E01A
S113312091E02FEFFC01208382E091E020E1FC019B
S1133130208384E091E02FEFFC01208385E091E07F
S113314020E1FC01208387E091E0FC0110828AE009
S113315091E0FC0110820000DF91CF910895CF939C
S1133160DF93CDB7DEB7EF970FB6F894DEBF0FBE8F
S1133170CDBF8FAF80E2E4E3F5E0DE015F9601901E
S11331800D928A95E1F7198208C181E08A8398C07B
S11331908A81482F50E08A81282F30E065E3629FBE
S11331A0C001639F900D1124855B994FFC01208120
S11331B031818981882F90E0880F991FBE016F5F4C
S11331C07F4F860F971F4E96FC0180819181280FB7
S11331D0391F65E3649FC001659F900D1124855BD1
S11331E0994FFC013183208380E090E0A6E9B2E4AA
S11331F08F839887A987BA8720E030E04AE755E4AF
S11332006F81788589859A85D1D2DC01CB018B8742
S11332109C87AD87BE8720E030E040E85FE36B85A4
S11332207C858D859E8574D188230CF438C020E07C
S11332303FEF4FE757E46B857C858D859E85B2D241
S113324018161CF520E030E040E251E46F817885E7
S113325089859A85ABD2DC01CB01BC01CD01C4D1F7
S1133260DC01CB01988B8F870BC080E991E001973B
S1133270F1F79A8B898B8F8598890197988B8F8723
S11332808F859889892B89F714C06B857C858D85FA
S11332909E85AAD1DC01CB01988B8F8704C081E085
S11332A090E0988B8F878F8598890197F1F79C8B95
S11332B08B8B69E176E08FADFAD98A818F5F8A833F
S11332C09A818FAD891708F063CF80E090E0A8E47D
S11332D0B2E48B839C83AD83BE8320E030E04AE775
S11332E055E46B817C818D819E8160D2DC01CB01B0
S11332F08D8B9E8BAF8BB88F20E030E040E85FE38E
S11333006D897E898F89988D03D188230CF438C008
S113331020E03FEF4FE757E46D897E898F89988DD0
S113332041D218161CF520E030E040E251E46B81F4
S11333307C818D819E813AD2DC01CB01BC01CD011F
S113334053D1DC01CB019A8F898F0BC080E991E0C6
S11333500197F1F79C8F8B8F898D9A8D01979A8FA6
S1133360898F898D9A8D892B89F714C06D897E89FF
S11333708F89988D39D1DC01CB019A8F898F04C054
S113338081E090E09A8F898F898D9A8D0197F1F76A
S11333909E8F8D8F89818F5F89838981803108F425
S11333A0F4CE0000EF960FB6F894DEBF0FBECDBF8B
S11333B0DF91CF9108958CB581658CBD8DB5816009
S11333C08DBD0895E4ECF0E01182108230EC30936E
S11333D0C20028E12093C10090E091838083E4ED52
S11333E0F0E0118210823093D2002093D1009183B7
S11333F08083E4E3F1E01182108230933201209360
S11334003101918380830895CF93C82FD4DF8C2F0B
S1133410D9DFCF9108958EBD0DB407FEFDCF089579
S11334209091C00095FFFCCF8093C6008091C000AE
S11334308823E4F708959091C80095FFFCCF80930A
S1133440CE008091C8008823E4F708959091D000BD
S113345095FFFCCF8093D6008091D0008823E4F7B9
S113346008959091300195FFFCCF809336018091AF
S113347030018823E4F70895813049F028F0823040
S113348049F0833051F00895862FCACF0895862FCE
S1133490D2CF0895862FDACF0895862FE2CF0895EC
S11334A0FC0182B18E7F82B981B1816081B9F894C7
S11334B02CE130E021C00190008007D0029005D0BB
S11334C001900190019001D016C007D006D005D01C
S11334D004D003D002D001D000C0109A001C000018
S11334E0000008F010980000000000000000000038
S11334F008F4109808959A01A90141505109232B09
S113350009F0D9CF789480EB94E00197F1F708950E
S1133510D4D008F481E008950CD00AC102D140F05F
S1133520F9D030F021F45F3F19F0EBC0511134C1F0
S1133530EEC00FD198F39923C9F35523B1F3951B2A
S1133540550BBB27AA2762177307840738F09F5FC0
S11335505F4F220F331F441FAA1FA9F333D00E2E2F
S11335603AF0E0E830D091505040E695001CCAF79C
S113357029D0FE2F27D0660F771F881FBB1F261761
S113358037074807AB07B0E809F0BB0B802DBF0134
S1133590FF2793585F4F2AF09E3F510568F0B1C052
S11335A0FBC05F3FECF3983EDCF386957795679517
S11335B0B795F7959F5FC9F7880F911D96958795E5
S11335C097F90895E1E0660F771F881FBB1F621704
S11335D073078407BA0720F0621B730B840BBA0BC2
S11335E0EE1F88F7E0950895BCD088F09F5790F0BF
S11335F0B92F9927B751A0F0D1F0660F771F881F14
S1133600991F1AF0BA95C9F712C0B13081F0C3D02E
S1133610B1E00895C0C0672F782F8827B85F39F0CC
S1133620B93FCCF3869577956795B395D9F73EF472
S113363090958095709561957F4F8F4F9F4F08951A
S1133640E89409C097FB3EF4909580957095619538
S11336507F4F8F4F9F4F9923A9F0F92F96E9BB27EE
S11336609395F695879577956795B795F111F8CF6A
S1133670FAF4BB0F11F460FF1BC06F5F7F4F8F4FD5
S11336809F4F16C0882311F096E911C0772321F0CB
S11336909EE8872F762F05C0662371F096E8862F63
S11336A070E060E02AF09A95660F771F881FDAF7BA
S11336B0880F9695879597F90895990F0008550FE7
S11336C0AA0BE0E8FEEF16161706E807F907C0F0A4
S11336D012161306E407F50798F0621B730B840BAC
S11336E0950B39F40A2661F0232B242B252B21F486
S11336F008950A2609F4A140A6958FEF811D811D26
S1133700089597F99F6780E870E060E008959FEF5F
S113371080EC089500240A94161617061806090664
S1133720089500240A941216130614060506089533
S1133730092E0394000C11F4882352F0BB0F40F4BB
S1133740BF2B11F460FF04C06F5F7F4F8F4F9F4FFB
S1133750089557FD9058440F551F59F05F3F71F07D
S11337604795880F97FB991F61F09F3F79F08795E4
S11337700895121613061406551FF2CF4695F1DF6D
S113378008C0161617061806991FF1CF86957105FD
S1133790610508940895E894BB2766277727CB0131
S11337A097F908958ADF08F48FEF08950BD0C0CFFE
S11337B0B1DF28F0B6DF18F0952309F0A2CFA7CF28
S11337C01124EACFC6DFA0F3959FD1F3950F50E003
S11337D0551F629FF001729FBB27F00DB11D639FBF
S11337E0AA27F00DB11DAA1F649F6627B00DA11D65
S11337F0661F829F2227B00DA11D621F739FB00D0B
S1133800A11D621F839FA00D611D221F749F33277A
S1133810A00D611D231F849F600D211D822F762F13
S11338206A2F11249F5750408AF0E1F088234AF010
S1133830EE0FFF1FBB1F661F771F881F915050405C
S1133840A9F79E3F510570F05CCFA6CF5F3FECF324
S1133850983EDCF3869577956795B795F795E79548
S11338609F5FC1F7FE2B880F911D9695879597F959
S1133870089597FB072E16F4009406D077FD08D020
S11338801AD007FC05D03EF4909581959F4F08957A
S1133890709561957F4F0895A29FB001B39FC001B9
S11338A0A39F700D811D1124911DB29F700D811D68
S11338B01124911D0895AA1BBB1B51E107C0AA1F27
S11338C0BB1FA617B70710F0A61BB70B881F991FBD
S11338D05A95A9F780959095BC01CD0108958F92D2
S11338E09F92AF92BF92CF92DF92EF92FF92CF93CB
S11338F0DF93EC01688179818A819B81611571056F
S11339008105910521F464E279ED8BE597E02DE1E1
S113391033EF41E050E013D349015A019B01AC015C
S1133920A7EAB1E428D36B017C01ACEEB4EFA501A6
S113393094012DD3DC01CB018C0D9D1DAE1DBF1D4B
S1133940B7FF03C00197A109B04888839983AA836C
S1133950BB839F77DF91CF91FF90EF90DF90CF9063
S1133960BF90AF909F908F900895B9CF80E092E080
S1133970B6CFA0E0B0E08093000290930102A09340
S11339800202B093030208950F931F93CF93DF9322
S1133990CDB7DEB72E970FB6F894DEBF0FBECDBFFE
S11339A00E891F8986E08C831A8309838FEF9FE732
S11339B09E838D83AE01465E5F4F688D798DCE0107
S11339C0019610D0EF81F885E00FF11F10822E963A
S11339D00FB6F894DEBF0FBECDBFDF91CF911F911C
S11339E00F9108952F923F924F925F926F927F9220
S11339F08F929F92AF92BF92CF92DF92EF92FF92FB
S1133A000F931F93CF93DF93CDB7DEB72B970FB6EA
S1133A10F894DEBF0FBECDBF6C017B018A01FC01AF
S1133A2017821682838181FFBFC1CE0101963C01BA
S1133A30F6019381F70193FD859193FF81917F01B5
S1133A40882309F4ADC1853239F493FD859193FF40
S1133A5081917F01853221F4B60190E0D6D1E8CF7F
S1133A60912C212C312CFFE1F315D8F08B3279F015
S1133A7038F4803279F08332A1F4232D20611DC003
S1133A808D3261F0803369F4232D216016C0832DBB
S1133A908260382EE32DE4603E2E2AC0F32DF860B8
S1133AA01DC037FC2DC020ED280F2A3040F08E3287
S1133AB0B9F436FC75C1232D2064322E19C036FEAC
S1133AC006C08AE0989E200D1124922E11C0EAE0CF
S1133AD02E9E200D1124222EF32DF0623F2E08C0BD
S1133AE08C3621F4832D8068382E02C0883641F448
S1133AF0F70193FD859193FF81917F018111B3CFEC
S1133B00982F9F7D9554933028F40C5F1F4F9FE3AB
S1133B1099830DC0833631F0833771F0833509F012
S1133B2055C020C0F801808189830E5F1F4F88240F
S1133B308394912C530112C02801F2E04F0E511CC2
S1133B40F801A080B18036FE03C0692D70E002C088
S1133B506FEF7FEFC5014ED14C018201F32DFF774A
S1133B603F2E15C0280122E0420E511CF801A0800E
S1133B70B18036FE03C0692D70E002C06FEF7FEFA5
S1133B80C5012DD14C01F32DF0683F2E820133FC89
S1133B9019C0822D90E088169906A0F4B60180E23F
S1133BA090E033D12A94F5CFF50137FC859137FEA7
S1133BB081915F01B60190E028D121102A9421E07F
S1133BC0821A91088114910479F7E1C0843611F0C6
S1133BD0893639F5F80137FE07C060817181828129
S1133BE093810C5F1F4F08C060817181072E000C08
S1133BF0880B990B0E5F1F4FF32DFF763F2E97FF17
S1133C0009C090958095709561957F4F8F4F9F4F18
S1133C10F0683F2E2AE030E0A30133D1882E8618C5
S1133C2044C0853731F4232D2F7EB22E2AE030E0B4
S1133C3025C0932D997FB92E8F36C1F018F488359D
S1133C4079F0AEC0803719F0883721F0A9C0E92F88
S1133C50E061BE2EB4FE0DC0FB2DF460BF2E09C082
S1133C6034FE0AC0292F2660B22E06C028E030E0B8
S1133C7005C020E130E002C020E132E0F801B7FEE7
S1133C8007C060817181828193810C5F1F4F06C0E0
S1133C906081718180E090E00E5F1F4FA301F1D03D
S1133CA0882E8618FB2DFF773F2E36FE0DC0232D60
S1133CB02E7FA22E891458F434FE0BC032FC09C0A6
S1133CC0832D8E7EA82E05C0B82CA32C03C0B82C3F
S1133CD001C0B92CA4FE0FC0FE01E80DF11D8081C6
S1133CE0803321F49A2D997EA92E09C0A2FE06C024
S1133CF0B394B39404C08A2D867809F0B394A3FCDA
S1133D0010C0A0FE06C0B21480F4280C922C9B189C
S1133D100DC0B21458F4B60180E290E076D0B394AA
S1133D20F8CFB21418F42B1802C0982C212CA4FE3E
S1133D300FC0B60180E390E068D0A2FE16C0A1FCDB
S1133D4003C088E790E002C088E590E0B6010CC0AB
S1133D508A2D867851F0A1FE02C08BE201C080E278
S1133D60A7FC8DE2B60190E050D0891430F4B6017E
S1133D7080E390E04AD09A94F8CF8A94F301E80D56
S1133D80F11D8081B60190E040D08110F6CF222051
S1133D9009F44ECEB60180E290E037D02A94F7CFF2
S1133DA0F6018681978102C08FEF9FEF2B960FB6A5
S1133DB0F894DEBF0FBECDBFDF91CF911F910F915D
S1133DC0FF90EF90DF90CF90BF90AF909F908F9037
S1133DD07F906F905F904F903F902F900895FC01DB
S1133DE00590615070400110D8F7809590958E0F22
S1133DF09F1F0895FC016150704001900110D8F795
S1133E00809590958E0F9F1F08950F931F93CF93C6
S1133E10DF93FB01238121FD03C08FEF9FEF2CC0B3
S1133E2022FF16C0468157812481358142175307EA
S1133E3044F4A081B1819D012F5F3F4F31832083E2
S1133E408C93268137812F5F3F4F3783268314C09D
S1133E508B01EC01FB010084F185E02D1995892B80
S1133E60E1F6D80116968D919C91179701961796B5
S1133E709C938E931697CE01DF91CF911F910F9152
S1133E800895FA01AA27283051F1203181F1E894EC
S1133E906F936E7F6E5F7F4F8F4F9F4FAF4FB1E039
S1133EA03ED0B4E03CD0670F781F891F9A1FA11D34
S1133EB0680F791F8A1F911DA11D6A0F711D811D35
S1133EC0911DA11D20D009F468943F912AE0269FFA
S1133ED011243019305D3193DEF6CF010895462F59
S1133EE04770405D4193B3E00FD0C9F7F6CF462F3A
S1133EF04F70405D4A3318F0495D31FD40524193A3
S1133F0002D0A9F7EACFB4E0A6959795879577955F
S1133F106795BA95C9F700976105710508959B01E6
S1133F20AC010A2E06945795479537952795BA956F
S1133F30C9F7620F731F841F951FA01D0895052ED6
S1133F4097FB16F400940FD057FD05D024D007FC3E
S1133F5002D046F408C050954095309521953F4FC6
S1133F604F4F5F4F089590958095709561957F4F61
S1133F708F4F9F4F089590DCA59F900DB49F900D97
S1133F80A49F800D911D11240895B7FFF4CFF3DF92
S1133F90821B930B0895A1E21A2EAA1BBB1BFD01E1
S1133FA00DC0AA1FBB1FEE1FFF1FA217B307E40714
S1133FB0F50720F0A21BB30BE40BF50B661F771F6C
S1133FC0881F991F1A9469F760957095809590954C
S1113FD09B01AC01BD01CF010895F894FFCF11
S1133FDE010000003F065B4F666D7D077F6F00801A
S1133FEE391C526974380F0106537069656C657219
S1133FFE203100537069656C65722032005370690C
S113400E656C6572203300537069656C657220347B
S113401E0045696E67616E677368616C6C65004B11
S113402E616E7A6C6569310056656C6F6B656C6C8C
S113403E6572004C6170746F706765627565687245
S113404E005A65756768617573737472617373650D
S113405E00526175636865727A656C7400436861B9
S113406E6E6365310050617573656E7261756D00B6
S113407E4761726465726F62650047656661656E5D
S113408E676E69730048657272656E205743004906
S113409E6E666F726D6174696B6469656E737400BC
S11340AE46726175656E205743004C656872657281
S11340BE20574300466F746F7A656E7472756D0087
S11340CE42465320506F6C696D656368616E696B0F
S11340DE6572004B616E7A6C6569203200424653FC
S11340EE204175746F6D6174696B6572004246533D
S11340FE20456C656B74726F6E696B6572004672E7
S113410E65697061726B656E004772756E64617578
S113411E7362696C64756E67204175746F6D61743A
S113412E696B6572004368616E636520320050727C
S113413E6F64756B74696F6E204175746F6D617405
S113414E696B6572004D6563686174726F6E696B3D
S113415E204C61626F7200546563686E696B756D95
S113416E004C6167657220506F6C796D6563686190
S113417E6E696B6572004C61676572204175746F70
S113418E6D6174696B6572005075747A6469656EDD
S113419E7374004C6167657220456C656B74726F45
S11341AE6E696B65720047656820696E732047659A
S11341BE6661656E676E6973004772756E646175CC
S11341CE7362696C64756E6720456C656B74726F8F
S11341DE6E696B65720050726F64756B74696F6E85
S11341EE20456C656B74726F6E696B657200456EFB
S11341FE747769636B6C756E6720456C656B74724E
S113420E6F6E696B6572004765776572626573637D
S113421E68756C65004368616E6365203300477290
S113422E756E6461757362696C64756E6720506F28
S113423E6C796D656368616E696B65720053636852
S113424E756C6D6174657269616C6B6F7374656E98
S113425E0050726F64756B74696F6E20506F6C6969
S113426E6D656368616E696B65720020416E7A617B
S113427E686C20537069656C657220002D203220A5
S113428E537069656C657220202B007765697465BF
S113429E722054617374652053200025750020200C
S11342AE20202020537069656C6572202020002028
S11342BE2020537461727467656C64202020200082
S11342CE2077697264207665727465696C74202037
S11342DE00202020537069656C65722058202020C0
S11342EE2000202020207775657266656C7420206E
S11342FE202000202058203D207775657266656C5D
S113430E6E202000F401F401640064006400640073
S113431E320014000A000A00050001000100010029
S107432E0100010085
S9030000FC
