:1000000079C0000097C0000095C0000093C00000B8
:1000100091C000008FC000008DC000008BC00000A8
:1000200089C0000087C0000085C0000083C00000B8
:1000300081C000007FC000007DC000007BC00000C8
:1000400079C0000077C0000075C0000073C00000D8
:1000500071C000006FC000006DC000006BC00000E8
:1000600069C0000067C0000065C0000063C00000F8
:1000700061C000005FC000005DC000005BC0000008
:1000800059C0000057C0000055C0000053C0000018
:1000900051C000004FC000004DC000004BC0000028
:1000A00049C0000047C0000045C0000043C0000038
:1000B00041C000003FC000003DC000003BC0000048
:1000C00039C0000037C0000035C0000033C0000058
:1000D00031C000002FC000002DC000002BC0000068
:1000E00029C00000C6094E0E0D0B4E0ED60C1B0D7E
:1000F000210DA70B11241FBECFEFD1E2DEBFCDBF74
:1001000000E00CBF15E0A0E0B2E0E8EDFAE800E0A6
:100110000BBF02C007900D92AA39B107D9F727E0AB
:10012000AAE9B5E001C01D92A83CB207E1F73ED1B3
:100130000C946A4565CF98B19F7E98B998B19B7F22
:1001400098B98BB998B1926098B98150833038F4DE
:100150008FE291E10197F1F700C0000003C090EA3F
:100160009A95F1F788B18D7F88B908951F93CF9341
:10017000DF93CDB7DEB729970FB6F894DEBF0FBE79
:10018000CDBF8FEF8AB987B988B1806288B92FEF68
:1001900080E792E0215080409040E1F700C00000ED
:1001A00088B18E7F88B989E0E1E1F2E0DE01119645
:1001B00001900D928A95E1F710E00AC0E1E0F0E0CD
:1001C000EC0FFD1FE10FF11D808190E0B4DF1F5F98
:1001D0001930A0F329960FB6F894DEBF0FBECDBF3D
:1001E000DF91CF911F91089598B1906198B998B11E
:1001F0009B7F98B98BB988B1826088B980EA8A956B
:10020000F1F788B18D7F88B9089581E094DF8FE997
:100210009FE00197F1F700C00000089582E08BCFC6
:100220000895417070E0660F771F6270282F30E0EC
:10023000220F331F220F331F2470842F862B822B13
:10024000886079CF08950F931F93CF938A01282F49
:1002500030E0285F3F4F862F90E1299F800D1124C9
:100260006ADFC0E002C0C0DFCF5FF801EC0FF11D14
:1002700080818111F8CFCF911F910F910895CF9375
:10028000C42F282F30E0285F3F4F862F90E1299F11
:10029000800D112450DF8C2FA7DFCF91089566DFEA
:1002A000B4DFBCDF40E060E081E0BBCF0895CF93D6
:1002B000DF931F921F92CDB7DEB79A83898389811E
:1002C0009A81C5969C018AE0EAE1F2E0D9010190A9
:1002D0000D928A95E1F789819A81C59627E534E0E8
:1002E000FC0133AB22AB89819A81C59628E2FC01DF
:1002F00024AB89819A8186599F4F9C018AE0E4E270
:10030000F2E0D90101900D928A95E1F789819A81F5
:1003100086599F4F2EEA38E0FC0133AB22AB89812E
:100320009A8186599F4F28E2FC0124AB89819A81EA
:1003300081569F4F9C018AE0EEE2F2E0D9010190E4
:100340000D928A95E1F789819A8181569F4F25E028
:100350003DE0FC0133AB22AB89819A8181569F4FEE
:1003600028E2FC0124AB89819A818C529F4F9C0129
:100370008AE0E8E3F2E0D90101900D928A95E1F775
:1003800089819A818C529F4F2CE531E1FC0133AB7E
:1003900022AB89819A818C529F4F28E2FC0124ABC9
:1003A00000000F900F90DF91CF9108950F931F934E
:1003B000CF93DF93CDB7DEB7C753DD400FB6F894C8
:1003C000DEBF0FBECDBF81E089831A8281E08B83BF
:1003D0001C82CE0183579F4F22E0FC012083CE0177
:1003E00083579F4F24E0FC012183CE0183579F4F09
:1003F00020E2FC012283CE0183579F4F20E8FC01BD
:100400002383CE018F569F4F21E0FC012083CE0134
:100410008F569F4F28E0FC012183CE018F569F4FBE
:1004200020E1FC012283CE018F569F4F20E4FC0186
:100430002383CE018B569F4F26E0FC01322F119271
:100440003A95E9F71D821E821A861FA61D861E8612
:100450001F86188ACE0185569F4F28E0E5EDF3E010
:10046000DC0101900D922A95E1F7198ACE018D5594
:100470009F4F28E0FC01322F11923A95E9F71A8A32
:100480001B8A18AA19AA1AAA1BAACE0185559F4F22
:10049000FC011082118212821CAA85E08C8B1D8ABD
:1004A0001E8A1DAA1EAA188E1F8A198ECE01825579
:1004B0009F4F2AE0FC01322F11923A95E9F71B8EEB
:1004C0001A8E83E08C8F1D8E0E947529E8DECE0186
:1004D00088549F4F0E94022B87E696E0E8DE80E872
:1004E00095E20E946D3F0E944D1B0E94B82780E05C
:1004F0000E94CF270E943642809172079091730725
:10050000909371078093700710927307109272078F
:1005100089E091E0FC018081882F90E0382F22272C
:1005200086E091E0FC018081882F90E0822B932B64
:100530009093730780937207809170079091710771
:100540009C012095309580917207909173078223CA
:100550009323909364068093630680916306909141
:10056000640688279870892B19F084E080936506CB
:1005700080916506882F90E08230910509F4B7C319
:10058000833091053CF4009781F0019709F424C170
:100590000C94AA198330910511F40C94600E049701
:1005A00011F40C94D0120C94AA198E818823F9F4BA
:1005B00042E452E060E080E046DE41E552E061E086
:1005C00081E041DE48E060E081E059DE4EE76FE027
:1005D00081E055DE40E652E060E082E034DE80916A
:1005E000040267E676E00E94DC2281E08E8380913F
:1005F00063069091640688279072892B91F180910F
:100600000402833070F180910402815080930402CF
:1006100080910402882F90E0292F2F938F9380E7F9
:1006200092E0892F8F9380E792E08F93CE018358D9
:100630009F4F292F2F938F930E9441420F900F902D
:100640000F900F900F900F90CE0183589F4FAC01E9
:1006500063E081E0F8DD8091040267E676E00E94C5
:10066000DC22809163069091640688279074892B20
:1006700091F180910402843070F5809104028F5FC3
:100680008093040280910402882F90E0292F2F93F9
:100690008F9380E792E0892F8F9380E792E08F938A
:1006A000CE0183589F4F292F2F938F930E94414251
:1006B0000F900F900F900F900F900F90CE018358D6
:1006C0009F4FAC0163E081E0BEDD8091040267E6EC
:1006D00076E00E94DC228091630690916406882770
:1006E0009071892B11F40C94A31981E08E8F2EC088
:1006F0008E8D282F30E045E3429FC001439F900D2F
:1007000011248756994FFC01118210828E8D282F5B
:1007100030E045E3429FC001439F900D1124855670
:10072000994FFC0110828E8D282F30E045E3429FC7
:10073000C001439F900D11248556994FFC01808183
:100740006E8D0E94101E8E8D8F5F8E8F80910402A1
:100750009E8D891768F68091040267E676E00E9414
:10076000DC2243E752E060E080E06DDD809104022E
:10077000882F90E0292F2F938F9380E792E0892F85
:100780008F9380E792E08F93CE0183589F4F292F5C
:100790002F938F930E9441420F900F900F900F90D4
:1007A0000F900F90CE0183589F4FAC0164E080E022
:1007B0004ADD44E852E060E081E045DD45E952E091
:1007C00060E082E040DD809104020E94CA2981E05D
:1007D000809365060C94A31981E08F8F09C04AE0CD
:1007E0006F8D8CED95E00E948E208F8D8F5F8F8FA7
:1007F000809104029F8D891790F781E088A354C1EE
:1008000046EA52E060E080E01EDD88A1882F90E09B
:10081000292F2F938F9380E792E0892F8F9380E782
:1008200092E08F93CE0183589F4F292F2F938F9360
:100830000E9441420F900F900F900F900F900F90D9
:10084000CE0183589F4FAC016BE080E0FCDC47EBAE
:1008500052E060E081E0F7DC47EC52E060E082E0EB
:10086000F2DC66C0809172079091730790937107D4
:1008700080937007109273071092720789E091E0DD
:10088000FC018081882F90E0382F222786E091E0BC
:10089000FC018081882F90E0822B932B909373072B
:1008A0008093720780917007909171079C01209549
:1008B00030958091720790917307822393239093D0
:1008C000640680936306809163069091640688278E
:1008D0009170892B59F08885882341F44985688572
:1008E00081E00E943D2381E0888712C080916306E9
:1008F0009091640688279270892B51F0898588230E
:1009000039F44985688582E00E943D2381E089872A
:100910008885882329F08A85882311F482E08A87D4
:100920008985882329F08A85882311F481E08A87C4
:100930008885882309F496CF8985882309F492CF86
:1009400088A1282F30E080915C06482F50E08091EC
:100950005D06882F90E0840F951FAC0165E3629FD0
:10096000C001639F900D11248756994FFC0151835C
:10097000408388A1282F30E045E3429FC001439F78
:10098000900D11248756994FFC01208131818D8172
:10099000482F50E065E3649FC001659F900D1124CE
:1009A0008756994FFC01808191812817390709F0FA
:1009B0004FC08A85882F90E00197845A994FFC0197
:1009C0008081823098F08A85882F90E001972A856F
:1009D000222F30E021503109245A394FF90120816A
:1009E0002150845A994FFC01208312C08A85882F98
:1009F00090E001972A85222F30E021503109245AB6
:100A0000394FF90120812F5F845A994FFC012083CF
:100A100088A1282F30E080915C06482F50E080911B
:100A20005D06882F90E0840F951FAC0165E3629FFF
:100A3000C001639F900D11248756994FFC0151838B
:100A4000408390915D0680915C06692F0E94BA25D3
:100A500088A1282F30E045E3429FC001439F900DBD
:100A600011248756994FFC01208131818D81482FB7
:100A700050E065E3649FC001659F900D1124875687
:100A8000994FFC01808191818217930710F488A10E
:100A90008D83188619861A8667E676E088A10E94FB
:100AA000DC2288A18F5F88A38091040298A1891716
:100AB00008F0A6CE8D8189839E01295B3F4F80E09F
:100AC00090E0AAE7B4E4F90180839183A283B38321
:100AD0008E01055B1F4FCE01895B9F4F20E030E008
:100AE0004AE755E4FC0160817181828193810E9413
:100AF0003F41DC01CB01F80180839183A283B38362
:100B0000CE01855B9F4F20E030E040E85FE3FC01D1
:100B100060817181828193810E94F13F88234CF42E
:100B2000CE01815B9F4F21E030E0FC0131832083C7
:100B30006DC0CE01855B9F4F20E03FEF4FE757E44C
:100B4000FC0160817181828193810E943B41181672
:100B50000CF04AC0CE01895B9F4F20E030E040E2BC
:100B600051E4FC0160817181828193810E943F4147
:100B7000DC01CB018E01015B1F4FBC01CD010E9446
:100B80005D40DC01CB01F8019183808324C0CE015C
:100B90008F5A9F4F20E931E0FC0131832083CE0141
:100BA0008F5A9F4FFC01808191810197F1F79E013F
:100BB0002F5A3F4FF90191838083CE01815B9F4F74
:100BC0009E01215B3F4FF901208131812150310984
:100BD000FC0131832083CE01815B9F4FFC0180812A
:100BE0009181892BA1F62CC08E01015B1F4FCE0194
:100BF000855B9F4FFC0160817181828193810E949E
:100C00005D40DC01CB01F80191838083CE018D5AD8
:100C10009F4F9E01215B3F4FF90120813181FC01F3
:100C200031832083CE018D5A9F4FFC0180819181B9
:100C30000197F1F79E012D5A3F4FF901918380836F
:100C400081E089A313C089A1282F30E045E3429FAA
:100C5000C001439F900D11248756994F2CED35E02C
:100C6000FC013183208389A18F5F89A380910402D5
:100C700099A1891740F78091040267E676E00E9407
:100C8000DC2248ED52E060E080E0DDDA8981882FE7
:100C900090E0292F2F938F9380E792E0892F8F93F5
:100CA00080E792E08F93CE0183589F4F292F2F9397
:100CB0008F930E9441420F900F900F900F900F90D2
:100CC0000F90CE0183589F4FAC016BE080E0BBDA00
:100CD00049EE52E060E081E0B6DA49EF52E060E0D0
:100CE00082E0B1DA82E0809365060C94AA198C85C3
:100CF000882319F488898823A1F187DA48ED52E026
:100D000060E080E0A0DA8981882F90E0292F2F937E
:100D10008F9380E792E0892F8F9380E792E08F9303
:100D2000CE0183589F4F292F2F938F930E944142CA
:100D30000F900F900F900F900F900F90CE0183584F
:100D40009F4FAC016BE080E07EDA49EE52E060E05C
:100D500081E079DA49EF52E060E082E074DA1C86E3
:100D6000188A809163069091640688279470892B75
:100D700009F47DC08F81882309F479C06AE08AE094
:100D80000E94BA25909104028981692F0E94A24194
:100D9000892F8F5F898348ED52E060E080E053DA6D
:100DA0008981882F90E0292F2F938F9380E792E0FD
:100DB000892F8F9380E792E08F93CE0183589F4FC6
:100DC000292F2F938F930E9441420F900F900F90E5
:100DD0000F900F900F90CE0183589F4FAC016BE0A6
:100DE00080E031DA49EE52E060E081E02CDA49EF50
:100DF00052E060E082E027DA1F821B8688E290E002
:100E000028E230E0F90120812F73FC0120831D8648
:100E10001F868981282F30E045E3429FC001439F10
:100E2000900D11248556994FFC018081482F50E088
:100E30009E0128543F4F60E5649FC001659F900D5F
:100E40001124820F931FC296FC0180818C8F8C8DA0
:100E5000843069F48981882F90E0825A994FFC018F
:100E60008081882321F081E08D8F81E08F838091C4
:100E700063069091640688279470892B59F08B81C2
:100E8000882341F46AE08AE00E94BA2581E08B83DE
:100E90001B861F868F81882309F057C28B81882388
:100EA00009F453C256C080917207909173079093D2
:100EB000710780937007109273071092720789E090
:100EC00091E0FC018081882F90E0382F222786E076
:100ED00091E0FC018081882F90E0822B932B9093EE
:100EE00073078093720780917007909171079C013E
:100EF00020953095809172079091730782239323F8
:100F000090936406809363068091630690916406D3
:100F100088279170892B59F08885882341F4498569
:100F2000688581E00E943D2381E0888712C080911E
:100F300063069091640688279270892B51F0898509
:100F4000882339F44985688582E00E943D2381E049
:100F500089878885882309F4A6CF8985882309F4A1
:100F6000A2CF90915C0680915D06981709F040C071
:100F70001B828A818F5F8A83188619868A81882FCF
:100F800090E08230910579F083309105B1F00197BE
:100F900091F588E290E028E230E0F90120812064B8
:100FA000FC01208328C088E290E028E230E0F901CB
:100FB00020812068FC0120831EC088E290E028E2A6
:100FC00030E0F90120812F73FC01208310925C0630
:100FD00010925D06188619861A8281E08B8381E063
:100FE0008F8389810E941C2884E08C8F000003C0BD
:100FF00081E08F831A828981282F30E045E3429F68
:10100000C001439F900D11248556994FFC018081AA
:10101000282F30E080915C06482F50E080915D06DB
:10102000882F90E0840F951F820F931F88972CF1D3
:101030008981482F50E08981282F30E065E3629F45
:10104000C001639F900D11248756994FFC01808148
:1010500091819C0128533F4F65E3649FC001659FC8
:10106000900D11248756994FFC0131832083809184
:10107000040267E676E00E94DC228981282F30E0B6
:1010800045E3429FC001439F900D11248556994F1F
:10109000FC0180818AA3CDC09AA18DEC989F812DFF
:1010A000112482958695877028E2829F802D1124D5
:1010B000F92FF81B8F2F69810E94101E80E090E0AD
:1010C000A8ECB2E48FAB98AFA9AFBAAF8E010B5AC0
:1010D0001F4F20E030E04AE755E46FA978AD89ADB5
:1010E0009AAD0E943F41DC01CB01F80180839183DE
:1010F000A283B383CE018B5A9F4F20E030E040E8BB
:101100005FE3FC0160817181828193810E94F13FE4
:1011100088234CF4CE01875A9F4F21E030E0FC0138
:101120003183208369C0CE018B5A9F4F20E03FEF6F
:101130004FE757E4FC0160817181828193810E94B5
:101140003B4118160CF046C020E030E040E251E48C
:101150006FA978AD89AD9AAD0E943F41DC01CB010A
:101160008E01075A1F4FBC01CD010E945D40DC017A
:10117000CB01F8019183808324C0CE01855A9F4F13
:1011800020E931E0FC0131832083CE01855A9F4F55
:10119000FC01808191810197F1F79E01255A3F4F13
:1011A000F90191838083CE01875A9F4F9E01275A70
:1011B0003F4FF9012081318121503109FC013183F8
:1011C0002083CE01875A9F4FFC0180819181892B1A
:1011D000A1F62CC08E01075A1F4FCE018B5A9F4F8C
:1011E000FC0160817181828193810E945D40DC01FC
:1011F000CB01F80191838083CE01835A9F4F9E01DA
:10120000275A3F4FF90120813181FC01318320832E
:10121000CE01835A9F4FFC01808191810197F1F7A4
:101220009E01235A3F4FF901918380838AA18F5FEA
:101230008AA38AA1282F30E08981482F50E065E3F6
:10124000649FC001659F900D11248556994FFC0144
:101250008081482F50E080915C06682F70E080917B
:101260005D06882F90E0860F971F840F951F281723
:1012700039070CF411CF8981282F30E08981482F5C
:1012800050E065E3649FC001659F900D1124855671
:10129000994FFC018081482F50E080915C06682FB7
:1012A00070E080915D06882F90E0860F971F840F75
:1012B000951F48E250E0BA010E94AE41582F45E325
:1012C000429FC001439F900D11248556994FFC0108
:1012D00050838981282F30E045E3429FC001439F1E
:1012E000900D11248556994FFC01808169810E94DF
:1012F000101E8981282F30E045E3429FC001439FA3
:10130000900D11248556994FFC018081482F50E0A3
:101310009E0128543F4F60E5649FC001659F900D7A
:101320001124820F931FC296FC0180818C8F8981CA
:10133000282F30E045E3429FC001439F900D1124C8
:101340008556994FFC0180818C831886198680917F
:10135000040267E676E00E94DC228C8D882F90E004
:10136000092E000CAA0BBB0B40E050E027E030E058
:10137000841B950B2817390710F40C94A619FC014F
:101380008827EE58FF4F8F4F0C94C1418B858823DF
:1013900089F58C81482F50E09E0128543F4F60E52D
:1013A000649FC001659F900D1124820F931F8D5B78
:1013B0009F4FFC0180818823E9F4CE0188549F4F20
:1013C0004981BC018C810E94AC198FA78FA5882F01
:1013D00090E08130910519F0029721F00BC081E077
:1013E0008B8708C081E08B8781E08F8783E08093C3
:1013F000650600008C81482F50E09E0128543F4F25
:1014000060E5649FC001659F900D1124820F931FBA
:101410008D5B9F4FFC018081882309F442C48C813D
:10142000482F50E09E0128543F4F60E5649FC00163
:10143000659F900D1124820F931F8D5B9F4FFC01C0
:1014400090818981981709F42CC48F85813009F423
:1014500028C4188A8D85882309F0B8C08C81482F4C
:1014600050E09E0128543F4F60E5649FC001659F96
:10147000900D1124820F931F8D5B9F4FFC01808183
:101480008E878C81682F70E08C81482F50E09E0100
:1014900028543F4FE0E5E49FC001E59F900D1124E3
:1014A000820F931F865B9F4FFC018081882F90E005
:1014B0009E0128543F4FE8E2E69FA001E79F500DB0
:1014C0001124840F951F880F991F820F931FC596B3
:1014D000FC0180819181988F8F8B48ED52E060E014
:1014E00080E00E9423018981882F90E0292F2F938B
:1014F0008F9380E792E0892F8F9380E792E08F931C
:10150000CE0183589F4F292F2F938F930E944142E2
:101510000F900F900F900F900F900F90CE01835867
:101520009F4FAC016BE080E00E9423014AE053E052
:1015300060E081E00E942301888D8F938F898F93D3
:1015400080E792E0892F8F9380E792E08F93CE011E
:1015500083589F4F292F2F938F930E9441420F90C2
:101560000F900F900F900F900F90CE0183589F4FC8
:10157000AC016AE081E00E9423014BE153E060E0AE
:1015800082E00E9423018E85882F90E0292F2F93DF
:101590008F9380E792E0892F8F9380E792E08F937B
:1015A000CE0183589F4F292F2F938F930E94414242
:1015B0000F900F900F900F900F900F90CE018358C7
:1015C0009F4FAC016BE082E00E9423018981882F4C
:1015D00090E001979E0123573F4F820F931FFC011C
:1015E0008081282F30E080916306909164068223E9
:1015F0009323892B09F455C38F89988D21E0AC0181
:101600006E8589810E941C3E8F878F85813009F00D
:1016100048C31D8681E0888B44C38F85813009F4DF
:1016200043C3188A8D85882309F06AC08C81482FAE
:1016300050E09E0128543F4F60E5649FC001659FC4
:10164000900D1124820F931FC396FC01808191811C
:10165000988F8F8B48ED52E060E080E00E9423017C
:101660008981882F90E0292F2F938F9380E792E034
:10167000892F8F9380E792E08F93CE0183589F4FFD
:10168000292F2F938F930E9441420F900F900F901C
:101690000F900F900F90CE0183589F4FAC016BE0DD
:1016A00080E00E9423014AE053E060E081E00E9474
:1016B0002301888D8F938F898F9380E792E0892F04
:1016C0008F9380E792E08F93CE0183589F4F292F0D
:1016D0002F938F930E9441420F900F900F900F9085
:1016E0000F900F90CE0183589F4FAC016AE081E0CC
:1016F0000E9423014CE253E060E082E00E9423015B
:101700008981882F90E001979E0123573F4F820FD8
:10171000931FFC018081282F30E080916306909117
:10172000640682239323892B09F4BEC28F89988D86
:101730002AE0AC0160E089810E941C3E8F878F8582
:10174000813009F0B1C21D8681E0888BADC28B85E6
:10175000882389F58C81482F50E09E0128543F4F03
:1017600060E5649FC001659F900D1124820F931F57
:101770008D5B9F4FFC0180818823E9F4CE01885462
:101780009F4F4981BC018C810E94AC198FA78FA506
:10179000882F90E08130910519F0029721F00BC05D
:1017A00081E08B8708C081E08B8781E08F8783E0B1
:1017B0008093650600008C81482F50E09E012854DC
:1017C0003F4F60E5649FC001659F900D1124820F1B
:1017D000931F8D5B9F4FFC018081882309F467C2B2
:1017E0008C81482F50E09E0128543F4F60E5649F54
:1017F000C001659F900D1124820F931F8D5B9F4F39
:10180000FC0190818981981709F451C28F8581303C
:1018100009F44DC2188A8D85882309F0A0C08C81F7
:10182000482F50E09E0128543F4F60E5649FC0015F
:10183000659F900D1124820F931F8D5B9F4FFC01BC
:1018400080818E878C81482F50E09E0128543F4F25
:1018500060E5649FC001659F900D1124820F931F66
:10186000C596FC0180819181988F8F8B48ED52E065
:1018700060E080E00E9423018981882F90E0292F79
:101880002F938F9380E792E0892F8F9380E792E0E8
:101890008F93CE0183589F4F292F2F938F930E94B0
:1018A00041420F900F900F900F900F900F90CE012C
:1018B00083589F4FAC016BE080E00E9423014AE017
:1018C00053E060E081E00E942301888D8F938F892F
:1018D0008F9380E792E0892F8F9380E792E08F9338
:1018E000CE0183589F4F292F2F938F930E944142FF
:1018F0000F900F900F900F900F900F90CE01835884
:101900009F4FAC016AE081E00E9423014BE153E06C
:1019100060E082E00E9423018E85882F90E0292FCD
:101920002F938F9380E792E0892F8F9380E792E047
:101930008F93CE0183589F4F292F2F938F930E940F
:1019400041420F900F900F900F900F900F90CE018B
:1019500083589F4FAC016BE082E00E942301898194
:10196000882F90E001979E0123573F4F820F931FCE
:10197000FC018081282F30E08091630690916406FD
:1019800082239323892B09F492C18F89988D21E0BA
:10199000AC016E8589810E941C3E8F878F858130C6
:1019A00009F085C11D8681E0888B81C18981882FDE
:1019B00090E0825A994FFC018081882309F47AC112
:1019C0008D8D882309F476C148ED52E060E080E017
:1019D0000E9423018981882F90E0292F2F938F93D4
:1019E00080E792E0892F8F9380E792E08F93CE017A
:1019F00083589F4F292F2F938F930E9441420F901E
:101A00000F900F900F900F900F90CE0183589F4F23
:101A1000AC016BE080E00E9423014DE353E060E005
:101A200081E00E9423014EE453E060E082E00E94E6
:101A300023011D8E3FC189810E941C2884E08C8F68
:101A40003DC18B85882389F58C81482F50E09E010C
:101A500028543F4F60E5649FC001659F900D11249D
:101A6000820F931F8D5B9F4FFC0180818823E9F4D7
:101A7000CE0188549F4F4981BC018C810E94AC19D2
:101A80008FA78FA5882F90E08130910519F00297DC
:101A900021F00BC081E08B8708C081E08B8781E05B
:101AA0008F8783E08093650600008C81482F50E08B
:101AB0009E0128543F4F60E5649FC001659F900DD3
:101AC0001124820F931F8D5B9F4FFC01808188231F
:101AD00009F4F3C08C81482F50E09E0128543F4FF9
:101AE00060E5649FC001659F900D1124820F931FD4
:101AF0008D5B9F4FFC0190818981981709F4DDC0AF
:101B00008F85813009F4D9C0188A8D85882309F022
:101B1000A0C08C81482F50E09E0128543F4F60E5C3
:101B2000649FC001659F900D1124820F931F8D5BF0
:101B30009F4FFC0180818E878C81482F50E09E0151
:101B400028543F4F60E5649FC001659F900D1124AC
:101B5000820F931FC396FC0180819181988F8F8B98
:101B600048ED52E060E080E00E9423018981882FE7
:101B700090E0292F2F938F9380E792E0892F8F9306
:101B800080E792E08F93CE0183589F4F292F2F93A8
:101B90008F930E9441420F900F900F900F900F90E3
:101BA0000F90CE0183589F4FAC016BE080E00E9404
:101BB00023014AE053E060E081E00E942301888D28
:101BC0008F938F898F9380E792E0892F8F9380E79F
:101BD00092E08F93CE0183589F4F292F2F938F939D
:101BE0000E9441420F900F900F900F900F900F9016
:101BF000CE0183589F4FAC016AE081E00E9423012F
:101C00004BE153E060E082E00E9423018E85882F43
:101C100090E0292F2F938F9380E792E0892F8F9365
:101C200080E792E08F93CE0183589F4F292F2F9307
:101C30008F930E9441420F900F900F900F900F9042
:101C40000F90CE0183589F4FAC016BE082E00E9461
:101C500023018981882F90E001979E0123573F4FF0
:101C6000820F931FFC018081282F30E08091630652
:101C70009091640682239323892BF9F08F89988DA4
:101C800021E0AC016E8589810E941C3E8F878F8583
:101C9000813099F41D8681E0888B0FC000000C9480
:101CA000A61900000C94A61900000C94A6190000B7
:101CB0000C94A61900000C94A61900000C94A61907
:101CC0008D85882309F053C00E9405014FE553E03C
:101CD00060E080E00E9423018C81482F50E09E014B
:101CE00028543F4F60E5649FC001659F900D11240B
:101CF000820F931FAC0160E081E00E94230140E766
:101D000053E060E082E00E94230189E090E09B8F35
:101D10008A8F81E08D8781E08BA324C08BA1882FDF
:101D200090E02BA1422F50E065E3649F9001659FF6
:101D3000300D11242756394FF90120813181AE0130
:101D400042555F4F880F991F840F951FFC01318307
:101D5000208340E06BA180E090E00E948E208BA168
:101D60008F5F8BA3809104029BA18917B8F61CA2F8
:101D70009AC08CA1882F90E09E0123573F4F820F7D
:101D8000931FFC018081282F30E0809163069091A1
:101D9000640682239323892B09F44BC08CA1882FDE
:101DA00090E09E012B563F4F820F931FFC018081D4
:101DB000882309F03EC08CA1882F90E09C012F5F02
:101DC0003F4F45E3429FC001439F900D112487562A
:101DD000994FFC01208131818A8D9B8D019682175C
:101DE000930738F58A8D9B8D01969B8F8A8F81E0B2
:101DF0008DA309C040E06DA180E090E00E948E209C
:101E00008DA18F5F8DA3809104029DA1891790F70A
:101E10008CA121E0280F8A8D9B8D41E0622F0E94CA
:101E20008E208CA121E0280FCE018B569F4FFC0104
:101E300025838CA1882F90E09E012F563F4F820F63
:101E4000931FFC018081282F30E0809163069091E0
:101E5000640682239323892B19F18CA1882F90E0AB
:101E60009E012B563F4F820F931FFC0180818823D8
:101E7000B9F48CA1882F90E09E012B563F4F820F22
:101E8000931F21E0FC012083CE018B569F4FFC0164
:101E9000848121E0280FCE018B569F4FFC012483C3
:101EA0008CA18F5F8CA3809104029CA1981708F4E9
:101EB00060CFCE018B569F4FFC019481809104022C
:101EC000981711F00C94A919CE018B569F4FFC0165
:101ED0008581882309F44FC20E9405019E012D5B74
:101EE0003F4F80E090E0A0E2B1E4F901808391836C
:101EF000A283B3838E0107591F4FCE018D5B9F4F85
:101F000020E030E04AE755E4FC0160817181828184
:101F100093810E943F41DC01CB01F80180839183D2
:101F2000A283B383CE0187599F4F20E030E040E881
:101F30005FE3FC0160817181828193810E94F13FA6
:101F400088234CF4CE0183599F4F21E030E0FC01FF
:101F5000318320836DC0CE0187599F4F20E03FEF32
:101F60004FE757E4FC0160817181828193810E9477
:101F70003B4118160CF04AC0CE018D5B9F4F20E00C
:101F800030E040E251E4FC01608171818281938103
:101F90000E943F41DC01CB018E0103591F4FBC0160
:101FA000CD010E945D40DC01CB01F801918380836B
:101FB00024C0CE0181599F4F20E931E0FC013183DB
:101FC0002083CE0181599F4FFC018081918101972F
:101FD000F1F79E0121593F4FF90191838083CE0192
:101FE00083599F4F9E0123593F4FF9012081318131
:101FF00021503109FC0131832083CE0183599F4F49
:10200000FC0180819181892BA1F62CC08E0103599E
:102010001F4FCE0187599F4FFC01608171818281E2
:1020200093810E945D40DC01CB01F80191838083A4
:10203000CE018F589F4F9E0123593F4FF9012081B8
:102040003181FC0131832083CE018F589F4FFC01E9
:10205000808191810197F1F79E012F583F4FF9013F
:102060009183808341E853E060E080E00E94230197
:1020700048ED52E060E081E00E942301CE018B56E2
:102080009F4FFC018581882F90E0292F2F938F93FC
:1020900080E792E0892F8F9380E792E08F93CE01C3
:1020A00083589F4F292F2F938F930E9441420F9067
:1020B0000F900F900F900F900F90CE0183589F4F6D
:1020C000AC016BE081E00E94230180E090E0AAE790
:1020D000B5E48BAF9CAFADAFBEAF8E01015A1F4FC1
:1020E00020E030E04AE755E46BAD7CAD8DAD9EADB0
:1020F0000E943F41DC01CB01F80180839183A283E0
:10210000B383CE01815A9F4F20E030E040E85FE387
:10211000FC0160817181828193810E94F13F88235B
:102120004CF4CE018D599F4F21E030E0FC0131830A
:10213000208369C0CE01815A9F4F20E03FEF4FE7D7
:1021400057E4FC0160817181828193810E943B414F
:1021500018160CF046C020E030E040E251E46BADD0
:102160007CAD8DAD9EAD0E943F41DC01CB018E0167
:102170000D591F4FBC01CD010E945D40DC01CB0118
:10218000F8019183808324C0CE018B599F4F20E9B1
:1021900031E0FC0131832083CE018B599F4FFC013C
:1021A000808191810197F1F79E012B593F4FF901F1
:1021B00091838083CE018D599F4F9E012D593F4FB2
:1021C000F9012081318121503109FC0131832083C3
:1021D000CE018D599F4FFC0180819181892BA1F601
:1021E0002CC08E010D591F4FCE01815A9F4FFC010B
:1021F00060817181828193810E945D40DC01CB010D
:10220000F80191838083CE0189599F4F9E012D59FA
:102210003F4FF90120813181FC0131832083CE01C0
:1022200089599F4FFC01808191810197F1F79E01AF
:1022300029593F4FF9019183808381E08EA31EC00D
:102240008EA1482F50E08EA1882F90E09E0122554C
:102250003F4F880F991F820F931FFC01208131810E
:1022600065E3649FC001659F900D11248756994FC7
:10227000FC01318320838EA18F5F8EA380910402A5
:102280009EA18917E8F68091040267E676E00E9435
:10229000DC22CE018B569F4FFC018581482F50E0F8
:1022A000CE018B569F4FFC018581282F30E065E3DE
:1022B000629FC001639F900D11248756994FFC01C6
:1022C000208131818A8D9B8D281B390B65E3649FAA
:1022D000C001659F900D11248756994FFC013183F1
:1022E00020838C81482F50E0CE018B569F4FFC01FC
:1022F00065819E0128543F4F70E5749FC001759F12
:10230000900D1124820F931F8D5B9F4FFC01608302
:10231000CE018B569F4FFC0175818C81482F50E078
:102320009E0128543F4F60E5649FC001659F900D5A
:102330001124820F931F855B9F4FFC018081672FC3
:102340000E94A01D1FA20DC08FA1882F90E09E01AA
:102350002B563F4F820F931FFC0110828FA18F5F7E
:102360008FA38FA1863080F31D8681E08C8782E069
:1023700080936506EEC70E94050142E953E060E0E4
:1023800080E00E94230142EA53E060E081E00E9485
:1023900023019E01215C3F4F80E090E0AAE7B5E475
:1023A000F90180839183A283B3838E010D581F4F5F
:1023B000CE01CF9620E030E04AE755E4FC01608191
:1023C0007181828193810E943F41DC01CB01F80140
:1023D00080839183A283B383CE018D589F4F20E0E9
:1023E00030E040E85FE3FC0160817181828193818C
:1023F0000E94F13F88234CF4CE0189589F4F21E081
:1024000030E0FC01318320836CC0CE018D589F4F9A
:1024100020E03FEF4FE757E4FC016081718182814A
:1024200093810E943B4118160CF049C0CE01CF9613
:1024300020E030E040E251E4FC0160817181828162
:1024400093810E943F41DC01CB018E0109581F4F4F
:10245000BC01CD010E945D40DC01CB01F8019183FC
:10246000808324C0CE0187589F4F20E931E0FC01D2
:1024700031832083CE0187589F4FFC018081918159
:102480000197F1F79E0127583F4FF901918380830F
:10249000CE0189589F4F9E0129583F4FF901208155
:1024A000318121503109FC0131832083CE018958CB
:1024B0009F4FFC0180819181892BA1F62CC08E0158
:1024C00009581F4FCE018D589F4FFC0160817181CB
:1024D000828193810E945D40DC01CB01F8019183F0
:1024E0008083CE0185589F4F9E0129583F4FF901A7
:1024F00020813181FC0131832083CE0185589F4F9B
:10250000FC01808191810197F1F79E0125583F4F91
:10251000F9019183808381E088A71EC088A5482F98
:1025200050E088A5882F90E09E0122553F4F880FEC
:10253000991F820F931FFC012081318165E3649F05
:10254000C001659F900D11248756994FFC0131837E
:10255000208388A58F5F88A78091040298A589179A
:10256000E8F68091040267E676E00E94DC2219A674
:102570000DC089A5882F90E09E012B563F4F820FFA
:10258000931FFC01108289A58F5F89A789A58630DA
:1025900080F31D8681E08C8782E080936506D9C632
:1025A0001AA60EC08AA5882F90E09E012D553F4F98
:1025B000820F931F21E0FC0120838AA58F5F8AA7E9
:1025C0008AA5883078F31BA67CC681E0898B8BA511
:1025D000882F90E09E0125563F4F820F931FFC01EC
:1025E0008081482F50E09E0128543F4F60E5649F52
:1025F000C001659F900D1124820F931F8D5B9F4F2B
:10260000FC0190818981981709F058C61CA664C006
:102610008BA5882F90E09E0125563F4F820F931F78
:10262000FC018081682F70E08CA5882F90E0AE01BE
:1026300048545F4FE0E5E69F9001E79F300D11247D
:10264000240F351F820F931F8B5B9F4FFC018081EE
:10265000482F50E09E0128543F4F60E5649FC00121
:10266000659F900D1124820F931F8D5B9F4FFC017E
:1026700090818981981769F18BA5882F90E09E0140
:1026800025563F4F820F931FFC018081682F70E019
:102690008CA5882F90E0AE0148545F4FE0E5E69F9F
:1026A0009001E79F300D1124240F351F820F931FD7
:1026B0008B5B9F4FFC018081882359F0198A8BA581
:1026C000882F90E09E012D553F4F820F931FFC01F4
:1026D00010828CA58F5F8CA78CA5833008F498CFCF
:1026E0008989882309F4EAC51D868BA5882F90E087
:1026F0009E0125563F4F820F931FFC0180818B8BDB
:10270000D6C580917207909173079093710780935B
:102710007007109273071092720789E091E0FC0134
:102720008081882F90E0382F222786E091E0FC01FD
:102730008081882F90E0822B932B90937307809356
:10274000720780917007909171079C0120953095D8
:10275000809172079091730782239323909364066C
:10276000809363068FEF8C8B1D8A1DA664C08BA59A
:10277000882F90E09E0125563F4F820F931FFC014A
:102780008081682F70E08DA5882F90E0AE014854BD
:102790005F4FE0E5E69F9001E79F300D1124240F85
:1027A000351F820F931F8B5B9F4FFC018081882315
:1027B00009F43EC08BA5882F90E09E0125563F4F1F
:1027C000820F931FFC018081682F70E08DA5882FF8
:1027D00090E0AE0148545F4FE0E5E69F9001E79F2F
:1027E000300D1124240F351F820F931F8B5B9F4FD9
:1027F000FC018081482F50E09E0128543F4F60E546
:10280000649FC001659F900D1124820F931F865B0A
:102810009F4FFC0180818CAB9CA98C89981710F488
:102820008CA98C8B9CA98D89891710F48CA98D8B10
:102830008DA58F5F8DA78DA5833008F498CF1EA638
:102840007DC08BA5882F90E09E0125563F4F820FBB
:10285000931FFC018081682F70E08EA5882F90E087
:10286000AE0148545F4FE0E5E69F9001E79F300DD1
:102870001124240F351F820F931F8B5B9F4FFC0188
:102880008081482F50E09E0128543F4F60E5649FAF
:10289000C001659F900D1124820F931F865B9F4F8F
:1028A000FC0180818CAB9CA98D89981761F48EA561
:1028B000882F90E09E0125553F4F820F931F21E006
:1028C000FC01208338C08BA5882F90E09E012556FF
:1028D0003F4F820F931FFC018081682F70E08EA50F
:1028E000882F90E0AE0148545F4FE0E5E69F9001ED
:1028F000E79F300D1124240F351F820F931F8B5B30
:102900009F4FFC018081882359F08EA5882F90E08D
:102910009E0125553F4F820F931FFC0110820BC073
:102920008EA5882F90E09E0125553F4F820F931F63
:1029300021E0FC0120838EA58F5F8EA78EA58330BA
:1029400008F47FCF8D85882309F03FC00E940501E0
:1029500043EB53E060E080E00E9423018B89482F25
:1029600050E09E0128543F4F60E5649FC001659F81
:10297000900D1124820F931FAC0160E081E00E9452
:10298000230144EC53E060E082E00E9423018BA528
:10299000882F90E09E0125563F4F820F931FFC0128
:1029A0008081482F50E09E0128543F4F60E5649F8E
:1029B000C001659F900D1124820F931F865B9F4F6E
:1029C000FC01808188AB81E08D87809163069091C6
:1029D000640688279071892B09F4F0C1CE018555D2
:1029E0009F4FFC0180818823E9F0CE0185559F4FE0
:1029F000FC0181818823B1F0CE0185559F4FFC01F8
:102A00008281882379F0CE0185559F4FFC01108289
:102A1000CE0185559F4FFC011182CE0185559F4FF8
:102A2000FC0112828A89882F90E08130910509F497
:102A30009AC08230910509F429C1892B09F0BEC1E1
:102A4000CE0185559F4FFC018081882309F0B1C1DB
:102A50008B89482F50E09E0128543F4F60E5649FCA
:102A6000C001659F900D1124820F931F845B9F4FBF
:102A7000FC018081882F90E02AE0AC0160E0898130
:102A80000E941C3E8EAB8B89482F50E09E0128543B
:102A90003F4F60E5649FC001659F900D1124820F38
:102AA000931F865B9F4FFC01808171E0780F8B89BB
:102AB000482F50E09E0128543F4F60E5649FC001BD
:102AC000659F900D1124820F931F875B9F4FFC0120
:102AD0008081672F1AD68B89482F50E08B89682F09
:102AE00070E09E0128543F4FE0E5E69FC001E79F5C
:102AF000900D1124820F931F865B9F4FFC018081F4
:102B000061E0680F9E0128543F4F70E5749FC0013B
:102B1000759F900D1124820F931F865B9F4FFC01C0
:102B20006083CE0185559F4F21E0FC0120838B8976
:102B3000482F50E09E0128543F4F60E5649FC0013C
:102B4000659F900D1124820F931F865B9F4FFC01A0
:102B50008081853021F48E8984508E8B2AC18E89A4
:102B60008F5F8E8B26C1CE0185559F4FFC018181E1
:102B7000882309F020C18B89482F50E09E012854FA
:102B80003F4F60E5649FC001659F900D1124820F47
:102B9000931F845B9F4FFC018081882F90E02AE087
:102BA000AC0160E089810E941C3E8EAB8B89482F6E
:102BB00050E09E0128543F4F60E5649FC001659F2F
:102BC000900D1124820F931F865B9F4FFC01808123
:102BD00071E0780F8B89482F50E09E0128543F4FB9
:102BE00060E5649FC001659F900D1124820F931FC3
:102BF000875B9F4FFC018081672F87D58B89482F8A
:102C000050E08B89682F70E09E0128543F4FE0E52B
:102C1000E69FC001E79F900D1124820F931F865BF2
:102C20009F4FFC01808161E0680F9E0128543F4F57
:102C300070E5749FC001759F900D1124820F931F42
:102C4000865B9F4FFC016083CE0185559F4F21E03D
:102C5000FC0121838B89482F50E09E0128543F4F6F
:102C600060E5649FC001659F900D1124820F931F42
:102C7000865B9F4FFC018081853021F48E898450D2
:102C80008E8B99C08E898F5F8E8B95C0CE018555B6
:102C90009F4FFC018281882309F08FC08B89482FC8
:102CA00050E09E0128543F4F60E5649FC001659F3E
:102CB000900D1124820F931F845B9F4FFC01808134
:102CC000882F90E02AE0AC0160E089810E941C3EE0
:102CD0008EAB8B89482F50E09E0128543F4F60E512
:102CE000649FC001659F900D1124820F931F865B26
:102CF0009F4FFC01808171E0780F8B89482F50E055
:102D00009E0128543F4F60E5649FC001659F900D70
:102D10001124820F931F875B9F4FFC018081672FD7
:102D2000F4D48B89482F50E08B89682F70E09E0186
:102D300028543F4FE0E5E69FC001E79F900D112426
:102D4000820F931F865B9F4FFC01808161E0680FBB
:102D50009E0128543F4F70E5749FC001759F900DF0
:102D60001124820F931F865B9F4FFC016083CE016D
:102D700085559F4F21E0FC0122838B89482F50E02D
:102D80009E0128543F4F60E5649FC001659F900DF0
:102D90001124820F931F865B9F4FFC018081853039
:102DA00021F48E8984508E8B08C08E898F5F8E8B24
:102DB00004C0000003C0000001C000008091630651
:102DC0009091640688279072892B09F40CC28B8934
:102DD000482F50E09E0128543F4F60E5649FC0019A
:102DE000659F900D1124820F931F845B9F4FFC0100
:102DF0008081843318F08AE0898F02C085E0898F52
:102E0000CE0185559F4FFC018081882301F5CE01BD
:102E100085559F4FFC0181818823C9F4CE018555DA
:102E20009F4FFC018281882391F4CE0185559F4FED
:102E300021E0FC012083CE0185559F4F21E0FC015C
:102E40002183CE0185559F4F21E0FC0122838A8991
:102E5000882F90E08130910509F49AC08230910565
:102E600009F429C1892B09F0BEC1CE0185559F4FB8
:102E7000FC018081882309F4B1C18B89482F50E07F
:102E80009E0128543F4F60E5649FC001659F900DEF
:102E90001124820F931F865B9F4FFC018081853038
:102EA00021F48E898C5F8E8B03C08E8981508E8B2E
:102EB0008B89482F50E09E0128543F4F60E5649F66
:102EC000C001659F900D1124820F931F865B9F4F59
:102ED000FC0180817FEF780F8B89482F50E09E01A5
:102EE00028543F4F60E5649FC001659F900D1124F9
:102EF000820F931F875B9F4FFC018081672F05D452
:102F00008B89482F50E08B89682F70E09E012854F0
:102F10003F4FE0E5E69FC001E79F900D1124820F2F
:102F2000931F865B9F4FFC0180816FEF680F9E01AE
:102F300028543F4F70E5749FC001759F900D112478
:102F4000820F931F865B9F4FFC016083CE018555E6
:102F50009F4FFC0110828B89482F50E09E0128541E
:102F60003F4F60E5649FC001659F900D1124820F63
:102F7000931F845B9F4FFC0180818695882F90E092
:102F8000298DAC01698180E00E941C3E8EAB26C178
:102F9000CE0185559F4FFC018181882309F420C112
:102FA0008B89482F50E09E0128543F4F60E5649F75
:102FB000C001659F900D1124820F931F865B9F4F68
:102FC000FC018081853021F48E898C5F8E8B03C05B
:102FD0008E8981508E8B8B89482F50E09E0128541A
:102FE0003F4F60E5649FC001659F900D1124820FE3
:102FF000931F865B9F4FFC0180817FEF780F8B8949
:10300000482F50E09E0128543F4F60E5649FC00167
:10301000659F900D1124820F931F875B9F4FFC01CA
:103020008081672F72D38B89482F50E08B89682F5E
:1030300070E09E0128543F4FE0E5E69FC001E79F06
:10304000900D1124820F931F865B9F4FFC0180819E
:103050006FEF680F9E0128543F4F70E5749FC001C9
:10306000759F900D1124820F931F865B9F4FFC016B
:103070006083CE0185559F4FFC0111828B89482FBB
:1030800050E09E0128543F4F60E5649FC001659F5A
:10309000900D1124820F931F845B9F4FFC01808150
:1030A0008695882F90E0298DAC01698180E00E948F
:1030B0001C3E8EAB95C0CE0185559F4FFC01828191
:1030C000882309F48FC08B89482F50E09E01285433
:1030D0003F4F60E5649FC001659F900D1124820FF2
:1030E000931F865B9F4FFC018081853021F48E8980
:1030F0008C5F8E8B03C08E8981508E8B8B89482F7D
:1031000050E09E0128543F4F60E5649FC001659FD9
:10311000900D1124820F931F865B9F4FFC018081CD
:103120007FEF780F8B89482F50E09E0128543F4F46
:1031300060E5649FC001659F900D1124820F931F6D
:10314000875B9F4FFC018081672FDFD28B89482FDF
:1031500050E08B89682F70E09E0128543F4FE0E5D6
:10316000E69FC001E79F900D1124820F931F865B9D
:103170009F4FFC0180816FEF680F9E0128543F4FE5
:1031800070E5749FC001759F900D1124820F931FED
:10319000865B9F4FFC016083CE0185559F4FFC01EC
:1031A00012828B89482F50E09E0128543F4F60E5E2
:1031B000649FC001659F900D1124820F931F845B53
:1031C0009F4FFC0180818695882F90E0298DAC016E
:1031D000698180E00E941C3E8EAB04C0000003C0E9
:1031E000000001C00000809163069091640688276A
:1031F0009074892B09F45BC08A89882F90E001962E
:1032000023E030E0B9010E94AE418A8B8BA5882F64
:1032100090E09E0125563F4F820F931FFC01808155
:10322000682F70E08A89882F90E0AE0148545F4F84
:10323000E0E5E69F9001E79F300D1124240F351F34
:10324000820F931F8B5B9F4FFC0180818B8B8B893F
:10325000882361F51A8A8BA5882F90E09E01255658
:103260003F4F820F931FFC018081682F70E08A8995
:10327000882F90E0AE0148545F4FE0E5E69F900153
:10328000E79F300D1124240F351F820F931F8B5B96
:103290009F4FFC0180818B8BCE0185559F4FFC0198
:1032A0002181CE0185559F4FFC0122831D8680918F
:1032B00063069091640699230CF023CA8BA58F5F57
:1032C0008BA78BA5883008F480C90E94050148EDC2
:1032D00052E060E080E00E9423018981882F90E025
:1032E000292F2F938F9380E792E0892F8F9380E788
:1032F00092E08F93CE0183589F4F292F2F938F9366
:103300000E9441420F900F900F900F900F900F90DE
:10331000CE0183589F4FAC016BE080E00E942301F7
:1033200049EE52E060E081E00E94230149EF52E063
:1033300060E082E00E94230185E08C8B1D8A82E0A0
:103340008093650607C000000C947C0200000C947A
:103350007C0200000C947C02CF93DF93CDB7DEB7E4
:10336000A3970FB6F894DEBF0FBECDBF88A37AA394
:1033700069A34BA3198280916606882309F0B6C021
:103380000E94050180E090E0A8ECB2E48A839B8370
:10339000AC83BD8320E030E04AE755E46A817B815D
:1033A0008C819D810E943F41DC01CB018E839F83F4
:1033B000A887B98720E030E040E85FE36E817F8135
:1033C000888599850E94F13F88232CF481E090E064
:1033D0009B878A873FC020E03FEF4FE757E46E812D
:1033E0007F81888599850E943B4118164CF520E025
:1033F00030E040E251E46A817B818C819D810E94B2
:103400003F41DC01CB01BC01CD010E945D40DC01EC
:10341000CB019B878A870FC080E991E09D878C87CD
:103420008C859D850197F1F79D878C878A859B8583
:1034300001979B878A878A859B85892B69F714C0AA
:103440006E817F81888599850E945D40DC01CB017A
:103450009B878A878A859B859F878E878E859F8598
:103460000197F1F79F878E8748ED52E060E080E09A
:103470000E9423018BA1882F90E0292F2F938F93F7
:1034800080E792E0892F8F9380E792E08F93CE01BF
:103490004096292F2F938F930E9441420F900F90B7
:1034A0000F900F900F900F90CE014096AC016BE003
:1034B00080E00E94230188A1282F30E040E5429F50
:1034C000C001439F900D112429A13AA1820F931F9F
:1034D000AC0160E081E00E9423014DED53E060E02B
:1034E00082E00E94230181E080936606809163065A
:1034F0009091640688279074892B09F4B4C08BA13D
:10350000282F30E045E3429FC001439F900D1124D6
:103510008756994FFC012081318188A1482F50E0C6
:1035200060E5649FC001659F900D112449A15AA1D7
:10353000840F951FFC0183A994A92817390708F463
:10354000A2C08BA1482F50E08BA1282F30E065E36B
:10355000629FC001639F900D11248756994FFC0113
:103560002081318188A1682F70E0E0E5E69FC001ED
:10357000E79F900D112469A17AA1860F971FFC0186
:1035800083A994A9281B390B65E3649FC001659F3B
:10359000900D11248756994FFC013183208388A117
:1035A000282F30E040E5429FC001439F900D112439
:1035B00029A13AA1820F931F8D5B9F4F2BA1FC0184
:1035C000208388A1282F30E040E5429FC001439F1F
:1035D000900D112429A13AA1820F931F855B9F4F63
:1035E000FC0180816BA1ACD28091040267E676E099
:1035F000E3D70E94050148ED52E060E080E00E94C0
:1036000023018BA1882F90E0292F2F938F9380E7A0
:1036100092E0892F8F9380E792E08F93CE014096BE
:10362000292F2F938F930E9441420F900F900F905C
:103630000F900F900F90CE014096AC016BE080E0B0
:103640000E94230149EE52E060E081E00E942301E4
:1036500049EF52E060E082E00E94230181E089832B
:103660001092660610C080916306909164068827C8
:103670009072892B41F06AE082E30E94442882E044
:103680008983109266068981A3960FB6F894DEBFEF
:103690000FBECDBFDF91CF910895CF93DF931F92DF
:1036A0001F92CDB7DEB78AE995E01FD161E088E2CD
:1036B000B7D262E088E2B4D263E088E2B1D264E0DB
:1036C00088E2AED2198206C060E0898139D2898150
:1036D0008F5F898389818C31B8F381E08A8308C048
:1036E0004AE06A8180E090E019D58A818F5F8A8301
:1036F0008A818530A8F36AE08AE00E94BA2500003A
:103700000F900F90DF91CF910895CF93DF9300D06A
:1037100000D0CDB7DEB78D836E8319829D81892F4E
:10372000880F880F890F8A838A818695869586956A
:103730008B838A8187708C838E81853019F480E138
:10374000898310C08E81882F90E025E030E0281B0F
:10375000390B80EE9FEF02C0969587952A95E2F788
:10376000809589838C81843008F47CC08B81882F7C
:1037700090E02B81222F30E026563A4FD9012C9130
:10378000622F2C81422F50E02FE130E002C0220F47
:10379000331F4A95E2F72095262386569A4FFC015F
:1037A00020838B81882F90E001962B81222F30E09F
:1037B0002F5F3F4F26563A4FD9012C91622F2C8113
:1037C000222F30E048E050E0421B530B20EE3FEF49
:1037D00002C0359527954A95E2F7262386569A4FDB
:1037E000FC0120838B81882F90E02B81222F30E0F9
:1037F00026563A4FD9012C91622F2981222F30E091
:103800004C81442F50E002C0220F331F4A95E2F74B
:10381000262B86569A4FFC0120838B81882F90E0BF
:1038200001962B81222F30E02F5F3F4F26563A4FD3
:10383000D9012C91E22F2981222F30E04C81442F95
:1038400050E068E070E0DB01A41BB50BAD0102C0E5
:10385000359527954A95E2F72E2B86569A4FFC010F
:10386000208336C08B81882F90E02B81222F30E07F
:1038700026563A4FD9012C91622F2C81422F50E0CD
:103880002FE130E002C0220F331F4A95E2F7209566
:10389000262386569A4FFC0120838B81882F90E047
:1038A0002B81222F30E026563A4FD9012C91622FDE
:1038B0002981222F30E04C81442F50E002C0220F9A
:1038C000331F4A95E2F7262B86569A4FFC01208338
:1038D0008AE995E00AD0000026960FB6F894DEBF7C
:1038E0000FBECDBFDF91CF910895CF92DF92EF92BF
:1038F000FF92CF93DF93CDB7DEB7A0970FB6F894C2
:10390000DEBF0FBECDBF98A38F8F1A821982F4C07D
:103910008981882F90E02EE030E0A901481B590BE7
:10392000CA019C018F8D98A1820F931FFC01808199
:103930008A836A8180E00E94A53F80E090E0AAEF40
:10394000B3E48B839C83AD83BE832BEA3AEA4AEAD5
:1039500050E46B817C818D819E810E943F41DC011E
:10396000CB018F839887A987BA8720E030E040E8B1
:1039700050E46B817C818D819E810E943F41DC01FE
:10398000CB018B879C87AD87BE8720E030E040E885
:103990005FE36F81788589859A850E94F13F88234E
:1039A0000CF4A1C020E03FEF4FE757E46B857C8526
:1039B0008D859E850E943B4118160CF06DC020E05D
:1039C00030E04AE754E46B817C818D819E810E94C6
:1039D000F53FDC01CB016C017D0120E030E04AE7DE
:1039E00055E4C701B6010E943F41DC01CB018F873E
:1039F000988BA98BBA8B20E030E040E85FE36F85BD
:103A0000788989899A890E94F13F8823D4F120E03E
:103A10003FEF4FE757E46F85788989899A890E943B
:103A20003B4118161CF520E030E040E251E4C701AC
:103A3000B6010E943F41DC01CB01BC01CD010E94D7
:103A40005D40DC01CB019C8B8B8B0BC080E991E04E
:103A50000197F1F79E8B8D8B8B899C8901979C8BAD
:103A60008B8B8B899C89892B89F73FC06F857889DF
:103A700089899A890E945D40DC01CB019C8B8B8BEC
:103A800004C081E090E09C8B8B8B8B899C89019793
:103A9000F1F7988F8F8B29C020E030E04FE753E497
:103AA0006F81788589859A850E943B4118168CF430
:103AB0006B857C858D859E850E945D40DC01CB01F8
:103AC0009A8F898F898D9A8D0197F1F79C8F8B8FB3
:103AD00010C06F81788589859A850E945D40DC01E0
:103AE000CB018D8F02C081E08D8F8D8D8A95F1F78E
:103AF0008E8F89818F5F898389818F3008F408CF09
:103B00008EE290E02EE230E0F90120812860FC0195
:103B100020838EE290E02EE230E0F9012081277FC1
:103B2000FC0120830000A0960FB6F894DEBF0FBE04
:103B3000CDBFDF91CF91FF90EF90DF90CF900895B0
:103B4000CF93DF9300D000D0CDB7DEB78D836E83E7
:103B50001B828E81882F90E082309105B9F08330EE
:103B600091052CF4009749F0019759F021C083305A
:103B7000910599F00497B9F01BC019821A821B8233
:103B800017C082E389831A821B8212C08EE1898367
:103B900082E38A8383E08B830BC082E3898384E1A1
:103BA0008A831B8205C019821A8282E38B830000FC
:103BB0008D81882F90E09C01220F331F280F391F21
:103BC0002C58384F4981F90140839C01220F331F43
:103BD000280F391F2B58384F4A81F90140839C0127
:103BE000220F331F280F391FC9018A58984F2B8184
:103BF000FC0120831C8207C084E797E00E94B93F44
:103C00008C818F5F8C838C818C31B0F30000269681
:103C10000FB6F894DEBF0FBECDBFDF91CF910895F0
:103C2000CF92DF92EF92FF92CF93DF93CDB7DEB7C3
:103C3000A5970FB6F894DEBF0FBECDBF8CA36DA3C2
:103C40001C821D828DA1882F90E00197885B994F7F
:103C5000FC018081882F90E0880F991F880F991FA1
:103C600099230CF407969595879595958795959545
:103C700087958E838DA1882F90E00197885B994F5F
:103C8000FC018081880F880F84708F838DA194D16F
:103C90008D838E81282F30E08F81482F50E08DA1B9
:103CA000882F90E00197480F591F8D81082E000C36
:103CB000990B840F951F220F331F220F331F220FE2
:103CC000331F820F931F88559A4FFC0110828DA1DC
:103CD000882F90E00197885B994F2CA1FC012083ED
:103CE0008CA1882F90E0880F991F880F991F992326
:103CF0000CF4079695958795959587959595879555
:103D00008E838CA1880F880F84708F838DA154D1EE
:103D10008D838E81282F30E08F81482F50E08DA138
:103D2000882F90E00197480F591F8D81082E000CB5
:103D3000990B840F951F220F331F220F331F220F61
:103D4000331F820F931F88559A4F21E0FC01208377
:103D500019821A820DC119821B8225C08981880FA0
:103D600089838A81882F90E024E130E0281B390B79
:103D70008B81882F90E047E050E0BA01681B790BF7
:103D8000CB01220F331F220F331F220F331F820F4D
:103D9000931F88559A4FFC0180819981892B8983D3
:103DA0008B818F5F8B838B818830C0F289810E94E9
:103DB000743F80E090E0AAEFB3E488879987AA87F0
:103DC000BB872BEA3AEA4AEA50E4688579858A8516
:103DD0009B850E943F41DC01CB018C879D87AE878C
:103DE000BF8720E030E040E850E4688579858A8527
:103DF0009B850E943F41DC01CB01888B998BAA8B6C
:103E0000BB8B20E030E040E85FE36C857D858E85EC
:103E10009F850E94F13F88230CF4A1C020E03FEF72
:103E20004FE757E4688979898A899B890E943B41D9
:103E300018160CF06DC020E030E04AE754E46885C5
:103E400079858A859B850E94F53FDC01CB016C0159
:103E50007D0120E030E04AE755E4C701B6010E9449
:103E60003F41DC01CB018C8B9D8BAE8BBF8B20E067
:103E700030E040E85FE36C897D898E899F890E94EC
:103E8000F13F8823D4F120E03FEF4FE757E46C89FE
:103E90007D898E899F890E943B4118161CF520E080
:103EA00030E040E251E4C701B6010E943F41DC012D
:103EB000CB01BC01CD010E945D40DC01CB01998F9B
:103EC000888F0BC080E991E00197F1F79B8F8A8F73
:103ED000888D998D0197998F888F888D998D892BE1
:103EE00089F73FC06C897D898E899F890E945D40DA
:103EF000DC01CB01998F888F04C081E090E0998F1D
:103F0000888F888D998D0197F1F79D8F8C8F29C0AF
:103F100020E030E04FE753E46C857D858E859F85FA
:103F20000E943B4118168CF4688979898A899B899B
:103F30000E945D40DC01CB019F8F8E8F8E8D9F8D07
:103F40000197F1F799A388A310C06C857D858E85B4
:103F50009F850E945D40DC01CB018AA302C081E005
:103F60008AA38AA18A95F1F78BA38A818F5F8A83BE
:103F70008A81853108F4EFCE85E290E025E230E0D9
:103F8000F90120812061FC01208385E290E025E297
:103F900030E0F90120812F7EFC0120830000A596EE
:103FA0000FB6F894DEBF0FBECDBFDF91CF91FF906B
:103FB000EF90DF90CF900895CF93DF931F921F92E1
:103FC000CDB7DEB78A8319828A81882F90E0019766
:103FD000885B994FFC0180818A3010F4198298C067
:103FE0008A81882F90E00197885B994FFC0180813E
:103FF0008A3048F18A81882F90E00197885B994F39
:10400000FC0180818431F8F48A81882F90E082302D
:10401000910579F0833091051CF4019739F078C04F
:104020008330910549F0049751F072C081E0898393
:1040300009C082E0898306C08EEF898303C08FEFB9
:104040008983000065C08A81882F90E00197885B92
:10405000994FFC018081843148F18A81882F90E05A
:104060000197885B994FFC0180818E31F8F48A8139
:10407000882F90E08230910579F0833091051CF40F
:10408000019739F045C08330910549F0049751F00C
:104090003FC083E0898309C081E0898306C08FEF38
:1040A000898303C08DEF8983000032C08A81882F05
:1040B00090E00197885B994FFC0180818E3140F13F
:1040C0008A81882F90E00197885B994FFC0180815D
:1040D0008832F0F48A81882F90E08230910579F05F
:1040E000833091051CF4019739F012C0833091059B
:1040F00049F0049751F00CC082E0898309C08FEF2A
:10410000898306C081E0898303C08EEF8983000024
:1041100089810F900F90DF91CF910895CF92DF9218
:10412000EF92FF92CF93DF93CDB7DEB7A6970FB68E
:10413000F894DEBF0FBECDBF9CA38BA36DA34EA38F
:104140001A828BA19CA196958795969587959695B1
:1041500087959C01A5ECB0E20E94C941AC01529543
:1041600042954F7045275F7045279A01ADECBCEC36
:104170000E94C941969587959695879596958795BE
:10418000880F991F9C01220F331F220F331F820FAC
:10419000931F9A01281B390BC9018B838BA19CA10A
:1041A00096958795969587959C01ABE7B4E10E941B
:1041B000C941AC01569547959A01ADECBCEC0E9403
:1041C000C941969587959695879596958795880F79
:1041D000991F9C01220F331F220F331F820F931F41
:1041E000FA01E81BF90BCF018C838BA19CA19C01E8
:1041F000ADECBCEC0E94C941AC0156954795569573
:104200004795569547959A01ADECBCEC0E94C94183
:10421000969587959695879596958795880F991F7A
:104220009C01220F331F220F331F820F931F9A010D
:10423000281B390BC9018D834BA15CA19A01ADEC00
:10424000BCEC0E94C9419695879596958795969561
:104250008795880F991F9C01220F331F220F331F50
:10426000820F931FFA01E81BF90BCF018E838EA1F9
:10427000882309F450C08DA1882F90E00197880F02
:10428000991F880F991F2B81222F30E02B5F3D4F04
:10429000F9012081845B994FFC0120838DA1882F37
:1042A00090E00197880F991F880F991F01962C8124
:1042B000222F30E02B5F3D4FF9012081845B994F25
:1042C000FC0120838DA1882F90E00197880F991F12
:1042D000880F991F02962D81222F30E02B5F3D4FD2
:1042E000F9012081845B994FFC0120838DA1882FE7
:1042F00090E00197880F991F880F991F03962E81D0
:10430000222F30E02B5F3D4FF9012081845B994FD4
:10431000FC0120833BC08DA1882F90E00197880F7E
:10432000991F880F991F20910F02845B994FFC0100
:1043300020838DA1882F90E00197880F991F880F07
:10434000991F019620910F02845B994FFC012083F5
:104350008DA1882F90E00197880F991F880F991FD2
:10436000029620910F02845B994FFC0120838DA15E
:10437000882F90E00197880F991F880F991F039647
:1043800020910F02845B994FFC0120831982F0C0B9
:104390008981882F90E020E130E0A901481B590B6A
:1043A000CA01845B994FFC018081682F82E00E94E2
:1043B000A53F80E090E0AAEFB3E48F839887A987B8
:1043C000BA872BEA3AEA4AEA50E46F817885898510
:1043D0009A850E943F41DC01CB018B879C87AD878A
:1043E000BE8720E030E040E850E46F817885898521
:1043F0009A850E943F41DC01CB018F87988BA98B66
:10440000BA8B20E030E040E85FE36B857C858D85EA
:104410009E850E94F13F88230CF4A1C020E03FEF6D
:104420004FE757E46F85788989899A890E943B41D3
:1044300018160CF06DC020E030E04AE754E46F81BC
:10444000788589859A850E94F53FDC01CB016C0156
:104450007D0120E030E04AE755E4C701B6010E9443
:104460003F41DC01CB018B8B9C8BAD8BBE8B20E065
:1044700030E040E85FE36B897C898D899E890E94EA
:10448000F13F8823D4F120E03FEF4FE757E46B89F9
:104490007C898D899E890E943B4118161CF520E07D
:1044A00030E040E251E4C701B6010E943F41DC0127
:1044B000CB01BC01CD010E945D40DC01CB01988F96
:1044C0008F8B0BC080E991E00197F1F79A8F898F6C
:1044D0008F89988D0197988F8F8B8F89988D892BD5
:1044E00089F73FC06B897C898D899E890E945D40D8
:1044F000DC01CB01988F8F8B04C081E090E0988F16
:104500008F8B8F89988D0197F1F79C8F8B8F29C0A6
:1045100020E030E04FE753E46B857C858D859E85F8
:104520000E943B4118168CF46F85788989899A8995
:104530000E945D40DC01CB019E8F8D8F8D8D9E8D05
:104540000197F1F798A38F8F10C06B857C858D85BF
:104550009E850E945D40DC01CB0189A302C081E001
:1045600089A389A18A95F1F78AA389818F5F8983BD
:104570008981813108F40CCF82E091E022E031E0C2
:10458000F90120812860FC01208382E091E022E093
:1045900031E0F9012081277FFC0120830000A696ED
:1045A0000FB6F894DEBF0FBECDBFDF91CF91FF9065
:1045B000EF90DF90CF900895CF93DF9300D01F92BC
:1045C0001F92CDB7DEB78B837D836C8381E08983B7
:1045D00016C08981282F30E045E3429FC001439FE8
:1045E000900D11242C813D81820F931FFC0182A923
:1045F00093A941E0698192DD89818F5F89839981E7
:104600008B81891730F78B818F5F8A8316C08A81EF
:10461000282F30E045E3429FC001439F900D1124B5
:104620002C813D81820F931FFC0182A993A940E058
:104630006A8174DD8A818F5F8A838A81853038F34D
:1046400000000F900F900F900F900F90DF91CF917F
:104650000895CF93DF931F92CDB7DEB719820E94E2
:10466000334226E030E0B9010E94AE418F5F89837A
:1046700089810F90DF91CF910895CF93DF93CDB7CC
:10468000DEB7C154D1090FB6F894DEBF0FBECDBF5F
:104690008FAFCE01805C9F4FFC016083CE018F5BAA
:1046A0009F4FFC0140838AE08A838FAD813009F0FF
:1046B00093C0CE018F5B9F4FFC018081882309F45A
:1046C0008BC01B8281C0C5DF898380915D06682F06
:1046D000898150D28B81882F90E0880F991F0F9687
:1046E000092E000CAA0BBB0BBC01CD010E948B4014
:1046F000DC01CB018B8B9C8BAD8BBE8B20E030E043
:104700004AE755E46B897C898D899E890E943F41E7
:10471000DC01CB018F8B988FA98FBA8F20E030E01E
:1047200040E85FE36F89788D898D9A8D0E94F13F13
:1047300088230CF43CC020E03FEF4FE757E46F893B
:10474000788D898D9A8D0E943B4118162CF520E0BA
:1047500030E040E251E46B897C898D899E890E941A
:104760003F41DC01CB01BC01CD010E945D40DC0179
:10477000CB019C8F8B8F0BC080E991E00197F1F703
:104780009E8F8D8F8B8D9C8D01979C8F8B8F8B8DAA
:104790009C8D892B89F715C06F89788D898D9A8DAD
:1047A0000E945D40DC01CB019C8F8B8F04C081E0B7
:1047B00090E09C8F8B8F8B8D9C8D0197F1F798A348
:1047C0008F8F8B818F5F8B838B81823308F47BCFBC
:1047D000898180935C06C3C18FAD813009F091C09F
:1047E000CE018F5B9F4FFC018081882309F089C037
:1047F0001C827FC02EDF89836AE08981BBD18C81D6
:10480000882F90E0880F991F0F96092E000CAA0B95
:10481000BB0BBC01CD010E948B40DC01CB018F831F
:104820009887A987BA8720E030E04AE755E46F818E
:10483000788589859A850E943F41DC01CB0189A357
:104840009AA3ABA3BCA320E030E040E85FE369A1FA
:104850007AA18BA19CA10E94F13F88230CF43CC05B
:1048600020E03FEF4FE757E469A17AA18BA19CA11B
:104870000E943B4118162CF520E030E040E251E464
:104880006F81788589859A850E943F41DC01CB0143
:10489000BC01CD010E945D40DC01CB019EA38DA334
:1048A0000BC080E991E00197F1F798A78FA38DA144
:1048B0009EA101979EA38DA38DA19EA1892B89F70F
:1048C00015C069A17AA18BA19CA10E945D40DC0169
:1048D000CB019EA38DA304C081E090E09EA38DA395
:1048E0008DA19EA10197F1F79AA789A78C818F5F6F
:1048F0008C838C81893108F47DCF898180935C061B
:104900002EC18FAD823009F095C0CE01805C9F4FE3
:10491000FC018081882309F48DC01D8283C099DE4B
:104920008A8380915C066A8125D18D81282F30E0B1
:10493000C901880F991F820F931F0F96092E000C33
:10494000AA0BBB0BBC01CD010E948B40DC01CB014B
:104950008B879C87AD87BE8720E030E04AE755E42F
:104960006B857C858D859E850E943F41DC01CB0156
:104970008BA79CA7ADA7BEA720E030E040E85FE38F
:104980006BA57CA58DA59EA50E94F13F88230CF404
:104990003CC020E03FEF4FE757E46BA57CA58DA519
:1049A0009EA50E943B4118162CF520E030E040E225
:1049B00051E46B857C858D859E850E943F41DC019D
:1049C000CB01BC01CD010E945D40DC01CB0198AB65
:1049D0008FA70BC080E991E00197F1F79AAB89AB03
:1049E0008FA598A9019798AB8FA78FA598A9892B18
:1049F00089F715C06BA57CA58DA59EA50E945D407D
:104A0000DC01CB0198AB8FA704C081E090E098ABAC
:104A10008FA78FA598A90197F1F79CAB8BAB8D81E0
:104A20008F5F8D838D81893108F479CF8A8180935E
:104A30005D0695C08FAD823009F091C0CE01805CDB
:104A40009F4FFC018081882309F089C01E827FC0AE
:104A500000DE8A836A818AE08DD08E81882F90E083
:104A6000880F991F0F96092E000CAA0BBB0BBC01D7
:104A7000CD010E948B40DC01CB018F87988BA98BE5
:104A8000BA8B20E030E04AE755E46F857889898960
:104A90009A890E943F41DC01CB018DAB9EABAFAB4D
:104AA000B8AF20E030E040E85FE36DA97EA98FA9B0
:104AB00098AD0E94F13F88230CF43CC020E03FEF0A
:104AC0004FE757E46DA97EA98FA998AD0E943B419D
:104AD00018162CF520E030E040E251E46F8578892B
:104AE00089899A890E943F41DC01CB01BC01CD013B
:104AF0000E945D40DC01CB019AAF89AF0BC080E919
:104B000091E00197F1F79CAF8BAF89AD9AAD01971A
:104B10009AAF89AF89AD9AAD892B89F715C06DA978
:104B20007EA98FA998AD0E945D40DC01CB019AAFB0
:104B300089AF04C081E090E09AAF89AF89AD9AADAA
:104B40000197F1F79EAF8DAF8E818F5F8E838E813F
:104B5000823308F47DCF8A8180935D0600C0000017
:104B6000CF5BDF4F0FB6F894DEBF0FBECDBFDF9136
:104B7000CF910895CF92DF92EF92FF92CF93DF9380
:104B8000CDB7DEB7EA970FB6F894DEBF0FBECDBF44
:104B900089AF6AAF8AAD882F90E08B5F9D4FFC0193
:104BA0008081682F83E00E94A53F80E090E0AAEF1B
:104BB000B3E489839A83AB83BC832BEA3AEA4AEA5B
:104BC00050E469817A818B819C810E943F41DC01A4
:104BD000CB0189A39AA3ABA3BCA320E030E040E8BB
:104BE00050E469817A818B819C810E943F41DC0184
:104BF000CB018DA39EA3AFA3B8A720E030E040E88F
:104C00005FE369A17AA18BA19CA10E94F13F882357
:104C10000CF4A1C020E03FEF4FE757E46DA17EA167
:104C20008FA198A50E943B4118160CF06DC020E0A2
:104C300030E04AE754E469817A818B819C810E944B
:104C4000F53FDC01CB016C017D0120E030E04AE75B
:104C500055E4C701B6010E943F41DC01CB0189A7A1
:104C60009AA7ABA7BCA720E030E040E85FE369A5C6
:104C70007AA58BA59CA50E94F13F8823D4F120E062
:104C80003FEF4FE757E469A57AA58BA59CA50E9445
:104C90003B4118161CF520E030E040E251E4C7012A
:104CA000B6010E943F41DC01CB01BC01CD010E9455
:104CB0005D40DC01CB019EA78DA70BC080E991E090
:104CC0000197F1F798AB8FA78DA59EA501979EA799
:104CD0008DA78DA59EA5892B89F73FC069A57AA5CB
:104CE0008BA59CA50E945D40DC01CB019EA78DA7F2
:104CF00004C081E090E09EA78DA78DA59EA5019799
:104D0000F1F79AAB89AB29C020E030E04FE753E4DC
:104D100069A17AA18BA19CA10E943B4118168CF439
:104D20006DA17EA18FA198A50E945D40DC01CB0101
:104D30009CAB8BAB8BA99CA90197F1F79EAB8DAB7C
:104D400010C069A17AA18BA19CA10E945D40DC01E9
:104D5000CB018FAB02C081E08FAB8FA98A95F1F7B1
:104D600088AF89AD882F90E08B5F9D4FFC018081DB
:104D7000682F83E00E94A53F80E090E0AAEFB3E4B3
:104D80008D839E83AF83B8872BEA3AEA4AEA50E4E0
:104D90006D817E818F8198850E943F41DC01CB012E
:104DA00089879A87AB87BC8720E030E040E850E4F1
:104DB0006D817E818F8198850E943F41DC01CB010E
:104DC0008D879E87AF87B88B20E030E040E85FE3B7
:104DD00069857A858B859C850E94F13F88230CF438
:104DE000A1C020E03FEF4FE757E46D857E858F85BA
:104DF00098890E943B4118160CF06DC020E030E00D
:104E00004AE754E46D817E818F8198850E94F53F49
:104E1000DC01CB016C017D0120E030E04AE755E484
:104E2000C701B6010E943F41DC01CB01898B9A8BFF
:104E3000AB8BBC8B20E030E040E85FE369897A8986
:104E40008B899C890E94F13F8823D4F120E03FEFB9
:104E50004FE757E469897A898B899C890E943B4195
:104E600018161CF520E030E040E251E4C701B6011D
:104E70000E943F41DC01CB01BC01CD010E945D409D
:104E8000DC01CB019E8B8D8B0BC080E991E00197FB
:104E9000F1F7988F8F8B8D899E8901979E8B8D8BD3
:104EA0008D899E89892B89F73FC069897A898B8989
:104EB0009C890E945D40DC01CB019E8B8D8B04C0E0
:104EC00081E090E09E8B8D8B8D899E890197F1F713
:104ED0009A8F898F29C020E030E04FE753E469853D
:104EE0007A858B859C850E943B4118168CF46D85D4
:104EF0007E858F8598890E945D40DC01CB019C8F67
:104F00008B8F8B8D9C8D0197F1F79E8F8D8F10C0AD
:104F100069857A858B859C850E945D40DC01CB018B
:104F20008F8F02C081E08F8F8F8D8A95F1F788A3D4
:104F300085E091E025E031E0F90120812860FC0165
:104F4000208385E091E025E031E0F9012081277F91
:104F5000FC0120830000EA960FB6F894DEBF0FBE76
:104F6000CDBFDF91CF91FF90EF90DF90CF9008956C
:104F7000CF93DF93CDB7DEB78CE790E020E4FC0160
:104F800020838EE790E02FE0FC0120838AE790E009
:104F900027E8FC0120830000DF91CF910895CF9393
:104FA000DF931F92CDB7DEB789838CE790E02CE7C3
:104FB00030E0F9012081207FFC0120838CE790E024
:104FC0002CE730E0F9012081322F29812770232B33
:104FD000FC0120838BE790E02BE730E0F901208192
:104FE000277FFC0120838BE790E02BE730E0F9017D
:104FF0002081322F29812870232BFC0120838AE70E
:1050000090E02AE730E0F90120812064FC01208350
:1050100000008AE790E0FC018081882F90E0807496
:105020009927892BB1F788E790E0FC018081918175
:105030000F90DF91CF910895CF93DF931F92CDB75B
:10504000DEB789838981882F90E0825A994F21E0C9
:10505000FC01208364E184E617D08981282F30E0A9
:1050600045E3429FC001439F900D11248556994FFF
:105070002AE0FC01208369818AE00E94101E000062
:105080000F90DF91CF910895CF93DF93CDB7DEB727
:105090006F970FB6F894DEBF0FBECDBF8E8F6F8FA8
:1050A00019820BC188E290E028E230E0F90120810A
:1050B0002068FC01208388E290E028E230E0F901DA
:1050C00020812F7BFC0120838E8D882F90E0A0E033
:1050D000B0E0BC01CD010E948940DC01CB018A8394
:1050E0009B83AC83BD8320E030E04AE755E46A81CE
:1050F0007B818C819D810E943F41DC01CB018C8BA7
:105100009D8BAE8BBF8B20E030E040E85FE36C8985
:105110007D898E899F890E94F13F88230CF43CC0D1
:1051200020E03FEF4FE757E46C897D898E899F89A6
:105130000E943B4118162CF520E030E040E251E49B
:105140006A817B818C819D810E943F41DC01CB0182
:10515000BC01CD010E945D40DC01CB01998F888F9D
:105160000BC080E991E00197F1F79B8F8A8F888DC2
:10517000998D0197998F888F888D998D892B89F7C3
:1051800015C06C897D898E899F890E945D40DC01F4
:10519000CB01998F888F04C081E090E0998F888F30
:1051A000888D998D0197F1F79D8F8C8F88E290E023
:1051B00028E230E0F90120812064FC01208388E2AC
:1051C00090E028E230E0F90120812F77FC01208374
:1051D0008E8D882F90E0A0E0B0E0BC01CD010E9450
:1051E0008940DC01CB018E839F83A887B98720E0AB
:1051F00030E04AE755E46E817F81888599850E9479
:105200003F41DC01CB018A879B87AC87BD8720E0CB
:1052100030E040E85FE36A857B858C859D850E9450
:10522000F13F88230CF43CC020E03FEF4FE757E408
:105230006A857B858C859D850E943B4118162CF5DF
:1052400020E030E040E251E46E817F8188859985DD
:105250000E943F41DC01CB01BC01CD010E945D40B9
:10526000DC01CB019F878E870BC080E991E001971D
:10527000F1F7998B888B8E859F8501979F878E8705
:105280008E859F85892B89F715C06A857B858C85DE
:105290009D850E945D40DC01CB019F878E8704C005
:1052A00081E090E09F878E878E859F850197F1F73B
:1052B0009B8B8A8B89818F5F898399818F8D9817CA
:1052C00008F4F0CE88E290E028E230E0F901208195
:1052D0002F73FC01208300006F960FB6F894DEBF99
:1052E0000FBECDBFDF91CF910895CF93DF93CDB7A0
:1052F000DEB781E290E02FEFFC01208384E290E0B2
:105300002FEFFC01208385E290E020E2FC01208366
:1053100087E290E02FEFFC01208388E290E02FE30A
:10532000FC0120838AE290E02FEFFC0120838BE2D6
:1053300090E0FC0110828DE290E02FEFFC012083D1
:105340008EE290E020E1FC01208380E390E02EEFEC
:10535000FC01208381E091E02FEFFC01208382E0BB
:1053600091E020E1FC01208384E091E02FEFFC013B
:10537000208385E091E020E1FC01208387E091E03B
:10538000FC0110828AE091E0FC0110820000DF91B4
:10539000CF910895CF93DF93CDB7DEB7EF970FB6D8
:1053A000F894DEBF0FBECDBF8FAF80E2EDEEF3E02D
:1053B000DE015F9601900D928A95E1F7198214C182
:1053C00081E08A839EC08A81482F50E08A81282FFD
:1053D00030E065E3629FC001639F900D1124875602
:1053E000994FFC01208131818981882F90E0880FBD
:1053F000991FBE016F5F7F4F860F971F4E96FC016E
:1054000080819181280F391F65E3649FC001659FEA
:10541000900D11248756994FFC013183208380E041
:1054200090E0A6E9B2E48F839887A987BA8720E045
:1054300030E04AE755E46F81788589859A850E9436
:105440003F41DC01CB018B879C87AD87BE8720E085
:1054500030E040E85FE36B857C858D859E850E940A
:10546000F13F88230CF43CC020E03FEF4FE757E4C6
:105470006B857C858D859E850E943B4118162CF599
:1054800020E030E040E251E46F81788589859A859B
:105490000E943F41DC01CB01BC01CD010E945D4077
:1054A000DC01CB01988B8F870BC080E991E00197DD
:1054B000F1F79A8B898B8F8598890197988B8F87C5
:1054C0008F859889892B89F715C06B857C858D859B
:1054D0009E850E945D40DC01CB01988B8F8704C0C4
:1054E00081E090E0988B8F878F8598890197F1F7FD
:1054F0009C8B8B8B67E676E08FAD5ED88A818F5F61
:105500008A839A818FAD891708F05DCF80E090E0A3
:10551000A8E4B2E48B839C83AD83BE8320E030E0BB
:105520004AE755E46B817C818D819E810E943F41D9
:10553000DC01CB018D8B9E8BAF8BB88F20E030E0F0
:1055400040E85FE36D897E898F89988D0E94F13FE5
:1055500088230CF43CC020E03FEF4FE757E46D890F
:105560007E898F89988D0E943B4118162CF520E08A
:1055700030E040E251E46B817C818D819E810E940C
:105580003F41DC01CB01BC01CD010E945D40DC014B
:10559000CB019A8F898F0BC080E991E00197F1F7D9
:1055A0009C8F8B8F898D9A8D01979A8F898F898D8A
:1055B0009A8D892B89F715C06D897E898F89988D81
:1055C0000E945D40DC01CB019A8F898F04C081E08D
:1055D00090E09A8F898F898D9A8D0197F1F79E8F30
:1055E0008D8F89818F5F89838981803108F4E8CE2E
:1055F0000000EF960FB6F894DEBF0FBECDBFDF916F
:10560000CF910895CF93DF931F921F92CDB7DEB74E
:105610009A83898389819A812CE43FE6FC01318356
:10562000208323E730E0FC013383228389819A8140
:1056300023E0FC0122AB89819A81805B9F4F9C0112
:105640008EE0EDE0F4E0D90101900D928A95E1F74A
:1056500089819A81805B9F4FFC0112AA89819A817E
:10566000805B9F4F2CE330E0FC0134AB23AB89819E
:105670009A81805B9F4F22E030E0FC0136AB25AB86
:1056800089819A81805B9F4F2AE030E0FC0130AF36
:1056900027AB89819A81805B9F4F2EE130E0FC012E
:1056A00032AF21AF89819A81805B9F4F2AE530E03C
:1056B000FC0134AF23AF89819A81805B9F4F20EA40
:1056C00030E0FC0136AF25AF89819A81805B9F4F26
:1056D000CF962AEF30E0FC013183208389819A81C3
:1056E000805B9F4F8F5B9F4F24E030E0FC01318354
:1056F000208389819A81805B9F4F8D5B9F4FFC0146
:10570000108289819A81805B9F4F8C5B9F4FFC0147
:10571000108289819A81805B9F4F8B5B9F4F21E034
:10572000FC01208389819A81805B9F4F8A5B9F4F18
:1057300023E0FC01208389819A81805B9F4F895BF4
:105740009F4FFC01108289819A81805B9F4F875B0C
:105750009F4FFC01108289819A81805B9F4F865BFD
:105760009F4FFC01108289819A81805B9F4F845BEF
:105770009F4F22E3FC01208389819A81805B9F4FA8
:10578000855B9F4FFC01108289819A81805B9F4FCE
:10579000835B9F4FFC01108289819A8180569F4FC5
:1057A0009C0189E0EBE1F4E0D90101900D928A952A
:1057B000E1F789819A8180569F4F21E0FC0122AB5D
:1057C00089819A8180519F4F9C018BE0E4E2F4E053
:1057D000D90101900D928A95E1F789819A818051D2
:1057E0009F4FFC0112AA89819A8180519F4F2CE31F
:1057F00030E0FC0134AB23AB89819A8180519F4F0B
:105800002CE330E0FC0134AB23AB89819A818051D9
:105810009F4F24E030E0FC0136AB25AB89819A81B3
:1058200080519F4F24E130E0FC0130AF27AB8981EC
:105830009A8180519F4F2CE330E0FC0132AF21AFC1
:1058400089819A8180519F4F24EB30E0FC0134AF75
:1058500023AF89819A8180519F4F20E431E0FC0180
:1058600036AF25AF89819A8180519F4FCF9622EC28
:1058700031E0FC013183208389819A8180519F4FDF
:105880008F5B9F4F24E030E0FC01318320838981CE
:105890009A8180519F4F8D5B9F4FFC0110828981BF
:1058A0009A8180519F4F8C5B9F4FFC0110828981B0
:1058B0009A8180519F4F8B5B9F4F21E0FC01208399
:1058C00089819A8180519F4F8A5B9F4F23E0FC0121
:1058D000208389819A8180519F4F895B9F4FFC0172
:1058E000108289819A8180519F4F875B9F4F21E071
:1058F000FC01208389819A8180519F4F865B9F4F55
:10590000FC01108289819A8180519F4F845B9F4F57
:1059100022E3FC01208389819A8180519F4F855B1E
:105920009F4F21E0FC01208389819A8180519F4F04
:10593000835B9F4FFC01108289819A81805C9E4F1E
:105940009C018DE0EFE2F4E0D90101900D928A957F
:10595000E1F789819A81805C9E4F22E0FC0122ABB5
:1059600089819A81805C9E4F28EC30E0FC0134AB49
:1059700023AB89819A8180579E4F9C0180E1ECE3A3
:10598000F4E0D90101900D928A95E1F789819A811D
:1059900080579E4F27E0FC0122AB89819A81805776
:1059A0009E4F28EC30E0FC0134AB23AB89819A8117
:1059B00080579E4F29E130E0FC0136AB25AB898151
:1059C0009A8180579E4F22E330E0FC0130AF27AB35
:1059D00089819A8180579E4F24E630E0FC0132AFE6
:1059E00021AF89819A8180579E4F28EC30E0FC01DD
:1059F00034AF23AF89819A8180579E4F8D5B9F4F33
:105A0000FC01108289819A8180579E4F8C5B9F4F49
:105A100028E0FC01208389819A8180579E4F8B5B0F
:105A20009F4F25E0FC01208389819A8180579E4FFA
:105A30008A5B9F4F2FE0FC01208389819A818057E8
:105A40009E4F895B9F4F29E1FC01208389819A81C8
:105A500080579E4F885B9F4F23E2FC012083898102
:105A60009A8180579E4F855B9F4F22E0FC012083E7
:105A700089819A8180579E4F835B9F4FFC011082E2
:105A800089819A8180529E4F9C018CE0ECE4F4E085
:105A9000D90101900D928A95E1F789819A8180520E
:105AA0009E4FFC0112AA89819A8180529E4F24E662
:105AB00030E0FC0134AB23AB89819A8180529E4F48
:105AC00026E030E0FC0136AB25AB89819A8180521B
:105AD0009E4F2EE130E0FC0130AF27AB89819A81E7
