S01000004D6F6E6F706F6C792E73726563B7
S11300000C94D20D0C94F20D0C94F20D0C94F20D90
S11300100C94F20D0C94F20D0C94F20D0C94F20D60
S11300200C94F20D0C94F20D0C94F20D0C94F20D50
S11300300C94F20D0C94F20D0C94F20D0C94F20D40
S11300400C94F20D0C94F20D0C94F20D0C94F20D30
S11300500C94F20D0C94F20D0C94F20D0C94F20D20
S11300600C94F20D0C94F20D0C94F20D0C94F20D10
S11300700C94F20D0C94F20D0C94F20D0C94F20D00
S11300800C94F20D0C94F20D0C94F20D0C94F20DF0
S11300900C94F20D0C94F20D0C94F20D0C94F20DE0
S11300A00C94F20D0C94F20D0C94F20D0C94F20DD0
S11300B00C94F20D0C94F20D0C94F20D0C94F20DC0
S11300C00C94F20D0C94F20D0C94F20D0C94F20DB0
S11300D00C94F20D0C94F20D0C94F20D0C94F20DA0
S11300E00C94F20DBC11CB126815A8241A29442DC6
S11300F0002E0E198F18AE1A9324B41C7122892273
S11301004C1B035A315A405A9E5AB55ACC5AF25A89
S1130110185B295C4F6C69206D61672064696368B2
S1130120202020206E696368742E20202020202047
S1130130202020204765686520696E7320202020D8
S113014020202020476566846E676E697300000076
S1130150000000000000000000000000000000009B
S1130160000000000000000000000000000000008B
S1130170000000000000000000000000000000007B
S1130180000000000000000000000000000000006B
S1130190000000000000000000000000000000005B
S11301A0000000000000000000000000000000004B
S11301B0000000000000000000000000000000003B
S11301C0000000000000000000000000000000002B
S11301D00000000000000000000000004672656995
S11301E06B617274650000000000000000000000F4
S11301F000000000000000000000000000000000FB
S113020000000000000000000000000000000000EA
S113021000000000000000000000000000000000DA
S113022000000000000000000000000000000000CA
S113023000000000000000000000000000000000BA
S113024000000000000000000000000000000000AA
S1130250000000000000000000000000000000009A
S1130260000000000000000000000000000000008A
S1130270000000000000000000000000000000007A
S1130280000000000000000000000000000000006A
S1130290000000000000000000000000000000005A
S11302A000000000529A636B6520766F72206269C9
S11302B0732020207A756D204E8463687374656E94
S11302C0202020205765726B000000000000000011
S11302D0000000000000000000000000000000001A
S11302E0000000000000000000000000000000000A
S11302F000000000000000000000000000000000FA
S113030000000000000000000000000000000000E9
S113031000000000000000000000000000000000D9
S113032000000000000000000000000000000000C9
S113033000000000000000000000000000000000B9
S113034000000000000000000000000000000000A9
S11303500000000000000000000000000000000099
S11303600000000000000000000000004475206848
S1130370617374207A75207669656C654162736572
S11303806E7A656E20202020202020205A61686C1F
S1130390652035300000000000000000000000006F
S11303A00000000000000000000000000000000049
S11303B00000000000000000000000000000000039
S11303C00000000000000000000000000000000029
S11303D00000000000000000000000000000000019
S11303E00000000000000000000000000000000009
S11303F000000000000000000000000000000000F9
S113040000000000000000000000000000000000E8
S113041000000000000000000000000000000000D8
S113042000000000000000000000000000000000C8
S113043000000000529A636B6520766F7220626937
S1130440732020207A75722050726F64756B746902
S11304506F6E2020506F6C796D656368616E696B97
S113046065720000000000000000000000000000B1
S11304700000000000000000000000000000000078
S11304800000000000000000000000000000000068
S11304900000000000000000000000000000000058
S11304A00000000000000000000000000000000048
S11304B00000000000000000000000000000000038
S11304C00000000000000000000000000000000028
S11304D00000000000000000000000000000000018
S11304E00000000000000000000000000000000008
S11304F00000000000000000000000005A69656868
S11305006520766F72206269732020207A757220CC
S11305106E8463687374656E2020202048616C7457
S1130520657374656C6C65000000000000000000D9
S113053000000000000000000000000000000000B7
S113054000000000000000000000000000000000A7
S11305500000000000000000000000000000000097
S11305600000000000000000000000000000000087
S11305700000000000000000000000000000000077
S11305800000000000000000000000000000000067
S11305900000000000000000000000000000000057
S11305A00000000000000000000000000000000047
S11305B00000000000000000000000000000000037
S11305C0000000005A6965686520766F72206269D0
S11305D0732020207A7572206E8463687374656E4C
S11305E02020202048616C74657374656C6C650010
S11305F000000000000000000000000000000000F7
S113060000000000000000000000000000000000E6
S113061000000000000000000000000000000000D6
S113062000000000000000000000000000000000C6
S113063000000000000000000000000000000000B6
S113064000000000000000000000000000000000A6
S11306500000000000000000000000000000000096
S11306600000000000000000000000000000000086
S11306700000000000000000000000000000000076
S11306800000000000000000000000005A696568D6
S11306906520766F72206269732020204772756E20
S11306A06461757362696C64756E6720456C656B13
S11306B074726F6E696B65720000000000000000C8
S11306C00000000000000000000000000000000026
S11306D00000000000000000000000000000000016
S11306E00000000000000000000000000000000006
S11306F000000000000000000000000000000000F6
S113070000000000000000000000000000000000E5
S113071000000000000000000000000000000000D5
S113072000000000000000000000000000000000C5
S113073000000000000000000000000000000000B5
S113074000000000000000000000000000000000A5
S1130750000000005A6965686520766F722062693E
S1130760732020204D6563686174726F6E696B201D
S1130770202020204C61626F720000000000000005
S11307800000000000000000000000000000000065
S11307900000000000000000000000000000000055
S11307A00000000000000000000000000000000045
S11307B00000000000000000000000000000000035
S11307C00000000000000000000000000000000025
S11307D00000000000000000000000000000000015
S11307E00000000000000000000000000000000005
S11307F000000000000000000000000000000000F5
S113080000000000000000000000000000000000E4
S113081000000000000000000000000052FC636BB8
S11308206520766F72206175662020205374617292
S11308307400000000000000000000000000000040
S113084000000000000000000000000000000000A4
S11308500000000000000000000000000000000094
S11308600000000000000000000000000000000084
S11308700000000000000000000000000000000074
S11308800000000000000000000000000000000064
S11308900000000000000000000000000000000054
S11308A00000000000000000000000000000000044
S11308B00000000000000000000000000000000034
S11308C00000000000000000000000000000000024
S11308D00000000000000000000000000000000014
S11308E000000000486575746520496E666F726D7E
S11308F0696572744968722065756368209A6265D7
S1130900722020205374756469656E67846E676510
S113091020202020529A636B6520766F72206269D2
S113092073202020546563686E696B756D00000048
S113093000000000000000000000000000000000B3
S113094000000000000000000000000000000000A3
S11309500000000000000000000000000000000093
S11309600000000000000000000000000000000083
S11309700000000000000000000000000000000073
S11309800000000000000000000000000000000063
S11309900000000000000000000000000000000053
S11309A00000000000000000000000004573206902
S11309B07374206465722032352E202044752065BE
S11309C07268846C74737420202020206465696EBE
S11309D0656E204C6F686E2E20766F6E3730000087
S11309E00000000000000000000000000000000003
S11309F000000000000000000000000000000000F3
S1130A0000000000000000000000000000000000E2
S1130A1000000000000000000000000000000000D2
S1130A2000000000000000000000000000000000C2
S1130A3000000000000000000000000000000000B2
S1130A4000000000000000000000000000000000A2
S1130A500000000000000000000000000000000092
S1130A600000000000000000000000000000000082
S1130A70000000004573206973742064657220329D
S1130A80352E2020447520657268846C747374203C
S1130A90202020206465696E656E204C6F686E2E80
S1130AA020766F6E3134300000000000000000003A
S1130AB00000000000000000000000000000000032
S1130AC00000000000000000000000000000000022
S1130AD00000000000000000000000000000000012
S1130AE00000000000000000000000000000000002
S1130AF000000000000000000000000000000000F2
S1130B0000000000000000000000000000000000E1
S1130B1000000000000000000000000000000000D1
S1130B2000000000000000000000000000000000C1
S1130B300000000000000000000000004765686538
S1130B4020332046656C6465722020207A75729A81
S1130B50636B0000000000000000000000000000C3
S1130B600000000000000000000000000000000081
S1130B700000000000000000000000000000000071
S1130B800000000000000000000000000000000061
S1130B900000000000000000000000000000000051
S1130BA00000000000000000000000000000000041
S1130BB00000000000000000000000000000000031
S1130BC00000000000000000000000000000000021
S1130BD00000000000000000000000000000000011
S1130BE00000000000000000000000000000000001
S1130BF000000000000000000000000000000000F1
S1130C000000000044752072656E6F76696572732A
S1130C10742020206465696E65202048847573659E
S1130C20722020205A61686C6520669A72206A6579
S1130C30646573204861757320323520756E6420B5
S1130C40669A72206A6564657320486F74656C20C7
S1130C5031303000000000000000000000000000FF
S1130C600000000000000000000000000000000080
S1130C700000000000000000000000000000000070
S1130C800000000000000000000000000000000060
S1130C900000000000000000000000000000000050
S1130CA00000000000000000000000000000000040
S1130CB00000000000000000000000000000000030
S1130CC000000000000000000000000044752077D0
S1130CD0757264657374207A756D20204B6C617332
S1130CE073656E7665727472657465724765778430
S1130CF0686C742E205A61686C6520206A6564658E
S1130D006D20537069656C657220353000000000F9
S1130D1000000000000000000000000000000000CF
S1130D2000000000000000000000000000000000BF
S1130D3000000000000000000000000000000000AF
S1130D40000000000000000000000000000000009F
S1130D50000000000000000000000000000000008F
S1130D60000000000000000000000000000000007F
S1130D70000000000000000000000000000000006F
S1130D80000000000000000000000000000000005F
S1130D9000000000447520686173742065696E6505
S1130DA020202020576574746520676567656E2070
S1130DB0202020205065746572207665726C6F72F5
S1130DC0656E2020647520736368756C6465737444
S1130DD02069686D65696E656E204B616666656540
S1130DE0202020207A61686C652035000000000016
S1130DF000000000000000000000000000000000EF
S1130E0000000000000000000000000000000000DE
S1130E1000000000000000000000000000000000CE
S1130E2000000000000000000000000000000000BE
S1130E3000000000000000000000000000000000AE
S1130E40000000000000000000000000000000009E
S1130E50000000000000000000000000447520684D
S1130E6061737420626569202020202065696E65A5
S1130E706D204B756E64656E2020202065696E655B
S1130E80207363686C6563687465202042657765C8
S1130E907274756E672020202020202068696E748B
S1130EA065726C617373656E2020202067656865C8
S1130EB020696E2064656E2020202020576F726B9D
S1130EC073686F7000000000000000000000000064
S1130ED0000000000000000000000000000000000E
S1130EE000000000000000000000000000000000FE
S1130EF000000000000000000000000000000000EE
S1130F0000000000000000000000000000000000DD
S1130F1000000000000000000000000000000000CD
S1130F2000000000467265696B6172746500000020
S1130F3000000000000000000000000000000000AD
S1130F40000000000000000000000000000000009D
S1130F50000000000000000000000000000000008D
S1130F60000000000000000000000000000000007D
S1130F70000000000000000000000000000000006D
S1130F80000000000000000000000000000000005D
S1130F90000000000000000000000000000000004D
S1130FA0000000000000000000000000000000003D
S1130FB0000000000000000000000000000000002D
S1130FC0000000000000000000000000000000001D
S1130FD0000000000000000000000000000000000D
S1130FE000000000000000000000000044752072B2
S1130FF0656E6F7669657273742020206465696E0E
S11310006520204884757365722020205A61686CBD
S11310106520669A72206A656465732048617573F9
S113102020343020756E6420669A72206A65646587
S11310307320486F74656C20313135000000000066
S1131040000000000000000000000000000000009C
S1131050000000000000000000000000000000008C
S1131060000000000000000000000000000000007C
S1131070000000000000000000000000000000006C
S1131080000000000000000000000000000000005C
S1131090000000000000000000000000000000004C
S11310A0000000000000000000000000000000003C
S11310B000000000496E206465722020202020205A
S11310C0202020205665727365747A756E672069D6
S11310D0737420206469722065696E20467284737B
S11310E0657220207A657262726F6368656E2E2065
S11310F0202020205A61686C6520313030000000C7
S113110000000000000000000000000000000000DB
S113111000000000000000000000000000000000CB
S113112000000000000000000000000000000000BB
S113113000000000000000000000000000000000AB
S1131140000000000000000000000000000000009B
S1131150000000000000000000000000000000008B
S1131160000000000000000000000000000000007B
S1131170000000000000000000000000447520672B
S1131180946E6E7374206469722020206574776194
S113119073206265696D202020202020536E6163D6
S11311A06B6175746F6D6174202020207A61686CA6
S11311B06520353000000000000000000000000041
S11311C0000000000000000000000000000000001B
S11311D0000000000000000000000000000000000B
S11311E000000000000000000000000000000000FB
S11311F000000000000000000000000000000000EB
S113120000000000000000000000000000000000DA
S113121000000000000000000000000000000000CA
S113122000000000000000000000000000000000BA
S113123000000000000000000000000000000000AA
S113124000000000496872206D616368742065695C
S11312506E65200945786B757273696F6E20202066
S1131260202020207A61686C652035300000000061
S1131270000000000000000000000000000000006A
S1131280000000000000000000000000000000005A
S1131290000000000000000000000000000000004A
S11312A0000000000000000000000000000000003A
S11312B0000000000000000000000000000000002A
S11312C0000000000000000000000000000000001A
S11312D0000000000000000000000000000000000A
S11312E000000000000000000000000000000000FA
S11312F000000000000000000000000000000000EA
S11313000000000000000000000000004475206898
S11313106173742064696520202020204162736316
S1131320686C757373726569736520206F72676189
S11313306E6973696572742C202020206A65646567
S11313407220537069656C65722020207A61686C24
S11313507420646972203130000000000000000035
S11313600000000000000000000000000000000079
S11313700000000000000000000000000000000069
S11313800000000000000000000000000000000059
S11313900000000000000000000000000000000049
S11313A00000000000000000000000000000000039
S11313B00000000000000000000000000000000029
S11313C00000000000000000000000000000000019
S11313D000000000456C656B74726F6E696B65721A
S11313E020202020646573204D6F6E61747320206B
S11313F020202020447520657268846C74737420E6
S11314003130300000000000000000000000000047
S113141000000000000000000000000000000000C8
S113142000000000000000000000000000000000B8
S113143000000000000000000000000000000000A8
S11314400000000000000000000000000000000098
S11314500000000000000000000000000000000088
S11314600000000000000000000000000000000078
S11314700000000000000000000000000000000068
S11314800000000000000000000000000000000058
S11314900000000000000000000000004475206807
S11314A0696C667374206465696E656D4D697473E7
S11314B06368FC6C6572206265696D206C65726E90
S11314C0656E2E20202020202020202044752065B9
S11314D07268846C74737420313000000000000062
S11314E000000000000000000000000000000000F8
S11314F000000000000000000000000000000000E8
S113150000000000000000000000000000000000D7
S113151000000000000000000000000000000000C7
S113152000000000000000000000000000000000B7
S113153000000000000000000000000000000000A7
S11315400000000000000000000000000000000097
S11315500000000000000000000000000000000087
S113156000000000447520657268846C7374203533
S11315703000000000000000000000000000000037
S11315800000000000000000000000000000000057
S11315900000000000000000000000000000000047
S11315A00000000000000000000000000000000037
S11315B00000000000000000000000000000000027
S11315C00000000000000000000000000000000017
S11315D00000000000000000000000000000000007
S11315E000000000000000000000000000000000F7
S11315F000000000000000000000000000000000E7
S113160000000000000000000000000000000000D6
S113161000000000000000000000000000000000C6
S11316200000000000000000000000004475206578
S11316307268846C73742031303000000000000044
S11316400000000000000000000000000000000096
S11316500000000000000000000000000000000086
S11316600000000000000000000000000000000076
S11316700000000000000000000000000000000066
S11316800000000000000000000000000000000056
S11316900000000000000000000000000000000046
S11316A00000000000000000000000000000000036
S11316B00000000000000000000000000000000026
S11316C00000000000000000000000000000000016
S11316D00000000000000000000000000000000006
S11316E000000000000000000000000000000000F6
S11316F000000000447520657268846C73742032A5
S113170035000000000000000000000000000000A0
S113171000000000000000000000000000000000C5
S113172000000000000000000000000000000000B5
S113173000000000000000000000000000000000A5
S11317400000000000000000000000000000000095
S11317500000000000000000000000000000000085
S11317600000000000000000000000000000000075
S11317700000000000000000000000000000000065
S11317800000000000000000000000000000000055
S11317900000000000000000000000000000000045
S11317A00000000000000000000000000000000035
S11317B000000000000000000000000044752065E7
S11317C07268846C737420323000000000000000E2
S11317D00000000000000000000000000000000005
S11317E000000000000000000000000000000000F5
S11317F000000000000000000000000000000000E5
S113180000000000000000000000000000000000D4
S113181000000000000000000000000000000000C4
S113182000000000000000000000000000000000B4
S113183000000000000000000000000000000000A4
S11318400000000000000000000000000000000094
S11318500000000000000000000000000000000084
S11318600000000000000000000000000000000074
S11318700000000000000000000000000000000064
S113188000000000447520657268846C7374203114
S113189030300000000000000000000000000000E4
S11318A00000000000000000000000000000000034
S11318B00000000000000000000000000000000024
S11318C00000000000000000000000000000000014
S11318D00000000000000000000000000000000004
S11318E000000000000000000000000000000000F4
S11318F000000000000000000000000000000000E4
S113190000000000000000000000000000000000D3
S113191000000000000000000000000000000000C3
S113192000000000000000000000000000000000B3
S113193000000000000000000000000000000000A3
S11319400000000000000000000000004475206555
S11319507268846C73742031303000000000000021
S11319600000000000000000000000000000000073
S11319700000000000000000000000000000000063
S11319800000000000000000000000000000000053
S11319900000000000000000000000000000000043
S11319A00000000000000000000000000000000033
S11319B00000000000000000000000000000000023
S11319C00000000000000000000000000000000013
S11319D00000000000000000000000000000000003
S11319E000000000000000000000000000000000F3
S11319F000000000000000000000000000000000E3
S1131A0000000000000000000000000000000000D2
S1131A100000000044752062697374202020202097
S1131A202020202057656C746D6569737465722E6F
S1131A302020202052FC636B6520766F722062693F
S1131A40732020205374617274207A69656865205C
S1131A5064656E20646F7070656C74656E20202000
S1131A60202020204265747261672065696E000041
S1131A700000000000000000000000000000000062
S1131A800000000000000000000000000000000052
S1131A900000000000000000000000000000000042
S1131AA00000000000000000000000000000000032
S1131AB00000000000000000000000000000000022
S1131AC00000000000000000000000000000000012
S1131AD000000000000000000000000044752068C1
S1131AE061737420676567656E20202064696520D2
S1131AF048616E6479726567656C202076657273DF
S1131B00746F7373656E2E2020202020529A636BAD
S1131B106520766F722062697320202050726F6492
S1131B20756B74696F6E202020202020456C656BD6
S1131B3074726F6E696B6572000000000000000033
S1131B400000000000000000000000000000000091
S1131B500000000000000000000000000000000081
S1131B600000000000000000000000000000000071
S1131B700000000000000000000000000000000061
S1131B800000000000000000000000000000000051
S1131B900000000000000000000000000000000041
S1131BA00000000011241FBECFEFD1E2DEBFCDBF85
S1131BB000E00CBF17E0A0E0B2E0E2E9FAEC00E0DC
S1131BC00BBF02C007900D92AA34B107D9F727E1E1
S1131BD0AAE4B7E001C01D92AA3EB207E1F746D2DB
S1131BE00C9447650C94000098B19F7E98B998B105
S1131BF09B7F98B98BB998B1926098B98150833022
S1131C0038F48FE291E10197F1F700C0000003C0BE
S1131C1090EA9A95F1F788B18D7F88B908951F935A
S1131C20CF93DF93CDB7DEB729970FB6F894DEBF15
S1131C300FBECDBF8FEF8AB987B988B1806288B9EA
S1131C402FEF80E792E0215080409040E1F700C000
S1131C50000088B18E7F88B989E0E3E1F2E0DE011B
S1131C60119601900D928A95E1F710E00AC0E1E027
S1131C70F0E0EC0FFD1FE10FF11D808190E0B4DF77
S1131C801F5F1930A0F329960FB6F894DEBF0FBE7C
S1131C90CDBFDF91CF911F91089598B1906198B90C
S1131CA098B19B7F98B98BB988B1826088B980EA72
S1131CB08A95F1F788B18D7F88B9089581E094DF22
S1131CC08FE99FE00197F1F700C00000089582E0DA
S1131CD08BCF0895417070E0660F771F6270282FD4
S1131CE030E0220F331F220F331F2470842F862BE2
S1131CF0822B886079CF08950F931F93CF938A0125
S1131D00282F30E0285F3F4F862F90E1299F800DD8
S1131D1011246ADFC0E002C0C0DFCF5FF801EC0F1E
S1131D20F11D80818111F8CFCF911F910F910895FA
S1131D3088E45ADF84E0B1DF8EE0AFDF85E1ADDF18
S1131D4084E0ABDF84E0A9DF84E0A7DF80E0A5DFE7
S1131D5080E0A3DF80E548DF80E09FDF84E09DDF53
S1131D6084E09BDF84E099DF85E197DF8EE095DFF7
S1131D7084E093DF80E091CF089551DF9FDFA7DFF8
S1131D80D7DF40E060E081E0A5CF08958F929F9275
S1131D90AF92BF92CF92DF92EF92FF920F931F9375
S1131DA0CF93DF93CDB7DEB7A2970FB6F894DEBF1B
S1131DB00FBECDBF6C0121E1CE010196DC01E22F03
S1131DC01D92EA95E9F7FE017296DF011D922A95AC
S1131DD0E9F7F60101900020E9F731978F010C191A
S1131DE01D09E62EF12C5701AA0CBB1CAA0CBB1C26
S1131DF0AA0CBB1CAA0CBB1CB6016A0D7B1D40E1DE
S1131E0050E00E940F62BFEFEB1AFB0AEE0CFF1CBE
S1131E10EE0CFF1CEE0CFF1CEE0CFF1CE016F10692
S1131E205CF4B501605F7F4F6C0D7D1D40E150E0B7
S1131E30CE0142960E940F6241DFAE014F5F5F4FB9
S1131E4060E081E059DFAE014E5E5F4F60E082E00A
S1131E5053DF005211090A151B0514F481E001C077
S1131E6080E0A2960FB6F894DEBF0FBECDBFDF911F
S1131E70CF911F910F91FF90EF90DF90CF90BF9083
S1131E80AF909F908F900895CF93DF931F921F92EE
S1131E90CDB7DEB79A83898389819A81CA969C01DA
S1131EA08AE0ECE1F2E0D90101900D928A95E1F724
S1131EB089819A81CA9627E534E0FC0133AB22ABD1
S1131EC089819A81CA9628E2FC0124AB89819A818E
S1131ED0CA96FC0115AA89819A81CA96FC0116AAA0
S1131EE089819A81CA96FC0117AA89819A81CA9626
S1131EF0FC0110AE89819A81CA96FC0111AE8981D8
S1131F009A818C589F4F9C018AE0E6E2F2E0D90165
S1131F1001900D928A95E1F789819A818C589F4F9F
S1131F202EEA38E0FC0133AB22AB89819A818C58CC
S1131F309F4F28E2FC0124AB89819A818C589F4FE2
S1131F40FC0115AA89819A818C589F4FFC0116AA1D
S1131F5089819A818C589F4FFC0117AA89819A81A3
S1131F608C589F4FFC0110AE89819A818C589F4FE9
S1131F70FC0111AE89819A8182559F4F9C018AE0B0
S1131F80E0E3F2E0D90101900D928A95E1F78981AD
S1131F909A8182559F4F25E03DE0FC0133AB22AB93
S1131FA089819A8182559F4F28E2FC0124AB898163
S1131FB09A8182559F4FFC0115AA89819A81825585
S1131FC09F4FFC0116AA89819A8182559F4FFC017B
S1131FD017AA89819A8182559F4FFC0110AE89818D
S1131FE09A8182559F4FFC0111AE89819A81885153
S1131FF09F4F9C018AE0EAE3F2E0D90101900D923F
S11320008A95E1F789819A8188519F4F2CE531E1C6
S1132010FC0133AB22AB89819A8188519F4F28E21E
S1132020FC0124AB89819A8188519F4FFC0115AA38
S113203089819A8188519F4FFC0116AA89819A81CE
S113204088519F4FFC0117AA89819A8188519F4F1B
S1132050FC0110AE89819A8188519F4FFC0111AE19
S113206000000F900F90DF91CF9108950F931F936D
S1132070CF93DF93CDB7DEB7CF53D2400FB6F894EA
S1132080DEBF0FBECDBF81E089831A8281E08B83DE
S11320901C82CE0187509E4F22E0FC012083CE019A
S11320A087509E4F24E0FC012183CE0187509E4F30
S11320B020E2FC012283CE0187509E4F20E8FC01E0
S11320C02383CE0183509E4F21E0FC012083CE0167
S11320D083509E4F28E0FC012183CE0183509E4F04
S11320E020E1FC012283CE0183509E4F20E4FC01B9
S11320F023831D821E82CE018F5F9D4F26E0FC014B
S1132100322F11923A95E9F71F8218861EAE1FAE40
S11321101B861C861D861E8681E08F8781E0888B46
S1132120CE01895F9D4F28E0E2E6F5E0DC010190F5
S11321300D922A95E1F7198ACE01815F9D4F28E01F
S1132140FC01322F11923A95E9F71A8A1B8ACE01C3
S1132150805C9F4FFC011082CE018F5B9F4FFC017E
S11321601082CE018E5B9F4FFC011082CE018D5BED
S11321709F4FFC011082CE01895E9D4FFC011082AD
S113218011821282CE018C5B9F4FFC01108285E08C
S11321908C8B1D8ACE018B5B9F4FFC0110821E8AA3
S11321A01F8A188E198E81E08A8F1B8E1C8ECE0199
S11321B08A5B9F4FFC0110821E8E1D8E1F8ECE01E6
S11321C0895B9F4FFC011082CE01885B9F4FFC010D
S11321D0108218A219A2CE01875B9F4FFC011082C6
S11321E0CE01865B9F4FFC011082CE01855B9F4F21
S11321F0FC011082CE01865E9D4F2AE0FC01322F45
S113220011923A95E9F71BA21AA283E08CA31DA2AE
S11322101EA21FA2CE018C5D9D4F2CE1FC01322F2A
S113222011923A95E9F70E94B542A7DD84E09AE05D
S11322300E94424480EE98E027DE84E896E10E9402
S11322406A5780E895E20E94345F0E9479340E94C4
S1132250F24080E00E9409410E94FD6118A62FC04F
S113226088A5282F30E040E5429FC001439F900D90
S11322701124895B954FFC0180818823E9F088A5AE
S1132280282F30E040E5429FC001439F900D112468
S1132290895B954FFC01508188A5282F30E040E5EB
S11322A0429FC001439F900D1124815B954FFC0117
S11322B08081652F0E94D13688A58F5F88A788A565
S11322C0883270F2CE01845B9F4FFC011082CE01F4
S11322D0835B9F4FFC011082CE01825B9F4FFC0108
S11322E0108280919417909195179093030A80938C
S11322F0020A109295171092941789E091E0FC015C
S11323008081882F90E0382F222786E091E0FC011D
S11323108081882F90E0822B932B90939517809344
S113232094178091020A9091030A9C01209530959C
S113233080919417909195178223932390930F087B
S113234080930E0880911008882F90E0092E000CCD
S1132350AA0BBB0B40E050E026E030E0841B950B59
S11323602817390710F40C948330FC018827EE58A1
S1132370FF4F8F4F0C94886188858823B9F444E417
S113238052E060E080E0B8DC43E552E060E081E0E8
S1132390B3DC44E652E060E082E0AEDC8091060209
S11323A060EE78E00E94163C81E0888780910E08F8
S11323B090910F0888279072892B91F180910602E1
S11323C0833070F1809106028150809306028091DF
S11323D00602882F90E0292F2F938F9383E792E0B2
S11323E0892F8F9383E792E08F93CE018B569E4F74
S11323F0292F2F938F930E941E620F900F900F909E
S11324000F900F900F90CE018B569E4FAC0163E05E
S113241081E072DC8091060260EE78E00E94163C56
S113242080910E0890910F0888279074892B91F160
S113243080910602843070F5809106028F5F80934C
S1132440060280910602882F90E0292F2F938F9304
S113245083E792E0892F8F9383E792E08F93CE01F5
S11324608B569E4F292F2F938F930E941E620F909D
S11324700F900F900F900F900F90CE018B569E4FA0
S1132480AC0163E081E038DC8091060260EE78E024
S11324900E94163C80910E0890910F088827907135
S11324A0892B11F40C94863081E089A72EC089A56C
S11324B0282F30E04AE3429FC001439F900D11242E
S11324C08E5E964FFC011182108289A5282F30E080
S11324D04AE3429FC001439F900D11248C5E964FA6
S11324E0FC01108289A5282F30E04AE3429FC001F5
S11324F0439F900D11248C5E964FFC01808169A549
S11325000E944A3789A58F5F89A78091060299A501
S1132510891768F68091060260EE78E00E94163C06
S113252046E752E060E080E0E7DB80910602882F16
S113253090E0292F2F938F9383E792E0892F8F9335
S113254083E792E08F93CE018B569E4F292F2F93D2
S11325508F930E941E620F900F900F900F900F9018
S11325600F90CE018B569E4FAC0164E080E0C4DB3B
S113257047E852E060E081E0BFDB48E952E060E018
S113258082E0BADB809106020E940A4381E08093D4
S113259010080C94863081E08AA709C04AE06AA535
S11325A08CED95E00E94C8398AA58F5F8AA7809137
S11325B006029AA5891790F781E08BA766C149EABC
S11325C052E060E080E098DB8BA5882F90E0292F13
S11325D02F938F9383E792E0892F8F9383E792E081
S11325E08F93CE018B569E4F292F2F938F930E944A
S11325F01E620F900F900F900F900F900F90CE01CE
S11326008B569E4FAC016BE080E076DB4AEB52E0E8
S113261060E081E071DB4AEC52E060E082E06CDB78
S113262074C080919417909195179093030A8093A6
S1132630020A109295171092941789E091E0FC0118
S11326408081882F90E0382F222786E091E0FC01DA
S11326508081882F90E0822B932B90939517809301
S113266094178091020A9091030A9C012095309559
S113267080919417909195178223932390930F0838
S113268080930E0880910E0890910F08882791700E
S1132690892B89F080911408882369F49091150896
S11326A080911408492F682F81E00E94773C81E0D3
S11326B08093140818C080910E0890910F08882701
S11326C09270892B81F080911508882361F4909190
S11326D0150880911408492F682F82E00E94773CE6
S11326E081E08093150880911408882329F08A8555
S11326F0882311F482E08A8780911508882329F0C1
S11327008A85882311F481E08A87809114088823BC
S113271009F487CF80911508882309F482CF8BA50B
S1132720282F30E080910C08482F50E080910D084C
S1132730882F90E0840F951FAC016AE3629FC0016B
S1132740639F900D11248E5E964FFC01518340834C
S11327508BA5282F30E04AE3429FC001439F900D90
S113276011248E5E964FFC01208131818F81482F88
S113277050E06AE3649FC001659F900D11248E5E52
S1132780964FFC01808191812817390709F04FC0C9
S11327908A85882F90E00197845F974FFC018081A0
S11327A0823098F08A85882F90E001972A85222F1D
S11327B030E021503109245F374FF9012081215045
S11327C0845F974FFC01208312C08A85882F90E094
S11327D001972A85222F30E021503109245F374F99
S11327E0F90120812F5F845F974FFC0120838BA523
S11327F0282F30E080910C08482F50E080910D087C
S1132800882F90E0840F951FAC016AE3629FC0019A
S1132810639F900D11248E5E964FFC01518340837B
S113282090910D0880910C08692F0E94F43E8BA5AD
S1132830282F30E04AE3429FC001439F900D1124AA
S11328408E5E964FFC01208131818F81482F50E0AC
S11328506AE3649FC001659F900D11248E5E964FBC
S1132860FC01808191818217930710F48BA58F83DB
S113287010921408109215081A8660EE78E08BA561
S11328800E94163C8BA58F5F8BA7809106029BA5A7
S1132890891708F094CE8F8189839E0121593F4F77
S11328A080E090E0AAE7B4E4F90180839183A283F5
S11328B0B3838E010D581F4FCE0181599F4F20E0E5
S11328C030E04AE755E4FC016081718182819381A3
S11328D00E940661DC01CB01F80180839183A2830D
S11328E0B383CE018D589F4F20E030E040E85FE392
S11328F0FC0160817181828193810E94B85F882389
S11329004CF4CE0189589F4F21E030E0FC01318323
S113291020836DC0CE018D589F4F20E03FEF4FE7DD
S113292057E4FC0160817181828193810E9402617C
S113293018160CF04AC0CE0181599F4F20E030E0B8
S113294040E251E4FC0160817181828193810E94A3
S11329500661DC01CB018E0109581F4FBC01CD017A
S11329600E942460DC01CB01F8019183808324C0A0
S1132970CE0187589F4F20E931E0FC013183208349
S1132980CE0187589F4FFC01808191810197F1F717
S11329909E0127583F4FF90191838083CE018958C6
S11329A09F4F9E0129583F4FF901208131812150C9
S11329B03109FC0131832083CE0189589F4FFC01EA
S11329C080819181892BA1F62CC08E0109581F4F5B
S11329D0CE018D589F4FFC0160817181828193816A
S11329E00E942460DC01CB01F80191838083CE0135
S11329F085589F4F9E0129583F4FF901208131810D
S1132A00FC0131832083CE0185589F4FFC018081D6
S1132A1091810197F1F79E0125583F4FF901918368
S1132A20808381E08CA713C08CA5282F30E04AE373
S1132A30429FC001439F900D11248E5E964F2CED52
S1132A4035E0FC01318320838CA58F5F8CA78091B6
S1132A5006029CA5891740F78091060260EE78E093
S1132A600E94163C4BED52E060E080E045D989813C
S1132A70882F90E0292F2F938F9383E792E0892F5B
S1132A808F9383E792E08F93CE018B569E4F292F2D
S1132A902F938F930E941E620F900F900F900F90B0
S1132AA00F900F90CE018B569E4FAC016BE080E0EF
S1132AB023D94CEE52E060E081E01ED94CEF52E0A5
S1132AC060E082E019D982E0809310080C94903081
S1132AD08C85882399F1F2D84BED52E060E080E0D8
S1132AE00BD98981882F90E0292F2F938F9383E727
S1132AF092E0892F8F9383E792E08F93CE018B56D8
S1132B009E4F292F2F938F930E941E620F900F9038
S1132B100F900F900F900F90CE018B569E4FAC01EB
S1132B206BE080E0E9D84CEE52E060E081E0E4D86C
S1132B304DE053E060E082E0DFD81C8680910E080F
S1132B4090910F0888279470892B21F48FA18823F2
S1132B5009F48EC08985882309F48AC08F85882367
S1132B6009F486C08889882309F482C08A8D882361
S1132B7009F47EC06AE08AE00E94F43E9091060265
S1132B808981692F0E946961892F8F5F89834BED49
S1132B9052E060E080E0B0D88981882F90E0292F4E
S1132BA02F938F9383E792E0892F8F9383E792E0AB
S1132BB08F93CE018B569E4F292F2F938F930E9474
S1132BC01E620F900F900F900F900F900F90CE01F8
S1132BD08B569E4FAC016BE080E08ED84CEE52E0F9
S1132BE060E081E089D84DE053E060E082E084D881
S1132BF0198688E290E028E230E0F90120812F7301
S1132C00FC0120831B861E861B8E8981282F30E0C1
S1132C104AE3429FC001439F900D11248C5E964F5E
S1132C20FC018081282F30E040E5429FC001439F92
S1132C30900D11248A5C954FFC0180818CA31DA208
S1132C401EA21FA28CA1843099F48981282F30E020
S1132C504AE3429FC001439F900D11248B5E964F1F
S1132C60FC018081882321F081E08DA381E08987A4
S1132C7080910E0890910F0888279470892B89F011
S1132C808B81882371F48F85882359F08A8D88235A
S1132C9041F06AE08AE00E94F43E81E08B831E8664
S1132CA01B8E8985882309F00FC28B81882309F440
S1132CB00BC20E94043490910C0880910D0898175F
S1132CC009F049C08DA1882309F045C01B828A817F
S1132CD08F5F8A8310921408109215088A81882FB6
S1132CE090E08230910581F083309105B9F001972D
S1132CF009F034C088E290E028E230E0F901208154
S1132D002064FC01208326C088E290E028E230E0C1
S1132D10F90120812068FC0120831CC088E290E036
S1132D2028E230E0F90120812F73FC012083109206
S1132D300C0810920D0810921408109215081A82AB
S1132D4081E08B8381E0898789810E94564184E0F8
S1132D508CA3000003C081E089871A828981282F0F
S1132D6030E04AE3429FC001439F900D11248C5EE2
S1132D70964FFC018081282F30E080910C08482F69
S1132D8050E080910D08882F90E0840F951F820FEA
S1132D90931F88972CF18981482F50E08981282F2F
S1132DA030E06AE3629FC001639F900D11248E5E40
S1132DB0964FFC01808191819C0128533F4F6AE327
S1132DC0649FC001659F900D11248E5E964FFC0197
S1132DD0318320838091060260EE78E00E94163CE5
S1132DE08981282F30E04AE3429FC001439F900D20
S1132DF011248C5E964FFC0180818DA7D9C09DA5BE
S1132E008DEC989F812D112482958695877028E2F8
S1132E10829F802D1124F92FF81B8F2F69810E9426
S1132E204A379E01215B3F4F80E090E0A8ECB2E47A
S1132E30F90180839183A283B3838E0103581F4FCA
S1132E40CE01815B9F4F20E030E04AE755E4FC016E
S1132E5060817181828193810E940661DC01CB01D2
S1132E60F80180839183A283B383CE0183589F4F5B
S1132E7020E030E040E85FE3FC0160817181828101
S1132E8093810E94B85F88234CF4CE018F579F4FE3
S1132E9021E030E0FC01318320836DC0CE018358F2
S1132EA09F4F20E03FEF4FE757E4FC0160817181C1
S1132EB0828193810E94026118160CF04AC0CE01EF
S1132EC0815B9F4F20E030E040E251E4FC016081EF
S1132ED07181828193810E940661DC01CB018E01A4
S1132EE00F571F4FBC01CD010E942460DC01CB01B0
S1132EF0F8019183808324C0CE018D579F4F20E930
S1132F0031E0FC0131832083CE018D579F4FFC01BA
S1132F10808191810197F1F79E012D573F4FF9016F
S1132F2091838083CE018F579F4F9E012F573F4F30
S1132F30F9012081318121503109FC013183208341
S1132F40CE018F579F4FFC0180819181892BA1F67F
S1132F502CC08E010F571F4FCE0183589F4FFC0189
S1132F6060817181828193810E942460DC01CB01A4
S1132F70F80191838083CE018B579F4F9E012F5779
S1132F803F4FF90120813181FC0131832083CE013F
S1132F908B579F4FFC01808191810197F1F79E012E
S1132FA02B573F4FF901918380838DA58F5F8DA7A8
S1132FB08DA5282F30E08981482F50E06AE3649F73
S1132FC0C001659F900D11248C5E964FFC01808199
S1132FD0482F50E080910C08682F70E080910D0814
S1132FE0882F90E0860F971F840F951F28173907A5
S1132FF00CF405CF8981282F30E08981482F50E0D7
S11330006AE3649FC001659F900D11248C5E964F06
S1133010FC018081482F50E080910C08682F70E0FB
S113302080910D08882F90E0860F971F840F951FBD
S113303048E250E0BA010E947561582F4AE3429F6A
S1133040C001439F900D11248C5E964FFC01508368
S11330508981282F30E04AE3429FC001439F900DAD
S113306011248C5E964FFC01808169810E944A374D
S11330708981282F30E04AE3429FC001439F900D8D
S113308011248C5E964FFC018081282F30E040E5AE
S1133090429FC001439F900D11248A5C954FFC010F
S11330A080818CA38981282F30E04AE3429FC001AC
S11330B0439F900D11248C5E964FFC0180818C837C
S11330C010921408109215088091060260EE78E0C0
S11330D00E94163C80910E0890910F0888279071E9
S11330E0892B21F01B8685E0809310088CA1882F02
S11330F090E0092E000CAA0BBB0B40E050E027E047
S113310030E0841B950B2817390710F40C94893090
S1133110FC018827E758FF4F8F4F0C9488618C81FE
S1133120873031F08C81863119F08C81843211F42E
S11331301C8E02C081E08C8F8B8D882311F00C943F
S113314096241A8E80910E0890910F088827907407
S1133150892B19F4888D882379F404E816E1298DE4
S1133160488D69818C8D0E949D598B8F8B8D88230E
S113317019F4888D8E5F888F8981882F90E001975C
S11331809E0127503E4F820F931FFC018081282F00
S113319030E080910E0890910F0882239323892BAD
S11331A011F40C94962481E0898F04E816E1298DAA
S11331B0488D69818C8D0E949D598B8F8981282F20
S11331C030E04AE3429FC001439F900D11248C5E7E
S11331D0964FFC018081282F30E040E5429FC001DA
S11331E0439F900D11248A5C954FFC0180818CA330
S11331F08981282F30E04AE3429FC001439F900D0C
S113320011248C5E964FFC0180818C83198E188E5C
S113321081E08A8F81E08C870C9496248C81282FFE
S113322030E040E5429FC001439F900D1124895B2B
S1133230954FFC0180818823E1F4188A498164E078
S11332407AE08C810E9492308FAF8FAD882F90E00E
S11332508130910519F0029721F00BC081E0888B31
S113326008C081E0888B81E08E8783E0809310081A
S113327000008C81482F50E0CE01855B9F4F60E5B4
S1133280649F9001659F300D11242E5A354FF9012A
S11332902081FC0120838C81282F30E040E5429F6F
S11332A0C001439F900D1124895B954FFC018081DF
S11332B0882311F40C9499248C81282F30E040E564
S11332C0429FC001439F900D1124895B954FFC01DF
S11332D090818981981711F40C9499248E858130FA
S11332E011F40C949924CE01855B9F4FFC018081DD
S11332F0882311F00C9499241F868B85882309F068
S113330001C18C81282F30E040E5429FC001439FDA
S1133310900D1124895B954FFC0180818D878C81F0
S1133320482F50E08C81282F30E060E5629FC00177
S1133330639F900D1124825B954FFC018081882F3F
S113334090E068E2649F9001659F300D1124820F24
S1133350931F880F991F875C954FFC018081918191
S11333609E8F8D8F8C81282F30E040E5429FC001D5
S1133370439F900D11248B5B954FFC01208131817B
S1133380CE01895B9F4FFC01208381E08F8F1EA6B5
S113339025C08C81482F50E08EA5882F90E060E5F1
S11333A0649F9001659F300D1124820F931F875BEA
S11333B0954FFC018081282F30E040E5429FC001F9
S11333C0439F900D1124895B954FFC0190818D855D
S11333D0981709F01F8E8EA58F5F8EA78EA5833058
S11333E0C0F28F8D8823A9F0CE01895B9F4FFC0129
S11333F08081282F30E08D8D9E8D8217930748F4AD
S1133400CE01895B9F4FFC018081882F90E09E8FC5
S11334108D8F4BED52E060E080E00E947C0E89814C
S1133420882F90E0292F2F938F9383E792E0892FA1
S11334308F9383E792E08F93CE018B569E4F292F73
S11334402F938F930E941E620F900F900F900F90F6
S11334500F900F90CE018B569E4FAC016BE080E035
S11334600E947C0E4EE153E060E081E00E947C0EFD
S11334708E8D8F938D8D8F9383E792E0892F8F9319
S113348083E792E08F93CE018B569E4F292F2F9383
S11334908F930E941E620F900F900F900F900F90C9
S11334A00F90CE018B569E4FAC016AE081E00E94E2
S11334B07C0E4FE253E060E082E00E947C0E8D853A
S11334C0882F90E0292F2F938F9383E792E0892F01
S11334D08F9383E792E08F93CE018B569E4F292FD3
S11334E02F938F930E941E620F900F900F900F9056
S11334F00F900F90CE018B569E4FAC016BE082E093
S11335000E947C0E8981882F90E001979E012750AC
S11335103E4F820F931FFC018081282F30E0809161
S11335200E0890910F0882239323892B11F40C9495
S113353099248D8D9E8D21E0AC016D8589810E9439
S1133540E35D8E878E85813011F00C9499241B865F
S113355081E08F8781E08C870C9499248E8581305B
S113356011F40C949C241F868B85882309F068C071
S11335708C81282F30E040E5429FC001439F900D8D
S11335801124895C954FFC01808191819E8F8D8FE0
S11335904BED52E060E080E00E947C0E8981882F30
S11335A090E0292F2F938F9383E792E0892F8F93B5
S11335B083E792E08F93CE018B569E4F292F2F9352
S11335C08F930E941E620F900F900F900F900F9098
S11335D00F90CE018B569E4FAC016BE080E00E94B1
S11335E07C0E4EE153E060E081E00E947C0E8E8D03
S11335F08F938D8D8F9383E792E0892F8F9383E749
S113360092E08F93CE018B569E4F292F2F938F9349
S11336100E941E620F900F900F900F900F900F90CA
S1133620CE018B569E4FAC016AE081E00E947C0E75
S113363040E453E060E082E00E947C0E81E08B87EE
S11336408981882F90E001979E0127503E4F820F79
S1133650931FFC018081282F30E080910E08909107
S11336600F0882239323892B11F40C949C248D8DB1
S11336709E8D2AE0AC0160E089810E94E35D8E8723
S11336808E85813011F00C949C241B8681E08F87F9
S113369081E08C870C949C248C81282F30E040E5B9
S11336A0429FC001439F900D1124895B954FFC01FB
S11336B080818823E1F4188A498164E07AE08C816E
S11336C00E9492308FAF8FAD882F90E081309105AA
S11336D019F0029721F00BC081E0888B08C081E0CB
S11336E0888B81E08E8783E08093100800008C81B2
S11336F0482F50E0CE01855B9F4F60E5649F9001A9
S1133700659F300D11242E5A354FF9012081FC019B
S113371020838C81282F30E040E5429FC001439FE5
S1133720900D1124895B954FFC018081882311F44D
S11337300C949F248C81282F30E040E5429FC001E7
S1133740439F900D1124895B954FFC0190818981E1
S1133750981711F40C949F248E85813011F40C94E5
S11337609F24CE01855B9F4FFC018081882311F04B
S11337700C949F241F868B85882309F0CCC08C81F0
S1133780282F30E040E5429FC001439F900D112453
S1133790895B954FFC0180818D871E8A85E08FA708
S11337A022C08FA5282F30E040E5429FC001439FEF
S11337B0900D1124895B954FFC0140818C81282F49
S11337C030E050E5529FC001539F900D1124895B56
S11337D0954FFC018081481719F48E898F5F8E8B79
S11337E08FA5865F8FA78FA58432D8F28E898150EA
S11337F08E8B8C81482F50E08E89882F90E068E270
S1133800649F9001659F300D1124820F931F880FD0
S1133810991F875C954FFC01808191819E8F8D8FCC
S11338204BED52E060E080E00E947C0E8981882F9D
S113383090E0292F2F938F9383E792E0892F8F9322
S113384083E792E08F93CE018B569E4F292F2F93BF
S11338508F930E941E620F900F900F900F900F9005
S11338600F90CE018B569E4FAC016BE080E00E941E
S11338707C0E4EE153E060E081E00E947C0E8E8D70
S11338808F938D8D8F9383E792E0892F8F9383E7B6
S113389092E08F93CE018B569E4F292F2F938F93B7
S11338A00E941E620F900F900F900F900F900F9038
S11338B0CE018B569E4FAC016AE081E00E947C0EE3
S11338C04FE253E060E082E00E947C0E8D85882FF9
S11338D090E0292F2F938F9383E792E0892F8F9382
S11338E083E792E08F93CE018B569E4F292F2F931F
S11338F08F930E941E620F900F900F900F900F9065
S11339000F90CE018B569E4FAC016BE082E00E947B
S11339107C0E81E08B878981882F90E001979E013E
S113392027503E4F820F931FFC018081282F30E0E7
S113393080910E0890910F0882239323892B09F418
S1133940FEC78D8D9E8D25E0AC016D8589810E9419
S1133950E35D8E878E85813009F0F1C71B8681E097
S11339608F8781E08C87EBC78DA1882309F4EAC790
S11339708981282F30E04AE3429FC001439F900D84
S113398011248B5E964FFC018081882309F42CC19D
S11339908EA1882309F028C14BED52E060E080E05D
S11339A00E947C0E8981882F90E0292F2F938F937A
S11339B083E792E0892F8F9383E792E08F93CE0180
S11339C08B569E4F292F2F938F930E941E620F9028
S11339D00F900F900F900F900F90CE018B569E4F2B
S11339E0AC016BE080E00E947C0E41E553E060E0B6
S11339F081E00E947C0E42E653E060E082E00E9497
S1133A007C0E81E08EA39E012D5A3F4F80E090E40E
S1133A10ACE9B5E4F90180839183A283B3838E0179
S1133A2009571F4FCE018D5A9F4F20E030E04AE7DF
S1133A3055E4FC0160817181828193810E94066159
S1133A40DC01CB01F80180839183A283B383CE018F
S1133A5089579F4F20E030E040E85FE3FC0160813C
S1133A607181828193810E94B85F88234CF4CE01D6
S1133A7085579F4F21E030E0FC01318320836DC0E6
S1133A80CE0189579F4F20E03FEF4FE757E4FC01F9
S1133A9060817181828193810E94026118160CF009
S1133AA04AC0CE018D5A9F4F20E030E040E251E4FD
S1133AB0FC0160817181828193810E940661DC0135
S1133AC0CB018E0105571F4FBC01CD010E9424601C
S1133AD0DC01CB01F8019183808324C0CE0183579C
S1133AE09F4F20E931E0FC0131832083CE018357CD
S1133AF09F4FFC01808191810197F1F79E0123572B
S1133B003F4FF90191838083CE0185579F4F9E01DA
S1133B1025573F4FF9012081318121503109FC01A2
S1133B2031832083CE0185579F4FFC018081918191
S1133B30892BA1F62CC08E0105571F4FCE01895742
S1133B409F4FFC0160817181828193810E94246076
S1133B50DC01CB01F80191838083CE0181579F4F13
S1133B609E0125573F4FF90120813181FC013183AA
S1133B702083CE0181579F4FFC0180819181019761
S1133B80F1F79E0121573F4FF90191838083898189
S1133B90282F30E04AE3429FC001439F900D112437
S1133BA0895E964FFC018081882379F0109204028B
S1133BB043E753E060E081E00E947C0E44E853E078
S1133BC060E082E00E947C0E0FC081E080930402DA
S1133BD045E953E060E081E00E947C0E46EA53E050
S1133BE060E082E00E947C0E80910402882F90E0C5
S1133BF08130910509F44FC0823091051CF4892B62
S1133C0049F03AC48230910509F46CC0039709F471
S1133C100FC232C48E81882381F047EB53E060E009
S1133C2081E00E947C0E46EA53E060E082E00E945C
S1133C307C0E81E0809304021AC48D81882309F4E8
S1133C4016C48981282F30E04AE3429FC001439F74
S1133C50900D11248B5E964FFC0110828981282FD0
S1133C6030E04AE3429FC001439F900D1124895ED6
S1133C70964FFC0110828981282F30E04AE3429F4D
S1133C80C001439F900D11248A5E964FFC0110825F
S1133C9019861DA2ECC38E81882381F082E0809373
S1133CA0040248EC53E060E081E00E947C0E49EDA0
S1133CB053E060E082E00E947C0EDBC38D818823A8
S1133CC009F4D7C34CEE52E060E081E00E947C0E20
S1133CD04AEE53E060E082E00E947C0E83E0809331
S1133CE00402C7C38E81882371F18981282F30E0B3
S1133CF04AE3429FC001439F900D1124895E964F71
S1133D00FC018081882379F01092040243E753E098
S1133D1060E081E00E947C0E44E853E060E082E0D1
S1133D200E947C0EA8C381E08093040247EB53E019
S1133D3060E081E00E947C0E46EA53E060E082E0AD
S1133D400E947C0E98C38D81882309F494C321E0DA
S1133D5042E350E060E089810E94E35D8E878E85B6
S1133D60813049F54BEF53E060E081E00E947C0E26
S1133D704CE054E060E082E00E947C0E8981282FB0
S1133D8030E04AE3429FC001439F900D11248B5EB3
S1133D90964FFC0110828981282F30E04AE3429F2C
S1133DA0C001439F900D11248A5E964FFC0110823E
S1133DB019861DA260C38E85823009F05CC34BEF67
S1133DC053E060E081E00E947C0E4DE154E060E04D
S1133DD082E00E947C0E9E01295A3F4F80E090E4CD
S1133DE0ACE9B5E4F90180839183A283B3838E01A6
S1133DF00F561F4FCE01895A9F4F20E030E04AE70B
S1133E0055E4FC0160817181828193810E94066185
S1133E10DC01CB01F80180839183A283B383CE01BB
S1133E208F569F4F20E030E040E85FE3FC01608163
S1133E307181828193810E94B85F88234CF4CE0102
S1133E408B569F4F21E030E0FC01318320836DC00D
S1133E50CE018F569F4F20E03FEF4FE757E4FC0120
S1133E6060817181828193810E94026118160CF035
S1133E704AC0CE01895A9F4F20E030E040E251E42D
S1133E80FC0160817181828193810E940661DC0161
S1133E90CB018E010B561F4FBC01CD010E94246043
S1133EA0DC01CB01F8019183808324C0CE018956C3
S1133EB09F4F20E931E0FC0131832083CE018956F4
S1133EC09F4FFC01808191810197F1F79E01295652
S1133ED03F4FF90191838083CE018B569F4F9E0102
S1133EE02B563F4FF9012081318121503109FC01CA
S1133EF031832083CE018B569F4FFC0180819181B9
S1133F00892BA1F62CC08E010B561F4FCE018F5664
S1133F109F4FFC0160817181828193810E942460A2
S1133F20DC01CB01F80191838083CE0187569F4F3A
S1133F309E012B563F4FF90120813181FC013183D1
S1133F402083CE0187569F4FFC0180819181019788
S1133F50F1F79E0127563F4FF901918380838981B0
S1133F60282F30E04AE3429FC001439F900D112463
S1133F70895E964FFC018081882379F010920402B7
S1133F8043E753E060E081E00E947C0E44E853E0A4
S1133F9060E082E00E947C0E0FC081E08093040206
S1133FA045E953E060E081E00E947C0E46EA53E07C
S1133FB060E082E00E947C0E8981282F30E04AE391
S1133FC0429FC001439F900D11248A5E964FFC01CD
S1133FD08081882F90E0292F2F938F9383E792E09D
S1133FE0892F8F9383E792E08F93CE018B569E4F58
S1133FF0292F2F938F930E941E620F900F900F9082
S11340000F900F900F90CE018B569E4FAC0160E045
S113401081E00E947C0E4EE254E060E081E00E9468
S11340207C0E4FE354E060E082E00E947C0E23C2E9
S113403010921408109215080E94043490910C08F0
S113404080910D08981709F0ECC040E554E060E059
S113405081E00E947C0E4AEE53E060E082E00E9420
S11340607C0E19868981282F30E04AE3429FC001E3
S1134070439F900D11248A5E964FFC011082898122
S1134080282F30E04AE3429FC001439F900D112442
S11340908B5E964FFC0110829E01255A3F4F80E0B3
S11340A090E4ACE9B5E4F90180839183A283B383FE
S11340B08E0105561F4FCE01855A9F4F20E030E0F8
S11340C04AE755E4FC0160817181828193810E94F9
S11340D00661DC01CB01F80180839183A283B38361
S11340E0CE0185569F4F20E030E040E85FE3FC01BD
S11340F060817181828193810E94B85F88234CF42E
S1134100CE0181569F4F21E030E0FC0131832083B2
S11341106DC0CE0185569F4F20E03FEF4FE757E437
S1134120FC0160817181828193810E940261181671
S11341300CF04AC0CE01855A9F4F20E030E040E2A7
S113414051E4FC0160817181828193810E94066146
S1134150DC01CB018E0101561F4FBC01CD010E9431
S11341602460DC01CB01F8019183808324C0CE015B
S11341708F559F4F20E931E0FC0131832083CE012C
S11341808F559F4FFC01808191810197F1F79E012A
S11341902F553F4FF90191838083CE0181569F4F64
S11341A09E0121563F4FF90120813181215031096F
S11341B0FC0131832083CE0181569F4FFC01808115
S11341C09181892BA1F658C18E0101561F4FCE0152
S11341D085569F4FFC0160817181828193810E9489
S11341E02460DC01CB01F80191838083CE018D55DD
S11341F09F4F9E0121563F4FF90120813181FC01DF
S113420031832083CE018D559F4FFC0180819181A4
S11342100197F1F79E012D553F4FF901918380835A
S11342202BC141E654E060E081E00E947C0E4AEE3E
S113423053E060E082E00E947C0E10921408109219
S113424015088981282F30E08981482F50E06AE3DE
S1134250649FC001659F900D11248A5E964FFC01F6
S1134260808141E0480F5AE3529FC001539F900D53
S113427011248A5E964FFC0140838981282F30E007
S11342804AE3429FC001439F900D11248A5E964FDA
S1134290FC018081833021F521E042E350E060E0BD
S11342A089810E94E35D8E878981282F30E04AE36B
S11342B0429FC001439F900D11248A5E964FFC01DA
S11342C010828981282F30E04AE3429FC001439F36
S11342D0900D11248B5E964FFC0110821986CCC080
S11342E081E08FA39E01215A3F4F80E090E4ACE926
S11342F0B5E4F90180839183A283B3838E010B55C6
S11343001F4FCE01815A9F4F20E030E04AE755E429
S1134310FC0160817181828193810E940661DC01CC
S1134320CB01F80180839183A283B383CE018B55A3
S11343309F4F20E030E040E85FE3FC016081718141
S1134340828193810E94B85F88234CF4CE01875503
S11343509F4F21E030E0FC01318320836DC0CE010A
S11343608B559F4F20E03FEF4FE757E4FC016081FE
S11343707181828193810E94026118160CF04AC0F7
S1134380CE01815A9F4F20E030E040E251E4FC012D
S113439060817181828193810E940661DC01CB017D
S11343A08E0107551F4FBC01CD010E942460DC0122
S11343B0CB01F8019183808324C0CE0185559F4FA2
S11343C020E931E0FC0131832083CE0185559F4FE4
S11343D0FC01808191810197F1F79E0125553F4FA2
S11343E0F90191838083CE0187559F4F9E01275504
S11343F03F4FF9012081318121503109FC01318382
S11344002083CE0187559F4FFC0180819181892BA8
S1134410A1F632C08E0107551F4FCE018B559F4F19
S1134420FC0160817181828193810E942460DC019E
S1134430CB01F80191838083CE0183559F4F9E0168
S113444027553F4FF90120813181FC0131832083BD
S1134450CE0183559F4FFC01808191810197F1F733
S11344609E0123553F4FF9019183808305C00000CD
S113447003C0000001C000008981882F90E00197EB
S11344809E0127503E4F820F931FFC018081282FED
S113449030E080910E0890910F0882239323892B9A
S11344A021F081E08D831E824DC28981882F90E0A6
S11344B001979E0123503E4F820F931FFC01808180
S11344C0282F30E080910E0890910F0882239323C7
S11344D0892B21F01D8281E08E8334C21D821E82CD
S11344E031C289810E94564184E08CA38981282F9E
S11344F030E04AE3429FC001439F900D11248B5E3C
S1134500964F21E0FC01208381E08B8381E0898741
S11345101DC28C81282F30E040E5429FC001439F9B
S1134520900D1124895B954FFC0180818823E1F46F
S1134530188A498164E07AE08C810E9492308FAFBE
S11345408FAD882F90E08130910519F0029721F00A
S11345500BC081E0888B08C081E0888B81E08E8766
S113456083E08093100800008C81482F50E0CE0136
S1134570855B9F4F60E5649F9001659F300D11241A
S11345802E5A354FF9012081FC0120838C81282F7C
S113459030E040E5429FC001439F900D1124895BA8
S11345A0954FFC018081882309F4CFC18C81282F89
S11345B030E040E5429FC001439F900D1124895B88
S11345C0954FFC0190818981981709F4BEC18E85AD
S11345D0813009F4BAC1CE01855B9F4FFC01808113
S11345E0882309F0B2C11F868B85882309F070C126
S11345F09091070E80910713981719F48AE08F8B16
S113460002C084E08F8B4BED52E060E080E00E94BA
S11346107C0E8981882F90E0292F2F938F9383E735
S113462092E0892F8F9383E792E08F93CE018B568C
S11346309E4F292F2F938F930E941E620F900F90ED
S11346400F900F900F900F90CE018B569E4FAC01A0
S11346506BE080E00E947C0E42E754E060E081E081
S11346600E947C0E44E854E060E082E00E947C0EEC
S11346708F89882F90E0292F2F938F9383E792E0DF
S1134680892F8F9383E792E08F93CE018B569E4FB1
S1134690292F2F938F930E941E620F900F900F90DB
S11346A00F900F900F90CE018B569E4FAC016EE091
S11346B082E00E947C0E62C08091941790919517BD
S11346C09093030A8093020A1092951710929417FC
S11346D089E091E0FC018081882F90E0382F222727
S11346E086E091E0FC018081882F90E0822B932B5F
S11346F090939517809394178091020A9091030ADE
S11347009C01209530958091941790919517822360
S1134710932390930F0880930E0880910E08909134
S11347200F0888279170892B89F0809114088823B9
S113473069F49091150880911408492F682F81E03D
S11347400E94773C81E08093140818C080910E0881
S113475090910F0888279270892B81F08091150819
S1134760882361F49091150880911408492F682FCB
S113477082E00E94773C81E08093150880911408C0
S1134780882309F499CF80911508882309F494CFDC
S11347908C81282F30E040E5429FC001439F900D5B
S11347A01124895B954FFC0180818D8780910C08D1
S11347B0282F30E080910D08882F90E0A901480F40
S11347C0591F8F89282F30E0429FC001439F900DCD
S11347D0529F900D11249E8F8D8F4BED52E060E01F
S11347E080E00E947C0E8981882F90E0292F2F93EE
S11347F08F9383E792E0892F8F9383E792E08F93DF
S1134800CE018B569E4F292F2F938F930E941E62A9
S11348100F900F900F900F900F900F90CE018B562A
S11348209E4FAC016BE080E00E947C0E4EE153E0B1
S113483060E081E00E947C0E8E8D8F938D8D8F932E
S113484083E792E0892F8F9383E792E08F93CE01E1
S11348508B569E4F292F2F938F930E941E620F9089
S11348600F900F900F900F900F90CE018B569E4F8C
S1134870AC016AE081E00E947C0E4FE253E060E00C
S113488082E00E947C0E8D85882F90E0292F2F9343
S11348908F9383E792E0892F8F9383E792E08F933E
S11348A0CE018B569E4F292F2F938F930E941E6209
S11348B00F900F900F900F900F900F90CE018B568A
S11348C09E4FAC016BE082E00E947C0E81E08B87FE
S11348D08981882F90E001979E0127503E4F820FD7
S11348E0931FFC018081282F30E080910E08909165
S11348F00F0882239323892B41F18D8D9E8D21E016
S1134900AC016D8589810E94E35D8E878E8581303F
S1134910E1F41B8681E08F8781E08C871092140874
S11349201092150812C000000C94893000000C94F9
S1134930893000000C94893000000C948930000008
S11349400C94893000000C94893000000C94893058
S11349508B85882309F050C00E945E0E45E954E01F
S113496060E080E00E947C0E8C81282F30E040E5DE
S1134970429FC001439F900D11248C5F954FAC0161
S113498060E081E00E947C0E46EA54E060E082E050
S11349900E947C0E89E090E09BA38AA381E08B8730
S11349A081E088AB24C088A9882F90E028A9422FF1
S11349B050E06AE3649F9001659F300D11242E5EE0
S11349C0364FF90120813181AE01465E5D4F880F7B
S11349D0991F840F951FFC013183208340E068A94F
S11349E080E090E00E94C83988A98F5F88AB8091ED
S11349F0060298A98917B8F619AA9AC089A9882F16
S1134A0090E09E0127503E4F820F931FFC0180814E
S1134A10282F30E080910E0890910F088223932371
S1134A20892B09F44BC089A9882F90E09E012F5F40
S1134A303D4F820F931FFC018081882309F03EC003
S1134A4089A9882F90E09C012F5F3F4F4AE3429F42
S1134A50C001439F900D11248E5E964FFC0120816E
S1134A6031818AA19BA101968217930738F58AA107
S1134A709BA101969BA38AA381E08AAB09C040E075
S1134A806AA980E090E00E94C8398AA98F5F8AAB46
S1134A90809106029AA9891790F789A921E0280F25
S1134AA08AA19BA141E0622F0E94C83989A921E013
S1134AB0280FCE018F5F9D4FFC01258389A9882F84
S1134AC090E09E0123503E4F820F931FFC01808192
S1134AD0282F30E080910E0890910F0882239323B1
S1134AE0892B19F189A9882F90E09E012F5F3D4FF2
S1134AF0820F931FFC0180818823B9F489A9882F30
S1134B0090E09E012F5F3D4F820F931F21E0FC0137
S1134B102083CE018F5F9D4FFC01848121E0280F0B
S1134B20CE018F5F9D4FFC01248389A98F5F89ABE0
S1134B308091060299A9981708F460CFCE018F5F7F
S1134B409D4FFC01948180910602981711F00C94FA
S1134B508C30CE018F5F9D4FFC018581882309F441
S1134B6052C20E945E0E9E0125593F4F80E090E0A4
S1134B70A0E2B1E4F90180839183A283B3838E011F
S1134B8007541F4FCE0185599F4F20E030E04AE77C
S1134B9055E4FC0160817181828193810E940661E8
S1134BA0DC01CB01F80180839183A283B383CE011E
S1134BB087549F4F20E030E040E85FE3FC016081D0
S1134BC07181828193810E94B85F88234CF4CE0165
S1134BD083549F4F21E030E0FC01318320836DC07A
S1134BE0CE0187549F4F20E03FEF4FE757E4FC018D
S1134BF060817181828193810E94026118160CF098
S1134C004AC0CE0185599F4F20E030E040E251E494
S1134C10FC0160817181828193810E940661DC01C3
S1134C20CB018E0103541F4FBC01CD010E942460AF
S1134C30DC01CB01F8019183808324C0CE0181542F
S1134C409F4F20E931E0FC0131832083CE01815460
S1134C509F4FFC01808191810197F1F79E012154BE
S1134C603F4FF90191838083CE0183549F4F9E016E
S1134C7023543F4FF9012081318121503109FC0136
S1134C8031832083CE0183549F4FFC018081918125
S1134C90892BA1F62CC08E0103541F4FCE018754DB
S1134CA09F4FFC0160817181828193810E94246005
S1134CB0DC01CB01F80191838083CE018F539F4F98
S1134CC09E0123543F4FF90120813181FC0131833E
S1134CD02083CE018F539F4FFC01808191810197E6
S1134CE0F1F79E012F533F4FF9019183808347EBE6
S1134CF054E060E080E00E947C0E4BED52E060E006
S1134D0081E00E947C0ECE018F5F9D4FFC01858166
S1134D10882F90E0292F2F938F9383E792E0892F98
S1134D208F9383E792E08F93CE018B569E4F292F6A
S1134D302F938F930E941E620F900F900F900F90ED
S1134D400F900F90CE018B569E4FAC016BE081E02B
S1134D500E947C0E9E012D593F4F80E090E0AAE70F
S1134D60B5E4F90180839183A283B3838E01015555
S1134D701F4FCE018D599F4F20E030E04AE755E4A4
S1134D80FC0160817181828193810E940661DC0152
S1134D90CB01F80180839183A283B383CE01815533
S1134DA09F4F20E030E040E85FE3FC0160817181C7
S1134DB0828193810E94B85F88234CF4CE018D5484
S1134DC09F4F21E030E0FC01318320836DC0CE0190
S1134DD081559F4F20E03FEF4FE757E4FC0160818E
S1134DE07181828193810E94026118160CF04AC07D
S1134DF0CE018D599F4F20E030E040E251E4FC01A8
S1134E0060817181828193810E940661DC01CB0102
S1134E108E010D541F4FBC01CD010E942460DC01A2
S1134E20CB01F8019183808324C0CE018B549F4F22
S1134E3020E931E0FC0131832083CE018B549F4F64
S1134E40FC01808191810197F1F79E012B543F4F22
S1134E50F90191838083CE018D549F4F9E012D547F
S1134E603F4FF9012081318121503109FC01318307
S1134E702083CE018D549F4FFC0180819181892B29
S1134E80A1F62CC08E010D541F4FCE0181559F4FAA
S1134E90FC0160817181828193810E942460DC0124
S1134EA0CB01F80191838083CE0189549F4F9E01E9
S1134EB02D543F4FF90120813181FC01318320833E
S1134EC0CE0189549F4FFC01808191810197F1F7B4
S1134ED09E0129543F4FF9019183808381E08BAB7C
S1134EE01EC08BA9482F50E08BA9882F90E09E010B
S1134EF0265E3D4F880F991F820F931FFC0120816E
S1134F0031816AE3649FC001659F900D11248E5E18
S1134F10964FFC01318320838BA98F5F8BAB8091EB
S1134F2006029BA98917E8F68091060260EE78E0F4
S1134F300E94163CCE018F5F9D4FFC018581482F56
S1134F4050E0CE018F5F9D4FFC018581282F30E01A
S1134F506AE3629FC001639F900D11248E5E964F99
S1134F60FC01208131818AA19BA1281B390B6AE3B2
S1134F70649FC001659F900D11248E5E964FFC01C5
S1134F80318320838C81282F30E0CE018F5F9D4FA9
S1134F90FC01458150E5529FC001539F900D11249F
S1134FA0895B954FFC014083CE018F5F9D4FFC01CF
S1134FB055818C81282F30E040E5429FC001439FFA
S1134FC0900D1124815B954FFC018081652F0E9417
S1134FD0D1361CAA0DC08CA9882F90E09E012F5FAA
S1134FE03D4F820F931FFC0110828CA98F5F8CAB05
S1134FF08CA9863080F31B8681E08C8782E08093C5
S113500010080C948C300E945E0E48EC54E060E072
S113501080E00E947C0E48ED54E060E081E00E9454
S11350207C0E9E0129593F4F80E090E0AAE7B5E449
S1135030F90180839183A283B3838E010D531F4FA3
S1135040CE0189599F4F20E030E04AE755E4FC0146
S113505060817181828193810E940661DC01CB01B0
S1135060F80180839183A283B383CE018D539F4F34
S113507020E030E040E85FE3FC01608171818281DF
S113508093810E94B85F88234CF4CE0189539F4FCB
S113509021E030E0FC01318320836DC0CE018D53CB
S11350A09F4F20E03FEF4FE757E4FC01608171819F
S11350B0828193810E94026118160CF04AC0CE01CD
S11350C089599F4F20E030E040E251E4FC016081C7
S11350D07181828193810E940661DC01CB018E0182
S11350E009531F4FBC01CD010E942460DC01CB0198
S11350F0F8019183808324C0CE0187539F4F20E918
S113510031E0FC0131832083CE0187539F4FFC01A2
S1135110808191810197F1F79E0127533F4FF90157
S113512091838083CE0189539F4F9E0129533F4F22
S1135130F9012081318121503109FC01318320831F
S1135140CE0189539F4FFC0180819181892BA1F667
S11351502CC08E0109531F4FCE018D539F4FFC016C
S113516060817181828193810E942460DC01CB0182
S1135170F80191838083CE0185539F4F9E0129536B
S11351803F4FF90120813181FC0131832083CE011D
S113519085539F4FFC01808191810197F1F79E0116
S11351A025533F4FF9019183808381E08DAB1EC06D
S11351B08DA9482F50E08DA9882F90E09E01265E8E
S11351C03D4F880F991F820F931FFC01208131816D
S11351D06AE3649FC001659F900D11248E5E964F13
S11351E0FC01318320838DA98F5F8DAB80910602F2
S11351F09DA98917E8F68091060260EE78E00E9486
S1135200163C1EAA0DC08EA9882F90E09E012F5F28
S11352103D4F820F931FFC0110828EA98F5F8EABCE
S11352208EA9863080F31B8681E08C8782E0809390
S1135230100872C71FAA0EC08FA9882F90E09E0184
S1135240215F3D4F820F931F21E0FC0120838FA932
S11352508F5F8FAB8FA9883078F318AED3C380915A
S11352609417909195179093030A8093020A1092D1
S113527095171092941789E091E0FC018081882FA2
S113528090E0382F222786E091E0FC018081882F6E
S113529090E0822B932B9093951780939417809191
S11352A0020A9091030A9C012095309580919417ED
S11352B0909195178223932390930F0880930E085F
S11352C081E0898B88AD882F90E09E01295F3D4F56
S11352D0820F931FFC018081282F30E040E5429F1C
S11352E0C001439F900D1124895B954FFC0190816F
S11352F08981981709F083C319AE7EC088AD882FC1
S113530090E09E01295F3D4F820F931FFC01808135
S1135310482F50E089AD882F90E060E5649F9001AC
S1135320659F300D1124820F931F875B954FFC01FD
S11353308081282F30E040E5429FC001439F900DBB
S11353401124895B954FFC01908189819817E9F0BC
S113535088AD882F90E09E01295F3D4F820F931FF7
S1135360FC018081482F50E089AD882F90E060E5F2
S1135370649F9001659F300D1124820F931F875BFA
S1135380954FFC018081882349F588AD882F90E0F2
S11353909E01295F3D4F820F931FFC018081482F9E
S11353A050E089AD882F90E060E5649F9001659F8F
S11353B0300D1124820F931F875B954FFC01808170
S11353C0282F30E040E5429FC001439F900D1124F7
S11353D08F5A954FFC018081882359F0198A88AD32
S11353E0882F90E09E01215F3D4F820F931FFC01A7
S11353F0108289AD8F5F89AF89AD833008F47ECF89
S11354008989882309F4FBC21B8688AD882F90E024
S11354109E01295F3D4F820F931FFC0180818B8B7E
S1135420E7C280919417909195179093030A809303
S1135430020A109295171092941789E091E0FC01EA
S11354408081882F90E0382F222786E091E0FC01AC
S11354508081882F90E0822B932B909395178093D3
S113546094178091020A9091030A9C01209530952B
S113547080919417909195178223932390930F080A
S113548080930E088FEF8C8B1D8A1AAE69C088AD8D
S1135490882F90E09E01295F3D4F820F931FFC01EE
S11354A08081482F50E08AAD882F90E060E5649FAA
S11354B09001659F300D1124820F931F875B954FD8
S11354C0FC018081882309F448C088AD882F90E0CE
S11354D09E01295F3D4F820F931FFC018081482F5D
S11354E050E08AAD882F90E060E5649F9001659F4D
S11354F0300D1124820F931F875B954FFC0180812F
S1135500482F50E0CE018C5B9F4F60E5649F900173
S1135510659F300D1124225B354FF9012081FC0178
S11355202083CE018C5B9F4FFC0190818C8998175E
S113553030F4CE018C5B9F4FFC0180818C8BCE01BB
S11355408C5B9F4FFC0190818D89891730F4CE01CB
S11355508C5B9F4FFC0180818D8B8AAD8F5F8AAFFE
S11355608AAD833008F493CF1BAE76C088AD882F04
S113557090E09E01295F3D4F820F931FFC018081C3
S1135580482F50E08BAD882F90E060E5649F900138
S1135590659F300D1124820F931F875B954FFC018B
S11355A08081482F50E0CE018C5B9F4F60E5649F63
S11355B09001659F300D1124225B354FF901208144
S11355C0FC012083CE018C5B9F4FFC0190818D896F
S11355D0981761F48BAD882F90E09E01295E3D4FB2
S11355E0820F931F21E0FC01208333C088AD882FF4
S11355F090E09E01295F3D4F820F931FFC01808143
S1135600482F50E08BAD882F90E060E5649F9001B7
S1135610659F300D1124820F931F875B954FFC010A
S11356208081882359F08BAD882F90E09E01295EFC
S11356303D4F820F931FFC0110820BC08BAD882F4E
S113564090E09E01295E3D4F820F931F21E0FC01F3
S113565020838BAD8F5F8BAF8BAD833008F486CF07
S11356608B858823D9F50E945E0E49EE54E060E0F4
S113567080E00E947C0E8B89282F30E040E5429F19
S1135680C001439F900D11248C5F954FAC0160E0E5
S113569081E00E947C0E4AEF54E060E082E00E94C8
S11356A07C0E88AD882F90E09E01295F3D4F820FCC
S11356B0931FFC018081282F30E040E5429FC00108
S11356C0439F900D1124825B954FFC012081CE01F4
S11356D0805C9F4FFC01208381E08B8780910E08C2
S11356E090910F0888279074892B09F48FC0CE01FC
S11356F0895E9D4FFC0180818823E9F0CE01895E9B
S11357009D4FFC0181818823B1F0CE01895E9D4FBC
S1135710FC018281882379F0CE01895E9D4FFC01D2
S11357201082CE01895E9D4FFC011182CE01895EFB
S11357309D4FFC0112828A89882F90E08130910567
S113574031F18230910509F43FC0892B09F05EC024
S1135750CE01895E9D4FFC018081882309F051C0F0
S11357608E010B5B1F4F69818B897ED6F801808384
S1135770CE018B5B9F4FFC018081882309F441C0DB
S1135780CE01895E9D4F21E0FC0120833AC0CE0109
S1135790895E9D4FFC0181818823A9F58E010B5BF5
S11357A01F4F69818B8960D6F8018083CE018B5BA2
S11357B09F4FFC018081882331F1CE01895E9D4F8A
S11357C021E0FC0121831FC0CE01895E9D4FFC01B5
S11357D082818823D1F48E010B5B1F4F69818B89F1
S11357E043D6F8018083CE018B5B9F4FFC018081FF
S11357F0882359F0CE01895E9D4F21E0FC0122836C
S113580004C0000003C0000001C0000080910E0825
S113581090910F0888279072892B09F48FC0CE01CC
S1135820895E9D4FFC018081882301F5CE01895E4C
S11358309D4FFC0181818823C9F4CE01895E9D4F6F
S1135840FC018281882391F4CE01895E9D4F21E081
S1135850FC012083CE01895E9D4F21E0FC01218360
S1135860CE01895E9D4F21E0FC0122838A89882F25
S113587090E08130910529F18230910509F43DC011
S1135880892B09F05BC0CE01895E9D4FFC018081AC
S1135890882309F44EC08E010B5B1F4F69818B89ED
S11358A0BFD6F8018083CE018B5B9F4FFC018081C2
S11358B0882309F43EC0CE01895E9D4FFC0110820D
S11358C038C0CE01895E9D4FFC018181882399F106
S11358D08E010B5B1F4F69818B89A2D6F8018083EF
S11358E0CE018B5B9F4FFC018081882321F1CE0187
S11358F0895E9D4FFC0111821EC0CE01895E9D4FC1
S1135900FC0182818823C9F08E010B5B1F4F6981E2
S11359108B8986D6F8018083CE018B5B9F4FFC0177
S11359208081882351F0CE01895E9D4FFC01128253
S113593004C0000003C0000001C0000080910E08F4
S113594090910F0888279870892B09F451C08A898F
S1135950882F90E0019623E030E0B9010E94756140
S11359608A8B88AD882F90E09E01295F3D4F820F7E
S1135970931FFC018081482F50E08A89882F90E092
S113598060E5649F9001659F300D1124820F931F81
S1135990875B954FFC0180818B8B8B89882339F53C
S11359A01A8A88AD882F90E09E01295F3D4F820FAF
S11359B0931FFC018081482F50E08A89882F90E052
S11359C060E5649F9001659F300D1124820F931F41
S11359D0875B954FFC0180818B8BCE01895E9D4F47
S11359E0FC012181CE01895E9D4FFC0122831B862F
S11359F080910E0890910F0899230CF012CD88AD78
S1135A008F5F88AF88AD883008F429CC0E945E0E81
S1135A104BED52E060E080E00E947C0E8981882F8B
S1135A2090E0292F2F938F9383E792E0892F8F9310
S1135A3083E792E08F93CE018B569E4F292F2F93AD
S1135A408F930E941E620F900F900F900F900F90F3
S1135A500F90CE018B569E4FAC016BE080E00E940C
S1135A607C0E4CEE52E060E081E00E947C0E4CEF34
S1135A7052E060E082E00E947C0E85E08C8B1D8AFF
S1135A8082E0809310084CC380910502882F90E037
S1135A90009709F45AC0019709F0B1C08B85882397
S1135AA0B9F54BED52E060E080E00E947C0E898104
S1135AB0882F90E0292F2F938F9383E792E0892FEB
S1135AC08F9383E792E08F93CE018B569E4F292FBD
S1135AD02F938F930E941E620F900F900F900F9040
S1135AE00F900F90CE018B569E4FAC016BE080E07F
S1135AF00E947C0E4BE055E060E081E00E947C0E49
S1135B004CE155E060E082E00E947C0E81E08B87EE
S1135B1080910E0890910F0888279074892B21F0AA
S1135B20109205021B8668C080910E0890910F08A0
S1135B3088279071892B09F45FC081E08093050266
S1135B4084E0809310081B8657C08B858823B9F5A1
S1135B504BED52E060E080E00E947C0E8981882F4A
S1135B6090E0292F2F938F9383E792E0892F8F93CF
S1135B7083E792E08F93CE018B569E4F292F2F936C
S1135B808F930E941E620F900F900F900F900F90B2
S1135B900F90CE018B569E4FAC016BE080E00E94CB
S1135BA07C0E4DE255E060E081E00E947C0E4CE109
S1135BB055E060E082E00E947C0E81E08B8780915A
S1135BC00E0890910F0888279074892B29F081E0A2
S1135BD0809305021B8612C080910E0890910F08D5
S1135BE088279071892B51F081E08093050286E02B
S1135BF0809310081B8602C0000092C2000090C26D
S1135C008B85882309F089C04BED52E060E080E089
S1135C100E947C0E8981882F90E0292F2F938F93E7
S1135C2083E792E0892F8F9383E792E08F93CE01ED
S1135C308B569E4F292F2F938F930E941E620F9095
S1135C400F900F900F900F900F90CE018B569E4F98
S1135C50AC016BE080E00E947C0E40E455E060E023
S1135C6081E00E947C0E41E555E060E082E00E9404
S1135C707C0E81E08B871CAE0DC08CAD882F90E02C
S1135C809E012C5D3D4F820F931FFC0110828CAD51
S1135C908F5F8CAF8CAD8C3180F318A21DAE21C008
S1135CA08DAD282F30E040E5429FC001439F900D09
S1135CB01124895B954FFC0190818981981771F4B7
S1135CC088A1882F90E09E012C5D3D4F820F931F89
S1135CD02DADFC01208388A18F5F88A38DAD8F5FDC
S1135CE08DAF8DAD8832E0F289A1882F90E09E01BE
