S01000004D6F6E6F706F6C792E73726563B7
S11300000C94D30D0C94F30D0C94F30D0C94F30D8C
S11300100C94F30D0C94F30D0C94F30D0C94F30D5C
S11300200C94F30D0C94F30D0C94F30D0C94F30D4C
S11300300C94F30D0C94F30D0C94F30D0C94F30D3C
S11300400C94F30D0C94F30D0C94F30D0C94F30D2C
S11300500C94F30D0C94F30D0C94F30D0C94F30D1C
S11300600C94F30D0C94F30D0C94F30D0C94F30D0C
S11300700C94F30D0C94F30D0C94F30D0C94F30DFC
S11300800C94F30D0C94F30D0C94F30D0C94F30DEC
S11300900C94F30D0C94F30D0C94F30D0C94F30DDC
S11300A00C94F30D0C94F30D0C94F30D0C94F30DCC
S11300B00C94F30D0C94F30D0C94F30D0C94F30DBC
S11300C00C94F30D0C94F30D0C94F30D0C94F30DAC
S11300D00C94F30D0C94F30D0C94F30D0C94F30D9C
S11300E00C94F30D0E121D13A31573249B282F2DAE
S11300F00E2ED9302F19B318D41A5E24DC1C3722E3
S11301004F226F1BC069EE69FD695B6A726A896A76
S1130110AF6AD56AE66B4F6C69206D6167206469CC
S11301206368202020206E696368742E20202020BC
S11301302020202020204765686520696E732020D8
S1130140202020202020476566846E676E69730036
S1130150000000000000000000000000000000009B
S1130160000000000000000000000000000000008B
S1130170000000000000000000000000000000007B
S1130180000000000000000000000000000000006B
S1130190000000000000000000000000000000005B
S11301A0000000000000000000000000000000004B
S11301B0000000000000000000000000000000003B
S11301C0000000000000000000000000000000002B
S11301D00000000000000000000000000000467263
S11301E065696B6172746500000000000000000026
S11301F000000000000000000000000000000000FB
S113020000000000000000000000000000000000EA
S113021000000000000000000000000000000000DA
S113022000000000000000000000000000000000CA
S113023000000000000000000000000000000000BA
S113024000000000000000000000000000000000AA
S1130250000000000000000000000000000000009A
S1130260000000000000000000000000000000008A
S1130270000000000000000000000000000000007A
S1130280000000000000000000000000000000006A
S1130290000000000000000000000000000000005A
S11302A0000000000000529A636B6520766F722094
S11302B06269732020207A756D204E84636873749C
S11302C0656E202020205765726B0000000000003E
S11302D0000000000000000000000000000000001A
S11302E0000000000000000000000000000000000A
S11302F000000000000000000000000000000000FA
S113030000000000000000000000000000000000E9
S113031000000000000000000000000000000000D9
S113032000000000000000000000000000000000C9
S113033000000000000000000000000000000000B9
S113034000000000000000000000000000000000A9
S11303500000000000000000000000000000000099
S113036000000000000000000000000000004475D0
S11303702068617374207A75207669656C654162C2
S113038073656E7A656E20202020202020205A611B
S1130390686C65203530000000000000000000009B
S11303A00000000000000000000000000000000049
S11303B00000000000000000000000000000000039
S11303C00000000000000000000000000000000029
S11303D00000000000000000000000000000000019
S11303E00000000000000000000000000000000009
S11303F000000000000000000000000000000000F9
S113040000000000000000000000000000000000E8
S113041000000000000000000000000000000000D8
S113042000000000000000000000000000000000C8
S1130430000000000000529A636B6520766F722002
S11304406269732020207A75722050726F64756B14
S113045074696F6E2020506F6C796D656368616E8E
S1130460696B6572000000000000000000000000DD
S11304700000000000000000000000000000000078
S11304800000000000000000000000000000000068
S11304900000000000000000000000000000000058
S11304A00000000000000000000000000000000048
S11304B00000000000000000000000000000000038
S11304C00000000000000000000000000000000028
S11304D00000000000000000000000000000000018
S11304E00000000000000000000000000000000008
S11304F000000000000000000000000000005A6935
S113050065686520766F72206269732020207A7591
S113051072206E8463687374656E202020204861A5
S11305206C74657374656C6C6500000000000000F9
S113053000000000000000000000000000000000B7
S113054000000000000000000000000000000000A7
S11305500000000000000000000000000000000097
S11305600000000000000000000000000000000087
S11305700000000000000000000000000000000077
S11305800000000000000000000000000000000067
S11305900000000000000000000000000000000057
S11305A00000000000000000000000000000000047
S11305B00000000000000000000000000000000037
S11305C00000000000005A6965686520766F72209B
S11305D06269732020207A7572206E846368737454
S11305E0656E2020202048616C74657374656C6CA2
S11305F06500000000000000000000000000000092
S113060000000000000000000000000000000000E6
S113061000000000000000000000000000000000D6
S113062000000000000000000000000000000000C6
S113063000000000000000000000000000000000B6
S113064000000000000000000000000000000000A6
S11306500000000000000000000000000000000096
S11306600000000000000000000000000000000086
S11306700000000000000000000000000000000076
S113068000000000000000000000000000005A69A3
S113069065686520766F7220626973202020477236
S11306A0756E6461757362696C64756E6720456C00
S11306B0656B74726F6E696B6572000000000000F8
S11306C00000000000000000000000000000000026
S11306D00000000000000000000000000000000016
S11306E00000000000000000000000000000000006
S11306F000000000000000000000000000000000F6
S113070000000000000000000000000000000000E5
S113071000000000000000000000000000000000D5
S113072000000000000000000000000000000000C5
S113073000000000000000000000000000000000B5
S113074000000000000000000000000000000000A5
S11307500000000000005A6965686520766F722009
S11307606269732020204D6563686174726F6E69DD
S11307706B20202020204C61626F7200000000007A
S11307800000000000000000000000000000000065
S11307900000000000000000000000000000000055
S11307A00000000000000000000000000000000045
S11307B00000000000000000000000000000000035
S11307C00000000000000000000000000000000025
S11307D00000000000000000000000000000000015
S11307E00000000000000000000000000000000005
S11307F000000000000000000000000000000000F5
S113080000000000000000000000000000000000E4
S11308100000000000000000000000000000529AE8
S1130820636B6520766F7220617566202020537497
S1130830617274000000000000000000000000006D
S113084000000000000000000000000000000000A4
S11308500000000000000000000000000000000094
S11308600000000000000000000000000000000084
S11308700000000000000000000000000000000074
S11308800000000000000000000000000000000064
S11308900000000000000000000000000000000054
S11308A00000000000000000000000000000000044
S11308B00000000000000000000000000000000034
S11308C00000000000000000000000000000000024
S11308D00000000000000000000000000000000014
S11308E0000000000000486575746520496E666F5D
S11308F0726D696572744968722065756368209ABF
S11309006265722020205374756469656E67846E15
S1130910676520202020529A636B6520766F7220D1
S1130920626973202020546563686E696B756D007D
S113093000000000000000000000000000000000B3
S113094000000000000000000000000000000000A3
S11309500000000000000000000000000000000093
S11309600000000000000000000000000000000083
S11309700000000000000000000000000000000073
S11309800000000000000000000000000000000063
S11309900000000000000000000000000000000053
S11309A0000000000000000000000000000045738B
S11309B020697374206465722032352E20204475BA
S11309C020657268846C7473742020202020646510
S11309D0696E656E204C6F686E2E20766F6E3730B0
S11309E00000000000000000000000000000000003
S11309F000000000000000000000000000000000F3
S1130A0000000000000000000000000000000000E2
S1130A1000000000000000000000000000000000D2
S1130A2000000000000000000000000000000000C2
S1130A3000000000000000000000000000000000B2
S1130A4000000000000000000000000000000000A2
S1130A500000000000000000000000000000000092
S1130A600000000000000000000000000000000082
S1130A7000000000000045732069737420646572EF
S1130A802032352E2020447520657268846C74737E
S1130A907420202020206465696E656E204C6F6888
S1130AA06E2E20766F6E313430000000000000009E
S1130AB00000000000000000000000000000000032
S1130AC00000000000000000000000000000000022
S1130AD00000000000000000000000000000000012
S1130AE00000000000000000000000000000000002
S1130AF000000000000000000000000000000000F2
S1130B0000000000000000000000000000000000E1
S1130B1000000000000000000000000000000000D1
S1130B2000000000000000000000000000000000C1
S1130B300000000000000000000000000000476505
S1130B40686520332046656C6465722020207A75C0
S1130B50729A636B000000000000000000000000B7
S1130B600000000000000000000000000000000081
S1130B700000000000000000000000000000000071
S1130B800000000000000000000000000000000061
S1130B900000000000000000000000000000000051
S1130BA00000000000000000000000000000000041
S1130BB00000000000000000000000000000000031
S1130BC00000000000000000000000000000000021
S1130BD00000000000000000000000000000000011
S1130BE00000000000000000000000000000000001
S1130BF000000000000000000000000000000000F1
S1130C0000000000000044752072656E6F7669650F
S1130C107273742020206465696E65202048847591
S1130C207365722020205A61686C6520669A722070
S1130C306A65646573204861757320323520756E6A
S1130C406420669A72206A6564657320486F7465CF
S1130C506C20313030000000000000000000000073
S1130C600000000000000000000000000000000080
S1130C700000000000000000000000000000000070
S1130C800000000000000000000000000000000060
S1130C900000000000000000000000000000000050
S1130CA00000000000000000000000000000000040
S1130CB00000000000000000000000000000000030
S1130CC00000000000000000000000000000447567
S1130CD02077757264657374207A756D20204B6C6F
S1130CE0617373656E766572747265746572476557
S1130CF07784686C742E205A61686C6520206A655C
S1130D0064656D20537069656C6572203530000030
S1130D1000000000000000000000000000000000CF
S1130D2000000000000000000000000000000000BF
S1130D3000000000000000000000000000000000AF
S1130D40000000000000000000000000000000009F
S1130D50000000000000000000000000000000008F
S1130D60000000000000000000000000000000007F
S1130D70000000000000000000000000000000006F
S1130D80000000000000000000000000000000005F
S1130D9000000000000044752068617374206569D8
S1130DA06E6520202020576574746520676567652B
S1130DB06E20202020205065746572207665726C48
S1130DC06F72656E2020647520736368756C64654A
S1130DD073742069686D65696E656E204B61666623
S1130DE06565202020207A61686C6520350000004C
S1130DF000000000000000000000000000000000EF
S1130E0000000000000000000000000000000000DE
S1130E1000000000000000000000000000000000CE
S1130E2000000000000000000000000000000000BE
S1130E3000000000000000000000000000000000AE
S1130E40000000000000000000000000000000009E
S1130E5000000000000000000000000000004475D5
S1130E6020686173742062656920202020206569F0
S1130E706E656D204B756E64656E2020202065695B
S1130E806E65207363686C656368746520204265D1
S1130E9077657274756E6720202020202020686991
S1130EA06E7465726C617373656E202020206765B3
S1130EB0686520696E2064656E2020202020576FAD
S1130EC0726B73686F700000000000000000000087
S1130ED0000000000000000000000000000000000E
S1130EE000000000000000000000000000000000FE
S1130EF000000000000000000000000000000000EE
S1130F0000000000000000000000000000000000DD
S1130F1000000000000000000000000000000000CD
S1130F20000000000000467265696B617274650020
S1130F3000000000000000000000000000000000AD
S1130F40000000000000000000000000000000009D
S1130F50000000000000000000000000000000008D
S1130F60000000000000000000000000000000007D
S1130F70000000000000000000000000000000006D
S1130F80000000000000000000000000000000005D
S1130F90000000000000000000000000000000004D
S1130FA0000000000000000000000000000000003D
S1130FB0000000000000000000000000000000002D
S1130FC0000000000000000000000000000000001D
S1130FD0000000000000000000000000000000000D
S1130FE00000000000000000000000000000447544
S1130FF02072656E6F766965727374202020646553
S1131000696E6520204884757365722020205A61BA
S1131010686C6520669A72206A656465732048610D
S1131020757320343020756E6420669A72206A6568
S113103064657320486F74656C203131350000009D
S1131040000000000000000000000000000000009C
S1131050000000000000000000000000000000008C
S1131060000000000000000000000000000000007C
S1131070000000000000000000000000000000006C
S1131080000000000000000000000000000000005C
S1131090000000000000000000000000000000004C
S11310A0000000000000000000000000000000003C
S11310B0000000000000496E20646572202020209A
S11310C02020202020205665727365747A756E671F
S11310D02069737420206469722065696E204672E9
S11310E08473657220207A657262726F6368656EBC
S11310F02E20202020205A61686C65203130300079
S113110000000000000000000000000000000000DB
S113111000000000000000000000000000000000CB
S113112000000000000000000000000000000000BB
S113113000000000000000000000000000000000AB
S1131140000000000000000000000000000000009B
S1131150000000000000000000000000000000008B
S1131160000000000000000000000000000000007B
S113117000000000000000000000000000004475B2
S11311802067946E6E7374206469722020206574E5
S1131190776173206265696D202020202020536EC2
S11311A061636B6175746F6D6174202020207A61B6
S11311B0686C65203530000000000000000000006D
S11311C0000000000000000000000000000000001B
S11311D0000000000000000000000000000000000B
S11311E000000000000000000000000000000000FB
S11311F000000000000000000000000000000000EB
S113120000000000000000000000000000000000DA
S113121000000000000000000000000000000000CA
S113122000000000000000000000000000000000BA
S113123000000000000000000000000000000000AA
S1131240000000000000496872206D61636874202A
S113125065696E65200945786B757273696F6E20D8
S11312602020202020207A61686C65203530000021
S1131270000000000000000000000000000000006A
S1131280000000000000000000000000000000005A
S1131290000000000000000000000000000000004A
S11312A0000000000000000000000000000000003A
S11312B0000000000000000000000000000000002A
S11312C0000000000000000000000000000000001A
S11312D0000000000000000000000000000000000A
S11312E000000000000000000000000000000000FA
S11312F000000000000000000000000000000000EA
S11313000000000000000000000000000000447520
S11313102068617374206469652020202020416264
S11313207363686C757373726569736520206F727B
S113133067616E6973696572742C202020206A6568
S113134064657220537069656C65722020207A612F
S1131350686C742064697220313000000000000061
S11313600000000000000000000000000000000079
S11313700000000000000000000000000000000069
S11313800000000000000000000000000000000059
S11313900000000000000000000000000000000049
S11313A00000000000000000000000000000000039
S11313B00000000000000000000000000000000029
S11313C00000000000000000000000000000000019
S11313D0000000000000456C656B74726F6E696BF1
S11313E0657220202020646573204D6F6E617473D4
S11313F0202020202020447520657268846C74733A
S113140074203130300000000000000000000000B3
S113141000000000000000000000000000000000C8
S113142000000000000000000000000000000000B8
S113143000000000000000000000000000000000A8
S11314400000000000000000000000000000000098
S11314500000000000000000000000000000000088
S11314600000000000000000000000000000000078
S11314700000000000000000000000000000000068
S11314800000000000000000000000000000000058
S1131490000000000000000000000000000044758F
S11314A02068696C667374206465696E656D4D6946
S11314B074736368FC6C6572206265696D206C6589
S11314C0726E656E2E20202020202020202044755E
S11314D020657268846C74737420313000000000DD
S11314E000000000000000000000000000000000F8
S11314F000000000000000000000000000000000E8
S113150000000000000000000000000000000000D7
S113151000000000000000000000000000000000C7
S113152000000000000000000000000000000000B7
S113153000000000000000000000000000000000A7
S11315400000000000000000000000000000000097
S11315500000000000000000000000000000000087
S1131560000000000000447520657268846C737488
S113157020353000000000000000000000000000E2
S11315800000000000000000000000000000000057
S11315900000000000000000000000000000000047
S11315A00000000000000000000000000000000037
S11315B00000000000000000000000000000000027
S11315C00000000000000000000000000000000017
S11315D00000000000000000000000000000000007
S11315E000000000000000000000000000000000F7
S11315F000000000000000000000000000000000E7
S113160000000000000000000000000000000000D6
S113161000000000000000000000000000000000C6
S113162000000000000000000000000000004475FD
S113163020657268846C73742031303000000000BF
S11316400000000000000000000000000000000096
S11316500000000000000000000000000000000086
S11316600000000000000000000000000000000076
S11316700000000000000000000000000000000066
S11316800000000000000000000000000000000056
S11316900000000000000000000000000000000046
S11316A00000000000000000000000000000000036
S11316B00000000000000000000000000000000026
S11316C00000000000000000000000000000000016
S11316D00000000000000000000000000000000006
S11316E000000000000000000000000000000000F6
S11316F0000000000000447520657268846C7374F7
S1131700203235000000000000000000000000004E
S113171000000000000000000000000000000000C5
S113172000000000000000000000000000000000B5
S113173000000000000000000000000000000000A5
S11317400000000000000000000000000000000095
S11317500000000000000000000000000000000085
S11317600000000000000000000000000000000075
S11317700000000000000000000000000000000065
S11317800000000000000000000000000000000055
S11317900000000000000000000000000000000045
S11317A00000000000000000000000000000000035
S11317B0000000000000000000000000000044756C
S11317C020657268846C737420323000000000005D
S11317D00000000000000000000000000000000005
S11317E000000000000000000000000000000000F5
S11317F000000000000000000000000000000000E5
S113180000000000000000000000000000000000D4
S113181000000000000000000000000000000000C4
S113182000000000000000000000000000000000B4
S113183000000000000000000000000000000000A4
S11318400000000000000000000000000000000094
S11318500000000000000000000000000000000084
S11318600000000000000000000000000000000074
S11318700000000000000000000000000000000064
S1131880000000000000447520657268846C737465
S11318902031303000000000000000000000000093
S11318A00000000000000000000000000000000034
S11318B00000000000000000000000000000000024
S11318C00000000000000000000000000000000014
S11318D00000000000000000000000000000000004
S11318E000000000000000000000000000000000F4
S11318F000000000000000000000000000000000E4
S113190000000000000000000000000000000000D3
S113191000000000000000000000000000000000C3
S113192000000000000000000000000000000000B3
S113193000000000000000000000000000000000A3
S113194000000000000000000000000000004475DA
S113195020657268846C737420313030000000009C
S11319600000000000000000000000000000000073
S11319700000000000000000000000000000000063
S11319800000000000000000000000000000000053
S11319900000000000000000000000000000000043
S11319A00000000000000000000000000000000033
S11319B00000000000000000000000000000000023
S11319C00000000000000000000000000000000013
S11319D00000000000000000000000000000000003
S11319E000000000000000000000000000000000F3
S11319F000000000000000000000000000000000E3
S1131A0000000000000000000000000000000000D2
S1131A1000000000000044752062697374202020D7
S1131A2020202020202057656C746D6569737465CF
S1131A30722E2020202052FC636B6520766F72206A
S1131A406269732020205374617274207A69656816
S1131A50652064656E20646F7070656C74656E20BB
S1131A602020202020204265747261672065696E01
S1131A700000000000000000000000000000000062
S1131A800000000000000000000000000000000052
S1131A900000000000000000000000000000000042
S1131AA00000000000000000000000000000000032
S1131AB00000000000000000000000000000000022
S1131AC00000000000000000000000000000000012
S1131AD00000000000000000000000000000447549
S1131AE0206861737420676567656E2020206469CF
S1131AF0652048616E6479726567656C202076653F
S1131B007273746F7373656E2E2020202020529A96
S1131B10636B6520766F7220626973202020507297
S1131B206F64756B74696F6E202020202020456CD3
S1131B30656B74726F6E696B657200000000000063
S1131B400000000000000000000000000000000091
S1131B500000000000000000000000000000000081
S1131B600000000000000000000000000000000071
S1131B700000000000000000000000000000000061
S1131B800000000000000000000000000000000051
S1131B900000000000000000000000000000000041
S1131BA000000000000011241FBECFEFD1E2DEBF11
S1131BB0CDBF00E00CBF18E0A0E0B2E0E4EBFAEE29
S1131BC000E00BBF02C007900D92A83AB107D9F705
S1131BD029E1A8EAB8E001C01D92A73AB207E1F7EB
S1131BE078D20C9458750C94000098B19F7E98B9E3
S1131BF098B19B7F98B98BB998B1926098B981508C
S1131C00833038F48FE291E10197F1F700C00000CE
S1131C1003C090EA9A95F1F788B18D7F88B9089549
S1131C201F93CF93DF93CDB7DEB729970FB6F89400
S1131C30DEBF0FBECDBF8FEF8AB987B988B180628E
S1131C4088B92FEF80E792E0215080409040E1F77F
S1131C5000C0000088B18E7F88B989E0ECE1F2E031
S1131C60DE01119601900D928A95E1F710E00AC009
S1131C70E1E0F0E0EC0FFD1FE10FF11D808190E049
S1131C80B4DF1F5F1930A0F38FE99FE00197F1F7EC
S1131C9000C0000029960FB6F894DEBF0FBECDBF7A
S1131CA0DF91CF911F91089598B1906198B998B13F
S1131CB09B7F98B98BB988B1826088B980EA8A958C
S1131CC0F1F788B18D7F88B9089581E08EDF8FE9BF
S1131CD09FE00197F1F700C00000089582E085DFDE
S1131CE08FE39FE10197F1F700C000000895417070
S1131CF070E0660F771F6270282F30E0220F331FC9
S1131D00220F331F2470842F862B822B88606DDF73
S1131D108FE99FE00197F1F700C0000008950F9349
S1131D201F93CF938A01282F30E0285F3F4F862FDF
S1131D3090E1299F800D112458DFC0E002C0B4DF78
S1131D40CF5FF801EC0FF11D80818111F8CF8FE393
S1131D509FE10197F1F700C00000CF911F910F910F
S1131D60089588E442DF84E09FDF8EE09DDF85E113
S1131D709BDF84E099DF84E097DF84E095DF80E0F7
S1131D8093DF80E091DF80E530DF80E08DDF84E069
S1131D908BDF84E089DF84E087DF85E185DF8EE007
S1131DA083DF84E081DF80E07FCF089539DF8DDF3A
S1131DB095DFD7DF40E060E081E099CF089588B1F6
S1131DC08F7D88B98FE39CE90197F1F700C000008B
S1131DD088B1806288B98FE39CE90197F1F700C06C
S1131DE000001EDF72DF7ADF40E060E081E07FCF39
S1131DF008958F929F92AF92BF92CF92DF92EF920B
S1131E00FF920F931F93CF93DF93CDB7DEB7A297C3
S1131E100FB6F894DEBF0FBECDBF6C0121E1CE0139
S1131E200196DC01E22F1D92EA95E9F7FE01729614
S1131E30DF011D922A95E9F7F60101900020E9F7E8
S1131E4031978F010C191D09E62EF12C5701AA0CAC
S1131E50BB1CAA0CBB1CAA0CBB1CAA0CBB1CB60149
S1131E606A0D7B1D40E150E00E942072BFEFEB1A27
S1131E70FB0AEE0CFF1CEE0CFF1CEE0CFF1CEE0C20
S1131E80FF1CE016F1065CF4B501605F7F4F6C0D3A
S1131E907D1D40E150E0CE0142960E94207215DF84
S1131EA0AE014F5F5F4F60E081E039DFAE014E5E0F
S1131EB05F4F60E082E033DF005211090A151B0511
S1131EC014F481E001C080E0A2960FB6F894DEBF5E
S1131ED00FBECDBFDF91CF911F910F91FF90EF9077
S1131EE0DF90CF90BF90AF909F908F900895CF9345
S1131EF0DF931F921F92CDB7DEB79A8389838981BE
S1131F009A81CA969C018AE0E5E2F2E0D901019047
S1131F100D928A95E1F789819A81CA9627E534E082
S1131F20FC0133AB22AB89819A81CA9628E2FC0179
S1131F3024AB89819A81CA96FC0115AA89819A8168
S1131F40CA96FC0116AA89819A81CA96FC0117AA2D
S1131F5089819A81CA96FC0110AE89819A81CA96B8
S1131F60FC0111AE89819A818C589F4F9C018AE0B3
S1131F70EFE2F2E0D90101900D928A95E1F78981AF
S1131F809A818C589F4F2EEA38E0FC0133AB22AB88
S1131F9089819A818C589F4F28E2FC0124AB898166
S1131FA09A818C589F4FFC0115AA89819A818C587B
S1131FB09F4FFC0116AA89819A818C589F4FFC017E
S1131FC017AA89819A818C589F4FFC0110AE898190
S1131FD09A818C589F4FFC0111AE89819A81825558
S1131FE09F4F9C018AE0E9E3F2E0D90101900D9250
S1131FF08A95E1F789819A8182559F4F25E03DE0DA
S1132000FC0133AB22AB89819A8182559F4F28E230
S1132010FC0124AB89819A8182559F4FFC0115AA4A
S113202089819A8182559F4FFC0116AA89819A81E0
S113203082559F4FFC0117AA89819A8182559F4F2F
S1132040FC0110AE89819A8182559F4FFC0111AE2B
S113205089819A8188519F4F9C018AE0E3E4F2E0F0
S1132060D90101900D928A95E1F789819A8188516D
S11320709F4F2CE531E1FC0133AB22AB89819A817E
S113208088519F4F28E2FC0124AB89819A818851B1
S11320909F4FFC0115AA89819A8188519F4FFC01A9
S11320A016AA89819A8188519F4FFC0117AA8981B8
S11320B09A8188519F4FFC0110AE89819A81885181
S11320C09F4FFC0111AE00000F900F90DF91CF9154
S11320D008950F931F93CF93DF93CDB7DEB7C0520C
S11320E0D2400FB6F894DEBF0FBECDBF81E0898326
S11320F01A8281E08B831C821D821E82CE01805253
S11321009E4F26E0FC01322F11923A95E9F71F8287
S11321101886CE01845B9F4FFC011082CE01835B45
S11321209F4FFC0110821B861C861D861E8681E043
S11321308F8781E0888BCE018A519E4F28E0E2E0B0
S1132140F6E0DC0101900D922A95E1F7198ACE019F
S113215082519E4F28E0FC01322F11923A95E9F703
S11321601A8A1B8ACE01825B9F4FFC011082CE012A
S1132170815B9F4FFC011082CE01805B9F4FFC016D
S11321801082CE018F5A9F4FFC011082CE018A50DB
S11321909E4FFC01108211821282CE018E5A9F4FF3
S11321A0FC01108285E08C8B1D8ACE018D5A9F4FD5
S11321B0FC0110821E8A1F8A188E198E81E08A8F74
S11321C01B8E1C8ECE018C5A9F4FFC0110821E8EDA
S11321D01D8E1F8ECE018B5A9F4FFC011082CE01A3
S11321E08A5A9F4FFC01108218A219A2CE01895A63
S11321F09F4FFC011082CE01885A9F4FFC01108230
S1132200CE01875A9F4FFC011082CE0187509E4F0A
S11322102AE0FC01322F11923A95E9F71BA21AA287
S113222083E08CA31DA21EA21FA218A6CE018D5F5F
S11322309D4F2CE1FC01322F11923A95E9F719A632
S11322401AA6CE01865A9F4FFC011082CE01855AF0
S11322509F4FFC011082CE01815E9D4FFC011182D3
S11322601082CE01845A9F4FFC0110821BA61CA62B
S11322701DA61EA60E947B5299DD81EC9BE00E9464
S113228008548DE59AE033DE81E498E10E943067DA
S113229081E89BE00E94C86E80E895E20E94456F49
S11322A00E943F440E94B85080E00E94CF500E9498
S11322B00E721FA62FC08FA5282F30E040E5429F45
S11322C0C001439F900D11248C5F934FFC018081CA
S11322D08823E9F08FA5282F30E040E5429FC00114
S11322E0439F900D11248C5F934FFC0150818FA567
S11322F0282F30E040E5429FC001439F900D1124F8
S1132300845F934FFC018081652F0E9497468FA5BF
S11323108F5F8FA78FA5883270F2CE01835A9F4FAB
S1132320FC011082CE01825A9F4FFC011082CE0123
S1132330815A9F4FFC01108280915119909152193A
S11323409093800B80937F0B109252191092511925
S113235089E091E0FC018081882F90E0382F2227CA
S113236086E091E0FC018081882F90E0822B932B02
S1132370909352198093511980917F0B9091800B07
S11323809C01209530958091511990915219822386
S1132390932390936D0980936C0989E091E0FC018B
S11323A08081882F90E0382F222786E091E0FC017D
S11323B08081882F90E0822B932B89359105A1F49D
S11323C087E290E02FEFFC01208388E290E02FE386
S11323D0FC0120838AE290E02FEFFC0120838BE252
S11323E090E0FC011082EBDC80910402882F90E0E5
S11323F0092E000CAA0BBB0B40E050E027E030E0B4
S1132400841B950B2817390710F40C94C437FC016E
S11324108827EE58FF4F8F4F0C9499718885882335
S1132420B9F44DE452E060E080E079DC4CE552E040
S113243060E081E074DC4DE652E060E082E06FDC55
S1132440809107026DE57AE00E94DC4B81E0888789
S113245080916C0990916D0988279072892B91F174
S113246080910702833070F180910702815080933C
S1132470070280910702882F90E0292F2F938F93D2
S11324808CE792E0892F8F938CE792E08F93CE01B3
S113249080539E4F292F2F938F930E942F720F905A
S11324A00F900F900F900F900F90CE0180539E4F7E
S11324B0AC0163E081E033DC809107026DE57AE0F2
S11324C00E94DC4B80916C0990916D09882790746F
S11324D0892B91F180910702843070F58091070275
S11324E08F5F8093070280910702882F90E0292F45
S11324F02F938F938CE792E0892F8F938CE792E050
S11325008F93CE0180539E4F292F2F938F930E9438
S11325102F720F900F900F900F900F900F90CE018D
S113252080539E4FAC0163E081E0F9DB80910702A8
S11325306DE57AE00E94DC4B80916C0990916D0905
S113254088279071892B11F40C94C73781E088ABEC
S11325502EC088A9282F30E04AE3429FC001439F40
S1132560900D11248157954FFC011182108288A986
S1132570282F30E04AE3429FC001439F900D11246D
S11325808F56954FFC01108288A9282F30E04AE32A
S1132590429FC001439F900D11248F56954FFC011B
S11325A0808168A90E94104788A98F5F88AB8091B9
S11325B0070298A9891768F6809107026DE57AE009
S11325C00E94DC4B4FE752E060E080E0A8DB8091A2
S11325D00702882F90E0292F2F938F938CE792E0A6
S11325E0892F8F938CE792E08F93CE0180539E4F77
S11325F0292F2F938F930E942F720F900F900F907B
S11326000F900F900F90CE0180539E4FAC0164E069
S113261080E085DB40E952E060E081E080DB41EA74
S113262052E060E082E07BDB809107020E94D0529E
S113263081E0809304020C94C73781E089AB09C020
S11326404AE069A98CED95E00E948E4989A98F5FC3
S113265089AB8091070299A9891790F781E08AAB29
S113266066C142EB52E060E080E059DB8AA9882F22
S113267090E0292F2F938F938CE792E0892F8F93EB
S11326808CE792E08F93CE0180539E4F292F2F9396
S11326908F930E942F720F900F900F900F900F90B6
S11326A00F90CE0180539E4FAC016BE080E037DB8E
S11326B043EC52E060E081E032DB43ED52E060E065
S11326C082E02DDB74C0809151199091521990933E
S11326D0800B80937F0B109252191092511989E04C
S11326E091E0FC018081882F90E0382F222786E03A
S11326F091E0FC018081882F90E0822B932B9093B2
S113270052198093511980917F0B9091800B9C01F9
S113271020953095809151199091521982239323D9
S113272090936D0980936C0980916C0990916D0967
S113273088279170892B89F080917209882369F424
S11327409091730980917209492F682F81E00E944A
S11327503D4C81E08093720918C080916C0990917E
S11327606D0988279270892B81F0809173098823E1
S113277061F49091730980917209492F682F82E066
S11327800E943D4C81E080937309809172098823F3
S113279029F08A85882311F482E08A87809173095D
S11327A0882329F08A85882311F481E08A8780911F
S11327B07209882309F487CF80917309882309F467
S11327C082CF8AA9282F30E080916A09482F50E0EF
S11327D080916B09882F90E0840F951FAC016AE308
S11327E0629FC001639F900D11248157954FFC0196
S11327F0518340838AA9282F30E04AE3429FC001D5
S1132800439F900D11248157954FFC012081318104
S11328108F81482F50E06AE3649FC001659F900D4B
S113282011248157954FFC01808191812817390724
S113283009F04FC08A85882F90E001978659964FFA
S1132840FC018081823098F08A85882F90E001977E
S11328502A85222F30E0215031092659364FF901BB
S1132860208121508659964FFC01208312C08A850D
S1132870882F90E001972A85222F30E021503109DA
S11328802659364FF90120812F5F8659964FFC0156
S113289020838AA9282F30E080916A09482F50E0CC
S11328A080916B09882F90E0840F951FAC016AE337
S11328B0629FC001639F900D11248157954FFC01C5
S11328C05183408390916B0980916A09692F0E941A
S11328D0BA4E8AA9282F30E04AE3429FC001439FA1
S11328E0900D11248157954FFC01208131818F81F6
S11328F0482F50E06AE3649FC001659F900D112446
S11329008157954FFC01808191818217930710F4C0
S11329108AA98F8310927209109273091A866DE541
S11329207AE08AA90E94DC4B8AA98F5F8AAB8091E6
S113293007029AA9891708F094CE8F8189839E0192
S113294024573F4F80E090E0AAE7B4E4F901808384
S11329509183A283B3838E0100571F4FCE01845706
S11329609F4F20E030E04AE755E4FC01608171812B
S1132970828193810E941771DC01CB01F80180836D
S11329809183A283B383CE0180579F4F20E030E030
S113299040E85FE3FC0160817181828193810E9440
S11329A0C96F88230CF462C0CE0180579F4F20E08A
S11329B03FEF4FE757E4FC0160817181828193818D
S11329C00E94137118160CF03EC0CE0184579F4F1D
S11329D020E030E040E251E4FC01608171818281B9
S11329E093810E941771DC01CB018E010C561F4F9D
S11329F0BC01CD010E943570DC01CB01F80191834B
S1132A00808318C080E991E00197F1F79E012A566E
S1132A103F4FF90191838083CE018C569F4F9E01D5
S1132A202C563F4FF9012081318121503109FC019D
S1132A3031832083CE018C569F4FFC01808191818C
S1132A40892B01F729C08E010C561F4FCE018057E8
S1132A509F4FFC0160817181828193810E94357056
S1132A60DC01CB01F8019183808308C0CE018C5630
S1132A709F4F21E030E0FC0131832083CE018C564E
S1132A809F4FFC01808191810197F1F79E012856A7
S1132A903F4FF9019183808381E08BAB13C08BA9F5
S1132AA0282F30E04AE3429FC001439F900D112438
S1132AB08157954F2CED35E0FC01318320838BA9A0
S1132AC08F5F8BAB809107029BA9891740F7809198
S1132AD007026DE57AE00E94DC4B44EE52E060E0D0
S1132AE080E01DD98981882F90E0292F2F938F931F
S1132AF08CE792E0892F8F938CE792E08F93CE013D
S1132B0080539E4F292F2F938F930E942F720F90E3
S1132B100F900F900F900F900F90CE0180539E4F07
S1132B20AC016BE080E0FBD845EF52E060E081E06F
S1132B30F6D845E053E060E082E0F1D882E080938B
S1132B4004020C94D1378C85882399F1BED844EEC5
S1132B5052E060E080E0E3D88981882F90E0292F5B
S1132B602F938F938CE792E0892F8F938CE792E0D9
S1132B708F93CE0180539E4F292F2F938F930E94C2
S1132B802F720F900F900F900F900F900F90CE0117
S1132B9080539E4FAC016BE080E0C1D845EF52E01A
S1132BA060E081E0BCD845E053E060E082E0B7D863
S1132BB01C8680916C0990916D0988279470892BEB
S1132BC021F488A5882309F48EC08985882309F413
S1132BD08AC08F85882309F486C08889882309F4EC
S1132BE082C08A8D882309F47EC06AE08AE00E944C
S1132BF0BA4E909107028981692F0E947A71892FB8
S1132C008F5F898344EE52E060E080E088D8898158
S1132C10882F90E0292F2F938F938CE792E0892FB0
S1132C208F938CE792E08F93CE0180539E4F292F90
S1132C302F938F930E942F720F900F900F900F90ED
S1132C400F900F90CE0180539E4FAC016BE080E05B
S1132C5066D845EF52E060E081E061D845E053E09A
S1132C6060E082E05CD8198688E290E028E230E0F7
S1132C70F90120812F73FC0120831B861E861B8E85
S1132C808981282F30E04AE3429FC001439F900D81
S1132C9011248F56954FFC018081282F30E040E5A8
S1132CA0429FC001439F900D11248D50944FFC010D
S1132CB080818CA31EA21FA218A68CA1843099F433
S1132CC08981282F30E04AE3429FC001439F900D41
S1132CD011248E56954FFC018081882321F081E0D8
S1132CE08EA381E0898780916C0990916D09882772
S1132CF09470892B89F08B81882371F48F858823C4
S1132D0059F08A8D882341F06AE08AE00E94BA4E25
S1132D1081E08B831E861B8E8985882309F0F8C188
S1132D208B81882309F4F4C10E94543B90916A0971
S1132D3080916B09981709F049C08EA1882309F086
S1132D4045C01B828A818F5F8A8310927209109218
S1132D5073098A81882F90E08230910581F0833055
S1132D609105B9F0019709F034C088E290E028E2B7
S1132D7030E0F90120812064FC01208326C088E230
S1132D8090E028E230E0F90120812068FC012083F2
S1132D901CC088E290E028E230E0F90120812F7322
S1132DA0FC01208310926A0910926B091092720937
S1132DB0109273091A8281E08B8381E0898789816B
S1132DC00E941C5184E08CA3000003C081E0898729
S1132DD01A828981282F30E04AE3429FC001439F31
S1132DE0900D11248F56954FFC018081282F30E0DF
S1132DF080916A09482F50E080916B09882F90E0F8
S1132E00840F951F820F931F88972CF18981482F77
S1132E1050E08981282F30E06AE3629FC001639FFC
S1132E20900D11248157954FFC01808191819C0163
S1132E3028533F4F6AE3649FC001659F900D11249E
S1132E408157954FFC0131832083809107026DE502
S1132E507AE00E94DC4B8981282F30E04AE3429FCC
S1132E60C001439F900D11248F56954FFC01808122
S1132E708CABC2C09CA98DEC989F812D11248295A6
S1132E808695877028E2829F802D1124F92FF81BE4
S1132E908F2F69810E9410479E01205A3F4F80E086
S1132EA090E0A8ECB2E4F90180839183A283B38318
S1132EB08E0106561F4FCE01805A9F4F20E030E00E
S1132EC04AE755E4FC0160817181828193810E940B
S1132ED01771DC01CB01F80180839183A283B38352
S1132EE0CE0186569F4F20E030E040E85FE3FC01CE
S1132EF060817181828193810E94C96F88230CF45F
S1132F0062C0CE0186569F4F20E03FEF4FE757E463
S1132F10FC0160817181828193810E941371181672
S1132F200CF03EC0CE01805A9F4F20E030E040E2DA
S1132F3051E4FC0160817181828193810E94177147
S1132F40DC01CB018E0102561F4FBC01CD010E9452
S1132F503570DC01CB01F8019183808318C080E9CE
S1132F6091E00197F1F79E0120563F4FF9019183BB
S1132F708083CE0182569F4F9E0122563F4FF90116
S1132F802081318121503109FC0131832083CE011C
S1132F9082569F4FFC0180819181892B01F729C0C2
S1132FA08E0102561F4FCE0186569F4FFC01608151
S1132FB07181828193810E943570DC01CB01F8011B
S1132FC09183808308C0CE0182569F4F21E030E078
S1132FD0FC0131832083CE0182569F4FFC01808106
S1132FE091810197F1F79E012E553F4FF90191838D
S1132FF080838CA98F5F8CAB8CA9282F30E08981CA
S1133000482F50E06AE3649FC001659F900D11242E
S11330108F56954FFC018081482F50E080916A09BA
S1133020682F70E080916B09882F90E0860F971FBE
S1133030840F951F281739070CF41CCF8981282F7A
S113304030E08981482F50E06AE3649FC001659FA6
S1133050900D11248F56954FFC018081482F50E02C
S113306080916A09682F70E080916B09882F90E045
S1133070860F971F840F951F48E250E0BA010E9403
S11330808671582F4AE3429FC001439F900D11243B
S11330908F56954FFC0150838981282F30E04AE3F5
S11330A0429FC001439F900D11248F56954FFC0100
S11330B0808169810E9410478981282F30E04AE38A
S11330C0429FC001439F900D11248F56954FFC01E0
S11330D08081282F30E040E5429FC001439F900D3E
S11330E011248D50944FFC0180818CA38981282F59
S11330F030E04AE3429FC001439F900D11248F5654
S1133100954FFC0180818C8310927209109273098F
S1133110809107026DE57AE00E94DC4B80916C0996
S113312090916D0988279071892B21F01B8685E089
S1133130809304028CA1882F90E0092E000CAA0B26
S1133140BB0B40E050E027E030E0841B950B2817D0
S1133150390710F40C94CA37FC018827E658FF4F4E
S11331608F4F0C9499718C81873031F08C8186312A
S113317019F08C81843211F41C8E02C081E08C8F92
S11331808B8D882311F00C9461241A8E80916C0924
S113319090916D0988279074892B19F4888D882360
S11331A079F401E418E1298D488D69818C8D0E94A0
S11331B05A698B8F8B8D882319F4888D8E5F888F45
S11331C08981882F90E00197885F9D4FFC01808161
S11331D0282F30E080916C0990916D09822393230C
S11331E0892B11F40C94612481E0898F01E418E1A6
S11331F0298D488D69818C8D0E945A698B8F8981B4
S1133200282F30E04AE3429FC001439F900D1124D0
S11332108F56954FFC018081282F30E040E5429F76
S1133220C001439F900D11248D50944FFC01808167
S11332308CA38981282F30E04AE3429FC001439F39
S1133240900D11248F56954FFC0180818C83198E2B
S1133250188E81E08A8F81E08C870C9461248C81A4
S1133260282F30E040E5429FC001439F900D112478
S11332708C5F934FFC018081882321F5188A8E018D
S1133280035B1F4F498161EC7BE08C810E94D33743
S1133290F8018083CE01835B9F4FFC018081882FDE
S11332A090E08130910519F0029721F00BC081E084
S11332B0888B08C081E0888B81E08E8783E08093CF
S11332C0040200008C81482F50E0CE01875A9F4FA2
S11332D060E5649F9001659F300D1124215F334F99
S11332E0F9012081FC0120838C81282F30E040E506
S11332F0429FC001439F900D11248C5F934FFC01AA
S11333008081882311F40C9464248C81282F30E06C
S113331040E5429FC001439F900D11248C5F934F61
S1133320FC0190818981981711F40C9464248E8592
S1133330813011F40C946424CE01875A9F4FFC0110
S11333408081882311F00C9464241F868B85882344
S113335009F001C18C81282F30E040E5429FC00173
S1133360439F900D11248C5F934FFC0180818D87C6
S11333708C81482F50E08C81282F30E060E5629FDB
S1133380C001639F900D1124855F934FFC018081E0
S1133390882F90E068E2649F9001659F300D1124AE
S11333A0820F931F880F991F8A50944FFC018081CC
S11333B091819E8F8D8F8C81282F30E040E5429F34
S11333C0C001439F900D11248E5F934FFC01208117
S11333D03181CE018B5A9F4FFC01208381E08F8F76
S11333E01DAA25C08C81482F50E08DA9882F90E01C
S11333F060E5649F9001659F300D1124820F931F37
S11334008A5F934FFC018081282F30E040E5429F82
S1133410C001439F900D11248C5F934FFC01908158
S11334208D85981709F01F8E8DA98F5F8DAB8DA99F
S11334308330C0F28F8D8823A9F0CE018B5A9F4F21
S1133440FC018081282F30E08D8D9E8D821793079B
S113345048F4CE018B5A9F4FFC018081882F90E065
S11334609E8F8D8F44EE52E060E080E00E948F0ECC
S11334708981882F90E0292F2F938F938CE792E0F6
S1133480892F8F938CE792E08F93CE0180539E4FC8
S1133490292F2F938F930E942F720F900F900F90CC
S11334A00F900F900F90CE0180539E4FAC016BE0B4
S11334B080E00E948F0E46E153E060E081E00E94CC
S11334C08F0E8E8D8F938D8D8F938CE792E0892F45
S11334D08F938CE792E08F93CE0180539E4F292FD8
S11334E02F938F930E942F720F900F900F900F9035
S11334F00F900F90CE0180539E4FAC016AE081E0A3
S11335000E948F0E47E253E060E082E00E948F0E3B
S11335108D85882F90E0292F2F938F938CE792E04D
S1133520892F8F938CE792E08F93CE0180539E4F27
S1133530292F2F938F930E942F720F900F900F902B
S11335400F900F900F90CE0180539E4FAC016BE013
S113355082E00E948F0E8981882F90E00197885F16
S11335609D4FFC018081282F30E080916C0990915F
S11335706D0982239323892B11F40C9464248D8D7B
S11335809E8D21E0AC016D8589810E94A06D8E879E
S11335908E85813011F00C9464241B8681E08F8722
S11335A081E08C870C9464248E85813011F40C9412
S11335B067241F868B85882309F068C08C81282F97
S11335C030E040E5429FC001439F900D11248C5090
S11335D0944FFC01808191819E8F8D8F44EE52E047
S11335E060E080E00E948F0E8981882F90E0292F6F
S11335F02F938F938CE792E0892F8F938CE792E03F
S11336008F93CE0180539E4F292F2F938F930E9427
S11336102F720F900F900F900F900F900F90CE017C
S113362080539E4FAC016BE080E00E948F0E46E118
S113363053E060E081E00E948F0E8E8D8F938D8D1C
S11336408F938CE792E0892F8F938CE792E08F938E
S1133650CE0180539E4F292F2F938F930E942F7258
S11336600F900F900F900F900F900F90CE018053FA
S11336709E4FAC016AE081E00E948F0E48E353E064
S113368060E082E00E948F0E81E08B878981882F21
S113369090E00197885F9D4FFC018081282F30E0E6
S11336A080916C0990916D0982239323892B11F4E5
S11336B00C9467248D8D9E8D2AE0AC0160E0898195
S11336C00E94A06D8E878E85813011F00C94672442
S11336D01B8681E08F8781E08C870C9467248C8122
S11336E0282F30E040E5429FC001439F900D1124F4
S11336F08C5F934FFC018081882321F5188A8E0109
S1133700035B1F4F498161EC7BE08C810E94D337BE
S1133710F8018083CE01835B9F4FFC018081882F59
S113372090E08130910519F0029721F00BC081E0FF
S1133730888B08C081E0888B81E08E8783E080934A
S1133740040200008C81482F50E0CE01875A9F4F1D
S113375060E5649F9001659F300D1124215F334F14
S1133760F9012081FC0120838C81282F30E040E581
S1133770429FC001439F900D11248C5F934FFC0125
S11337808081882311F40C946A248C81282F30E0E2
S113379040E5429FC001439F900D11248C5F934FDD
S11337A0FC0190818981981711F40C946A248E8508
S11337B0813011F40C946A24CE01875A9F4FFC0186
S11337C08081882311F00C946A241F868B858823BA
S11337D009F0CCC08C81282F30E040E5429FC00125
S11337E0439F900D11248C5F934FFC0180818D8742
S11337F01E8A85E08EAB22C08EA9282F30E040E5DA
S1133800429FC001439F900D11248C5F934FFC0194
S113381040818C81282F30E050E5529FC001539F96
S1133820900D11248C5F934FFC018081481719F48B
S11338308E898F5F8E8B8EA9865F8EAB8EA9843224
S1133840D8F28E8981508E8B8C81482F50E08E89DE
S1133850882F90E068E2649F9001659F300D1124E9
S1133860820F931F880F991F8A50944FFC01808107
S113387091819E8F8D8F44EE52E060E080E00E9443
S11338808F0E8981882F90E0292F2F938F938CE7B7
S113389092E0892F8F938CE792E08F93CE0180532F
S11338A09E4F292F2F938F930E942F720F900F906A
S11338B00F900F900F900F90CE0180539E4FAC014C
S11338C06BE080E00E948F0E46E153E060E081E00F
S11338D00E948F0E8E8D8F938D8D8F938CE792E047
S11338E0892F8F938CE792E08F93CE0180539E4F64
S11338F0292F2F938F930E942F720F900F900F9068
S11339000F900F900F90CE0180539E4FAC016AE050
S113391081E00E948F0E47E253E060E082E00E9463
S11339208F0E8D85882F90E0292F2F938F938CE70E
S113393092E0892F8F938CE792E08F93CE0180538E
S11339409E4F292F2F938F930E942F720F900F90C9
S11339500F900F900F900F90CE0180539E4FAC01AB
S11339606BE082E00E948F0E81E08B878981882F33
S113397090E00197885F9D4FFC018081282F30E003
S113398080916C0990916D0982239323892B09F40A
S1133990A1C78D8D9E8D25E0AC016D8589810E9426
S11339A0A06D8E878E85813009F094C71B8681E0D7
S11339B08F8781E08C878EC78EA1882309F48DC7F9
S11339C08981282F30E04AE3429FC001439F900D34
S11339D011248E56954FFC018081882309F415C16A
S11339E08FA1882309F011C144EE52E060E080E029
S11339F00E948F0E8981882F90E0292F2F938F9317
S1133A008CE792E0892F8F938CE792E08F93CE011D
S1133A1080539E4F292F2F938F930E942F720F90C4
S1133A200F900F900F900F900F90CE0180539E4FE8
S1133A30AC016BE080E00E948F0E49E453E060E04B
S1133A4081E00E948F0E4AE553E060E082E00E942C
S1133A508F0E81E08FA39E012C593F4F80E090E4AC
S1133A60ACE9B5E4F90180839183A283B3838E0129
S1133A700C551F4FCE018C599F4F20E030E04AE790
S1133A8055E4FC0160817181828193810E941771E8
S1133A90DC01CB01F80180839183A283B383CE013F
S1133AA08C559F4F20E030E040E85FE3FC016081EB
S1133AB07181828193810E94C96F88230CF462C052
S1133AC0CE018C559F4F20E03FEF4FE757E4FC01B8
S1133AD060817181828193810E94137118160CF0A8
S1133AE03EC0CE018C599F4F20E030E040E251E4CB
S1133AF0FC0160817181828193810E941771DC01D4
S1133B00CB018E0108551F4FBC01CD010E943570B9
S1133B10DC01CB01F8019183808318C080E991E036
S1133B200197F1F79E0126553F4FF9019183808358
S1133B30CE0188559F4F9E0128553F4FF9012081A2
S1133B40318121503109FC0131832083CE01885514
S1133B509F4FFC0180819181892B01F729C08E013F
S1133B6008551F4FCE018C559F4FFC016081718118
S1133B70828193810E943570DC01CB01F80191832D
S1133B80808308C0CE0188559F4F21E030E0FC01BE
S1133B9031832083CE0188559F4FFC018081918120
S1133BA00197F1F79E0124553F4FF90191838083DA
S1133BB08981282F30E04AE3429FC001439F900D42
S1133BC011248C56954FFC018081882379F0109242
S1133BD005024BE653E060E081E00E948F0E4CE763
S1133BE053E060E082E00E948F0E0FC081E080937A
S1133BF005024DE853E060E081E00E948F0E4EE93B
S1133C0053E060E082E00E948F0E80910502882FCD
S1133C1090E08130910509F44FC0823091051CF485
S1133C20892B49F0F5C38230910509F46CC00397E0
S1133C3009F4F8C1EDC38E81882381F04FEA53E083
S1133C4060E081E00E948F0E4EE953E060E082E084
S1133C500E948F0E81E080930502D5C38D81882355
S1133C6009F4D1C38981282F30E04AE3429FC0017F
S1133C70439F900D11248E56954FFC01108289812B
S1133C80282F30E04AE3429FC001439F900D112446
S1133C908C56954FFC0110828981282F30E04AE32D
S1133CA0429FC001439F900D11248D56954FFC01F6
S1133CB0108219861EA2A7C38E81882381F082E018
S1133CC08093050240EC53E060E081E00E948F0E97
S1133CD041ED53E060E082E00E948F0E96C38D8137
S1133CE0882309F492C345EF52E060E081E00E942A
S1133CF08F0E42EE53E060E082E00E948F0E83E07C
S1133D008093050282C38E81882371F18981282FD3
S1133D1030E04AE3429FC001439F900D11248C562A
S1133D20954FFC018081882379F0109205024BE6BF
S1133D3053E060E081E00E948F0E4CE753E060E0C6
S1133D4082E00E948F0E63C381E0809305024FEAF4
S1133D5053E060E081E00E948F0E4EE953E060E0A2
S1133D6082E00E948F0E53C38D81882309F44FC3D0
S1133D7021E042E350E060E089810E94A06D8E87DB
S1133D808E85813049F543EF53E060E081E00E9485
S1133D908F0E44E054E060E082E00E948F0E89813F
S1133DA0282F30E04AE3429FC001439F900D112425
S1133DB08E56954FFC0110828981282F30E04AE30A
S1133DC0429FC001439F900D11248D56954FFC01D5
S1133DD0108219861EA21BC38E85823009F017C378
S1133DE043EF53E060E081E00E948F0E45E154E030
S1133DF060E082E00E948F0E9E0128593F4F80E0D0
S1133E0090E4ACE9B5E4F90180839183A283B383A0
S1133E108E0102551F4FCE0188599F4F20E030E09C
S1133E204AE755E4FC0160817181828193810E949B
S1133E301771DC01CB01F80180839183A283B383E2
S1133E40CE0182559F4F20E030E040E85FE3FC0163
S1133E5060817181828193810E94C96F88230CF4EF
S1133E6062C0CE0182559F4F20E03FEF4FE757E4F9
S1133E70FC0160817181828193810E941371181603
S1133E800CF03EC0CE0188599F4F20E030E040E264
S1133E9051E4FC0160817181828193810E941771D8
S1133EA0DC01CB018E010E541F4FBC01CD010E94D9
S1133EB03570DC01CB01F8019183808318C080E95F
S1133EC091E00197F1F79E012C543F4FF901918342
S1133ED08083CE018E549F4F9E012E543F4FF90193
S1133EE02081318121503109FC0131832083CE01AD
S1133EF08E549F4FFC0180819181892B01F729C049
S1133F008E010E541F4FCE0182559F4FFC016081DC
S1133F107181828193810E943570DC01CB01F801AB
S1133F209183808308C0CE018E549F4F21E030E0FE
S1133F30FC0131832083CE018E549F4FFC0180818C
S1133F4091810197F1F79E012A543F4FF901918322
S1133F5080838981282F30E04AE3429FC001439F38
S1133F60900D11248C56954FFC018081882379F0A3
S1133F70109205024BE653E060E081E00E948F0E50
S1133F804CE753E060E082E00E948F0E0FC081E0B6
S1133F90809305024DE853E060E081E00E948F0EBB
S1133FA04EE953E060E082E00E948F0E8981282F61
S1133FB030E04AE3429FC001439F900D11248D5687
S1133FC0954FFC018081882F90E0292F2F938F93A8
S1133FD08CE792E0892F8F938CE792E08F93CE0148
S1133FE080539E4F292F2F938F930E942F720F90EF
S1133FF00F900F900F900F900F90CE0180539E4F13
S1134000AC0160E081E00E948F0E46E254E060E083
S113401081E00E948F0E47E354E060E082E00E945A
S11340208F0EF5C110927209109273090E94543BCD
S113403090916A0980916B09981709F0D5C048E4FA
S113404054E060E081E00E948F0E42EE53E060E0B5
S113405082E00E948F0E19868981282F30E04AE37E
S1134060429FC001439F900D11248D56954FFC0132
S113407010828981282F30E04AE3429FC001439F88
S1134080900D11248E56954FFC0110829E012459E7
S11340903F4F80E090E4ACE9B5E4F901808391837B
S11340A0A283B3838E0108541F4FCE0184599F4FBE
S11340B020E030E04AE755E4FC01608171818281AF
S11340C093810E941771DC01CB01F80180839183F5
S11340D0A283B383CE0188549F4F20E030E040E8B0
S11340E05FE3FC0160817181828193810E94C96FC9
S11340F088230CF462C0CE0188549F4F20E03FEF28
S11341004FE757E4FC0160817181828193810E94B1
S1134110137118160CF03EC0CE0184599F4F20E055
S113412030E040E251E4FC0160817181828193813D
S11341300E941771DC01CB018E0104541F4FBC0196
S1134140CD010E943570DC01CB01F801918380839D
S113415018C080E991E00197F1F79E0122543F4F86
S1134160F90191838083CE0184549F4F9E0124548E
S11341703F4FF9012081318121503109FC01318304
S11341802083CE0184549F4FFC0180819181892B2F
S113419001F73EC18E0104541F4FCE0188549F4F36
S11341A0FC0160817181828193810E943570DC0100
S11341B0CB01F8019183808308C0CE0184549F4FC2
S11341C021E030E0FC0131832083CE0184549F4FF1
S11341D0FC01808191810197F1F79E0120543F4FAA
S11341E0F9019183808314C149E554E060E081E0E2
S11341F00E948F0E42EE53E060E082E00E948F0E38
S113420010927209109273098981282F30E08981F4
S1134210482F50E06AE3649FC001659F900D11240C
S11342208D56954FFC01808141E0480F5AE3529F1F
S1134230C001539F900D11248D56954FFC0140836E
S11342408981282F30E04AE3429FC001439F900DAB
S113425011248D56954FFC018081833021F521E096
S113426042E350E060E089810E94A06D8E878981DD
S1134270282F30E04AE3429FC001439F900D112450
S11342808D56954FFC0110828981282F30E04AE336
S1134290429FC001439F900D11248E56954FFC01FF
S11342A010821986B5C081E088A79E0120593F4F2E
S11342B080E090E4ACE9B5E4F90180839183A283C2
S11342C0B3838E010E531F4FCE0180599F4F20E0C0
S11342D030E04AE755E4FC01608171818281938179
S11342E00E941771DC01CB01F80180839183A283C2
S11342F0B383CE018E539F4F20E030E040E85FE36C
S1134300FC0160817181828193810E94C96F88233D
S11343100CF462C0CE018E539F4F20E03FEF4FE775
S113432057E4FC0160817181828193810E94137141
S113433018160CF03EC0CE0180599F4F20E030E0AB
S113434040E251E4FC0160817181828193810E9489
S11343501771DC01CB018E010A531F4FBC01CD0143
S11343600E943570DC01CB01F8019183808318C071
S113437080E991E00197F1F79E0128533F4FF9013D
S113438091838083CE018A539F4F9E012A533F4FCE
S1134390F9012081318121503109FC0131832083CD
S11343A0CE018A539F4FFC0180819181892B01F7B3
S11343B02FC08E010A531F4FCE018E539F4FFC0115
S11343C060817181828193810E943570DC01CB010F
S11343D0F8019183808308C0CE018A539F4F21E066
S11343E030E0FC0131832083CE018A539F4FFC01CE
S11343F0808191810197F1F79E0126533F4FF90186
S11344009183808305C0000003C0000001C0000048
S11344108981882F90E00197885F9D4FFC018081FE
S1134420282F30E080916C0990916D0982239323A9
S1134430892B21F081E08D831E824FC28981882FD0
S113444090E00197845F9D4FFC018081282F30E02C
S113445080916C0990916D0982239323892B21F01B
S11344601D8281E08E8339C21D821E8236C28981FB
S11344700E941C5184E08CA38981282F30E04AE3F8
S1134480429FC001439F900D11248E56954F21E009
S1134490FC01208381E08B8381E0898722C28C81A7
S11344A0282F30E040E5429FC001439F900D112426
S11344B08C5F934FFC018081882321F5188A8E013B
S11344C0035B1F4F498161EC7BE08C810E94D337F1
S11344D0F8018083CE01835B9F4FFC018081882F8C
S11344E090E08130910519F0029721F00BC081E032
S11344F0888B08C081E0888B81E08E8783E080937D
S1134500040200008C81482F50E0CE01875A9F4F4F
S113451060E5649F9001659F300D1124215F334F46
S1134520F9012081FC0120838C81282F30E040E5B3
S1134530429FC001439F900D11248C5F934FFC0157
S11345408081882309F4CCC18C81282F30E040E598
S1134550429FC001439F900D11248C5F934FFC0137
S113456090818981981709F4BBC18E85813009F443
S1134570B7C1CE01875A9F4FFC018081882309F07F
S1134580AFC11F868B85882309F070C19091C40F39
S11345908091C414981719F48AE08F8B02C084E0C8
S11345A08F8B44EE52E060E080E00E948F0E8981A0
S11345B0882F90E0292F2F938F938CE792E0892FF7
S11345C08F938CE792E08F93CE0180539E4F292FD7
S11345D02F938F930E942F720F900F900F900F9034
S11345E00F900F90CE0180539E4FAC016BE080E0A2
S11345F00E948F0E4AE654E060E081E00E948F0E34
S11346004CE754E060E082E00E948F0E8F89882F8F
S113461090E0292F2F938F938CE792E0892F8F932B
S11346208CE792E08F93CE0180539E4F292F2F93D6
S11346308F930E942F720F900F900F900F900F90F6
S11346400F90CE0180539E4FAC016EE082E00E9439
S11346508F0E62C080915119909152199093800BE2
S113466080937F0B109252191092511989E091E0B6
S1134670FC018081882F90E0382F222786E091E08A
S1134680FC018081882F90E0822B932B9093521908
S11346908093511980917F0B9091800B9C01209500
S11346A030958091511990915219822393239093BC
S11346B06D0980936C0980916C0990916D0988272C
S11346C09170892B89F080917209882369F4909103
S11346D0730980917209492F682F81E00E943D4C33
S11346E081E08093720918C080916C0990916D09E2
S11346F088279270892B81F080917309882361F453
S11347009091730980917209492F682F82E00E9469
S11347103D4C81E08093730980917209882309F4E8
S113472099CF80917309882309F494CF8C81282F21
S113473030E040E5429FC001439F900D11248C5FFF
S1134740934FFC0180818D8780916A09282F30E086
S113475080916B09882F90E0A901480F591F8F8918
S1134760282F30E0429FC001439F900D529F900D2F
S113477011249E8F8D8F44EE52E060E080E00E9411
S11347808F0E8981882F90E0292F2F938F938CE7A8
S113479092E0892F8F938CE792E08F93CE01805320
S11347A09E4F292F2F938F930E942F720F900F905B
S11347B00F900F900F900F90CE0180539E4FAC013D
S11347C06BE080E00E948F0E46E153E060E081E000
S11347D00E948F0E8E8D8F938D8D8F938CE792E038
S11347E0892F8F938CE792E08F93CE0180539E4F55
S11347F0292F2F938F930E942F720F900F900F9059
S11348000F900F900F90CE0180539E4FAC016AE041
S113481081E00E948F0E47E253E060E082E00E9454
S11348208F0E8D85882F90E0292F2F938F938CE7FF
S113483092E0892F8F938CE792E08F93CE0180537F
S11348409E4F292F2F938F930E942F720F900F90BA
S11348500F900F900F900F90CE0180539E4FAC019C
S11348606BE082E00E948F0E81E08B878981882F24
S113487090E00197885F9D4FFC018081282F30E0F4
S113488080916C0990916D0982239323892B41F1C6
S11348908D8D9E8D21E0AC016D8589810E94A06D76
S11348A08E878E858130E1F41B8681E08F8781E0DD
S11348B08C87109272091092730912C000000C9434
S11348C0CA3700000C94CA3700000C94CA370000A1
S11348D00C94CA3700000C94CA3700000C94CA37F1
S11348E000000C94CA378B85882309F050C00E94BD
S11348F0650E4DE854E060E080E00E948F0E8C81EC
S1134900282F30E040E5429FC001439F900D1124C1
S11349108F53944FAC0160E081E00E948F0E4EE90A
S113492054E060E082E00E948F0E89E090E09BA357
S11349308AA381E08B8781E08FAB24C08FA9882F65
S113494090E02FA9422F50E06AE3649F9001659F95
S1134950300D11242157354FF90120813181AE01E9
S113496047505E4F880F991F840F951FFC013183B8
S1134970208340E06FA980E090E00E948E498FA9D7
S11349808F5F8FAB809107029FA98917B8F618AE85
S113499094C088AD882F90E0885F9D4FFC01808192
S11349A0282F30E080916C0990916D098223932324
S11349B0892B09F44BC088AD882F90E09E012052CA
S11349C03E4F820F931FFC018081882309F03EC073
S11349D088AD882F90E09C012F5F3F4F4AE3429FB0
S11349E0C001439F900D11248157954FFC012081F4
S11349F031818AA19BA101968217930738F58AA178
S1134A009BA101969BA38AA381E089AF09C040E0E2
S1134A1069AD80E090E00E948E4989AD8F5F89AFD7
S1134A208091070299AD891790F788AD21E0280F8E
S1134A308AA19BA141E0622F0E948E4988AD21E0AA
S1134A40280FCE0180529E4FFC01258388AD882F0C
S1134A5090E0845F9D4FFC018081282F30E080919D
S1134A606C0990916D0982239323892B19F188ADE8
S1134A70882F90E09E0120523E4F820F931FFC012D
S1134A8080818823B9F488AD882F90E09E0120525C
S1134A903E4F820F931F21E0FC012083CE01805200
S1134AA09E4FFC01848121E0280FCE0180529E4F4D
S1134AB0FC01248388AD8F5F88AF8091070298AD95
S1134AC0981708F466CFCE0180529E4FFC01948162
S1134AD080910702981711F00C94CD37CE018052C3
S1134AE09E4FFC018581882309F424C20E94650E2F
S1134AF09E0124583F4F80E090E0A0E2B1E4F90128
S1134B0080839183A283B3838E010A521F4FCE0107
S1134B1084589F4F20E030E04AE755E4FC0160816F
S1134B207181828193810E941771DC01CB01F801AC
S1134B3080839183A283B383CE018A529F4F20E066
S1134B4030E040E85FE3FC01608171818281938100
S1134B500E94C96F88230CF462C0CE018A529F4F11
S1134B6020E03FEF4FE757E4FC01608171818281CF
S1134B7093810E94137118160CF03EC0CE01845824
S1134B809F4F20E030E040E251E4FC0160817181FC
S1134B90828193810E941771DC01CB018E01065240
S1134BA01F4FBC01CD010E943570DC01CB01F8011F
S1134BB09183808318C080E991E00197F1F79E0109
S1134BC024523F4FF90191838083CE0186529F4F37
S1134BD09E0126523F4FF901208131812150310934
S1134BE0FC0131832083CE0186529F4FFC018081DA
S1134BF09181892B01F729C08E0106521F4FCE01E6
S1134C008A529F4FFC0160817181828193810E944D
S1134C103570DC01CB01F8019183808308C0CE019B
S1134C2086529F4F21E030E0FC0131832083CE0186
S1134C3086529F4FFC01808191810197F1F79E017B
S1134C4022523F4FF901918380834FEA54E060E0A0
S1134C5080E00E948F0E44EE52E060E081E00E940A
S1134C608F0ECE0180529E4FFC018581882F90E0EB
S1134C70292F2F938F938CE792E0892F8F938CE7C2
S1134C8092E08F93CE0180539E4F292F2F938F93C1
S1134C900E942F720F900F900F900F900F900F9013
S1134CA0CE0180539E4FAC016BE081E00E948F0ED9
S1134CB09E012C583F4F80E090E0AAE7B5E4F9014B
S1134CC080839183A283B3838E0104531F4FCE014B
S1134CD08C589F4F20E030E04AE755E4FC016081A6
S1134CE07181828193810E941771DC01CB01F801EB
S1134CF080839183A283B383CE0184539F4F20E0AA
S1134D0030E040E85FE3FC0160817181828193813E
S1134D100E94C96F88230CF462C0CE0184539F4F54
S1134D2020E03FEF4FE757E4FC016081718182810D
S1134D3093810E94137118160CF03EC0CE018C585A
S1134D409F4F20E030E040E251E4FC01608171813A
S1134D50828193810E941771DC01CB018E01005383
S1134D601F4FBC01CD010E943570DC01CB01F8015D
S1134D709183808318C080E991E00197F1F79E0147
S1134D802E523F4FF90191838083CE0180539F4F70
S1134D909E0120533F4FF901208131812150310977
S1134DA0FC0131832083CE0180539F4FFC0180811D
S1134DB09181892B01F729C08E0100531F4FCE0129
S1134DC084539F4FFC0160817181828193810E9491
S1134DD03570DC01CB01F8019183808308C0CE01DA
S1134DE080539F4F21E030E0FC0131832083CE01CA
S1134DF080539F4FFC01808191810197F1F79E01BF
S1134E002C523F4FF9019183808381E08AAF1EC009
S1134E108AAD482F50E08AAD882F90E09E0127503C
S1134E203E4F880F991F820F931FFC01208131810F
S1134E306AE3649FC001659F900D11248157954FCB
S1134E40FC01318320838AAD8F5F8AAF8091070292
S1134E509AAD8917E8F6809107026DE57AE00E9421
S1134E60DC4BCE0180529E4FFC018581482F50E0DF
S1134E70CE0180529E4FFC018581282F30E06AE3E9
S1134E80629FC001639F900D11248157954FFC01CF
S1134E90208131818AA19BA1281B390B6AE3649F7D
S1134EA0C001659F900D11248157954FFC013183FA
S1134EB020838C81282F30E0CE0180529E4FFC014C
S1134EC0458150E5529FC001539F900D11248C5F82
S1134ED0934FFC014083CE0180529E4FFC015581CB
S1134EE08C81282F30E040E5429FC001439F900D04
S1134EF01124845F934FFC018081652F0E949746A3
S1134F001BAE0DC08BAD882F90E09E0120523E4F0A
S1134F10820F931FFC0110828BAD8F5F8BAF8BAD23
S1134F20863080F31B8681E08C8782E080930402C4
S1134F300C94CD370E94650E40EC54E060E080E0B4
S1134F400E948F0E40ED54E060E081E00E948F0EDD
S1134F509E0128583F4F80E090E0AAE7B5E4F901AC
S1134F6080839183A283B3838E0100521F4FCE01AD
S1134F7088589F4F20E030E04AE755E4FC01608107
S1134F807181828193810E941771DC01CB01F80148
S1134F9080839183A283B383CE0180529F4F20E00C
S1134FA030E040E85FE3FC0160817181828193819C
S1134FB00E94C96F88230CF462C0CE0180529F4FB7
S1134FC020E03FEF4FE757E4FC016081718182816B
S1134FD093810E94137118160CF03EC0CE018858BC
S1134FE09F4F20E030E040E251E4FC016081718198
S1134FF0828193810E941771DC01CB018E010C51D7
S11350001F4FBC01CD010E943570DC01CB01F801BA
S11350109183808318C080E991E00197F1F79E01A4
S11350202A513F4FF90191838083CE018C519F4FC8
S11350309E012C513F4FF9012081318121503109CA
S1135040FC0131832083CE018C519F4FFC01808170
S11350509181892B01F729C08E010C511F4FCE017C
S113506080529F4FFC0160817181828193810E94F3
S11350703570DC01CB01F8019183808308C0CE0137
S11350808C519F4F21E030E0FC0131832083CE011D
S11350908C519F4FFC01808191810197F1F79E0112
S11350A028513F4FF9019183808381E08CAF1EC06A
S11350B08CAD482F50E08CAD882F90E09E01275096
S11350C03E4F880F991F820F931FFC01208131816D
S11350D06AE3649FC001659F900D11248157954F29
S11350E0FC01318320838CAD8F5F8CAF80910702EC
S11350F09CAD8917E8F6809107026DE57AE00E947D
S1135100DC4B1DAE0DC08DAD882F90E09E0120526A
S11351103E4F820F931FFC0110828DAD8F5F8DAFC8
S11351208DAD863080F31B8681E08C8782E080938E
S113513004020C94CD371A8A1B8685E08C8B1D8A59
S11351401EAE0EC08EAD882F90E09E0122513E4FC0
S1135150820F931F21E0FC0120838EAD8F5F8EAF01
S11351608EAD883078F31FAE0DC08FAD882F90E0E0
S11351709E012A503E4F820F931FFC0110828FAD77
S11351808F5F8FAF8FAD833080F3CE01805C9F4FF4
S1135190FC01108252C4809151199091521990933C
S11351A0800B80937F0B109252191092511989E051
S11351B091E0FC018081882F90E0382F222786E03F
S11351C091E0FC018081882F90E0822B932B9093B7
S11351D052198093511980917F0B9091800B9C01FF
S11351E020953095809151199091521982239323DF
S11351F090936D0980936C0981E0898BCE01805C6A
S11352009F4FFC018081882F90E09E012A513E4FE0
S1135210820F931FFC018081282F30E040E5429FDC
S1135220C001439F900D11248C5F934FFC0190812A
S11352308981981709F0F5C3CE018F5B9F4FFC015C
S11352401082A2C0CE01805C9F4FFC018081882F18
S113525090E09E012A513E4F820F931FFC018081F2
S1135260482F50E0CE018F5B9F4FFC018081882F37
S113527090E060E5649F9001659F300D1124820FDA
S1135280931F8A5F934FFC018081282F30E040E513
S1135290429FC001439F900D11248C5F934FFC01EA
S11352A090818981981729F1CE01805C9F4FFC0180
S11352B08081882F90E09E012A513E4F820F931FD8
S11352C0FC018081482F50E0CE018F5B9F4FFC0191
S11352D08081882F90E060E5649F9001659F300D88
S11352E01124820F931F8A5F934FFC0180818823CE
S11352F089F5CE01805C9F4FFC018081882F90E06E
S11353009E012A513E4F820F931FFC018081482F3A
S113531050E0CE018F5B9F4FFC018081882F90E08D
S113532060E5649F9001659F300D1124820F931FE7
S11353308A5F934FFC018081282F30E040E5429F33
S1135340C001439F900D1124825F934FFC01808123
S1135350882379F0198ACE01805C9F4FFC018081FB
S1135360882F90E09E0122513E4F820F931FFC0133
S11353701082CE018F5B9F4F9E012F5B3F4FF9013F
S113538020812F5FFC012083CE018F5B9F4FFC01A6
S11353908081833008F456CF8989882309F441C376
S11353A01B86CE01805C9F4FFC018081882F90E09A
S11353B09E012A513E4F820F931FFC0180818B8BEB
S11353C027C380915119909152199093800B809327
S11353D07F0B109252191092511989E091E0FC014F
S11353E08081882F90E0382F222786E091E0FC010D
S11353F08081882F90E0822B932B90935219809375
S1135400511980917F0B9091800B9C0120953095D0
S113541080915119909152198223932390936D098D
S113542080936C098FEF8C8B1D8ACE018E5B9F4F0E
S1135430FC01108281C0CE01805C9F4FFC01808101
S1135440882F90E09E012A513E4F820F931FFC014A
S11354508081482F50E0CE018E5B9F4FFC018081FC
S1135460882F90E060E5649F9001659F300D1124C2
S1135470820F931F8A5F934FFC018081882309F474
S113548050C0CE01805C9F4FFC018081882F90E04A
S11354909E012A513E4F820F931FFC018081482FA9
S11354A050E0CE018E5B9F4FFC018081882F90E0FD
S11354B060E5649F9001659F300D1124820F931F56
S11354C08A5F934FFC018081482F50E0CE018E5AB1
S11354D09F4F60E5649F9001659F300D1124255F07
S11354E0334FF9012081FC012083CE018E5A9F4F56
S11354F0FC0190818C89981730F4CE018E5A9F4F0D
S1135500FC0180818C8BCE018E5A9F4FFC019081CF
S11355108D89891730F4CE018E5A9F4FFC0180810A
S11355208D8BCE018E5B9F4F9E012E5B3F4FF90109
S113553020812F5FFC012083CE018E5B9F4FFC01F5
S11355408081833008F477CFCE018D5B9F4FFC01BF
S113555010827DC0CE01805C9F4FFC018081882F2A
S113556090E09E012A513E4F820F931FFC018081DF
S1135570482F50E0CE018D5B9F4FFC018081882F26
S113558090E060E5649F9001659F300D1124820FC7
S1135590931F8A5F934FFC018081482F50E0CE0116
S11355A08E5A9F4F60E5649F9001659F300D1124D2
S11355B0255F334FF9012081FC012083CE018E5AEF
S11355C09F4FFC0190818D89981781F4CE018D5BEA
S11355D09F4FFC018081882F90E09E012A503E4F0E
S11355E0820F931F21E0FC01208326C0CE018E5A36
S11355F09F4FFC0190818C89981779F4CE018D5BC3
S11356009F4FFC018081882F90E09E012A503E4FDD
S1135610820F931FFC0110820FC0CE018D5B9F4F40
S1135620FC018081882F90E09E012A503E4F820F1A
S1135630931F21E0FC012083CE018D5B9F4F9E01CF
S11356402D5B3F4FF90120812F5FFC012083CE01A8
S11356508D5B9F4FFC018081833008F47BCF8B8569
S1135660882309F03FC00E94650E8B89282F30E003
S113567040E5429FC001439F900D11248F53944FE6
S1135680AC0160E081E00E948F0E41EE54E060E0E6
S113569080E00E948F0E42EF54E060E082E00E94BE
S11356A08F0ECE01805C9F4FFC018081882F90E09B
S11356B09E012A513E4F820F931FFC018081482F87
S11356C050E0CE01825B9F4F60E5649F9001659F2F
S11356D0300D1124255F334FF9012081FC01208313
S11356E081E08B8780916C0990916D09882798706F
S11356F0892B09F492C0CE018A509E4FFC0180810F
S11357008823E9F0CE018A509E4FFC0181818823D1
S1135710B1F0CE018A509E4FFC018281882379F03A
S1135720CE018A509E4FFC011082CE018A509E4FBA
S1135730FC011182CE018A509E4FFC0112828A899B
S1135740882F90E08130910539F18230910509F478
S113575041C0892B09F061C0CE018A509E4FFC01E3
S11357608081882309F054C08E010D5A1F4F69812E
S11357708B890E946F39F8018083CE018D5A9F4F27
S1135780FC018081882309F443C0CE018A509E4FD6
S113579021E0FC0120833CC0CE018A509E4FFC01D5
S11357A081818823B9F58E010D5A1F4F69818B8938
S11357B00E946F39F8018083CE018D5A9F4FFC01FE
S11357C08081882339F1CE018A509E4F21E0FC016B
S11357D0218320C0CE018A509E4FFC018281882300
S11357E0D9F48E010D5A1F4F69818B890E946F393C
S11357F0F8018083CE018D5A9F4FFC01808188235C
S113580059F0CE018A509E4F21E0FC01228304C04E
S1135810000003C0000001C0000080916C09909159
S11358206D0999230CF092C0CE018A509E4FFC0161
S11358308081882301F5CE018A509E4FFC0181812D
S11358408823C9F4CE018A509E4FFC0182818823AB
S113585091F4CE018A509E4F21E0FC012083CE01B9
S11358608A509E4F21E0FC012183CE018A509E4F35
S113587021E0FC0122838A89882F90E08130910500
S113588031F18230910509F43FC0892B09F05EC0E3
S1135890CE018A509E4FFC018081882309F451C0B7
S11358A08E010D5A1F4F69818B890E945E3AF8015F
S11358B08083CE018D5A9F4FFC018081882309F497
S11358C040C0CE018A509E4FFC0110823AC0CE01E6
S11358D08A509E4FFC0181818823A9F18E010D5AC3
S11358E01F4F69818B890E945E3AF8018083CE0143
S11358F08D5A9F4FFC018081882329F1CE018A5063
S11359009E4FFC0111821FC0CE018A509E4FFC01A4
S113591082818823D1F08E010D5A1F4F69818B89B2
S11359200E945E3AF8018083CE018D5A9F4FFC019C
S11359308081882351F0CE018A509E4FFC0112824F
S113594004C0000003C0000001C0000080916C0985
S113595090916D0988279074892B09F459C08A891C
S1135960882F90E0019623E030E0B9010E9486710F
S11359708A8BCE01805C9F4FFC018081882F90E050
S11359809E012A513E4F820F931FFC018081482FB4
S113599050E08A89882F90E060E5649F9001659FBC
S11359A0300D1124820F931F8A5F934FFC01808175
S11359B08B8B8B89882359F51A8ACE01805C9F4F83
S11359C0FC018081882F90E09E012A513E4F820F76
S11359D0931FFC018081482F50E08A89882F90E032
S11359E060E5649F9001659F300D1124820F931F21
S11359F08A5F934FFC0180818B8BCE018A509E4F2E
S1135A00FC012181CE018A509E4FFC0122831B861A
S1135A1080916C0990916D0988279470892B09F401
S1135A20D0CCCE01805C9F4FFC01808121E0280F07
S1135A30CE01805C9F4FFC012083CE01805C9F4F90
S1135A40FC018081883008F4A6CB81E08C8785E056
S1135A508C8B1D8A82E0809304020C94D137809150
S1135A600602882F90E08130910541F08230910543
S1135A7009F489C0892B09F443C0CEC08B858823DF
S1135A80A1F443E055E060E080E00E948F0E44E121
S1135A9055E060E081E00E948F0E42EF54E060E048
S1135AA082E00E948F0E81E08B8780916C09909137
S1135AB06D0988279074892B21F0109206021B86A9
S1135AC0A4C080916C0990916D0988279071892BED
S1135AD041F081E08093060284E0809304021B86F7
S1135AE094C080916C0990916D0988279470892BDA
S1135AF009F48BC082E08093040281E08C8785C026
S1135B008B858823A1F443E055E060E080E00E94A7
S1135B108F0E45E255E060E081E00E948F0E42EF77
S1135B2054E060E082E00E948F0E81E08B878091D8
S1135B306C0990916D0988279074892B29F082E073
S1135B40809306021B8664C080916C0990916D0954
S1135B5088279071892B41F081E08093060286E0CA
S1135B60809304021B8654C080916C0990916D0946
S1135B7088279470892B09F44BC082E08093040237
S1135B8081E08C8745C08B858823A1F443E055E0F0
S1135B9060E080E00E948F0E46E355E060E081E023
S1135BA00E948F0E42EF54E060E082E00E948F0E6C
S1135BB081E08B8780916C0990916D09882790749E
S1135BC0892B29F081E0809306021B8624C08091F2
S1135BD06C0990916D0988279071892B41F081E0BF
S1135BE08093060287E0809304021B8614C0809190
S1135BF06C0990916D0988279470892B61F082E07B
S1135C008093040281E08C8706C000000C94D13795
S1135C1000000C94D13700000C94D1378B85882375
S1135C2009F098C042EE53E060E080E00E948F0EDD
S1135C3047E455E060E081E00E948F0E42EF54E0BB
S1135C4060E082E00E948F0E81E08B87CE018C5B46
S1135C509F4FFC01108219C0CE018C5B9F4FFC0149
S1135C608081882F90E09E012D5F3D4F820F931F0E
S1135C70FC011082CE018C5B9F4F9E012C5B3F4F39
S1135C80F90120812F5FFC012083CE018C5B9F4FA3
S1135C90FC0180818C3100F318A2CE018B5B9F4FF5
S1135CA0FC01108231C0CE018B5B9F4FFC018081CF
S1135CB0282F30E040E5429FC001439F900D1124FE
S1135CC08C5F934FFC0190818981981791F488A18E
S1135CD0882F90E09E012D5F3D4F820F931F9E0100
S1135CE02B5B3F4FF9012081FC01208388A18F5F4A
