S01000004D6F6E6F706F6C792E73726563B7
S2140000000C94DC0D0C94FC0D0C94FC0D0C94FC0D67
S2140000100C94FC0D0C94FC0D0C94FC0D0C94FC0D37
S2140000200C94FC0D0C94FC0D0C94FC0D0C94FC0D27
S2140000300C94FC0D0C94FC0D0C94FC0D0C94FC0D17
S2140000400C94FC0D0C94FC0D0C94FC0D0C94FC0D07
S2140000500C94FC0D0C94FC0D0C94FC0D0C94FC0DF7
S2140000600C94FC0D0C94FC0D0C94FC0D0C94FC0DE7
S2140000700C94FC0D0C94FC0D0C94FC0D0C94FC0DD7
S2140000800C94FC0D0C94FC0D0C94FC0D0C94FC0DC7
S2140000900C94FC0D0C94FC0D0C94FC0D0C94FC0DB7
S2140000A00C94FC0D0C94FC0D0C94FC0D0C94FC0DA7
S2140000B00C94FC0D0C94FC0D0C94FC0D0C94FC0D97
S2140000C00C94FC0D0C94FC0D0C94FC0D0C94FC0D87
S2140000D00C94FC0D0C94FC0D0C94FC0D0C94FC0D77
S2140000E00C94FC0D0312121398158924AF28B92816
S2140000F09829222C3919BD18DE1A7424E61C4D22C4
S2140001006522791BE6641465236581659865AF658D
S214000110D565FB6512675B6B0A75A96C0A75016E7F
S214000120CD705772E373EA744F6C69206D61672077
S21400013064696368202020206E696368742E20201E
S21400014020202020202020204765686520696E73C7
S2140001502020202020202020476566846E676E6958
S2140001607300000000000000000000000000000017
S214000170000000000000000000000000000000007A
S214000180000000000000000000000000000000006A
S214000190000000000000000000000000000000005A
S2140001A0000000000000000000000000000000004A
S2140001B0000000000000000000000000000000003A
S2140001C0000000000000000000000000000000002A
S2140001D0000000000000000000000000000000001A
S2140001E0000000000000000000000000000000000A
S2140001F0467265696B61727465000000000000005D
S21400020000000000000000000000000000000000E9
S21400021000000000000000000000000000000000D9
S21400022000000000000000000000000000000000C9
S21400023000000000000000000000000000000000B9
S21400024000000000000000000000000000000000A9
S2140002500000000000000000000000000000000099
S2140002600000000000000000000000000000000089
S2140002700000000000000000000000000000000079
S2140002800000000000000000000000000000000069
S2140002900000000000000000000000000000000059
S2140002A00000000000000000000000000000000049
S2140002B00000000000000000529A636B6520766F15
S2140002C072206269732020207A756D204E846368E0
S2140002D07374656E202020205765726B0000000046
S2140002E00000000000000000000000000000000009
S2140002F000000000000000000000000000000000F9
S21400030000000000000000000000000000000000E8
S21400031000000000000000000000000000000000D8
S21400032000000000000000000000000000000000C8
S21400033000000000000000000000000000000000B8
S21400034000000000000000000000000000000000A8
S2140003500000000000000000000000000000000098
S2140003600000000000000000000000000000000088
S2140003700000000000000000000000000000000078
S21400038044752068617374207A75207669656C659B
S214000390416273656E7A656E202020202020202022
S2140003A05A61686C652035300000000000000000CF
S2140003B00000000000000000000000000000000038
S2140003C00000000000000000000000000000000028
S2140003D00000000000000000000000000000000018
S2140003E00000000000000000000000000000000008
S2140003F000000000000000000000000000000000F8
S21400040000000000000000000000000000000000E7
S21400041000000000000000000000000000000000D7
S21400042000000000000000000000000000000000C7
S21400043000000000000000000000000000000000B7
S2140004400000000000000000529A636B6520766F83
S21400045072206269732020207A75722050726F6451
S214000460756B74696F6E2020506F6C796D6563686C
S214000470616E696B657200000000000000000000FD
S2140004800000000000000000000000000000000067
S2140004900000000000000000000000000000000057
S2140004A00000000000000000000000000000000047
S2140004B00000000000000000000000000000000037
S2140004C00000000000000000000000000000000027
S2140004D00000000000000000000000000000000017
S2140004E00000000000000000000000000000000007
S2140004F000000000000000000000000000000000F7
S21400050000000000000000000000000000000000E6
S2140005105A6965686520766F7220626973202020AC
S2140005207A7572206E8463687374656E202020204E
S21400053048616C74657374656C6C6500000000003F
S21400054000000000000000000000000000000000A6
S2140005500000000000000000000000000000000096
S2140005600000000000000000000000000000000086
S2140005700000000000000000000000000000000076
S2140005800000000000000000000000000000000066
S2140005900000000000000000000000000000000056
S2140005A00000000000000000000000000000000046
S2140005B00000000000000000000000000000000036
S2140005C00000000000000000000000000000000026
S2140005D000000000000000005A6965686520766F1C
S2140005E072206269732020207A7572206E84636898
S2140005F07374656E2020202048616C746573746582
S2140006006C6C6500000000000000000000000000A8
S21400061000000000000000000000000000000000D5
S21400062000000000000000000000000000000000C5
S21400063000000000000000000000000000000000B5
S21400064000000000000000000000000000000000A5
S2140006500000000000000000000000000000000095
S2140006600000000000000000000000000000000085
S2140006700000000000000000000000000000000075
S2140006800000000000000000000000000000000065
S2140006900000000000000000000000000000000055
S2140006A05A6965686520766F72206269732020201B
S2140006B04772756E6461757362696C64756E6720E7
S2140006C0456C656B74726F6E696B65720000000036
S2140006D00000000000000000000000000000000015
S2140006E00000000000000000000000000000000005
S2140006F000000000000000000000000000000000F5
S21400070000000000000000000000000000000000E4
S21400071000000000000000000000000000000000D4
S21400072000000000000000000000000000000000C4
S21400073000000000000000000000000000000000B4
S21400074000000000000000000000000000000000A4
S2140007500000000000000000000000000000000094
S21400076000000000000000005A6965686520766F8A
S21400077072206269732020204D6563686174726F11
S2140007806E696B20202020204C61626F7200000092
S2140007900000000000000000000000000000000054
S2140007A00000000000000000000000000000000044
S2140007B00000000000000000000000000000000034
S2140007C00000000000000000000000000000000024
S2140007D00000000000000000000000000000000014
S2140007E00000000000000000000000000000000004
S2140007F000000000000000000000000000000000F4
S21400080000000000000000000000000000000000E3
S21400081000000000000000000000000000000000D3
S21400082000000000000000000000000000000000C3
S214000830529A636B6520766F722061756620202061
S2140008405374617274000000000000000000000095
S2140008500000000000000000000000000000000093
S2140008600000000000000000000000000000000083
S2140008700000000000000000000000000000000073
S2140008800000000000000000000000000000000063
S2140008900000000000000000000000000000000053
S2140008A00000000000000000000000000000000043
S2140008B00000000000000000000000000000000033
S2140008C00000000000000000000000000000000023
S2140008D00000000000000000000000000000000013
S2140008E00000000000000000000000000000000003
S2140008F00000000000000000486575746520496E21
S214000900666F726D69657274496872206575636892
S214000910209A6265722020205374756469656E673C
S214000920846E676520202020529A636B6520766F60
S2140009307220626973202020546563686E696B7547
S2140009406D00000000000000000000000000000035
S2140009500000000000000000000000000000000092
S2140009600000000000000000000000000000000082
S2140009700000000000000000000000000000000072
S2140009800000000000000000000000000000000062
S2140009900000000000000000000000000000000052
S2140009A00000000000000000000000000000000042
S2140009B00000000000000000000000000000000032
S2140009C0457320697374206465722032352E2020AA
S2140009D0447520657268846C74737420202020200F
S2140009E06465696E656E204C6F686E2E20766F6E3D
S2140009F0373000000000000000000000000000008B
S214000A0000000000000000000000000000000000E1
S214000A1000000000000000000000000000000000D1
S214000A2000000000000000000000000000000000C1
S214000A3000000000000000000000000000000000B1
S214000A4000000000000000000000000000000000A1
S214000A500000000000000000000000000000000091
S214000A600000000000000000000000000000000081
S214000A700000000000000000000000000000000071
S214000A8000000000000000004573206973742064B5
S214000A9065722032352E2020447520657268846C7D
S214000AA074737420202020206465696E656E204C67
S214000AB06F686E2E20766F6E3134300000000000B6
S214000AC00000000000000000000000000000000021
S214000AD00000000000000000000000000000000011
S214000AE00000000000000000000000000000000001
S214000AF000000000000000000000000000000000F1
S214000B0000000000000000000000000000000000E0
S214000B1000000000000000000000000000000000D0
S214000B2000000000000000000000000000000000C0
S214000B3000000000000000000000000000000000B0
S214000B4000000000000000000000000000000000A0
S214000B504765686520332046656C646572202020F2
S214000B607A75729A636B00000000000000000000B7
S214000B700000000000000000000000000000000070
S214000B800000000000000000000000000000000060
S214000B900000000000000000000000000000000050
S214000BA00000000000000000000000000000000040
S214000BB00000000000000000000000000000000030
S214000BC00000000000000000000000000000000020
S214000BD00000000000000000000000000000000010
S214000BE00000000000000000000000000000000000
S214000BF000000000000000000000000000000000F0
S214000C0000000000000000000000000000000000DF
S214000C10000000000000000044752072656E6F76CC
S214000C2069657273742020206465696E65202048AB
S214000C3084757365722020205A61686C6520669AF8
S214000C4072206A65646573204861757320323520AA
S214000C50756E6420669A72206A6564657320486FB4
S214000C6074656C2031303000000000000000000089
S214000C70000000000000000000000000000000006F
S214000C80000000000000000000000000000000005F
S214000C90000000000000000000000000000000004F
S214000CA0000000000000000000000000000000003F
S214000CB0000000000000000000000000000000002F
S214000CC0000000000000000000000000000000001F
S214000CD0000000000000000000000000000000000F
S214000CE044752077757264657374207A756D20205C
S214000CF04B6C617373656E7665727472657465723B
S214000D0047657784686C742E205A61686C6520206D
S214000D106A6564656D20537069656C657220353050
S214000D2000000000000000000000000000000000BE
S214000D3000000000000000000000000000000000AE
S214000D40000000000000000000000000000000009E
S214000D50000000000000000000000000000000008E
S214000D60000000000000000000000000000000007E
S214000D70000000000000000000000000000000006E
S214000D80000000000000000000000000000000005E
S214000D90000000000000000000000000000000004E
S214000DA00000000000000000447520686173742095
S214000DB065696E6520202020576574746520676518
S214000DC067656E2020202020506574657220766549
S214000DD0726C6F72656E2020647520736368756C24
S214000DE0646573742069686D65696E656E204B6115
S214000DF066666565202020207A61686C652035006F
S214000E0000000000000000000000000000000000DD
S214000E1000000000000000000000000000000000CD
S214000E2000000000000000000000000000000000BD
S214000E3000000000000000000000000000000000AD
S214000E40000000000000000000000000000000009D
S214000E50000000000000000000000000000000008D
S214000E60000000000000000000000000000000007D
S214000E7044752068617374206265692020202020F4
S214000E8065696E656D204B756E64656E202020204A
S214000E9065696E65207363686C6563687465202099
S214000EA0426577657274756E6720202020202020AA
S214000EB068696E7465726C617373656E202020209D
S214000EC06765686520696E2064656E202020202096
S214000ED0576F726B73686F700000000000000000B0
S214000EE000000000000000000000000000000000FD
S214000EF000000000000000000000000000000000ED
S214000F0000000000000000000000000000000000DC
S214000F1000000000000000000000000000000000CC
S214000F2000000000000000000000000000000000BC
S214000F300000000000000000467265696B61727474
S214000F406500000000000000000000000000000037
S214000F50000000000000000000000000000000008C
S214000F60000000000000000000000000000000007C
S214000F70000000000000000000000000000000006C
S214000F80000000000000000000000000000000005C
S214000F90000000000000000000000000000000004C
S214000FA0000000000000000000000000000000003C
S214000FB0000000000000000000000000000000002C
S214000FC0000000000000000000000000000000001C
S214000FD0000000000000000000000000000000000C
S214000FE000000000000000000000000000000000FC
S214000FF000000000000000000000000000000000EC
S21400100044752072656E6F76696572737420202051
S2140010106465696E6520204884757365722020209B
S2140010205A61686C6520669A72206A6564657320EA
S2140010304861757320343020756E6420669A72207D
S2140010406A6564657320486F74656C2031313500BD
S214001050000000000000000000000000000000008B
S214001060000000000000000000000000000000007B
S214001070000000000000000000000000000000006B
S214001080000000000000000000000000000000005B
S214001090000000000000000000000000000000004B
S2140010A0000000000000000000000000000000003B
S2140010B0000000000000000000000000000000002B
S2140010C00000000000000000496E206465722020C9
S2140010D020202020202020205665727365747A75A3
S2140010E06E672069737420206469722065696E20BB
S2140010F046728473657220207A657262726F6368C6
S214001100656E2E20202020205A61686C65203130C4
S214001110300000000000000000000000000000009A
S21400112000000000000000000000000000000000BA
S21400113000000000000000000000000000000000AA
S214001140000000000000000000000000000000009A
S214001150000000000000000000000000000000008A
S214001160000000000000000000000000000000007A
S214001170000000000000000000000000000000006A
S214001180000000000000000000000000000000005A
S21400119044752067946E6E737420646972202020F4
S2140011A06574776173206265696D20202020202099
S2140011B0536E61636B6175746F6D617420202020BF
S2140011C07A61686C65203530000000000000000081
S2140011D0000000000000000000000000000000000A
S2140011E000000000000000000000000000000000FA
S2140011F000000000000000000000000000000000EA
S21400120000000000000000000000000000000000D9
S21400121000000000000000000000000000000000C9
S21400122000000000000000000000000000000000B9
S21400123000000000000000000000000000000000A9
S2140012400000000000000000000000000000000099
S2140012500000000000000000496872206D616368AD
S214001260742065696E65200945786B757273696FC1
S2140012706E202020202020207A61686C6520353082
S2140012800000000000000000000000000000000059
S2140012900000000000000000000000000000000049
S2140012A00000000000000000000000000000000039
S2140012B00000000000000000000000000000000029
S2140012C00000000000000000000000000000000019
S2140012D00000000000000000000000000000000009
S2140012E000000000000000000000000000000000F9
S2140012F000000000000000000000000000000000E9
S21400130000000000000000000000000000000000D8
S21400131000000000000000000000000000000000C8
S214001320447520686173742064696520202020203D
S21400133041627363686C75737372656973652020A8
S2140013406F7267616E6973696572742C2020202045
S2140013506A6564657220537069656C65722020202A
S2140013607A61686C74206469722031300000000075
S2140013700000000000000000000000000000000068
S2140013800000000000000000000000000000000058
S2140013900000000000000000000000000000000048
S2140013A00000000000000000000000000000000038
S2140013B00000000000000000000000000000000028
S2140013C00000000000000000000000000000000018
S2140013D00000000000000000000000000000000008
S2140013E00000000000000000456C656B74726F6EB4
S2140013F0696B657220202020646573204D6F6E61D6
S2140014007473202020202020447520657268846C28
S21400141074737420313030000000000000000000BB
S21400142000000000000000000000000000000000B7
S21400143000000000000000000000000000000000A7
S2140014400000000000000000000000000000000097
S2140014500000000000000000000000000000000087
S2140014600000000000000000000000000000000077
S2140014700000000000000000000000000000000067
S2140014800000000000000000000000000000000057
S2140014900000000000000000000000000000000047
S2140014A00000000000000000000000000000000037
S2140014B044752068696C667374206465696E656D32
S2140014C04D6974736368FC6C6572206265696D2093
S2140014D06C65726E656E2E20202020202020202035
S2140014E0447520657268846C747374203130000013
S2140014F000000000000000000000000000000000E7
S21400150000000000000000000000000000000000D6
S21400151000000000000000000000000000000000C6
S21400152000000000000000000000000000000000B6
S21400153000000000000000000000000000000000A6
S2140015400000000000000000000000000000000096
S2140015500000000000000000000000000000000086
S2140015600000000000000000000000000000000076
S2140015700000000000000000447520657268846C5E
S21400158073742035300000000000000000000000EA
S2140015900000000000000000000000000000000046
S2140015A00000000000000000000000000000000036
S2140015B00000000000000000000000000000000026
S2140015C00000000000000000000000000000000016
S2140015D00000000000000000000000000000000006
S2140015E000000000000000000000000000000000F6
S2140015F000000000000000000000000000000000E6
S21400160000000000000000000000000000000000D5
S21400161000000000000000000000000000000000C5
S21400162000000000000000000000000000000000B5
S21400163000000000000000000000000000000000A5
S214001640447520657268846C7374203130300000F5
S2140016500000000000000000000000000000000085
S2140016600000000000000000000000000000000075
S2140016700000000000000000000000000000000065
S2140016800000000000000000000000000000000055
S2140016900000000000000000000000000000000045
S2140016A00000000000000000000000000000000035
S2140016B00000000000000000000000000000000025
S2140016C00000000000000000000000000000000015
S2140016D00000000000000000000000000000000005
S2140016E000000000000000000000000000000000F5
S2140016F000000000000000000000000000000000E5
S2140017000000000000000000447520657268846CCC
S2140017107374203235000000000000000000000056
S21400172000000000000000000000000000000000B4
S21400173000000000000000000000000000000000A4
S2140017400000000000000000000000000000000094
S2140017500000000000000000000000000000000084
S2140017600000000000000000000000000000000074
S2140017700000000000000000000000000000000064
S2140017800000000000000000000000000000000054
S2140017900000000000000000000000000000000044
S2140017A00000000000000000000000000000000034
S2140017B00000000000000000000000000000000024
S2140017C00000000000000000000000000000000014
S2140017D0447520657268846C737420323000000093
S2140017E000000000000000000000000000000000F4
S2140017F000000000000000000000000000000000E4
S21400180000000000000000000000000000000000D3
S21400181000000000000000000000000000000000C3
S21400182000000000000000000000000000000000B3
S21400183000000000000000000000000000000000A3
S2140018400000000000000000000000000000000093
S2140018500000000000000000000000000000000083
S2140018600000000000000000000000000000000073
S2140018700000000000000000000000000000000063
S2140018800000000000000000000000000000000053
S2140018900000000000000000447520657268846C3B
S2140018A0737420313030000000000000000000009B
S2140018B00000000000000000000000000000000023
S2140018C00000000000000000000000000000000013
S2140018D00000000000000000000000000000000003
S2140018E000000000000000000000000000000000F3
S2140018F000000000000000000000000000000000E3
S21400190000000000000000000000000000000000D2
S21400191000000000000000000000000000000000C2
S21400192000000000000000000000000000000000B2
S21400193000000000000000000000000000000000A2
S2140019400000000000000000000000000000000092
S2140019500000000000000000000000000000000082
S214001960447520657268846C7374203130300000D2
S2140019700000000000000000000000000000000062
S2140019800000000000000000000000000000000052
S2140019900000000000000000000000000000000042
S2140019A00000000000000000000000000000000032
S2140019B00000000000000000000000000000000022
S2140019C00000000000000000000000000000000012
S2140019D00000000000000000000000000000000002
S2140019E000000000000000000000000000000000F2
S2140019F000000000000000000000000000000000E2
S214001A0000000000000000000000000000000000D1
S214001A1000000000000000000000000000000000C1
S214001A200000000000000000447520626973742006
S214001A30202020202020202057656C746D65697357
S214001A407465722E2020202052FC636B6520766F12
S214001A5072206269732020205374617274207A6940
S214001A606568652064656E20646F7070656C74656B
S214001A706E20202020202020426574726167206539
S214001A80696E00000000000000000000000000007A
S214001A900000000000000000000000000000000041
S214001AA00000000000000000000000000000000031
S214001AB00000000000000000000000000000000021
S214001AC00000000000000000000000000000000011
S214001AD00000000000000000000000000000000001
S214001AE000000000000000000000000000000000F1
S214001AF04475206861737420676567656E202020D2
S214001B006469652048616E6479726567656C20203B
S214001B1076657273746F7373656E2E202020202096
S214001B20529A636B6520766F72206269732020205C
S214001B3050726F64756B74696F6E202020202020B1
S214001B40456C656B74726F6E696B657200000000A1
S214001B500000000000000000000000000000000080
S214001B600000000000000000000000000000000070
S214001B700000000000000000000000000000000060
S214001B800000000000000000000000000000000050
S214001B900000000000000000000000000000000040
S214001BA00000000000000000000000000000000030
S214001BB0000000000000000011241FBECFEFD1E29D
S214001BC0DEBFCDBF00E00CBF19E0A0E0B2E0E8EF5A
S214001BD0FDEF00E00BBF02C007900D92A43FB107D7
S214001BE0D9F72AE1A4EFB9E001C01D92AA3FB207D7
S214001BF0E1F78FD20C94FA7E0C94000098B19F7E89
S214001C0098B998B19B7F98B98BB998B1926098B9FA
S214001C108150833038F48FE291E10197F1F700C0EC
S214001C20000003C090EA9A95F1F788B18D7F88B9D5
S214001C3008951F93CF93DF93CDB7DEB729970FB6DE
S214001C40F894DEBF0FBECDBF8FEF8AB987B988B1D3
S214001C50806288B92FEF80E792E021508040904064
S214001C60E1F700C0000088B18E7F88B989E0EEE118
S214001C70F2E0DE01119601900D928A95E1F710E0F0
S214001C800AC0E1E0F0E0EC0FFD1FE10FF11D8081DE
S214001C9090E0B4DF1F5F1930A0F38FE99FE0019753
S214001CA0F1F700C0000029960FB6F894DEBF0FBE0D
S214001CB0CDBFDF91CF911F91089598B1906198B9EB
S214001CC098B19B7F98B98BB988B1826088B980EA51
S214001CD08A95F1F788B18D7F88B9089581E08EDF07
S214001CE08FE99FE00197F1F700C00000089582E0B9
S214001CF085DF8FE39FE10197F1F700C000000895AC
S214001D00417070E0660F771F6270282F30E0220F58
S214001D10331F220F331F2470842F862B822B88605C
S214001D206DDF8FE99FE00197F1F700C0000008958E
S214001D300F931F93CF938A01282F30E0285F3F4FE1
S214001D40862F90E1299F800D112458DFC0E002C045
S214001D50B4DFCF5FF801EC0FF11D80818111F8CF61
S214001D608FE39FE10197F1F700C00000CF911F912C
S214001D700F91089588E442DF84E09FDF8EE09DDFC8
S214001D8085E19BDF84E099DF84E097DF84E095DFE0
S214001D9080E093DF80E091DF80E530DF80E08DDF5C
S214001DA084E08BDF84E089DF84E087DF85E185DF00
S214001DB08EE083DF84E081DF80E07FCF089539DF27
S214001DC08DDF95DFD7DF40E060E081E099CF0895B2
S214001DD088B18F7D88B98FE39CE90197F1F700C041
S214001DE0000088B1806288B98FE39CE90197F1F71B
S214001DF000C000001EDF72DF7ADF40E060E081E0B6
S214001E007FCF08958F929F92AF92BF92CF92DF922C
S214001E10EF92FF920F931F93CF93DF93CDB7DEB76A
S214001E20A2970FB6F894DEBF0FBECDBF6C0121E1BE
S214001E30CE010196DC01E22F1D92EA95E9F7FE013C
S214001E407296DF011D922A95E9F7F60101900020AF
S214001E50E9F731978F010C191D09E62EF12C570171
S214001E60AA0CBB1CAA0CBB1CAA0CBB1CAA0CBB1C39
S214001E70B6016A0D7B1D40E150E00E94C27BBFEFB9
S214001E80EB1AFB0AEE0CFF1CEE0CFF1CEE0CFF1C04
S214001E90EE0CFF1CE016F1065CF4B501605F7F4FA8
S214001EA06C0D7D1D40E150E0CE0142960E94C27B43
S214001EB015DFAE014F5F5F4F60E081E039DFAE01B6
S214001EC04E5E5F4F60E082E033DF005211090A1574
S214001ED01B0514F481E001C080E0A2960FB6F894CA
S214001EE0DEBF0FBECDBFDF91CF911F910F91FF9048
S214001EF0EF90DF90CF90BF90AF909F908F90089517
S214001F00CF93DF931F921F92CDB7DEB79A83898354
S214001F1089819A81CB969C018AE0E7E2F2E0D901BA
S214001F2001900D928A95E1F789819A81CB962EE1F0
S214001F3030E0FC0133AB22AB89819A81CB9628E254
S214001F40FC0124AB89819A81CB96FC0115AA898174
S214001F509A81CB96FC0116AA89819A81CB96FC01C0
S214001F6017AA89819A81CB96FC0110AE89819A8145
S214001F70CB96FC0111AE89819A81CB96FC0112AEFC
S214001F8089819A818A589F4F9C018AE0E1E3F2E0BA
S214001F90D90101900D928A95E1F789819A818A5834
S214001FA09F4F2EE130E0FC0133AB22AB89819A8152
S214001FB08A589F4F28E2FC0124AB89819A818A586F
S214001FC09F4FFC0115AA89819A818A589F4FFC0170
S214001FD016AA89819A818A589F4FFC0117AA89817F
S214001FE09A818A589F4FFC0110AE89819A818A583F
S214001FF09F4FFC0111AE89819A818A589F4FFC0140
S21400200012AE89819A818F549F4F9C018AE0EBE340
S214002010F2E0D90101900D928A95E1F789819A81C3
S2140020208F549F4F25E03DE0FC0133AB22AB898106
S2140020309A818F549F4F28E2FC0124AB89819A81B4
S2140020408F549F4FFC0115AA89819A818F549F4F08
S214002050FC0116AA89819A818F549F4FFC0117AA0A
S21400206089819A818F549F4FFC0110AE89819A8195
S2140020708F549F4FFC0111AE89819A818F549F4FD8
S214002080FC0112AE89819A8184519F4F9C018AE09F
S214002090E5E4F2E0D90101900D928A95E1F7898195
S2140020A09A8184519F4F2CE531E1FC0133AB22AB82
S2140020B089819A8184519F4F28E2FC0124AB898153
S2140020C09A8184519F4FFC0115AA89819A81845177
S2140020D09F4FFC0116AA89819A8184519F4FFC016B
S2140020E017AA89819A8184519F4FFC0110AE89817D
S2140020F09A8184519F4FFC0111AE89819A81845147
S2140021009F4FFC0112AE00000F900F90DF91CF9111
S21400211008950F931F93CF93DF93CDB7DEB7C150CB
S214002120D2400FB6F894DEBF0FBECDBF81E08983E4
S2140021301A8281E08B831C821D821E82CE018C5205
S2140021409E4F26E0FC01322F11923A95E9F71F8246
S2140021501886CE018E5B9F4FFC011082CE018D5BF0
S2140021609F4FFC0110821B861C861D861E8681E002
S2140021708F8781E0888BCE018C5B9F4FFC0110829D
S214002180CE018B5B9F4FFC011082CE018A5B9F4F76
S214002190FC011082CE01895B9F4FFC011082198AD8
S2140021A01A8A1B8A1C8A81E08D8B1E8A1F8ACE01A2
S2140021B0885B9F4FFC011082198E188E1A8ECE01F6
S2140021C0875B9F4FFC011082CE01865B9F4FFC0110
S2140021D010821B8E1C8ECE01855B9F4FFC011082E9
S2140021E0CE01845B9F4FFC011082CE01835B9F4F24
S2140021F0FC011082CE0186529E4F2AE0FC01322F4F
S21400220011923A95E9F71E8E1D8E83E08F8F18A2E5
S21400221019A21AA21BA21CA2CE018C519E4F2CE121
S214002220FC01322F11923A95E9F71DA21EA2CE01AB
S214002230825B9F4FFC011082CE01815B9F4FFC01A9
S2140022401082CE019E5FFC0111821082CE01805B5F
S2140022509F4FFC0110821FA218A619A61AA60E945C
S2140022609B4DADDD84E19DE00E94284F8BEA9BE00C
S21400227047DE84E999E10E94556284ED9CE00E9465
S214002280666A80E895E20E94E7780E945C3F0E94BA
S214002290D84B80E00E94EF4B0E94B07B1BA62FC05D
S2140022A08BA5282F30E040E5429FC001439F900D4C
S2140022B01124895A924FFC0180818823E9F08BA56E
S2140022C0282F30E040E5429FC001439F900D112427
S2140022D0895A924FFC0150818BA5282F30E040E5AB
S2140022E0429FC001439F900D1124815A924FFC01DA
S2140022F08081652F0E94B4418BA58F5F8BA78BA52D
S214002300883270F2CE018F5A9F4FFC011082CE01A8
S2140023108E5A9F4FFC011082CE018D5A9F4FFC01B2
S21400232010828091A41A9091A51A9093D30C809352
S214002330D20C1092A51A1092A41A89E091E0FC0122
S2140023408081882F90E0382F222786E091E0FC01DC
S2140023508081882F90E0822B932B9093A51A8093F0
S214002360A41A8091D20C9091D30C9C0120953095A4
S2140023708091A41A9091A51A822393239093B90A68
S2140023808093B80A89E091E0FC018081882F90E074
S214002390382F222786E091E0FC018081882F90E08C
S2140023A0822B932B89359105A1F487E290E02FEFDD
S2140023B0FC01208388E290E02FE3FC0120838AE280
S2140023C090E02FEFFC0120838BE290E0FC0110826E
S2140023D0FFDC80910402882F90E0092E000CAA0BE7
S2140023E0BB0B40E050E027E030E0841B950B28173D
S2140023F0390710F40C94AE32FC018827EE58FF4FD4
S2140024008F4F0C943B7B88858823B9F44FE452E0C9
S21400241060E080E08DDC4EE552E060E081E088DC44
S2140024204FE652E060E082E083DC809107026BEAD0
S2140024307BE00E94FC4681E088878091B80A9091F4
S214002440B90A88279072892B91F180910702833010
S21400245070F18091070281508093070280910702F5
S214002460882F90E0292F2F938F938EE792E0892F65
S2140024708F938EE792E08F93CE018C539E4F292F39
S2140024802F938F930E94D17B0F900F900F900F90F9
S2140024900F900F90CE018C539E4FAC0163E081E00D
S2140024A047DC809107026BEA7BE00E94FC46809145
S2140024B0B80A9091B90A88279074892B91F1809177
S2140024C00702843070F5809107028F5F80930702C1
S2140024D080910702882F90E0292F2F938F938EE705
S2140024E092E0892F8F938EE792E08F93CE018C53E4
S2140024F09E4F292F2F938F930E94D17B0F900F9082
S2140025000F900F900F900F90CE018C539E4FAC0102
S21400251063E081E00DDC809107026BEA7BE00E94BD
S214002520FC468091B80A9091B90A88279071892B49
S21400253011F40C94B13281E08CA72EC08CA5282F04
S21400254030E04BE3429FC001439F900D112483521D
S214002550944FFC01118210828CA5282F30E04BE3AB
S214002560429FC001439F900D11248152944FFC015D
S21400257010828CA5282F30E04BE3429FC001439F7A
S214002580900D11248152944FFC0180816CA50E940D
S2140025902D428CA58F5F8CA7809107029CA589177A
S2140025A068F6809107026BEA7BE00E94FC4641E8F1
S2140025B052E060E080E0BCDB80910702882F90E06C
S2140025C0292F2F938F938EE792E0892F8F938EE794
S2140025D092E08F93CE018C539E4F292F2F938F938B
S2140025E00E94D17B0F900F900F900F900F900F903E
S2140025F0CE018C539E4FAC0164E080E099DB42E94B
S21400260052E060E081E094DB43EA52E060E082E082
S2140026108FDB809107020E94F04D81E080930402D8
S2140026200C94B13281E08DA709C04AE06DA58CED0F
S21400263095E00E94AB448DA58F5F8DA78091070221
S2140026409DA5891790F781E08EA766C144EB52E0FE
S21400265060E080E06DDB8EA5882F90E0292F2F9319
S2140026608F938EE792E0892F8F938EE792E08F9379
S214002670CE018C539E4F292F2F938F930E94D17B90
S2140026800F900F900F900F900F900F90CE018C53DD
S2140026909E4FAC016BE080E04BDB45EC52E060E027
S2140026A081E046DB45ED52E060E082E041DB74C04D
S2140026B08091A41A9091A51A9093D30C8093D20C73
S2140026C01092A51A1092A41A89E091E0FC0180816C
S2140026D0882F90E0382F222786E091E0FC01808149
S2140026E0882F90E0822B932B9093A51A8093A41AA0
S2140026F08091D20C9091D30C9C01209530958091BE
S214002700A41A9091A51A822393239093B90A8093D2
S214002710B80A8091B80A9091B90A88279170892BD7
S21400272089F08091BE0A882369F49091BF0A80914F
S214002730BE0A492F682F81E00E945D4781E08093A2
S214002740BE0A18C08091B80A9091B90A882792707C
S214002750892B81F08091BF0A882361F49091BF0A8B
S2140027608091BE0A492F682F82E00E945D4781E073
S2140027708093BF0A8091BE0A882329F08A85882321
S21400278011F482E08A878091BF0A882329F08A851F
S214002790882311F481E08A878091BE0A882309F491
S2140027A087CF8091BF0A882309F482CF8EA5282F71
S2140027B030E08091B60A482F50E08091B70A882F03
S2140027C090E0840F951FAC016BE3629FC001639F8E
S2140027D0900D11248352944FFC01518340838EA5A3
S2140027E0282F30E04BE3429FC001439F900D1124F9
S2140027F08352944FFC01208131818F81482F50E015
S2140028006BE3649FC001659F900D11248352944F23
S214002810FC01808191812817390709F04FC08A850D
S214002820882F90E001978A54954FFC018081823072
S21400283098F08A85882F90E001972A85222F30E02D
S214002840215031092A54354FF901208121508A54EC
S214002850954FFC01208312C08A85882F90E001974F
S2140028602A85222F30E0215031092A54354FF901AC
S21400287020812F5F8A54954FFC0120838EA5282F38
S21400288030E08091B60A482F50E08091B70A882F32
S21400289090E0840F951FAC016BE3629FC001639FBD
S2140028A0900D11248352944FFC01518340839091E4
S2140028B0B70A8091B60A692F0E94DA498EA5282F9A
S2140028C030E04BE3429FC001439F900D112483529A
S2140028D0944FFC01208131818F81482F50E06BE3BB
S2140028E0649FC001659F900D11248352944FFC0194
S2140028F0808191818217930710F48EA58F831092A2
S214002900BE0A1092BF0A1A866BEA7BE08EA50E946A
S214002910FC468EA58F5F8EA7809107029EA589171D
S21400292008F094CE8F8189839E0120583F4F80E027
S21400293090E0AAE7B4E4F90180839183A283B3838D
S2140029408E010C571F4FCE0180589F4F20E030E07D
S2140029504AE755E4FC0160817181828193810E947F
S214002960B97ADC01CB01F80180839183A283B3831B
S214002970CE018C579F4F20E030E040E85FE3FC013B
S21400298060817181828193810E946B7988230CF427
S21400299062C0CE018C579F4F20E03FEF4FE757E4D1
S2140029A0FC0160817181828193810E94B57A18163C
S2140029B00CF03EC0CE0180589F4F20E030E040E251
S2140029C051E4FC0160817181828193810E94B97A11
S2140029D0DC01CB018E0108571F4FBC01CD010E94C0
S2140029E0D779DC01CB01F8019183808318C080E998
S2140029F091E00197F1F79E0126573F4FF901918329
S214002A008083CE0188579F4F9E0128573F4FF9017C
S214002A102081318121503109FC0131832083CE0190
S214002A2088579F4FFC0180819181892B01F729C02F
S214002A308E0108571F4FCE018C579F4FFC016081B7
S214002A407181828193810E94D779DC01CB01F801E4
S214002A509183808308C0CE0188579F4F21E030E0E5
S214002A60FC0131832083CE0188579F4FFC01808173
S214002A7091810197F1F79E0124573F4FF901918309
S214002A80808381E08FA713C08FA5282F30E04BE30B
S214002A90429FC001439F900D11248352944F2CED0A
S214002AA035E0FC01318320838FA58F5F8FA780914F
S214002AB007029FA5891740F7809107026BEA7BE023
S214002AC00E94FC4646EE52E060E080E031D9898103
S214002AD0882F90E0292F2F938F938EE792E0892FEF
S214002AE08F938EE792E08F93CE018C539E4F292FC3
S214002AF02F938F930E94D17B0F900F900F900F9083
S214002B000F900F90CE018C539E4FAC016BE080E08F
S214002B100FD947EF52E060E081E00AD947E053E082
S214002B2060E082E005D982E0809304020C94BB3218
S214002B308C85882399F1D2D846EE52E060E080E09A
S214002B40F7D88981882F90E0292F2F938F938EE7CF
S214002B5092E0892F8F938EE792E08F93CE018C536D
S214002B609E4F292F2F938F930E94D17B0F900F900B
S214002B700F900F900F900F90CE018C539E4FAC018C
S214002B806BE080E0D5D847EF52E060E081E0D0D837
S214002B9047E053E060E082E0CBD81C868091B80A1C
S214002BA09091B90A88279470892B39F48BA18823D1
S214002BB021F48CA1882309F4A0C08985882309F410
S214002BC09CC08F85882309F498C08889882309F4D7
S214002BD094C08D89882309F490C06AE08AE00E9438
S214002BE0DA49909107028981692F0E941C7B892F00
S214002BF08F5F898346EE52E060E080E099D8898155
S214002C00882F90E0292F2F938F938EE792E0892FBD
S214002C108F938EE792E08F93CE018C539E4F292F91
S214002C202F938F930E94D17B0F900F900F900F9051
S214002C300F900F90CE018C539E4FAC016BE080E05E
S214002C4077D847EF52E060E081E072D847E053E083
S214002C5060E082E06DD8198688E290E028E230E0F5
S214002C60F90120812F73FC0120831B861E861E8A95
S214002C708981282F30E04BE3429FC001439F900D8F
S214002C8011248152944FFC018081282F30E040E5CA
S214002C90429FC001439F900D11248A5B924FFC0116
S214002CA080818F8F19A21AA21BA21CA28F8D84303E
S214002CB099F48981282F30E04BE3429FC001439F5F
S214002CC0900D11248052944FFC018081882321F0BE
S214002CD081E089A381E089878981282F30E04BE352
S214002CE0429FC001439F900D11248B51944FFC01CD
S214002CF08081882311F081E08CA38091B80A90919E
S214002D00B90A88279470892B89F08B81882371F4FF
S214002D108F85882359F08D89882341F06AE08AE000
S214002D200E94DA4981E08B831E861E8A8985882365
S214002D3009F0F8C18B81882309F4F4C10E943E365D
S214002D409091B60A8091B70A981709F049C089A1F0
S214002D50882309F045C01B828A818F5F8A83109280
S214002D60BE0A1092BF0A8A81882F90E082309105B1
S214002D7081F083309105B9F0019709F034C088E2FC
S214002D8090E028E230E0F90120812064FC012083F5
S214002D9026C088E290E028E230E0F9012081206831
S214002DA0FC0120831CC088E290E028E230E0F901B4
S214002DB020812F73FC0120831092B60A1092B70A66
S214002DC01092BE0A1092BF0A1A8281E08B8381E0BD
S214002DD0898789810E943C4C84E08F8F000003C065
S214002DE081E089871A828981282F30E04BE3429F51
S214002DF0C001439F900D11248152944FFC018081A5
S214002E00282F30E08091B60A482F50E08091B70A0C
S214002E10882F90E0840F951F820F931F88972CF1C0
S214002E208981482F50E08981282F30E06BE3629F2C
S214002E30C001639F900D11248352944FFC01808142
S214002E4091819C0128533F4F6BE3649FC001659FAF
S214002E50900D11248352944FFC013183208380917E
S214002E6007026BEA7BE00E94FC468981282F30E04F
S214002E704BE3429FC001439F900D11248152944F13
S214002E80FC01808188ABC2C098A98DEC989F812DEB
S214002E90112482958695877028E2829F802D1124C2
S214002EA0F92FF81B8F2F69810E942D429E012C5A04
S214002EB03F4F80E090E0A8ECB2E4F9018083918374
S214002EC0A283B3838E0102571F4FCE018C5A9F4FA9
S214002ED020E030E04AE755E4FC01608171818281A0
S214002EE093810E94B97ADC01CB01F801808391833B
S214002EF0A283B383CE0182579F4F20E030E040E8A4
S214002F005FE3FC0160817181828193810E946B790D
S214002F1088230CF462C0CE0182579F4F20E03FEF1B
S214002F204FE757E4FC0160817181828193810E94A2
S214002F30B57A18160CF03EC0CE018C5A9F4F20E092
S214002F4030E040E251E4FC0160817181828193812E
S214002F500E94B97ADC01CB018E010E561F4FBC01D0
S214002F60CD010E94D779DC01CB01F80191838083E3
S214002F7018C080E991E00197F1F79E012C563F4F6B
S214002F80F90191838083CE018E569F4F9E012E5667
S214002F903F4FF9012081318121503109FC013183F5
S214002FA02083CE018E569F4FFC0180819181892B14
S214002FB001F729C08E010E561F4FCE0182579F4F34
S214002FC0FC0160817181828193810E94D779DC0146
S214002FD0CB01F8019183808308C0CE018E569F4FA7
S214002FE021E030E0FC0131832083CE018E569F4FD6
S214002FF0FC01808191810197F1F79E012A563F4F8F
S214003000F9019183808388A98F5F88AB88A9282FD0
S21400301030E08981482F50E06BE3649FC001659FD4
S214003020900D11248152944FFC018081482F50E06E
S2140030308091B60A682F70E08091B70A882F90E0DA
S214003040860F971F840F951F281739070CF41CCF7F
S2140030508981282F30E08981482F50E06BE3649FF8
S214003060C001659F900D11248152944FFC01808110
S214003070482F50E08091B60A682F70E08091B70A1A
S214003080882F90E0860F971F840F951F48E250E028
S214003090BA010E94287B582F4BE3429FC001439FF2
S2140030A0900D11248152944FFC0150838981282F62
S2140030B030E04BE3429FC001439F900D11248152A4
S2140030C0944FFC01808169810E942D428981282FBE
S2140030D030E04BE3429FC001439F900D1124815284
S2140030E0944FFC018081282F30E040E5429FC001CC
S2140030F0439F900D11248A5B924FFC0180818F8F35
S2140031008981282F30E04BE3429FC001439F900DFA
S21400311011248152944FFC0180818C831092BE0A48
S2140031201092BF0A809107026BEA7BE00E94FC4681
S2140031308091B80A9091B90A88279071892B21F05E
S2140031401B8685E0809304028F8D882F90E0092EE1
S214003150000CAA0BBB0B40E050E027E030E0841BDD
S214003160950B2817390710F40C94B432FC01882705
S214003170E658FF4F8F4F0C943B7B8C81873031F0A5
S2140031808C81863119F08C81843211F41F8A02C03A
S21400319081E08F8B8E89882311F00C9477241D8A0A
S2140031A08091B80A9091B90A88279074892B19F4EF
S2140031B08B89882379F404E919E12C894B89698184
S2140031C08F890E947F648E8B8E89882319F48B8961
S2140031D08E5F8B8B8981882F90E00197885F9D4F4B
S2140031E0FC018081282F30E08091B80A9091B90ABE
S2140031F082239323892B11F40C94772481E08C8B03
S21400320004E919E12C894B8969818F890E947F64C2
S2140032108E8B8981282F30E04BE3429FC001439F6D
S214003220900D11248152944FFC018081282F30E0AC
S21400323040E5429FC001439F900D11248A5B924F48
S214003240FC0180818F8F8981282F30E04BE3429FDD
S214003250C001439F900D11248152944FFC01808140
S2140032608C831C8A1B8A81E08D8B81E08C870C9472
S21400327077248C81282F30E040E5429FC001439F91
S214003280900D1124895A924FFC018081882321F5E4
S214003290188A8E010D5B1F4F498164E17DE08C81A9
S2140032A00E94BD32F8018083CE018D5B9F4FFC01EA
S2140032B08081882F90E08130910519F0029721F0E7
S2140032C00BC081E0888B08C081E0888B81E08E8708
S2140032D083E08093040200008C81482F50E0CE01EA
S2140032E0835B9F4F60E5649F9001659F300D1124BE
S2140032F02F59324FF9012081FC0120838C81282F21
S21400330030E040E5429FC001439F900D1124895A4A
S214003310924FFC018081882311F40C947A248C81CE
S214003320282F30E040E5429FC001439F900D1124B6
S214003330895A924FFC0190818981981711F40C9458
S2140033407A248E85813011F40C947A24CE01835B26
S2140033509F4FFC018081882311F00C947A241F86ED
S2140033608B85882309F001C18C81282F30E040E549
S214003370429FC001439F900D1124895A924FFC0131
S21400338080818D878C81482F50E08C81282F30E0FB
S21400339060E5629FC001639F900D1124825A924F90
S2140033A0FC018081882F90E068E2649F9001659F11
S2140033B0300D1124820F931F880F991F875B924F41
S2140033C0FC0180819181998F888F8C81282F30E035
S2140033D040E5429FC001439F900D11248B5A924FA7
S2140033E0FC0120813181CE01875B9F4FFC01208349
S2140033F081E08A8F19AA25C08C81482F50E089A9C0
S214003400882F90E060E5649F9001659F300D112441
S214003410820F931F875A924FFC018081282F30E03D
S21400342040E5429FC001439F900D1124895A924F58
S214003430FC0190818D85981709F01A8E89A98F5FF7
S21400344089AB89A98330C0F28A8D8823A9F0CE0182
S214003450875B9F4FFC018081282F30E0888D998DF7
S2140034608217930748F4CE01875B9F4FFC0180814B
S214003470882F90E0998F888F46EE52E060E080E0DB
S2140034800E94980E8981882F90E0292F2F938F9382
S2140034908EE792E0892F8F938EE792E08F93CE018E
S2140034A08C539E4F292F2F938F930E94D17B0F9082
S2140034B00F900F900F900F900F90CE018C539E4F51
S2140034C0AC016BE080E00E94980E48E153E060E0BB
S2140034D081E00E94980E898D8F93888D8F938EE75A
S2140034E092E0892F8F938EE792E08F93CE018C53D4
S2140034F09E4F292F2F938F930E94D17B0F900F9072
S2140035000F900F900F900F90CE018C539E4FAC01F2
S2140035106AE081E00E94980E49E253E060E082E0B3
S2140035200E94980E8D85882F90E0292F2F938F93D9
S2140035308EE792E0892F8F938EE792E08F93CE01ED
S2140035408C539E4F292F2F938F930E94D17B0F90E1
S2140035500F900F900F900F900F90CE018C539E4FB0
S214003560AC016BE082E00E94980E8981882F90E083
S2140035700197885F9D4FFC018081282F30E0809165
S214003580B80A9091B90A82239323892B11F40C94DC
S2140035907A24888D998D21E0AC016D8589810E9401
S2140035A0D8688E878E85813011F00C947A241B861D
S2140035B081E08F8781E08C870C947A248E85813019
S2140035C011F40C947D241F868B85882309F068C02F
S2140035D08C81282F30E040E5429FC001439F900D2C
S2140035E01124895B924FFC0180819181998F888F8D
S2140035F046EE52E060E080E00E94980E8981882FB7
S21400360090E0292F2F938F938EE792E0892F8F9348
S2140036108EE792E08F93CE018C539E4F292F2F93E7
S2140036208F930E94D17B0F900F900F900F900F906A
S2140036300F90CE018C539E4FAC016BE080E00E9451
S214003640980E48E153E060E081E00E94980E898D74
S2140036508F93888D8F938EE792E0892F8F938EE7D6
S21400366092E08F93CE018C539E4F292F2F938F93EA
S2140036700E94D17B0F900F900F900F900F900F909D
S214003680CE018C539E4FAC016AE081E00E94980EFA
S2140036904AE353E060E082E00E94980E81E08B8768
S2140036A08981882F90E00197885F9D4FFC0180817B
S2140036B0282F30E08091B80A9091B90A822393238C
S2140036C0892B11F40C947D24888D998D2AE0AC0109
S2140036D060E089810E94D8688E878E85813011F0DF
S2140036E00C947D241B8681E08F8781E08C870C9468
S2140036F07D248C81282F30E040E5429FC001439F07
S214003700900D1124895A924FFC018081882321F55F
S214003710188A8E010D5B1F4F498164E17DE08C8124
S2140037200E94BD32F8018083CE018D5B9F4FFC0165
S2140037308081882F90E08130910519F0029721F062
S2140037400BC081E0888B08C081E0888B81E08E8783
S21400375083E08093040200008C81482F50E0CE0165
S214003760835B9F4F60E5649F9001659F300D112439
S2140037702F59324FF9012081FC0120838C81282F9C
S21400378030E040E5429FC001439F900D1124895AC6
S214003790924FFC018081882311F40C9480248C8144
S2140037A0282F30E040E5429FC001439F900D112432
S2140037B0895A924FFC0190818981981711F40C94D4
S2140037C080248E85813011F40C948024CE01835B96
S2140037D09F4FFC018081882311F00C9480241F8663
S2140037E08B85882309F0CCC08C81282F30E040E5FB
S2140037F0429FC001439F900D1124895A924FFC01AD
S21400380080818D87198A85E08AAB22C08AA9282FF5
S21400381030E040E5429FC001439F900D1124895A35
S214003820924FFC0140818C81282F30E050E5529F5A
S214003830C001539F900D1124895A924FFC0180813C
S214003840481719F489898F5F898B8AA9865F8AABA6
S2140038508AA98432D8F289898150898B8C81482F35
S21400386050E08989882F90E068E2649F9001659F08
S214003870300D1124820F931F880F991F875B924F7C
S214003880FC0180819181998F888F46EE52E060E03E
S21400389080E00E94980E8981882F90E0292F2F9330
S2140038A08F938EE792E0892F8F938EE792E08F9327
S2140038B0CE018C539E4F292F2F938F930E94D17B3E
S2140038C00F900F900F900F900F900F90CE018C538B
S2140038D09E4FAC016BE080E00E94980E48E153E0FA
S2140038E060E081E00E94980E898D8F93888D8F937B
S2140038F08EE792E0892F8F938EE792E08F93CE012A
S2140039008C539E4F292F2F938F930E94D17B0F901D
S2140039100F900F900F900F900F90CE018C539E4FEC
S214003920AC016AE081E00E94980E49E253E060E054
S21400393082E00E94980E8D85882F90E0292F2F9385
S2140039408F938EE792E0892F8F938EE792E08F9386
S214003950CE018C539E4F292F2F938F930E94D17B9D
S2140039600F900F900F900F900F900F90CE018C53EA
S2140039709E4FAC016BE082E00E94980E81E08B8740
S2140039808981882F90E00197885F9D4FFC01808198
S214003990282F30E08091B80A9091B90A82239323A9
S2140039A0892B09F4ADC7888D998D25E0AC016D850E
S2140039B089810E94D8688E878E85813009F0A0C7DD
S2140039C01B8681E08F8781E08C879AC789A1882330
S2140039D009F499C78981282F30E04BE3429FC00144
S2140039E0439F900D11248052944FFC0180818823C0
S2140039F009F415C18AA1882309F011C146EE52E0E8
S214003A0060E080E00E94980E8981882F90E0292F40
S214003A102F938F938EE792E0892F8F938EE792E015
S214003A208F93CE018C539E4F292F2F938F930E94F6
S214003A30D17B0F900F900F900F900F900F90CE01AC
S214003A408C539E4FAC016BE080E00E94980E4BE4D6
S214003A5053E060E081E00E94980E4CE553E060E0A1
S214003A6082E00E94980E81E08AA39E01285A3F4F6A
S214003A7080E090E4ACE9B5E4F90180839183A28309
S214003A80B3838E0108561F4FCE01885A9F4F20E001
S214003A9030E04AE755E4FC016081718182819381C0
S214003AA00E94B97ADC01CB01F80180839183A2835E
S214003AB0B383CE0188569F4F20E030E040E85FE3B6
S214003AC0FC0160817181828193810E946B798823D9
S214003AD00CF462C0CE0188569F4F20E03FEF4FE7C0
S214003AE057E4FC0160817181828193810E94B57ADE
S214003AF018160CF03EC0CE01885A9F4F20E030E0EA
S214003B0040E251E4FC0160817181828193810E94D0
S214003B10B97ADC01CB018E0104561F4FBC01CD01E2
S214003B200E94D779DC01CB01F8019183808318C00D
S214003B3080E991E00197F1F79E0122563F4FF90187
S214003B4091838083CE0184569F4F9E0124563F4F1B
S214003B50F9012081318121503109FC013183208314
S214003B60CE0184569F4FFC0180819181892B01F7FD
S214003B7029C08E0104561F4FCE0188569F4FFC0168
S214003B8060817181828193810E94D779DC01CB01AB
S214003B90F8019183808308C0CE0184569F4F21E0B0
S214003BA030E0FC0131832083CE0184569F4FFC0118
S214003BB0808191810197F1F79E0120563F4FF901D0
S214003BC0918380838981282F30E04BE3429FC00198
S214003BD0439F900D11248E51944FFC0180818823C1
S214003BE079F0109205024DE653E060E081E00E9415
S214003BF0980E4EE753E060E082E00E94980E0FC0F9
S214003C0081E0809305024FE853E060E081E00E9487
S214003C10980E40EA53E060E082E00E94980E8091A1
S214003C200502882F90E08130910509F45BC0823050
S214003C3091051CF4892B49F001C48230910509F4E2
S214003C4078C0039709F404C2F9C38E81882381F0F3
S214003C5041EB53E060E081E00E94980E40EA53E0BA
S214003C6060E082E00E94980E81E080930502E1C346
S214003C708D81882309F4DDC38981282F30E04BE34A
S214003C80429FC001439F900D11248052944FFC0127
S214003C9010828981282F30E04BE3429FC001439F6A
S214003CA0900D11248E51944FFC0110828981282F8B
S214003CB030E04BE3429FC001439F900D11248F518B
S214003CC0944FFC011082198619A247EF52E060E07B
S214003CD081E00E94980E42EC53E060E082E00E9491
S214003CE0980EA7C38E81882381F082E08093050218
S214003CF043ED53E060E081E00E94980E44EE53E00E
S214003D0060E082E00E94980E96C38D81882309F4B5
S214003D1092C347EF52E060E081E00E94980E42ECCA
S214003D2053E060E082E00E94980E83E080930502F4
S214003D3082C38E81882371F18981282F30E04BE37E
S214003D40429FC001439F900D11248E51944FFC0159
S214003D508081882379F0109205024DE653E060E0FA
S214003D6081E00E94980E4EE753E060E082E00E94F9
S214003D70980E63C381E08093050241EB53E060E058
S214003D8081E00E94980E40EA53E060E082E00E94E4
S214003D90980E53C38D81882309F44FC321E042E374
S214003DA050E060E089810E94D8688E878E858130D9
S214003DB049F545EF53E060E081E00E94980E46E04A
S214003DC054E060E082E00E94980E8981282F30E05F
S214003DD04BE3429FC001439F900D11248052944FA5
S214003DE0FC0110828981282F30E04BE3429FC001FE
S214003DF0439F900D11248F51944FFC011082198619
S214003E0019A21BC38E85823009F017C345EF53E015
S214003E1060E081E00E94980E47E154E060E082E0B6
S214003E200E94980E9E01245A3F4F80E090E4ACE931
S214003E30B5E4F90180839183A283B3838E010E5586
S214003E401F4FCE01845A9F4F20E030E04AE755E4EA
S214003E50FC0160817181828193810E94B97ADC01C4
S214003E60CB01F80180839183A283B383CE018E5564
S214003E709F4F20E030E040E85FE3FC016081718105
S214003E80828193810E946B7988230CF462C0CE01F4
S214003E908E559F4F20E03FEF4FE757E4FC016081CF
S214003EA07181828193810E94B57A18160CF03EC00B
S214003EB0CE01845A9F4F20E030E040E251E4FC01FE
S214003EC060817181828193810E94B97ADC01CB0185
S214003ED08E010A551F4FBC01CD010E94D779DC0127
S214003EE0CB01F8019183808318C080E991E00197A7
S214003EF0F1F79E0128553F4FF90191838083CE014B
S214003F008A559F4F9E012A553F4FF90120813181E6
S214003F1021503109FC0131832083CE018A559F4F01
S214003F20FC0180819181892B01F729C08E010A55F9
S214003F301F4FCE018E559F4FFC016081718182819B
S214003F4093810E94D779DC01CB01F80191838083AD
S214003F5008C0CE018A559F4F21E030E0FC01318336
S214003F602083CE018A559F4FFC0180819181019765
S214003F70F1F79E0126553F4FF90191838083898191
S214003F80282F30E04BE3429FC001439F900D112441
S214003F908E51944FFC018081882379F0109205029F
S214003FA04DE653E060E081E00E94980E4EE753E055
S214003FB060E082E00E94980E0FC081E080930502C8
S214003FC04FE853E060E081E00E94980E40EA53E03C
S214003FD060E082E00E94980E8981282F30E04BE353
S214003FE0429FC001439F900D11248F51944FFC01B6
S214003FF08081882F90E0292F2F938F938EE792E071
S214004000892F8F938EE792E08F93CE018C539E4F2D
S214004010292F2F938F930E94D17B0F900F900F9094
S2140040200F900F900F90CE018C539E4FAC0160E026
S21400403081E00E94980E48E254E060E081E00E9431
S214004040980E49E354E060E082E00E94980EF5C1C5
S2140040501092BE0A1092BF0A0E943E369091B60A8F
S2140040608091B70A981709F0D5C04AE454E060E09A
S21400407081E00E94980E42EC53E060E082E00E94ED
S214004080980E19868981282F30E04BE3429FC001A5
S214004090439F900D11248F51944FFC01108289810B
S2140040A0282F30E04BE3429FC001439F900D112420
S2140040B08052944FFC0110829E01205A3F4F80E0B0
S2140040C090E4ACE9B5E4F90180839183A283B383DD
S2140040D08E0104551F4FCE01805A9F4F20E030E0DE
S2140040E04AE755E4FC0160817181828193810E94D8
S2140040F0B97ADC01CB01F80180839183A283B38374
S214004100CE0184559F4F20E030E040E85FE3FC019D
S21400411060817181828193810E946B7988230CF47F
S21400412062C0CE0184559F4F20E03FEF4FE757E433
S214004130FC0160817181828193810E94B57A181694
S2140041400CF03EC0CE01805A9F4F20E030E040E2A7
S21400415051E4FC0160817181828193810E94B97A69
S214004160DC01CB018E0100551F4FBC01CD010E9422
S214004170D779DC01CB01F8019183808318C080E9F0
S21400418091E00197F1F79E012E543F4FF90191837C
S2140041908083CE0180559F4F9E0120553F4FF901E9
S2140041A02081318121503109FC0131832083CE01E9
S2140041B080559F4FFC0180819181892B01F73EC17C
S2140041C08E0100551F4FCE0184559F4FFC01608124
S2140041D07181828193810E94D779DC01CB01F8013D
S2140041E09183808308C0CE0180559F4F21E030E048
S2140041F0FC0131832083CE0180559F4FFC018081D6
S21400420091810197F1F79E012C543F4FF90191835C
S214004210808314C14BE554E060E081E00E94980E74
S21400422042EC53E060E082E00E94980E1092BE0AD4
S2140042301092BF0A8981282F30E08981482F50E0EC
S2140042406BE3649FC001659F900D11248F51944FBE
S214004250FC01808141E0480F5BE3529FC001539F01
S214004260900D11248F51944FFC0140838981282F93
S21400427030E04BE3429FC001439F900D11248F51C5
S214004280944FFC018081833021F521E042E350E029
S21400429060E089810E94D8688E878981282F30E067
S2140042A04BE3429FC001439F900D11248F51944FC2
S2140042B0FC0110828981282F30E04BE3429FC00129
S2140042C0439F900D11248052944FFC011082198652
S2140042D0B5C081E08BA39E012C593F4F80E090E44F
S2140042E0ACE9B5E4F90180839183A283B3838E01A0
S2140042F00A541F4FCE018C599F4F20E030E04AE70A
S21400430055E4FC0160817181828193810E94B97AB3
S214004310DC01CB01F80180839183A283B383CE01B5
S2140043208A549F4F20E030E040E85FE3FC01608164
S2140043307181828193810E946B7988230CF462C01C
S214004340CE018A549F4F20E03FEF4FE757E4FC0131
S21400435060817181828193810E94B57A18160CF073
S2140043603EC0CE018C599F4F20E030E040E251E441
S214004370FC0160817181828193810E94B97ADC019F
S214004380CB018E0106541F4FBC01CD010E94D77988
S214004390DC01CB01F8019183808318C080E991E0AD
S2140043A00197F1F79E0124543F4FF90191838083D2
S2140043B0CE0186549F4F9E0126543F4FF90120811F
S2140043C0318121503109FC0131832083CE0186548E
S2140043D09F4FFC0180819181892B01F72FC08E01B0
S2140043E006541F4FCE018A549F4FFC016081718195
S2140043F0828193810E94D779DC01CB01F8019183F9
S214004400808308C0CE0186549F4F21E030E0FC0137
S21400441031832083CE0186549F4FFC018081918199
S2140044200197F1F79E0122543F4FF9019183808353
S21400443005C0000003C0000001C000008981882F6D
S21400444090E00197885F9D4FFC018081282F30E027
S2140044508091B80A9091B90A82239323892B21F080
S21400446081E08D831E824FC28981882F90E001975C
S214004470845F9D4FFC018081282F30E08091B80A30
S2140044809091B90A82239323892B21F01D8281E023
S2140044908E8339C21D821E8236C289810E943C4CA0
S2140044A084E08F8F8981282F30E04BE3429FC00144
S2140044B0439F900D11248052944F21E0FC012083ED
S2140044C081E08B8381E0898722C28C81282F30E0AF
S2140044D040E5429FC001439F900D1124895A924F98
S2140044E0FC018081882321F5188A8E010D5B1F4F01
S2140044F0498164E17DE08C810E94BD32F8018083B1
S214004500CE018D5B9F4FFC018081882F90E081302B
S214004510910519F0029721F00BC081E0888B08C046
S21400452081E0888B81E08E8783E080930402000020
S2140045308C81482F50E0CE01835B9F4F60E5649FDF
S2140045409001659F300D11242F59324FF9012081BB
S214004550FC0120838C81282F30E040E5429FC0017B
S214004560439F900D1124895A924FFC018081882325
S21400457009F4CCC18C81282F30E040E5429FC00171
S214004580439F900D1124895A924FFC019081898196
S214004590981709F4BBC18E85813009F4B7C1CE01E6
S2140045A0835B9F4FFC018081882309F0AFC11F8683
S2140045B08B85882309F070C190911711809117168A
S2140045C0981719F48AE08A8B02C084E08A8B46EE3C
S2140045D052E060E080E00E94980E8981882F90E08B
S2140045E0292F2F938F938EE792E0892F8F938EE754
S2140045F092E08F93CE018C539E4F292F2F938F934B
S2140046000E94D17B0F900F900F900F900F900F90FD
S214004610CE018C539E4FAC016BE080E00E94980E5A
S2140046204CE654E060E081E00E94980E4EE754E0CD
S21400463060E082E00E94980E8A89882F90E0292FF9
S2140046402F938F938EE792E0892F8F938EE792E0D9
S2140046508F93CE018C539E4F292F2F938F930E94BA
S214004660D17B0F900F900F900F900F900F90CE0170
S2140046708C539E4FAC016EE082E00E94980E62C0A2
S2140046808091A41A9091A51A9093D30C8093D20C83
S2140046901092A51A1092A41A89E091E0FC0180817C
S2140046A0882F90E0382F222786E091E0FC01808159
S2140046B0882F90E0822B932B9093A51A8093A41AB0
S2140046C08091D20C9091D30C9C01209530958091CE
S2140046D0A41A9091A51A822393239093B90A8093E3
S2140046E0B80A8091B80A9091B90A88279170892BE8
S2140046F089F08091BE0A882369F49091BF0A809160
S214004700BE0A492F682F81E00E945D4781E08093B2
S214004710BE0A18C08091B80A9091B90A882792708C
S214004720892B81F08091BF0A882361F49091BF0A9B
S2140047308091BE0A492F682F82E00E945D4781E083
S2140047408093BF0A8091BE0A882309F499CF80918E
S214004750BF0A882309F494CF8C81282F30E040E5E7
S214004760429FC001439F900D1124895A924FFC012D
S21400477080818D878091B60A282F30E08091B70A15
S214004780882F90E0A901480F591F8A89282F30E00A
S214004790429FC001439F900D529F900D1124998F08
S2140047A0888F46EE52E060E080E00E94980E898195
S2140047B0882F90E0292F2F938F938EE792E0892FF2
S2140047C08F938EE792E08F93CE018C539E4F292FC6
S2140047D02F938F930E94D17B0F900F900F900F9086
S2140047E00F900F90CE018C539E4FAC016BE080E093
S2140047F00E94980E48E153E060E081E00E94980E27
S214004800898D8F93888D8F938EE792E0892F8F9373
S2140048108EE792E08F93CE018C539E4F292F2F93D5
S2140048208F930E94D17B0F900F900F900F900F9058
S2140048300F90CE018C539E4FAC016AE081E00E943F
S214004840980E49E253E060E082E00E94980E8D8563
S214004850882F90E0292F2F938F938EE792E0892F51
S2140048608F938EE792E08F93CE018C539E4F292F25
S2140048702F938F930E94D17B0F900F900F900F90E5
S2140048800F900F90CE018C539E4FAC016BE082E0F0
S2140048900E94980E81E08B878981882F90E001978F
S2140048A0885F9D4FFC018081282F30E08091B80AF8
S2140048B09091B90A82239323892B41F1888D998D93
S2140048C021E0AC016D8589810E94D8688E878E852F
S2140048D08130E1F41B8681E08F8781E08C8710921F
S2140048E0BE0A1092BF0A12C000000C94B432000038
S2140048F00C94B43200000C94B43200000C94B43221
S21400490000000C94B43200000C94B43200000C94F6
S214004910B4328B85882309F050C00E946E0E4FE893
S21400492054E060E080E00E94980E8C81282F30E0F2
S21400493040E5429FC001439F900D11248C5E924F2C
S214004940AC0160E081E00E94980E40EA54E060E02E
S21400495082E00E94980E89E090E09E8F8D8F81E025
S2140049608B8781E08BAB24C08BA9882F90E02BA986
S214004970422F50E06BE3649F9001659F300D112439
S2140049802352344FF90120813181AE0146525E4FE9
S214004990880F991F840F951FFC013183208340E008
S2140049A06BA980E090E00E94AB448BA98F5F8BAB35
S2140049B0809107029BA98917B8F61CAA92C08CA9F9
S2140049C0882F90E0885F9D4FFC018081282F30E083
S2140049D08091B80A9091B90A82239323892B09F40F
S2140049E049C08CA9882F90E09E012C523E4F820F22
S2140049F0931FFC0180818823E9F58CA9882F90E01D
S214004A009C012F5F3F4F4BE3429FC001439F900D99
S214004A1011248352944FFC01208131818D8D9E8D0F
S214004A208217930738F58D8D9E8D01969E8F8D8FFC
S214004A3081E08DAB09C040E06DA980E090E00E9467
S214004A40AB448DA98F5F8DAB809107029DA9891716
S214004A5090F78CA921E0280F8D8D9E8D41E0622F66
S214004A600E94AB448CA921E0280FCE018C529E4FA9
S214004A70FC0125838CA9882F90E0845F9D4FFC0164
S214004A808081282F30E08091B80A9091B90A82235D
S214004A909323892B19F18CA9882F90E09E012C5224
S214004AA03E4F820F931FFC0180818823B9F48CA9A6
S214004AB0882F90E09E012C523E4F820F931F21E0DC
S214004AC0FC012083CE018C529E4FFC01848121E0A4
S214004AD0280FCE018C529E4FFC0124838CA98F5F39
S214004AE08CAB809107029CA9981708F468CFCE017A
S214004AF08C529E4FFC01948180910702981711F00A
S214004B000C94B732CE018C529E4FFC0185818823CF
S214004B1009F424C20E946E0E9E0120593F4F80E089
S214004B2090E0A0E2B1E4F90180839183A283B3838D
S214004B308E0106531F4FCE0180599F4F20E030E074
S214004B404AE755E4FC0160817181828193810E946D
S214004B50B97ADC01CB01F80180839183A283B38309
S214004B60CE0186539F4F20E030E040E85FE3FC0133
S214004B7060817181828193810E946B7988230CF415
S214004B8062C0CE0186539F4F20E03FEF4FE757E4C9
S214004B90FC0160817181828193810E94B57A18162A
S214004BA00CF03EC0CE0180599F4F20E030E040E23E
S214004BB051E4FC0160817181828193810E94B97AFF
S214004BC0DC01CB018E0102531F4FBC01CD010E94B8
S214004BD0D779DC01CB01F8019183808318C080E986
S214004BE091E00197F1F79E0120533F4FF901918321
S214004BF08083CE0182539F4F9E0122533F4FF9017F
S214004C002081318121503109FC0131832083CE017E
S214004C1082539F4FFC0180819181892B01F729C027
S214004C208E0102531F4FCE0186539F4FFC016081B9
S214004C307181828193810E94D779DC01CB01F801D2
S214004C409183808308C0CE0182539F4F21E030E0DD
S214004C50FC0131832083CE0182539F4FFC0180816B
S214004C6091810197F1F79E012E523F4FF9019183F2
S214004C70808341EB54E060E080E00E94980E46EEB0
S214004C8052E060E081E00E94980ECE018C529E4F6A
S214004C90FC018581882F90E0292F2F938F938EE734
S214004CA092E0892F8F938EE792E08F93CE018C53FC
S214004CB09E4F292F2F938F930E94D17B0F900F909A
S214004CC00F900F900F900F90CE018C539E4FAC011B
S214004CD06BE081E00E94980E9E0128593F4F80E0CD
S214004CE090E0AAE7B5E4F90180839183A283B383B9
S214004CF08E0100541F4FCE0188599F4F20E030E0B0
S214004D004AE755E4FC0160817181828193810E94AB
S214004D10B97ADC01CB01F80180839183A283B38347
S214004D20CE0180549F4F20E030E040E85FE3FC0176
S214004D3060817181828193810E946B7988230CF453
S214004D4062C0CE0180549F4F20E03FEF4FE757E40C
S214004D50FC0160817181828193810E94B57A181668
S214004D600CF03EC0CE0188599F4F20E030E040E274
S214004D7051E4FC0160817181828193810E94B97A3D
S214004D80DC01CB018E010C531F4FBC01CD010E94EC
S214004D90D779DC01CB01F8019183808318C080E9C4
S214004DA091E00197F1F79E012A533F4FF901918355
S214004DB08083CE018C539F4F9E012C533F4FF901A9
S214004DC02081318121503109FC0131832083CE01BD
S214004DD08C539F4FFC0180819181892B01F729C05C
S214004DE08E010C531F4FCE0180549F4FFC016081F3
S214004DF07181828193810E94D779DC01CB01F80111
S214004E009183808308C0CE018C539F4F21E030E011
S214004E10FC0131832083CE018C539F4FFC0180819F
S214004E2091810197F1F79E0128533F4FF901918335
S214004E30808381E08EAB1EC08EA9482F50E08EA9DD
S214004E40882F90E09E0126523E4F880F991F820FB2
S214004E50931FFC01208131816BE3649FC001659F35
S214004E60900D11248352944FFC01318320838EA928
S214004E708F5F8EAB809107029EA98917E8F6809116
S214004E8007026BEA7BE00E94FC46CE018C529E4FE6
S214004E90FC018581482F50E0CE018C529E4FFC01CC
S214004EA08581282F30E06BE3629FC001639F900DE1
S214004EB011248352944FFC01208131818D8D9E8D6B
S214004EC0281B390B6BE3649FC001659F900D11246E
S214004ED08352944FFC01318320838C81282F30E04D
S214004EE0CE018C529E4FFC01458150E5529FC00179
S214004EF0539F900D1124895A924FFC014083CE0196
S214004F008C529E4FFC0155818C81282F30E040E565
S214004F10429FC001439F900D1124815A924FFC017D
S214004F208081652F0E94B4411FAA0DC08FA9882FCB
S214004F3090E09E012C523E4F820F931FFC01108280
S214004F408FA98F5F8FAB8FA9863080F31B8681E099
S214004F508C8782E0809304020C94B7320E946E0E17
S214004F6042EC54E060E080E00E94980E42ED54E08F
S214004F7060E081E00E94980E9E0124593F4F80E039
S214004F8090E0AAE7B5E4F90180839183A283B38316
S214004F908E010C521F4FCE0184599F4F20E030E007
S214004FA04AE755E4FC0160817181828193810E9409
S214004FB0B97ADC01CB01F80180839183A283B383A5
S214004FC0CE018C529F4F20E030E040E85FE3FC01CA
S214004FD060817181828193810E946B7988230CF4B1
S214004FE062C0CE018C529F4F20E03FEF4FE757E460
S214004FF0FC0160817181828193810E94B57A1816C6
S2140050000CF03EC0CE0184599F4F20E030E040E2D5
S21400501051E4FC0160817181828193810E94B97A9A
S214005020DC01CB018E0108521F4FBC01CD010E944E
S214005030D779DC01CB01F8019183808318C080E921
S21400504091E00197F1F79E0126523F4FF9019183B7
S2140050508083CE0188529F4F9E0128523F4FF90110
S2140050602081318121503109FC0131832083CE011A
S21400507088529F4FFC0180819181892B01F729C0BE
S2140050808E0108521F4FCE018C529F4FFC0160814B
S2140050907181828193810E94D779DC01CB01F8016E
S2140050A09183808308C0CE0188529F4F21E030E074
S2140050B0FC0131832083CE0188529F4FFC01808102
S2140050C091810197F1F79E0124523F4FF901918398
S2140050D0808381E088AF1EC088AD482F50E088AD41
S2140050E0882F90E09E0126523E4F880F991F820F10
S2140050F0931FFC01208131816BE3649FC001659F93
S214005100900D11248352944FFC013183208388AD87
S2140051108F5F88AF8091070298AD8917E8F6809177
S21400512007026BEA7BE00E94FC4619AE0DC089AD13
S214005130882F90E09E012C523E4F820F931FFC0159
S214005140108289AD8F5F89AF89AD863080F31B866C
S21400515081E08C8782E0809304020C94B7328981C8
S2140051600E941E7581E08C8782E0809304020C9476
S214005170BB3280910602882F90E08130910541F085
S2140051808230910509F489C0892B09F443C0CEC04A
S2140051908B858823A1F443EE54E060E080E00E9413
S2140051A0980E44EF54E060E081E00E94980E45E0DF
S2140051B055E060E082E00E94980E81E08B87809147
S2140051C0B80A9091B90A88279074892B21F010921A
S2140051D006021B86A4C08091B80A9091B90A882757
S2140051E09071892B41F081E08093060284E08093E1
S2140051F004021B8694C08091B80A9091B90A882749
S2140052009470892B09F48BC082E08093040281E0BD
S2140052108C8785C08B858823A1F443EE54E060E03C
S21400522080E00E94980E46E155E060E081E00E9432
S214005230980E45E055E060E082E00E94980E81E01E
S2140052408B878091B80A9091B90A88279074892B29
S21400525029F082E0809306021B8664C08091B80A1B
S2140052609091B90A88279071892B41F081E080934C
S214005270060286E0809304021B8654C08091B80A1A
S2140052809091B90A88279470892B09F44BC082E064
S2140052908093040281E08C8745C08B858823A1F427
S2140052A043EE54E060E080E00E94980E47E255E04E
S2140052B060E081E00E94980E45E055E060E082E004
S2140052C00E94980E81E08B878091B80A9091B90A67
S2140052D088279074892B29F081E0809306021B862C
S2140052E024C08091B80A9091B90A88279071892BBA
S2140052F041F081E08093060287E0809304021B86DB
S21400530014C08091B80A9091B90A88279470892BA6
S21400531061F082E08093040281E08C8706C0000082
S2140053200C94BB3200000C94BB3200000C94BB32D1
S2140053308B85882309F06CC042EC53E060E080E087
S2140053400E94980E48E355E060E081E00E94980EC7
S21400535045E055E060E082E00E94980E81E08B8791
S2140053601AAE0DC08AAD882F90E09E012C513E4F9C
S214005370820F931FFC0110828AAD8F5F8AAF8AADC1
S2140053808C3180F31B8E1BAE21C08BAD282F30E0F6
S21400539040E5429FC001439F900D1124895A924FC9
S2140053A0FC0190818981981771F48B8D882F90E08D
S2140053B09E012C513E4F820F931F2BADFC01208384
S2140053C08B8D8F5F8B8F8BAD8F5F8BAF8BAD883266
S2140053D0E0F242EC53E060E080E00E94980E8C8D94
S2140053E0882F90E09E012C513E4F820F931FFC01A8
S2140053F08081282F30E040E5429FC001439F900DFA
S21400540011248C5E924FAC0160E080E00E94980E02
S2140054108091B80A9091B90A88279074892B51F127
S2140054208C8D882F90E001962B8D222F30E0B901CD
S2140054300E94287B8C8F42EC53E060E080E00E9464
S214005440980E8C8D882F90E09E012C513E4F820F37
S214005450931FFC018081282F30E040E5429FC00169
S214005460439F900D11248C5E924FAC0160E080E06B
S2140054700E94980E8091B80A9091B90A8827987071
S214005480892B09F4F5C081E08DA31CAE2DC08C8D50
S214005490882F90E09E012C513E4F820F931FFC01F7
S2140054A08081482F50E08CAD882F90E060E5649FA7
S2140054B09001659F300D1124820F931F875A924FDB
S2140054C0FC018081282F30E040E5429FC001439FC9
S2140054D0900D1124825A924FFC018081882309F096
S2140054E01DA28CAD8F5F8CAF8CAD833080F28C8D1F
S2140054F0882F90E09E012C513E4F820F931FFC0197
S2140055008081282F30E040E5429FC001439F900DE8
S21400551011248F59924FFC018081882309F083C1A2
S2140055208DA1882309F47FC18C8D882F90E09E0181
S2140055302C513E4F820F931FFC018081282F30E0B4
S21400554040E5429FC001439F900D1124895B924F16
S214005550FC018081918196958795998F888F888D9B
S214005560998D21E0AC01698180E00E94D8688E8721
S2140055708E85813009F057C18C8D882F90E09E0172
S2140055802C513E4F820F931FFC018081282F30E064
S21400559040E5429FC001439F900D11248F59924FC2
S2140055A021E0FC012083CE01855B9F4FFC01108229
S2140055B08C8D882F90E09E012C513E4F820F931FBA
S2140055C0FC018081482F50E0CE01855B9F4F60E54F
S2140055D0649F9001659F300D1124235A324FF901C4
S2140055E02081FC0120838C8D882F90E09E012C5119
S2140055F03E4F820F931FFC018081482F50E0CE0162
S214005600845B9F4F60E5649F9001659F300D112479
S214005610215A324FF9012081FC0120838C8D882F7E
S21400562090E09E012C513E4F820F931FFC0180811B
S214005630282F30E040E5429FC001439F900D112483
S2140056408A5B924FFC018081882349F4CE01855BFA
S2140056509F4F66E0FC0180810E94943FE4C0CE012B
S214005660845B9F4F65E0FC0180810E94B441DBC0F3
S2140056708091B80A9091B90A99230CF0D4C08C8D09
S214005680882F90E09E012C513E4F820F931FFC0105
S2140056908081282F30E040E5429FC001439F900D57
S2140056A011248F59924FFC018081882309F4BBC0D6
S2140056B08C8D882F90E09E012C513E4F820F931FB9
S2140056C0FC018081282F30E040E5429FC001439FC7
S2140056D0900D1124895B924FFC01808191819695F3
S2140056E08795CC01A0E0B0E0BC01CD010E94037A12
S2140056F0DC01CB012DEC3CEC4CE85FE3BC01CD01BA
S2140057000E94B97ADC01CB01BC01CD010E94D77999
S214005710DC01CB01998F888F888D998D21E0AC01B3
S21400572060E089810E94D8688E878E85813009F076
S2140057307AC08C8D882F90E09E012C513E4F820FB0
S214005740931FFC018081282F30E040E5429FC00176
S214005750439F900D11248F59924FFC011082CE0169
S214005760855B9F4FFC0110828C8D882F90E09E01F8
S2140057702C513E4F820F931FFC018081482F50E032
S214005780CE01855B9F4F60E5649F9001659F300D5D
S2140057901124235A324FF9012081FC0120838C8D7D
S2140057A0882F90E09E012C513E4F820F931FFC01E4
S2140057B08081482F50E0CE01845B9F4F60E5649F58
S2140057C09001659F300D1124215A324FF901208136
S2140057D0FC0120838C8D882F90E09E012C513E4F3B
S2140057E0820F931FFC018081282F30E040E5429F06
S2140057F0C001439F900D11248A5B924FFC0180816B
S214005800882349F4CE01855B9F4F60E0FC018081D0
S2140058100E94943F08C0CE01845B9F4F6981FC01C3
S21400582080810E94B4418091B80A9091B90A882775
S2140058309470892B09F49EC682E08093040281E06E
S2140058408C8798C688A1882F90E08230910509F44D
S21400585092C08330910534F4009761F0019709F403
S21400586078C07BC68330910509F4AEC0049709F46E
S214005870ABC573C68B858823A9F449E455E060E080
S21400588080E00E94980E4AE555E060E081E00E94C4
S214005890980E42EC53E060E082E00E94980E81E0B1
S2140058A08B871EA281E08DAF2DC08DAD882F90E036
S2140058B00197885F9D4FFC018081282F30E0809102
S2140058C0B80A9091B90A82239323892BC1F090914C
