:100000000C94DC0D0C94FC0D0C94FC0D0C94FC0D6C
:100010000C94FC0D0C94FC0D0C94FC0D0C94FC0D3C
:100020000C94FC0D0C94FC0D0C94FC0D0C94FC0D2C
:100030000C94FC0D0C94FC0D0C94FC0D0C94FC0D1C
:100040000C94FC0D0C94FC0D0C94FC0D0C94FC0D0C
:100050000C94FC0D0C94FC0D0C94FC0D0C94FC0DFC
:100060000C94FC0D0C94FC0D0C94FC0D0C94FC0DEC
:100070000C94FC0D0C94FC0D0C94FC0D0C94FC0DDC
:100080000C94FC0D0C94FC0D0C94FC0D0C94FC0DCC
:100090000C94FC0D0C94FC0D0C94FC0D0C94FC0DBC
:1000A0000C94FC0D0C94FC0D0C94FC0D0C94FC0DAC
:1000B0000C94FC0D0C94FC0D0C94FC0D0C94FC0D9C
:1000C0000C94FC0D0C94FC0D0C94FC0D0C94FC0D8C
:1000D0000C94FC0D0C94FC0D0C94FC0D0C94FC0D7C
:1000E0000C94FC0DEB11FA1280155C2484288E28E8
:1000F0006D29F72B0C199018B11A4724B91C20222E
:1001000038224C1BA364D164E0643E6555656C6580
:100110009265B865CF66F06AFD6F3B6CFD6F546DFC
:10012000B26EFE6FFE6FFE6F4F6C69206D616720CF
:1001300064696368202020206E696368742E202023
:1001400020202020202020204765686520696E73CC
:100150002020202020202020476566846E676E695D
:10016000730000000000000000000000000000001C
:10017000000000000000000000000000000000007F
:10018000000000000000000000000000000000006F
:10019000000000000000000000000000000000005F
:1001A000000000000000000000000000000000004F
:1001B000000000000000000000000000000000003F
:1001C000000000000000000000000000000000002F
:1001D000000000000000000000000000000000001F
:1001E000000000000000000000000000000000000F
:1001F000467265696B617274650000000000000062
:1002000000000000000000000000000000000000EE
:1002100000000000000000000000000000000000DE
:1002200000000000000000000000000000000000CE
:1002300000000000000000000000000000000000BE
:1002400000000000000000000000000000000000AE
:10025000000000000000000000000000000000009E
:10026000000000000000000000000000000000008E
:10027000000000000000000000000000000000007E
:10028000000000000000000000000000000000006E
:10029000000000000000000000000000000000005E
:1002A000000000000000000000000000000000004E
:1002B0000000000000000000529A636B6520766F1A
:1002C00072206269732020207A756D204E846368E5
:1002D0007374656E202020205765726B000000004B
:1002E000000000000000000000000000000000000E
:1002F00000000000000000000000000000000000FE
:1003000000000000000000000000000000000000ED
:1003100000000000000000000000000000000000DD
:1003200000000000000000000000000000000000CD
:1003300000000000000000000000000000000000BD
:1003400000000000000000000000000000000000AD
:10035000000000000000000000000000000000009D
:10036000000000000000000000000000000000008D
:10037000000000000000000000000000000000007D
:1003800044752068617374207A75207669656C65A0
:10039000416273656E7A656E202020202020202027
:1003A0005A61686C652035300000000000000000D4
:1003B000000000000000000000000000000000003D
:1003C000000000000000000000000000000000002D
:1003D000000000000000000000000000000000001D
:1003E000000000000000000000000000000000000D
:1003F00000000000000000000000000000000000FD
:1004000000000000000000000000000000000000EC
:1004100000000000000000000000000000000000DC
:1004200000000000000000000000000000000000CC
:1004300000000000000000000000000000000000BC
:100440000000000000000000529A636B6520766F88
:1004500072206269732020207A75722050726F6456
:10046000756B74696F6E2020506F6C796D65636871
:10047000616E696B65720000000000000000000002
:10048000000000000000000000000000000000006C
:10049000000000000000000000000000000000005C
:1004A000000000000000000000000000000000004C
:1004B000000000000000000000000000000000003C
:1004C000000000000000000000000000000000002C
:1004D000000000000000000000000000000000001C
:1004E000000000000000000000000000000000000C
:1004F00000000000000000000000000000000000FC
:1005000000000000000000000000000000000000EB
:100510005A6965686520766F7220626973202020B1
:100520007A7572206E8463687374656E2020202053
:1005300048616C74657374656C6C65000000000044
:1005400000000000000000000000000000000000AB
:10055000000000000000000000000000000000009B
:10056000000000000000000000000000000000008B
:10057000000000000000000000000000000000007B
:10058000000000000000000000000000000000006B
:10059000000000000000000000000000000000005B
:1005A000000000000000000000000000000000004B
:1005B000000000000000000000000000000000003B
:1005C000000000000000000000000000000000002B
:1005D00000000000000000005A6965686520766F21
:1005E00072206269732020207A7572206E8463689D
:1005F0007374656E2020202048616C746573746587
:100600006C6C6500000000000000000000000000AD
:1006100000000000000000000000000000000000DA
:1006200000000000000000000000000000000000CA
:1006300000000000000000000000000000000000BA
:1006400000000000000000000000000000000000AA
:10065000000000000000000000000000000000009A
:10066000000000000000000000000000000000008A
:10067000000000000000000000000000000000007A
:10068000000000000000000000000000000000006A
:10069000000000000000000000000000000000005A
:1006A0005A6965686520766F722062697320202020
:1006B0004772756E6461757362696C64756E6720EC
:1006C000456C656B74726F6E696B6572000000003B
:1006D000000000000000000000000000000000001A
:1006E000000000000000000000000000000000000A
:1006F00000000000000000000000000000000000FA
:1007000000000000000000000000000000000000E9
:1007100000000000000000000000000000000000D9
:1007200000000000000000000000000000000000C9
:1007300000000000000000000000000000000000B9
:1007400000000000000000000000000000000000A9
:100750000000000000000000000000000000000099
:1007600000000000000000005A6965686520766F8F
:1007700072206269732020204D6563686174726F16
:100780006E696B20202020204C61626F7200000097
:100790000000000000000000000000000000000059
:1007A0000000000000000000000000000000000049
:1007B0000000000000000000000000000000000039
:1007C0000000000000000000000000000000000029
:1007D0000000000000000000000000000000000019
:1007E0000000000000000000000000000000000009
:1007F00000000000000000000000000000000000F9
:1008000000000000000000000000000000000000E8
:1008100000000000000000000000000000000000D8
:1008200000000000000000000000000000000000C8
:10083000529A636B6520766F722061756620202066
:10084000537461727400000000000000000000009A
:100850000000000000000000000000000000000098
:100860000000000000000000000000000000000088
:100870000000000000000000000000000000000078
:100880000000000000000000000000000000000068
:100890000000000000000000000000000000000058
:1008A0000000000000000000000000000000000048
:1008B0000000000000000000000000000000000038
:1008C0000000000000000000000000000000000028
:1008D0000000000000000000000000000000000018
:1008E0000000000000000000000000000000000008
:1008F0000000000000000000486575746520496E26
:10090000666F726D69657274496872206575636897
:10091000209A6265722020205374756469656E6741
:10092000846E676520202020529A636B6520766F65
:100930007220626973202020546563686E696B754C
:100940006D0000000000000000000000000000003A
:100950000000000000000000000000000000000097
:100960000000000000000000000000000000000087
:100970000000000000000000000000000000000077
:100980000000000000000000000000000000000067
:100990000000000000000000000000000000000057
:1009A0000000000000000000000000000000000047
:1009B0000000000000000000000000000000000037
:1009C000457320697374206465722032352E2020AF
:1009D000447520657268846C747374202020202014
:1009E0006465696E656E204C6F686E2E20766F6E42
:1009F0003730000000000000000000000000000090
:100A000000000000000000000000000000000000E6
:100A100000000000000000000000000000000000D6
:100A200000000000000000000000000000000000C6
:100A300000000000000000000000000000000000B6
:100A400000000000000000000000000000000000A6
:100A50000000000000000000000000000000000096
:100A60000000000000000000000000000000000086
:100A70000000000000000000000000000000000076
:100A800000000000000000004573206973742064BA
:100A900065722032352E2020447520657268846C82
:100AA00074737420202020206465696E656E204C6C
:100AB0006F686E2E20766F6E3134300000000000BB
:100AC0000000000000000000000000000000000026
:100AD0000000000000000000000000000000000016
:100AE0000000000000000000000000000000000006
:100AF00000000000000000000000000000000000F6
:100B000000000000000000000000000000000000E5
:100B100000000000000000000000000000000000D5
:100B200000000000000000000000000000000000C5
:100B300000000000000000000000000000000000B5
:100B400000000000000000000000000000000000A5
:100B50004765686520332046656C646572202020F7
:100B60007A75729A636B00000000000000000000BC
:100B70000000000000000000000000000000000075
:100B80000000000000000000000000000000000065
:100B90000000000000000000000000000000000055
:100BA0000000000000000000000000000000000045
:100BB0000000000000000000000000000000000035
:100BC0000000000000000000000000000000000025
:100BD0000000000000000000000000000000000015
:100BE0000000000000000000000000000000000005
:100BF00000000000000000000000000000000000F5
:100C000000000000000000000000000000000000E4
:100C1000000000000000000044752072656E6F76D1
:100C200069657273742020206465696E65202048B0
:100C300084757365722020205A61686C6520669AFD
:100C400072206A65646573204861757320323520AF
:100C5000756E6420669A72206A6564657320486FB9
:100C600074656C203130300000000000000000008E
:100C70000000000000000000000000000000000074
:100C80000000000000000000000000000000000064
:100C90000000000000000000000000000000000054
:100CA0000000000000000000000000000000000044
:100CB0000000000000000000000000000000000034
:100CC0000000000000000000000000000000000024
:100CD0000000000000000000000000000000000014
:100CE00044752077757264657374207A756D202061
:100CF0004B6C617373656E76657274726574657240
:100D000047657784686C742E205A61686C65202072
:100D10006A6564656D20537069656C657220353055
:100D200000000000000000000000000000000000C3
:100D300000000000000000000000000000000000B3
:100D400000000000000000000000000000000000A3
:100D50000000000000000000000000000000000093
:100D60000000000000000000000000000000000083
:100D70000000000000000000000000000000000073
:100D80000000000000000000000000000000000063
:100D90000000000000000000000000000000000053
:100DA000000000000000000044752068617374209A
:100DB00065696E652020202057657474652067651D
:100DC00067656E202020202050657465722076654E
:100DD000726C6F72656E2020647520736368756C29
:100DE000646573742069686D65696E656E204B611A
:100DF00066666565202020207A61686C6520350074
:100E000000000000000000000000000000000000E2
:100E100000000000000000000000000000000000D2
:100E200000000000000000000000000000000000C2
:100E300000000000000000000000000000000000B2
:100E400000000000000000000000000000000000A2
:100E50000000000000000000000000000000000092
:100E60000000000000000000000000000000000082
:100E700044752068617374206265692020202020F9
:100E800065696E656D204B756E64656E202020204F
:100E900065696E65207363686C656368746520209E
:100EA000426577657274756E6720202020202020AF
:100EB00068696E7465726C617373656E20202020A2
:100EC0006765686520696E2064656E20202020209B
:100ED000576F726B73686F700000000000000000B5
:100EE0000000000000000000000000000000000002
:100EF00000000000000000000000000000000000F2
:100F000000000000000000000000000000000000E1
:100F100000000000000000000000000000000000D1
:100F200000000000000000000000000000000000C1
:100F30000000000000000000467265696B61727479
:100F4000650000000000000000000000000000003C
:100F50000000000000000000000000000000000091
:100F60000000000000000000000000000000000081
:100F70000000000000000000000000000000000071
:100F80000000000000000000000000000000000061
:100F90000000000000000000000000000000000051
:100FA0000000000000000000000000000000000041
:100FB0000000000000000000000000000000000031
:100FC0000000000000000000000000000000000021
:100FD0000000000000000000000000000000000011
:100FE0000000000000000000000000000000000001
:100FF00000000000000000000000000000000000F1
:1010000044752072656E6F76696572737420202056
:101010006465696E652020488475736572202020A0
:101020005A61686C6520669A72206A6564657320EF
:101030004861757320343020756E6420669A722082
:101040006A6564657320486F74656C2031313500C2
:101050000000000000000000000000000000000090
:101060000000000000000000000000000000000080
:101070000000000000000000000000000000000070
:101080000000000000000000000000000000000060
:101090000000000000000000000000000000000050
:1010A0000000000000000000000000000000000040
:1010B0000000000000000000000000000000000030
:1010C0000000000000000000496E206465722020CE
:1010D00020202020202020205665727365747A75A8
:1010E0006E672069737420206469722065696E20C0
:1010F00046728473657220207A657262726F6368CB
:10110000656E2E20202020205A61686C65203130C9
:10111000300000000000000000000000000000009F
:1011200000000000000000000000000000000000BF
:1011300000000000000000000000000000000000AF
:10114000000000000000000000000000000000009F
:10115000000000000000000000000000000000008F
:10116000000000000000000000000000000000007F
:10117000000000000000000000000000000000006F
:10118000000000000000000000000000000000005F
:1011900044752067946E6E737420646972202020F9
:1011A0006574776173206265696D2020202020209E
:1011B000536E61636B6175746F6D617420202020C4
:1011C0007A61686C65203530000000000000000086
:1011D000000000000000000000000000000000000F
:1011E00000000000000000000000000000000000FF
:1011F00000000000000000000000000000000000EF
:1012000000000000000000000000000000000000DE
:1012100000000000000000000000000000000000CE
:1012200000000000000000000000000000000000BE
:1012300000000000000000000000000000000000AE
:10124000000000000000000000000000000000009E
:101250000000000000000000496872206D616368B2
:10126000742065696E65200945786B757273696FC6
:101270006E202020202020207A61686C6520353087
:10128000000000000000000000000000000000005E
:10129000000000000000000000000000000000004E
:1012A000000000000000000000000000000000003E
:1012B000000000000000000000000000000000002E
:1012C000000000000000000000000000000000001E
:1012D000000000000000000000000000000000000E
:1012E00000000000000000000000000000000000FE
:1012F00000000000000000000000000000000000EE
:1013000000000000000000000000000000000000DD
:1013100000000000000000000000000000000000CD
:101320004475206861737420646965202020202042
:1013300041627363686C75737372656973652020AD
:101340006F7267616E6973696572742C202020204A
:101350006A6564657220537069656C65722020202F
:101360007A61686C7420646972203130000000007A
:10137000000000000000000000000000000000006D
:10138000000000000000000000000000000000005D
:10139000000000000000000000000000000000004D
:1013A000000000000000000000000000000000003D
:1013B000000000000000000000000000000000002D
:1013C000000000000000000000000000000000001D
:1013D000000000000000000000000000000000000D
:1013E0000000000000000000456C656B74726F6EB9
:1013F000696B657220202020646573204D6F6E61DB
:101400007473202020202020447520657268846C2D
:1014100074737420313030000000000000000000C0
:1014200000000000000000000000000000000000BC
:1014300000000000000000000000000000000000AC
:10144000000000000000000000000000000000009C
:10145000000000000000000000000000000000008C
:10146000000000000000000000000000000000007C
:10147000000000000000000000000000000000006C
:10148000000000000000000000000000000000005C
:10149000000000000000000000000000000000004C
:1014A000000000000000000000000000000000003C
:1014B00044752068696C667374206465696E656D37
:1014C0004D6974736368FC6C6572206265696D2098
:1014D0006C65726E656E2E2020202020202020203A
:1014E000447520657268846C747374203130000018
:1014F00000000000000000000000000000000000EC
:1015000000000000000000000000000000000000DB
:1015100000000000000000000000000000000000CB
:1015200000000000000000000000000000000000BB
:1015300000000000000000000000000000000000AB
:10154000000000000000000000000000000000009B
:10155000000000000000000000000000000000008B
:10156000000000000000000000000000000000007B
:101570000000000000000000447520657268846C63
:1015800073742035300000000000000000000000EF
:10159000000000000000000000000000000000004B
:1015A000000000000000000000000000000000003B
:1015B000000000000000000000000000000000002B
:1015C000000000000000000000000000000000001B
:1015D000000000000000000000000000000000000B
:1015E00000000000000000000000000000000000FB
:1015F00000000000000000000000000000000000EB
:1016000000000000000000000000000000000000DA
:1016100000000000000000000000000000000000CA
:1016200000000000000000000000000000000000BA
:1016300000000000000000000000000000000000AA
:10164000447520657268846C7374203130300000FA
:10165000000000000000000000000000000000008A
:10166000000000000000000000000000000000007A
:10167000000000000000000000000000000000006A
:10168000000000000000000000000000000000005A
:10169000000000000000000000000000000000004A
:1016A000000000000000000000000000000000003A
:1016B000000000000000000000000000000000002A
:1016C000000000000000000000000000000000001A
:1016D000000000000000000000000000000000000A
:1016E00000000000000000000000000000000000FA
:1016F00000000000000000000000000000000000EA
:101700000000000000000000447520657268846CD1
:10171000737420323500000000000000000000005B
:1017200000000000000000000000000000000000B9
:1017300000000000000000000000000000000000A9
:101740000000000000000000000000000000000099
:101750000000000000000000000000000000000089
:101760000000000000000000000000000000000079
:101770000000000000000000000000000000000069
:101780000000000000000000000000000000000059
:101790000000000000000000000000000000000049
:1017A0000000000000000000000000000000000039
:1017B0000000000000000000000000000000000029
:1017C0000000000000000000000000000000000019
:1017D000447520657268846C737420323000000098
:1017E00000000000000000000000000000000000F9
:1017F00000000000000000000000000000000000E9
:1018000000000000000000000000000000000000D8
:1018100000000000000000000000000000000000C8
:1018200000000000000000000000000000000000B8
:1018300000000000000000000000000000000000A8
:101840000000000000000000000000000000000098
:101850000000000000000000000000000000000088
:101860000000000000000000000000000000000078
:101870000000000000000000000000000000000068
:101880000000000000000000000000000000000058
:101890000000000000000000447520657268846C40
:1018A00073742031303000000000000000000000A0
:1018B0000000000000000000000000000000000028
:1018C0000000000000000000000000000000000018
:1018D0000000000000000000000000000000000008
:1018E00000000000000000000000000000000000F8
:1018F00000000000000000000000000000000000E8
:1019000000000000000000000000000000000000D7
:1019100000000000000000000000000000000000C7
:1019200000000000000000000000000000000000B7
:1019300000000000000000000000000000000000A7
:101940000000000000000000000000000000000097
:101950000000000000000000000000000000000087
:10196000447520657268846C7374203130300000D7
:101970000000000000000000000000000000000067
:101980000000000000000000000000000000000057
:101990000000000000000000000000000000000047
:1019A0000000000000000000000000000000000037
:1019B0000000000000000000000000000000000027
:1019C0000000000000000000000000000000000017
:1019D0000000000000000000000000000000000007
:1019E00000000000000000000000000000000000F7
:1019F00000000000000000000000000000000000E7
:101A000000000000000000000000000000000000D6
:101A100000000000000000000000000000000000C6
:101A2000000000000000000044752062697374200B
:101A3000202020202020202057656C746D6569735C
:101A40007465722E2020202052FC636B6520766F17
:101A500072206269732020205374617274207A6945
:101A60006568652064656E20646F7070656C746570
:101A70006E2020202020202042657472616720653E
:101A8000696E00000000000000000000000000007F
:101A90000000000000000000000000000000000046
:101AA0000000000000000000000000000000000036
:101AB0000000000000000000000000000000000026
:101AC0000000000000000000000000000000000016
:101AD0000000000000000000000000000000000006
:101AE00000000000000000000000000000000000F6
:101AF0004475206861737420676567656E202020D7
:101B00006469652048616E6479726567656C202040
:101B100076657273746F7373656E2E20202020209B
:101B2000529A636B6520766F722062697320202061
:101B300050726F64756B74696F6E202020202020B6
:101B4000456C656B74726F6E696B657200000000A6
:101B50000000000000000000000000000000000085
:101B60000000000000000000000000000000000075
:101B70000000000000000000000000000000000065
:101B80000000000000000000000000000000000055
:101B90000000000000000000000000000000000045
:101BA0000000000000000000000000000000000035
:101BB000000000000000000011241FBECFEFD1E2A2
:101BC000DEBFCDBF00E00CBF19E0A0E0B2E0E8ED61
:101BD000F3EF00E00BBF02C007900D92A03BB107EE
:101BE000D9F72AE1A0EBB9E001C01D92A13BB207F1
:101BF000E1F778D20C94EA790C94000098B19F7EBA
:101C000098B998B19B7F98B98BB998B1926098B9FF
:101C10008150833038F48FE291E10197F1F700C0F1
:101C2000000003C090EA9A95F1F788B18D7F88B9DA
:101C300008951F93CF93DF93CDB7DEB729970FB6E3
:101C4000F894DEBF0FBECDBF8FEF8AB987B988B1D8
:101C5000806288B92FEF80E792E021508040904069
:101C6000E1F700C0000088B18E7F88B989E0EDE11E
:101C7000F2E0DE01119601900D928A95E1F710E0F5
:101C80000AC0E1E0F0E0EC0FFD1FE10FF11D8081E3
:101C900090E0B4DF1F5F1930A0F38FE99FE0019758
:101CA000F1F700C0000029960FB6F894DEBF0FBE12
:101CB000CDBFDF91CF911F91089598B1906198B9F0
:101CC00098B19B7F98B98BB988B1826088B980EA56
:101CD0008A95F1F788B18D7F88B9089581E08EDF0C
:101CE0008FE99FE00197F1F700C00000089582E0BE
:101CF00085DF8FE39FE10197F1F700C000000895B1
:101D0000417070E0660F771F6270282F30E0220F5D
:101D1000331F220F331F2470842F862B822B886061
:101D20006DDF8FE99FE00197F1F700C00000089593
:101D30000F931F93CF938A01282F30E0285F3F4FE6
:101D4000862F90E1299F800D112458DFC0E002C04A
:101D5000B4DFCF5FF801EC0FF11D80818111F8CF66
:101D60008FE39FE10197F1F700C00000CF911F9131
:101D70000F91089588E442DF84E09FDF8EE09DDFCD
:101D800085E19BDF84E099DF84E097DF84E095DFE5
:101D900080E093DF80E091DF80E530DF80E08DDF61
:101DA00084E08BDF84E089DF84E087DF85E185DF05
:101DB0008EE083DF84E081DF80E07FCF089539DF2C
:101DC0008DDF95DFD7DF40E060E081E099CF0895B7
:101DD00088B18F7D88B98FE39CE90197F1F700C046
:101DE000000088B1806288B98FE39CE90197F1F720
:101DF00000C000001EDF72DF7ADF40E060E081E0BB
:101E00007FCF08958F929F92AF92BF92CF92DF9231
:101E1000EF92FF920F931F93CF93DF93CDB7DEB76F
:101E2000A2970FB6F894DEBF0FBECDBF6C0121E1C3
:101E3000CE010196DC01E22F1D92EA95E9F7FE0141
:101E40007296DF011D922A95E9F7F60101900020B4
:101E5000E9F731978F010C191D09E62EF12C570176
:101E6000AA0CBB1CAA0CBB1CAA0CBB1CAA0CBB1C3E
:101E7000B6016A0D7B1D40E150E00E94B276BFEFD3
:101E8000EB1AFB0AEE0CFF1CEE0CFF1CEE0CFF1C09
:101E9000EE0CFF1CE016F1065CF4B501605F7F4FAD
:101EA0006C0D7D1D40E150E0CE0142960E94B2765D
:101EB00015DFAE014F5F5F4F60E081E039DFAE01BB
:101EC0004E5E5F4F60E082E033DF005211090A1579
:101ED0001B0514F481E001C080E0A2960FB6F894CF
:101EE000DEBF0FBECDBFDF91CF911F910F91FF904D
:101EF000EF90DF90CF90BF90AF909F908F9008951C
:101F0000CF93DF931F921F92CDB7DEB79A83898359
:101F100089819A81CA969C018AE0E6E2F2E0D901C1
:101F200001900D928A95E1F789819A81CA962EE1F6
:101F300030E0FC0133AB22AB89819A81CA9628E25A
:101F4000FC0124AB89819A81CA96FC0115AA89817A
:101F50009A81CA96FC0116AA89819A81CA96FC01C7
:101F600017AA89819A81CA96FC0110AE89819A814B
:101F7000CA96FC0111AE89819A818C589F4F9C01B1
:101F80008AE0E0E3F2E0D90101900D928A95E1F751
:101F900089819A818C589F4F2EE130E0FC0133AB50
:101FA00022AB89819A818C589F4F28E2FC0124AB97
:101FB00089819A818C589F4FFC0115AA89819A8149
:101FC0008C589F4FFC0116AA89819A818C589F4F8B
:101FD000FC0117AA89819A818C589F4FFC0110AE91
:101FE00089819A818C589F4FFC0111AE89819A8119
:101FF00082559F4F9C018AE0EAE3F2E0D90101900B
:102000000D928A95E1F789819A8182559F4F25E04B
:102010003DE0FC0133AB22AB89819A8182559F4F11
:1020200028E2FC0124AB89819A8182559F4FFC01F3
:1020300015AA89819A8182559F4FFC0116AA898130
:102040009A8182559F4FFC0117AA89819A818255F6
:102050009F4FFC0110AE89819A8182559F4FFC01F0
:1020600011AE89819A8188519F4F9C018AE0E4E4F6
:10207000F2E0D90101900D928A95E1F789819A8168
:1020800088519F4F2CE531E1FC0133AB22AB8981B4
:102090009A8188519F4F28E2FC0124AB89819A8163
:1020A00088519F4FFC0115AA89819A8188519F4FC1
:1020B000FC0116AA89819A8188519F4FFC0117AAB9
:1020C00089819A8188519F4FFC0110AE89819A8144
:1020D00088519F4FFC0111AE00000F900F90DF91CF
:1020E000CF9108950F931F93CF93DF93CDB7DEB7B2
:1020F000D2500FB6F894DEBF0FBECDBF81E089830A
:102100001A8281E08B831C821D821E82CE018D5239
:102110009E4F26E0FC01322F11923A95E9F71F827B
:102120001886CE018F5B9F4FFC011082CE018E5B23
:102130009F4FFC0110821B861C861D861E8681E037
:102140008F8781E0888BCE018D5B9F4FFC011082D1
:10215000CE018C5B9F4FFC011082CE018B5B9F4FA9
:10216000FC011082CE018A5B9F4FFC011082198A0C
:102170001A8A1B8A1C8A81E08D8B1E8A1F8ACE01D7
:10218000895B9F4FFC011082198E188E1A8ECE012A
:10219000885B9F4FFC011082CE01875B9F4FFC0143
:1021A00010821B8E1C8ECE01865B9F4FFC0110821D
:1021B000CE01855B9F4FFC011082CE01845B9F4F57
:1021C000FC011082CE0187529E4F2AE0FC01322F83
:1021D00011923A95E9F71E8E1D8E83E08F8F18A21B
:1021E00019A21AA21BA2CE018D519E4F2CE1FC0117
:1021F000322F11923A95E9F71CA21DA2CE01835B02
:102200009F4FFC011082CE01825B9F4FFC01108228
:10221000CE0181509E4FFC0111821082CE01815B64
:102220009F4FFC0110821EA21FA218A619A60E9491
:10223000584DC5DD8BEC9CE00E94E54E87E69BE0A7
:102240005FDE8BE499E10E9412628BE89CE00E94C1
:10225000216A80E895E20E94D7730E941C3F0E9489
:10226000954B80E00E94AC4B0E94A0761AA62FC02E
:102270008AA5282F30E040E5429FC001439F900D82
:102280001124825F924FFC0180818823E9F08AA5A6
:10229000282F30E040E5429FC001439F900D11245C
:1022A000825F924FFC0150818AA5282F30E040E5E3
:1022B000429FC001439F900D11248A5E924FFC0102
:1022C0008081652F0E9474418AA58F5F8AA78AA5A5
:1022D000883270F2CE01805B9F4FFC011082CE01EC
:1022E0008F5A9F4FFC011082CE018E5A9F4FFC01E6
:1022F000108280915B1A90915C1A90938A0C809363
:10230000890C10925C1A10925B1A89E091E0FC0132
:102310008081882F90E0382F222786E091E0FC0111
:102320008081882F90E0822B932B90935C1A80936E
:102330005B1A8091890C90918A0C9C0120953095B4
:1023400080915B1A90915C1A822393239093750A73
:102350008093740A89E091E0FC018081882F90E0ED
:10236000382F222786E091E0FC018081882F90E0C1
:10237000822B932B89359105A1F487E290E02FEF12
:10238000FC01208388E290E02FE3FC0120838AE2B5
:1023900090E02FEFFC0120838BE290E0FC011082A3
:1023A00017DD80910402882F90E0092E000CAA0B03
:1023B000BB0B40E050E027E030E0841B950B281772
:1023C000390710F40C946E32FC018827EE58FF4F49
:1023D0008F4F0C942B7688858823B9F44EE452E015
:1023E00060E080E0A5DC4DE552E060E081E0A0DC4B
:1023F0004EE652E060E082E09BDC8091070267E6F7
:102400007BE00E94B94681E088878091740A9091B0
:10241000750A88279072892B91F180910702833089
:1024200070F180910702815080930702809107022A
:10243000882F90E0292F2F938F938DE792E0892F9B
:102440008F938DE792E08F93CE018D539E4F292F6E
:102450002F938F930E94C1760F900F900F900F9043
:102460000F900F90CE018D539E4FAC0163E081E041
:102470005FDC8091070267E67BE00E94B9468091AD
:10248000740A9091750A88279074892B91F1809134
:102490000702843070F5809107028F5F80930702F6
:1024A00080910702882F90E0292F2F938F938DE73B
:1024B00092E0892F8F938DE792E08F93CE018D5319
:1024C0009E4F292F2F938F930E94C1760F900F90CC
:1024D0000F900F900F900F90CE018D539E4FAC0137
:1024E00063E081E025DC8091070267E67BE00E94E3
:1024F000B9468091740A9091750A88279071892B4A
:1025000011F40C94713281E08BA72EC08BA5282F7B
:1025100030E04AE3429FC001439F900D112487564B
:10252000944FFC01118210828BA5282F30E04AE3E2
:10253000429FC001439F900D11248556944FFC018A
:1025400010828BA5282F30E04AE3429FC001439FB1
:10255000900D11248556944FFC0180816BA50E943B
:10256000ED418BA58F5F8BA7809107029BA58917F3
:1025700068F68091070267E67BE00E94B94640E872
:1025800052E060E080E0D4DB80910702882F90E089
:10259000292F2F938F938DE792E0892F8F938DE7CB
:1025A00092E08F93CE018D539E4F292F2F938F93BF
:1025B0000E94C1760F900F900F900F900F900F9088
:1025C000CE018D539E4FAC0164E080E0B1DB41E968
:1025D00052E060E081E0ACDB42EA52E060E082E0A1
:1025E000A7DB809107020E94AD4D81E08093040239
:1025F0000C94713281E08CA709C04AE06CA58CED87
:1026000095E00E946B448CA58F5F8CA78091070298
:102610009CA5891790F781E08DA766C143EB52E036
:1026200060E080E085DB8DA5882F90E0292F2F9337
:102630008F938DE792E0892F8F938DE792E08F93B0
:10264000CE018D539E4F292F2F938F930E94C176D9
:102650000F900F900F900F900F900F90CE018D5311
:102660009E4FAC016BE080E063DB44EC52E060E045
:1026700081E05EDB44ED52E060E082E059DB74C053
:1026800080915B1A90915C1A90938A0C8093890CCC
:1026900010925C1A10925B1A89E091E0FC01808133
:1026A000882F90E0382F222786E091E0FC0180817E
:1026B000882F90E0822B932B90935C1A80935B1A67
:1026C0008091890C90918A0C9C0120953095809185
:1026D0005B1A90915C1A822393239093750A8093DE
:1026E000740A8091740A9091750A88279170892BD9
:1026F00089F080917A0A882369F490917B0A80910D
:102700007A0A492F682F81E00E941A4781E080935E
:102710007A0A18C08091740A9091750A882792707D
:10272000892B81F080917B0A882361F490917B0A48
:1027300080917A0A492F682F82E00E941A4781E02F
:1027400080937B0A80917A0A882329F08A858823DE
:1027500011F482E08A8780917B0A882329F08A8598
:10276000882311F481E08A8780917A0A882309F40A
:1027700087CF80917B0A882309F482CF8DA5282FEB
:1027800030E08091720A482F50E08091730A882FC0
:1027900090E0840F951FAC016AE3629FC001639FC4
:1027A000900D11248756944FFC01518340838DA5D1
:1027B000282F30E04AE3429FC001439F900D11242F
:1027C0008756944FFC01208131818F81482F50E042
:1027D0006AE3649FC001659F900D11248756944F52
:1027E000FC01808191812817390709F04FC08A8543
:1027F000882F90E001978E58954FFC0180818230A0
:1028000098F08A85882F90E001972A85222F30E062
:10281000215031092E58354FF901208121508E5811
:10282000954FFC01208312C08A85882F90E0019784
:102830002A85222F30E0215031092E58354FF901D9
:1028400020812F5F8E58954FFC0120838DA5282F66
:1028500030E08091720A482F50E08091730A882FEF
:1028600090E0840F951FAC016AE3629FC001639FF3
:10287000900D11248756944FFC0151834083909111
:10288000730A8091720A692F0E9497498DA5282F9B
:1028900030E04AE3429FC001439F900D11248756C8
:1028A000944FFC01208131818F81482F50E06AE3F1
:1028B000649FC001659F900D11248756944FFC01C1
:1028C000808191818217930710F48DA58F831092D8
:1028D0007A0A10927B0A1A8667E67BE08DA50E9431
:1028E000B9468DA58F5F8DA7809107029DA5891799
:1028F00008F094CE8F8189839E0121583F4F80E05C
:1029000090E0AAE7B4E4F90180839183A283B383C2
:102910008E010D571F4FCE0181589F4F20E030E0B0
:102920004AE755E4FC0160817181828193810E94B4
:10293000A975DC01CB01F80180839183A283B38365
:10294000CE018D579F4F20E030E040E85FE3FC016F
:1029500060817181828193810E945B7488230CF471
:1029600062C0CE018D579F4F20E03FEF4FE757E405
:10297000FC0160817181828193810E94A575181686
:102980000CF03EC0CE0181589F4F20E030E040E285
:1029900051E4FC0160817181828193810E94A9755B
:1029A000DC01CB018E0109571F4FBC01CD010E94F4
:1029B000C774DC01CB01F8019183808318C080E9E2
:1029C00091E00197F1F79E0127573F4FF90191835D
:1029D0008083CE0189579F4F9E0129573F4FF901B0
:1029E0002081318121503109FC0131832083CE01C6
:1029F00089579F4FFC0180819181892B01F729C064
:102A00008E0109571F4FCE018D579F4FFC016081EA
:102A10007181828193810E94C774DC01CB01F8012E
:102A20009183808308C0CE0189579F4F21E030E019
:102A3000FC0131832083CE0189579F4FFC018081A7
:102A400091810197F1F79E0125573F4FF90191833D
:102A5000808381E08EA713C08EA5282F30E04AE343
:102A6000429FC001439F900D11248756944F2CED37
:102A700035E0FC01318320838EA58F5F8EA7809186
:102A800007029EA5891740F78091070267E67BE061
:102A90000E94B94645EE52E060E080E049D9898164
:102AA000882F90E0292F2F938F938DE792E0892F25
:102AB0008F938DE792E08F93CE018D539E4F292FF8
:102AC0002F938F930E94C1760F900F900F900F90CD
:102AD0000F900F90CE018D539E4FAC016BE080E0C4
:102AE00027D946EF52E060E081E022D946E053E08A
:102AF00060E082E01DD982E0809304020C947B3276
:102B00008C85882399F1EAD845EE52E060E080E0B8
:102B10000FD98981882F90E0292F2F938F938DE7EC
:102B200092E0892F8F938DE792E08F93CE018D53A2
:102B30009E4F292F2F938F930E94C1760F900F9055
:102B40000F900F900F900F90CE018D539E4FAC01C0
:102B50006BE080E0EDD846EF52E060E081E0E8D83D
:102B600046E053E060E082E0E3D81C868091740A7E
:102B70009091750A88279470892B21F48BA1882362
:102B800009F48EC08985882309F48AC08F8588233B
:102B900009F486C08889882309F482C08D89882336
:102BA00009F47EC06AE08AE00E949749909107028A
:102BB0008981692F0E940C76892F8F5F898345EE6A
:102BC00052E060E080E0B4D88981882F90E0292F1E
:102BD0002F938F938DE792E0892F8F938DE792E06B
:102BE0008F93CE018D539E4F292F2F938F930E9449
:102BF000C1760F900F900F900F900F900F90CE0115
:102C00008D539E4FAC016BE080E092D846EF52E0CE
:102C100060E081E08DD846E053E060E082E088D853
:102C2000198688E290E028E230E0F90120812F73D4
:102C3000FC0120831B861E861E8A8981282F30E096
:102C40004AE3429FC001439F900D11248556944F43
:102C5000FC018081282F30E040E5429FC001439F66
:102C6000900D11248350934FFC0180818F8F19A206
:102C70001AA21BA28F8D843099F48981282F30E00D
:102C80004AE3429FC001439F900D11248456944F04
:102C9000FC018081882321F081E089A381E089877C
:102CA0008091740A9091750A88279470892B89F015
:102CB0008B81882371F48F85882359F08D8988232F
:102CC00041F06AE08AE00E94974981E08B831E868A
:102CD0001E8A8985882309F0F8C18B81882309F42D
:102CE000F4C10E94FE359091720A8091730A981780
:102CF00009F049C089A1882309F045C01B828A8157
:102D00008F5F8A8310927A0A10927B0A8A81882FB9
:102D100090E08230910581F083309105B9F0019700
:102D200009F034C088E290E028E230E0F901208127
:102D30002064FC01208326C088E290E028E230E095
:102D4000F90120812068FC0120831CC088E290E00A
:102D500028E230E0F90120812F73FC0120831092DA
:102D6000720A1092730A10927A0A10927B0A1A82DF
:102D700081E08B8381E0898789810E94F94B84E01F
:102D80008F8F000003C081E089871A828981282FF4
:102D900030E04AE3429FC001439F900D11248556C5
:102DA000944FFC018081282F30E08091720A482FD7
:102DB00050E08091730A882F90E0840F951F820F56
:102DC000931F88972CF18981482F50E08981282F03
:102DD00030E06AE3629FC001639F900D1124875623
:102DE000944FFC01808191819C0128533F4F6AE3FD
:102DF000649FC001659F900D11248756944FFC017C
:102E0000318320838091070267E67BE00E94B94608
:102E10008981282F30E04AE3429FC001439F900DF3
:102E200011248556944FFC0180818FA7C2C09FA5B5
:102E30008DEC989F812D112482958695877028E2CC
:102E4000829F802D1124F92FF81B8F2F69810E94FA
:102E5000ED419E012D5A3F4F80E090E0A8ECB2E496
:102E6000F90180839183A283B3838E0103571F4F9F
:102E7000CE018D5A9F4F20E030E04AE755E4FC0137
:102E800060817181828193810E94A975DC01CB01EF
:102E9000F80180839183A283B383CE0183579F4F30
:102EA00020E030E040E85FE3FC01608171818281D5
:102EB00093810E945B7488230CF462C0CE01835717
:102EC0009F4F20E03FEF4FE757E4FC0160817181A5
:102ED000828193810E94A57518160CF03EC0CE0128
:102EE0008D5A9F4F20E030E040E251E4FC016081C8
:102EF0007181828193810E94A975DC01CB018E01D1
:102F00000F561F4FBC01CD010E94C774DC01CB01DD
:102F1000F8019183808318C080E991E00197F1F76F
:102F20009E012D563F4FF90191838083CE018F562C
:102F30009F4F9E012F563F4FF90120813181215033
:102F40003109FC0131832083CE018F569F4FFC0154
:102F500080819181892B01F729C08E010F561F4F67
:102F6000CE0183579F4FFC016081718182819381E3
:102F70000E94C774DC01CB01F8019183808308C0F3
:102F8000CE018F569F4F21E030E0FC01318320833A
:102F9000CE018F569F4FFC01808191810197F1F7FF
:102FA0009E012B563F4FF901918380838FA58F5F40
:102FB0008FA78FA5282F30E08981482F50E06AE342
:102FC000649FC001659F900D11248556944FFC01AC
:102FD0008081482F50E08091720A682F70E08091C4
:102FE000730A882F90E0860F971F840F951F28176C
:102FF00039070CF41CCF8981282F30E08981482FB4
:1030000050E06AE3649FC001659F900D11248556CE
:10301000944FFC018081482F50E08091720A682F04
:1030200070E08091730A882F90E0860F971F840FBD
:10303000951F48E250E0BA010E941876582F4AE3E3
:10304000429FC001439F900D11248556944FFC016F
:1030500050838981282F30E04AE3429FC001439F7B
:10306000900D11248556944FFC01808169810E9446
:10307000ED418981282F30E04AE3429FC001439F00
:10308000900D11248556944FFC018081282F30E04B
:1030900040E5429FC001439F900D11248350934F00
:1030A000FC0180818F8F8981282F30E04AE3429F85
:1030B000C001439F900D11248556944FFC018081DF
:1030C0008C8310927A0A10927B0A8091070267E63D
:1030D0007BE00E94B9468091740A9091750A882716
:1030E0009071892B21F01B8685E0809304028F8DDF
:1030F000882F90E0092E000CAA0BBB0B40E050E09B
:1031000027E030E0841B950B2817390710F40C9446
:103110007432FC018827E658FF4F8F4F0C942B76B2
:103120008C81873031F08C81863119F08C8184322A
:1031300011F41F8A02C081E08F8B8E89882311F0E1
:103140000C944A241D8A8091740A9091750A8827EC
:103150009074892B19F48B89882379F40BE419E195
:103160002C894B8969818F890E943C648E8B8E8962
:10317000882319F48B898E5F8B8B8981882F90E04F
:103180000197885F9D4FFC018081282F30E080915E
:10319000740A9091750A82239323892B11F40C945D
:1031A0004A2481E08C8B0BE419E12C894B896981DD
:1031B0008F890E943C648E8B8981282F30E04AE3FE
:1031C000429FC001439F900D11248556944FFC01EE
:1031D0008081282F30E040E5429FC001439F900D41
:1031E00011248350934FFC0180818F8F8981282F78
:1031F00030E04AE3429FC001439F900D1124855661
:10320000944FFC0180818C831C8A1B8A81E08D8B0A
:1032100081E08C870C944A248C81282F30E040E593
:10322000429FC001439F900D1124825F924FFC0189
:103230008081882321F5188A8E010E5B1F4F4981FA
:103240006BEC7CE08C810E947D32F8018083CE01A2
:103250008E5B9F4FFC018081882F90E0813091052B
:1032600019F0029721F00BC081E0888B08C081E043
:10327000888B81E08E8783E08093040200008C813C
:10328000482F50E0CE01845B9F4F60E5649F900122
:10329000659F300D1124275E324FF9012081FC011A
:1032A00020838C81282F30E040E5429FC001439F5E
:1032B000900D1124825F924FFC018081882311F4CC
:1032C0000C944D248C81282F30E040E5429FC001B2
:1032D000439F900D1124825F924FFC019081898160
:1032E000981711F40C944D248E85813011F40C94B0
:1032F0004D24CE01845B9F4FFC018081882311F017
:103300000C944D241F868B85882309F001C18C8184
:10331000282F30E040E5429FC001439F900D1124CB
:10332000825F924FFC0180818D878C81482F50E015
:103330008C81282F30E060E5629FC001639F900D73
:1033400011248B5E924FFC018081882F90E068E20F
:10335000649F9001659F300D1124820F931F880F89
:10336000991F8050934FFC0180819181998F888FA4
:103370008C81282F30E040E5429FC001439F900D93
:103380001124845F924FFC0120813181CE01885B42
:103390009F4FFC01208381E08A8F18AA25C08C8171
:1033A000482F50E088A9882F90E060E5649F900145
:1033B000659F300D1124820F931F805F924FFC0197
:1033C0008081282F30E040E5429FC001439F900D4F
:1033D0001124825F924FFC0190818D85981709F02E
:1033E0001A8E88A98F5F88AB88A98330C0F28A8D36
:1033F0008823A9F0CE01885B9F4FFC018081282F94
:1034000030E0888D998D8217930748F4CE01885B50
:103410009F4FFC018081882F90E0998F888F45EE27
:1034200052E060E080E00E94980E8981882F90E051
:10343000292F2F938F938DE792E0892F8F938DE71C
:1034400092E08F93CE018D539E4F292F2F938F9310
:103450000E94C1760F900F900F900F900F900F90D9
:10346000CE018D539E4FAC016BE080E00E94980E20
:1034700047E153E060E081E00E94980E898D8F93D0
:10348000888D8F938DE792E0892F8F938DE792E05F
:103490008F93CE018D539E4F292F2F938F930E9490
:1034A000C1760F900F900F900F900F900F90CE015C
:1034B0008D539E4FAC016AE081E00E94980E48E275
:1034C00053E060E082E00E94980E8D85882F90E0A6
:1034D000292F2F938F938DE792E0892F8F938DE77C
:1034E00092E08F93CE018D539E4F292F2F938F9370
:1034F0000E94C1760F900F900F900F900F900F9039
:10350000CE018D539E4FAC016BE082E00E94980E7D
:103510008981882F90E00197885F9D4FFC01808111
:10352000282F30E08091740A9091750A82239323AA
:10353000892B11F40C944D24888D998D21E0AC01D8
:103540006D8589810E9495688E878E85813011F006
:103550000C944D241B8681E08F8781E08C870C942E
:103560004D248E85813011F40C9450241F868B8558
:10357000882309F068C08C81282F30E040E5429F05
:10358000C001439F900D11248250934FFC01808114
:103590009181998F888F45EE52E060E080E00E9433
:1035A000980E8981882F90E0292F2F938F938DE794
:1035B00092E0892F8F938DE792E08F93CE018D5308
:1035C0009E4F292F2F938F930E94C1760F900F90BB
:1035D0000F900F900F900F90CE018D539E4FAC0126
:1035E0006BE080E00E94980E47E153E060E081E0EC
:1035F0000E94980E898D8F93888D8F938DE792E02E
:10360000892F8F938DE792E08F93CE018D539E4F3C
:10361000292F2F938F930E94C1760F900F900F90B8
:103620000F900F900F90CE018D539E4FAC016AE02A
:1036300081E00E94980E49E353E060E082E00E943E
:10364000980E81E08B878981882F90E00197885FB1
:103650009D4FFC018081282F30E08091740A909169
:10366000750A82239323892B11F40C945024888D9E
:10367000998D2AE0AC0160E089810E9495688E876F
:103680008E85813011F00C9450241B8681E08F8749
:1036900081E08C870C9450248C81282F30E040E509
:1036A000429FC001439F900D1124825F924FFC0105
:1036B0008081882321F5188A8E010E5B1F4F498176
:1036C0006BEC7CE08C810E947D32F8018083CE011E
:1036D0008E5B9F4FFC018081882F90E081309105A7
:1036E00019F0029721F00BC081E0888B08C081E0BF
:1036F000888B81E08E8783E08093040200008C81B8
:10370000482F50E0CE01845B9F4F60E5649F90019D
:10371000659F300D1124275E324FF9012081FC0195
:1037200020838C81282F30E040E5429FC001439FD9
:10373000900D1124825F924FFC018081882311F447
:103740000C9453248C81282F30E040E5429FC00127
:10375000439F900D1124825F924FFC0190818981DB
:10376000981711F40C9453248E85813011F40C9425
:103770005324CE01845B9F4FFC018081882311F08C
:103780000C9453241F868B85882309F0CCC08C8130
:10379000282F30E040E5429FC001439F900D112447
:1037A000825F924FFC0180818D87198A85E089AB09
:1037B00022C089A9282F30E040E5429FC001439FE5
:1037C000900D1124825F924FFC0140818C81282F43
:1037D00030E050E5529FC001539F900D1124825F4D
:1037E000924FFC018081481719F489898F5F898B7A
:1037F00089A9865F89AB89A98432D8F289898150E9
:10380000898B8C81482F50E08989882F90E068E26D
:10381000649F9001659F300D1124820F931F880FC4
:10382000991F8050934FFC0180819181998F888FDF
:1038300045EE52E060E080E00E94980E8981882F7A
:1038400090E0292F2F938F938DE792E0892F8F930C
:103850008DE792E08F93CE018D539E4F292F2F93AA
:103860008F930E94C1760F900F900F900F900F9042
:103870000F90CE018D539E4FAC016BE080E00E9413
:10388000980E47E153E060E081E00E94980E898D38
:103890008F93888D8F938DE792E0892F8F938DE79B
:1038A00092E08F93CE018D539E4F292F2F938F93AC
:1038B0000E94C1760F900F900F900F900F900F9075
:1038C000CE018D539E4FAC016AE081E00E94980EBC
:1038D00048E253E060E082E00E94980E8D85882FD8
:1038E00090E0292F2F938F938DE792E0892F8F936C
:1038F0008DE792E08F93CE018D539E4F292F2F930A
:103900008F930E94C1760F900F900F900F900F90A1
:103910000F90CE018D539E4FAC016BE082E00E9470
:10392000980E81E08B878981882F90E00197885FCE
:103930009D4FFC018081282F30E08091740A909186
:10394000750A82239323892B09F4ADC7888D998D3D
:1039500025E0AC016D8589810E9495688E878E85F2
:10396000813009F0A0C71B8681E08F8781E08C87BA
:103970009AC789A1882309F499C78981282F30E043
:103980004AE3429FC001439F900D11248456944FF7
:10399000FC018081882309F415C18AA1882309F0DC
:1039A00011C145EE52E060E080E00E94980E8981EE
:1039B000882F90E0292F2F938F938DE792E0892F06
:1039C0008F938DE792E08F93CE018D539E4F292FD9
:1039D0002F938F930E94C1760F900F900F900F90AE
:1039E0000F900F90CE018D539E4FAC016BE080E0A5
:1039F0000E94980E4AE453E060E081E00E94980E35
:103A00004BE553E060E082E00E94980E81E08AA3DB
:103A10009E01295A3F4F80E090E4ACE9B5E4F901FA
:103A200080839183A283B3838E0109561F4FCE01F9
:103A3000895A9F4F20E030E04AE755E4FC0160815D
:103A40007181828193810E94A975DC01CB01F8010B
:103A500080839183A283B383CE0189569F4F20E058
:103A600030E040E85FE3FC016081718182819381F5
:103A70000E945B7488230CF462C0CE0189569F4F6C
:103A800020E03FEF4FE757E4FC01608171818281C4
:103A900093810E94A57518160CF03EC0CE01895A7C
:103AA0009F4F20E030E040E251E4FC0160817181F1
:103AB000828193810E94A975DC01CB018E0105569C
:103AC0001F4FBC01CD010E94C774DC01CB01F8017E
:103AD0009183808318C080E991E00197F1F79E01FE
:103AE00023563F4FF90191838083CE0185569F4F26
:103AF0009E0125563F4FF901208131812150310926
:103B0000FC0131832083CE0185569F4FFC018081CB
:103B10009181892B01F729C08E0105561F4FCE01D7
:103B200089569F4FFC0160817181828193810E943F
:103B3000C774DC01CB01F8019183808308C0CE01FA
:103B400085569F4F21E030E0FC0131832083CE0178
:103B500085569F4FFC01808191810197F1F79E016D
:103B600021563F4FF901918380838981282F30E0CE
:103B70004AE3429FC001439F900D11248256944F07
:103B8000FC018081882379F0109205024CE653E015
:103B900060E081E00E94980E4DE753E060E082E033
:103BA0000E94980E0FC081E0809305024EE853E01A
:103BB00060E081E00E94980E4FE953E060E082E00F
:103BC0000E94980E80910502882F90E08130910527
:103BD00009F45BC0823091051CF4892B49F001C4C3
:103BE0008230910509F478C0039709F404C2F9C33F
:103BF0008E81882381F040EB53E060E081E00E94F9
:103C0000980E4FE953E060E082E00E94980E81E058
:103C100080930502E1C38D81882309F4DDC3898186
:103C2000282F30E04AE3429FC001439F900D1124AA
:103C30008456944FFC0110828981282F30E04AE39A
:103C4000429FC001439F900D11248256944FFC0166
:103C500010828981282F30E04AE3429FC001439FB0
:103C6000900D11248356944FFC011082198619A2DD
:103C700046EF52E060E081E00E94980E41EC53E094
:103C800060E082E00E94980EA7C38E81882381F0B5
:103C900082E08093050242ED53E060E081E00E9403
:103CA000980E43EE53E060E082E00E94980E96C3C7
:103CB0008D81882309F492C346EF52E060E081E0F1
:103CC0000E94980E41EC53E060E082E00E94980E62
:103CD00083E08093050282C38E81882371F18981FC
:103CE000282F30E04AE3429FC001439F900D1124EA
:103CF0008256944FFC018081882379F0109205024E
:103D00004CE653E060E081E00E94980E4DE753E0FE
:103D100060E082E00E94980E63C381E08093050218
:103D200040EB53E060E081E00E94980E4FE953E0E1
:103D300060E082E00E94980E53C38D81882309F4CD
:103D40004FC321E042E350E060E089810E94956822
:103D50008E878E85813049F544EF53E060E081E045
:103D60000E94980E45E054E060E082E00E94980EC8
:103D70008981282F30E04AE3429FC001439F900D84
:103D800011248456944FFC0110828981282F30E041
:103D90004AE3429FC001439F900D11248356944FE4
:103DA000FC011082198619A21BC38E85823009F08E
:103DB00017C344EF53E060E081E00E94980E46E1B3
:103DC00054E060E082E00E94980E9E01255A3F4F29
:103DD00080E090E4ACE9B5E4F90180839183A283AB
:103DE000B3838E010F551F4FCE01855A9F4F20E0A0
:103DF00030E04AE755E4FC01608171818281938162
:103E00000E94A975DC01CB01F80180839183A28314
:103E1000B383CE018F559F4F20E030E040E85FE351
:103E2000FC0160817181828193810E945B7488238F
:103E30000CF462C0CE018F559F4F20E03FEF4FE75B
:103E400057E4FC0160817181828193810E94A57594
:103E500018160CF03EC0CE01855A9F4F20E030E08E
:103E600040E251E4FC0160817181828193810E9472
:103E7000A975DC01CB018E010B551F4FBC01CD0193
:103E80000E94C774DC01CB01F8019183808318C0C4
:103E900080E991E00197F1F79E0129553F4FF90123
:103EA00091838083CE018B559F4F9E012B553F4FB1
:103EB000F9012081318121503109FC0131832083B6
:103EC000CE018B559F4FFC0180819181892B01F799
:103ED00029C08E010B551F4FCE018F559F4FFC01FE
:103EE00060817181828193810E94C774DC01CB0162
:103EF000F8019183808308C0CE018B559F4F21E04C
:103F000030E0FC0131832083CE018B559F4FFC01B3
:103F1000808191810197F1F79E0127553F4FF9016B
:103F2000918380838981282F30E04AE3429FC0013A
:103F3000439F900D11248256944FFC018081882369
:103F400079F0109205024CE653E060E081E00E94B7
:103F5000980E4DE753E060E082E00E94980E0FC09B
:103F600081E0809305024EE853E060E081E00E942A
:103F7000980E4FE953E060E082E00E94980E89813C
:103F8000282F30E04AE3429FC001439F900D112447
:103F90008356944FFC018081882F90E0292F2F9326
:103FA0008F938DE792E0892F8F938DE792E08F9327
:103FB000CE018D539E4F292F2F938F930E94C17650
:103FC0000F900F900F900F900F900F90CE018D5388
:103FD0009E4FAC0160E081E00E94980E47E254E001
:103FE00060E081E00E94980E48E354E060E082E0E7
:103FF0000E94980EF5C110927A0A10927B0A0E94D4
:10400000FE359091720A8091730A981709F0D5C015
:1040100049E454E060E081E00E94980E41EC53E0F6
:1040200060E082E00E94980E19868981282F30E096
:104030004AE3429FC001439F900D11248356944F41
:10404000FC0110828981282F30E04AE3429FC001A1
:10405000439F900D11248456944FFC0110829E01C1
:10406000215A3F4F80E090E4ACE9B5E4F901808348
:104070009183A283B3838E0105551F4FCE01815AD0
:104080009F4F20E030E04AE755E4FC0160817181F8
:10409000828193810E94A975DC01CB01F8018083A4
:1040A0009183A283B383CE0185559F4F20E030E0FA
:1040B00040E85FE3FC0160817181828193810E940D
:1040C0005B7488230CF462C0CE0185559F4F20E0BD
:1040D0003FEF4FE757E4FC0160817181828193815A
:1040E0000E94A57518160CF03EC0CE01815A9F4F54
:1040F00020E030E040E251E4FC0160817181828186
:1041000093810E94A975DC01CB018E0101551F4FDF
:10411000BC01CD010E94C774DC01CB01F801918381
:10412000808318C080E991E00197F1F79E012F5438
:104130003F4FF90191838083CE0181559F4F9E01AE
:1041400021553F4FF9012081318121503109FC0176
:1041500031832083CE0181559F4FFC018081918165
:10416000892B01F73EC18E0101551F4FCE018555A8
:104170009F4FFC0160817181828193810E94C7748D
:10418000DC01CB01F8019183808308C0CE01815509
:104190009F4F21E030E0FC0131832083CE01815527
:1041A0009F4FFC01808191810197F1F79E012D5471
:1041B0003F4FF9019183808314C14AE554E060E0E8
:1041C00081E00E94980E41EC53E060E082E00E94A2
:1041D000980E10927A0A10927B0A8981282F30E07B
:1041E0008981482F50E06AE3649FC001659F900D6C
:1041F00011248356944FFC01808141E0480F5AE31B
:10420000529FC001539F900D11248356944FFC017F
:1042100040838981282F30E04AE3429FC001439FB9
:10422000900D11248356944FFC018081833021F539
:1042300021E042E350E060E089810E9495688E872A
:104240008981282F30E04AE3429FC001439F900DAF
:1042500011248356944FFC0110828981282F30E06D
:104260004AE3429FC001439F900D11248456944F0E
:10427000FC0110821986B5C081E08BA39E012D59E7
:104280003F4F80E090E4ACE9B5E4F901808391838D
:10429000A283B3838E010B541F4FCE018D599F4FC4
:1042A00020E030E04AE755E4FC01608171818281C1
:1042B00093810E94A975DC01CB01F8018083918371
:1042C000A283B383CE018B549F4F20E030E040E8BF
:1042D0005FE3FC0160817181828193810E945B7444
:1042E00088230CF462C0CE018B549F4F20E03FEF37
:1042F0004FE757E4FC0160817181828193810E94C4
:10430000A57518160CF03EC0CE018D599F4F20E0C8
:1043100030E040E251E4FC0160817181828193814F
:104320000E94A975DC01CB018E0107541F4FBC010F
:10433000CD010E94C774DC01CB01F8019183808319
:1043400018C080E991E00197F1F79E0125543F4F95
:10435000F90191838083CE0187549F4F9E0127549A
:104360003F4FF9012081318121503109FC01318316
:104370002083CE0187549F4FFC0180819181892B3E
:1043800001F72FC08E0107541F4FCE018B549F4F52
:10439000FC0160817181828193810E94C774DC017C
:1043A000CB01F8019183808308C0CE0187549F4FD1
:1043B00021E030E0FC0131832083CE0187549F4F00
:1043C000FC01808191810197F1F79E0123543F4FB9
:1043D000F9019183808305C0000003C0000001C083
:1043E00000008981882F90E00197885F9D4FFC0134
:1043F0008081282F30E08091740A9091750A822381
:104400009323892B21F081E08D831E824FC2898105
:10441000882F90E00197845F9D4FFC018081282FB9
:1044200030E08091740A9091750A82239323892B3E
:1044300021F01D8281E08E8339C21D821E8236C228
:1044400089810E94F94B84E08F8F8981282F30E089
:104450004AE3429FC001439F900D11248456944F1C
:1044600021E0FC01208381E08B8381E0898722C2E7
:104470008C81282F30E040E5429FC001439F900D82
:104480001124825F924FFC018081882321F5188AD4
:104490008E010E5B1F4F49816BEC7CE08C810E948A
:1044A0007D32F8018083CE018E5B9F4FFC018081BD
:1044B000882F90E08130910519F0029721F00BC010
:1044C00081E0888B08C081E0888B81E08E8783E063
:1044D0008093040200008C81482F50E0CE01845B61
:1044E0009F4F60E5649F9001659F300D1124275E0A
:1044F000324FF9012081FC0120838C81282F30E08C
:1045000040E5429FC001439F900D1124825F924F6E
:10451000FC018081882309F4CCC18C81282F30E0F4
:1045200040E5429FC001439F900D1124825F924F4E
:10453000FC0190818981981709F4BBC18E85813077
:1045400009F4B7C1CE01845B9F4FFC0180818823B1
:1045500009F0AFC11F868B85882309F070C1909147
:10456000CE108091CE15981719F48AE08A8B02C07C
:1045700084E08A8B45EE52E060E080E00E94980E75
:104580008981882F90E0292F2F938F938DE792E0D8
:10459000892F8F938DE792E08F93CE018D539E4F9D
:1045A000292F2F938F930E94C1760F900F900F9019
:1045B0000F900F900F90CE018D539E4FAC016BE08A
:1045C00080E00E94980E4BE654E060E081E00E949B
:1045D000980E4DE754E060E082E00E94980E8A89D0
:1045E000882F90E0292F2F938F938DE792E0892FCA
:1045F0008F938DE792E08F93CE018D539E4F292F9D
:104600002F938F930E94C1760F900F900F900F9071
:104610000F900F90CE018D539E4FAC016EE082E063
:104620000E94980E62C080915B1A90915C1A9093E0
:104630008A0C8093890C10925C1A10925B1A89E0A4
:1046400091E0FC018081882F90E0382F222786E0BE
:1046500091E0FC018081882F90E0822B932B909336
:104660005C1A80935B1A8091890C90918A0C9C0152
:104670002095309580915B1A90915C1A8223932348
:104680009093750A8093740A8091740A9091750AC8
:1046900088279170892B89F080917A0A882369F4A0
:1046A00090917B0A80917A0A492F682F81E00E94BD
:1046B0001A4781E080937A0A18C08091740A909119
:1046C000750A88279270892B81F080917B0A882354
:1046D00061F490917B0A80917A0A492F682F82E0D9
:1046E0000E941A4781E080937B0A80917A0A88238E
:1046F00009F499CF80917B0A882309F494CF8C81A7
:10470000282F30E040E5429FC001439F900D1124C7
:10471000825F924FFC0180818D878091720A282FE1
:1047200030E08091730A882F90E0A901480F591F4B
:104730008A89282F30E0429FC001439F900D529FED
:10474000900D1124998F888F45EE52E060E080E053
:104750000E94980E8981882F90E0292F2F938F93A4
:104760008DE792E0892F8F938DE792E08F93CE01B2
:104770008D539E4F292F2F938F930E94C1760F90B8
:104780000F900F900F900F900F90CE018D539E4F72
:10479000AC016BE080E00E94980E47E153E060E0DE
:1047A00081E00E94980E898D8F93888D8F938DE77D
:1047B00092E0892F8F938DE792E08F93CE018D53F6
:1047C0009E4F292F2F938F930E94C1760F900F90A9
:1047D0000F900F900F900F90CE018D539E4FAC0114
:1047E0006AE081E00E94980E48E253E060E082E0D7
:1047F0000E94980E8D85882F90E0292F2F938F93FC
:104800008DE792E0892F8F938DE792E08F93CE0111
:104810008D539E4F292F2F938F930E94C1760F9017
:104820000F900F900F900F900F90CE018D539E4FD1
:10483000AC016BE082E00E94980E81E08B87898159
:10484000882F90E00197885F9D4FFC018081282F81
:1048500030E08091740A9091750A82239323892B0A
:1048600041F1888D998D21E0AC016D8589810E948F
:1048700095688E878E858130E1F41B8681E08F8775
:1048800081E08C8710927A0A10927B0A12C0000095
:104890000C94743200000C94743200000C94743246
:1048A00000000C94743200000C94743200000C94DC
:1048B000743200000C9474328B85882309F050C048
:1048C0000E946E0E4EE854E060E080E00E94980E78
:1048D0008C81282F30E040E5429FC001439F900D1E
:1048E00011248553934FAC0160E081E00E94980E43
:1048F0004FE954E060E082E00E94980E89E090E089
:104900009E8F8D8F81E08B8781E08AAB24C08AA93E
:10491000882F90E02AA9422F50E06AE3649F90011B
:10492000659F300D11242756344FF90120813181C4
:10493000AE0147525E4F880F991F840F951FFC01EF
:104940003183208340E06AA980E090E00E946B44BC
:104950008AA98F5F8AAB809107029AA98917B8F656
:104960001BAA94C08BA9882F90E0885F9D4FFC0103
:104970008081282F30E08091740A9091750A8223FB
:104980009323892B09F44BC08BA9882F90E09E01BB
:104990002D523E4F820F931FFC018081882309F026
:1049A0003EC08BA9882F90E09C012F5F3F4F4AE3C8
:1049B000429FC001439F900D11248756944FFC01E4
:1049C000208131818D8D9E8D01968217930738F558
:1049D0008D8D9E8D01969E8F8D8F81E08CAB09C051
:1049E00040E06CA980E090E00E946B448CA98F5F4E
:1049F0008CAB809107029CA9891790F78BA921E0C5
:104A0000280F8D8D9E8D41E0622F0E946B448BA9F3
:104A100021E0280FCE018D529E4FFC0125838BA9EA
:104A2000882F90E0845F9D4FFC018081282F30E02B
:104A30008091740A9091750A82239323892B19F12E
:104A40008BA9882F90E09E012D523E4F820F931F1D
:104A5000FC0180818823B9F48BA9882F90E09E0106
:104A60002D523E4F820F931F21E0FC012083CE0187
:104A70008D529E4FFC01848121E0280FCE018D5282
:104A80009E4FFC0124838BA98F5F8BAB8091070223
:104A90009BA9981708F466CFCE018D529E4FFC015A
:104AA000948180910702981711F00C947732CE010F
:104AB0008D529E4FFC018581882309F424C20E94F7
:104AC0006E0E9E0121593F4F80E090E0A0E2B1E4DC
:104AD000F90180839183A283B3838E0107531F4F13
:104AE000CE0181599F4F20E030E04AE755E4FC01B8
:104AF00060817181828193810E94A975DC01CB0163
:104B0000F80180839183A283B383CE0187539F4FA3
:104B100020E030E040E85FE3FC0160817181828148
:104B200093810E945B7488230CF462C0CE0187538A
:104B30009F4F20E03FEF4FE757E4FC016081718118
:104B4000828193810E94A57518160CF03EC0CE019B
:104B500081599F4F20E030E040E251E4FC01608148
:104B60007181828193810E94A975DC01CB018E0144
:104B700003531F4FBC01CD010E94C774DC01CB0160
:104B8000F8019183808318C080E991E00197F1F7E3
:104B90009E0121533F4FF90191838083CE018353BE
:104BA0009F4F9E0123533F4FF901208131812150B6
:104BB0003109FC0131832083CE0183539F4FFC01D7
:104BC00080819181892B01F729C08E0103531F4FEA
:104BD000CE0187539F4FFC01608171818281938157
:104BE0000E94C774DC01CB01F8019183808308C067
:104BF000CE0183539F4F21E030E0FC0131832083BD
:104C0000CE0183539F4FFC01808191810197F1F781
:104C10009E012F523F4FF9019183808340EB54E076
:104C200060E080E00E94980E45EE52E060E081E096
:104C30000E94980ECE018D529E4FFC018581882FD7
:104C400090E0292F2F938F938DE792E0892F8F93F8
:104C50008DE792E08F93CE018D539E4F292F2F9396
:104C60008F930E94C1760F900F900F900F900F902E
:104C70000F90CE018D539E4FAC016BE081E00E94FE
:104C8000980E9E0129593F4F80E090E0AAE7B5E4D5
:104C9000F90180839183A283B3838E0101541F4F56
:104CA000CE0189599F4F20E030E04AE755E4FC01EE
:104CB00060817181828193810E94A975DC01CB01A1
:104CC000F80180839183A283B383CE0181549F4FE7
:104CD00020E030E040E85FE3FC0160817181828187
:104CE00093810E945B7488230CF462C0CE018154CE
:104CF0009F4F20E03FEF4FE757E4FC016081718157
:104D0000828193810E94A57518160CF03EC0CE01D9
:104D100089599F4F20E030E040E251E4FC0160817E
:104D20007181828193810E94A975DC01CB018E0182
:104D30000D531F4FBC01CD010E94C774DC01CB0194
:104D4000F8019183808318C080E991E00197F1F721
:104D50009E012B533F4FF90191838083CE018D53E8
:104D60009F4F9E012D533F4FF901208131812150EA
:104D70003109FC0131832083CE018D539F4FFC010B
:104D800080819181892B01F729C08E010D531F4F1E
:104D9000CE0181549F4FFC0160817181828193819A
:104DA0000E94C774DC01CB01F8019183808308C0A5
:104DB000CE018D539F4F21E030E0FC0131832083F1
:104DC000CE018D539F4FFC01808191810197F1F7B6
:104DD0009E0129533F4FF9019183808381E08DAB80
:104DE0001EC08DA9482F50E08DA9882F90E09E010C
:104DF00027523E4F880F991F820F931FFC0120817D
:104E000031816AE3649FC001659F900D112487562C
:104E1000944FFC01318320838DA98F5F8DAB8091EE
:104E200007029DA98917E8F68091070267E67BE0F3
:104E30000E94B946CE018D529E4FFC018581482FBC
:104E400050E0CE018D529E4FFC018581282F30E02D
:104E50006AE3629FC001639F900D11248756944FAF
:104E6000FC01208131818D8D9E8D281B390B6AE3D9
:104E7000649FC001659F900D11248756944FFC01DB
:104E8000318320838C81282F30E0CE018D529E4FBC
:104E9000FC01458150E5529FC001539F900D1124A4
:104EA000825F924FFC014083CE018D529E4FFC01E8
:104EB00055818C81282F30E040E5429FC001439FFF
:104EC000900D11248A5E924FFC018081652F0E9413
:104ED00074411EAA0DC08EA9882F90E09E012D520C
:104EE0003E4F820F931FFC0110828EA98F5F8EAB05
:104EF0008EA9863080F31B8681E08C8782E08093C8
:104F000004020C9477320E946E0E41EC54E060E093
:104F100080E00E94980E41ED54E060E081E00E9444
:104F2000980E9E0125593F4F80E090E0AAE7B5E436
:104F3000F90180839183A283B3838E010D521F4FA9
:104F4000CE0185599F4F20E030E04AE755E4FC014F
:104F500060817181828193810E94A975DC01CB01FE
:104F6000F80180839183A283B383CE018D529F4F3A
:104F700020E030E040E85FE3FC01608171818281E4
:104F800093810E945B7488230CF462C0CE018D5221
:104F90009F4F20E03FEF4FE757E4FC0160817181B4
:104FA000828193810E94A57518160CF03EC0CE0137
:104FB00085599F4F20E030E040E251E4FC016081E0
:104FC0007181828193810E94A975DC01CB018E01E0
:104FD00009521F4FBC01CD010E94C774DC01CB01F7
:104FE000F8019183808318C080E991E00197F1F77F
:104FF0009E0127523F4FF90191838083CE01895250
:105000009F4F9E0129523F4FF9012081318121504C
:105010003109FC0131832083CE0189529F4FFC016D
:1050200080819181892B01F729C08E0109521F4F80
:10503000CE018D529F4FFC016081718182819381ED
:105040000E94C774DC01CB01F8019183808308C002
:10505000CE0189529F4F21E030E0FC013183208353
:10506000CE0189529F4FFC01808191810197F1F718
:105070009E0125523F4FF9019183808381E08FABE0
:105080001EC08FA9482F50E08FA9882F90E09E0165
:1050900027523E4F880F991F820F931FFC012081DA
:1050A00031816AE3649FC001659F900D112487568A
:1050B000944FFC01318320838FA98F5F8FAB809148
:1050C00007029FA98917E8F68091070267E67BE04F
:1050D0000E94B94618AE0DC088AD882F90E09E01A1
:1050E0002D523E4F820F931FFC01108288AD8F5FBF
:1050F00088AF88AD863080F31B8681E08C8782E0A4
:10510000809304020C94773289810E940E7081E0B2
:105110008C8782E0809304020C947B32809106029B
:10512000882F90E08130910541F08230910509F49B
:1051300089C0892B09F443C0CEC08B858823A1F494
:1051400042EE54E060E080E00E94980E43EF54E0AD
:1051500060E081E00E94980E44E055E060E082E06B
:105160000E94980E81E08B878091740A9091750A55
:1051700088279074892B21F0109206021B86A4C008
:105180008091740A9091750A88279071892B41F05B
:1051900081E08093060284E0809304021B8694C021
:1051A0008091740A9091750A88279470892B09F46C
:1051B0008BC082E08093040281E08C8785C08B8560
:1051C0008823A1F442EE54E060E080E00E94980E53
:1051D00045E155E060E081E00E94980E44E055E032
:1051E00060E082E00E94980E81E08B878091740AD3
:1051F0009091750A88279074892B29F082E080931A
:1052000006021B8664C08091740A9091750A8827F3
:105210009071892B41F081E08093060286E08093B3
:1052200004021B8654C08091740A9091750A8827E5
:105230009470892B09F44BC082E08093040281E0D2
:105240008C8745C08B858823A1F442EE54E060E052
:1052500080E00E94980E46E255E060E081E00E9406
:10526000980E44E055E060E082E00E94980E81E0F4
:105270008B878091740A9091750A88279074892B86
:1052800029F081E0809306021B8624C08091740A75
:105290009091750A88279071892B41F081E0809365
:1052A000060287E0809304021B8614C08091740A72
:1052B0009091750A88279470892B61F082E0809321
:1052C000040281E08C8706C000000C947B32000051
:1052D0000C947B3200000C947B328B85882309F080
:1052E0006CC041EC53E060E080E00E94980E47E320
:1052F00055E060E081E00E94980E44E055E060E0F7
:1053000082E00E94980E81E08B8719AE0DC089ADB6
:10531000882F90E09E012D513E4F820F931FFC017C
:10532000108289AD8F5F89AF89AD8C3180F31B8E80
:105330001AAE21C08AAD282F30E040E5429FC0015F
:10534000439F900D1124825F924FFC0190818981CF
:10535000981771F48B8D882F90E09E012D513E4F50
:10536000820F931F2AADFC0120838B8D8F5F8B8F63
:105370008AAD8F5F8AAF8AAD8832E0F241EC53E0AC
:1053800060E080E00E94980E8C8D882F90E09E0156
:105390002D513E4F820F931FFC018081282F30E05A
:1053A00040E5429FC001439F900D11248553934FC8
:1053B000AC0160E080E00E94980E8091740A9091A8
:1053C000750A88279074892B51F18C8D882F90E075
:1053D00001962B8D222F30E0B9010E9418768C8F18
:1053E00041EC53E060E080E00E94980E8C8D882FA5
:1053F00090E09E012D513E4F820F931FFC01808152
:10540000282F30E040E5429FC001439F900D1124BA
:105410008553934FAC0160E080E00E94980E80912C
:10542000740A9091750A88279870892B09F4F5C041
:1054300081E08CA31BAE2DC08C8D882F90E09E0147
:105440002D513E4F820F931FFC018081482F50E069
:105450008BAD882F90E060E5649F9001659F300DD3
:105460001124820F931F805F924FFC018081282FAF
:1054700030E040E5429FC001439F900D11248B5EB8
:10548000924FFC018081882309F01CA28BAD8F5FB5
:105490008BAF8BAD833080F28C8D882F90E09E0196
:1054A0002D513E4F820F931FFC018081282F30E049
:1054B00040E5429FC001439F900D1124885E924FAA
:1054C000FC018081882309F083C18CA1882309F421
:1054D0007FC18C8D882F90E09E012D513E4F820F11
:1054E000931FFC018081282F30E040E5429FC001DE
:1054F000439F900D11248250934FFC018081918134
:1055000096958795998F888F888D998D21E0AC012C
:10551000698180E00E9495688E878E85813009F0D0
:1055200057C18C8D882F90E09E012D513E4F820FE8
:10553000931FFC018081282F30E040E5429FC0018D
:10554000439F900D1124885E924F21E0FC0120833F
:10555000CE01865B9F4FFC0110828C8D882F90E0DE
:105560009E012D513E4F820F931FFC018081482FD9
:1055700050E0CE01865B9F4F60E5649F9001659F80
:10558000300D11242C5E324FF9012081FC01208363
:105590008C8D882F90E09E012D513E4F820F931FDE
:1055A000FC018081482F50E0CE01855B9F4F60E574
:1055B000649F9001659F300D11242A5E324FF901DE
:1055C0002081FC0120838C8D882F90E09E012D513D
:1055D0003E4F820F931FFC018081282F30E040E571
:1055E000429FC001439F900D11248350934FFC01B3
:1055F0008081882349F4CE01865B9F4F66E0FC01E1
:1056000080810E94543FE4C0CE01855B9F4F65E0DE
:10561000FC0180810E947441DBC08091740A9091EA
:10562000750A99230CF0D4C08C8D882F90E09E01D0
:105630002D513E4F820F931FFC018081282F30E0B7
:1056400040E5429FC001439F900D1124885E924F18
:10565000FC018081882309F4BBC08C8D882F90E0E9
:105660009E012D513E4F820F931FFC018081282FF8
:1056700030E040E5429FC001439F900D11248250CD
:10568000934FFC018081918196958795CC01A0E094
:10569000B0E0BC01CD010E94F374DC01CB012DEC24
:1056A0003CEC4CE85FE3BC01CD010E94A975DC0134
:1056B000CB01BC01CD010E94C774DC01CB01998FE5
:1056C000888F888D998D21E0AC0160E089810E94EE
:1056D00095688E878E85813009F07AC08C8D882FF1
:1056E00090E09E012D513E4F820F931FFC0180815F
:1056F000282F30E040E5429FC001439F900D1124C8
:10570000885E924FFC011082CE01865B9F4FFC01A8
:1057100010828C8D882F90E09E012D513E4F820F7C
:10572000931FFC018081482F50E0CE01865B9F4F84
:1057300060E5649F9001659F300D11242C5E324F0F
:10574000F9012081FC0120838C8D882F90E09E013F
:105750002D513E4F820F931FFC018081482F50E056
:10576000CE01855B9F4F60E5649F9001659F300D82
:1057700011242A5E324FF9012081FC0120838C8D97
:10578000882F90E09E012D513E4F820F931FFC0108
:105790008081282F30E040E5429FC001439F900D5B
:1057A00011248350934FFC018081882349F4CE015A
:1057B000865B9F4F60E0FC0180810E94543F08C0DF
:1057C000CE01855B9F4F6981FC0180810E947441FD
:1057D0008091740A9091750A88279470892B09F436
:1057E00089C682E08093040281E08C8783C688A109
:1057F000882F90E08230910509F492C083309105A2
:1058000034F4009761F0019709F478C066C68330DC
:10581000910509F4AEC0049709F496C55EC68B8560
:105820008823A9F448E455E060E080E00E94980EE7
:1058300049E555E060E081E00E94980E41EC53E0BC
:1058400060E082E00E94980E81E08B871DA281E0DB
:105850008CAF2DC08CAD882F90E00197885F9D4F55
:10586000FC018081282F30E08091740A9091750AA4
:1058700082239323892BC1F090918B0C8CAD9817C8
:1058800099F08DA1882F90E0880F991F82959295AD
:10589000907F9827807F98278557934F2CADFC01E8
:1058A00020838DA18F5F8DA38CAD8F5F8CAF809196
:1058B00007029CAD891770F68091AB0C882309F420
:1058C00007C61092760A81E088A31DA201C68E0148
:1058D000025B1F4F8DA10E947336F8018083CE01B9
:1058E000825B9F4FFC018081882341F08DA18F5FF7
:1058F0008DA3CE01825B9F4FFC0110828DA182306F
:1059000030F38DA1823009F0E5C582E088A31092C2
:10591000760A1DA2CE01825B9F4FFC011082DAC580
:105920004AE655E060E081E00E94980E8E01025B3D
:105930001F4F8DA10E947739F8018083CE01825BD1
:105940009F4FFC018081882389F08DA18F5F8DA3FB
:10595000CE01825B9F4FFC0110828DA1823009F045
:10596000BBC583E088A31092760AB6C584E088A3FD
:10597000B3C50E946E0E9E0125583F4F80E090E017
:10598000AAE7B4E4F90180839183A283B3838E01F3
:1059900009511F4FCE0185589F4F20E030E04AE764
:1059A00055E4FC0160817181828193810E94A97517
:1059B000DC01CB01F80180839183A283B383CE0104
:1059C00089519F4F20E030E040E85FE3FC016081B7
:1059D0007181828193810E945B7488230CF462C080
:1059E000CE0189519F4F20E03FEF4FE757E4FC0184
:1059F00060817181828193810E94A57518160CF0D7
:105A00003EC0CE0185589F4F20E030E040E251E497
:105A1000FC0160817181828193810E94A975DC0102
:105A2000CB018E0105511F4FBC01CD010E94C774EF
:105A3000DC01CB01F8019183808318C080E991E0FB
:105A40000197F1F79E0123513F4FF9019183808324
:105A5000CE0185519F4F9E0125513F4FF901208175
:105A6000318121503109FC0131832083CE018551E0
:105A70009F4FFC0180819181892B01F729C08E0104
:105A800005511F4FCE0189519F4FFC0160817181EB
:105A9000828193810E94C774DC01CB01F80191835C
:105AA000808308C0CE0185519F4F21E030E0FC018A
:105AB00031832083CE0185519F4FFC0180819181EC
:105AC0000197F1F79E0121513F4FF90191838083A6
:105AD0004BE755E060E080E00E94980E9E012D5853
