S01C00004D6F6E6F706F6C7954657374506F726772616D6D2E73726563C6
S113000079C0000098C0000096C0000094C00000B1
S113001092C0000090C000008EC000008CC00000A0
S11300208AC0000088C0000086C0000084C00000B0
S113003082C0000080C000007EC000007CC00000C0
S11300407AC0000078C0000076C0000074C00000D0
S113005072C0000070C000006EC000006CC00000E0
S11300606AC0000068C0000066C0000064C00000F0
S113007062C0000060C000005EC000005CC0000000
S11300805AC0000058C0000056C0000054C0000010
S113009052C0000050C000004EC000004CC0000020
S11300A04AC0000048C0000046C0000044C0000030
S11300B042C0000040C000003EC000003CC0000040
S11300C03AC0000038C0000036C0000034C0000050
S11300D032C0000030C000002EC000002CC0000060
S11300E02AC00000F00D2510251025102510780FCA
S11300F07B0FCE0E11241FBECFEFD1E2DEBFCDBFEA
S113010000E00CBF14E0A0E0B2E0ECECF9E400E0A5
S11301100BBF02C007900D92A83CB107D9F726E0A7
S1130120A8ECB4E001C01D92A93EB207E1F70E9419
S11301306A0A0C94E42464CF98B19F7E98B998B16C
S11301409B7F98B98BB998B1926098B981508330EC
S113015038F48FE291E10197F1F700C0000003C089
S113016090EA9A95F1F788B18D7F88B908951F9325
S1130170CF93DF93CDB7DEB729970FB6F894DEBFE0
S11301800FBECDBF8FEF8AB987B988B1806288B9B5
S11301902FEF80E792E0215080409040E1F700C0CB
S11301A0000088B18E7F88B989E0EEE0F2E0DE01DC
S11301B0119601900D928A95E1F710E00AC0E1E0F2
S11301C0F0E0EC0FFD1FE10FF11D808190E0B4DF42
S11301D01F5F1930A0F329960FB6F894DEBF0FBE47
S11301E0CDBFDF91CF911F91089598B1906198B9D7
S11301F098B19B7F98B98BB988B1826088B980EA3D
S11302008A95F1F788B18D7F88B9089581E094CFFC
S1130210089582E091CF0895417070E0660F771FD2
S11302206270282F30E0220F331F220F331F2470F7
S1130230842F862B822B88607FCF08950F931F9382
S1130240CF938A01282F30E0285F3F4F862F90E11B
S1130250299F800D112470DFC0E002C0C6DFCF5F8C
S1130260F801EC0FF11D80818111F8CFCF911F911E
S11302700F910895CF93DF93CDB7DEB781E290E07D
S11302802FEFFC01208384E290E02FEFFC01208318
S113029085E290E020E2FC01208387E290E02FEFEA
S11302A0FC01208388E290E02FE3FC0120838AE2B2
S11302B090E02FEFFC0120838BE290E0FC011082A0
S11302C08DE290E02FEFFC0120838EE290E020E1AC
S11302D0FC01208380E390E02EEFFC01208381E089
S11302E091E02FEFFC01208382E091E020E1FC010A
S11302F0208384E091E02FEFFC01208385E091E0EE
S113030020E1FC01208387E091E0FC0110828AE077
S113031091E0FC0110820000DF91CF910895CF930A
S1130320DF931F921F92CDB7DEB79A8389838981A9
S11303309A81C5969C018AE0E7E1F2E0D901019037
S11303400D928A95E1F789819A81C5962CED35E065
S1130350FC0133AB22AB89819A81C596FC0114AAB6
S113036089819A8186599F4F9C018AE0E1E2F2E0FB
S1130370D90101900D928A95E1F789819A81865974
S11303809F4F2CED35E0FC0133AB22AB89819A8180
S113039086599F4FFC0114AA89819A8181569F4FE7
S11303A09C018AE0EBE2F2E0D90101900D928A957A
S11303B0E1F789819A8181569F4F2CED35E0FC014C
S11303C033AB22AB89819A8181569F4FFC0114AAD9
S11303D089819A818C529F4F9C018AE0E5E3F2E087
S11303E0D90101900D928A95E1F789819A818C5205
S11303F09F4F2CED35E0FC0133AB22AB89819A8110
S11304008C529F4FFC0114AA00000F900F90DF91B3
S1130410CF910895CF93DF931F921F92CDB7DEB78C
S11304209A83898389819A812CE43FE6FC01318394
S1130430208323E730E0FC013383228389819A817E
S113044023E0FC0122AB89819A81CC969C018EE049
S1130450EFE3F2E0D90101900D928A95E1F78981E9
S11304609A81CC96FC0112AA89819A81CC962CE3BC
S113047030E0FC0134AB23AB89819A81CC9622E035
S113048030E0FC0136AB25AB89819A81CC96FC0126
S113049017AA89819A81CC96FC0110AE89819A8130
S11304A0CC96FC0111AE89819A81CC96FC0112AEE6
S11304B089819A81CC96FC0113AE89819A818858EE
S11304C09F4F9C0189E0EDE4F2E0D90101900D9287
S11304D08A95E1F789819A8188589F4F21E0FC0130
S11304E022AB89819A818C549F4F9C018BE0E6E575
S11304F0F2E0D90101900D928A95E1F789819A8100
S11305008C549F4FFC0112AA89819A818C549F4F6D
S11305102CE330E0FC0134AB23AB89819A818C5409
S11305209F4F22E030E0FC0136AB25AB89819A81F4
S11305308C549F4FFC0117AA89819A818C549F4F38
S1130540FC0110AE89819A818C549F4F21E0FC01FB
S113055021AF89819A818C549F4FFC0112AE89810D
S11305609A818C549F4F21E0FC0123AF89819A81A9
S113057080519F4F9C018EE0E1E6F2E0D9010190A9
S11305800D928A95E1F789819A8180519F4F22E0EB
S1130590FC0122AB89819A8180519F4F28EC30E085
S11305A0FC0134AB23AB89819A8180519F4F9C011C
S11305B080E1EFE6F2E0D90101900D928A95E1F72E
S11305C089819A81845D9E4F27E0FC0122AB898159
S11305D09A81845D9E4F28EC30E0FC0134AB23AB60
S11305E089819A81845D9E4F28EC30E0FC0136AB12
S11305F025AB89819A81845D9E4FFC0117AA89816C
S11306009A81845D9E4F28E0FC0120AF89819A8104
S1130610845D9E4F22E0FC0123AF89819A818C5432
S11306209F4F9C018CE0EFE7F2E0D90101900D921D
S11306308A95E1F789819A8188599E4FFC0112AA13
S113064089819A8188599E4F24E630E0FC0134ABBD
S113065023AB89819A8188599E4F22E030E0FC01C6
S113066036AB25AB89819A8188599E4FFC0117AA24
S113067089819A8188599E4F21E0FC0120AF8981AC
S11306809A8188599E4F22E0FC0121AF89819A8189
S113069088599E4FFC0112AE89819A8188599E4FD8
S11306A023E0FC0123AF89819A818C559E4F9C01E4
S11306B088E0EBE8F2E0D90101900D928A95E1F728
S11306C089819A818C559E4F21E0FC0122AB89815E
S11306D09A8180529E4F9C018BE0E3E9F2E0D901BC
S11306E001900D928A95E1F789819A8180529E4FFB
S11306F0FC0112AA89819A8180529E4F24E630E03F
S1130700FC0134AB23AB89819A8180529E4F22E055
S113071030E0FC0136AB25AB89819A8180529E4F33
S1130720FC0117AA89819A8180529E4F21E0FC0125
S113073020AF89819A8180529E4F23E0FC0121AF32
S113074089819A8180529E4FFC0112AE89819A81DF
S113075080529E4F24E0FC0123AF89819A81845EFC
S11307609D4F9C018AE0EEE9F2E0D90101900D92DF
S11307708A95E1F789819A81845E9D4FFC0112AAD2
S113078089819A81845E9D4F28E730E0FC0134AB77
S113079023AB89819A81845E9D4F22E030E0FC0185
S11307A036AB25AB89819A81845E9D4FFC0117AAE3
S11307B089819A81845E9D4F21E0FC0120AF89816B
S11307C09A81845E9D4F24E0FC0121AF89819A8146
S11307D0845E9D4FFC0112AE89819A81845E9D4F97
S11307E025E0FC0123AF89819A81885A9D4F9C01A1
S11307F08BE0E8EAF2E0D90101900D928A95E1F7E5
S113080089819A81885A9D4F24E0FC0122AB898119
S11308109A818C569D4F9C018AE0E3EBF2E0D9016A
S113082001900D928A95E1F789819A818C569D4FAA
S1130830FC0112AA89819A818C569D4F2CE830E0E4
S1130840FC0134AB23AB89819A818C569D4F22E005
S113085030E0FC0136AB25AB89819A818C569D4FE3
S1130860FC0117AA89819A818C569D4F22E0FC01D4
S113087020AF89819A818C569D4F25E0FC0121AFE0
S113088089819A818C569D4FFC0112AE89819A818F
S11308908C569D4F26E0FC0123AF89819A818C56AA
S11308A09D4F9C0181E1EDEBF2E0D90101900D92A5
S11308B08A95E1F789819A8180539D4F26E0FC0156
S11308C022AB89819A8180539D4F26E930E0FC0157
S11308D034AB23AB89819A8180539D4F22E030E071
S11308E0FC0136AB25AB89819A8180539D4FFC0175
S11308F017AA89819A8180539D4F28E0FC0120AF7B
S113090089819A8180539D4F27E0FC0123AF89811F
S11309109A81845F9C4F9C018AE0EEECF2E0D9015D
S113092001900D928A95E1F789819A81845F9C4FA9
S1130930FC0112AA89819A81845F9C4F2CE830E0E3
S1130940FC0134AB23AB89819A81845F9C4F22E004
S113095030E0FC0136AB25AB89819A81845F9C4FE2
S1130960FC0117AA89819A81845F9C4F22E0FC01D3
S113097020AF89819A81845F9C4F26E0FC0121AFDE
S113098089819A81845F9C4FFC0112AE89819A818E
S1130990845F9C4F28E0FC0123AF89819A81885BA6
S11309A09C4F9C018AE0E8EDF2E0D90101900D92A0
S11309B08A95E1F789819A81885B9C4FFC0112AA90
S11309C089819A81885B9C4F20EA30E0FC0134AB3A
S11309D023AB89819A81885B9C4F22E030E0FC0143
S11309E036AB25AB89819A81885B9C4FFC0117AAA1
S11309F089819A81885B9C4F22E0FC0120AF898128
S1130A009A81885B9C4F27E0FC0121AF89819A8100
S1130A10885B9C4FFC0112AE89819A81885B9C4F54
S1130A2029E0FC0123AF89819A818C579C4F9C015A
S1130A308CE0E2EEF2E0D90101900D928A95E1F7A3
S1130A4089819A818C579C4F27E0FC0122AB8981D4
S1130A509A818C579C4F28EC30E0FC0134AB23ABDB
S1130A6089819A818C579C4F28EC30E0FC0136AB8D
S1130A7025AB89819A818C579C4FFC0117AA8981E7
S1130A809A818C579C4F28E0FC0120AF89819A8180
S1130A908C579C4F2AE0FC0123AF89819A818054B2
S1130AA09C4F9C0183E1EEEEF2E0D90101900D929E
S1130AB08A95E1F789819A8180549C4FFC0112AA9E
S1130AC089819A8180549C4F24EB30E0FC0134AB43
S1130AD023AB89819A8180549C4F22E030E0FC0151
S1130AE036AB25AB89819A8180549C4FFC0117AAAF
S1130AF089819A8180549C4F23E0FC0120AF898135
S1130B009A8180549C4F28E0FC0121AF89819A810D
S1130B1080549C4FFC0112AE89819A8180549C4F71
S1130B202BE0FC0123AF89819A8184509C4F9C0166
S1130B308AE0E1E0F3E0D90101900D928A95E1F7B2
S1130B4089819A8184509C4F21E0FC0122AB8981E8
S1130B509A81885C9B4F9C0180E1EBE0F3E0D90132
S1130B6001900D928A95E1F789819A81885C9B4F67
S1130B70FC0112AA89819A81885C9B4F24EB30E0A6
S1130B80FC0134AB23AB89819A81885C9B4F22E0C2
S1130B9030E0FC0136AB25AB89819A81885C9B4FA0
S1130BA0FC0117AA89819A81885C9B4F23E0FC0190
S1130BB020AF89819A81885C9B4F29E0FC0121AF99
S1130BC089819A81885C9B4FFC0112AE89819A814C
S1130BD0885C9B4F2CE0FC0123AF89819A818C585F
S1130BE09B4F9C0181E1EBE1F3E0D90101900D926F
S1130BF08A95E1F789819A818C589B4FFC0112AA4E
S1130C0089819A818C589B4F28EC30E0FC0134ABED
S1130C1023AB89819A818C589B4F22E030E0FC0100
S1130C2036AB25AB89819A818C589B4FFC0117AA5E
S1130C3089819A818C589B4F23E0FC0120AF8981E4
S1130C409A818C589B4F2AE0FC0121AF89819A81BB
S1130C508C589B4FFC0112AE89819A818C589B4F12
S1130C602DE0FC0123AF89819A8180559B4F9C0123
S1130C708BE0ECE2F3E0D90101900D928A95E1F763
S1130C8089819A8180559B4F23E0FC0122AB8981A5
S1130C909A8184519B4F9C018CE1E7E3F3E0D901F5
S1130CA001900D928A95E1F789819A8184519B4F35
S1130CB0FC0112AA89819A8184519B4F2CED30E06A
S1130CC0FC0134AB23AB89819A8184519B4F22E090
S1130CD030E0FC0136AB25AB89819A8184519B4F6E
S1130CE0FC0117AA89819A8184519B4F24E0FC015D
S1130CF020AF89819A8184519B4F2BE0FC0121AF65
S1130D0089819A8184519B4FFC0112AE89819A8119
S1130D1084519B4F2EE0FC0123AF89819A81885D29
S1130D209A4F9C0189E0E3E5F3E0D90101900D922B
S1130D308A95E1F789819A81885D9A4F21E0FC01C7
S1130D4022AB89819A818C599A4F9C0187E1ECE509
S1130D50F3E0D90101900D928A95E1F789819A8196
S1130D608C599A4FFC0112AA89819A818C599A4F05
S1130D702CED30E0FC0134AB23AB89819A818C5992
S1130D809A4F22E030E0FC0136AB25AB89819A8191
S1130D908C599A4FFC0117AA89819A818C599A4FD0
S1130DA024E0FC0120AF89819A818C599A4F2CE070
S1130DB0FC0121AF89819A818C599A4FFC0112AEB2
S1130DC089819A818C599A4F2FE0FC0123AF898144
S1130DD09A8180569A4F9C0182E1E3E7F3E0D901BE
S1130DE001900D928A95E1F789819A8180569A4FF4
S1130DF0FC0112AA89819A8180569A4F20EF30E033
S1130E00FC0134AB23AB89819A8180569A4F22E04E
S1130E1030E0FC0136AB25AB89819A8180569A4F2C
S1130E20FC0117AA89819A8180569A4F24E0FC011B
S1130E3020AF89819A8180569A4F2DE0FC0121AF21
S1130E4089819A8180569A4FFC0112AE89819A81D8
S1130E5080569A4F20E1FC0123AF89819A81845204
S1130E609A4F9C018AE0E5E8F3E0D90101900D92E4
S1130E708A95E1F789819A8184529A4F27E0FC018F
S1130E8022AB89819A8184529A4F28EC30E0FC018C
S1130E9034AB23AB89819A8184529A4F22E030E0AB
S1130EA0FC0136AB25AB89819A8184529A4FFC01AF
S1130EB017AA89819A8184529A4F28E0FC0120AFB5
S1130EC089819A8184529A4F21E1FC0123AF89815F
S1130ED09A81885E994F9C0185E1EFE8F3E0D9019E
S1130EE001900D928A95E1F789819A81885E994FE4
S1130EF0FC0112AA89819A81885E994F24E031E02D
S1130F00FC0134AB23AB89819A81885E994F22E03E
S1130F1030E0FC0136AB25AB89819A81885E994F1C
S1130F20FC0117AA89819A81885E994F25E0FC010A
S1130F3020AF89819A81885E994F2EE0FC0121AF10
S1130F4089819A81885E994FFC0112AE89819A81C8
S1130F50885E994F22E1FC0123AF89819A818C5AE2
S1130F60994F9C0182E1E4EAF3E0D90101900D92EA
S1130F708A95E1F789819A818C5A994FFC0112AACA
S1130F8089819A818C5A994F24E031E0FC0134AB79
S1130F9023AB89819A818C5A994F22E030E0FC017D
S1130FA036AB25AB89819A818C5A994FFC0117AADB
S1130FB089819A818C5A994F25E0FC0120AF89815F
S1130FC09A818C5A994F2FE0FC0121AF89819A8133
S1130FD08C5A994FFC0112AE89819A818C5A994F8F
S1130FE023E1FC0123AF89819A818057994F9C01A9
S1130FF08BE0E6EBF3E0D90101900D928A95E1F7DD
S113100089819A818057994F26E0FC0122AB89811E
S11310109A818057994F26E930E0FC0134AB23AB29
S113102089819A818057994F22E030E0FC0136ABE8
S113103025AB89819A818057994FFC0117AA898130
S11310409A818057994F28E0FC0120AF89819A81C9
S11310508057994F24E1FC0123AF89819A818453FD
S1131060994F9C0183E1E1ECF3E0D90101900D92E9
S11310708A95E1F789819A818453994FFC0112AAD8
S113108089819A818453994F28E131E0FC0134AB82
S113109023AB89819A818453994F22E030E0FC018B
S11310A036AB25AB89819A818453994FFC0117AAE9
S11310B089819A818453994F25E0FC0120AF89816D
S11310C09A818453994F20E1FC0121AF89819A814F
S11310D08453994FFC0112AE89819A818453994FAC
S11310E025E1FC0123AF89819A81885F984F9C0197
S11310F083E1E4EDF3E0D90101900D928A95E1F7E3
S113110089819A81885F984F25E0FC0122AB89810F
S11311109A818C5B984F9C018DE1E7EEF3E0D90155
S113112001900D928A95E1F789819A818C5B984FA1
S1131130FC0112AA89819A818C5B984F2CE231E0E0
S1131140FC0134AB23AB89819A818C5B984F22E0FC
S113115030E0FC0136AB25AB89819A818C5B984FDA
S1131160FC0117AA89819A818C5B984F26E0FC01C7
S113117020AF89819A818C5B984F21E1FC0121AFDA
S113118089819A818C5B984FFC0112AE89819A8186
S11311908C5B984F26E1FC0123AF89819A818058AA
S11311A0984F9C0188E1E4E0F4E0D90101900D92AC
S11311B08A95E1F789819A818058984FFC0112AA97
S11311C089819A818058984F2CE231E0FC0134AB3C
S11311D023AB89819A818058984F22E030E0FC014A
S11311E036AB25AB89819A818058984FFC0117AAA8
S11311F089819A818058984F26E0FC0120AF89812B
S11312009A818058984F22E1FC0121AF89819A810B
S11312108058984FFC0112AE89819A818058984F6A
S113122027E1FC0123AF89819A818454984F9C0162
S11312308AE0E1E0F3E0D90101900D928A95E1F7AB
S113124089819A818454984F21E0FC0122AB8981E1
S11312509A818850984F9C0189E1ECE1F4E0D9012E
S113126001900D928A95E1F789819A818850984F6F
S1131270FC0112AA89819A818850984F20E431E0B8
S1131280FC0134AB23AB89819A818850984F22E0CA
S113129030E0FC0136AB25AB89819A818850984FA8
S11312A0FC0117AA89819A818850984F26E0FC0195
S11312B020AF89819A818850984F23E1FC0121AFA6
S11312C089819A818850984FFC0112AE89819A8154
S11312D08850984F28E1FC0123AF89819A818C5C66
S11312E0974F9C018EE0E5E3F4E0D90101900D9263
S11312F08A95E1F789819A818C5C974F27E0FC01FC
S113130022AB89819A818C5C974F28EC30E0FC01F8
S113131034AB23AB89819A818C5C974F22E030E017
S1131320FC0136AB25AB89819A818C5C974FFC011B
S113133017AA89819A818C5C974F28E0FC0120AF21
S113134089819A818C5C974F29E1FC0123AF8981C3
S11313509A818059974F9C0189E0E3E4F4E0D90134
S113136001900D928A95E1F789819A818059974F6E
S113137021E0FC0122AB89819A818455974F9C011D
S11313808FE1ECE4F4E0D90101900D928A95E1F744
S113139089819A818455974FFC0112AA89819A8187
S11313A08455974F2EE531E0FC0134AB23AB8981A2
S11313B09A818455974F22E030E0FC0136AB25AB8F
S11313C089819A818455974FFC0117AA89819A8152
S11313D08455974F27E0FC0120AF89819A81845579
S11313E0974F24E1FC0121AF89819A818455974F5D
S11313F0FC0112AE89819A818455974F2AE1FC0140
S113140023AF89819A818851974F9C0184E1EBE64F
S1131410F4E0D90101900D928A95E1F789819A81CE
S11314208851974F22E0FC0122AB89819A8188512F
S1131430974F24E630E0FC0134AB23AB89819A81D9
S11314408C5D964F9C018AE1EFE7F4E0D9010190AD
S11314500D928A95E1F789819A818C5D964FFC0102
S113146012AA89819A818C5D964F20E931E0FC01B2
S113147034AB23AB89819A818C5D964F22E030E0B6
S1131480FC0136AB25AB89819A818C5D964FFC01BA
S113149017AA89819A818C5D964F27E0FC0120AFC1
S11314A089819A818C5D964F25E1FC0121AF898168
S11314B09A818C5D964FFC0112AE89819A818C5D74
S11314C0964F2BE1FC0123AF00000F900F90DF91AA
S11314D0CF910895CF93DF93CDB7DEB7CB58D940E2
S11314E00FB6F894DEBF0FBECDBF0E943A010E9432
S11314F0B700CE014C960E940A028CE895E00E9447
S11315008F0180E00E947D1E0E94B02149E954E0D1
S113151060E081E00E941E0180E895E20E94F31ED3
S11315204BE954E060E081E00E941E010E94661EC7
S11315304DE954E060E081E00E941E0180E00E94D9
S11315407D1E0E94B0214FE954E060E081E00E94DA
S11315501E0141EA54E060E081E00E941E0143EA7A
S113156054E060E081E00E941E01198618860E9402
S113157006010E94090140E060E081E00E940C0144
S113158045EA54E060E080E00E941E014FEA54E026
S113159060E081E00E941E0149EB54E060E082E0DB
S11315A00E941E0181E08B831A8683E08D831E8254
S11315B094D68091F3059091F40561E00E949B1606
S11315C0809128069091290662E00E949B168091E2
S11315D05D0690915E0663E00E949B1680919206E0
S11315E09091930664E00E949B168B81882F90E073
S11315F0292F2F938F9382EC94E0892F8F9382EC81
S113160094E08F93CE018458964F292F2F938F9374
S11316100E94BB210F900F900F900F900F900F908E
S1131620CE018458964FAC0168E082E00E941E010E
S11316301B8689819A819D878C871A82198289E009
S113164091E0FC018081882F90E0382F222786E0EA
S113165091E0FC018081882F90E0822B932B9A8368
S113166089838C859D859C012095309589819A81FB
S1131670822393239987888788859985892B09F400
S113168097C28885998582709927892B51F080911A
S1131690F3059091F40503969093F4058093F30574
S11316A00FC08885998581709927892B49F080918D
S11316B0F3059091F40503979093F4058093F30553
S11316C08885998584709927892B51F08091280603
S11316D090912906039690932906809328060FC0BB
S11316E08885998588709927892B49F080912806E7
S11316F0909129060397909329068093280688855C
S1131700998580729927892B51F080915D0690917B
S11317105E06039690935E0680935D060FC08885EF
S1131720998580719927892B49F080915D06909164
S11317305E06039790935E0680935D06888599857F
S113174080789927892B51F0809192069091930685
S1131750039690939306809392060FC0888599858B
S113176080749927892B49F0809192069091930671
S1131770039790939306809392068885998588278A
S11317809470892B59F18C81882341F18B8183706A
S11317908F5F8B831C828B81882F90E0292F2F935E
S11317A08F9382EC94E0892F8F9382EC94E08F9353
S11317B0CE018458964F292F2F938F930E94BB21DB
S11317C00F900F900F900F900F900F90CE018458B0
S11317D0964FAC0168E082E00E941E0188859985DD
S11317E088279270892B09F4C7C18C81882309F05A
S11317F0C3C10E94B4188091C804882F90E0292F97
S11318002F938F9382EC94E0892F8F9382EC94E052
S11318108F93CE018458964F292F2F938F930E9434
S1131820BB210F900F900F900F900F900F90CE014F
S11318308458964FAC0169E080E00E941E018091BB
S1131840C904882F90E0292F2F938F9382EC94E082
S1131850892F8F9382EC94E08F93CE018458964F16
S1131860292F2F938F930E94BB210F900F900F90DD
S11318700F900F900F90CE018458964FAC0169E001
S113188081E00E941E019091C8048091C9049817B8
S113189019F481E08A8702C081E08C838B81282F30
S11318A030E045E3429FC001439F900D11248054D2
S11318B09A4FFC018081282F30E08091C804482F82
S11318C050E08091C904882F90E0840F951F820F07
S11318D0931F889784F18B81482F50E08B81282FA8
S11318E030E065E3629FC001639F900D1124825430
S11318F09A4FFC01808191819C0128533F4F65E3FD
S1131900649FC001659F900D112482549A4FFC017D
S1131910318320838B81282F30E045E3429FC0012F
S1131920439F900D112482549A4FFC018081918130
S11319306B810E949B168B81282F30E045E3429FE8
S1131940C001439F900D112480549A4FFC01808163
S11319508F8386C09F818DEC989F812D1124829561
S11319608695877028E2829F802D1124F92FF81B19
S11319708F2F6B8162D780E090E0A8ECB2E48E8771
S11319809F87A88BB98B20E030E04AE755E46E8549
S11319907F85888999890E94C520DC01CB018A8BC7
S11319A09B8BAC8BBD8B20E030E040E85FE36A8921
S11319B07B898C899D890E94771F88232CF481E080
S11319C090E09F8B8E8B3FC020E03FEF4FE757E4C2
S11319D06A897B898C899D890E94C12018164CF5DF
S11319E020E030E040E251E46E857F858889998962
S11319F00E94C520DC01CB01BC01CD010E94E31F84
S1131A00DC01CB019F8B8E8B0FC080E991E0998F15
S1131A10888F888D998D0197F1F7998F888F8E899A
S1131A209F8901979F8B8E8B8E899F89892B69F75C
S1131A3014C06A897B898C899D890E94E31FDC011B
S1131A40CB019F8B8E8B8E899F899B8F8A8F8A8DEA
S1131A509B8D0197F1F79B8F8A8F8F818F5F8F8387
S1131A608F81282F30E08B81482F50E065E3649FFD
S1131A70C001659F900D112480549A4FFC01808110
S1131A80482F50E08091C804682F70E08091C90409
S1131A90882F90E0860F971F840F951F281739070A
S1131AA00CF458CF8B81282F30E08B81482F50E0E5
S1131AB065E3649FC001659F900D112480549A4F83
S1131AC0FC018081482F50E08091C804682F70E0A9
S1131AD08091C904882F90E0860F971F840F951F6B
S1131AE048E250E0BA010E942821582F45E3429F62
S1131AF0C001439F900D112480549A4FFC015083E0
S1131B008B81282F30E045E3429FC001439F900D15
S1131B10112480549A4FFC0180816B818ED68B8175
S1131B20282F30E045E3429FC001439F900D1124CC
S1131B3080549A4FFC018081282F30E04CE3429F6F
S1131B40C001439F900D11249E012F5F3F4F820FD0
S1131B50931F835B9F4FFC0180818D838B81282F92
S1131B6030E045E3429FC001439F900D112480540F
S1131B709A4FFC0180818E838091F3059091F40546
S1131B8061E00E949B16809128069091290662E0EC
S1131B900E949B1680915D0690915E0663E00E9410
S1131BA09B16809192069091930664E00E949B1686
S1131BB08D81882F90E0092E000CAA0BBB0B40E00E
S1131BC050E027E030E0841B950B2817390708F410
S1131BD030CDFC018827EE58FF4F8F4F0C943B21EA
S1131BE08885998588279170892B09F4A3C08B81F6
S1131BF0282F30E045E3429FC001439F900D1124FC
S1131C0082549A4FFC01208131818E81482F50E00B
S1131C106CE3649FC001659F900D1124AE014F5F7A
S1131C205F4F840F951F825B9F4FFC0180819181E0
S1131C302817390708F47EC08E81282F30E04CE342
S1131C40429FC001439F900D11249E012F5F3F4F7F
S1131C50820F931F8E5A9F4FFC018081882309F0C5
S1131C6069C08B81482F50E08B81282F30E065E3D9
S1131C70629FC001639F900D112482549A4FFC010E
S1131C80208131818E81682F70E0ECE3E69FC001F2
S1131C90E79F900D1124BE016F5F7F4F860F971F42
S1131CA0825B9F4FFC0180819181281B390B65E386
S1131CB0649FC001659F900D112482549A4FFC01CA
S1131CC0318320838E81282F30E04CE3429FC00172
S1131CD0439F900D11249E012F5F3F4F820F931F4E
S1131CE08E5A9F4F2B81FC0120838E81282F30E058
S1131CF04CE3429FC001439F900D11249E012F5F2E
S1131D003F4F820F931F8A5A9F4FFC0180816B8142
S1131D1024D58B81282F30E045E3429FC001439FA7
S1131D20900D112482549A4FFC01808191816B8122
S1131D300E949B168885998588279870892BA1F025
S1131D408E81282F30E04CE3429FC001439F900DC9
S1131D5011249E012F5F3F4F820F931F8C5A9F4F78
S1131D60FC01808165E0DDD28885998599230CF09A
S1131D706EC18E81282F30E04CE3429FC001439F07
S1131D80900D11249E012F5F3F4F820F931F8C5A99
S1131D909F4FFC01808160E0C4D259C18885998538
S1131DA088279170892B09F454C18B81282F30E046
S1131DB045E3429FC001439F900D112482549A4FE2
S1131DC0FC01208131818E81482F50E06CE3649FB7
S1131DD0C001659F900D1124AE014F5F5F4F840FCA
S1131DE0951F825B9F4FFC018081918128173907E1
S1131DF008F42FC18E81282F30E04CE3429FC001AC
S1131E00439F900D11249E012F5F3F4F820F931F1C
S1131E108E5A9F4FFC018081882309F01AC18B815F
S1131E20482F50E08B81282F30E065E3629FC0018A
S1131E30639F900D112482549A4FFC0120813181BB
S1131E408E81682F70E0ECE3E69FC001E79F900D60
S1131E501124BE016F5F7F4F860F971F825B9F4FD8
S1131E60FC0180819181281B390B65E3649FC001CB
S1131E70659F900D112482549A4FFC013183208375
S1131E808E81282F30E04CE3429FC001439F900D88
S1131E9011249E012F5F3F4F820F931F8E5A9F4F35
S1131EA02B81FC0120838E81282F30E04CE3429F5C
S1131EB0C001439F900D11249E012F5F3F4F820F5D
S1131EC0931F8A5A9F4FFC0180816B8146D48B817A
S1131ED0282F30E045E3429FC001439F900D112419
S1131EE082549A4FFC01808191816B8124D7B1C0C7
S1131EF08B81B3D0B1C08885998588279170892B4F
S1131F0009F4A9C08B81282F30E045E3429FC0012A
S1131F10439F900D112482549A4FFC0120813181FA
S1131F208E81482F50E06CE3649FC001659F900D43
S1131F301124AE014F5F5F4F840F951F825B9F4F4B
S1131F40FC01808191812817390708F484C08E81AF
S1131F50282F30E04CE3429FC001439F900D112491
S1131F609E012F5F3F4F820F931F8E5A9F4FFC019C
S1131F708081882309F06FC08B81482F50E08B81CA
S1131F80282F30E065E3629FC001639F900D112408
S1131F9082549A4FFC01208131818E81682F70E038
S1131FA0ECE3E69FC001E79F900D1124BE016F5F33
S1131FB07F4F860F971F825B9F4FFC018081918129
S1131FC0281B390B65E3649FC001659F900D1124A4
S1131FD082549A4FFC01318320838E81282F30E074
S1131FE04CE3429FC001439F900D11249E012F5F3B
S1131FF03F4F820F931F8E5A9F4F2B81FC012083EA
S11320008E81282F30E04CE3429FC001439F900D06
S113201011249E012F5F3F4F820F931F8A5A9F4FB7
S1132020FC0180816B8199D38B81282F30E045E3BB
S1132030429FC001439F900D112482549A4FFC018A
S1132040808191816B8177D606C00000F2CA0000BE
S1132050F0CA0000EECA0000ECCACF93DF93CDB7FC
S1132060DEB76E970FB6F894DEBF0FBECDBF8E8F6E
S113207019820BC188E290E028E230E0F901208166
S11320802068FC01208388E290E028E230E0F90136
S113209020812F7BFC01208380E090E0A8ECB2E457
S11320A08A839B83AC83BD8320E030E04AE755E418
S11320B06A817B818C819D810E94C520DC01CB01DA
S11320C08C8B9D8BAE8BBF8B20E030E040E85FE3D0
S11320D06C897D898E899F890E94771F88232CF4BF
S11320E081E090E0998F888F3FC020E03FEF4FE779
S11320F057E46C897D898E899F890E94C1201816B6
S11321004CF520E030E040E251E46A817B818C812F
S11321109D810E94C520DC01CB01BC01CD010E9440
S1132120E31FDC01CB01998F888F0FC080E991E018
S11321309B8F8A8F8A8D9B8D0197F1F79B8F8A8F56
S1132140888D998D0197998F888F888D998D892B8A
S113215069F714C06C897D898E899F890E94E31F69
S1132160DC01CB01998F888F888D998D9D8F8C8F01
S11321708C8D9D8D0197F1F79D8F8C8F88E290E077
S113218028E230E0F90120812064FC01208388E208
S113219090E028E230E0F90120812F77FC012083D0
S11321A080E090E0A8ECB2E48E839F83A887B9878F
S11321B020E030E04AE755E46E817F818885998587
S11321C00E94C520DC01CB018A879B87AC87BD8731
S11321D020E030E040E85FE36A857B858C859D855F
S11321E00E94771F88232CF481E090E09F878E87DC
S11321F03FC020E03FEF4FE757E46A857B858C853D
S11322009D850E94C12018164CF520E030E040E284
S113221051E46E817F81888599850E94C520DC0107
S1132220CB01BC01CD010E94E31FDC01CB019F87E0
S11322308E870FC080E991E0998B888B8889998972
S11322400197F1F7998B888B8E859F8501979F87DE
S11322508E878E859F85892B69F714C06A857B8557
S11322608C859D850E94E31FDC01CB019F878E87AF
S11322708E859F859B8B8A8B8A899B890197F1F731
S11322809B8B8A8B89818F5F89838981843108F450
S1132290F1CE88E290E028E230E0F90120812F734A
S11322A0FC0120838E8D282F30E045E3429FC0013E
S11322B0439F900D112480549A4F2AE0FC012083FF
S11322C06E8D8AE0BAD200006E960FB6F894DEBF27
S11322D00FBECDBFDF91CF910895CF93DF931F92AF
S11322E0CDB7DEB78AEC94E00DD161E080E0A5D2F1
S11322F062E080E0A2D263E080E09FD264E080E00C
S11323009CD2198206C060E0898127D289818F5FBF
S1132310898389818C31B8F300000F90DF91CF91CC
S11323200895CF93DF9300D000D0CDB7DEB78D836F
S11323306E831A8219829D81892F880F880F890FD5
S11323408B838B818695869586958C838B8187700C
S11323508A838E81853019F480E1898310C08E814F
S1132360882F90E025E030E0281B390B80EE9FEFAA
S113237002C0969587952A95E2F7809589838A818C
S1132380843008F47CC08C81882F90E02C81222F2B
S113239030E026533B4FD9012C91622F2A81422FE2
S11323A050E02FE130E002C0220F331F4A95E2F7DC
S11323B02095262386539B4FFC0120838C81882FF4
S11323C090E001962C81222F30E02F5F3F4F26535F
S11323D03B4FD9012C91622F2A81222F30E048E013
S11323E050E0421B530B20EE3FEF02C0359527957A
S11323F04A95E2F7262386539B4FFC0120838C8168
S1132400882F90E02C81222F30E026533B4FD901B6
S11324102C91622F2981222F30E04A81442F50E0F1
S113242002C0220F331F4A95E2F7262B86539B4F97
S1132430FC0120838C81882F90E001962C81222F2F
S113244030E02F5F3F4F26533B4FD9012C91E22FB1
S11324502981222F30E04A81442F50E068E070E067
S1132460DB01A41BB50BAD0102C0359527954A9538
S1132470E2F72E2B86539B4FFC01208336C08C81C0
S1132480882F90E02C81222F30E026533B4FD90136
S11324902C91622F2A81422F50E02FE130E002C0BC
S11324A0220F331F4A95E2F72095262386539B4F2C
S11324B0FC0120838C81882F90E02C81222F30E036
S11324C026533B4FD9012C91622F2981222F30E0D2
S11324D04A81442F50E002C0220F331F4A95E2F78D
S11324E0262B86539B4FFC0120838AEC94E00AD070
S11324F0000026960FB6F894DEBF0FBECDBFDF9165
S1132500CF910895CF92DF92EF92FF92CF93DF9312
S1132510CDB7DEB7A0970FB6F894DEBF0FBECDBF20
S113252098A38F8F1A821982F4C08981882F90E032
S11325302EE030E0A901481B590BCA019C018F8D84
S113254098A1820F931FFC0180818A836A8180E0B5
S11325500E942B1F80E090E0AAEFB3E48B839C835E
S1132560AD83BE832BEA3AEA4AEA50E46B817C816C
S11325708D819E810E94C520DC01CB018F839887C9
S1132580A987BA8720E030E040E850E46B817C8181
S11325908D819E810E94C520DC01CB018B879C87A5
S11325A0AD87BE8720E030E040E85FE36F81788547
S11325B089859A850E94771F88230CF4A1C020E0A6
S11325C03FEF4FE757E46B857C858D859E850E94A0
S11325D0C12018160CF06DC020E030E04AE754E446
S11325E06B817C818D819E810E947B1FDC01CB01EC
S11325F06C017D0120E030E04AE755E4C701B601F3
S11326000E94C520DC01CB018F87988BA98BBA8BE4
S113261020E030E040E85FE36F85788989899A8912
S11326200E94771F8823D4F120E03FEF4FE757E45F
S11326306F85788989899A890E94C12018161CF5AA
S113264020E030E040E251E4C701B6010E94C52019
S1132650DC01CB01BC01CD010E94E31FDC01CB01F5
S11326609C8B8B8B0BC080E991E00197F1F79E8BDB
S11326708D8B8B899C8901979C8B8B8B8B899C89F7
S1132680892B89F73FC06F85788989899A890E9447
S1132690E31FDC01CB019C8B8B8B04C081E090E0B9
S11326A09C8B8B8B8B899C890197F1F7988F8F8BEF
S11326B029C020E030E04FE753E46F8178858985B5
S11326C09A850E94C12018168CF46B857C858D85B3
S11326D09E850E94E31FDC01CB019A8F898F898D2F
S11326E09A8D0197F1F79C8F8B8F10C06F8178853D
S11326F089859A850E94E31FDC01CB018D8F02C07E
S113270081E08D8F8D8D8A95F1F78E8F89818F5F12
S1132710898389818F3008F408CF8EE290E02EE21D
S113272030E0F90120812860FC0120838EE290E0F2
S11327302EE230E0F9012081277FFC012083000094
S1132740A0960FB6F894DEBF0FBECDBFDF91CF9138
S1132750FF90EF90DF90CF900895CF93DF9300D058
S113276000D0CDB7DEB78D836E831B828E81882F18
S113277090E082309105B9F0833091052CF40097F4
S113278049F0019759F021C08330910599F00497DD
S1132790B9F01BC019821A821B8217C082E3898395
S11327A01A821B8212C08EE1898382E38A8383E0CA
S11327B08B830BC082E3898384E18A831B8205C0F7
S11327C019821A8282E38B8300008D81882F90E026
S11327D09C01220F331F280F391F2B56394F498173
S11327E0F90140839C01220F331F280F391F2A56F9
S11327F0394F4A81F90140839C01220F331F280F6E
S1132800391FC9018956994F2B81FC0120831C82F1
S113281007C085E996E00E943F1F8C818F5F8C83FF
S11328208C818C31B0F3000026960FB6F894DEBF8D
S11328300FBECDBFDF91CF910895CF92DF92EF927B
S1132840FF92CF93DF93CDB7DEB7A5970FB6F89479
S1132850DEBF0FBECDBF8CA36DA31C821D828DA1D4
S1132860882F90E0019788589A4FFC018081882F27
S113287090E0880F991F880F991F99230CF40796ED
S11328809595879595958795959587958E838DA133
S1132890882F90E0019788589A4FFC018081880F17
S11328A0880F84708F838DA194D18D838E81282F7E
S11328B030E08F81482F50E08DA1882F90E0019760
S11328C0480F591F8D81082E000C990B840F951FFA
S11328D0220F331F220F331F220F331F820F931F28
S11328E088529B4FFC0110828DA1882F90E00197A4
S11328F088589A4F2CA1FC0120838CA1882F90E04A
S1132900880F991F880F991F99230CF407969595A2
S1132910879595958795959587958E838CA1880F36
S1132920880F84708F838DA154D18D838E81282F3D
S113293030E08F81482F50E08DA1882F90E00197DF
S1132940480F591F8D81082E000C990B840F951F79
S1132950220F331F220F331F220F331F820F931FA7
S113296088529B4F21E0FC01208319821A820DC1F9
S113297019821B8225C08981880F89838A81882FC7
S113298090E024E130E0281B390B8B81882F90E004
S113299047E050E0BA01681B790BCB01220F331FCB
S11329A0220F331F220F331F820F931F88529B4F16
S11329B0FC0180819981892B89838B818F5F8B8333
S11329C08B818830C0F289810E94FA1E80E090E0F9
S11329D0AAEFB3E488879987AA87BB872BEA3AEAE8
S11329E04AEA50E4688579858A859B850E94C520DA
S11329F0DC01CB018C879D87AE87BF8720E030E068
S1132A0040E850E4688579858A859B850E94C520C5
S1132A10DC01CB01888B998BAA8BBB8B20E030E047
S1132A2040E85FE36C857D858E859F850E94771FD6
S1132A3088230CF4A1C020E03FEF4FE757E46889F6
S1132A4079898A899B890E94C12018160CF06DC06F
S1132A5020E030E04AE754E4688579858A859B85DF
S1132A600E947B1FDC01CB016C017D0120E030E082
S1132A704AE755E4C701B6010E94C520DC01CB0139
S1132A808C8B9D8BAE8BBF8B20E030E040E85FE306
S1132A906C897D898E899F890E94771F8823D4F150
S1132AA020E03FEF4FE757E46C897D898E899F8949
S1132AB00E94C12018161CF520E030E040E251E4E9
S1132AC0C701B6010E94C520DC01CB01BC01CD01C8
S1132AD00E94E31FDC01CB01998F888F0BC080E932
S1132AE091E00197F1F79B8F8A8F888D998D0197DB
S1132AF0998F888F888D998D892B89F73FC06C8930
S1132B007D898E899F890E94E31FDC01CB01998F07
S1132B10888F04C081E090E0998F888F888D998D8B
S1132B200197F1F79D8F8C8F29C020E030E04FE7AB
S1132B3053E46C857D858E859F850E94C12018167F
S1132B408CF4688979898A899B890E94E31FDC0156
S1132B50CB019F8F8E8F8E8D9F8D0197F1F799A357
S1132B6088A310C06C857D858E859F850E94E31F98
S1132B70DC01CB018AA302C081E08AA38AA18A95E1
S1132B80F1F78BA38A818F5F8A838A81853108F468
S1132B90EFCE85E290E025E230E0F901208120616A
S1132BA0FC01208385E290E025E230E0F9012081F8
S1132BB02F7EFC0120830000A5960FB6F894DEBF9B
S1132BC00FBECDBFDF91CF91FF90EF90DF90CF90FC
S1132BD00895CF93DF931F921F92CDB7DEB78A83F8
S1132BE019828A81882F90E0019788589A4FFC01B6
S1132BF080818A3010F4198298C08A81882F90E0ED
S1132C00019788589A4FFC0180818A3048F18A8163
S1132C10882F90E0019788589A4FFC018081843175
S1132C20F8F48A81882F90E08230910579F083301E
S1132C3091051CF4019739F078C08330910549F06F
S1132C40049751F072C081E0898309C082E08983CE
S1132C5006C08EEF898303C08FEF8983000065C0AF
S1132C608A81882F90E0019788589A4FFC018081CF
S1132C70843148F18A81882F90E0019788589A4FCF
S1132C80FC0180818E31F8F48A81882F90E08230B3
S1132C90910579F0833091051CF4019739F045C012
S1132CA08330910549F0049751F03FC083E0898354
S1132CB009C081E0898306C08FEF898303C08DEF4B
S1132CC08983000032C08A81882F90E00197885858
S1132CD09A4FFC0180818E3140F18A81882F90E0E7
S1132CE0019788589A4FFC0180818832F0F48A81D8
S1132CF0882F90E08230910579F0833091051CF49F
S1132D00019739F012C08330910549F0049751F0CE
S1132D100CC082E0898309C08FEF898306C081E0FB
S1132D20898303C08EEF8983000089810F900F90FF
S1132D30DF91CF910895CF92DF92EF92FF92CF93DC
S1132D40DF93CDB7DEB7A5970FB6F894DEBF0FBEFD
S1132D50CDBF9CA38BA36DA31A828BA19CA1969536
S1132D60879596958795969587959C01A5ECB0E2F5
S1132D700E944321AC01529542954F7045275F70E4
S1132D8045279A01ADECBCEC0E94432196958795AA
S1132D909695879596958795880F991F9C01220F84
S1132DA0331F220F331F820F931F9A01281B390BE5
S1132DB0C9018B838BA19CA1969587959695879540
S1132DC09C01ABE7B4E10E944321AC0156954795C1
S1132DD09A01ADECBCEC0E9443219695879596959B
S1132DE0879596958795880F991F9C01220F331F0D
S1132DF0220F331F820F931FFA01E81BF90BCF0137
S1132E008C838BA19CA19C01ADECBCEC0E94432162
S1132E10AC015695479556954795569547959A0111
S1132E20ADECBCEC0E9443219695879596958795C9
S1132E3096958795880F991F9C01220F331F220FA7
S1132E40331F820F931F9A01281B390BC9018D83ED
S1132E504BA15CA19A01ADECBCEC0E944321969578
S1132E6087959695879596958795880F991F9C01C8
S1132E70220F331F220F331F820F931FFA01E81B07
S1132E80F90BCF018E838DA1882F90E00197880FD5
S1132E90991F880F991F2B81222F30E02C5F3D4F03
S1132EA0F901208184589A4FFC0120838DA1882F39
S1132EB090E00197880F991F880F991F01962C8124
S1132EC0222F30E02C5F3D4FF901208184589A4F26
S1132ED0FC0120838DA1882F90E00197880F991F12
S1132EE0880F991F02962D81222F30E02C5F3D4FD1
S1132EF0F901208184589A4FFC0120838DA1882FE9
S1132F0090E00197880F991F880F991F03962E81CF
S1132F10222F30E02C5F3D4FF901208184589A4FD5
S1132F20FC0120831982E8C08981882F90E020E188
S1132F3030E0A901481B590BCA0184589A4FFC017F
S1132F408081682F82E087D780E090E0AAEFB3E425
S1132F508F839887A987BA872BEA3AEA4AEA50E42A
S1132F606F81788589859A850E94C520DC01CB0113
S1132F708B879C87AD87BE8720E030E040E850E433
S1132F806F81788589859A850E94C520DC01CB01F3
S1132F908F87988BA98BBA8B20E030E040E85FE301
S1132FA06B857C858D859E85A2D788230CF49BC078
S1132FB020E03FEF4FE757E46F85788989899A8944
S1132FC00E94C12018160CF069C020E030E04AE7E6
S1132FD054E46F81788589859A858DD7DC01CB018E
S1132FE06C017D0120E030E04AE755E4C701B601F9
S1132FF00E94C520DC01CB018B8B9C8BAD8BBE8BDF
S113300020E030E040E85FE36B897C898D899E890C
S11330106ED78823C4F120E03FEF4FE757E46B8974
S11330207C898D899E890E94C120181614F520E0A0
S113303030E040E251E4C701B6010E94C520DC0142
S1133040CB01BC01CD01BFD7DC01CB01988F8F8BA5
S11330500BC080E991E00197F1F79A8F898F8F89EE
S1133060988D0197988F8F8B8F89988D892B89F7ED
S11330703CC06B897C898D899E89A5D7DC01CB01F5
S1133080988F8F8B04C081E090E0988F8F8B8F890D
S1133090988D0197F1F79C8F8B8F27C020E030E04B
S11330A04FE753E46B857C858D859E850E94C12006
S11330B0181684F46F85788989899A8984D7DC0104
S11330C0CB019E8F8D8F8D8D9E8D0197F1F798A3E7
S11330D08F8F0FC06B857C858D859E8574D7DC01B1
S11330E0CB0189A302C081E089A389A18A95F1F764
S11330F08AA389818F5F89838981813108F414CF00
S113310082E091E022E031E0F90120812860FC01B5
S1133110208382E091E022E031E0F9012081277FE1
S1133120FC0120830000A5960FB6F894DEBF0FBE05
S1133130CDBFDF91CF91FF90EF90DF90CF900895B6
S1133140CF93DF931F92CDB7DEB719820E94AD21D2
S113315026E030E0B9010E9428218F5F89838981AC
S11331600F90DF91CF910895CF92DF92EF92FF926B
S11331700F931F93CF93DF93CDB7DEB7C159D10916
S11331800FB6F894DEBF0FBECDBF1A821982DFC21C
S1133190D7DF8B83D5DF8A838B81882F90E0292F1B
S11331A02F938F9385EC94E0892F8F9385EC94E093
S11331B08F93CE018E579F4F292F2F938F930E9469
S11331C0BB210F900F900F900F900F900F90CE0196
S11331D08E579F4FAC0169E080E00E941E018A81F6
S11331E0882F90E0292F2F938F9385EC94E0892FDB
S11331F08F9385EC94E08F93CE018E579F4F292FA8
S11332002F938F930E94BB210F900F900F900F90DC
S11332100F900F90CE018E579F4FAC0169E081E073
S11332200E941E018A81882F90E08C5F9D4FFC01D3
S11332308081682F83E00FD680E090E0AAEFB3E4AA
S113324088879987AA87BB872BEA3AEA4AEA50E437
S1133250688579858A859B8598D7DC01CB018AAFFF
S11332609BAFACAFBDAF8E01025C1F4F20E030E0DE
S113327040E850E4688579858A859B8586D7DC019A
S1133280CB01F80180839183A283B38320E030E0F3
S113329040E85FE36AAD7BAD8CAD9DAD28D6882355
S11332A00CF4E2C0CE01CE9620E03FEF4FE757E4A6
S11332B0FC01608171818281938163D718160CF0BF
S11332C09CC020E030E04AE754E4688579858A852B
S11332D09B8511D6DC01CB016C017D018E010E5B57
S11332E01F4F20E030E04AE755E4C701B6014DD74F
S11332F0DC01CB01F80180839183A283B383CE01E7
S11333008E5B9F4F20E030E040E85FE3FC0160818A
S1133310718182819381EBD588230CF457C0CE014F
S11333208E5B9F4F20E03FEF4FE757E4FC01608145
S113333071818281938125D71816B4F520E030E09D
S113334040E251E4C701B60120D7DC01CB018E0174
S11333500A5B1F4FBC01CD0136D6DC01CB01F8015D
S11333609183808318C080E991E00197F1F79E0171
S1133370285B3F4FF90191838083CE018A5B9F4F85
S11333809E012A5B3F4FF90120813181215031098F
S1133390FC0131832083CE018A5B9F4FFC01808135
S11333A09181892B01F766C08E010A5B1F4FCE0104
S11333B08E5B9F4FFC01608171818281938103D672
S11333C0DC01CB01F8019183808308C0CE018A5BC4
S11333D09F4F21E030E0FC0131832083CE018A5BE2
S11333E09F4FFC01808191810197F1F79E01265B3B
S11333F03F4FF901918380833DC020E030E04FE7E7
S113340053E46AAD7BAD8CAD9DADBBD61816FCF410
S11334108E01045B1F4FCE01CE96FC016081718149
S113342082819381D0D5DC01CB01F8019183808323
S1133430CE01845B9F4FFC01808191810197F1F75C
S11334409E01225B3F4FF9019183808320C08E014E
S1133450005B1F4F6AAD7BAD8CAD9DADB4D5DC0177
S1133460CB01F801808306C0CE01805B9F4F21E031
S1133470FC012083CE01805B9F4FFC018081282FBB
S11334802A95F1F7CE018F5A9F4FFC0120838B813F
S1133490882F90E08C5F9D4FFC018081682F83E032
S11334A0DAD480E090E0AAEFB3E48C879D87AE87FE
S11334B0BF872BEA3AEA4AEA50E46C857D858E851B
S11334C09F8563D6DC01CB018AA39BA3ACA3BDA3D8
S11334D020E030E040E850E46C857D858E859F8552
S11334E054D6DC01CB018EA39FA3A8A7B9A720E0E3
S11334F030E040E85FE36AA17BA18CA19DA1F7D4F1
S113350088230CF496C020E03FEF4FE757E46EA108
S11335107FA188A599A535D618160CF066C020E0C1
S113352030E04AE754E46C857D858E859F85E3D43D
S1133530DC01CB016C017D0120E030E04AE755E479
S1133540C701B60122D6DC01CB018AA79BA7ACA791
S1133550BDA720E030E040E85FE36AA57BA58CA529
S11335609DA5C5D48823B4F120E03FEF4FE757E48D
S11335706AA57BA58CA59DA504D618160CF520E09C
S113358030E040E251E4C701B601FFD5DC01CB01D4
S1133590BC01CD0118D5DC01CB019FA78EA70BC0C0
S11335A080E991E00197F1F799AB88AB8EA59FA5CF
S11335B001979FA78EA78EA59FA5892B89F73BC04E
S11335C06AA57BA58CA59DA5FED4DC01CB019FA794
S11335D08EA704C081E090E09FA78EA78EA59FA52B
S11335E00197F1F79BAB8AAB26C020E030E04FE7B0
S11335F053E46AA17BA18CA19DA1C3D5181684F4C0
S11336006EA17FA188A599A5DED4DC01CB019DAB79
S11336108CAB8CA99DA90197F1F79FAB8EAB0FC022
S11336206AA17BA18CA19DA1CED4DC01CB0188AF82
S113363002C081E088AF88AD8A95F1F789AF85E053
S113364091E025E031E0F90120812860FC0120832C
S113365085E091E025E031E0F9012081277FFC013C
S113366020838981282F30E0C901880F991F820F98
S1133670931F0F96092E000CAA0BBB0BBC01CD01A6
S1133680D0D4DC01CB018C8B9D8BAE8BBF8B20E027
S113369030E04AE755E46C897D898E899F8975D528
S11336A0DC01CB01888F998FAA8FBB8F20E030E09B
S11336B040E85FE3688D798D8A8D9B8D18D48823CB
S11336C00CF438C020E03FEF4FE757E4688D798D64
S11336D08A8D9B8D56D518161CF520E030E040E20B
S11336E051E46C897D898E899F894FD5DC01CB019A
S11336F0BC01CD0168D4DC01CB019D8F8C8F0BC044
S113370080E991E00197F1F79F8F8E8F8C8D9D8DCD
S113371001979D8F8C8F8C8D9D8D892B89F714C07B
S1133720688D798D8A8D9B8D4ED4DC01CB019D8F64
S11337308C8F04C081E090E09D8F8C8F8C8D9D8D4B
S11337400197F1F799A388A389818F5F8983898180
S1133750823308F41DCDF4DC8B83F2DC8A838A8106
S1133760882F90E08C5F9D4FFC018081682F83E05F
S113377072D380E090E0AAEFB3E4888B998BAA8B94
S1133780BB8B8E0106591F4F2BEA3AEA4AEA50E4F2
S1133790688979898A899B89F8D4DC01CB01F8018D
S11337A080839183A283B3838E0102591F4F20E04B
S11337B030E040E850E4688979898A899B89E5D4B6
S11337C0DC01CB01F80180839183A283B383CE0112
S11337D086599F4F20E030E040E85FE3FC016081C0
S11337E071818281938183D388230CF4ECC0CE0150
S11337F082599F4F20E03FEF4FE757E4FC0160817F
S1133800718182819381BDD418160CF09CC020E094
S113381030E04AE754E4688979898A899B896BD3C3
S1133820DC01CB016C017D018E010E581F4F20E09D
S113383030E04AE755E4C701B601A7D4DC01CB0167
S1133840F80180839183A283B383CE018E589F4F66
S113385020E030E040E85FE3FC0160817181828117
S1133860938145D388230CF457C0CE018E589F4FC3
S113387020E03FEF4FE757E4FC01608171818281D2
S113388093817FD41816B4F520E030E040E251E48F
S1133890C701B6017AD4DC01CB018E010A581F4F4F
S11338A0BC01CD0190D3DC01CB01F801918380836D
S11338B018C080E991E00197F1F79E0128583F4F25
S11338C0F90191838083CE018A589F4F9E012A5823
S11338D03F4FF9012081318121503109FC013183AD
S11338E02083CE018A589F4FFC0180819181892BCE
S11338F001F76FC08E010A581F4FCE018E589F4F9B
S1133900FC0160817181828193815DD3DC01CB01F3
S1133910F8019183808308C0CE018A589F4F21E02B
S113392030E0FC0131832083CE018A589F4FFC0193
S1133930808191810197F1F79E0126583F4FF9014B
S11339409183808346C0CE0186599F4F20E030E0AA
S11339504FE753E4FC01608171818281938111D42A
S1133960181604F58E0104581F4FCE0182599F4F3B
S1133970FC01608171818281938125D3DC01CB01BB
S1133980F80191838083CE0184589F4FFC0180818C
S113399091810197F1F79E0122583F4FF9019183DC
S11339A0808324C08E0100581F4FCE0186599F4F3B
S11339B0FC01608171818281938105D3DC01CB019B
S11339C0F801808306C0CE0180589F4F21E0FC019E
S11339D02083CE0180589F4FFC018081282F2A9597
S11339E0F1F7CE018F579F4FFC0120838B81882FE5
S11339F090E08C5F9D4FFC018081682F83E02BD287
S1133A0080E090E0AAEFB3E48C839D83AE83BF8310
S1133A108E010E5A1F4F2BEA3AEA4AEA50E46C81AF
S1133A207D818E819F81B1D3DC01CB01F80180833C
S1133A309183A283B3838E010A5A1F4F20E030E0A2
S1133A4040E850E46C817D818E819F819ED3DC01AE
S1133A50CB01F80180839183A283B383CE018E5A74
S1133A609F4F20E030E040E85FE3FC01608171811A
S1133A70828193813CD288230CF4ECC0CE018A5A13
S1133A809F4F20E03FEF4FE757E4FC0160817181D5
S1133A908281938176D318160CF09CC020E030E02C
S1133AA04AE754E46C817D818E819F8124D2DC01BC
S1133AB0CB016C017D018E01065A1F4F20E030E0DE
S1133AC04AE755E4C701B60160D3DC01CB01F80134
S1133AD080839183A283B383CE01865A9F4F20E0D3
S1133AE030E040E85FE3FC01608171818281938171
S1133AF0FED188230CF457C0CE01865A9F4F20E094
S1133B003FEF4FE757E4FC0160817181828193812B
S1133B1038D31816B4F520E030E040E251E4C70190
S1133B20B60133D3DC01CB018E01025A1F4FBC0115
S1133B30CD0149D2DC01CB01F8019183808318C007
S1133B4080E991E00197F1F79E01205A3F4FF90176
S1133B5091838083CE01825A9F4F9E01225A3F4F08
S1133B60F9012081318121503109FC013183208305
S1133B70CE01825A9F4FFC0180819181892B01F7EC
S1133B806FC08E01025A1F4FCE01865A9F4FFC010F
S1133B90608171818281938116D2DC01CB01F801AD
S1133BA09183808308C0CE01825A9F4F21E030E088
S1133BB0FC0131832083CE01825A9F4FFC01808116
S1133BC091810197F1F79E012E593F4FF90191839D
S1133BD0808346C0CE018E5A9F4F20E030E04FE7ED
S1133BE053E4FC016081718182819381CAD21816E9
S1133BF004F58E010C591F4FCE018A5A9F4FFC01C8
S1133C006081718182819381DED1DC01CB01F80175
S1133C1091838083CE018C599F4FFC0180819181D7
S1133C200197F1F79E012A593F4FF901918380834F
S1133C3024C08E0108591F4FCE018E5A9F4FFC019C
S1133C406081718182819381BED1DC01CB01F80155
S1133C50808306C0CE0188599F4F21E0FC01208358
S1133C60CE0188599F4FFC018081282F2A95F1F7B6
S1133C70CE0187599F4FFC01208385E091E025E028
S1133C8031E0F90120812860FC01208385E091E086
S1133C9025E031E0F9012081277FFC0120838B811D
S1133CA08093C8048A818093C9040000CF56DF4FF3
S1133CB00FB6F894DEBF0FBECDBFDF91CF911F9139
S1133CC00F91FF90EF90DF90CF900895CF93DF9303
S1133CD0CDB7DEB78CE790E020E4FC0120838EE7CB
S1133CE090E02FE0FC0120838AE790E027E8FC01C4
S1133CF020830000DF91CF910895CF93DF931F922B
S1133D00CDB7DEB789838CE790E02CE730E0F9018A
S1133D102081207FFC0120838CE790E02CE730E0B9
S1133D20F9012081322F29812770232BFC01208364
S1133D308BE790E02BE730E0F9012081277FFC013D
S1133D4020838BE790E02BE730E0F9012081322FCC
S1133D5029812870232BFC0120838AE790E02AE73D
S1133D6030E0F90120812064FC01208300008AE70F
S1133D7090E0FC018081882F90E080749927892B42
S1133D80B1F788E790E0FC01808191810F90DF9189
S1133D90CF9108958CB581658CBD8DB581608DBD45
S1133DA00895E4ECF0E01182108230EC3093C2000C
S1133DB028E12093C10090E091838083E4EDF0E05A
S1133DC0118210823093D2002093D100918380839A
S1133DD0E4E3F1E011821082309332012093310147
S1133DE0918380830895CF93C82FD4DF8C2FD9DF9C
S1133DF0CF9108958EBD0DB407FEFDCF0895909127
S1133E00C00095FFFCCF8093C6008091C00088233A
S1133E10E4F708959091C80095FFFCCF8093CE00FD
S1133E208091C8008823E4F708959091D00095FF0D
S1133E30FCCF8093D6008091D0008823E4F70895C6
S1133E409091300195FFFCCF809336018091300131
S1133E508823E4F70895813049F028F0823049F04E
S1133E60833051F00895862FCACF0895862FD2CF7C
S1133E700895862FDACF0895862FE2CF0895FC01A6
S1133E8082B18E7F82B981B1816081B9F8942CE1CD
S1133E9030E021C00190008007D0029005D001904D
S1133EA00190019001D016C007D006D005D004D0EF
S1133EB003D002D001D000C0109A001C0000000002
S1133EC008F010980000000000000000000008F452
S1133ED0109808959A01A90141505109232B09F022
S1133EE0D9CF789480EB94E00197F1F70895D4D07A
S1133EF008F481E008950CD00AC102D140F0F9D051
S1133F0030F021F45F3F19F0EBC0511134C1EEC021
S1133F100FD198F39923C9F35523B1F3951B550B8E
S1133F20BB27AA2762177307840738F09F5F5F4F88
S1133F30220F331F441FAA1FA9F333D00E2E3AF0C9
S1133F40E0E830D091505040E695001CCAF729D0E3
S1133F50FE2F27D0660F771F881FBB1F2617370732
S1133F604807AB07B0E809F0BB0B802DBF01FF2762
S1133F7093585F4F2AF09E3F510568F0B1C0FBC0D3
S1133F805F3FECF3983EDCF3869577956795B7959C
S1133F90F7959F5FC9F7880F911D9695879597F9B7
S1133FA00895E1E0660F771F881FBB1F6217730730
S1133FB08407BA0720F0621B730B840BBA0BEE1F45
S1133FC088F7E0950895BCD088F09F5790F0B92FFA
S1133FD09927B751A0F0D1F0660F771F881F991F5A
S1133FE01AF0BA95C9F712C0B13081F0C3D0B1E06C
S1133FF00895C0C0672F782F8827B85F39F0B93F7C
S1134000CCF3869577956795B395D9F73EF490955B
S11340108095709561957F4F8F4F9F4F0895E894D9
S113402009C097FB3EF490958095709561957F4FFC
S11340308F4F9F4F9923A9F0F92F96E9BB279395AA
S1134040F695879577956795B795F111F8CFFAF4BA
S1134050BB0F11F460FF1BC06F5F7F4F8F4F9F4FEB
S113406016C0882311F096E911C0772321F09EE849
S1134070872F762F05C0662371F096E8862F70E0AF
S113408060E02AF09A95660F771F881FDAF7880F89
S11340909695879597F90895990F0008550FAA0BDF
S11340A0E0E8FEEF16161706E807F907C0F0121647
S11340B01306E407F50798F0621B730B840B950B4A
S11340C039F40A2661F0232B242B252B21F408959F
S11340D00A2609F4A140A6958FEF811D811D08953C
S11340E097F99F6780E870E060E008959FEF80ECA7
S11340F0089500240A94161617061806090608954A
S113410000240A9412161306140605060895092EAF
S11341100394000C11F4882352F0BB0F40F4BF2B1E
S113412011F460FF04C06F5F7F4F8F4F9F4F08955E
S113413057FD9058440F551F59F05F3F71F0479554
S1134140880F97FB991F61F09F3F79F08795089539
S1134150121613061406551FF2CF4695F1DF08C058
S1134160161617061806991FF1CF86957105610575
S113417008940895E894BB2766277727CB0197F91D
S113418008958ADF08F48FEF08950BD0C0CFB1DF14
S113419028F0B6DF18F0952309F0A2CFA7CF112499
S11341A0EACFC6DFA0F3959FD1F3950F50E0551FDA
S11341B0629FF001729FBB27F00DB11D639FAA2778
S11341C0F00DB11DAA1F649F6627B00DA11D661FC7
S11341D0829F2227B00DA11D621F739FB00DA11DE8
S11341E0621F839FA00D611D221F749F3327A00DA2
S11341F0611D231F849F600D211D822F762F6A2F3E
S113420011249F5750408AF0E1F088234AF0EE0FC2
S1134210FF1FBB1F661F771F881F91505040A9F7CF
S11342209E3F510570F05CCFA6CF5F3FECF3983E04
S1134230DCF3869577956795B795F795E7959F5F36
S1134240C1F7FE2B880F911D9695879597F90895D0
S113425097FB072E16F4009406D077FD08D022D0E1
S113426007FC05D03EF4909581959F4F0895709575
S113427061957F4F0895EE0FFF1F881F8BBF079036
S1134280F691E02D1994A29FB001B39FC001A39FA2
S1134290700D811D1124911DB29F700D811D11247B
S11342A0911D0895AA1BBB1B51E107C0AA1FBB1F88
S11342B0A617B70710F0A61BB70B881F991F5A95AE
S11342C0A9F780959095BC01CD0108958F929F9296
S11342D0AF92BF92CF92DF92EF92FF92CF93DF9390
S11342E0EC01688179818A819B8161157105810561
S11342F0910521F464E279ED8BE597E02DE133EF4C
S113430041E050E013D349015A019B01AC01A7EAF3
S1134310B1E428D36B017C01ACEEB4EFA5019401A8
S11343202DD3DC01CB018C0D9D1DAE1DBF1DB7FF30
S113433003C00197A109B04888839983AA83BB83EA
S11343409F77DF91CF91FF90EF90DF90CF90BF9058
S1134350AF909F908F900895B9CF80E092E0B6CF50
S1134360A0E0B0E08093000290930102A0930202C7
S1134370B093030208950F931F93CF93DF93CDB7A8
S1134380DEB72E970FB6F894DEBF0FBECDBF0E89F1
S11343901F8986E08C831A8309838FEF9FE79E83AE
S11343A08D83AE01465E5F4F688D798DCE01019697
S11343B010D0EF81F885E00FF11F10822E960FB612
S11343C0F894DEBF0FBECDBFDF91CF911F910F9147
S11343D008952F923F924F925F926F927F928F92A5
S11343E09F92AF92BF92CF92DF92EF92FF920F9380
S11343F01F93CF93DF93CDB7DEB72B970FB6F89407
S1134400DEBF0FBECDBF6C017B018A01FC011782A8
S11344101682838181FFBFC1CE0101963C01F60162
S11344209381F70193FD859193FF81917F01882307
S113443009F4ADC1853239F493FD859193FF8191DF
S11344407F01853221F4B60190E0D6D1E8CF912CDA
S1134450212C312CFFE1F315D8F08B3279F038F4AC
S1134460803279F08332A1F4232D20611DC08D3276
S113447061F0803369F4232D216016C0832D82609E
S1134480382EE32DE4603E2E2AC0F32DF8601DC0C3
S113449037FC2DC020ED280F2A3040F08E32B9F4BD
S11344A036FC75C1232D2064322E19C036FE06C099
S11344B08AE0989E200D1124922E11C0EAE02E9ECF
S11344C0200D1124222EF32DF0623F2E08C08C36CD
S11344D021F4832D8068382E02C0883641F4F70118
S11344E093FD859193FF81917F018111B3CF982F23
S11344F09F7D9554933028F40C5F1F4F9FE399835D
S11345000DC0833631F0833771F0833509F055C01F
S113451020C0F801808189830E5F1F4F8824839413
S1134520912C530112C02801F2E04F0E511CF801E6
S1134530A080B18036FE03C0692D70E002C06FEF29
S11345407FEFC5014ED14C018201F32DFF773F2E41
S113455015C0280122E0420E511CF801A080B18050
S113456036FE03C0692D70E002C06FEF7FEFC50116
S11345702DD14C01F32DF0683F2E820133FC19C07C
S1134580822D90E088169906A0F4B60180E290E0AE
S113459033D12A94F5CFF50137FC859137FE81910B
S11345A05F01B60190E028D121102A9421E0821AFB
S11345B091088114910479F7E1C0843611F08936A9
S11345C039F5F80137FE07C06081718182819381DA
S11345D00C5F1F4F08C060817181072E000C880B8F
S11345E0990B0E5F1F4FF32DFF763F2E97FF09C0E7
S11345F090958095709561957F4F8F4F9F4FF06890
S11346003F2E2AE030E0A30133D1882E861844C01F
S1134610853731F4232D2F7EB22E2AE030E025C0D9
S1134620932D997FB92E8F36C1F018F4883579F01F
S1134630AEC0803719F0883721F0A9C0E92FE061B6
S1134640BE2EB4FE0DC0FB2DF460BF2E09C034FE97
S11346500AC0292F2660B22E06C028E030E005C02B
S113466020E130E002C020E132E0F801B7FE07C0EB
S113467060817181828193810C5F1F4F06C06081CC
S1134680718180E090E00E5F1F4FA301F1D0882E6E
S11346908618FB2DFF773F2E36FE0DC0232D2E7F6F
S11346A0A22E891458F434FE0BC032FC09C0832DA9
S11346B08E7EA82E05C0B82CA32C03C0B82C01C034
S11346C0B92CA4FE0FC0FE01E80DF11D80818033DA
S11346D021F49A2D997EA92E09C0A2FE06C0B39496
S11346E0B39404C08A2D867809F0B394A3FC10C057
S11346F0A0FE06C0B21480F4280C922C9B180DC0A6
S1134700B21458F4B60180E290E076D0B394F8CFB6
S1134710B21418F42B1802C0982C212CA4FE0FC03C
S1134720B60180E390E068D0A2FE16C0A1FC03C0ED
S113473088E790E002C088E590E0B6010CC08A2DBD
S1134740867851F0A1FE02C08BE201C080E2A7FC92
S11347508DE2B60190E050D0891430F4B60180E3C4
S113476090E04AD09A94F8CF8A94F301E80DF11DB1
S11347708081B60190E040D08110F6CF222009F468
S11347804ECEB60180E290E037D02A94F7CFF601FE
S11347908681978102C08FEF9FEF2B960FB6F89416
S11347A0DEBF0FBECDBFDF91CF911F910F91FF9060
S11347B0EF90DF90CF90BF90AF909F908F907F90BD
S11347C06F905F904F903F902F900895FC0105905B
S11347D0615070400110D8F7809590958E0F9F1FFF
S11347E00895FC016150704001900110D8F7809544
S11347F090958E0F9F1F08950F931F93CF93DF9370
S1134800FB01238121FD03C08FEF9FEF2CC022FF0A
S113481016C046815781248135814217530744F4D9
S1134820A081B1819D012F5F3F4F318320838C9301
S1134830268137812F5F3F4F3783268314C08B0136
S1134840EC01FB010084F185E02D1995892BE1F63B
S1134850D80116968D919C911797019617969C9363
S11348608E931697CE01DF91CF911F910F910895EA
S1134870FA01AA27283051F1203181F1E8946F938D
S11348806E7F6E5F7F4F8F4F9F4FAF4FB1E03ED033
S1134890B4E03CD0670F781F891F9A1FA11D680FD1
S11348A0791F8A1F911DA11D6A0F711D811D911D04
S11348B0A11D20D009F468943F912AE0269F112479
S11348C03019305D3193DEF6CF010895462F4770DD
S11348D0405D4193B3E00FD0C9F7F6CF462F4F7038
S11348E0405D4A3318F0495D31FD4052419302D096
S11348F0A9F7EACFB4E0A69597958795779567953C
S1134900BA95C9F700976105710508959B01AC013B
S11349100A2E06945795479537952795BA95C9F762
S1134920620F731F841F951FA01D0895052E97FB0A
S113493016F400940FD057FD05D024D007FC02D004
S113494046F408C050954095309521953F4F4F4F00
S11349505F4F089590958095709561957F4F8F4F27
S11349609F4F089590DCA59F900DB49F900DA49F38
S1134970800D911D11240895B7FFF4CFF3DF821B3E
S1134980930B0895A1E21A2EAA1BBB1BFD010DC0B7
S1134990AA1FBB1FEE1FFF1FA217B307E407F507EB
S11349A020F0A21BB30BE40BF50B661F771F881FC7
S11349B0991F1A9469F760957095809590959B015D
S10F49C0AC01BD01CF010895F894FFCFB5
S11349CC010000003F065B4F666D7D077F6F391C4D
S11349DC526974380F0106537069656C6572203125
S11349EC00537069656C6572203200537069656C94
S11349FC6572203300537069656C65722034004510
S1134A0C696E67616E677368616C6C65004B616E8F
S1134A1C7A6C6569310056656C6F6B656C6C65728C
S1134A2C004C6170746F7067656275656872005ACA
S1134A3C657567686175737374726173736500521D
S1134A4C6175636865727A656C74004368616E6342
S1134A5C65310050617573656E7261756D004761E7
S1134A6C726465726F62650047656661656E676E38
S1134A7C69730048657272656E20574300496E660F
S1134A8C6F726D6174696B6469656E7374004672E0
S1134A9C6175656E205743004C65687265722057CA
S1134AAC4300466F746F7A656E7472756D0042467E
S1134ABC5320506F6C696D656368616E696B6572C8
S1134ACC004B616E7A6C656920320042465320417A
S1134ADC75746F6D6174696B657200424653204541
S1134AEC6C656B74726F6E696B6572004672656986
S1134AFC7061726B656E004772756E64617573627A
S1134B0C696C64756E67204175746F6D6174696B43
S1134B1C6572004368616E636520320050726F6485
S1134B2C756B74696F6E204175746F6D6174696B0C
S1134B3C6572004D6563686174726F6E696B204CAD
S1134B4C61626F7200546563686E696B756D004CBD
S1134B5C6167657220506F6C796D656368616E690D
S1134B6C6B6572004C61676572204175746F6D6181
S1134B7C74696B6572005075747A6469656E7374CC
S1134B8C004C6167657220456C656B74726F6E695D
S1134B9C6B65720047656820696E732047656661B2
S1134BAC656E676E6973004772756E6461757362C6
S1134BBC696C64756E6720456C656B74726F6E6995
S1134BCC6B65720050726F64756B74696F6E2045FF
S1134BDC6C656B74726F6E696B657200456E74777D
S1134BEC69636B6C756E6720456C656B74726F6E64
S1134BFC696B657200476577657262657363687586
S1134C0C6C65004368616E63652033004772756E92
S1134C1C6461757362696C64756E6720506F6C792E
S1134C2C6D656368616E696B657200536368756C5E
S1134C3C6D6174657269616C6B6F7374656E005031
S1134C4C726F64756B74696F6E20506F6C696D65EF
S1134C5C6368616E696B6572003100320033003435
S1134C6C00350036005A61686C2031203D20005A12
S1134C7C61686C2032203D2000537069656C65724C
S10B4C8C2000257500257500C8
S9030000FC
