S01C00004D6F6E6F706F6C7954657374506F726772616D6D2E73726563C6
S113000071C000008EC000008CC000008AC00000D7
S113001088C0000086C0000084C0000082C00000C8
S113002080C000007EC000007CC000007AC00000D8
S113003078C0000076C0000074C0000072C00000E8
S113004070C000006EC000006CC000006AC00000F8
S113005068C0000066C0000064C0000062C0000008
S113006060C000005EC000005CC000005AC0000018
S113007058C0000056C0000054C0000052C0000028
S113008050C000004EC000004CC000004AC0000038
S113009048C0000046C0000044C0000042C0000048
S11300A040C000003EC000003CC000003AC0000058
S11300B038C0000036C0000034C0000032C0000068
S11300C030C000002EC000002CC000002AC0000078
S11300D028C0000026C0000024C0000022C0000088
S11300E020C0000011241FBECFEFD1E2DEBFCDBF80
S11300F000E00CBF12E0A0E0B2E0ECE2F5E000E0CA
S11301000BBF02C007900D92A030B107D9F722E0CF
S1130110A0E0B2E001C01D92A83FB207E1F749D0C8
S113012003C26ECFCF93DF93CDB7DEB781E290E009
S11301302FEFFC01208384E290E02FEFFC01208369
S113014085E290E020E2FC01208387E290E02FEF3B
S1130150FC0120838AE290E02FEFFC0120838DE2F2
S113016090E02FEFFC0120838EE290E020E1FC017F
S1130170208380E390E02FEFFC01208381E091E075
S11301802FEFFC01208382E091E020E1FC01208339
S113019084E091E02FEFFC01208387E091E0FC01F3
S11301A010828AE091E0FC0110820000DF91CF917F
S11301B00895CF93DF93CDB7DEB72C970FB6F8949D
S11301C0DEBF0FBECDBF8CED95E09A83898389E0B5
S11301D08B838CED95E09D838C838AE08E838CEDFC
S11301E095E098878F838BE089878CED95E09B87DA
S11301F08A878CE08C8796DF80E895E251D120E0F5
S113020040E060E082E017D020E040E060E08AE077
S113021012D020E040E060E084E10DD08B8161E009
S113022074D08E8162E071D0898563E06ED08C8554
S113023064E06BD0FFCFCF9390E0FC01EE0FFF1F83
S11302408E0F9F1FFC01EC55FD4F60834183228379
S1130250C0E004C084EA92E02FD1CF5FCC31D0F368
S1130260CF910895E82FF0E0E156FD4F90819A3048
S113027008F441C026EF290F2A3090F4823051F05F
S113028018F48130D1F104C0833031F0843031F07E
S113029080E0089582E008958EEF08958FEF089529
S11302A02CEE290F2A3090F4823051F018F481306A
S11302B031F104C0833031F0843031F080E00895AE
S11302C081E008958FEF08958DEF08959E519A303F
S11302D0C0F4823051F018F48130A9F004C08330A6
S11302E031F0843031F080E008958FEF089581E09B
S11302F008958EEF089580E0089581E0089583E0E5
S1130300089580E0089582E00895DF92EF92FF92CD
S11303100F931F93CF93DF93F82ED62EC62FD0E0E2
S11303202197FE01E056FD4F8081082F10E0000F59
S1130330111F000F111F1595079515950795159514
S11303400795880F880F8470E82E862F8BDF9E0117
S11303502E0D311D280F311D87FD3A95C8019927AF
S1130360880F991F880F991F880F991F80509E4FDF
S1130370FC01E20FF31F1082FE01E056FD4FF082F4
S11303800F2D10E0000F111F000F111F1595079579
S113039015950795159507958F2D880F880F8470EF
S11303A0F82E8D2D5FDFCF0DD11DC80FD11D87FD18
S11303B0DA95C8019927880F991F880F991F880F0C
S11303C0991F80509E4FC80FD91F81E08883C0E0D9
S11303D024C0880F24E130E02C1B310947E050E0B1
S11303E0491B5109220F331F220F331F220F331FC2
S11303F020503E4FF901E40FF51F2081822B9F5FAF
S113040002C090E080E0983020F351D08FEC97E068
S11304100197F1F700C00000CF5FC53190F385B1BB
S1130420806185B985B18F7E85B9DF91CF911F91A8
S11304300F91FF90EF90DF9008958CB581658CBD8E
S11304408DB581608DBD0895E4ECF0E011821082D9
S113045030EC3093C20028E12093C10090E09183F6
S11304608083ECECF0E0118210823093CA00209378
S1130470C90091838083E4EDF0E01182108230930F
S1130480D2002093D10091838083E4E3F1E01182D0
S11304901082309332012093310191838083089537
S11304A0CF93C82FCADF8C2FCFDFCF9108958EBD95
S11304B00DB407FEFDCF0895FC0182B18E7F82B991
S11304C081B1816081B9F8942CE130E021C00190C0
S11304D0008007D0029005D001900190019001D0D6
S11304E016C007D006D005D004D003D002D001D066
S11304F000C0109A001C0000000008F010980000D2
S1130500000000000000000008F4109808959A010B
S1130510A90141505109232B09F0D9CF789480EBDC
S10F052094E00197F1F70895F894FFCFE0
S9030000FC
