:100000000C94E80D0C94080E0C94080E0C94080E39
:100010000C94080E0C94080E0C94080E0C94080E08
:100020000C94080E0C94080E0C94080E0C94080EF8
:100030000C94080E0C94080E0C94080E0C94080EE8
:100040000C94080E0C94080E0C94080E0C94080ED8
:100050000C94080E0C94080E0C94080E0C94080EC8
:100060000C94080E0C94080E0C94080E0C94080EB8
:100070000C94080E0C94080E0C94080E0C94080EA8
:100080000C94080E0C94080E0C94080E0C94080E98
:100090000C94080E0C94080E0C94080E0C94080E88
:1000A0000C94080E0C94080E0C94080E0C94080E78
:1000B0000C94080E0C94080E0C94080E0C94080E68
:1000C0000C94080E0C94080E0C94080E0C94080E58
:1000D0000C94080E0C94080E0C94080E0C94080E48
:1000E0000C94080EDF16F717851AC027152B1F2B47
:1000F000FE2BC82E0D1E911DB21FAB27B021F0257F
:10010000082648205C42444248424C4250425442F5
:1001100042424242424258426D58676125596761E6
:10012000D859645BF85BC85C555E2D5E4661A2627F
:10013000B362BD62D262DB62F86213631A637963F1
:100140004F6C69206D6167206469636820202020FE
:100150006E696368742E202020202020202020201B
:1001600047656865207A756D20202020202020209A
:10017000576F726B73686F70000000000000000022
:10018000000000000000000000000000000000006F
:10019000000000000000000000000000000000005F
:1001A000000000000000000000000000000000004F
:1001B000000000000000000000000000000000003F
:1001C000000000000000000000000000000000002F
:1001D000000000000000000000000000000000001F
:1001E000000000000000000000000000000000000F
:1001F00000000000000000000000000000000000FF
:100200000000000000000000467265696B617274B6
:100210006500000000000000000000000000000079
:1002200000000000000000000000000000000000CE
:1002300000000000000000000000000000000000BE
:1002400000000000000000000000000000000000AE
:10025000000000000000000000000000000000009E
:10026000000000000000000000000000000000008E
:10027000000000000000000000000000000000007E
:10028000000000000000000000000000000000006E
:10029000000000000000000000000000000000005E
:1002A000000000000000000000000000000000004E
:1002B000000000000000000000000000000000003E
:1002C000000000000000000000000000000000002E
:1002D000529A636B6520766F7220626973202020CA
:1002E0007A756D204E8463687374656E20202020BB
:1002F0005765726B00000000000000000000000065
:1003000000000000000000000000000000000000ED
:1003100000000000000000000000000000000000DD
:1003200000000000000000000000000000000000CD
:1003300000000000000000000000000000000000BD
:1003400000000000000000000000000000000000AD
:10035000000000000000000000000000000000009D
:10036000000000000000000000000000000000008D
:10037000000000000000000000000000000000007D
:10038000000000000000000000000000000000006D
:1003900000000000000000004475206861737420B4
:1003A0007A75207669656C65416273656E7A656EF3
:1003B00020202020202020205A61686C65203530C4
:1003C000000000000000000000000000000000002D
:1003D000000000000000000000000000000000001D
:1003E000000000000000000000000000000000000D
:1003F00000000000000000000000000000000000FD
:1004000000000000000000000000000000000000EC
:1004100000000000000000000000000000000000DC
:1004200000000000000000000000000000000000CC
:1004300000000000000000000000000000000000BC
:1004400000000000000000000000000000000000AC
:10045000000000000000000000000000000000009C
:10046000529A636B6520766F722062697320202038
:100470007A75722050726F64756B74696F6E20208C
:10048000506F6C796D656368616E696B65720000B1
:10049000000000000000000000000000000000005C
:1004A000000000000000000000000000000000004C
:1004B000000000000000000000000000000000003C
:1004C000000000000000000000000000000000002C
:1004D000000000000000000000000000000000001C
:1004E000000000000000000000000000000000000C
:1004F00000000000000000000000000000000000FC
:1005000000000000000000000000000000000000EB
:1005100000000000000000000000000000000000DB
:1005200000000000000000005A6965686520766FD1
:1005300072206269732020207A7572206E8463684D
:100540007374656E2020202048616C746573746537
:100550006C6C65000000000000000000000000005E
:10056000000000000000000000000000000000008B
:10057000000000000000000000000000000000007B
:10058000000000000000000000000000000000006B
:10059000000000000000000000000000000000005B
:1005A000000000000000000000000000000000004B
:1005B000000000000000000000000000000000003B
:1005C000000000000000000000000000000000002B
:1005D000000000000000000000000000000000001B
:1005E000000000000000000000000000000000000B
:1005F0005A6965686520766F7220626973202020D1
:100600007A7572206E8463687374656E2020202072
:1006100048616C74657374656C6C65000000000063
:1006200000000000000000000000000000000000CA
:1006300000000000000000000000000000000000BA
:1006400000000000000000000000000000000000AA
:10065000000000000000000000000000000000009A
:10066000000000000000000000000000000000008A
:10067000000000000000000000000000000000007A
:10068000000000000000000000000000000000006A
:10069000000000000000000000000000000000005A
:1006A000000000000000000000000000000000004A
:1006B00000000000000000005A6965686520766F40
:1006C00072206269732020204772756E64617573B1
:1006D00062696C64756E6720456C656B74726F6ED1
:1006E000696B65720000000000000000000000005F
:1006F00000000000000000000000000000000000FA
:1007000000000000000000000000000000000000E9
:1007100000000000000000000000000000000000D9
:1007200000000000000000000000000000000000C9
:1007300000000000000000000000000000000000B9
:1007400000000000000000000000000000000000A9
:100750000000000000000000000000000000000099
:100760000000000000000000000000000000000089
:100770000000000000000000000000000000000079
:100780005A6965686520766F72206269732020203F
:100790004D6563686174726F6E696B202020202044
:1007A0004C61626F72000000000000000000000059
:1007B0000000000000000000000000000000000039
:1007C0000000000000000000000000000000000029
:1007D0000000000000000000000000000000000019
:1007E0000000000000000000000000000000000009
:1007F00000000000000000000000000000000000F9
:1008000000000000000000000000000000000000E8
:1008100000000000000000000000000000000000D8
:1008200000000000000000000000000000000000C8
:1008300000000000000000000000000000000000B8
:100840000000000000000000529A636B6520766F84
:10085000722061756620202053746172740000005C
:100860000000000000000000000000000000000088
:100870000000000000000000000000000000000078
:100880000000000000000000000000000000000068
:100890000000000000000000000000000000000058
:1008A0000000000000000000000000000000000048
:1008B0000000000000000000000000000000000038
:1008C0000000000000000000000000000000000028
:1008D0000000000000000000000000000000000018
:1008E0000000000000000000000000000000000008
:1008F00000000000000000000000000000000000F8
:1009000000000000000000000000000000000000E7
:10091000486575746520496E666F726D696572749D
:100920004968722065756368209A6265722020208C
:100930005374756469656E67846E67652020202036
:10094000529A636B6520766F722062697320202053
:10095000546563686E696B756D00000000000000EF
:100960000000000000000000000000000000000087
:100970000000000000000000000000000000000077
:100980000000000000000000000000000000000067
:100990000000000000000000000000000000000057
:1009A0000000000000000000000000000000000047
:1009B0000000000000000000000000000000000037
:1009C0000000000000000000000000000000000027
:1009D000000000000000000045732069737420646B
:1009E00065722032352E2020447520657268846C33
:1009F00074737420202020206465696E656E204C1D
:100A00006F686E2E20766F6E373000000000000099
:100A100000000000000000000000000000000000D6
:100A200000000000000000000000000000000000C6
:100A300000000000000000000000000000000000B6
:100A400000000000000000000000000000000000A6
:100A50000000000000000000000000000000000096
:100A60000000000000000000000000000000000086
:100A70000000000000000000000000000000000076
:100A80000000000000000000000000000000000066
:100A90000000000000000000000000000000000056
:100AA000457320697374206465722032352E2020CE
:100AB000447520657268846C747374202020202033
:100AC0006465696E656E204C6F686E2E20766F6E61
:100AD0003134300000000000000000000000000081
:100AE0000000000000000000000000000000000006
:100AF00000000000000000000000000000000000F6
:100B000000000000000000000000000000000000E5
:100B100000000000000000000000000000000000D5
:100B200000000000000000000000000000000000C5
:100B300000000000000000000000000000000000B5
:100B400000000000000000000000000000000000A5
:100B50000000000000000000000000000000000095
:100B60000000000000000000476568652033204653
:100B7000656C6465722020207A75729A636B000040
:100B80000000000000000000000000000000000065
:100B90000000000000000000000000000000000055
:100BA0000000000000000000000000000000000045
:100BB0000000000000000000000000000000000035
:100BC0000000000000000000000000000000000025
:100BD0000000000000000000000000000000000015
:100BE0000000000000000000000000000000000005
:100BF00000000000000000000000000000000000F5
:100C000000000000000000000000000000000000E4
:100C100000000000000000000000000000000000D4
:100C200000000000000000000000000000000000C4
:100C300044752072656E6F7669657273742020202A
:100C40006465696E65202048847573657220202074
:100C50005A61686C6520669A72206A6564657320C3
:100C60004861757320323520756E6420669A722053
:100C70006A6564657320486F74656C20313030009C
:100C80000000000000000000000000000000000064
:100C90000000000000000000000000000000000054
:100CA0000000000000000000000000000000000044
:100CB0000000000000000000000000000000000034
:100CC0000000000000000000000000000000000024
:100CD0000000000000000000000000000000000014
:100CE0000000000000000000000000000000000004
:100CF00000000000000000004475207775726465F4
:100D00007374207A756D20204B6C617373656E76F9
:100D1000657274726574657247657784686C742E49
:100D2000205A61686C6520206A6564656D20537087
:100D300069656C657220353000000000000000001D
:100D400000000000000000000000000000000000A3
:100D50000000000000000000000000000000000093
:100D60000000000000000000000000000000000083
:100D70000000000000000000000000000000000073
:100D80000000000000000000000000000000000063
:100D90000000000000000000000000000000000053
:100DA0000000000000000000000000000000000043
:100DB0000000000000000000000000000000000033
:100DC000447520686173742065696E652020202059
:100DD000576574746520676567656E202020202044
:100DE0005065746572207665726C6F72656E202036
:100DF000647520736368756C646573742069686DCD
:100E000065696E656E204B616666656520202020F1
:100E10007A61686C65203500000000000000000069
:100E200000000000000000000000000000000000C2
:100E300000000000000000000000000000000000B2
:100E400000000000000000000000000000000000A2
:100E50000000000000000000000000000000000092
:100E60000000000000000000000000000000000082
:100E70000000000000000000000000000000000072
:100E800000000000000000004475206861737420B9
:100E9000626569202020202065696E656D204B7594
:100EA0006E64656E2020202065696E65207363681E
:100EB0006C65636874652020426577657274756E31
:100EC000672020202020202068696E7465726C6184
:100ED0007373656E202020206765686520696E2029
:100EE00064656E2020202020576F726B73686F70CE
:100EF00000000000000000000000000000000000F2
:100F000000000000000000000000000000000000E1
:100F100000000000000000000000000000000000D1
:100F200000000000000000000000000000000000C1
:100F300000000000000000000000000000000000B1
:100F400000000000000000000000000000000000A1
:100F5000467265696B6172746500000000000000F4
:100F60000000000000000000000000000000000081
:100F70000000000000000000000000000000000071
:100F80000000000000000000000000000000000061
:100F90000000000000000000000000000000000051
:100FA0000000000000000000000000000000000041
:100FB0000000000000000000000000000000000031
:100FC0000000000000000000000000000000000021
:100FD0000000000000000000000000000000000011
:100FE0000000000000000000000000000000000001
:100FF00000000000000000000000000000000000F1
:1010000000000000000000000000000000000000E0
:10101000000000000000000044752072656E6F76CD
:1010200069657273742020206465696E65202048AC
:1010300084757365722020205A61686C6520669AF9
:1010400072206A65646573204861757320343020AE
:10105000756E6420669A72206A6564657320486FB5
:1010600074656C2031313500000000000000000084
:101070000000000000000000000000000000000070
:101080000000000000000000000000000000000060
:101090000000000000000000000000000000000050
:1010A0000000000000000000000000000000000040
:1010B0000000000000000000000000000000000030
:1010C0000000000000000000000000000000000020
:1010D0000000000000000000000000000000000010
:1010E000496E2064657220202020202020202020AE
:1010F0005665727365747A756E6720697374202003
:101100006469722065696E2046728473657220205E
:101110007A657262726F6368656E2E2020202020CF
:101120005A61686C6520313030000000000000001A
:1011300000000000000000000000000000000000AF
:10114000000000000000000000000000000000009F
:10115000000000000000000000000000000000008F
:10116000000000000000000000000000000000007F
:10117000000000000000000000000000000000006F
:10118000000000000000000000000000000000005F
:10119000000000000000000000000000000000004F
:1011A000000000000000000044752067946E6E731C
:1011B00074206469722020206574776173206265F1
:1011C000696D202020202020536E61636B6175744F
:1011D0006F6D6174202020207A61686C6520353045
:1011E00000000000000000000000000000000000FF
:1011F00000000000000000000000000000000000EF
:1012000000000000000000000000000000000000DE
:1012100000000000000000000000000000000000CE
:1012200000000000000000000000000000000000BE
:1012300000000000000000000000000000000000AE
:10124000000000000000000000000000000000009E
:10125000000000000000000000000000000000008E
:10126000000000000000000000000000000000007E
:10127000496872206D616368742065696E65200934
:1012800045786B757273696F6E20202020202020B6
:101290007A61686C652035300000000000000000B5
:1012A000000000000000000000000000000000003E
:1012B000000000000000000000000000000000002E
:1012C000000000000000000000000000000000001E
:1012D000000000000000000000000000000000000E
:1012E00000000000000000000000000000000000FE
:1012F00000000000000000000000000000000000EE
:1013000000000000000000000000000000000000DD
:1013100000000000000000000000000000000000CD
:1013200000000000000000000000000000000000BD
:101330000000000000000000447520686173742004
:10134000646965202020202041627363686C757396
:1013500073726569736520206F7267616E69736966
:101360006572742C202020206A6564657220537099
:1013700069656C65722020207A61686C74206469EC
:10138000722031300000000000000000000000006A
:10139000000000000000000000000000000000004D
:1013A000000000000000000000000000000000003D
:1013B000000000000000000000000000000000002D
:1013C000000000000000000000000000000000001D
:1013D000000000000000000000000000000000000D
:1013E00000000000000000000000000000000000FD
:1013F00000000000000000000000000000000000ED
:10140000456C656B74726F6E696B6572202020206D
:10141000646573204D6F6E6174732020202020203E
:10142000447520657268846C7473742031303000A8
:1014300000000000000000000000000000000000AC
:10144000000000000000000000000000000000009C
:10145000000000000000000000000000000000008C
:10146000000000000000000000000000000000007C
:10147000000000000000000000000000000000006C
:10148000000000000000000000000000000000005C
:10149000000000000000000000000000000000004C
:1014A000000000000000000000000000000000003C
:1014B000000000000000000000000000000000002C
:1014C000000000000000000044752068696C66732D
:1014D00074206465696E656D4D6974736368FC6C36
:1014E0006572206265696D206C65726E656E2E2076
:1014F0002020202020202020447520657268846CE4
:1015000074737420313000000000000000000000FF
:1015100000000000000000000000000000000000CB
:1015200000000000000000000000000000000000BB
:1015300000000000000000000000000000000000AB
:10154000000000000000000000000000000000009B
:10155000000000000000000000000000000000008B
:10156000000000000000000000000000000000007B
:10157000000000000000000000000000000000006B
:10158000000000000000000000000000000000005B
:10159000447520657268846C7374203530000000D7
:1015A000000000000000000000000000000000003B
:1015B000000000000000000000000000000000002B
:1015C000000000000000000000000000000000001B
:1015D000000000000000000000000000000000000B
:1015E00000000000000000000000000000000000FB
:1015F00000000000000000000000000000000000EB
:1016000000000000000000000000000000000000DA
:1016100000000000000000000000000000000000CA
:1016200000000000000000000000000000000000BA
:1016300000000000000000000000000000000000AA
:10164000000000000000000000000000000000009A
:101650000000000000000000447520657268846C82
:1016600073742031303000000000000000000000E2
:10167000000000000000000000000000000000006A
:10168000000000000000000000000000000000005A
:10169000000000000000000000000000000000004A
:1016A000000000000000000000000000000000003A
:1016B000000000000000000000000000000000002A
:1016C000000000000000000000000000000000001A
:1016D000000000000000000000000000000000000A
:1016E00000000000000000000000000000000000FA
:1016F00000000000000000000000000000000000EA
:1017000000000000000000000000000000000000D9
:1017100000000000000000000000000000000000C9
:10172000447520657268846C737420323500000043
:1017300000000000000000000000000000000000A9
:101740000000000000000000000000000000000099
:101750000000000000000000000000000000000089
:101760000000000000000000000000000000000079
:101770000000000000000000000000000000000069
:101780000000000000000000000000000000000059
:101790000000000000000000000000000000000049
:1017A0000000000000000000000000000000000039
:1017B0000000000000000000000000000000000029
:1017C0000000000000000000000000000000000019
:1017D0000000000000000000000000000000000009
:1017E0000000000000000000447520657268846CF1
:1017F0007374203230000000000000000000000080
:1018000000000000000000000000000000000000D8
:1018100000000000000000000000000000000000C8
:1018200000000000000000000000000000000000B8
:1018300000000000000000000000000000000000A8
:101840000000000000000000000000000000000098
:101850000000000000000000000000000000000088
:101860000000000000000000000000000000000078
:101870000000000000000000000000000000000068
:101880000000000000000000000000000000000058
:101890000000000000000000000000000000000048
:1018A0000000000000000000000000000000000038
:1018B000447520657268846C737420313030000088
:1018C0000000000000000000000000000000000018
:1018D0000000000000000000000000000000000008
:1018E00000000000000000000000000000000000F8
:1018F00000000000000000000000000000000000E8
:1019000000000000000000000000000000000000D7
:1019100000000000000000000000000000000000C7
:1019200000000000000000000000000000000000B7
:1019300000000000000000000000000000000000A7
:101940000000000000000000000000000000000097
:101950000000000000000000000000000000000087
:101960000000000000000000000000000000000077
:101970000000000000000000447520657268846C5F
:1019800073742031303000000000000000000000BF
:101990000000000000000000000000000000000047
:1019A0000000000000000000000000000000000037
:1019B0000000000000000000000000000000000027
:1019C0000000000000000000000000000000000017
:1019D0000000000000000000000000000000000007
:1019E00000000000000000000000000000000000F7
:1019F00000000000000000000000000000000000E7
:101A000000000000000000000000000000000000D6
:101A100000000000000000000000000000000000C6
:101A200000000000000000000000000000000000B6
:101A300000000000000000000000000000000000A6
:101A400044752062697374202020202020202020EB
:101A500057656C746D6569737465722E2020202043
:101A600052FC636B6520766F7220626973202020C0
:101A70005374617274207A696568652064656E20AC
:101A8000646F7070656C74656E20202020202020AB
:101A90004265747261672065696E00000000000095
:101AA0000000000000000000000000000000000036
:101AB0000000000000000000000000000000000026
:101AC0000000000000000000000000000000000016
:101AD0000000000000000000000000000000000006
:101AE00000000000000000000000000000000000F6
:101AF00000000000000000000000000000000000E6
:101B0000000000000000000044752068617374202C
:101B1000676567656E2020206469652048616E6492
:101B200079726567656C202076657273746F737364
:101B3000656E2E2020202020529A636B6520766FE0
:101B4000722062697320202050726F64756B746913
:101B50006F6E202020202020456C656B74726F6EA4
:101B6000696B6572000000000000000000000000CA
:101B70000000000000000000000000000000000065
:101B80000000000000000000000000000000000055
:101B90000000000000000000000000000000000045
:101BA0000000000000000000000000000000000035
:101BB0000000000000000000000000000000000025
:101BC0000000000000000000000000000000000015
:101BD00011241FBECFEFD1E2DEBFCDBF00E00CBFAE
:101BE0001AE0A0E0B2E0EEEAF4ED00E00BBF02C0C4
:101BF00007900D92A23AB107D9F72BE1A2EABAE019
:101C000001C01D92A935B207E1F78FD20C94556A35
:101C10000C94000098B19F7E98B998B19B7F98B9B9
:101C20008BB998B1926098B98150833038F48FE2C3
:101C300091E10197F1F700C0000003C090EA9A9586
:101C4000F1F788B18D7F88B908951F93CF93DF9303
:101C5000CDB7DEB729970FB6F894DEBF0FBECDBF64
:101C60008FEF8AB987B988B1806288B92FEF80E792
:101C700092E0215080409040E1F700C0000088B120
:101C80008E7F88B989E0EDE1F2E0DE0111960190E6
:101C90000D928A95E1F710E00AC0E1E0F0E0EC0F68
:101CA000FD1FE10FF11D808190E0B4DF1F5F19304F
:101CB000A0F38FE99FE00197F1F700C0000029969B
:101CC0000FB6F894DEBF0FBECDBFDF91CF911F914D
:101CD000089598B1906198B998B19B7F98B98BB9E4
:101CE00088B1826088B980EA8A95F1F788B18D7FE2
:101CF00088B9089581E08EDF8FE99FE00197F1F7C1
:101D000000C00000089582E085DF8FE39FE1019726
:101D1000F1F700C000000895417070E0660F771F72
:101D20006270282F30E0220F331F220F331F2470E0
:101D3000842F862B822B88606DDF8FE99FE00197CF
:101D4000F1F700C0000008950F931F93CF938A010D
:101D5000282F30E0285F3F4F862F90E1299F800D8C
:101D6000112458DFC0E002C0B4DFCF5FF801EC0FF0
:101D7000F11D80818111F8CF8FE39FE10197F1F789
:101D800000C00000CF911F910F91089588E442DFB9
:101D900084E09FDF8EE09DDF85E19BDF84E099DFBB
:101DA00084E097DF84E095DF80E093DF80E091DFDF
:101DB00080E530DF80E08DDF84E08BDF84E089DF49
:101DC00084E087DF85E185DF8EE083DF84E081DFEB
:101DD00080E07FCF089539DF8DDF95DFD7DF40E0EA
:101DE00060E081E099CF089588B18F7D88B98FE355
:101DF0009CE90197F1F700C0000088B1806288B9C2
:101E00008FE39CE90197F1F700C000001EDF72DF4D
:101E10007ADF40E060E081E07FCF08958F929F926B
:101E2000AF92BF92CF92DF92EF92FF920F931F93E8
:101E3000CF93DF93CDB7DEB7A2970FB6F894DEBF8E
:101E40000FBECDBF6C0121E1CE010196DC01E22F76
:101E50001D92EA95E9F7FE017296DF011D922A951F
:101E6000E9F7F60101900020E9F731978F010C198D
:101E70001D09E62EF12C5701AA0CBB1CAA0CBB1C99
:101E8000AA0CBB1CAA0CBB1CB6016A0D7B1D40E151
:101E900050E00E941D67BFEFEB1AFB0AEE0CFF1C1F
:101EA000EE0CFF1CEE0CFF1CEE0CFF1CE016F10606
:101EB0005CF4B501605F7F4F6C0D7D1D40E150E02B
:101EC000CE0142960E941D6715DFAE014F5F5F4F46
:101ED00060E081E039DFAE014E5E5F4F60E082E09E
:101EE00033DF005211090A151B0514F481E001C00B
:101EF00080E0A2960FB6F894DEBF0FBECDBFDF9193
:101F0000CF911F910F91FF90EF90DF90CF90BF90F6
:101F1000AF909F908F900895CF93DF931F921F9261
:101F2000CDB7DEB79A83898389819A81CB969C014C
:101F30008AE0E6E2F2E0D90101900D928A95E1F79C
:101F400089819A81CB9627E534E0FC0133AB22AB43
:101F500089819A81CB9628E2FC0124AB89819A8100
:101F6000CB96FC0115AA89819A81CB96FC0116AA11
:101F700089819A81CB96FC0117AA89819A81CB9697
:101F8000FC0110AE89819A81CB96FC0111AE89814A
:101F90009A81CB96FC0112AE89819A818A589F4F13
:101FA0009C018AE0E0E3F2E0D90101900D928A956C
:101FB000E1F789819A818A589F4F2EEA38E0FC0127
:101FC00033AB22AB89819A818A589F4F28E2FC016A
:101FD00024AB89819A818A589F4FFC0115AA898177
:101FE0009A818A589F4FFC0116AA89819A818A5842
:101FF0009F4FFC0117AA89819A818A589F4FFC0143
:1020000010AE89819A818A589F4FFC0111AE898157
:102010009A818A589F4FFC0112AE89819A818F5410
:102020009F4F9C018AE0EAE3F2E0D90101900D9212
:102030008A95E1F789819A818F549F4F25E03DE091
:10204000FC0133AB22AB89819A818F549F4F28E2E8
:10205000FC0124AB89819A818F549F4FFC0115AA02
:1020600089819A818F549F4FFC0116AA89819A8198
:102070008F549F4FFC0117AA89819A818F549F4FDB
:10208000FC0110AE89819A818F549F4FFC0111AEE3
:1020900089819A818F549F4FFC0112AE89819A8168
:1020A00084519F4F9C018AE0E4E4F2E0D901019061
:1020B0000D928A95E1F789819A8184519F4F2CE591
:1020C00031E1FC0133AB22AB89819A8184519F4F6E
:1020D00028E2FC0124AB89819A8184519F4FFC0145
:1020E00015AA89819A8184519F4FFC0116AA898182
:1020F0009A8184519F4FFC0117AA89819A8184514A
:102100009F4FFC0110AE89819A8184519F4FFC0141
:1021100011AE89819A8184519F4FFC0112AE00005B
:102120000F900F90DF91CF910895CF92DF92EF92B1
:10213000FF920F931F93CF93DF93CDB7DEB7C952B2
:10214000D2400FB6F894DEBF0FBECDBF81E08983C9
:10215000CE01885B9F4FFC0110821A8281E08B8345
:102160001C821D821E82CE0184509E4F26E0FC01FF
:10217000322F11923A95E9F71F82188619861A862E
:10218000CE01875B9F4FFC011082CE01865B9F4F83
:10219000FC011082CE01855B9F4FFC0110821B86E3
:1021A0001C861D861E8681E08F8781E0888BCE018C
:1021B000845B9F4FFC011082CE01835B9F4FFC012B
:1021C0001082CE01825B9F4FFC011082CE01815BA9
:1021D0009F4FFC011082198A1A8A1B8A1C8A81E08F
:1021E0008D8B1E8A1F8ACE01805B9F4FFC0110825F
:1021F000198E188E1A8ECE018F5A9F4FFC011082B5
:10220000CE018E5A9F4FFC0110821B8E1C8ECE0178
:102210008D5A9F4FFC011082CE018C5A9F4FFC01BA
:102220001082CE018B5A9F4FFC011082CE018E5F2F
:102230009D4F2AE0FC01322F11923A95E9F71E8E4C
:102240001D8E83E08F8F18A219A21AA21BA21CA2B6
:10225000CE01845F9D4F2CE1FC01322F11923A9503
:10226000E9F71DA21EA2CE018A5A9F4FFC011082DF
:10227000CE01895A9F4FFC011082CE01885D9D4F8F
:10228000FC0111821082CE01885A9F4FFC011082FE
:102290001FA218A619A61AA61BA61CA61DA61EA636
:1022A000CE01875A9F4FFC01108211821282138245
:1022B0000E946E4790DD85EC9DE00E94EC478EE524
:1022C0009CE02ADE85EF99E10E94915485E89DE02B
:1022D0000E94905580E895E20E9442640E94DA4490
:1022E0000E948A461FA6C6C19E0124573F4F80E028
:1022F00090E0AAEFB3E4F90180839183A283B383D2
:102300008E0100571F4FCE0184579F4F2BEA3AEAA8
:102310004AEA50E4FC0160817181828193810E94CC
:102320001466DC01CB01F80180839183A283B3831F
:102330008E010C561F4FCE0184579F4F20E030E096
:1023400040E850E4FC0160817181828193810E94A8
:102350001466DC01CB01F80180839183A283B383EF
:10236000CE0180579F4F20E030E040E85FE3FC0162
:1023700060817181828193810E94C66488230CF4FC
:10238000FBC0CE018C569F4F20E03FEF4FE757E454
:10239000FC0160817181828193810E941066181610
:1023A0000CF0A7C0CE0184579F4F20E030E04AE7F1
:1023B00054E4FC0160817181828193810E94CA642E
:1023C000DC01CB016C017D018E0108561F4F20E01E
:1023D00030E04AE755E4C701B6010E941466DC010B
:1023E000CB01F80180839183A283B383CE01885609
:1023F0009F4F20E030E040E85FE3FC0160817181A5
:10240000828193810E94C66488230CF45BC0CE0154
:1024100088569F4F20E03FEF4FE757E4FC01608173
:102420007181828193810E9410661816C4F520E0A4
:1024300030E040E251E4C701B6010E941466DC01BD
:10244000CB018E0104561F4FBC01CD010E943265A5
:10245000DC01CB01F8019183808318C080E991E011
:102460000197F1F79E0122563F4FF9019183808336
:10247000CE0184569F4F9E0124563F4FF901208183
:10248000318121503109FC0131832083CE018456F2
:102490009F4FFC0180819181892B01F773C08E01D0
:1024A00004561F4FCE0188569F4FFC0160817181F9
:1024B000828193810E943265DC01CB01F801918316
:1024C000808308C0CE0184569F4F21E030E0FC019C
:1024D00031832083CE0184569F4FFC0180819181FE
:1024E0000197F1F79E0120563F4FF90191838083B8
:1024F00049C0CE0180579F4F20E030E04FE753E4C2
:10250000FC0160817181828193810E94106618169E
:102510000CF58E010E551F4FCE018C569F4FFC01BE
:1025200060817181828193810E943265DC01CB01DF
:10253000F80191838083CE018E559F4FFC018081ED
:1025400091810197F1F79E012C553F4FF90191833D
:10255000808325C08E010A551F4FCE0180579F4FA3
:10256000FC0160817181828193810E943265DC016E
:10257000CB01F801808306C0CE018A559F4F21E030
:10258000FC012083CE018A559F4FFC018081282FBA
:102590002A95F1F7CE0189559F4FFC0120838FA525
:1025A0000E9494469E01275A3F4FCC01A0E0B0E024
:1025B000F90180839183A283B383CE01875A9F4F11
:1025C000FC0180819181A281B381072E76E1880F81
:1025D000991FAA1FBB1F7A95D1F7702D2BA53CA57B
:1025E0004DA55EA582279327A427B5278BA79CA777
:1025F000ADA7BEA7CE01875A9F4FFC018081918174
:10260000A281B38180959095A095B095072E7CE02E
:10261000880F991FAA1FBB1F7A95D1F7702D2BA584
:102620003CA54DA55EA582279327A427B5278BA798
:102630009CA7ADA7BEA7CE01875A9F4FFC01808102
:102640009181A281B381880F991FAA1FBB1F880F98
:10265000991FAA1FBB1F2BA53CA54DA55EA58227D0
:102660009327A427B5278BA79CA7ADA7BEA78FA5A7
:102670008F5F8FA78FA5843008F436CE8BA59CA5DD
:102680000E940B674EE452E060E080E05DDB8EA5C7
:102690008F938DA58F938CA58F938BA58F938FE5AB
:1026A00092E0892F8F938FE592E08F93CE01845132
:1026B0009E4F292F2F938F930E942C672DB73EB7E3
:1026C000285F3F4F0FB6F894DEBF0FBECDBFCE01DF
:1026D00084519E4FAC0163E081E036DB9E01235ABA
:1026E0003F4F80E090E0AAE7B4E4F9018083918352
:1026F000A283B3838E0108551F4FCE01835A9F4F8B
:1027000020E030E04AE755E4FC016081718182817C
:1027100093810E941466DC01CB01F80180839183D0
:10272000A283B383CE0188559F4F20E030E040E87C
:102730005FE3FC0160817181828193810E94C664A4
:1027400088230CF462C0CE0188559F4F20E03FEFF4
:102750004FE757E4FC0160817181828193810E947F
:10276000106618160CF03EC0CE01835A9F4F20E031
:1027700030E040E251E4FC0160817181828193810B
:102780000E941466DC01CB018E0104551F4FBC0171
:10279000CD010E943265DC01CB01F8019183808379
:1027A00018C080E991E00197F1F79E0122553F4F53
:1027B000F90191838083CE0184559F4F9E0124555A
:1027C0003F4FF9012081318121503109FC013183D2
:1027D0002083CE0184559F4FFC0180819181892BFC
:1027E00001F729C08E0104551F4FCE0188559F4F18
:1027F000FC0160817181828193810E943265DC01DC
:10280000CB01F8019183808308C0CE0184559F4F8E
:1028100021E030E0FC0131832083CE0184559F4FBD
:10282000FC01808191810197F1F79E0120553F4F76
:10283000F9019183808318AA2FC088A9282F30E03E
:102840004EE4429FC001439F900D1124885F914F39
:10285000FC0180818823E9F088A9282F30E04EE42C
:10286000429FC001439F900D1124885F914FFC014E
:10287000508188A9282F30E04EE4429FC001439F39
:10288000900D1124805F914FFC018081652F0E9483
:10289000344288A98F5F88AB88A9883270F2CE0154
:1028A0008B599F4FFC011082CE018A599F4FFC012A
:1028B0001082CE0189599F4FFC0110828091680BD4
:1028C0009091690B9093670B8093660B1092690B44
:1028D0001092680B89E091E0FC018081882F90E0E4
:1028E000382F222786E091E0FC018081882F90E03C
:1028F000822B932B9093690B8093680B8091660BCE
:102900009091670B9C01209530958091680B909178
:10291000690B8223932390936B0B80936A0B89E05E
:1029200091E0FC018081882F90E0382F222786E0FB
:1029300091E0FC018081882F90E0822B932B8935D8
:10294000910509F011C287E290E02FEFFC0120838E
:1029500088E290E02FE3FC0120838AE290E02FEFF1
:10296000FC0120838BE290E0FC0110823DDA19AA81
:10297000C6C19E012F593F4F80E090E0AAEFB3E41B
:10298000F90180839183A283B3838E010E541F4F7C
:10299000CE018F599F4F2BEA3AEA4AEA50E4FC01F4
:1029A00060817181828193810E941466DC01CB0178
:1029B000F80180839183A283B3838E010A541F4F51
:1029C000CE018F599F4F20E030E040E850E4FC01F9
:1029D00060817181828193810E941466DC01CB0148
:1029E000F80180839183A283B383CE018E549F4FDD
:1029F00020E030E040E85FE3FC016081718182818A
:102A000093810E94C66488230CF4FBC0CE018A54D3
:102A10009F4F20E03FEF4FE757E4FC016081718159
:102A2000828193810E94106618160CF0A7C0CE0117
:102A30008F599F4F20E030E04AE754E4FC01608169
:102A40007181828193810E94CA64DC01CB016C0197
:102A50007D018E0106541F4F20E030E04AE755E427
:102A6000C701B6010E941466DC01CB01F801808326
:102A70009183A283B383CE0186549F4F20E030E040
:102A800040E85FE3FC0160817181828193810E9453
:102A9000C66488230CF45BC0CE0186549F4F20E0AF
:102AA0003FEF4FE757E4FC016081718182819381A0
:102AB0000E9410661816C4F520E030E040E251E4B0
:102AC000C701B6010E941466DC01CB018E010254DD
:102AD0001F4FBC01CD010E943265DC01CB01F80122
:102AE0009183808318C080E991E00197F1F79E01FE
:102AF00020543F4FF90191838083CE0182549F4F30
:102B00009E0122543F4FF90120813181215031092A
:102B1000FC0131832083CE0182549F4FFC018081D0
:102B20009181892B01F773C08E0102541F4FCE0192
:102B300086549F4FFC0160817181828193810E9444
:102B40003265DC01CB01F8019183808308C0CE019E
:102B500082549F4F21E030E0FC0131832083CE017D
:102B600082549F4FFC01808191810197F1F79E0172
:102B70002E533F4FF9019183808349C0CE018E547B
:102B80009F4F20E030E04FE753E4FC01608171810A
:102B9000828193810E94106618160CF58E010C53E9
:102BA0001F4FCE018A549F4FFC0160817181828149
:102BB00093810E943265DC01CB01F801918380830F
:102BC000CE018C539F4FFC01808191810197F1F7D9
:102BD0009E012A533F4FF9019183808325C08E01C6
:102BE00008531F4FCE018E549F4FFC0160817181AD
:102BF000828193810E943265DC01CB01F8018083E0
:102C000006C0CE0188539F4F21E0FC012083CE01F6
:102C100088539F4FFC018081282F2A95F1F7CE0120
:102C200087539F4FFC01208389A90E9494469E01EF
:102C3000275A3F4FCC01A0E0B0E0F9018083918397
:102C4000A283B383CE01875A9F4FFC01808191817B
:102C5000A281B381072E76E1880F991FAA1FBB1F9F
:102C60007A95D1F7702D2BA53CA54DA55EA58227A1
:102C70009327A427B5278BA79CA7ADA7BEA7CE01F6
:102C8000875A9F4FFC0180819181A281B3818095F9
:102C90009095A095B095072E7CE0880F991FAA1FEC
:102CA000BB1F7A95D1F7702D2BA53CA54DA55EA530
:102CB00082279327A427B5278BA79CA7ADA7BEA7DC
:102CC000CE01875A9F4FFC0180819181A281B381FF
:102CD000880F991FAA1FBB1F880F991FAA1FBB1F10
:102CE0002BA53CA54DA55EA582279327A427B52734
:102CF0008BA79CA7ADA7BEA789A98F5F89AB89A920
:102D0000843008F436CE8BA59CA50E940B674EE458
:102D100052E060E080E018D88EA58F938DA58F9348
:102D20008CA58F938BA58F938FE592E0892F8F933E
:102D30008FE592E08F93CE0184519E4F292F2F93E0
:102D40008F930E942C672DB73EB7285F3F4F0FB679
:102D5000F894DEBF0FBECDBFCE0184519E4FAC01B3
:102D600063E081E00E94A40E8981282F30E04BE3CC
:102D7000429FC001439F900D11248856934FFC0140
:102D80008081882311F081E08CA380916C0B882FC7
:102D900090E0092E000CAA0BBB0B40E050E027E0AE
:102DA00030E0841B950B2817390710F40C94043578
:102DB000FC018827EE58FF4F8F4F0C94AA66888538
:102DC0008823D1F443E652E060E080E00E94A40E44
:102DD00042E752E060E081E00E94A40E43E852E046
:102DE00060E082E00E94A40E809106026EE57CE025
:102DF0000E94774481E0888780916A0B90916B0BE9
:102E000088279072892B99F180910602833078F19E
:102E10008091060281508093060280910602882FDD
:102E200090E0292F2F938F9382E992E0892F8F933F
:102E300082E992E08F93CE0184519E4F292F2F93E8
:102E40008F930E942C670F900F900F900F900F9010
:102E50000F90CE0184519E4FAC0163E081E00E944F
:102E6000A40E809106026EE57CE00E94774480917A
:102E70006A0B90916B0B88279074892B99F1809144
:102E80000602843078F5809106028F5F80930602F7
:102E900080910602882F90E0292F2F938F9382E94B
:102EA00092E0892F8F9382E992E08F93CE01845133
:102EB0009E4F292F2F938F930E942C670F900F9076
:102EC0000F900F900F900F90CE0184519E4FAC0148
:102ED00063E081E00E94A40E809106026EE57CE032
:102EE0000E94774480916A0B90916B0B88279071B8
:102EF000892B11F40C94073581E08AAB2EC08AA986
:102F0000282F30E04BE3429FC001439F900D1124D6
:102F10008057934FFC01118210828AA9282F30E03C
:102F20004BE3429FC001439F900D11248E56934F57
:102F3000FC0110828AA9282F30E04BE3429FC00198
:102F4000439F900D11248E56934FFC0180816AA9F6
:102F50000E94C9428AA98F5F8AAB809106029AA912
:102F6000891768F6809106026EE57CE00E9477443E
:102F700045E952E060E080E00E94A40E80910602E4
:102F8000882F90E0292F2F938F9382E992E0892F49
:102F90008F9382E992E08F93CE0184519E4F292F27
:102FA0002F938F930E942C670F900F900F900F908C
:102FB0000F900F90CE0184519E4FAC0164E080E0F1
:102FC0000E94A40E46EA52E060E081E00E94A40E56
:102FD00047EB52E060E082E00E94A40E809106027E
:102FE0000E948A4781E080936C0B0C94073581E046
:102FF0008BAB09C04AE06BA98CED95E00E94604361
:103000008BA98F5F8BAB809106029BA9891790F7E4
:1030100081E08CAB6AC148EC52E060E080E00E9445
:10302000A40E8CA9882F90E0292F2F938F9382E9EB
:1030300092E0892F8F9382E992E08F93CE018451A1
:103040009E4F292F2F938F930E942C670F900F90E4
:103050000F900F900F900F90CE0184519E4FAC01B6
:103060006BE080E00E94A40E49ED52E060E081E058
:103070000E94A40E49EE52E060E082E00E94A40E9D
:1030800074C08091680B9091690B9093670B80934B
:10309000660B1092690B1092680B89E091E0FC01BD
:1030A0008081882F90E0382F222786E091E0FC0174
:1030B0008081882F90E0822B932B9093690B8093D3
:1030C000680B8091660B9091670B9C012095309561
:1030D0008091680B9091690B8223932390936B0BE3
:1030E00080936A0B80916A0B90916B0B882791708B
:1030F000892B89F08091710B882369F49091720B70
:103100008091710B492F682F81E00E94014581E079
:103110008093710B18C080916A0B90916B0B88277C
:103120009270892B81F08091720B882361F49091C9
:10313000720B8091710B492F682F82E00E9401452C
:1031400081E08093720B8091710B882329F08A852E
:10315000882311F482E08A878091720B882329F0FA
:103160008A85882311F481E08A878091710B8823F6
:1031700009F487CF8091720B882309F482CF8CA940
:10318000282F30E08091640B482F50E08091650B30
:10319000882F90E0840F951FAC016BE3629FC00104
:1031A000639F900D11248057934FFC0151834083FE
:1031B0008CA9282F30E04BE3429FC001439F900D24
:1031C00011248057934FFC01208131818F81482F3A
:1031D00050E06BE3649FC001659F900D1124805700
:1031E000934FFC01808191812817390709F04FC066
:1031F0008A85882F90E001978C59944FFC0180813B
:10320000823098F08A85882F90E001972A85222FB6
:1032100030E0215031092C59344FF90120812150DF
:103220008C59944FFC01208312C08A85882F90E02E
:1032300001972A85222F30E0215031092C59344F33
:10324000F90120812F5F8C59944FFC0120838CA9B8
:10325000282F30E08091640B482F50E08091650B5F
:10326000882F90E0840F951FAC016BE3629FC00133
:10327000639F900D11248057934FFC01518340832D
:103280009091650B8091640B692F0E94B3448CA9C7
:10329000282F30E04BE3429FC001439F900D112443
:1032A0008057934FFC01208131818F81482F50E05E
:1032B0006BE3649FC001659F900D11248057934F6D
:1032C000FC01808191818217930710F48CA98F8370
:1032D0001092710B1092720B1A866EE57CE08CA92D
:1032E0000E9477448CA98F5F8CAB809106029CA9C9
:1032F000891708F090CE8F8189839E0128573F4F10
:1033000080E090E0AAE7B4E4F90180839183A2838E
:10331000B3838E0106531F4FCE0188579F4F20E085
:1033200030E04AE755E4FC0160817181828193813C
:103330000E941466DC01CB01F80180839183A28393
:10334000B383CE0186539F4F20E030E040E85FE337
:10335000FC0160817181828193810E94C66488230F
:103360000CF462C0CE0186539F4F20E03FEF4FE741
:1033700057E4FC0160817181828193810E94106613
:1033800018160CF03EC0CE0188579F4F20E030E069
:1033900040E251E4FC0160817181828193810E944D
:1033A0001466DC01CB018E0102531F4FBC01CD011D
:1033B0000E943265DC01CB01F8019183808318C043
:1033C00080E991E00197F1F79E0120533F4FF90109
:1033D00091838083CE0182539F4F9E0122533F4FA2
:1033E000F9012081318121503109FC013183208391
:1033F000CE0182539F4FFC0180819181892B01F77F
:1034000029C08E0102531F4FCE0186539F4FFC01EE
:1034100060817181828193810E943265DC01CB01E0
:10342000F8019183808308C0CE0182539F4F21E031
:1034300030E0FC0131832083CE0182539F4FFC0199
:10344000808191810197F1F79E012E523F4FF90142
:103450009183808381E08DAB13C08DA9282F30E04C
:103460004BE3429FC001439F900D11248057934F1F
:103470002CED35E0FC01318320838DA98F5F8DAB6E
:10348000809106029DA9891740F7809106026EE59A
:103490007CE00E9477444AEF52E060E080E00E94C6
:1034A000A40E8981882F90E0292F2F938F9382E992
:1034B00092E0892F8F9382E992E08F93CE0184511D
:1034C0009E4F292F2F938F930E942C670F900F9060
:1034D0000F900F900F900F90CE0184519E4FAC0132
:1034E0006BE080E00E94A40E4BE053E060E081E0DE
:1034F0000E94A40E4BE153E060E082E00E94A40E23
:1035000082E080936C0B0C9411358C858823C1F17B
:103510000E947A0E4AEF52E060E080E00E94A40E22
:103520008981882F90E0292F2F938F9382E992E051
:10353000892F8F9382E992E08F93CE0184519E4F21
:10354000292F2F938F930E942C670F900F900F902D
:103550000F900F900F90CE0184519E4FAC016BE005
:1035600080E00E94A40E4BE053E060E081E00E9406
:10357000A40E4BE153E060E082E00E94A40E1C86A2
:1035800080916A0B90916B0B88279470892B39F48A
:103590008BA1882321F48CA1882309F4A8C08985F4
:1035A000882309F4A4C08F85882309F4A0C08889E2
:1035B000882309F49CC08D89882309F498C06AE0A7
:1035C0008AE00E94B344909106028981692F0E948B
:1035D0007766892F8F5F89834AEF52E060E080E051
:1035E0000E94A40E8981882F90E0292F2F938F931A
:1035F00082E992E0892F8F9382E992E08F93CE0146
:1036000084519E4F292F2F938F930E942C670F90E8
:103610000F900F900F900F900F90CE0184519E4FFE
:10362000AC016BE080E00E94A40E4BE053E060E050
:1036300081E00E94A40E4BE153E060E082E00E9432
:10364000A40E198688E290E028E230E0F90120819A
:103650002F73FC0120831B861E861E8A19A21AA2C4
:103660001BA21CA28981282F30E04BE3429FC0019E
:10367000439F900D11248E56934FFC018081282F7B
:1036800030E04EE4429FC001439F900D11248950C9
:10369000924FFC0180818F8F8F8D843099F48981C6
:1036A000282F30E04BE3429FC001439F900D11242F
:1036B0008D56934FFC018081882321F081E089A3FE
:1036C00081E089878981282F30E04BE3429FC00148
:1036D000439F900D11248856934FFC0180818823CD
:1036E00031F081E08CA381E0898783E08F8F809126
:1036F0006A0B90916B0B88279470892B89F08B81D2
:10370000882371F48F85882359F08D89882341F0AF
:103710006AE08AE00E94B34481E08B831E861E8AA1
:103720008985882309F0D2C18B81882309F4CEC111
:103730008CA1882309F0CAC10E9477389091640B4C
:103740008091650B981709F049C089A1882309F079
:1037500045C01B828A818F5F8A831092710B109201
:10376000720B8A81882F90E08230910581F083303E
:103770009105B9F0019709F034C088E290E028E2A1
:1037800030E0F90120812064FC01208326C088E21A
:1037900090E028E230E0F90120812068FC012083DC
:1037A0001CC088E290E028E230E0F90120812F730C
:1037B000FC0120831092710B1092720B1A821092EE
:1037C000640B1092650B81E08B8381E0898789818E
:1037D0000E94574784E08F8F000003C081E08987F3
:1037E0001A828981282F30E04BE3429FC001439F1A
:1037F000900D11248E56934FFC0180818F5F8EAB0C
:10380000D9C09EA98DEC989F812D11248295869513
:10381000877028E2829F802D1124F92FF81B8F2FAB
:1038200069810E94C9429EA98DEC989F812D112427
:1038300082958695877028E2829F802D1124292FFA
:10384000281B822F882331F448EC50E0698180E006
:103850000E9486619E0128593F4F80E090E0A8ECCD
:10386000B2E4F90180839183A283B3838E010C5269
:103870001F4FCE0188599F4F20E030E04AE755E4C2
:10388000FC0160817181828193810E941466DC0158
:10389000CB01F80180839183A283B383CE018C5244
:1038A0009F4F20E030E040E85FE3FC0160817181E0
:1038B000828193810E94C66488230CF462C0CE0189
:1038C0008C529F4F20E03FEF4FE757E4FC016081AF
:1038D0007181828193810E94106618160CF03EC09F
:1038E000CE0188599F4F20E030E040E251E4FC01D6
:1038F00060817181828193810E941466DC01CB0119
:103900008E0108521F4FBC01CD010E943265DC01BF
:10391000CB01F8019183808318C080E991E0019781
:10392000F1F79E0126523F4FF90191838083CE012A
:1039300088529F4F9E0128523F4FF90120813181CB
:1039400021503109FC0131832083CE0188529F4FE1
:10395000FC0180819181892B01F729C08E010852D9
:103960001F4FCE018C529F4FFC016081718182817B
:1039700093810E943265DC01CB01F8019183808341
:1039800008C0CE0188529F4F21E030E0FC01318316
:103990002083CE0188529F4FFC0180819181019745
:1039A000F1F79E0124523F4FF901918380838EA944
:1039B0008F5F8EAB8EA9282F30E08981482F50E091
:1039C0006BE3649FC001659F900D11248E56934F49
:1039D000FC018081482F50E08091640B682F70E0DB
:1039E0008091650B882F90E0860F971F840F951F9D
:1039F000821793070CF005CF8981282F30E0898149
:103A0000482F50E06BE3649FC001659F900D112427
:103A10008E56934FFC018081482F50E08091640BBB
:103A2000682F70E08091650B882F90E0860F971FBC
:103A3000840F951F48E250E0BA010E949766582F04
:103A40004BE3429FC001439F900D11248E56934F2C
:103A5000FC0150838981282F30E04BE3429FC00155
:103A6000439F900D11248E56934FFC0180816981F4
:103A70000E94C9428981282F30E04BE3429FC00158
:103A8000439F900D11248E56934FFC018081282F67
:103A900030E04EE4429FC001439F900D11248950B5
:103AA000924FFC0180818F8F8981282F30E04BE37A
:103AB000429FC001439F900D11248E56934FFC01ED
:103AC00080818C831092710B1092720B8091060290
:103AD0006EE57CE00E94774480916A0B90916B0BBD
:103AE00088279071892B21F01B8685E080936C0BD1
:103AF0008F8D882F90E0092E000CAA0BBB0B40E0A5
:103B000050E027E030E0841B950B2817390710F4AC
:103B10000C940A35FC018827E658FF4F8F4F0C9410
:103B2000AA668C81873031F08C81863119F08C81C6
:103B3000843211F41F8A02C081E08F8B8E89882322
:103B400011F00C94AE271D8A80916A0B90916B0B3B
:103B500088279074892B19F48B89882379F405EFD1
:103B600019E12C894B8969818F890E9461628E8B52
:103B70008E89882319F48B898E5F8B8B8981882F9E
:103B800090E00197895F9D4FFC018081282F30E0F4
:103B900080916A0B90916B0B82239323892B11F4F4
:103BA0000C94AE2781E08C8B05EF19E12C894B89B1
:103BB00069818F890E9461628E8B8981282F30E014
:103BC0004BE3429FC001439F900D11248E56934FAB
:103BD000FC018081282F30E04EE4429FC001439FCA
:103BE000900D11248950924FFC0180818F8F898123
:103BF000282F30E04BE3429FC001439F900D1124DA
:103C00008E56934FFC0180818C831C8A1B8A81E035
:103C10008D8B81E08C870C94AE278C81282F30E02F
:103C20004EE4429FC001439F900D1124885F914F45
:103C3000FC018081882321F5188A8E01055B1F4FC6
:103C4000498165EC7DE08C810E941335F801808309
:103C5000CE01855B9F4FFC018081882F90E08130F1
:103C6000910519F0029721F00BC081E0888B08C004
:103C700081E0888B81E08E8783E080936C0B00006D
:103C80008C81482F50E0CE018B5A9F4F6EE4649F89
:103C90009001659F300D11242E5E314FF901208176
:103CA000FC0120838C81282F30E04EE4429FC0012C
:103CB000439F900D1124885F914FFC0180818823E0
:103CC00011F40C94B1278C81282F30E04EE4429FF0
:103CD000C001439F900D1124885F914FFC0190819A
:103CE0008981981711F40C94B1278E85813011F4D5
:103CF0000C94B127CE018B5A9F4FFC018081882301
:103D000011F00C94B1271F868B85882309F003C11D
:103D10008C81282F30E04EE4429FC001439F900DDC
:103D20001124885F914FFC0180818D878C81482F01
:103D300050E08C81282F30E06EE4629FC001639FC9
:103D4000900D1124815F914FFC018081882F90E0BC
:103D500067E2649F9001659F300D1124820F931FCD
:103D6000880F991F8650924FFC0180819181998F15
:103D7000888F8C81282F30E04EE4429FC001439F02
:103D8000900D11248A5F914FFC0120813181CE0179
:103D90008F5A9F4FFC01208381E08A8F1FAA25C084
:103DA0008C81482F50E08FA9882F90E06EE4649FAB
:103DB0009001659F300D1124820F931F865F914FF4
:103DC000FC018081282F30E04EE4429FC001439FD8
:103DD000900D1124885F914FFC0190818D8598177B
:103DE00009F01A8E8FA98F5F8FAB8FA98330C0F235
:103DF0008A8D8823A9F0CE018F5A9F4FFC018081C4
:103E0000282F30E0888D998D8217930748F4CE01D2
:103E10008F5A9F4FFC018081882F90E0998F888F67
:103E20004AEF52E060E080E00E94A40E8981882F72
:103E300090E0292F2F938F9382E992E0892F8F931F
:103E400082E992E08F93CE0184519E4F292F2F93C8
:103E50008F930E942C670F900F900F900F900F90F0
:103E60000F90CE0184519E4FAC016BE080E00E9428
:103E7000A40E4CE253E060E081E00E94A40E898D24
:103E80008F93888D8F9382E992E0892F8F9382E9B7
:103E900092E08F93CE0184519E4F292F2F938F93C1
:103EA0000E942C670F900F900F900F900F900F9023
:103EB000CE0184519E4FAC016AE081E00E94A40EC5
:103EC0004DE353E060E082E00E94A40E8D85882FD0
:103ED00090E0292F2F938F9382E992E0892F8F937F
:103EE00082E992E08F93CE0184519E4F292F2F9328
:103EF0008F930E942C670F900F900F900F900F9050
:103F00000F90CE0184519E4FAC016BE082E00E9485
:103F1000A40E81E08B878981882F90E00197895FCB
:103F20009D4FFC018081282F30E080916A0B909199
:103F30006B0B82239323892B11F40C94B127888D6A
:103F4000998DAC016D8589810E9486618E878E85F1
:103F5000813011F00C94B1271B8681E08F8781E0BE
:103F60008C87FFC78E85813009F4FEC71F868B853D
:103F7000882309F068C08C81282F30E04EE4429FEE
:103F8000C001439F900D11248850924FFC01808105
:103F90009181998F888F4AEF52E060E080E00E9423
:103FA000A40E8981882F90E0292F2F938F9382E987
:103FB00092E0892F8F9382E992E08F93CE01845112
:103FC0009E4F292F2F938F930E942C670F900F9055
:103FD0000F900F900F900F90CE0184519E4FAC0127
:103FE0006BE080E00E94A40E4CE253E060E081E0D0
:103FF0000E94A40E898D8F93888D8F9382E992E021
:10400000892F8F9382E992E08F93CE0184519E4F46
:10401000292F2F938F930E942C670F900F900F9052
:104020000F900F900F90CE0184519E4FAC016AE02B
:1040300081E00E94A40E4EE453E060E082E00E9422
:10404000A40E81E08B878981882F90E00197895F9A
:104050009D4FFC018081282F30E080916A0B909168
:104060006B0B82239323892B09F47EC7888D998D4E
:10407000AC0160E089810E9486618E878E858130E7
:1040800009F072C71B8681E08F8781E08C876CC73F
:104090008C81282F30E04EE4429FC001439F900D59
:1040A0001124885F914FFC018081882321F5188AB3
:1040B0008E01055B1F4F498165EC7DE08C810E947C
:1040C0001335F8018083CE01855B9F4FFC01808111
:1040D000882F90E08130910519F0029721F00BC0F4
:1040E00081E0888B08C081E0888B81E08E8783E047
:1040F00080936C0B00008C81482F50E0CE018B5ACE
:104100009F4F6EE4649F9001659F300D11242E5ED9
:10411000314FF9012081FC0120838C81282F30E070
:104120004EE4429FC001439F900D1124885F914F40
:10413000FC018081882309F41AC78C81282F30E084
:104140004EE4429FC001439F900D1124885F914F20
:10415000FC0190818981981709F409C78E85813007
:1041600009F405C7CE018B5A9F4FFC01808188233B
:1041700009F0FDC61F868B85882309F0CCC08C8191
:10418000282F30E04EE4429FC001439F900D112440
:10419000885F914FFC0180818D87198A85E088AF07
:1041A00022C088AD282F30E04EE4429FC001439FDB
:1041B000900D1124885F914FFC0140818C81282F44
:1041C00030E05EE4529FC001539F900D1124885F40
:1041D000914FFC018081481719F489898F5F898B81
:1041E00088AD865F88AF88AD8432D8F289898150E6
:1041F000898B8C81482F50E08989882F90E067E275
:10420000649F9001659F300D1124820F931F880FCA
:10421000991F8650924FFC0180819181998F888FE0
:104220004AEF52E060E080E00E94A40E8981882F6E
:1042300090E0292F2F938F9382E992E0892F8F931B
:1042400082E992E08F93CE0184519E4F292F2F93C4
:104250008F930E942C670F900F900F900F900F90EC
:104260000F90CE0184519E4FAC016BE080E00E9424
:10427000A40E4CE253E060E081E00E94A40E898D20
:104280008F93888D8F9382E992E0892F8F9382E9B3
:1042900092E08F93CE0184519E4F292F2F938F93BD
:1042A0000E942C670F900F900F900F900F900F901F
:1042B000CE0184519E4FAC016AE081E00E94A40EC1
:1042C0004DE353E060E082E00E94A40E8D85882FCC
:1042D00090E0292F2F938F9382E992E0892F8F937B
:1042E00082E992E08F93CE0184519E4F292F2F9324
:1042F0008F930E942C670F900F900F900F900F904C
:104300000F90CE0184519E4FAC016BE082E00E9481
:10431000A40E81E08B878981882F90E00197895FC7
:104320009D4FFC018081282F30E080916A0B909195
:104330006B0B82239323892B09F419C6888D998DE1
:10434000AC016D8589810E9486618E878E85813062
:1043500009F00DC61B8681E08F8781E08C8707C638
:1043600089A1882309F406C68981282F30E04BE310
:10437000429FC001439F900D11248D56934FFC0125
:104380008081882309F415C18AA1882309F011C10D
:104390004AEF52E060E080E00E94A40E8981882FFD
:1043A00090E0292F2F938F9382E992E0892F8F93AA
:1043B00082E992E08F93CE0184519E4F292F2F9353
:1043C0008F930E942C670F900F900F900F900F907B
:1043D0000F90CE0184519E4FAC016BE080E00E94B3
:1043E000A40E4FE553E060E081E00E94A40E40E798
:1043F00053E060E082E00E94A40E81E08AA39E0167
:1044000024593F4F80E090E4ACE9B5E4F9018083A2
:104410009183A283B3838E0102521F4FCE01845930
:104420009F4F20E030E04AE755E4FC016081718154
:10443000828193810E941466DC01CB01F8018083A4
:104440009183A283B383CE0182529F4F20E030E05C
:1044500040E85FE3FC0160817181828193810E9469
:10446000C66488230CF462C0CE0182529F4F20E0C4
:104470003FEF4FE757E4FC016081718182819381B6
:104480000E94106618160CF03EC0CE0184599F4F52
:1044900020E030E040E251E4FC01608171818281E2
:1044A00093810E941466DC01CB018E010E511F4FD7
:1044B000BC01CD010E943265DC01CB01F801918382
:1044C000808318C080E991E00197F1F79E012C519B
:1044D0003F4FF90191838083CE018E519F4F9E0102
:1044E0002E513F4FF9012081318121503109FC01CA
:1044F00031832083CE018E519F4FFC0180819181B9
:10450000892B01F729C08E010E511F4FCE01825217
:104510009F4FFC0160817181828193810E9432658D
:10452000DC01CB01F8019183808308C0CE018E515C
:104530009F4F21E030E0FC0131832083CE018E517A
:104540009F4FFC01808191810197F1F79E012A51D3
:104550003F4FF901918380838981282F30E04BE31D
:10456000429FC001439F900D11248B56934FFC0135
:104570008081882379F01092040241E853E060E0E2
:1045800081E00E94A40E42E953E060E082E00E94D4
:10459000A40E0FC081E08093040243EA53E060E080
:1045A00081E00E94A40E44EB53E060E082E00E94B0
:1045B000A40E80910402882F90E08130910509F4C7
:1045C0005BC0823091051CF4892B49F0DAC282303D
:1045D000910509F478C0039709F4DEC0D2C28E8138
:1045E000882381F045EC53E060E081E00E94A40E56
:1045F00044EB53E060E082E00E94A40E81E08093EF
:104600000402BAC28D81882309F4B6C28981282F99
:1046100030E04BE3429FC001439F900D11248D5623
:10462000934FFC0110828981282F30E04BE3429F99
:10463000C001439F900D11248B56934FFC011082B3
:104640008981282F30E04BE3429FC001439F900DAA
:1046500011248C56934FFC011082198619A24BE04D
:1046600053E060E081E00E94A40E46ED53E060E07C
:1046700082E00E94A40E80C28E81882381F047EEE2
:1046800053E060E081E00E94A40E48EF53E060E058
:1046900082E00E94A40E82E0809304026FC28D81AA
:1046A000882309F46BC24BE053E060E081E00E9494
:1046B000A40E46ED53E060E082E00E94A40E83E089
:1046C000809304025BC28E81882371F18981282F37
:1046D00030E04BE3429FC001439F900D11248B5665
:1046E000934FFC018081882379F041E853E060E03A
:1046F00081E00E94A40E42E953E060E082E00E9463
:10470000A40E109204023CC245EC53E060E081E04C
:104710000E94A40E44EB53E060E082E00E94A40EED
:1047200081E0809304022CC28D81882309F428C281
:1047300042E350E060E089810E9486618E878E8529
:10474000813009F01DC249E054E060E081E00E9440
:10475000A40E4AE154E060E082E00E94A40E898148
:10476000282F30E04BE3429FC001439F900D11245E
:104770008D56934FFC0110828981282F30E04BE346
:10478000429FC001439F900D11248C56934FFC0112
:104790001082198619A2F4C11092710B1092720B3B
:1047A0000E9477389091640B8091650B981709F0FF
:1047B000D5C04BE254E060E081E00E94A40E46EDDB
:1047C00053E060E082E00E94A40E8981282F30E04F
:1047D0004BE3429FC001439F900D11248D56934F90
:1047E000FC0110828981282F30E04BE3429FC001F9
:1047F000439F900D11248C56934FFC011082198613
:104800009E0120593F4F80E090E4ACE9B5E4F90106
:1048100080839183A283B3838E0108511F4FCE0101
:1048200080599F4F20E030E04AE755E4FC01608169
:104830007181828193810E941466DC01CB01F801B1
:1048400080839183A283B383CE0188519F4F20E060
:1048500030E040E85FE3FC016081718182819381F7
:104860000E94C66488230CF462C0CE0188519F4F19
:1048700020E03FEF4FE757E4FC01608171818281C6
:1048800093810E94106618160CF03EC0CE0180592C
:104890009F4F20E030E040E251E4FC0160817181F3
:1048A000828193810E941466DC01CB018E01045148
:1048B0001F4FBC01CD010E943265DC01CB01F80124
:1048C0009183808318C080E991E00197F1F79E0100
:1048D00022513F4FF90191838083CE0184519F4F34
:1048E0009E0124513F4FF90120813181215031092E
:1048F000FC0131832083CE0184519F4FFC018081D4
:104900009181892B01F73DC18E0104511F4FCE01CA
:1049100088519F4FFC0160817181828193810E9447
:104920003265DC01CB01F8019183808308C0CE01A0
:1049300084519F4F21E030E0FC0131832083CE0180
:1049400084519F4FFC01808191810197F1F79E0175
:1049500020513F4FF9019183808313C14CE354E010
:1049600060E081E00E94A40E46ED53E060E082E04A
:104970000E94A40E1092710B1092720B8981282F45
:1049800030E08981482F50E06BE3649FC001659F50
:10499000900D11248C56934FFC01808141E0480F0B
:1049A0005BE3529FC001539F900D11248C56934F8F
:1049B000FC0140838981282F30E04BE3429FC001F6
:1049C000439F900D11248C56934FFC0180818330BE
:1049D00019F542E350E060E089810E9486618E878C
:1049E0008981282F30E04BE3429FC001439F900D07
:1049F00011248D56934FFC0110828981282F30E0BD
:104A00004BE3429FC001439F900D11248C56934F5E
:104A1000FC0110821986B5C081E08BA39E012C5841
:104A20003F4F80E090E4ACE9B5E4F90180839183E5
:104A3000A283B3838E010E501F4FCE018C589F4F1F
:104A400020E030E04AE755E4FC0160817181828119
:104A500093810E941466DC01CB01F801808391836D
:104A6000A283B383CE018E509F4F20E030E040E818
:104A70005FE3FC0160817181828193810E94C66441
:104A800088230CF462C0CE018E509F4F20E03FEF90
:104A90004FE757E4FC0160817181828193810E941C
:104AA000106618160CF03EC0CE018C589F4F20E0C7
:104AB00030E040E251E4FC016081718182819381A8
:104AC0000E941466DC01CB018E010A501F4FBC010D
:104AD000CD010E943265DC01CB01F8019183808316
:104AE00018C080E991E00197F1F79E0128503F4FEF
:104AF000F90191838083CE018A509F4F9E012A50F5
:104B00003F4FF9012081318121503109FC0131836E
:104B10002083CE018A509F4FFC0180819181892B97
:104B200001F72FC08E010A501F4FCE018E509F4FAC
:104B3000FC0160817181828193810E943265DC0178
:104B4000CB01F8019183808308C0CE018A509F4F2A
:104B500021E030E0FC0131832083CE018A509F4F59
:104B6000FC01808191810197F1F79E0126503F4F12
:104B7000F9019183808305C0000003C0000001C0DB
:104B800000008981882F90E00197895F9D4FFC018B
:104B90008081282F30E080916A0B90916B0B8223EB
:104BA0009323892B21F081E08D831E82E3C18981CB
:104BB000882F90E00197855F9D4FFC018081282F11
:104BC00030E080916A0B90916B0B82239323892BA9
:104BD00021F01D8281E08E83CDC11D821E82CAC15B
:104BE00089810E94574784E08F8F8981282F30E088
:104BF0004BE3429FC001439F900D11248D56934F6C
:104C000021E0FC01208381E08B8381E08987B6C1AC
:104C10008C81282F30E04EE4429FC001439F900DCD
:104C20001124885F914FFC018081882321F5188A27
:104C30008E01055B1F4F498165EC7DE08C810E94F0
:104C40001335F8018083CE01855B9F4FFC01808185
:104C5000882F90E08130910519F0029721F00BC068
:104C600081E0888B08C081E0888B81E08E8783E0BB
:104C700080936C0B00008C81482F50E0CE018B5A42
:104C80009F4F6EE4649F9001659F300D11242E5E4E
:104C9000314FF9012081FC0120838C81282F30E0E5
:104CA0004EE4429FC001439F900D1124885F914FB5
:104CB000FC018081882309F460C18C81282F30E0B9
:104CC0004EE4429FC001439F900D1124885F914F95
:104CD000FC0190818981981709F44FC18E8581303C
:104CE00009F44BC1CE018B5A9F4FFC018081882370
:104CF00009F043C11F868B85882309F005C1909177
:104D0000B01180919016981719F48AE08A8B02C02E
:104D100084E08A8B4AEF52E060E080E00E94A40EBB
:104D20008981882F90E0292F2F938F9382E992E039
:104D3000892F8F9382E992E08F93CE0184519E4F09
:104D4000292F2F938F930E942C670F900F900F9015
:104D50000F900F900F90CE0184519E4FAC016BE0ED
:104D600080E00E94A40E4DE454E060E081E00E94E7
:104D7000A40E4FE554E060E082E00E94A40E8A8910
:104D8000882F90E0292F2F938F9382E992E0892F2B
:104D90008F9382E992E08F93CE0184519E4F292F09
:104DA0002F938F930E942C670F900F900F900F906E
:104DB0000F900F90CE0184519E4FAC016EE082E0C7
:104DC0000E94A40E0E9477388C81282F30E04EE498
:104DD000429FC001439F900D1124885F914FFC01B9
:104DE00080818D878091640B282F30E08091650B46
:104DF000882F90E0A901480F591F8A89282F30E099
:104E0000429FC001439F900D529F900D1124998F96
:104E1000888F4AEF52E060E080E00E94A40E898112
:104E2000882F90E0292F2F938F9382E992E0892F8A
:104E30008F9382E992E08F93CE0184519E4F292F68
:104E40002F938F930E942C670F900F900F900F90CD
:104E50000F900F90CE0184519E4FAC016BE080E02B
:104E60000E94A40E4CE253E060E081E00E94A40E98
:104E7000898D8F93888D8F9382E992E0892F8F930C
:104E800082E992E08F93CE0184519E4F292F2F9378
:104E90008F930E942C670F900F900F900F900F90A0
:104EA0000F90CE0184519E4FAC016AE081E00E94D8
:104EB000A40E4DE353E060E082E00E94A40E8D85D5
:104EC000882F90E0292F2F938F9382E992E0892FEA
:104ED0008F9382E992E08F93CE0184519E4F292FC8
:104EE0002F938F930E942C670F900F900F900F902D
:104EF0000F900F90CE0184519E4FAC016BE082E089
:104F00000E94A40E81E08B878981882F90E0019711
:104F1000895F9D4FFC018081282F30E080916A0BD2
:104F200090916B0B82239323892B39F1888D998D76
:104F3000AC016D8589810E9486618E878E85813066
:104F4000E1F41B8681E08F8781E08C871092710BE2
:104F50001092720B12C000000C940A3500000C94E1
:104F60000A3500000C940A3500000C940A35000044
:104F70000C940A3500000C940A3500000C940A3594
:104F80008B85882309F050C00E947A0E40E754E0D8
:104F900060E080E00E94A40E8C81282F30E04EE477
:104FA000429FC001439F900D11248B53924FAC013F
:104FB00060E081E00E94A40E41E854E060E082E0FD
:104FC0000E94A40E89E090E09E8F8D8F81E08B87F8
:104FD00081E089AF24C089AD882F90E029AD422FB0
:104FE00050E06BE3649F9001659F300D11242057C2
:104FF000334FF90120813181AE014E5F5D4F880F43
:10500000991F840F951FFC013183208340E069AD17
:1050100080E090E00E94604389AD8F5F89AF80910E
:10502000060299AD8917B8F61AAE92C08AAD882FDC
:1050300090E0895F9D4FFC018081282F30E08091B6
:105040006A0B90916B0B82239323892B09F449C03F
:105050008AAD882F90E09E0124503E4F820F931F0F
:10506000FC0180818823E9F58AAD882F90E09C01BE
:105070002F5F3F4F4BE3429FC001439F900D112490
:105080008057934FFC01208131818D8D9E8D821739
:10509000930738F58D8D9E8D01969E8F8D8F81E0C3
:1050A0008BAF09C040E06BAD80E090E00E946043B0
:1050B0008BAD8F5F8BAF809106029BAD891790F708
:1050C0008AAD21E0280F8D8D9E8D41E0622F0E94D8
:1050D00060438AAD21E0280FCE0184509E4FFC0131
:1050E00025838AAD882F90E0855F9D4FFC018081EC
:1050F000282F30E080916A0B90916B0B82239323D1
:10510000892B19F18AAD882F90E09E0124503E4FE3
:10511000820F931FFC0180818823B9F48AAD882F08
:1051200090E09E0124503E4F820F931F21E0FC012E
:105130002083CE0184509E4FFC01848121E0280F02
:10514000CE0184509E4FFC0124838AAD8F5F8AAFCD
:10515000809106029AAD981708F468CFCE0184506A
:105160009E4FFC01948180910602981711F00C94D7
:105170000D35CE0184509E4FFC018581882309F4B2
:1051800053C10E947A0E42E954E060E080E00E9440
:10519000A40E4AEF52E060E081E00E94A40ECE012E
:1051A00084509E4FFC018581882F90E0292F2F93FA
:1051B0008F9382E992E0892F8F9382E992E08F9317
:1051C000CE0184519E4F292F2F938F930E942C67DD
:1051D0000F900F900F900F900F900F90CE01845171
:1051E0009E4FAC016BE081E00E94A40E9E01285806
:1051F0003F4F80E090E8ABE3B5E4F9018083918311
:10520000A283B3838E0104501F4FCE0188589F4F55
:1052100020E030E04AE755E4FC0160817181828141
:1052200093810E941466DC01CB01F8018083918395
:10523000A283B383CE0184509F4F20E030E040E84A
:105240005FE3FC0160817181828193810E94C66469
:1052500088230CF45CC0CE0184509F4F20E03FEFC8
:105260004FE757E4FC0160817181828193810E9444
:1052700010661816D4F5CE0188589F4F20E030E014
:1052800040E251E4FC0160817181828193810E943E
:105290001466DC01CB018E011395BC01CD010E9487
:1052A0003265DC01CB01F8019183808316C080E96F
:1052B00091E00197F1F79E012E5F3E4FF901918336
:1052C0008083CE0193959E013395F9012081318130
:1052D00021503109FC0131832083CE019395FC01DB
:1052E00080819181892B19F726C08E011395CE01FB
:1052F00084509F4FFC0160817181828193810E9463
:105300003265DC01CB01F8019183808307C0CE01B7
:10531000939521E030E0FC0131832083CE01939509
:10532000FC01808191810197F1F79E012C5F3E4F36
:10533000F9019183808381E08CAF1EC08CAD482F32
:1053400050E08CAD882F90E09E012E5F3D4F880F7E
:10535000991F820F931FFC01208131816BE3649FB1
:10536000C001659F900D11248057934FFC0131833C
:1053700020838CAD8F5F8CAF809106029CAD891726
:10538000E8F6809106026EE57CE00E947744CE014B
:1053900084509E4FFC0125818D8D9E8DAC0160E077
:1053A000822F0E9486618C81282F30E0CE018450AC
:1053B0009E4FFC0145815EE4529FC001539F900DBA
:1053C0001124885F914FFC014083CE0184509E4F91
:1053D000FC0155818C81282F30E04EE4429FC001B2
:1053E000439F900D1124805F914FFC018081652FB8
:1053F0000E9434421DAE0DC08DAD882F90E09E01FD
:1054000024503E4F820F931FFC0110828DAD8F5FA1
:105410008DAF8DAD863080F31B8681E08C8782E076
:1054200080936C0B0C940D350E947A0E43EA54E085
:1054300060E080E00E94A40E43EB54E060E081E075
:105440000E94A40E9E0124583F4F80E090E8ABE3F9
:10545000B5E4F90180839183A283B3838E010A5F4F
:105460001E4FCE0184589F4F20E030E04AE755E4BC
:10547000FC0160817181828193810E941466DC014C
:10548000CB01F80180839183A283B383CE018A5F2D
:105490009E4F20E030E040E85FE3FC0160817181D5
:1054A000828193810E94C66488230CF462C0CE017D
:1054B0008A5F9E4F20E03FEF4FE757E4FC01608199
:1054C0007181828193810E94106618160CF03EC093
:1054D000CE0184589F4F20E030E040E251E4FC01CF
:1054E00060817181828193810E941466DC01CB010D
:1054F0008E01065F1E4FBC01CD010E943265DC01AA
:10550000CB01F8019183808318C080E991E0019775
:10551000F1F79E01245F3E4FF90191838083CE0114
:10552000865F9E4F9E01265F3E4FF90120813181AB
:1055300021503109FC0131832083CE01865F9E4FCB
:10554000FC0180819181892B01F729C08E01065FC2
:105550001E4FCE018A5F9E4FFC0160817181828166
:1055600093810E943265DC01CB01F8019183808335
:1055700008C0CE01865F9E4F21E030E0FC01318300
:105580002083CE01865F9E4FFC018081918101972F
:10559000F1F79E01225F3E4FF9019183808381E004
:1055A0008EAF1EC08EAD482F50E08EAD882F90E09C
:1055B0009E012E5F3D4F880F991F820F931FFC01A4
:1055C000208131816BE3649FC001659F900D1124A0
:1055D0008057934FFC01318320838EAD8F5F8EAF58
:1055E000809106029EAD8917E8F6809106026EE56D
:1055F0007CE00E9477441FAE0DC08FAD882F90E0F5
:105600009E0124503E4F820F931FFC0110828FADEC
:105610008F5F8FAF8FAD863080F31B8681E08C87E4
:1056200082E080936C0B0C940D3589810E94AE55FD
:1056300081E08C8782E080936C0B0C941135809113
:105640000502882F90E08130910541F0823091056C
:1056500009F489C0892B09F443C0CEC08B85882307
:10566000A1F444EC54E060E080E00E94A40E45ED1B
:1056700054E060E081E00E94A40E46EE54E060E059
:1056800082E00E94A40E81E08B8780916A0B90914A
:105690006B0B88279074892B21F0109205021B86D2
:1056A000A4C080916A0B90916B0B88279071892B15
:1056B00041F081E08093050284E080936C0B1B86AF
:1056C00094C080916A0B90916B0B88279470892B02
:1056D00009F48BC082E080936C0B81E08C8785C0DD
:1056E0008B858823A1F444EC54E060E080E00E94C4
:1056F000A40E47EF54E060E081E00E94A40E46EE65
:1057000054E060E082E00E94A40E81E08B878091EB
:105710006A0B90916B0B88279074892B29F082E09B
:10572000809305021B8664C080916A0B90916B0B7D
:1057300088279071892B41F081E08093050286E0F3
:1057400080936C0B1B8654C080916A0B90916B0BFD
:1057500088279470892B09F44BC082E080936C0BEE
:1057600081E08C8745C08B858823A1F444EC54E00C
:1057700060E080E00E94A40E48E055E060E081E037
:105780000E94A40E46EE54E060E082E00E94A40E67
:1057900081E08B8780916A0B90916B0B88279074C6
:1057A000892B29F081E0809305021B8624C080911B
:1057B0006A0B90916B0B88279071892B41F081E0E7
:1057C0008093050287E080936C0B1B8614C0809148
:1057D0006A0B90916B0B88279470892B61F082E0A3
:1057E00080936C0B81E08C8706C000000C9411350F
:1057F00000000C94113500000C9411358B85882322
:1058000009F099C046ED53E060E080E00E94A40EEC
:1058100049E155E060E081E00E94A40E46EE54E0CC
:1058200060E082E00E94A40E81E08B87CE01805C64
:105830009F4FFC0110821AC0CE01805C9F4FFC017B
:105840008081882F90E09E01245F3D4F820F931F3F
:10585000FC011082CE01805C9F4FFC01808121E021
:10586000280FCE01805C9F4FFC012083CE01805C1D
:105870009F4FFC0180818C31F8F21B8ECE018F5B33
:105880009F4FFC01108231C0CE018F5B9F4FFC0106
:105890008081282F30E04EE4429FC001439F900D4D
:1058A0001124885F914FFC0190818981981791F4B0
:1058B0008B8D882F90E09E01245F3D4F820F931FB8
:1058C0009E012F5B3F4FF9012081FC0120838B8DCE
:1058D0008F5F8B8FCE018F5B9F4F9E012F5B3F4F62
:1058E000F90120812F5FFC012083CE018F5B9F4F48
:1058F000FC018081883240F246ED53E060E080E0B8
:105900000E94A40E8C8D882F90E09E01245F3D4F55
:10591000820F931FFC018081282F30E04EE4429FCC
:10592000C001439F900D11248B53924FAC0160E056
:1059300080E00E94A40E80916A0B90916B0B8827E7
:105940009074892B51F18C8D882F90E001962B8DCE
:10595000222F30E0B9010E9497668C8F46ED53E00C
:1059600060E080E00E94A40E8C8D882F90E09E0164
:10597000245F3D4F820F931FFC018081282F30E070
:105980004EE4429FC001439F900D11248B53924FD0
:10599000AC0160E080E00E94A40E80916A0B9091BF
:1059A0006B0B88279870892B09F409C181E08DA3BE
:1059B000CE018E5B9F4FFC01108239C08C8D882FE9
:1059C00090E09E01245F3D4F820F931FFC01808178
:1059D000482F50E0CE018E5B9F4FFC018081882FC5
:1059E00090E06EE4649F9001659F300D1124820F5A
:1059F000931F865F914FFC018081282F30E04EE499
:105A0000429FC001439F900D1124815F914FFC0183
:105A10008081882309F01DA2CE018E5B9F4F9E01DD
:105A20002E5B3F4FF90120812F5FFC012083CE01C7
:105A30008E5B9F4FFC018081833008F4BFCF8C8D3B
:105A4000882F90E09E01245F3D4F820F931FFC0141
:105A50008081282F30E04EE4429FC001439F900D8B
:105A600011248E5E914FFC018081882309F081C151
:105A70008DA1882309F47DC18C8D882F90E09E0133
:105A8000245F3D4F820F931FFC018081282F30E05F
:105A90004EE4429FC001439F900D11248850924FC5
:105AA000FC018081918196958795998F888F888D4B
:105AB000998DAC01698180E00E9486618E878E8518
:105AC000813009F056C18C8D882F90E09E01245FB3
:105AD0003D4F820F931FFC018081282F30E04EE460
