:100000000C94DE0D0C94FE0D0C94FE0D0C94FE0D64
:100010000C94FE0D0C94FE0D0C94FE0D0C94FE0D34
:100020000C94FE0D0C94FE0D0C94FE0D0C94FE0D24
:100030000C94FE0D0C94FE0D0C94FE0D0C94FE0D14
:100040000C94FE0D0C94FE0D0C94FE0D0C94FE0D04
:100050000C94FE0D0C94FE0D0C94FE0D0C94FE0DF4
:100060000C94FE0D0C94FE0D0C94FE0D0C94FE0DE4
:100070000C94FE0D0C94FE0D0C94FE0D0C94FE0DD4
:100080000C94FE0D0C94FE0D0C94FE0D0C94FE0DC4
:100090000C94FE0D0C94FE0D0C94FE0D0C94FE0DB4
:1000A0000C94FE0D0C94FE0D0C94FE0D0C94FE0DA4
:1000B0000C94FE0D0C94FE0D0C94FE0D0C94FE0D94
:1000C0000C94FE0D0C94FE0D0C94FE0D0C94FE0D84
:1000D0000C94FE0D0C94FE0D0C94FE0D0C94FE0D74
:1000E0000C94FE0D9316AF173F1A5A28B92BC32B49
:1000F000A22C6C2FCF1D531D751F452877218A26F2
:10010000A2260F208454465DFE54465DB1553D57EE
:10011000D157A358325A095A255D845E955E9F5E79
:10012000B45EBD5EDA5EF55EFC5E5B5F4F6C6920BF
:100130006D61672064696368202020206E696368B0
:10014000742E202020202020202020204765686554
:10015000207A756D2020202020202020576F726B80
:1001600073686F70000000000000000000000000D5
:10017000000000000000000000000000000000007F
:10018000000000000000000000000000000000006F
:10019000000000000000000000000000000000005F
:1001A000000000000000000000000000000000004F
:1001B000000000000000000000000000000000003F
:1001C000000000000000000000000000000000002F
:1001D000000000000000000000000000000000001F
:1001E000000000000000000000000000000000000F
:1001F00000000000467265696B6172746500000062
:1002000000000000000000000000000000000000EE
:1002100000000000000000000000000000000000DE
:1002200000000000000000000000000000000000CE
:1002300000000000000000000000000000000000BE
:1002400000000000000000000000000000000000AE
:10025000000000000000000000000000000000009E
:10026000000000000000000000000000000000008E
:10027000000000000000000000000000000000007E
:10028000000000000000000000000000000000006E
:10029000000000000000000000000000000000005E
:1002A000000000000000000000000000000000004E
:1002B000000000000000000000000000529A636B84
:1002C0006520766F72206269732020207A756D2018
:1002D0004E8463687374656E202020205765726BAE
:1002E000000000000000000000000000000000000E
:1002F00000000000000000000000000000000000FE
:1003000000000000000000000000000000000000ED
:1003100000000000000000000000000000000000DD
:1003200000000000000000000000000000000000CD
:1003300000000000000000000000000000000000BD
:1003400000000000000000000000000000000000AD
:10035000000000000000000000000000000000009D
:10036000000000000000000000000000000000008D
:10037000000000000000000000000000000000007D
:100380000000000044752068617374207A7520763F
:1003900069656C65416273656E7A656E2020202008
:1003A000202020205A61686C652035300000000054
:1003B000000000000000000000000000000000003D
:1003C000000000000000000000000000000000002D
:1003D000000000000000000000000000000000001D
:1003E000000000000000000000000000000000000D
:1003F00000000000000000000000000000000000FD
:1004000000000000000000000000000000000000EC
:1004100000000000000000000000000000000000DC
:1004200000000000000000000000000000000000CC
:1004300000000000000000000000000000000000BC
:10044000000000000000000000000000529A636BF2
:100450006520766F72206269732020207A75722081
:1004600050726F64756B74696F6E2020506F6C7979
:100470006D656368616E696B657200000000000065
:10048000000000000000000000000000000000006C
:10049000000000000000000000000000000000005C
:1004A000000000000000000000000000000000004C
:1004B000000000000000000000000000000000003C
:1004C000000000000000000000000000000000002C
:1004D000000000000000000000000000000000001C
:1004E000000000000000000000000000000000000C
:1004F00000000000000000000000000000000000FC
:1005000000000000000000000000000000000000EB
:10051000000000005A6965686520766F7220626984
:10052000732020207A7572206E8463687374656E00
:100530002020202048616C74657374656C6C6500C4
:1005400000000000000000000000000000000000AB
:10055000000000000000000000000000000000009B
:10056000000000000000000000000000000000008B
:10057000000000000000000000000000000000007B
:10058000000000000000000000000000000000006B
:10059000000000000000000000000000000000005B
:1005A000000000000000000000000000000000004B
:1005B000000000000000000000000000000000003B
:1005C000000000000000000000000000000000002B
:1005D0000000000000000000000000005A6965688B
:1005E0006520766F72206269732020207A757220F0
:1005F0006E8463687374656E2020202048616C747B
:10060000657374656C6C65000000000000000000FC
:1006100000000000000000000000000000000000DA
:1006200000000000000000000000000000000000CA
:1006300000000000000000000000000000000000BA
:1006400000000000000000000000000000000000AA
:10065000000000000000000000000000000000009A
:10066000000000000000000000000000000000008A
:10067000000000000000000000000000000000007A
:10068000000000000000000000000000000000006A
:10069000000000000000000000000000000000005A
:1006A000000000005A6965686520766F72206269F3
:1006B000732020204772756E6461757362696C6483
:1006C000756E6720456C656B74726F6E696B6572D1
:1006D000000000000000000000000000000000001A
:1006E000000000000000000000000000000000000A
:1006F00000000000000000000000000000000000FA
:1007000000000000000000000000000000000000E9
:1007100000000000000000000000000000000000D9
:1007200000000000000000000000000000000000C9
:1007300000000000000000000000000000000000B9
:1007400000000000000000000000000000000000A9
:100750000000000000000000000000000000000099
:100760000000000000000000000000005A696568F9
:100770006520766F72206269732020204D65636862
:100780006174726F6E696B20202020204C61626F53
:1007900072000000000000000000000000000000E7
:1007A0000000000000000000000000000000000049
:1007B0000000000000000000000000000000000039
:1007C0000000000000000000000000000000000029
:1007D0000000000000000000000000000000000019
:1007E0000000000000000000000000000000000009
:1007F00000000000000000000000000000000000F9
:1008000000000000000000000000000000000000E8
:1008100000000000000000000000000000000000D8
:1008200000000000000000000000000000000000C8
:1008300000000000529A636B6520766F722061752C
:1008400066202020537461727400000000000000D4
:100850000000000000000000000000000000000098
:100860000000000000000000000000000000000088
:100870000000000000000000000000000000000078
:100880000000000000000000000000000000000068
:100890000000000000000000000000000000000058
:1008A0000000000000000000000000000000000048
:1008B0000000000000000000000000000000000038
:1008C0000000000000000000000000000000000028
:1008D0000000000000000000000000000000000018
:1008E0000000000000000000000000000000000008
:1008F0000000000000000000000000004865757462
:100900006520496E666F726D696572744968722000
:1009100065756368209A626572202020537475643F
:1009200069656E67846E676520202020529A636B2C
:100930006520766F72206269732020205465636899
:100940006E696B756D000000000000000000000083
:100950000000000000000000000000000000000097
:100960000000000000000000000000000000000087
:100970000000000000000000000000000000000077
:100980000000000000000000000000000000000067
:100990000000000000000000000000000000000057
:1009A0000000000000000000000000000000000047
:1009B0000000000000000000000000000000000037
:1009C0000000000045732069737420646572203252
:1009D000352E2020447520657268846C74737420F1
:1009E000202020206465696E656E204C6F686E2E35
:1009F00020766F6E3730000000000000000000001D
:100A000000000000000000000000000000000000E6
:100A100000000000000000000000000000000000D6
:100A200000000000000000000000000000000000C6
:100A300000000000000000000000000000000000B6
:100A400000000000000000000000000000000000A6
:100A50000000000000000000000000000000000096
:100A60000000000000000000000000000000000086
:100A70000000000000000000000000000000000076
:100A80000000000000000000000000004573206925
:100A90007374206465722032352E202044752065E1
:100AA0007268846C74737420202020206465696EE1
:100AB000656E204C6F686E2E20766F6E313430007C
:100AC0000000000000000000000000000000000026
:100AD0000000000000000000000000000000000016
:100AE0000000000000000000000000000000000006
:100AF00000000000000000000000000000000000F6
:100B000000000000000000000000000000000000E5
:100B100000000000000000000000000000000000D5
:100B200000000000000000000000000000000000C5
:100B300000000000000000000000000000000000B5
:100B400000000000000000000000000000000000A5
:100B5000000000004765686520332046656C6465C9
:100B6000722020207A75729A636B000000000000EA
:100B70000000000000000000000000000000000075
:100B80000000000000000000000000000000000065
:100B90000000000000000000000000000000000055
:100BA0000000000000000000000000000000000045
:100BB0000000000000000000000000000000000035
:100BC0000000000000000000000000000000000025
:100BD0000000000000000000000000000000000015
:100BE0000000000000000000000000000000000005
:100BF00000000000000000000000000000000000F5
:100C000000000000000000000000000000000000E4
:100C10000000000000000000000000004475207289
:100C2000656E6F7669657273742020206465696EE5
:100C30006520204884757365722020205A61686C95
:100C40006520669A72206A656465732048617573D1
:100C500020323520756E6420669A72206A6564655C
:100C60007320486F74656C20313030000000000044
:100C70000000000000000000000000000000000074
:100C80000000000000000000000000000000000064
:100C90000000000000000000000000000000000054
:100CA0000000000000000000000000000000000044
:100CB0000000000000000000000000000000000034
:100CC0000000000000000000000000000000000024
:100CD0000000000000000000000000000000000014
:100CE0000000000044752077757264657374207A83
:100CF000756D20204B6C617373656E7665727472CE
:100D00006574657247657784686C742E205A6168D3
:100D10006C6520206A6564656D20537069656C653B
:100D200072203530000000000000000000000000CC
:100D300000000000000000000000000000000000B3
:100D400000000000000000000000000000000000A3
:100D50000000000000000000000000000000000093
:100D60000000000000000000000000000000000083
:100D70000000000000000000000000000000000073
:100D80000000000000000000000000000000000063
:100D90000000000000000000000000000000000053
:100DA0000000000000000000000000004475206802
:100DB0006173742065696E65202020205765747406
:100DC0006520676567656E2020202020506574656A
:100DD00072207665726C6F72656E20206475207368
:100DE0006368756C646573742069686D65696E65A8
:100DF0006E204B6166666565202020207A61686CF4
:100E00006520350000000000000000000000000028
:100E100000000000000000000000000000000000D2
:100E200000000000000000000000000000000000C2
:100E300000000000000000000000000000000000B2
:100E400000000000000000000000000000000000A2
:100E50000000000000000000000000000000000092
:100E60000000000000000000000000000000000082
:100E70000000000044752068617374206265692079
:100E80002020202065696E656D204B756E64656E4F
:100E90002020202065696E65207363686C65636837
:100EA00074652020426577657274756E6720202016
:100EB0002020202068696E7465726C617373656EA2
:100EC000202020206765686520696E2064656E209B
:100ED00020202020576F726B73686F700000000035
:100EE0000000000000000000000000000000000002
:100EF00000000000000000000000000000000000F2
:100F000000000000000000000000000000000000E1
:100F100000000000000000000000000000000000D1
:100F200000000000000000000000000000000000C1
:100F3000000000000000000000000000467265692B
:100F40006B6172746500000000000000000000008A
:100F50000000000000000000000000000000000091
:100F60000000000000000000000000000000000081
:100F70000000000000000000000000000000000071
:100F80000000000000000000000000000000000061
:100F90000000000000000000000000000000000051
:100FA0000000000000000000000000000000000041
:100FB0000000000000000000000000000000000031
:100FC0000000000000000000000000000000000021
:100FD0000000000000000000000000000000000011
:100FE0000000000000000000000000000000000001
:100FF00000000000000000000000000000000000F1
:101000000000000044752072656E6F76696572732A
:10101000742020206465696E65202048847573659E
:10102000722020205A61686C6520669A72206A6579
:10103000646573204861757320343020756E6420B8
:10104000669A72206A6564657320486F74656C20C7
:1010500031313500000000000000000000000000F9
:101060000000000000000000000000000000000080
:101070000000000000000000000000000000000070
:101080000000000000000000000000000000000060
:101090000000000000000000000000000000000050
:1010A0000000000000000000000000000000000040
:1010B0000000000000000000000000000000000030
:1010C000000000000000000000000000496E2064E5
:1010D0006572202020202020202020205665727359
:1010E00065747A756E672069737420206469722054
:1010F00065696E2046728473657220207A6572621B
:10110000726F6368656E2E20202020205A61686C03
:1011100065203130300000000000000000000000B9
:1011200000000000000000000000000000000000BF
:1011300000000000000000000000000000000000AF
:10114000000000000000000000000000000000009F
:10115000000000000000000000000000000000008F
:10116000000000000000000000000000000000007F
:10117000000000000000000000000000000000006F
:10118000000000000000000000000000000000005F
:101190000000000044752067946E6E7374206469CB
:1011A000722020206574776173206265696D20204C
:1011B00020202020536E61636B6175746F6D6174C4
:1011C000202020207A61686C652035300000000006
:1011D000000000000000000000000000000000000F
:1011E00000000000000000000000000000000000FF
:1011F00000000000000000000000000000000000EF
:1012000000000000000000000000000000000000DE
:1012100000000000000000000000000000000000CE
:1012200000000000000000000000000000000000BE
:1012300000000000000000000000000000000000AE
:10124000000000000000000000000000000000009E
:10125000000000000000000000000000496872204B
:101260006D616368742065696E65200945786B75EA
:101270007273696F6E202020202020207A61686CB4
:101280006520353000000000000000000000000074
:10129000000000000000000000000000000000004E
:1012A000000000000000000000000000000000003E
:1012B000000000000000000000000000000000002E
:1012C000000000000000000000000000000000001E
:1012D000000000000000000000000000000000000E
:1012E00000000000000000000000000000000000FE
:1012F00000000000000000000000000000000000EE
:1013000000000000000000000000000000000000DD
:1013100000000000000000000000000000000000CD
:1013200000000000447520686173742064696520C2
:101330002020202041627363686C75737372656945
:10134000736520206F7267616E6973696572742CB2
:10135000202020206A6564657220537069656C6581
:10136000722020207A61686C7420646972203130A8
:10137000000000000000000000000000000000006D
:10138000000000000000000000000000000000005D
:10139000000000000000000000000000000000004D
:1013A000000000000000000000000000000000003D
:1013B000000000000000000000000000000000002D
:1013C000000000000000000000000000000000001D
:1013D000000000000000000000000000000000000D
:1013E000000000000000000000000000456C656B7C
:1013F00074726F6E696B65722020202064657320A3
:101400004D6F6E617473202020202020447520656C
:101410007268846C747374203130300000000000F6
:1014200000000000000000000000000000000000BC
:1014300000000000000000000000000000000000AC
:10144000000000000000000000000000000000009C
:10145000000000000000000000000000000000008C
:10146000000000000000000000000000000000007C
:10147000000000000000000000000000000000006C
:10148000000000000000000000000000000000005C
:10149000000000000000000000000000000000004C
:1014A000000000000000000000000000000000003C
:1014B0000000000044752068696C667374206465E0
:1014C000696E656D4D6974736368FC6C657220624A
:1014D00065696D206C65726E656E2E20202020205F
:1014E00020202020447520657268846C74737420F9
:1014F000313000000000000000000000000000008B
:1015000000000000000000000000000000000000DB
:1015100000000000000000000000000000000000CB
:1015200000000000000000000000000000000000BB
:1015300000000000000000000000000000000000AB
:10154000000000000000000000000000000000009B
:10155000000000000000000000000000000000008B
:10156000000000000000000000000000000000007B
:10157000000000000000000000000000447520652D
:101580007268846C73742035300000000000000025
:10159000000000000000000000000000000000004B
:1015A000000000000000000000000000000000003B
:1015B000000000000000000000000000000000002B
:1015C000000000000000000000000000000000001B
:1015D000000000000000000000000000000000000B
:1015E00000000000000000000000000000000000FB
:1015F00000000000000000000000000000000000EB
:1016000000000000000000000000000000000000DA
:1016100000000000000000000000000000000000CA
:1016200000000000000000000000000000000000BA
:1016300000000000000000000000000000000000AA
:1016400000000000447520657268846C737420315A
:10165000303000000000000000000000000000002A
:10166000000000000000000000000000000000007A
:10167000000000000000000000000000000000006A
:10168000000000000000000000000000000000005A
:10169000000000000000000000000000000000004A
:1016A000000000000000000000000000000000003A
:1016B000000000000000000000000000000000002A
:1016C000000000000000000000000000000000001A
:1016D000000000000000000000000000000000000A
:1016E00000000000000000000000000000000000FA
:1016F00000000000000000000000000000000000EA
:10170000000000000000000000000000447520659B
:101710007268846C73742032350000000000000091
:1017200000000000000000000000000000000000B9
:1017300000000000000000000000000000000000A9
:101740000000000000000000000000000000000099
:101750000000000000000000000000000000000089
:101760000000000000000000000000000000000079
:101770000000000000000000000000000000000069
:101780000000000000000000000000000000000059
:101790000000000000000000000000000000000049
:1017A0000000000000000000000000000000000039
:1017B0000000000000000000000000000000000029
:1017C0000000000000000000000000000000000019
:1017D00000000000447520657268846C73742032C8
:1017E00030000000000000000000000000000000C9
:1017F00000000000000000000000000000000000E9
:1018000000000000000000000000000000000000D8
:1018100000000000000000000000000000000000C8
:1018200000000000000000000000000000000000B8
:1018300000000000000000000000000000000000A8
:101840000000000000000000000000000000000098
:101850000000000000000000000000000000000088
:101860000000000000000000000000000000000078
:101870000000000000000000000000000000000068
:101880000000000000000000000000000000000058
:10189000000000000000000000000000447520650A
:1018A0007268846C737420313030000000000000D6
:1018B0000000000000000000000000000000000028
:1018C0000000000000000000000000000000000018
:1018D0000000000000000000000000000000000008
:1018E00000000000000000000000000000000000F8
:1018F00000000000000000000000000000000000E8
:1019000000000000000000000000000000000000D7
:1019100000000000000000000000000000000000C7
:1019200000000000000000000000000000000000B7
:1019300000000000000000000000000000000000A7
:101940000000000000000000000000000000000097
:101950000000000000000000000000000000000087
:1019600000000000447520657268846C7374203137
:101970003030000000000000000000000000000007
:101980000000000000000000000000000000000057
:101990000000000000000000000000000000000047
:1019A0000000000000000000000000000000000037
:1019B0000000000000000000000000000000000027
:1019C0000000000000000000000000000000000017
:1019D0000000000000000000000000000000000007
:1019E00000000000000000000000000000000000F7
:1019F00000000000000000000000000000000000E7
:101A000000000000000000000000000000000000D6
:101A100000000000000000000000000000000000C6
:101A2000000000000000000000000000447520627B
:101A300069737420202020202020202057656C749A
:101A40006D6569737465722E2020202052FC636BD3
:101A50006520766F72206269732020205374617252
:101A600074207A696568652064656E20646F7070A3
:101A7000656C74656E2020202020202042657472E1
:101A800061672065696E0000000000000000000032
:101A90000000000000000000000000000000000046
:101AA0000000000000000000000000000000000036
:101AB0000000000000000000000000000000000026
:101AC0000000000000000000000000000000000016
:101AD0000000000000000000000000000000000006
:101AE00000000000000000000000000000000000F6
:101AF00000000000447520686173742067656765A5
:101B00006E2020206469652048616E647972656783
:101B1000656C202076657273746F7373656E2E200A
:101B200020202020529A636B6520766F72206269B4
:101B30007320202050726F64756B74696F6E202063
:101B400020202020456C656B74726F6E696B657226
:101B50000000000000000000000000000000000085
:101B60000000000000000000000000000000000075
:101B70000000000000000000000000000000000065
:101B80000000000000000000000000000000000055
:101B90000000000000000000000000000000000045
:101BA0000000000000000000000000000000000035
:101BB00000000000000000000000000011241FBE13
:101BC000CFEFD1E2DEBFCDBF00E00CBF1AE0A0E056
:101BD000B2E0ECE7FDEC00E00BBF02C007900D9215
:101BE000A23AB107D9F72BE1A2EABAE001C01D92EF
:101BF000A935B207E1F78FD20C94BC660C940000B3
:101C000098B19F7E98B998B19B7F98B98BB998B1DC
:101C1000926098B98150833038F48FE291E1019756
:101C2000F1F700C0000003C090EA9A95F1F788B17F
:101C30008D7F88B908951F93CF93DF93CDB7DEB71B
:101C400029970FB6F894DEBF0FBECDBF8FEF8AB9CC
:101C500087B988B1806288B92FEF80E792E0215080
:101C600080409040E1F700C0000088B18E7F88B9C5
:101C700089E0EEE2F2E0DE01119601900D928A9584
:101C8000E1F710E00AC0E1E0F0E0EC0FFD1FE10F2A
:101C9000F11D808190E0B4DF1F5F1930A0F38FE960
:101CA0009FE00197F1F700C0000029960FB6F89465
:101CB000DEBF0FBECDBFDF91CF911F91089598B1C8
:101CC000906198B998B19B7F98B98BB988B18260BF
:101CD00088B980EA8A95F1F788B18D7F88B908952F
:101CE00081E08EDF8FE99FE00197F1F700C00000EF
:101CF000089582E085DF8FE39FE10197F1F700C04F
:101D000000000895417070E0660F771F6270282F01
:101D100030E0220F331F220F331F2470842F862BB5
:101D2000822B88606DDF8FE99FE00197F1F700C09B
:101D3000000008950F931F93CF938A01282F30E05E
:101D4000285F3F4F862F90E1299F800D112458DF97
:101D5000C0E002C0B4DFCF5FF801EC0FF11D80815D
:101D60008111F8CF8FE39FE10197F1F700C00000E8
:101D7000CF911F910F91089588E442DF84E09FDFA7
:101D80008EE09DDF85E19BDF84E099DF84E097DFD3
:101D900084E095DF80E093DF80E091DF80E530DF55
:101DA00080E08DDF84E08BDF84E089DF84E087DF03
:101DB00085E185DF8EE083DF84E081DF80E07FCF17
:101DC000089539DF8DDF95DFD7DF40E060E081E007
:101DD00099CF089588B18F7D88B98FE39CE90197E9
:101DE000F1F700C0000088B1806288B98FE39CE9F8
:101DF0000197F1F700C000001EDF72DF7ADF40E0DC
:101E000060E081E07FCF08958F929F92AF92BF9262
:101E1000CF92DF92EF92FF920F931F93CF93DF93B6
:101E2000CDB7DEB7A2970FB6F894DEBF0FBECDBF19
:101E30006C0121E1CE010196DC01E22F1D92EA95B1
:101E4000E9F7FE017296DF011D922A95E9F7F60186
:101E500001900020E9F731978F010C191D09E62E3A
:101E6000F12C5701AA0CBB1CAA0CBB1CAA0CBB1C56
:101E7000AA0CBB1CB6016A0D7B1D40E150E00E941C
:101E80008463BFEFEB1AFB0AEE0CFF1CEE0CFF1C89
:101E9000EE0CFF1CEE0CFF1CE016F1065CF4B50125
:101EA000605F7F4F6C0D7D1D40E150E0CE0142969A
:101EB0000E94846315DFAE014F5F5F4F60E081E0F9
:101EC00039DFAE014E5E5F4F60E082E033DF0052EB
:101ED00011090A151B0514F481E001C080E0A296E7
:101EE0000FB6F894DEBF0FBECDBFDF91CF911F912B
:101EF0000F91FF90EF90DF90CF90BF90AF909F90A9
:101F00008F900895CF93DF931F921F92CDB7DEB7C6
:101F10009A83898389819A81CB969C018AE0E7E341
:101F2000F2E0D90101900D928A95E1F789819A81B9
:101F3000CB9627E534E0FC0133AB22AB89819A8153
:101F4000CB9628E2FC0124AB89819A81CB96FC01D7
:101F500015AA89819A81CB96FC0116AA89819A815A
:101F6000CB96FC0117AA89819A81CB96FC0110AE11
:101F700089819A81CB96FC0111AE89819A81CB9699
:101F8000FC0112AE89819A818A589F4F9C018AE098
:101F9000E1E4F2E0D90101900D928A95E1F789819F
:101FA0009A818A589F4F2EEA38E0FC0133AB22AB6E
:101FB00089819A818A589F4F28E2FC0124AB89814C
:101FC0009A818A589F4FFC0115AA89819A818A5863
:101FD0009F4FFC0116AA89819A818A589F4FFC0164
:101FE00017AA89819A818A589F4FFC0110AE898176
:101FF0009A818A589F4FFC0111AE89819A818A5833
:102000009F4FFC0112AE89819A818F549F4F9C0192
:102010008AE0EBE4F2E0D90101900D928A95E1F7B4
:1020200089819A818F549F4F25E03DE0FC0133ABBD
:1020300022AB89819A818F549F4F28E2FC0124AB07
:1020400089819A818F549F4FFC0115AA89819A81B9
:102050008F549F4FFC0116AA89819A818F549F4FFC
:10206000FC0117AA89819A818F549F4FFC0110AE01
:1020700089819A818F549F4FFC0111AE89819A8189
:102080008F549F4FFC0112AE89819A8184519F4FDA
:102090009C018AE0E5E5F2E0D90101900D928A9574
:1020A000E1F789819A8184519F4F2CE531E1FC0150
:1020B00033AB22AB89819A8184519F4F28E2FC0186
:1020C00024AB89819A8184519F4FFC0115AA898193
:1020D0009A8184519F4FFC0116AA89819A8184516B
:1020E0009F4FFC0117AA89819A8184519F4FFC015F
:1020F00010AE89819A8184519F4FFC0111AE898174
:102100009A8184519F4FFC0112AE00000F900F90F6
:10211000DF91CF910895CF92DF92EF92FF920F93CC
:102120001F93CF93DF93CDB7DEB7C256D1400FB622
:10213000F894DEBF0FBECDBF81E089831A8281E0B3
:102140008B831C821D821E82CE018B5C9E4F26E0FB
:10215000FC01322F11923A95E9F71F8218861986F1
:102160001A86CE01885B9F4FFC0110821B861C865D
:102170001D861E8681E08F8781E0888B198A1A8AE6
:102180001B8A1C8A81E08D8B1E8A1F8A198E188EED
:102190001A8ECE01875B9F4FFC0110821B8E1C8E16
:1021A000CE01865B9F4FFC011082CE01855B9F4F65
:1021B000FC011082CE01845B9F4FFC011082CE0196
:1021C000855C9E4F2AE0FC01322F11923A95E9F787
:1021D0001E8E1D8E83E08F8F18A219A21AA21BA239
:1021E0001CA2CE018B5B9E4F2CE1FC01322F119281
:1021F0003A95E9F71DA21EA2CE01835B9F4FFC0119
:102200001082CE018F599E4FFC0111821082CE01A7
:10221000825B9F4FFC0110821FA218A619A61AA666
:102220001BA61CA61DA61EA6CE01815B9F4FFC010E
:1022300010821182128213820E946F46C2DD85ECE9
:102240009DE00E94EE468EE59CE05CDE85EF99E124
:102250000E94EA4F85E89DE00E94E95080E895E2FF
:102260000E94A9600E94DB430E948B451FA6C6C145
:102270009E012D573F4F80E090E0AAEFB3E4F901B3
:1022800080839183A283B3838E0109571F4FCE01B0
:102290008D579F4F2BEA3AEA4AEA50E4FC016081ED
:1022A0007181828193810E947B62DC01CB01F80104
:1022B00080839183A283B3838E0105571F4FCE0184
:1022C0008D579F4F20E030E040E850E4FC016081F2
:1022D0007181828193810E947B62DC01CB01F801D4
:1022E00080839183A283B383CE0189579F4F20E0DF
:1022F00030E040E85FE3FC0160817181828193817D
:102300000E942D6188230CF4FBC0CE0185579F4F9E
:1023100020E03FEF4FE757E4FC016081718182814B
:1023200093810E94776218160CF0A7C0CE018D57DA
:102330009F4F20E030E04AE754E4FC016081718166
:10234000828193810E943161DC01CB016C017D01AE
:102350008E0101571F4F20E030E04AE755E4C701E6
:10236000B6010E947B62DC01CB01F801808391837E
:10237000A283B383CE0181579F4F20E030E040E835
:102380005FE3FC0160817181828193810E942D61F4
:1023900088230CF45BC0CE0181579F4F20E03FEFB4
:1023A0004FE757E4FC0160817181828193810E9433
:1023B00077621816C4F520E030E040E251E4C7012E
:1023C000B6010E947B62DC01CB018E010D561F4FCE
:1023D000BC01CD010E949961DC01CB01F801918320
:1023E000808318C080E991E00197F1F79E012B5698
:1023F0003F4FF90191838083CE018D569F4F9E01FF
:102400002D563F4FF9012081318121503109FC01C6
:1024100031832083CE018D569F4FFC0180819181B5
:10242000892B01F773C08E010D561F4FCE018157C6
:102430009F4FFC0160817181828193810E9499612B
:10244000DC01CB01F8019183808308C0CE018D5659
:102450009F4F21E030E0FC0131832083CE018D5677
:102460009F4FFC01808191810197F1F79E012956D0
:102470003F4FF9019183808349C0CE0189579F4F17
:1024800020E030E04FE753E4FC01608171818281FC
:1024900093810E94776218160CF58E0107561F4F24
:1024A000CE0185579F4FFC016081718182819381AC
:1024B0000E949961DC01CB01F80191838083CE01F8
:1024C00087569F4FFC01808191810197F1F79E0112
:1024D00025563F4FF9019183808325C08E01035615
:1024E0001F4FCE0189579F4FFC016081718182810E
:1024F00093810E949961DC01CB01F801808306C0C1
:10250000CE0183569F4F21E0FC012083CE018356EC
:102510009F4FFC018081282F2A95F1F7CE0182562A
:102520009F4FFC0120838FA50E9495459E01215B52
:102530003F4FCC01A0E0B0E0F90180839183A283FA
:10254000B383CE01815B9F4FFC0180819181A28189
:10255000B381072E76E1880F991FAA1FBB1F7A95BA
:10256000D1F7702D2BA53CA54DA55EA582279327FD
:10257000A427B5278BA79CA7ADA7BEA7CE01815BDB
:102580009F4FFC0180819181A281B38180959095BC
:10259000A095B095072E7CE0880F991FAA1FBB1F3E
:1025A0007A95D1F7702D2BA53CA54DA55EA5822768
:1025B0009327A427B5278BA79CA7ADA7BEA7CE01BD
:1025C000815B9F4FFC0180819181A281B381880F43
:1025D000991FAA1FBB1F880F991FAA1FBB1F2BA5DE
:1025E0003CA54DA55EA582279327A427B5278BA7D9
:1025F0009CA7ADA7BEA78FA58F5F8FA78FA584309F
:1026000008F436CE8BA59CA50E9472634FE552E07C
:1026100060E080E08FDB8EA58F938DA58F938CA5D6
:102620008F938BA58F9380E792E0892F8F9380E71C
:1026300092E08F93CE018B5D9E4F292F2F938F9326
:102640000E9493632DB73EB7285F3F4F0FB6F894B3
:10265000DEBF0FBECDBFCE018B5D9E4FAC0163E0F0
:1026600081E068DB9E012D5A3F4F80E090E0AAE7B1
:10267000B4E4F90180839183A283B3838E01015670
:102680001F4FCE018D5A9F4F20E030E04AE755E4BE
:10269000FC0160817181828193810E947B62DC01F7
:1026A000CB01F80180839183A283B383CE0181564D
:1026B0009F4F20E030E040E85FE3FC0160817181E2
:1026C000828193810E942D6188230CF462C0CE0127
:1026D00081569F4F20E03FEF4FE757E4FC016081B8
:1026E0007181828193810E94776218160CF03EC03E
:1026F000CE018D5A9F4F20E030E040E251E4FC01D2
:1027000060817181828193810E947B62DC01CB01B7
:102710008E010D551F4FBC01CD010E949961DC0156
:10272000CB01F8019183808318C080E991E0019783
:10273000F1F79E012B553F4FF90191838083CE0124
:102740008D559F4F9E012D553F4FF90120813181BD
:1027500021503109FC0131832083CE018D559F4FDB
:10276000FC0180819181892B01F729C08E010D55D3
:102770001F4FCE0181569F4FFC0160817181828184
:1027800093810E949961DC01CB01F80191838083E0
:1027900008C0CE018D559F4F21E030E0FC01318310
:1027A0002083CE018D559F4FFC018081918101973F
:1027B000F1F79E0129553F4FF9019183808318AAB3
:1027C0002FC088A9282F30E04EE4429FC001439FCC
:1027D000900D1124885F914FFC0180818823E9F0DE
:1027E00088A9282F30E04EE4429FC001439F900DFE
:1027F0001124885F914FFC01508188A9282F30E077
:102800004EE4429FC001439F900D1124805F914F81
:10281000FC018081652F0E94F74088A98F5F88ABFB
:1028200088A9883270F28091680B9091690B90931F
:10283000670B8093660B1092690B1092680B89E00E
:1028400091E0FC018081882F90E0382F222786E0DC
:1028500091E0FC018081882F90E0822B932B909354
:10286000690B8093680B8091660B9091670B9C01BC
:10287000209530958091680B9091690B822393236A
:1028800090936B0B80936A0B89E091E0FC0180814F
:10289000882F90E0382F222786E091E0FC0180818C
:1028A000882F90E0822B932B8935910509F010C277
:1028B00087E290E02FEFFC01208388E290E02FE395
:1028C000FC0120838AE290E02FEFFC0120838BE261
:1028D00090E0FC0110827EDA19AAC6C19E01295A35
:1028E0003F4F80E090E0AAEFB3E4F9018083918349
:1028F000A283B3838E0107551F4FCE01895A9F4F84
:102900002BEA3AEA4AEA50E4FC0160817181828153
:1029100093810E947B62DC01CB01F801808391836B
:10292000A283B3838E0103551F4FCE01895A9F4F57
:1029300020E030E040E850E4FC0160817181828158
:1029400093810E947B62DC01CB01F801808391833B
:10295000A283B383CE0187559F4F20E030E040E84B
:102960005FE3FC0160817181828193810E942D610E
:1029700088230CF4FBC0CE0183559F4F20E03FEF2E
:102980004FE757E4FC0160817181828193810E944D
:10299000776218160CF0A7C0CE01895A9F4F20E02D
:1029A00030E04AE754E4FC016081718182819381C7
:1029B0000E943161DC01CB016C017D018E010F545D
:1029C0001F4F20E030E04AE755E4C701B6010E94FE
:1029D0007B62DC01CB01F80180839183A283B38306
:1029E000CE018F549F4F20E030E040E85FE3FC01D0
:1029F00060817181828193810E942D6188230CF412
:102A00005BC0CE018F549F4F20E03FEF4FE757E46C
:102A1000FC0160817181828193810E947762181626
:102A2000C4F520E030E040E251E4C701B6010E9465
:102A30007B62DC01CB018E010B541F4FBC01CD0129
:102A40000E949961DC01CB01F8019183808318C059
:102A500080E991E00197F1F79E0129543F4FF90178
:102A600091838083CE018B549F4F9E012B543F4F07
:102A7000F9012081318121503109FC01318320830A
:102A8000CE018B549F4FFC0180819181892B01F7EE
:102A900073C08E010B541F4FCE018F549F4FFC010A
:102AA00060817181828193810E949961DC01CB01F7
:102AB000F8019183808308C0CE018B549F4F21E0A1
:102AC00030E0FC0131832083CE018B549F4FFC0109
:102AD000808191810197F1F79E0127543F4FF901C1
:102AE0009183808349C0CE0187559F4F20E030E01D
:102AF0004FE753E4FC0160817181828193810E94E0
:102B0000776218160CF58E0105541F4FCE018355C0
:102B10009F4FFC0160817181828193810E94996144
:102B2000DC01CB01F80191838083CE0185549F4F56
:102B3000FC01808191810197F1F79E0123543F4F61
:102B4000F9019183808325C08E0101541F4FCE016E
:102B500087559F4FFC0160817181828193810E9422
:102B60009961DC01CB01F801808306C0CE0181545C
:102B70009F4F21E0FC012083CE0181549F4FFC0137
:102B80008081282F2A95F1F7CE0180549F4FFC01B8
:102B9000208389A90E9495459E01215B3F4FCC016E
:102BA000A0E0B0E0F90180839183A283B383CE01DA
:102BB000815B9F4FFC0180819181A281B381072EAF
:102BC00076E1880F991FAA1FBB1F7A95D1F7702D48
:102BD0002BA53CA54DA55EA582279327A427B52745
:102BE0008BA79CA7ADA7BEA7CE01815B9F4FFC0121
:102BF00080819181A281B38180959095A095B095B7
:102C0000072E7CE0880F991FAA1FBB1F7A95D1F76A
:102C1000702D2BA53CA54DA55EA582279327A42743
:102C2000B5278BA79CA7ADA7BEA7CE01815B9F4F01
:102C3000FC0180819181A281B381880F991FAA1F15
:102C4000BB1F880F991FAA1FBB1F2BA53CA54DA515
:102C50005EA582279327A427B5278BA79CA7ADA79E
:102C6000BEA789A98F5F89AB89A9843008F436CEC5
:102C70008BA59CA50E9472634FE552E060E080E066
:102C800059D88EA58F938DA58F938CA58F938BA5E7
:102C90008F9380E792E0892F8F9380E792E08F9364
:102CA000CE018B5D9E4F292F2F938F930E949363AC
:102CB0002DB73EB7285F3F4F0FB6F894DEBF0FBE6B
:102CC000CDBFCE018B5D9E4FAC0163E081E032D879
:102CD0008981282F30E04BE3429FC001439F900D34
:102CE00011248856934FFC018081882311F081E0E4
:102CF0008CA380916C0B882F90E0092E000CAA0BFE
:102D0000BB0B40E050E027E030E0841B950B281718
:102D1000390710F40C94A735FC018827EE58FF4FB3
:102D20008F4F0C94116388858823D9F444E752E0CF
:102D300060E080E00E949A0E43E852E060E081E0AB
:102D40000E949A0E44E952E060E082E00E949A0EEE
:102D50008091060240E06EE57CE00E94674381E0DE
:102D6000888780916A0B90916B0B88279072892BD2
:102D7000A1F180910602833080F18091060281509A
:102D80008093060280910602882F90E0292F2F93CE
:102D90008F9383EA92E0892F8F9383EA92E08F9357
:102DA000CE018B5D9E4F292F2F938F930E949363AB
:102DB0000F900F900F900F900F900F90CE018B5DA2
:102DC0009E4FAC0163E081E00E949A0E8091060262
:102DD00040E06EE57CE00E94674380916A0B909131
:102DE0006B0B88279074892BA1F1809106028430A7
:102DF00080F5809106028F5F809306028091060223
:102E0000882F90E0292F2F938F9383EA92E0892FC8
:102E10008F9383EA92E08F93CE018B5D9E4F292F93
:102E20002F938F930E9493630F900F900F900F90AA
:102E30000F900F90CE018B5D9E4FAC0163E081E05F
:102E40000E949A0E8091060240E06EE57CE00E94AE
:102E5000674380916A0B90916B0B88279071892B47
:102E600011F40C94AA3581E08AAB2EC08AA9282FD0
:102E700030E04BE3429FC001439F900D11248057E7
:102E8000934FFC01118210828AA9282F30E04BE376
:102E9000429FC001439F900D11248E56934FFC0119
:102EA00010828AA9282F30E04BE3429FC001439F44
:102EB000900D11248E56934FFC0180816AA90E94C7
:102EC0008A418AA98F5F8AAB809106029AA98917E5
:102ED00068F68091060240E06EE57CE00E94674360
:102EE00046EA52E060E080E00E949A0E809106027D
:102EF000882F90E0292F2F938F9383EA92E0892FD8
:102F00008F9383EA92E08F93CE018B5D9E4F292FA2
:102F10002F938F930E9493630F900F900F900F90B9
:102F20000F900F90CE018B5D9E4FAC0164E080E06E
:102F30000E949A0E47EB52E060E081E00E949A0EF8
:102F400048EC52E060E082E00E949A0E8091060216
:102F50000E948B4681E080936C0B0C94AA3581E033
:102F60008BAB09C04AE06BA98CED95E00E94214231
:102F70008BA98F5F8BAB809106029BA9891790F775
:102F800081E08CAB6BC149ED52E060E080E00E94D3
:102F90009A0E8CA9882F90E0292F2F938F9383EA84
:102FA00092E0892F8F9383EA92E08F93CE018B5D1D
:102FB0009E4F292F2F938F930E9493630F900F9012
:102FC0000F900F900F900F90CE018B5D9E4FAC0134
:102FD0006BE080E00E949A0E4AEE52E060E081E0F1
:102FE0000E949A0E4AEF52E060E082E00E949A0E40
:102FF00074C08091680B9091690B9093670B8093DC
:10300000660B1092690B1092680B89E091E0FC014D
:103010008081882F90E0382F222786E091E0FC0104
:103020008081882F90E0822B932B9093690B809363
:10303000680B8091660B9091670B9C0120953095F1
:103040008091680B9091690B8223932390936B0B73
:1030500080936A0B80916A0B90916B0B882791701B
:10306000892B89F08091710B882369F49091720B00
:103070008091710B492F682F81E00E94024481E00A
:103080008093710B18C080916A0B90916B0B88270D
:103090009270892B81F08091720B882361F490915A
:1030A000720B8091710B492F682F82E00E940244BD
:1030B00081E08093720B8091710B882329F08A85BF
:1030C000882311F482E08A878091720B882329F08B
:1030D0008A85882311F481E08A878091710B882387
:1030E00009F487CF8091720B882309F482CF8CA9D1
:1030F000282F30E08091640B482F50E08091650BC1
:10310000882F90E0840F951FAC016BE3629FC00194
:10311000639F900D11248057934FFC01518340838E
:103120008CA9282F30E04BE3429FC001439F900DB4
:1031300011248057934FFC01208131818F81482FCA
:1031400050E06BE3649FC001659F900D1124805790
:10315000934FFC01808191812817390709F04FC0F6
:103160008A85882F90E001978C59944FFC018081CB
:10317000823098F08A85882F90E001972A85222F47
:1031800030E0215031092C59344FF9012081215070
:103190008C59944FFC01208312C08A85882F90E0BF
:1031A00001972A85222F30E0215031092C59344FC4
:1031B000F90120812F5F8C59944FFC0120838CA949
:1031C000282F30E08091640B482F50E08091650BF0
:1031D000882F90E0840F951FAC016BE3629FC001C4
:1031E000639F900D11248057934FFC0151834083BE
:1031F0009091650B8091640B692F0E94B4438CA958
:10320000282F30E04BE3429FC001439F900D1124D3
:103210008057934FFC01208131818F81482F50E0EE
:103220006BE3649FC001659F900D11248057934FFD
:10323000FC01808191818217930710F48CA98F8300
:103240001092710B1092720B1A8640E06EE57CE0D2
:103250008CA90E9467438CA98F5F8CAB809106027A
:103260009CA9891708F08FCE8F8189839E012158F0
:103270003F4F80E090E0AAE7B4E4F90180839183B6
:10328000A283B3838E010F531F4FCE0181589F4FEE
:1032900020E030E04AE755E4FC01608171818281E1
:1032A00093810E947B62DC01CB01F80180839183D2
:1032B000A283B383CE018F539F4F20E030E040E8DC
:1032C0005FE3FC0160817181828193810E942D61A5
:1032D00088230CF462C0CE018F539F4F20E03FEF54
:1032E0004FE757E4FC0160817181828193810E94E4
:1032F000776218160CF03EC0CE0181589F4F20E037
:1033000030E040E251E4FC0160817181828193816F
:103310000E947B62DC01CB018E010B531F4FBC016D
:10332000CD010E949961DC01CB01F801918380837A
:1033300018C080E991E00197F1F79E0129533F4FB2
:10334000F90191838083CE018B539F4F9E012B53B4
:103350003F4FF9012081318121503109FC01318336
:103360002083CE018B539F4FFC0180819181892B5B
:1033700001F729C08E010B531F4FCE018F539F4F72
:10338000FC0160817181828193810E949961DC01DD
:10339000CB01F8019183808308C0CE018B539F4FEE
:1033A00021E030E0FC0131832083CE018B539F4F1D
:1033B000FC01808191810197F1F79E0127533F4FD6
:1033C000F9019183808381E08DAB13C08DA9282FF3
:1033D00030E04BE3429FC001439F900D1124805782
:1033E000934F2CED35E0FC01318320838DA98F5F55
:1033F0008DAB809106029DA9891740F78091060246
:1034000049816EE57CE00E9467434AE053E060E05A
:1034100080E00E949A0E8981882F90E0292F2F93B7
:103420008F9383EA92E0892F8F9383EA92E08F93C0
:10343000CE018B5D9E4F292F2F938F930E94936314
:103440000F900F900F900F900F900F90CE018B5D0B
:103450009E4FAC016BE080E00E949A0E4AEF52E072
:1034600060E081E00E949A0E4BE153E060E082E070
:103470000E949A0E82E080936C0B0C94B4358C857C
:103480008823C1F10E94700E4AE053E060E080E0C2
:103490000E949A0E8981882F90E0292F2F938F9375
:1034A00083EA92E0892F8F9383EA92E08F93CE0193
:1034B0008B5D9E4F292F2F938F930E9493630F90C4
:1034C0000F900F900F900F900F90CE018B5D9E4F3D
:1034D000AC016BE080E00E949A0E4AEF52E060E09F
:1034E00081E00E949A0E4BE153E060E082E00E948E
:1034F0009A0E1C8680916A0B90916B0B88279470B2
:10350000892B39F48BA1882321F48CA1882309F419
:10351000AFC08985882309F4ABC08F85882309F45F
:10352000A7C08889882309F4A3C08D89882309F45A
:103530009FC06AE08AE00E94B443909106028981AC
:10354000692F0E94DE62892F8F5F89838091060236
:1035500049816EE57CE00E9467434AE053E060E009
:1035600080E00E949A0E8981882F90E0292F2F9366
:103570008F9383EA92E0892F8F9383EA92E08F936F
:10358000CE018B5D9E4F292F2F938F930E949363C3
:103590000F900F900F900F900F900F90CE018B5DBA
:1035A0009E4FAC016BE080E00E949A0E4AEF52E021
:1035B00060E081E00E949A0E4BE153E060E082E01F
:1035C0000E949A0E198688E290E028E230E0F90124
:1035D00020812F73FC0120831B861E861E8A19A260
:1035E0001AA21BA21CA28981282F30E04BE3429F24
:1035F000C001439F900D11248E56934FFC01808192
:10360000282F30E04EE4429FC001439F900D1124CB
:103610008950924FFC0180818F8F8F8D843099F477
:103620008981282F30E04BE3429FC001439F900DDA
:1036300011248D56934FFC018081882321F081E075
:1036400089A381E089878981282F30E04BE3429F5D
:10365000C001439F900D11248856934FFC01808137
:10366000882331F081E08CA381E0898783E08F8F0C
:1036700080916A0B90916B0B88279470892B89F04D
:103680008B81882371F48F85882359F08D89882355
:1036900041F06AE08AE00E94B44381E08B831E8699
:1036A0001E8A8985882309F0D2C18B81882309F479
:1036B000CEC18CA1882309F0CAC10E943A379091EB
:1036C000640B8091650B981709F049C089A1882384
:1036D00009F045C01B828A818F5F8A831092710B2B
:1036E0001092720B8A81882F90E08230910581F0D0
:1036F00083309105B9F0019709F034C088E290E079
:1037000028E230E0F90120812064FC01208326C0FA
:1037100088E290E028E230E0F90120812068FC0195
:1037200020831CC088E290E028E230E0F90120818B
:103730002F73FC0120831092710B1092720B1A826E
:103740001092640B1092650B81E08B8381E0898776
:1037500089810E94584684E08F8F000003C081E079
:1037600089871A828981282F30E04BE3429FC0016C
:10377000439F900D11248E56934FFC0180818F5FE3
:103780008EABD9C09EA98DEC989F812D1124829576
:103790008695877028E2829F802D1124F92FF81BCF
:1037A0008F2F69810E948A419EA98DEC989F812D5F
:1037B000112482958695877028E2829F802D11249E
:1037C000292F281B822F882331F448EC50E069818F
:1037D00080E00E94655D9E01255A3F4F80E090E0A9
:1037E000A8ECB2E4F90180839183A283B3838E01B4
:1037F00005531F4FCE01855A9F4F20E030E04AE726
:1038000055E4FC0160817181828193810E947B6219
:10381000DC01CB01F80180839183A283B383CE01C5
:1038200085539F4F20E030E040E85FE3FC0160817A
:103830007181828193810E942D6188230CF462C082
:10384000CE0185539F4F20E03FEF4FE757E4FC0147
:1038500060817181828193810E94776218160CF0D9
:103860003EC0CE01855A9F4F20E030E040E251E457
:10387000FC0160817181828193810E947B62DC0105
:10388000CB018E0101531F4FBC01CD010E949961F4
:10389000DC01CB01F8019183808318C080E991E0BD
:1038A0000197F1F79E012F523F4FF90191838083D9
:1038B000CE0181539F4F9E0121533F4FF90120813B
:1038C000318121503109FC0131832083CE018153A4
:1038D0009F4FFC0180819181892B01F729C08E01C6
:1038E00001531F4FCE0185539F4FFC0160817181B1
:1038F000828193810E949961DC01CB01F80191835F
:10390000808308C0CE0181539F4F21E030E0FC014D
:1039100031832083CE0181539F4FFC0180819181AF
:103920000197F1F79E012D523F4FF901918380835A
:103930008EA98F5F8EAB8EA9282F30E08981482F0A
:1039400050E06BE3649FC001659F900D11248E567B
:10395000934FFC018081482F50E08091640B682FC9
:1039600070E08091650B882F90E0860F971F840F81
:10397000951F821793070CF005CF8981282F30E01F
:103980008981482F50E06BE3649FC001659F900DD3
:1039900011248E56934FFC018081482F50E0809176
:1039A000640B682F70E08091650B882F90E0860F84
:1039B000971F840F951F48E250E0BA010E94FE62F3
:1039C000582F4BE3429FC001439F900D11248E5608
:1039D000934FFC0150838981282F30E04BE3429FB5
:1039E000C001439F900D11248E56934FFC0180819E
:1039F00069810E948A418981282F30E04BE3429FF0
:103A0000C001439F900D11248E56934FFC0180817D
:103A1000282F30E04EE4429FC001439F900D1124B7
:103A20008950924FFC0180818F8F8981282F30E04F
:103A30004BE3429FC001439F900D11248E56934F3C
:103A4000FC0180818C831092710B1092720B80911B
:103A5000060249816EE57CE00E94674380916A0B13
:103A600090916B0B88279071892B21F01B8685E044
:103A700080936C0B8F8D882F90E0092E000CAA0B81
:103A8000BB0B40E050E027E030E0841B950B28178B
:103A9000390710F40C94AD35FC018827E658FF4F28
:103AA0008F4F0C9411638C81873031F08C8186317B
:103AB00019F08C81843211F41F8A02C081E08F8B4F
:103AC0008E89882311F00C9448281D8A80916A0BF6
:103AD00090916B0B88279074892B19F48B8988231C
:103AE00079F405EF19E12C894B8969818F890E944E
:103AF000435E8E8B8E89882319F48B898E5F8B8B26
:103B00008981882F90E00197895F9D4FFC0180811A
:103B1000282F30E080916A0B90916B0B82239323C6
:103B2000892B11F40C94482881E08C8B05EF19E166
:103B30002C894B8969818F890E94435E8E8B898194
:103B4000282F30E04BE3429FC001439F900D11248A
:103B50008E56934FFC018081282F30E04EE4429F27
:103B6000C001439F900D11248950924FFC01808128
:103B70008F8F8981282F30E04BE3429FC001439F04
:103B8000900D11248E56934FFC0180818C831C8AEA
:103B90001B8A81E08D8B81E08C870C9448288C8176
:103BA000282F30E04EE4429FC001439F900D112426
:103BB000885F914FFC018081882321F5188A8E014E
:103BC000085B1F4F498165EC7DE08C810E94B63512
:103BD000F8018083CE01885B9F4FFC018081882F94
:103BE00090E08130910519F0029721F00BC081E03F
:103BF000888B08C081E0888B81E08E8783E080938A
:103C00006C0B00008C81482F50E0CE01845B9F4FED
:103C10006EE4649F9001659F300D11242E5E314F3C
:103C2000F9012081FC0120838C81282F30E04EE4B3
:103C3000429FC001439F900D1124885F914FFC016A
:103C40008081882311F40C944B288C81282F30E03C
:103C50004EE4429FC001439F900D1124885F914F15
:103C6000FC0190818981981711F40C944B288E8562
:103C7000813011F40C944B28CE01845B9F4FFC01E2
:103C80008081882311F00C944B281F868B85882314
:103C900009F003C18C81282F30E04EE4429FC0011F
:103CA000439F900D1124885F914FFC0180818D8787
:103CB0008C81482F50E08C81282F30E06EE4629F89
:103CC000C001639F900D1124815F914FFC018081A1
:103CD000882F90E067E2649F9001659F300D11246A
:103CE000820F931F880F991F8650924FFC0180818D
:103CF0009181998F888F8C81282F30E04EE4429FEC
:103D0000C001439F900D11248A5F914FFC012081D7
:103D10003181CE01875B9F4FFC01208381E08A8F38
:103D20001FAA25C08C81482F50E08FA9882F90E0D2
:103D30006EE4649F9001659F300D1124820F931FE4
:103D4000865F914FFC018081282F30E04EE4429F36
:103D5000C001439F900D1124885F914FFC01908119
:103D60008D85981709F01A8E8FA98F5F8FAB8FA959
:103D70008330C0F28A8D8823A9F0CE01875B9F4FE4
:103D8000FC018081282F30E0888D998D8217930760
:103D900048F4CE01875B9F4FFC018081882F90E023
:103DA000998F888F4AE053E060E080E00E949A0E8D
:103DB0008981882F90E0292F2F938F9383EA92E0B7
:103DC000892F8F9383EA92E08F93CE018B5D9E4F74
:103DD000292F2F938F930E9493630F900F900F9032
:103DE0000F900F900F90CE018B5D9E4FAC016BE05A
:103DF00080E00E949A0E4CE253E060E081E00E9475
:103E00009A0E898D8F93888D8F9383EA92E0892F04
:103E10008F9383EA92E08F93CE018B5D9E4F292F83
:103E20002F938F930E9493630F900F900F900F909A
:103E30000F900F90CE018B5D9E4FAC016AE081E048
:103E40000E949A0E4DE353E060E082E00E949A0ED9
:103E50008D85882F90E0292F2F938F9383EA92E00E
:103E6000892F8F9383EA92E08F93CE018B5D9E4FD3
:103E7000292F2F938F930E9493630F900F900F9091
:103E80000F900F900F90CE018B5D9E4FAC016BE0B9
:103E900082E00E949A0E81E08B878981882F90E0D2
:103EA0000197895F9D4FFC018081282F30E0809130
:103EB0006A0B90916B0B82239323892B11F40C9442
:103EC0004B28888D998DAC016D8589810E94655D37
:103ED0008E878E85813011F00C944B281B8681E0F3
:103EE0008F8781E08C870C944B288E85813011F46C
:103EF0000C944E281F868B85882309F068C08C811E
:103F0000282F30E04EE4429FC001439F900D1124C2
:103F10008850924FFC0180819181998F888F4AE06F
:103F200053E060E080E00E949A0E8981882F90E043
:103F3000292F2F938F9383EA92E0892F8F9383EA1F
:103F400092E08F93CE018B5D9E4F292F2F938F93FD
:103F50000E9493630F900F900F900F900F900F900F
:103F6000CE018B5D9E4FAC016BE080E00E949A0E0B
:103F70004CE253E060E081E00E949A0E898D8F93BD
:103F8000888D8F9383EA92E0892F8F9383EA92E062
:103F90008F93CE018B5D9E4F292F2F938F930E947D
:103FA00093630F900F900F900F900F900F90CE0192
:103FB0008B5D9E4FAC016AE081E00E949A0E4EE458
:103FC00053E060E082E00E949A0E81E08B87898155
:103FD000882F90E00197895F9D4FFC018081282FF9
:103FE00030E080916A0B90916B0B82239323892B95
:103FF00011F40C944E28888D998DAC0160E0898174
:104000000E94655D8E878E85813011F00C944E285C
:104010001B8681E08F8781E08C870C944E288C81F1
:10402000282F30E04EE4429FC001439F900D1124A1
:10403000885F914FFC018081882321F5188A8E01C9
:10404000085B1F4F498165EC7DE08C810E94B6358D
:10405000F8018083CE01885B9F4FFC018081882F0F
:1040600090E08130910519F0029721F00BC081E0BA
:10407000888B08C081E0888B81E08E8783E0809305
:104080006C0B00008C81482F50E0CE01845B9F4F69
:104090006EE4649F9001659F300D11242E5E314FB8
:1040A000F9012081FC0120838C81282F30E04EE42F
:1040B000429FC001439F900D1124885F914FFC01E6
:1040C0008081882309F4EDC78C81282F30E04EE4ED
:1040D000429FC001439F900D1124885F914FFC01C6
:1040E00090818981981709F4DCC78E85813009F4A5
:1040F000D8C7CE01845B9F4FFC018081882309F0E3
:10410000D0C71F868B85882309F0CCC08C81282FCF
:1041100030E04EE4429FC001439F900D1124885F20
:10412000914FFC0180818D87198A85E088AF22C07C
:1041300088AD282F30E04EE4429FC001439F900D90
:104140001124885F914FFC0140818C81282F30E041
:104150005EE4529FC001539F900D1124885F914FE0
:10416000FC018081481719F489898F5F898B88AD9C
:10417000865F88AF88AD8432D8F289898150898B77
:104180008C81482F50E08989882F90E067E2649FF6
:104190009001659F300D1124820F931F880F991F86
:1041A0008650924FFC0180819181998F888F4AE0DF
:1041B00053E060E080E00E949A0E8981882F90E0B1
:1041C000292F2F938F9383EA92E0892F8F9383EA8D
:1041D00092E08F93CE018B5D9E4F292F2F938F936B
:1041E0000E9493630F900F900F900F900F900F907D
:1041F000CE018B5D9E4FAC016BE080E00E949A0E79
:104200004CE253E060E081E00E949A0E898D8F932A
:10421000888D8F9383EA92E0892F8F9383EA92E0CF
:104220008F93CE018B5D9E4F292F2F938F930E94EA
:1042300093630F900F900F900F900F900F90CE01FF
:104240008B5D9E4FAC016AE081E00E949A0E4DE3C7
:1042500053E060E082E00E949A0E8D85882F90E006
:10426000292F2F938F9383EA92E0892F8F9383EAEC
:1042700092E08F93CE018B5D9E4F292F2F938F93CA
:104280000E9493630F900F900F900F900F900F90DC
:10429000CE018B5D9E4FAC016BE082E00E949A0ED6
:1042A00081E08B878981882F90E00197895F9D4FFE
:1042B000FC018081282F30E080916A0B90916B0B7C
:1042C00082239323892B09F4ECC6888D998DAC0148
:1042D0006D8589810E94655D8E878E85813009F0AC
:1042E000E0C61B8681E08F8781E08C87DAC689A1D2
:1042F000882309F4D9C68981282F30E04BE3429FF7
:10430000C001439F900D11248D56934FFC01808175
:10431000882309F415C18AA1882309F011C14AE054
:1043200053E060E080E00E949A0E8981882F90E03F
:10433000292F2F938F9383EA92E0892F8F9383EA1B
:1043400092E08F93CE018B5D9E4F292F2F938F93F9
:104350000E9493630F900F900F900F900F900F900B
:10436000CE018B5D9E4FAC016BE080E00E949A0E07
:104370004FE553E060E081E00E949A0E40E753E091
:1043800060E082E00E949A0E81E08AA39E01215A99
:104390003F4F80E090E8ABE3B5E4F901808391837F
:1043A000A283B3838E010B521F4FCE01815A9F4FC0
:1043B00020E030E04AE755E4FC01608171818281B0
:1043C00093810E947B62DC01CB01F80180839183A1
:1043D000A283B383CE018B529F4F20E030E040E8B0
:1043E0005FE3FC0160817181828193810E942D6174
:1043F00088230CF462C0CE018B529F4F20E03FEF28
:104400004FE757E4FC0160817181828193810E94B2
:10441000776218160CF03EC0CE01815A9F4F20E003
:1044200030E040E251E4FC0160817181828193813E
:104430000E947B62DC01CB018E0107521F4FBC0141
:10444000CD010E949961DC01CB01F8019183808349
:1044500018C080E991E00197F1F79E0125523F4F86
:10446000F90191838083CE0187529F4F9E0127528D
:104470003F4FF9012081318121503109FC01318305
:104480002083CE0187529F4FFC0180819181892B2F
:1044900001F729C08E0107521F4FCE018B529F4F4B
:1044A000FC0160817181828193810E949961DC01AC
:1044B000CB01F8019183808308C0CE0187529F4FC2
:1044C00021E030E0FC0131832083CE0187529F4FF1
:1044D000FC01808191810197F1F79E0123523F4FAA
:1044E000F901918380838981282F30E04BE3429F3B
:1044F000C001439F900D11248B56934FFC01808186
:10450000882379F01092040241E853E060E081E0F2
:104510000E949A0E42E953E060E082E00E949A0E07
:104520000FC081E08093040243EA53E060E081E041
:104530000E949A0E44EB53E060E082E00E949A0EE3
:1045400080910402882F90E08130910509F45BC0CE
:10455000823091051CF4892B49F0ADC3823091055E
:1045600009F478C0039709F49EC1A5C38E818823FE
:1045700081F045EC53E060E081E00E949A0E44EB4C
:1045800053E060E082E00E949A0E81E08093040292
:104590008DC38D81882309F489C38981282F30E058
:1045A0004BE3429FC001439F900D11248D56934FC2
:1045B000FC0110828981282F30E04BE3429FC0012B
:1045C000439F900D11248B56934FFC0110828981DB
:1045D000282F30E04BE3429FC001439F900D1124F0
:1045E0008C56934FFC011082198619A24AEF52E0B3
:1045F00060E081E00E949A0E46ED53E060E082E0C8
:104600000E949A0E53C38E81882381F047EE53E0B7
:1046100060E081E00E949A0E48EF53E060E082E0A3
:104620000E949A0E82E08093040242C38D81882307
:1046300009F43EC34AEF52E060E081E00E949A0E26
:1046400046ED53E060E082E00E949A0E83E08093A2
:1046500004022EC38E81882371F18981282F30E0D6
:104660004BE3429FC001439F900D11248B56934F03
:10467000FC018081882379F041E853E060E081E02B
:104680000E949A0E42E953E060E082E00E949A0E96
:10469000109204020FC345EC53E060E081E00E94F9
:1046A0009A0E44EB53E060E082E00E949A0E81E0B3
:1046B00080930402FFC28D81882309F4FBC242E388
:1046C00050E060E089810E94655D8E878E85813033
:1046D00009F0F0C249E054E060E081E00E949A0EE7
:1046E0004AE154E060E082E00E949A0E8981282F1E
:1046F00030E04BE3429FC001439F900D11248D5643
:10470000934FFC0110828981282F30E04BE3429FB8
:10471000C001439F900D11248C56934FFC011082D1
:10472000198619A29E012D593F4F80E090E0AAE71B
:10473000B4E4F90180839183A283B3838E01015293
:104740001F4FCE018D599F4F20E030E04AE755E4DE
:10475000FC0160817181828193810E947B62DC0116
:10476000CB01F80180839183A283B383CE01815270
:104770009F4F20E030E040E85FE3FC016081718101
:10478000828193810E942D6188230CF462C0CE0146
:1047900081529F4F20E03FEF4FE757E4FC016081DB
:1047A0007181828193810E94776218160CF03EC05D
:1047B000CE018D599F4F20E030E040E251E4FC01F2
:1047C00060817181828193810E947B62DC01CB01D7
:1047D0008E010D511F4FBC01CD010E949961DC017A
:1047E000CB01F8019183808318C080E991E00197A3
:1047F000F1F79E012B513F4FF90191838083CE0148
:104800008D519F4F9E012D513F4FF90120813181E4
:1048100021503109FC0131832083CE018D519F4FFE
:10482000FC0180819181892B01F729C08E010D51F6
:104830001F4FCE0181529F4FFC01608171818281A7
:1048400093810E949961DC01CB01F80191838083FF
:1048500008C0CE018D519F4F21E030E0FC01318333
:104860002083CE018D519F4FFC0180819181019762
:10487000F1F79E0129513F4FF901918380834AEF5F
:1048800052E060E081E00E949A0E4BE153E060E06C
:1048900082E00E949A0E8091060249816EE57CE0DA
:1048A0000E94674307C21092710B1092720B0E9414
:1048B0003A379091640B8091650B981709F0D5C039
:1048C0004BE254E060E081E00E949A0E46ED53E036
:1048D00060E082E00E949A0E8981282F30E04BE34D
:1048E000429FC001439F900D11248D56934FFC01B0
:1048F00010828981282F30E04BE3429FC001439F03
:10490000900D11248C56934FFC01108219869E0144
:1049100029593F4F80E090E4ACE9B5E4F901808388
:104920009183A283B3838E0107511F4FCE01895912
:104930009F4F20E030E04AE755E4FC01608171813F
:10494000828193810E947B62DC01CB01F80180832C
:104950009183A283B383CE0187519F4F20E030E043
:1049600040E85FE3FC0160817181828193810E9454
:104970002D6188230CF462C0CE0187519F4F20E047
:104980003FEF4FE757E4FC016081718182819381A1
:104990000E94776218160CF03EC0CE0189599F4FD5
:1049A00020E030E040E251E4FC01608171818281CD
:1049B00093810E947B62DC01CB018E0103511F4F6A
:1049C000BC01CD010E949961DC01CB01F80191830A
:1049D000808318C080E991E00197F1F79E01215191
:1049E0003F4FF90191838083CE0183519F4F9E01F8
:1049F00023513F4FF9012081318121503109FC01C0
:104A000031832083CE0183519F4FFC0180819181AE
:104A1000892B01F750C18E0103511F4FCE018751E1
:104A20009F4FFC0160817181828193810E94996115
:104A3000DC01CB01F8019183808308C0CE01835152
:104A40009F4F21E030E0FC0131832083CE01835170
:104A50009F4FFC01808191810197F1F79E012F50BA
:104A60003F4FF9019183808326C14CE354E060E01D
:104A700081E00E949A0E46ED53E060E082E00E94E1
:104A80009A0E1092710B1092720B8981282F30E0D0
:104A90008981482F50E06BE3649FC001659F900DB2
:104AA00011248C56934FFC01808141E0480F5BE359
:104AB000529FC001539F900D11248C56934FFC01BF
:104AC00040838981282F30E04BE3429FC001439F00
:104AD000900D11248C56934FFC0180818330B1F5E9
:104AE00042E350E060E089810E94655D8E878981A4
:104AF000282F30E04BE3429FC001439F900D1124CB
:104B00008D56934FFC0110828981282F30E04BE3B2
:104B1000429FC001439F900D11248C56934FFC017E
:104B2000108219864AEF52E060E081E00E949A0EFE
:104B30004BE153E060E082E00E949A0E8091060211
:104B400049816EE57CE00E946743B5C081E08BA39C
:104B50009E0125593F4F80E090E8ABE3B5E4F901B1
:104B600080839183A283B3838E010D501F4FCE01AA
:104B700085599F4F20E030E04AE755E4FC01608111
:104B80007181828193810E947B62DC01CB01F801FB
:104B900080839183A283B383CE018D509F4F20E009
:104BA00030E040E85FE3FC016081718182819381A4
:104BB0000E942D6188230CF462C0CE018D509F4F5E
:104BC00020E03FEF4FE757E4FC0160817181828173
:104BD00093810E94776218160CF03EC0CE01855971
:104BE0009F4F20E030E040E251E4FC0160817181A0
:104BF000828193810E947B62DC01CB018E0109508E
:104C00001F4FBC01CD010E949961DC01CB01F8016D
:104C10009183808318C080E991E00197F1F79E01AC
:104C200027503F4FF90191838083CE0189509F4FD8
:104C30009E0129503F4FF9012081318121503109D6
:104C4000FC0131832083CE0189509F4FFC0180817C
:104C50009181892B01F72FC08E0109501F4FCE0182
:104C60008D509F4FFC0160817181828193810E94F0
:104C70009961DC01CB01F8019183808308C0CE01EA
:104C800089509F4F21E030E0FC0131832083CE0129
:104C900089509F4FFC01808191810197F1F79E011E
:104CA00025503F4FF9019183808305C0000003C068
:104CB000000001C000008981882F90E00197895F82
:104CC0009D4FFC018081282F30E080916A0B9091EC
:104CD0006B0B82239323892B21F081E08D831E822D
:104CE000E3C18981882F90E00197855F9D4FFC018A
:104CF0008081282F30E080916A0B90916B0B82238A
:104D00009323892B21F01D8281E08E83CDC11D82EA
:104D10001E82CAC189810E94584684E08F8F898192
:104D2000282F30E04BE3429FC001439F900D112498
:104D30008D56934F21E0FC01208381E08B8381E03D
:104D40008987B6C18C81282F30E04EE4429FC00194
:104D5000439F900D1124885F914FFC01808188232F
:104D600021F5188A8E01085B1F4F498165EC7DE0B3
:104D70008C810E94B635F8018083CE01885B9F4FFD
:104D8000FC018081882F90E08130910519F0029715
:104D900021F00BC081E0888B08C081E0888B81E026
:104DA0008E8783E080936C0B00008C81482F50E04D
:104DB000CE01845B9F4F6EE4649F9001659F300D30
:104DC00011242E5E314FF9012081FC0120838C815A
:104DD000282F30E04EE4429FC001439F900D1124E4
:104DE000885F914FFC018081882309F460C18C8128
:104DF000282F30E04EE4429FC001439F900D1124C4
:104E0000885F914FFC0190818981981709F44FC107
:104E10008E85813009F44BC1CE01845B9F4FFC012C
:104E20008081882309F043C11F868B85882309F080
:104E300005C19091B01180919016981719F48AE0ED
:104E40008A8B02C084E08A8B4AE053E060E080E015
:104E50000E949A0E8981882F90E0292F2F938F939B
:104E600083EA92E0892F8F9383EA92E08F93CE01B9
:104E70008B5D9E4F292F2F938F930E9493630F90EA
:104E80000F900F900F900F900F90CE018B5D9E4F63
:104E9000AC016BE080E00E949A0E4DE454E060E0CB
:104EA00081E00E949A0E4FE554E060E082E00E94AB
:104EB0009A0E8A89882F90E0292F2F938F9383EA67
:104EC00092E0892F8F9383EA92E08F93CE018B5DDE
:104ED0009E4F292F2F938F930E9493630F900F90D3
:104EE0000F900F900F900F90CE018B5D9E4FAC01F5
:104EF0006EE082E00E949A0E0E943A378C81282F41
:104F000030E04EE4429FC001439F900D1124885F22
:104F1000914FFC0180818D878091640B282F30E0B8
:104F20008091650B882F90E0A901480F591F8A894D
:104F3000282F30E0429FC001439F900D529F900D5B
:104F40001124998F888F4AE053E060E080E00E944E
:104F50009A0E8981882F90E0292F2F938F9383EACF
:104F600092E0892F8F9383EA92E08F93CE018B5D3D
:104F70009E4F292F2F938F930E9493630F900F9032
:104F80000F900F900F900F90CE018B5D9E4FAC0154
:104F90006BE080E00E949A0E4CE253E060E081E01A
:104FA0000E949A0E898D8F93888D8F9383EA92E069
:104FB000892F8F9383EA92E08F93CE018B5D9E4F72
:104FC000292F2F938F930E9493630F900F900F9030
:104FD0000F900F900F90CE018B5D9E4FAC016AE059
:104FE00081E00E949A0E4DE353E060E082E00E946F
:104FF0009A0E8D85882F90E0292F2F938F9383EA27
:1050000092E0892F8F9383EA92E08F93CE018B5D9C
:105010009E4F292F2F938F930E9493630F900F9091
:105020000F900F900F900F90CE018B5D9E4FAC01B3
:105030006BE082E00E949A0E81E08B878981882F45
:1050400090E00197895F9D4FFC018081282F30E01F
:1050500080916A0B90916B0B82239323892B39F1FA
:10506000888D998DAC016D8589810E94655D8E87E3
:105070008E858130E1F41B8681E08F8781E08C870B
:105080001092710B1092720B12C000000C94AD358F
:1050900000000C94AD3500000C94AD3500000C946C
:1050A000AD3500000C94AD3500000C94AD3500001A
:1050B0000C94AD358B85882309F050C00E94700E8A
:1050C00040E754E060E080E00E949A0E8C81282F37
:1050D00030E04EE4429FC001439F900D11248B535A
:1050E000924FAC0160E081E00E949A0E41E854E0EA
:1050F00060E082E00E949A0E89E090E09E8F8D8FA2
:1051000081E08B8781E089AF24C089AD882F90E052
:1051100029AD422F50E06BE3649F9001659F300DF5
:1051200011242057334FF90120813181AE01455CB4
:105130005E4F880F991F840F951FFC0131832083D8
:1051400040E069AD80E090E00E94214289AD8F5F30
:1051500089AF8091060299AD8917B8F61AAE92C050
:105160008AAD882F90E0895F9D4FFC018081282FB8
:1051700030E080916A0B90916B0B82239323892BF3
:1051800009F449C08AAD882F90E09E012B5C3E4F08
:10519000820F931FFC0180818823E9F58AAD882F57
:1051A00090E09C012F5F3F4F4BE3429FC001439F24
:1051B000900D11248057934FFC01208131818D8DFA
:1051C0009E8D8217930738F58D8D9E8D01969E8F4B
:1051D0008D8F81E08BAF09C040E06BAD80E090E047
:1051E0000E9421428BAD8F5F8BAF809106029BADF9
:1051F000891790F78AAD21E0280F8D8D9E8D41E0B3
:10520000622F0E9421428AAD21E0280FCE018B5CE3
:105210009E4FFC0125838AAD882F90E0855F9D4FCE
:10522000FC018081282F30E080916A0B90916B0BFC
:1052300082239323892B19F18AAD882F90E09E0158
:105240002B5C3E4F820F931FFC0180818823B9F4B1
:105250008AAD882F90E09E012B5C3E4F820F931FFA
:1052600021E0FC012083CE018B5C9E4FFC018481F8
:1052700021E0280FCE018B5C9E4FFC0124838AAD78
:105280008F5F8AAF809106029AAD981708F468CFB5
:10529000CE018B5C9E4FFC01948180910602981791
:1052A00011F00C94B035CE018B5C9E4FFC018581D2
:1052B000882309F45CC10E94700E42E954E060E06A
:1052C00080E00E949A0E4AE053E060E081E00E9494
:1052D0009A0ECE018B5C9E4FFC018581882F90E059
:1052E000292F2F938F9383EA92E0892F8F9383EA5C
:1052F00092E08F93CE018B5D9E4F292F2F938F933A
:105300000E9493630F900F900F900F900F900F904B
:10531000CE018B5D9E4FAC016BE081E00E949A0E46
:105320009E0121593F4F80E090E8ABE3B5E4F901DD
:1053300080839183A283B3838E0103501F4FCE01DC
:1053400081599F4F20E030E04AE755E4FC0160813D
:105350007181828193810E947B62DC01CB01F80123
:1053600080839183A283B383CE0183509F4F20E03B
:1053700030E040E85FE3FC016081718182819381CC
:105380000E942D6188230CF462C0CE0183509F4F90
:1053900020E03FEF4FE757E4FC016081718182819B
:1053A00093810E94776218160CF03EC0CE0181599D
:1053B0009F4F20E030E040E251E4FC0160817181C8
:1053C000828193810E947B62DC01CB018E010F5FA1
:1053D0001E4FBC01CD010E949961DC01CB01F80197
:1053E0009183808318C080E991E00197F1F79E01D5
:1053F0002D5F3E4FF90191838083CE018F5F9E4FD9
:105400009E012F5F3E4FF9012081318121503109EA
:10541000FC0131832083CE018F5F9E4FFC01808190
:105420009181892B01F729C08E010F5F1E4FCE019C
:1054300083509F4FFC0160817181828193810E9422
:105440009961DC01CB01F8019183808308C0CE0112
:105450008F5F9E4F21E030E0FC0131832083CE013D
:105460008F5F9E4FFC01808191810197F1F79E0132
:105470002B5F3E4FF9019183808381E08CAF1EC08A
:105480008CAD482F50E08CAD882F90E09E01255CBC
:105490003E4F880F991F820F931FFC01208131819D
:1054A0006BE3649FC001659F900D11248057934F5B
:1054B000FC01318320838CAD8F5F8CAF809106021D
:1054C0009CAD8917E8F68091060240E06EE57CE02D
:1054D0000E946743CE018B5C9E4FFC0125818D8D20
:1054E0009E8DAC0160E0822F0E94655D8C81282F2B
:1054F00030E0CE018B5C9E4FFC0145815EE4529F03
:10550000C001539F900D1124885F914FFC0140838F
:10551000CE018B5C9E4FFC0155818C81282F30E0A1
:105520004EE4429FC001439F900D1124805F914F34
:10553000FC018081652F0E94F7401DAE0DC08DAD2E
:10554000882F90E09E012B5C3E4F820F931FFC0141
:1055500010828DAD8F5F8DAF8DAD863080F31B8651
:1055600081E08C8782E080936C0B0C94B0350E94B4
:10557000700E43EA54E060E080E00E949A0E43EB34
:1055800054E060E081E00E949A0E9E012D583F4F4A
:1055900080E090E8ABE3B5E4F90180839183A283D6
:1055A000B3838E01095F1E4FCE018D589F4F20E0BF
:1055B00030E04AE755E4FC0160817181828193818A
:1055C0000E947B62DC01CB01F80180839183A2837E
:1055D000B383CE01895F9E4F20E030E040E85FE377
:1055E000FC0160817181828193810E942D618823F9
:1055F0000CF462C0CE01895F9E4F20E03FEF4FE781
:1056000057E4FC0160817181828193810E947762FD
:1056100018160CF03EC0CE018D589F4F20E030E0B0
:1056200040E251E4FC0160817181828193810E949A
:105630007B62DC01CB018E01055F1E4FBC01CD01F9
:105640000E949961DC01CB01F8019183808318C02D
:1056500080E991E00197F1F79E01235F3E4FF90148
:1056600091838083CE01855F9E4F9E01255F3E4FD3
:10567000F9012081318121503109FC0131832083DE
:10568000CE01855F9E4FFC0180819181892B01F7BE
:1056900029C08E01055F1E4FCE01895F9E4FFC0120
:1056A00060817181828193810E949961DC01CB01CB
:1056B000F8019183808308C0CE01855F9E4F21E071
:1056C00030E0FC0131832083CE01855F9E4FFC01D9
:1056D000808191810197F1F79E01215F3E4FF90191
:1056E0009183808381E08EAF1EC08EAD482F50E045
:1056F0008EAD882F90E09E01255C3E4F880F991F4C
:10570000820F931FFC01208131816BE3649FC001F4
:10571000659F900D11248057934FFC0131832083A6
:105720008EAD8F5F8EAF809106029EAD8917E8F631
:105730008091060249816EE57CE00E9467431FAEBE
:105740000DC08FAD882F90E09E012B5C3E4F820FE5
:10575000931FFC0110828FAD8F5F8FAF8FAD8630AE
:1057600080F31B8681E08C8782E080936C0B0C9425
:10577000B03589810E946E5181E08C8782E08093F0
:105780006C0B0C94B43580910502882F90E0813029
:10579000910541F08230910509F489C0892B09F403
:1057A00043C0CEC08B858823A1F444EC54E060E074
:1057B00080E00E949A0E45ED54E060E081E00E9496
:1057C0009A0E46EE54E060E082E00E949A0E81E07C
:1057D0008B8780916A0B90916B0B88279074892B33
:1057E00021F0109205021B86A4C080916A0B909153
:1057F0006B0B88279071892B41F081E08093050223
:1058000084E080936C0B1B8694C080916A0B90910E
:105810006B0B88279470892B09F48BC082E08093EE
:105820006C0B81E08C8785C08B858823A1F444ECC8
:1058300054E060E080E00E949A0E47EF54E060E0A0
:1058400081E00E949A0E46EE54E060E082E00E9401
:105850009A0E81E08B8780916A0B90916B0B882761
:105860009074892B29F082E0809305021B8664C026
:1058700080916A0B90916B0B88279071892B41F076
:1058800081E08093050286E080936C0B1B8654C0F8
:1058900080916A0B90916B0B88279470892B09F487
:1058A0004BC082E080936C0B81E08C8745C08B8578
:1058B0008823A1F444EC54E060E080E00E949A0E5A
:1058C00048E055E060E081E00E949A0E46EE54E028
:1058D00060E082E00E949A0E81E08B8780916A0BE3
:1058E00090916B0B88279074892B29F081E080932D
:1058F00005021B8624C080916A0B90916B0B882750
:105900009071892B41F081E08093050287E08093BC
:105910006C0B1B8614C080916A0B90916B0B8827CF
:105920009470892B61F082E080936C0B81E08C870E
:1059300006C000000C94B43500000C94B43500008F
:105940000C94B4358B85882309F099C046ED53E05B
:1059500060E080E00E949A0E49E155E060E081E05D
:105960000E949A0E46EE54E060E082E00E949A0E99
:1059700081E08B87CE01805C9F4FFC0110821AC0B2
:10598000CE01805C9F4FFC018081882F90E09E01BA
:105990002B5B3E4F820F931FFC011082CE01805C77
:1059A0009F4FFC01808121E0280FCE01805C9F4F3A
:1059B000FC012083CE01805C9F4FFC0180818C31F3
:1059C000F8F21B8ECE018F5B9F4FFC01108231C01D
:1059D000CE018F5B9F4FFC018081282F30E04EE489
:1059E000429FC001439F900D1124885F914FFC019D
:1059F00090818981981791F48B8D882F90E09E017A
:105A00002B5B3E4F820F931F9E012F5B3F4FF9018F
:105A10002081FC0120838B8D8F5F8B8FCE018F5B6C
:105A20009F4F9E012F5B3F4FF90120812F5FFC01AB
:105A30002083CE018F5B9F4FFC018081883240F232
:105A400046ED53E060E080E00E949A0E8C8D882F36
:105A500090E09E012B5B3E4F820F931FFC018081E3
:105A6000282F30E04EE4429FC001439F900D112447
:105A70008B53924FAC0160E080E00E949A0E8091BF
:105A80006A0B90916B0B88279074892B51F18C8D48
:105A9000882F90E001962B8D222F30E0B9010E94D3
:105AA000FE628C8F46ED53E060E080E00E949A0E2B
:105AB0008C8D882F90E09E012B5B3E4F820F931FB1
:105AC000FC018081282F30E04EE4429FC001439FBB
:105AD000900D11248B53924FAC0160E080E00E9446
